:020000040800F2
:100000000000022083000008810000088100000831
:100010008100000881000008810000080000000045
:100020000000000000000000000000008100000847
:100030008100000800000000810000088100000825
:10004000810000088100000881000008810000088C
:10005000810000088100000881000008810000087C
:10006000810000088100000881000008810000086C
:10007000810000088100000881000008810000085C
:10008000FEE726482649274A914205D050F8043B0E
:1000900041F8043B9142F9D1234824494FF0000232
:1000A000884203D040F8042B8842FBD100F040F88E
:1000B000FEE7034B1A681206FCD55860704700BF74
:1000C0000010014008B5411E11F8010F00B908BD2C
:1000D000FFF7EFFFF8E7054B9A689107FCD5187317
:1000E0009A68D207FCD5187B704700BF00300140EA
:1000F00010B5094C4FF08043C4F818340520FFF7C1
:10010000EAFFFF20FFF7E7FFC307FAD44FF480436D
:10011000C4F8183410BD00BF0000024090A50708C5
:10012000000000200000002000000020000000204F
:100130002DE9F04FA04EA14CD6F83038A048A14D83
:10014000A14F43F0010385B0C6F83038D6F84438E3
:1001500043F01003C6F84438236823F47013236077
:10016000236843F420132360636A23F47F6343F41A
:10017000EE636362A36843F42013A360934B8B2266
:100180009A6042F20C02DA60FFF79CFFD6F8303832
:100190008F4843F04203C6F83038D6F8443843F469
:1001A0008053C6F84438D4F8003423F0405323F485
:1001B0007C63C4F80034D4F8003443F0805343F433
:1001C0002863C4F80034D4F820346FF31733C4F82C
:1001D0002034D4F8203443F4AA0343F4A043C4F8F1
:1001E0002034D4F80C3443F08053C4F80C34D5F8E0
:1001F0000C3843F48043C5F80C38D5F8003823F4A4
:10020000404343F48043C5F800384FF48043C4F8BA
:1002100018348023C5F818386E4B40F24F321A60FC
:10022000D6F8303843F02003C6F83038D5F800341B
:10023000694E23F4402343F48023C5F800344FF47F
:100240000073C5F81834FFF73DFF1C2127FA01F3AE
:10025000DCB2C3F3031304F00F04F05CFFF729FFD3
:100260000439305DFFF725FF0B1DEFD15B48FFF729
:1002700029FF4FF03033019343F23053ADF808308B
:10028000062101AC0139605CFFF713FF0029F9D1A9
:100290005348544C494EFFF715FF5348FFF712FFE0
:1002A0004FF00073C5F818344FF080484FF4804782
:1002B000C6F818840620FFF70EFFC6F81874202031
:1002C000C6F81884FFF707FFC4F30740FFF703FFE2
:1002D000C4F30720FFF7FFFE0020FFF7FCFEC6F87F
:1002E0001874FFF705FF414B04F580549C42DDD1A3
:1002F0004FF40073C5F818343D48DFF804913D4CC5
:10030000DFF8C4802D4FFFF7DDFE4FF00073C5F816
:1003100018344FF0804B5FFA88FACAF58076A6420F
:10032000C7F818B44FF0060028BF2646FFF7D3FEE3
:100330004FF48043C7F818340220C7F818B4FFF709
:10034000CAFEC8F30740FFF7C6FEC8F30720FFF751
:10035000C2FE5046FFF7BFFECA46B144CA4522D18D
:100360004FF48043C7F81834FFF7C2FEA41BB04413
:10037000D1D14FF400762048C5F81864FFF7A2FEEB
:100380001E4A4FF00071C5F818140094009B934268
:100390000EDDC5F818640194019B9342F3DC019BC8
:1003A00001330193F8E71AF8010BFFF794FED5E744
:1003B000009B01330093E9E7003002400000024057
:1003C000040400080010024020AA4400001001406C
:1003D0001D040008003001405F0400082F040008DD
:1003E0004204000800A044003604000800504C00FD
:1003F0004504000820A10700540400081FA10700BD
:10040000700400080D0A3E3E3E20424154434820FD
:10041000464C41534845522076320D0A0020204276
:1004200061746368206F66667365743D3078002080
:1004300073697A653D00202045726173696E672E8D
:100440002E2E0D0A00202057726974696E672E2EB9
:100450002E0D0A003E3E3E20444F4E450D0A003010
:10046000313233343536373839414243444546001A
:100470000C3A0C422C426E4AAE526D4A2C420C3A57
:100480000C3A0C3A0C3A0C3A0C3A0C3A0C3A0C3A3C
:100490000C3A0C3A0C3A0C3A0C3A2C424D4A8E4A21
:1004A0008E4A4D420C420C3A0C3A0C3A0C3A2C4211
:1004B0006D4A8E4A8E4A6D4A2C420C420C3A0C3AD6
:1004C0000C3A0C3A0C3A0C3A0C3A0C3A0C3A0C3AFC
:1004D0000C3A0C3A0C3A0C3A0C3A0C3A0C3A0C3AEC
:1004E0000C3A0C3A0C3A2C422C420C3A0C3A0C3A8C
:1004F0000C3A0C3A0C3A0C3A2C426D4AAE528E4AE7
:100500002C420C3A0C3A0C3A0C3A0C3A0C3A0C3A93
:10051000EB39CB39EB392D42CF52105B305B105B9E
:10052000EF5A8E4A0C3ACB31EB390C3A0C3A0C3A72
:100530000C3A0C3A0C3A0C3A0C3A0C3A0C3A0C3A8B
:100540000C3A0C3A0C3A0C3A0C3A0C3A0C3A0C3A7B
:100550000C3A0C3A0C3A0C3A0C3A0C3A0C3A0C3A6B
:100560000C424D426E4A8E4A6D4A4D420C420C3A44
:100570000C3A0C3A0C3A0C3A0C3A0C3A0C3A0C3A4B
:100580000C3A0C3A0C3A0C3A0C3A0C3A0C3A0C3A3B
:100590000C3A0C3A0C3A0C3A0C3A0C3A0C3A0C3A2B
:1005A0000C3A0C3A0C3A0C3A0C3A0C3A0C3A0C3A1B
:1005B0000C3A0C424D4AAE528E4A4D420C42104209
:1005C000000000000000000000000000000000002B
:1005D000000000000000000000000000000000001B
:1005E000000000000000000000000000000000000B
:1005F00000000000000000000000000000000000FB
:1006000000000000000000000000000000000000EA
:1006100000000000000000000000000000000000DA
:1006200000000000000000000000000000000000CA
:1006300000000000000000000000000000000000BA
:1006400000000000000000000000000000000000AA
:10065000000000000000000000000000000000009A
:10066000000000000000000000000000000000008A
:10067000000000000000000000000000000000007A
:10068000000000000000000000000000000000006A
:100690000000000000000000000000006D522D3A34
:1006A000EB31CB310C3A8E4AF05A105B305B305B49
:1006B000305B305B305B305B305B305B105BCF526C
:1006C0004D42EB39AB31CB31EB390C3A4D428E52C6
:1006D0006D4A0C420C3A0C3A0C3A0C3A0C3A0C3A71
:1006E0000C3A0C3A0C3A0C3A0C3A4D428E4A8E4A6D
:1006F0006D4A2C420C3A0C3A0C3A0C3A0C3A0C3A31
:100700000C3A0C422C426D4A8E526E4A4D422C429B
:100710000C3A0C3A0C3A0C3A0C3A0C3A0C3A0C3AA9
:100720000C3A0C3A0C3A0C3A0C3A0C3A0C3A2C4271
:100730006E4A8E4A6E4A2C420C3A0C3A0C3A0C3AEB
:100740000C3A0C3A0C3A0C3A0C3A0C3A0C3A0C3A79
:100750000C3A0C3A2C424D4A8E4A8E4A4D420C427B
:100760000C3A0C3A0C3A0C3AEB390C3A2C424D420A
:100770006D4A8E4A6D4A2D420C420C3A0C3A0C3AA4
:100780000C3A0C3A0C3A0C3A0C3A0C3A0C3A0C3A39
:100790000C3A0C3A0C3A0C3A0C3A0C3A0C3A0C3A29
:1007A0000C424D424D422C420C420C420C3A0C3A47
:1007B0000C3A0C3A4D42AF528E4A4D420C3A0C3A2A
:1007C0000C3A0C3A0C3A0C3A0C3A0C3ACB39CB3185
:1007D0002C42AE4A105B305B305BF05AAE520C3AA2
:1007E000EB31EB39EB390C3A0C3A0C3A0C3A0C3A47
:1007F0000C3A0C3A0C3A0C3A0C3A0C3A0C3A0C3AC9
:100800000C3A0C3A0C3A0C3A0C3A0C3A0C3A0C3AB8
:100810000C3A0C3A0C3A0C3A0C3A0C3A0C3A0C3AA8
:100820002C424D426D4A8E4A6D4A4C420C420C3A63
:100830000C3A0C3A0C3A0C3A0C3A0C3A0C3A0C3A88
:100840000C3A0C3A0C3A0C3A0C3A0C3A0C3A0C3A78
:100850000C3A0C3A0C3A0C3A0C3A0C3A0C3A0C3A68
:100860000C3A0C3A0C3A0C3A0C3A0C3A0C3A4D420F
:100870008E4AAE526D4A2C42AB5A00000000000076
:100880000000000000000000000000000000000068
:100890000000000000000000000000000000000058
:1008A0000000000000000000000000000000000048
:1008B0000000000000000000000000000000000038
:1008C0000000000000000000000000000000000028
:1008D0000000000000000000000000000000000018
:1008E0000000000000000000000000000000000008
:1008F00000000000000000000000000000000000F8
:1009000000000000000000000000000000000000E7
:1009100000000000000000000000000000000000D7
:1009200000000000000000000000000000000000C7
:1009300000000000000000000000000000000000B7
:1009400000000000000000000000000000000000A7
:1009500000000000000000000000EC320D3AEB3116
:10096000EB312C428E4AF05A305B305B305B305BAF
:10097000305B305B305B305B305B105BCF524D42A5
:10098000CB31CB31CB310C3A2C42AF528E4A2C4278
:100990000C3A0C3A0C3A0C3A0C3A0C3A0C3A0C3A27
:1009A0000C3A0C424D428E4A8E526D4A2C420C3A01
:1009B0000C3A0C3A0C3A0C3A0C3A0C3A0C3A0C3A07
:1009C0000C3A2C426D4AAE52AE524D4A0C3A0C3A99
:1009D0000C3A0C3A0C3A0C3A0C3A0C3A0C3A0C3AE7
:1009E0000C3A0C3A0C3A0C424C428E4AAE526D4ACA
:1009F0002C420C3A0C3A0C3A0C3A0C3A0C3A0C3A9F
:100A00000C3A0C3A0C3A0C3A0C3A0C3A0C3A0C42AE
:100A10004D428E526E4A4D420C3A0C3A0C3A0C3A08
:100A20000C3A0C3A0C3A0C3A0C3A0C3A2C426E4AFC
:100A3000AE528E4A4D420C420C3A0C3A0C3A0C3AE9
:100A40000C3A0C3A0C3A0C3A0C3A0C3A0C3A0C3A76
:100A50000C3A0C3A0C3A0C3A0C3A0C3A0C424D4215
:100A60008E4A8E4A6D4A4D420C420C3A0C3A2C4248
:100A70006D4AAE524D420C420C3A0C3A0C3A0C3ACA
:100A80000C3A0C3A0C3AEB39CB31EB398E4AF05A2E
:100A9000105B305B305BAF522D42CB31CB39EB3941
:100AA0000C3A0C3A0C3A0C3A0C3A0C3A0C3A0C3A16
:100AB0000C3A0C3A0C3A0C3A0C3A0C3A0C3A0C3A06
:100AC0000C3A0C3A0C3A0C3A0C3A0C3A0C3A0C3AF6
:100AD0000C3A0C3A0C3A0C3A0C3A0C3A0C3A0C42DE
:100AE0004D428E4AAE528E4A4D420C420C3A0C3A5E
:100AF0000C3A0C3A0C3A0C3A0C3A0C3A0C3A0C3AC6
:100B00000C3A0C3A0C3A0C3A0C3A0C3A0C3A0C3AB5
:100B10000C3A0C3A0C3A0C3A0C3A0C3A0C3A0C3AA5
:100B20000C3A0C3A0C3A0C3A2C426D4A8E4A6D4AF9
:100B30004D42A6310000000000000000000000004F
:100B400000000000000000000000000000000000A5
:100B50000000000000000000000000000000000095
:100B60000000000000000000000000000000000085
:100B70000000000000000000000000000000000075
:100B80000000000000000000000000000000000065
:100B90000000000000000000000000000000000055
:100BA0000000000000000000000000000000000045
:100BB0000000000000000000000000000000000035
:100BC0000000000000000000000000000000000025
:100BD0000000000000000000000000000000000015
:100BE0000000000000000000000000000000000005
:100BF00000000000000000000000000000000000F5
:100C000000000000000000000000000000000000E4
:100C10000000000000000000CB39EB39CB31CB31B4
:100C20002C42AE52105B105B305B305B305B305B54
:100C3000305B305B305B105B105BCF522D42EB3191
:100C4000CB31CB390C426E4A8E4A6D4A2C420C3A5B
:100C50000C3A0C3A0C3A0C3A0C3A0C3A0C424D4213
:100C60008E4A8E526D4A2C420C3A0C3A0C3A0C3A8F
:100C70000C3A0C3A0C3A0C3A0C3A0C3AEB390C425E
:100C80006D4ACF52CF528E4A2C420C3A0C3A0C3A53
:100C90000C3A0C3A0C3A0C3A0C3A0C3A0C3A0C3A24
:100CA0000C424C428D4A8E526D4A2C420C3A0C3A00
:100CB0000C3A0C3A0C3A0C3A0C3A0C3A0C3A0C3A04
:100CC0000C3A0C3A0C3A0C3A2C426E4AAE528E4A0E
:100CD0002D420C3A0C3A0C3A0C3A0C3A0C3A0C3ABB
:100CE0000C3A0C3A0C3A0C3A0C3A2C426D4AAE5281
:100CF0008E4A4D422C420C420C3A0C3A0C3A0C3AB9
:100D00000C3A0C3A0C3A0C3A0C3A0C3A0C3A0C3AB3
:100D10000C3A0C3A0C3A0C3A0C3A2C424D426E4AC0
:100D20008E4A6E4A4D422C422C426D4A8E4A6D4A82
:100D30000C3A0C3A0C3A0C3A0C3A0C3A0C3A0C3A83
:100D4000EC39CB31EB394D42CF52105B305B105B4D
:100D5000F05A4D42CB31CB31EB39EB390C3A0C3AEE
:100D60000C3A0C3A0C3A0C3A0C3A0C3A0C3A0C3A53
:100D70000C3A0C3A0C3A0C3A0C3A0C3A0C3A0C3A43
:100D80000C3A0C3A0C3A0C3A0C3A0C3A0C3A0C3A33
:100D90000C3A0C3A0C3A0C3A0C3A0C3A0C3A2C42FB
:100DA0006D4AAE528E4A4D422C420C3A0C3A0C3AE5
:100DB0000C3A0C3A0C3A0C3A0C3A0C3A0C3A0C3A03
:100DC0000C3A0C3A0C3A0C3A0C3A0C3A0C3A0C3AF3
:100DD0000C3A0C3A0C3A0C3A0C3A0C3A0C3A0C3AE3
:100DE0000C3A0C424D42AE526E4A4D4A4D6B0000D9
:100DF00000000000000000000000000000000000F3
:100E000000000000000000000000000000000000E2
:100E100000000000000000000000000000000000D2
:100E200000000000000000000000000000000000C2
:100E300000000000000000000000000000000000B2
:100E400000000000000000000000000000000000A2
:100E50000000000000000000000000000000000092
:100E60000000000000000000000000000000000082
:100E70000000000000000000000000000000000072
:100E80000000000000000000000000000000000062
:100E90000000000000000000000000000000000052
:100EA0000000000000000000000000000000000042
:100EB0000000000000000000000000000000000032
:100EC0000000000000000000000000000000000022
:100ED000000000000000AB5AEC39CB31CB314D4261
:100EE000AE52F05A105B305B305B305B305B305B96
:100EF000305B305B305B105BAE522D42CB31CB317F
:100F0000EB392C428E4AAE526D4A2C420C420C3ABE
:100F10000C3A0C3A0C3A0C424D426E4A8E4A6D4ADB
:100F20000C420C3A0C3A0C3A0C3A0C3A0C3A0C3A89
:100F30000C3A0C3A0C3A0C3A0C3A4D428E4AAE52EC
:100F40008E4A8E4A8E4A4D422C420C420C3A0C3A42
:100F50000C3A0C3A0C3A0C3A0C3A0C424D426E4A9E
:100F60008E4A6D4A2C420C3A0C3A0C3A0C3A0C3A26
:100F70000C3A0C3A0C3A0C3A0C3A0C3A0C3A0C3A41
:100F80000C422C428E4AAF52AE524D420C420C3AA9
:100F90000C3A0C3A0C3A0C3A0C3A0C3A0C3A0C3A21
:100FA0000C3A0C3A0C3A0C3A0C426D4A8E4A8E526C
:100FB0006D4A2D420C420C3A0C3A0C3A0C3A0C3A5F
:100FC0000C3A0C3A0C3A0C3A0C3A0C3A0C3A0C3AF1
:100FD0000C3A0C3A0C3AEB390C3A2C424D4A8E4AF8
:100FE000AE528E4A8E4A8E4A6D4A2C420C3A0C3AC8
:100FF0000C3A0C3A0C3A0C3A0C3AEC39EB39EB312E
:101000002C42AE52F05A105B105BF05A8E4A0C3AEA
:10101000CB31EB390C3A0C3A0C3A0C3A0C3A0C3A0C
:101020000C3A0C3A0C3A0C3A0C3A0C3A0C3A0C3A90
:101030000C3A0C3A0C3A0C3A0C3A0C3A0C3A0C3A80
:101040000C3A0C3A0C3A0C3A0C3A0C3A0C3A0C3A70
:101050000C3A0C3A0C3A0C3A0C3A0C3A2C426D4AC7
:101060008E4A6E4A4D422C420C3A0C3A0C3A0C3ADB
:101070000C3A0C3A0C3A0C3A0C3A0C3A0C3A0C3A40
:101080000C3A0C3A0C3A0C3A0C3A0C3A0C3A0C3A30
:101090000C3A0C3A0C3A0C3A0C3A0C3A0C3A4D42D7
:1010A0006E4AAF526E5210000000000000000000B7
:1010B0000000000000000000000000000000000030
:1010C0000000000000000000000000000000000020
:1010D0000000000000000000000000000000000010
:1010E0000000000000000000000000000000000000
:1010F00000000000000000000000000000000000F0
:1011000000000000000000000000000000000000DF
:1011100000000000000000000000000000000000CF
:1011200000000000000000000000000000000000BF
:1011300000000000000000000000000000000000AF
:10114000000000000000000000000000000000009F
:10115000000000000000000000000000000000008F
:10116000000000000000000000000000000000007F
:10117000000000000000000000000000000000006F
:10118000000000000000000000000000000000005F
:1011900000000000AD31EB31CB31CB312C428E4A17
:1011A000F05A105B305B305B305B305B305B305B48
:1011B000305B105BF05AAE522D42EB31CB31EB3944
:1011C0002C426D4A8E4A6D4A4D422C420C3A0C3AE2
:1011D0000C424D426E4A8E4A4D420C420C3A0C3A39
:1011E0000C3A0C3A0C3A0C3A0C3A0C3A0C3A0C3ACF
:1011F0000C3A0C422C428E4A8E526D4A2D424D4280
:101200008E4A8E4A6D4A2C420C420C3A0C3A0C3AE9
:101210000C3A0C3A0C3A4D428E4A8E4A4D4A2C42B8
:101220000C3A0C3A0C3A0C3A0C3A0C3A0C3A0C3A8E
:101230000C3A0C3A0C3A0C3A0C3A0C3A2D426D4AE4
:10124000AF52CF52AE524D422C420C3A0C3A0C3AAD
:101250000C3A0C3A0C3A0C3A0C3A0C3A0C3A0C3A5E
:101260000C3A0C3A0C3A2C422D426D4A6E4A6E4AA8
:101270004D422C420C3A0C3A0C3A0C3A0C3A0C3ACD
:101280000C3A0C3A0C3A0C3A0C3A0C3A0C3A0C3A2E
:101290000C3A0C3AEB390C3A2C426D4AAE52CF5212
:1012A000CF52AF526D4A0C420C3A0C3A0C3A0C3AFF
:1012B0000C3A0C3AEB39EB39CB310C3A8E4AEF5AF7
:1012C000105B105B105BAF522D42EB39CB39EC3920
:1012D0000C3A0C3A0C3A0C3A0C3A0C3A0C3A0C3ADE
:1012E0000C3A0C3A0C3A0C3A0C3A0C3A0C3A0C3ACE
:1012F0000C3A0C3A0C3A0C3A0C3A0C3A0C3A0C3ABE
:101300000C3A0C3A0C3A0C3A0C3A0C3A0C3A0C3AAD
:101310000C3A0C3A0C3A0C3A0C3A0C424D426D4ADB
:101320008E4A6D4A4D422C420C420C3A0C3A0C3A11
:101330000C3A0C3A0C3A0C3A0C3A0C3A0C3A0C3A7D
:101340000C3A0C3A0C3A0C3A0C3A0C3A0C3A0C3A6D
:101350000C3A0C3A0C3A0C3A2C426E4A8E4A8D42A8
:10136000000000000000000000000000000000007D
:10137000000000000000000000000000000000006D
:10138000000000000000000000000000000000005D
:10139000000000000000000000000000000000004D
:1013A000000000000000000000000000000000003D
:1013B000000000000000000000000000000000002D
:1013C000000000000000000000000000000000001D
:1013D000000000000000000000000000000000000D
:1013E00000000000000000000000000000000000FD
:1013F00000000000000000000000000000000000ED
:1014000000000000000000000000000000000000DC
:1014100000000000000000000000000000000000CC
:1014200000000000000000000000000000000000BC
:1014300000000000000000000000000000000000AC
:10144000000000000000000000000000000000009C
:101450000000CB39CB31AA29CB312C42AE52105BE4
:10146000105B305B305B305B305B305B305B305B44
:10147000105B105BAE522D42CB31CB31CB310C3AED
:101480004D426E4A8E4A4D4A2C422C424D428E4A63
:101490008E4A4D4A2C420C3A0C3A0C3A0C3A0C3A11
:1014A0000C3A0C3A0C3A0C3A0C3A0C3A0C3A2C42E4
:1014B0006D4A8E4A6D4A0C420C3A0C422D426E4ADD
:1014C0008E4A6E4A2D420C420C3A0C3A0C3A0C42AF
:1014D0004D428E4A8E4A6D4A2C420C3A0C3A0C3AD6
:1014E0000C3A0C3A0C3A0C3A0C3A0C3A0C3A0C3ACC
:1014F0000C3A0C3A0C424D426E4A8E4A8E4A8E4A43
:10150000AE528E4A4D422C420C3A0C3A0C3A0C3AEE
:101510000C3A0C3A0C3A0C3A0C3A0C3A0C3A0C3A9B
:101520000C3A0C3A0C3A2C424D4A8E4A8E4A4D42A5
:101530000C3A0C3A0C3A0C3A0C3A0C3A0C3A0C3A7B
:101540000C3A0C3A0C3A0C3A0C3A0C3A0C3A0C3A6B
:101550000C3A0C3A0C3A0C424D4ACF52CF52AE5292
:101560006D4A2C420C3A0C3A0C3A0C3A0C3A0C3AB2
:10157000EB39CB31EB394D42CF52105B305B105B16
:10158000EF524D42EB39EB39EB390C3A0C3A0C3A4D
:101590000C3A0C3A0C3A0C3A0C3A0C3A0C3A0C3A1B
:1015A0000C3A0C3A0C3A0C3A0C3A0C3A0C3A0C3A0B
:1015B0000C3A0C3A0C3A0C3A0C3A0C3A0C3A0C3AFB
:1015C0000C3A0C3A0C3A0C3A0C3A0C3A0C3A0C3AEB
:1015D0000C3A0C3A0C3A0C3A0C422C426D4A8E4AA8
:1015E0008E4A6D4A2C420C3A0C3A0C3A0C3A0C3AA0
:1015F0000C3A0C3A0C3A0C3A0C3A0C3A0C3A0C3ABB
:101600000C3A0C3A0C3A0C3A0C3A0C3A0C3A0C3AAA
:101610000C3A2C424D42AE4A8E52000000000000AF
:1016200000000000000000000000000000000000BA
:1016300000000000000000000000000000000000AA
:10164000000000000000000000000000000000009A
:10165000000000000000000000000000000000008A
:10166000000000000000000000000000000000007A
:10167000000000000000000000000000000000006A
:10168000000000000000000000000000000000005A
:10169000000000000000000000000000000000004A
:1016A000000000000000000000000000000000003A
:1016B000000000000000000000000000000000002A
:1016C000000000000000000000000000000000001A
:1016D000000000000000000000000000000000000A
:1016E00000000000000000000000000000000000FA
:1016F00000000000000000000000000000000000EA
:1017000000000000000000000000000000000000D9
:101710000842AA31AA31CB312D42AE52F05A105BA9
:10172000305B305B305B305B305B305B305B105B81
:10173000105BAF524D42EC39CB31CB31EC392C42FE
:101740006D4A8E526E4A6E4A8E4A8E4A4D422C42E5
:101750000C420C3A0C3A0C3A0C3A0C3A0C3A0C3A51
:101760000C3A0C3A0C3A0C3A0C3A4D4A6E4A6D4A15
:101770002C420C3A0C3A0C3A0C3A2C426D4A8E4AE6
:101780006E4A2D420C420C3A0C424D428E4A8E4A11
:101790006D4A2C420C3A0C3A0C3A0C3A0C3A0C3A80
:1017A0000C3A0C3A0C3A0C3A0C3A0C3A0C3A0C4201
:1017B0004D428E4A8E4A6D4A2C422C426D4A6E4AE8
:1017C0006E4A4D422C420C420C3A0C3A0C3A0C3AFE
:1017D0000C3A0C3A0C3A0C3A0C3A0C3A0C3A0C3AD9
:1017E0000C3A0C3A0C424D426D4A4D420C3A0C3ABE
:1017F0000C3A0C3A0C3A0C3A0C3A0C3A0C3A0C3AB9
:101800000C3A0C3A0C3A0C3A0C3A0C3A0C3A0C3AA8
:101810000C3A2C426D4AAE528E4A6E4A8E4A6D4A3E
:101820002C420C3A0C3A0C3A0C3AEB39CB39CB310E
:101830004D42CF52105B305B305BEF5A8E4AEC3931
:10184000CB31EB39EB390C3A0C3A0C3A0C3A0C3AF6
:101850000C3A0C3A0C3A0C3A0C3A0C3A0C3A0C3A58
:101860000C3A0C3A0C3A0C3A0C3A0C3A0C3A0C3A48
:101870000C3A0C3A0C3A0C3A0C3A0C3A0C3A0C3A38
:101880000C3A0C3A0C3A0C3A0C3A0C3A0C3A0C3A28
:101890000C3A0C3A0C3A0C3A2C424D428E4A8E4A83
:1018A0006D4A2C420C3A0C3A0C3A0C3A0C3A0C3A6F
:1018B0000C3A0C3A0C3A0C3A0C3A0C3A0C3A0C3AF8
:1018C0000C3A0C3A0C3A0C3A0C3A0C3A0C424D4297
:1018D0004D4A8E52108400000000000000000000FD
:1018E00000000000000000000000000000000000F8
:1018F00000000000000000000000000000000000E8
:1019000000000000000000000000000000000000D7
:1019100000000000000000000000000000000000C7
:1019200000000000000000000000000000000000B7
:1019300000000000000000000000000000000000A7
:101940000000000000000000000000000000000097
:101950000000000000000000000000000000000087
:101960000000000000000000000000000000000077
:101970000000000000000000000000000000000067
:101980000000000000000000000000000000000057
:101990000000000000000000000000000000000047
:1019A0000000000000000000000000000000000037
:1019B0000000000000000000000000000000000027
:1019C0000000000000000000000000000000100007
:1019D0008A31AB31EB392D42AE52105B305B305B5C
:1019E000305B305B305B305B305B305B305B105BBF
:1019F000CF526E4A0C3ACB31CB31EB392C428E4A66
:101A0000AE52CF52AE522D420C3AEB39EB39EB3994
:101A10000C3A0C3A0C3A0C3A0C3A0C3A0C3A0C3A96
:101A20000C3A0C3A0C426D4A6D4A2C420C420C3A6C
:101A30000C3A0C3A0C3A0C3A2C426D4A8E4A6D4ADA
:101A40004D422C424D428E4A8E4A4D4A2C420C3A0F
:101A50000C3A0C3A0C3A0C3A0C3A0C3A0C3A0C3A56
:101A60000C3A0C3A0C3A0C3A0C424D428E4A8E4AD1
:101A70004D4A2C420C3A0B3A2C424D426E4A8E4A49
:101A80006E4A4D422C420C3A0C3A0C3A0C3A0C3A43
:101A90000C3A0C3A0C3A0C3A0C3A0C3A0C3A0C3A16
:101AA0000C3A0C422C420C420C3A0C3A0C3A0C3ACE
:101AB0000C3A0C3A0C3A0C3A0C3A0C3A0C3A0C3AF6
:101AC0000C3A0C3A0C3A0C3A0C3A0C3A0C424D4295
:101AD0006E4A6E4A4D424D428E4AAF528E4A2C4259
:101AE0000C420C3A0C3AEB39EB310C3AAE52105B2B
:101AF000105B105B105BAE4A0C3ACB31EB390C3A01
:101B00000C3A0C3A0C3A0C3A0C3A0C3A0C3A0C3AA5
:101B10000C3A0C3A0C3A0C3A0C3A0C3A0C3A0C3A95
:101B20000C3A0C3A0C3A0C3A0C3A0C3A0C3A0C3A85
:101B30000C3A0C3A0C3A0C3A0C3A0C3A0C3A0C3A75
:101B40000C3A0C3A0C3A0C3A0C3A0C3A0C3A0C3A65
:101B50000C3A0C3A0C3A0C424D426E4A8E4A6D4A8F
:101B60002D422C420C420C3A0C3A0C3A0C3A0C3AEC
:101B70000C3A0C3A0C3A0C3A0C3A0C3A0C3A0C3A35
:101B80000C3A0C3A0C3A0C3A0C426D426D4A100079
:101B90000000000000000000000000000000000045
:101BA0000000000000000000000000000000000035
:101BB0000000000000000000000000000000000025
:101BC0000000000000000000000000000000000015
:101BD0000000000000000000000000000000000005
:101BE00000000000000000000000000000000000F5
:101BF00000000000000000000000000000000000E5
:101C000000000000000000000000000000000000D4
:101C100000000000000000000000000000000000C4
:101C200000000000000000000000000000000000B4
:101C300000000000000000000000000000000000A4
:101C40000000000000000000000000000000000094
:101C50000000000000000000000000000000000084
:101C60000000000000000000000000000000000074
:101C70000000000000000000000000000000000064
:101C800000000000000000000000000000008B3198
:101C9000CB31EB392D428E4AF05A105B305B305B12
:101CA000305B305B305B305B305B305B105BEF5A3E
:101CB000AE4A4D42EB39CB31CB392C426D4A8E4A7C
:101CC0008E4A2C42EB39CB31EB39EB39EB390C3AFC
:101CD0000C3A0C3A0C3A0C3A0C3A0C3A0C3A0C3AD4
:101CE0000C3A2D422C420C420C3A0C3A0C3A0C3A6B
:101CF0000C3A0C3A0C3A2C424D4A8E4AAE52AE5235
:101D0000AE528E4A4D420C420C3A0C3A0C3A0C3A06
:101D10000C3A0C3A0C3A0C3A0C3A0C3A0C3A0C3A93
:101D20000C3A0C424D428E4A8E4A4D422C420C3A9D
:101D30000B3A0B3A0C3A0C422C424D428E4A8E4AD8
:101D40006D4A2C420C3A0C3A0C3A0C3A0C3A0C3ACA
:101D50000C3A0C3A0C3A0C3A0C3A0C3A0C3A0C3A53
:101D60000C3AEB390C3A0C3A0C3A0C3A0C3A0C3A65
:101D70000C3A0C3A0C3A0C3A0C3A0C3A0C3A0C3A33
:101D80000C3A0C3A0C3A0C3A2C426E4A6E4A4D42CE
:101D90000C420C3A2C426D4AAE528E4A4D422C42B5
:101DA000EC39CB390C3A8E4AEF5A305B105B105B42
:101DB000CF524D42CB31CB31EB390C3A0C3A0C3A85
:101DC0000C3A0C3A0C3A0C3A0C3A0C3A0C3A0C3AE3
:101DD0000C3A0C3A0C3A0C3A0C3A0C3A0C3A0C3AD3
:101DE0000C3A0C3A0C3A0C3A0C3A0C3A0C3A0C3AC3
:101DF0000C3A0C3A0C3A0C3A0C3A0C3A0C3A0C3AB3
:101E00000C3A0C3A0C3A0C3A0C3A0C3A0C3A0C3AA2
:101E10000C3A0C3A0C3A2C426D4A8E526E4A4D42A4
:101E20002C420C420C3A0C3A0C3A0C3A0C3A0C3A52
:101E30000C3A0C3A0C3A0C3A0C3A0C3A0C3A0C3A72
:101E40000B3A0C422D42AD310000000000000000B2
:101E50000000000000000000000000000000000082
:101E60000000000000000000000000000000000072
:101E70000000000000000000000000000000000062
:101E80000000000000000000000000000000000052
:101E90000000000000000000000000000000000042
:101EA0000000000000000000000000000000000032
:101EB0000000000000000000000000000000000022
:101EC0000000000000000000000000000000000012
:101ED0000000000000000000000000000000000002
:101EE00000000000000000000000000000000000F2
:101EF00000000000000000000000000000000000E2
:101F000000000000000000000000000000000000D1
:101F100000000000000000000000000000000000C1
:101F200000000000000000000000000000000000B1
:101F300000000000000000000000000000000000A1
:101F40000000000000000000000000006B29AA3122
:101F5000CB312D42AE52105B305B305B305B305B7F
:101F6000305B305B305B305B305B305B105BAF52C3
:101F70004D42CB31AB31CB31EC390C420C42EC3918
:101F8000CB31CB31AA31CB31CB39EB390C3A0C3ACE
:101F90000C3A0C3A0C3A0C3A0C3A0C3A0C3A0C3A11
:101FA0000C3A0C3A0C3A0C3A0C3A0C3A0C3A0C3A01
:101FB0000C3A0C3A2C426D4AAE52CF52CF526D4A77
:101FC0000C420C3A0C3A0C3A0C3A0C3A0C3A0C3AD9
:101FD0000C3A0C3A0C3A0C3A0C3A0C3A2C424D4A58
:101FE0008E4A8E4A4D422C420C3A0C3A0C3A0C3A2C
:101FF0000C3A0C3A0C3A2C424D428E4AAE526D4A83
:102000000C420C3A0C3A0C3A0C3A0C3A0C3A0C3A98
:102010000C3A0C3A0C3A0C3A0C3A0C3A0C3A0C3A90
:102020000C3A0C3A0C3A0C3A0C3A0C3A0C3A0C3A80
:102030000C3A0C3A0C3A0C3A0C3A0C3A0C3A0C3A70
:10204000EB392C426D4A8E526D4A2C420C3A0C3AB6
:102050000C3A2C426D4A8E4A6D4A2C42EB39EB39D0
:102060004D42CF52105B305B105BEF526D4A0C3A21
:10207000CB31EB390C3A0C3A0C3A0C3A0C3A0C3A9C
:102080000C3A0C3A0C3A0C3A0C3A0C3A0C3A0C3A20
:102090000C3A0C3A0C3A0C3A0C3A0C3A0C3A0C3A10
:1020A0000C3A0C3A0C3A0C3A0C3A0C3A0C3A0C3A00
:1020B0000C3A0C3A0C3A0C3A0C3A0C3A0C3A0C3AF0
:1020C0000C3A0C3A0C3A0C3A0C3A0C3A0C3A0C3AE0
:1020D0000C3A0C3A2C424D428E4AAE526E4A2C4279
:1020E0000C420C3A0C3A0C3A0C3A0C3A0C3A0C3AB8
:1020F0000C3A0C3A0C3A0C3A0C3A0B3AEB390C3AD3
:1021000000000000000000000000000000000000CF
:1021100000000000000000000000000000000000BF
:1021200000000000000000000000000000000000AF
:10213000000000000000000000000000000000009F
:10214000000000000000000000000000000000008F
:10215000000000000000000000000000000000007F
:10216000000000000000000000000000000000006F
:10217000000000000000000000000000000000005F
:10218000000000000000000000000000000000004F
:10219000000000000000000000000000000000003F
:1021A000000000000000000000000000000000002F
:1021B000000000000000000000000000000000001F
:1021C000000000000000000000000000000000000F
:1021D00000000000000000000000000000000000FF
:1021E00000000000000000000000000000000000EF
:1021F00000000000000000000000000000000000DF
:1022000000000000000000000000AB5A8B31CB3111
:102210002D42AF52105B105B305B305B305B305B4C
:10222000305B305B305B305B105B105BCF526D4AD4
:10223000EC39AB31AA31AA310C3A6E4AAE4A4D4262
:10224000EB39AB31CB31CB31EB390C3A0C3A0C3AA0
:102250000C3A0C3A0C3A0C3A0C3A0C3A0C3A0C3A4E
:102260000C3A0C3A0C3A0C3A0C3A0C3A0C3A0C3A3E
:102270002C424D4AAE52CF52CF524D422C420C3AD4
:102280000C3A0C3A0C3A0C3A0C3A0C3A0C3A0C3A1E
:102290000C3A0C3A0C3A2C424D42AE528E4A4D4208
:1022A0000C420C3A0C3A0C3A0C3A0C3A0C3A0C3AF6
:1022B0000C3A0C3A0C3A4D426D4A8E4A6D4A4D42E8
:1022C0002C420C420C3A0C3A0C3A0C3A0C3A0C3AAE
:1022D0000C3A0C3A0C3A0C3A0C3A0C3A0C3A0C3ACE
:1022E0000C3A0C3A0C3A0C3A0C3A0C422C420C3A8E
:1022F0000C3A0C3A0C3A0C3A0C3AEB390C3A6D4A5F
:10230000AE528E4A2C420C3A0C3A0C3A0C3A0C3A29
:102310000C422C424D4A2C42EC392C42AE4AF05A27
:10232000305B305B105BAE520C3AEB39EB390C3A58
:102330000C3A0C3A0C3A0C3A0C3A0C3A0C3A0C3A6D
:102340000C3A0C3A0C3A0C3A0C3A0C3A0C3A0C3A5D
:102350000C3A0C3A0C3A0C3A0C3A0C3A0C3A0C3A4D
:102360000C3A0C3A0C3A0C3A0C3A0C3A0C3A0C3A3D
:102370000C3A0C3A0C3A0C3A0C3A0C3A0C3A0C3A2D
:102380000C3A0C3A0C3A0C3A0C3A0C3A0C3A0C3A1D
:102390000C420C422D426D4A8E526D4A2C420C3A30
:1023A0000C3A0C3A0C3A0C3A0C3A0C3A0C3A0C3AFD
:1023B0000C3A0C3A0C3AEC39CB3900000000000022
:1023C000000000000000000000000000000000000D
:1023D00000000000000000000000000000000000FD
:1023E00000000000000000000000000000000000ED
:1023F00000000000000000000000000000000000DD
:1024000000000000000000000000000000000000CC
:1024100000000000000000000000000000000000BC
:1024200000000000000000000000000000000000AC
:10243000000000000000000000000000000000009C
:10244000000000000000000000000000000000008C
:10245000000000000000000000000000000000007C
:10246000000000000000000000000000000000006C
:10247000000000000000000000000000000000005C
:10248000000000000000000000000000000000004C
:10249000000000000000000000000000000000003C
:1024A000000000000000000000000000000000002C
:1024B000000000000000000000000000000000001C
:1024C00000000000000000000000EB310C3A4D421B
:1024D000AE52EF5A105B305B305B305B305B305B91
:1024E000305B305B305B105B105BCF524D42CB31C9
:1024F000CB312C42926BD79439A5D794147C716B55
:102500008E4AEB39CB31EB390C3A0C3A0C3A0C3A97
:102510000C3A0C3A0C3A0C3A0C3A0C3A0C3A0C3A8B
:102520000C3A0C3A0C3A0C3A0C3A2C426D4A8E4A50
:102530008E4A6D4A8E4A8E4A4D420C420C3A0C3AF3
:102540000C3A0C3A0C3A0C3A0C3A0C3A0C3A0C3A5B
:102550002C426D4A8E4A8E4A4D420C3A0C3A0C3A45
:102560000C3A0C3A0C3A0C3A0C3A0C3A0C3A0C3A3B
:102570000C3A0C422C426D4A8E4A6E4A6D4A2D42EC
:102580000C420C3A0C3A0C3A0C3A0C3A0C3A0C3A13
:102590000C3A0C3A0C3A0C3A0C3A0C3A0C3A0C3A0B
:1025A0000C3A0C3A0C422C424D422D420C420C4249
:1025B0000C3A0C3A0C3A0C424D428E4AAE522D4225
:1025C0000C3A0C3A0C3A0C3A0C3A0C3A0C3A0C3ADB
:1025D0000C42EC390C3A8E4AEF5A105B305B105BC0
:1025E000AF524D42EB39EB39EB390C3A0C3A0C3A1D
:1025F0000C3A0C3A0C3A0C3A0C3A0C3A0C3A0C3AAB
:102600000C3A0C3A0C3A0C3A0C3A0C3A0C3A0C3A9A
:102610000C3A0C3A0C3A0C3A0C3A0C3A0C3A0C3A8A
:102620000C3A0C3A0C3A0C3A0C3A0C3A0C3A0C3A7A
:102630000C3A0C3A0C3A0C3A0C3A0C3A0C3A0C3A6A
:102640000C3A0C3A0C3A0C3A0C3A0C3A0C3A0C3A5A
:10265000EB392C426D4A8E4A8E4A4D4A2C420C422E
:102660000C3A0C3A0C3A0C3A0C3A0C3A0C3A0C4232
:102670000C3AAA3100000000000000000000000039
:10268000000000000000000000000000000000004A
:10269000000000000000000000000000000000003A
:1026A000000000000000000000000000000000002A
:1026B000000000000000000000000000000000001A
:1026C000000000000000000000000000000000000A
:1026D00000000000000000000000000000000000FA
:1026E00000000000000000000000000000000000EA
:1026F00000000000000000000000000000000000DA
:1027000000000000000000000000000000000000C9
:1027100000000000000000000000000000000000B9
:1027200000000000000000000000000000000000A9
:102730000000000000000000000000000000000099
:102740000000000000000000000000000000000089
:102750000000000000000000000000000000000079
:102760000000000000000000000000000000000069
:102770000000000000000000000000000000000059
:10278000000000000000AB020B3A0C3A2D428E4ACA
:10279000EF5A105B305B305B305B305B305B305B43
:1027A000305B305B105BEF5A8E4A2C42EF5A768CCE
:1027B0003DC69ECE9ECE9ECEDFD67ECED794CF5245
:1027C000CB31CB31EB390C3A0C3A0C3A0C3A0C3A8F
:1027D0000C3A0C3A0C3A0C3A0C3A0C3A0C3A0C3AC9
:1027E0000C3A0C3A2C426D4A8E4A8E4A4D422C428B
:1027F0004D428E4A8E4A4D420C420C3A0C3A0C3AEB
:102800000C3A0C3A0C3A0C3A0C3A2C426D4AAE5245
:10281000AE524D420C42EB390C3A0C3A0C3A0C3A9F
:102820000C3A0C3A0C3A0C3A0C3A0C3A0C3A0C3A78
:102830000C420C422C426D4A8E4A6E4A4D420C426A
:102840000C3A0C3A0C3A0C3A0C3A0C3A0C3A0C3A58
:102850000C3A0C3A0C3A0C3A0C3A0C3A0C3A0C3A48
:102860000C422C426D4A8E4A6D4A4D422C420C3A23
:102870000C3A2C426D4A8E4A6D4A0C3A0B3A0C3A8D
:102880000C3A0C3A0C3A0C3A0C3AEB39EB39EB397E
:102890004D42EF5A105B305B305BEF5A4D42EB39E3
:1028A000CB31EB39EB390C3A0C3A0C3A0C3A0C3A86
:1028B0000C3A0C3A0C3A0C3A0C3A0C3A0C3A0C3AE8
:1028C0000C3A0C3A0C3A0C3A0C3A0C3A0C3A0C3AD8
:1028D0000C3A0C3A0C3A0C3A0C3A0C3A0C3A0C3AC8
:1028E0000C3A0C3A0C3A0C3A0C3A0C3A0C3A0C3AB8
:1028F0000C3A0C3A0C3A0C3A0C3A0C3A0C3A0C3AA8
:102900000C3A0C3A0C3A0C3A0C3A0C3A0C3A0C428F
:102910002C426D4A8E4A6E4A6D4A4D420C420C3A28
:102920000C3A0C3A0C3A0C3A0C3A0C3A4C4A00006D
:102930000000000000000000000000000000000097
:102940000000000000000000000000000000000087
:102950000000000000000000000000000000000077
:102960000000000000000000000000000000000067
:102970000000000000000000000000000000000057
:102980000000000000000000000000000000000047
:102990000000000000000000000000000000000037
:1029A0000000000000000000000000000000000027
:1029B0000000000000000000000000000000000017
:1029C0000000000000000000000000000000000007
:1029D00000000000000000000000000000000000F7
:1029E00000000000000000000000000000000000E7
:1029F00000000000000000000000000000000000D7
:102A000000000000000000000000000000000000C6
:102A100000000000000000000000000000000000B6
:102A200000000000000000000000000000000000A6
:102A30000000000000000000000000000000000096
:102A4000000000001000CB29EC392C426E4ACF5216
:102A5000105B305B305B305B305B305B305B105B5E
:102A6000105BCF528E4AF05AD7949ECE9ECEBBB505
:102A7000968C5584189D5DC67DCEB7946E4ACB3139
:102A8000CB31EB39EB390C3A0C3A0C3A0C3A0C3AA4
:102A90000C3A0C3A0C3A0C3A0C3A0C3A0C3A2C42DE
:102AA0006D4A8E4A6D4A4D420C420C3A0C424D4AD8
:102AB0008E528E4A4C420C420C3A0C3A0C3A0C3A6A
:102AC0000C3A0C422C426D4AAE52AE528E4A4D42E6
:102AD0002C420C3A0C3A0C3A0C3A0C3A0C3A0C3A9E
:102AE0000C3A0C3A0C3A0C3A0C3A0C3A0C3A0C3AB6
:102AF0000C3A2C426D4A8E4A8E4A4D422C420C4270
:102B00000C3A0C3A0C3A0C3A0C3A0C3A0C3A0C3A95
:102B10000C3A0C3A0C3A0C3A0C3A0C3A0C3A0C427D
:102B20004D426D4A8E4A8E4A4D422C422C426D4A8D
:102B30008E4A6D4A2C420C3A0C3A0C3A0C3A0C3A3A
:102B40000C3A0C3A0C3AEB39EB392D42AF52105B90
:102B5000305B105BEF5A8E4A0C3ACB31EB39EB39D4
:102B60000C3A0C3A0C3A0C3A0C3A0C3A0C3A0C3A35
:102B70000C3A0C3A0C3A0C3A0C3A0C3A0C3A0C3A25
:102B80000C3A0C3A0C3A0C3A0C3A0C3A0C3A0C3A15
:102B90000C3A0C3A0C3A0C3A0C3A0C3A0C3A0C3A05
:102BA0000C3A0C3A0C3A0C3A0C3A0C3A0C3A0C3AF5
:102BB0000C3A0C3A0C3A0C3A0C3A0C3A0C3A0C3AE5
:102BC0000C3A0C3A0C3A0C3A0C3A0C3A0C3A0C42CD
:102BD0002D426D4A8E4A8E4A4D420C420C3A0C3AB6
:102BE0000C3A0C3AEC390B00000000000000000029
:102BF00000000000000000000000000000000000D5
:102C000000000000000000000000000000000000C4
:102C100000000000000000000000000000000000B4
:102C200000000000000000000000000000000000A4
:102C30000000000000000000000000000000000094
:102C40000000000000000000000000000000000084
:102C50000000000000000000000000000000000074
:102C60000000000000000000000000000000000064
:102C70000000000000000000000000000000000054
:102C80000000000000000000000000000000000044
:102C90000000000000000000000000000000000034
:102CA0000000000000000000000000000000000024
:102CB0000000000000000000000000000000000014
:102CC0000000000000000000000000000000000004
:102CD00000000000000000000000000000000000F4
:102CE00000000000000000000000000000000000E4
:102CF00000000000000000000000000000000000D4
:102D0000000000006B29CB312C426E4ACF52105B81
:102D1000105B305B305B305B305B105BCF528E4AB8
:102D2000F05A968C7DC6BFD67AAD726B4D420C3A86
:102D30008E4A55843DC63CC6D3730C3ACB31CB3951
:102D4000EB390C3A0C3A0C3A0C3A0C3A0C3A0C3A75
:102D50000C3A0C3A0C3A0C420C426D4A8E4A6D4ABF
:102D60002C420C420C3A0C3A0C3A2C426D4A8E4AD8
:102D70006D4A2C420C420C3A0C3AEB390C3A2C427C
:102D80006D4A8E4A8E4A6D4A8E4A8E4A6D4A2C4250
:102D90000C420C3A0C3A0C3A0C3A0C3A0C3A0C3AFB
:102DA0000C3A0C3A0C3A0C3A0C3A0C3A0C3A0C3AF3
:102DB0002C426D4A8E528E4A6D4A2C420C420C3A7D
:102DC0000C3A0C3A0C3A0C3A0C3A0C3A0C3A0C3AD3
:102DD0000C3A0C3A0C3A0C3A0C3A0C3A0C422C4293
:102DE0006D4A8E4A8E4A6D4A6D4A8E4A6E4A2C4210
:102DF0000C3A0C3A0C3A0C3A0C3A0C3A0C3A0C3AA3
:102E0000EB39EB390C3A8E4AF05A105B105B105BD1
:102E1000AE522D42EB39EB39EC390C3A0C3A0C3A04
:102E20000C3A0C3A0C3A0C3A0C3A0C3A0C3A0C3A72
:102E30000C3A0C3A0C3A0C3A0C3A0C3A0C3A0C3A62
:102E40000C3A0C3A0C3A0C3A0C3A0C3A0C3A0C3A52
:102E50000C3A0C3A0C3A0C3A0C3A0C3A0C3A0C3A42
:102E60000C3A0C3A0C3A0C3A0C3A0C3A0C3A0C3A32
:102E70000C3A0C3A0C3A0C3A0C3A0C3A0C3A0C3A22
:102E80000C3A0C3A0C3A0C3A0C3A0C3A0C3A2C42EA
:102E90004D4A8E4A8E4A4D422C420C420C3A0C420C
:102EA000100400000000000000000000000000000E
:102EB0000000000000000000000000000000000012
:102EC0000000000000000000000000000000000002
:102ED00000000000000000000000000000000000F2
:102EE00000000000000000000000000000000000E2
:102EF00000000000000000000000000000000000D2
:102F000000000000000000000000000000000000C1
:102F100000000000000000000000000000000000B1
:102F200000000000000000000000000000000000A1
:102F30000000000000000000000000000000000091
:102F40000000000000000000000000000000000081
:102F50000000000000000000000000000000000071
:102F60000000000000000000000000000000000061
:102F70000000000000000000000000000000000051
:102F80000000000000000000000000000000000041
:102F90000000000000000000000000000000000031
:102FA0000000000000000000000000000000000021
:102FB0000000000000000000000000000000000011
:102FC00000000000EC394D426D4AAE52EF5A105BE2
:102FD000305B305B105BEF5A8E4A8E4A147C1CBE0D
:102FE000DFD639A5716B4D42CB31AA318A29AE5259
:102FF00059ADBFD638A5AE52CB31EB39EB390C3ACF
:103000000C3A0C3A0C3A0C3A0C3A0C3A0C3A0C3A90
:103010000C422C426D4A8E4A8E4A2C420C3A0C3A93
:103020000C3A0C3A0C3A0C3A2C426D4A8E4A6D4AD4
:103030002C420C3AEB390C3A2C426D4A8E4A6D4ABE
:103040002C422C424D426D4A8E4A6E4A4D420C42F1
:103050000C3A0C3A0C3A0C3A0C3A0C3A0C3A0C3A40
:103060000C3A0C3A0C3A0C3A0C3A0C3A0C3A2C4208
:103070004D426D4A8E4A8E4A4D422C420C3A0C3AD1
:103080000C3A0C3A0C3A0C3A0C3A0C3A0C3A0C3A10
:103090000C3A0C3A0C3A0C3A0C3A0C3A0C424D4AA7
:1030A0008E4AAE52AF528E4A4D420C420C3A0C3A06
:1030B0000C3A0C3A0C3A0C3A0C3AEB39CB31EC396D
:1030C0006D4ACF52105B105B105BCF524D420C42E9
:1030D0002C422C420C420C3A0C3A0C3A0C3A0C3A68
:1030E0000C3A0C3A0C3A0C3A0C3A0C3A0C3A0C3AB0
:1030F0000C3A0C3A0C3A0C3A0C3A0C3A0C3A0C3AA0
:103100000C3A0C3A0C3A0C3A0C3A0C3A0C3A0C3A8F
:103110000C3A0C3A0C3A0C3A0C3A0C3A0C3A0C3A7F
:103120000C3A0C3A0C3A0C3A0C3A0C3A0C3A0C3A6F
:103130000C3A0C3A0C3A0C3A0C3A0C3A0C3A0C3A5F
:103140000C3A0C3A0C3A0C3A0C3A0C3A2C424D4AD6
:103150008E4A8E526D4A0C42CB391000000000009E
:10316000000000000000000000000000000000005F
:10317000000000000000000000000000000000004F
:10318000000000000000000000000000000000003F
:10319000000000000000000000000000000000002F
:1031A000000000000000000000000000000000001F
:1031B000000000000000000000000000000000000F
:1031C00000000000000000000000000000000000FF
:1031D00000000000000000000000000000000000EF
:1031E00000000000000000000000000000000000DF
:1031F00000000000000000000000000000000000CF
:1032000000000000000000000000000000000000BE
:1032100000000000000000000000000000000000AE
:10322000000000000000000000000000000000009E
:10323000000000000000000000000000000000008E
:10324000000000000000000000000000000000007E
:10325000000000000000000000000000000000006E
:10326000000000000000000000000000000000005E
:10327000000000000000000000000000000000004E
:1032800000002B320C3A4D428E4ACF52105B305B1D
:10329000F05AAE4A6E4A926B9AADDFD61CBE926B64
:1032A0006D4A4D424D420C3AAA292C42968C9ECE34
:1032B0009AADAE52EB390C3A0C420C420C3A0C3A35
:1032C0000C3A0C3A0C3A0C3A0C3A0C424D428E4AEB
:1032D000AE526D4A4D420C420C3A0C3A0C3A0C3A42
:1032E0000C3A0C3A0C3A2C426D4A8E4A6D4A0C420A
:1032F0000C424C426E4AAE526D4A2C420C3A0C3A89
:103300000C3A2C426E4AAF528E524D4A2C420C3A25
:103310000C3A0C3A0C3A0C3A0C3A0C3A0C3A0C3A7D
:103320000C3A0C3A0C3A0C3A0C3A0C3A0C422C423D
:103330006D4A8E4A8E4A6D4A2C420C3A0C3A0C3A2F
:103340000C3A0C3A0C3A0C3A0C3A0C3A0C3A0C3A4D
:103350000C3A0C3A0C3A0C3A0C3A2C426D4ACF52C9
:10336000CF526D4A2C420C3A0C3A0C3A0C3A0C3AB9
:103370000C3A0C3AEC39CB31AA312D42CF52105BCA
:10338000305B305BEF5A8E4AEB390C3A4D4A6D4A4E
:103390004D420C420C3A0C3A0C3A0C3A0C3A0C3AAC
:1033A0000C3A0C3A0C3A0C3A0C3A0C3A0C3A0C3AED
:1033B0000C3A0C3A0C3A0C3A0C3A0C3A0C3A0C3ADD
:1033C0000C3A0C3A0C3A0C3A0C3A0C3A0C3A0C3ACD
:1033D0000C3A0C3A0C3A0C3A0C3A0C3A0C3A0C3ABD
:1033E0000C3A0C3A0C3A0C3A0C3A0C3A0C3A0C3AAD
:1033F0000C3A0C3A0C3A0C3A0C3A0C3A0C3A0C3A9D
:103400000C3A0C3A0C3A0C3A0C3A0C424D426D4ACA
:103410008E4A4E4A0000000000000000000000003C
:10342000000000000000000000000000000000009C
:10343000000000000000000000000000000000008C
:10344000000000000000000000000000000000007C
:10345000000000000000000000000000000000006C
:10346000000000000000000000000000000000005C
:10347000000000000000000000000000000000004C
:10348000000000000000000000000000000000003C
:10349000000000000000000000000000000000002C
:1034A000000000000000000000000000000000001C
:1034B000000000000000000000000000000000000C
:1034C00000000000000000000000000000000000FC
:1034D00000000000000000000000000000000000EC
:1034E00000000000000000000000000000000000DC
:1034F00000000000000000000000000000000000CC
:1035000000000000000000000000000000000000BB
:1035100000000000000000000000000000000000AB
:10352000000000000000000000000000000000009B
:10353000000000000000000000000000000000008B
:10354000AB5A0B3AEC394D42CF52105BAF526D4A39
:10355000105B79A5BFD6BFD6147C6E4A4D428E4A09
:10356000AF528E4A0C3A4D4235849ECE79AD0C3A1C
:10357000EB394D426D4A4C420C420C3A0C3A0C3A33
:103580000C3A0C3A0C3A2C426E4A8E4A6D4A2C4246
:103590000C3A0C3A0C3A0C3A0C3A0C3A0C3A0C3AFB
:1035A0000C3A0C422C426E4A8E4A4D4A2D428E4AAB
:1035B0008E526D4A2C420C3AEB390C3A0C3A0C3ACA
:1035C0002C424D428E4A6E4A4D4A2C420C420C3AD5
:1035D0000C3A0C3A0C3A0C3A0C3A0C3A0C3A0C3ABB
:1035E0000C3A0C3A0C3A0C3A0C3A0C3A0C424D425A
:1035F0008E4A8E526D4A4D420C420C3A0C3A0C3AAD
:103600000C3A0C3A0C3A0C3A0C3A0C3A0C3A0C3A8A
:103610000C3A0C3A0C3A2C426D4AAE528E4A2C426D
:103620000C3A0C3A0C3A0C3A0C3A0C3A0C3A0C3A6A
:10363000EB39CB31EC398E4A105B105B305B105BA1
:10364000AE520C3ACB31EB394D428E4A8E4A6D4226
:103650002C420C3A0C3A0C3A0C3A0C3A0C3A0C3A12
:103660000C3A0C3A0C3A0C3A0C3A0C3A0C3A0C3A2A
:103670000C3A0C3A0C3A0C3A0C3A0C3A0C3A0C3A1A
:103680000C3A0C3A0C3A0C3A0C3A0C3A0C3A0C3A0A
:103690000C3A0C3A0C3A0C3A0C3A0C3A0C3A0C3AFA
:1036A0000C3A0C3A0C3A0C3A0C3A0C3A0C3A0C3AEA
:1036B0000C3A0C3A0C3A0C3A0C3A0C3A0C3A0C3ADA
:1036C0000C3A0C3A0C420C422C3A1002000000005A
:1036D00000000000000000000000000000000000EA
:1036E00000000000000000000000000000000000DA
:1036F00000000000000000000000000000000000CA
:1037000000000000000000000000000000000000B9
:1037100000000000000000000000000000000000A9
:103720000000000000000000000000000000000099
:103730000000000000000000000000000000000089
:103740000000000000000000000000000000000079
:103750000000000000000000000000000000000069
:103760000000000000000000000000000000000059
:103770000000000000000000000000000000000049
:103780000000000000000000000000000000000039
:103790000000000000000000000000000000000029
:1037A0000000000000000000000000000000000019
:1037B0000000000000000000000000000000000009
:1037C00000000000000000000000000000000000F9
:1037D00000000000000000000000000000000000E9
:1037E00000000000000000000000000000000000D9
:1037F00000000000000000000000000000000000C9
:10380000AD312D426E4A8E4A6E4A8E4A35845DC66F
:10381000BFD659A5CF524D428E4ACF52CF52AE524B
:103820004D426D4AF47B7ECE968C4921CB312C42A1
:103830008E4A8E4A2D422C420C3A0C3A0C3A0C42DB
:103840002D426D4A8E4A6D4A2C420C3A0C3A0C3A83
:103850000C3A0C3A0C3A0C3A0C3A0C3A0C3A0C3A38
:103860000C424D428E4AAE528E528E4A6D4A2C42C6
:103870000C3A0C3A0C3A0C3A0C3A0C3AEB390C4232
:103880004D426E4A8E4A8E4A4D420C420C3A0C3AD8
:103890000C3A0C3A0C3A0C3A0C3A0C3A0C3A0C3AF8
:1038A0000C3A0C3A0C3A0C3A0C3A0C424D42AE52DD
:1038B000AE526D4A2D420C420C3A0C3A0C3A0C3A7C
:1038C0000C3A0C3A0C3A0C3A0C3A0C3A0C3A0C3AC8
:1038D0000C424D428E4A8E4A2D420C3A0C3A0C3A1A
:1038E0000C3A0C3A0C3A0C3A0C3AEB39CB31EC3935
:1038F0006D4AEF52305B105B105BCF524D42CB31C3
:10390000CB39EB392C424D426E4A8E4A6D4A2C42DD
:103910000C3A0C3A0C3A0C3A0C3A0C3A0C3A0C3A77
:103920000C3A0C3A0C3A0C3A0C3A0C3A0C3A0C3A67
:103930000C3A0C3A0C3A0C3A0C3A0C3A0C3A0C3A57
:103940000C3A0C3A0C3A0C3A0C3A0C3A0C3A0C3A47
:103950000C3A0C3A0C3A0C3A0C3A0C3A0C3A0C3A37
:103960000C3A0C3A0C3A0C3A0C3A0C3A0C3A0C3A27
:103970000C3A0C3A0C3A0C3A0C3A0C3A0C3A0C3A17
:103980000C3A0C421F000000000000000000000084
:103990000000000000000000000000000000000027
:1039A0000000000000000000000000000000000017
:1039B0000000000000000000000000000000000007
:1039C00000000000000000000000000000000000F7
:1039D00000000000000000000000000000000000E7
:1039E00000000000000000000000000000000000D7
:1039F00000000000000000000000000000000000C7
:103A000000000000000000000000000000000000B6
:103A100000000000000000000000000000000000A6
:103A20000000000000000000000000000000000096
:103A30000000000000000000000000000000000086
:103A40000000000000000000000000000000000076
:103A50000000000000000000000000000000000066
:103A60000000000000000000000000000000000056
:103A70000000000000000000000000000000000046
:103A80000000000000000000000000000000000036
:103A90000000000000000000000000000000000026
:103AA0000000000000000000000000000000000016
:103AB00000000000000000000000000000004E4A6E
:103AC0002C422C422C42CF5239A5BFD61CBEF47BCF
:103AD0004D426E4AAF52EF52EF52AF526E4A6D4AAC
:103AE0001063968CCF5249218A29EB394D42AE4A58
:103AF0008E4A4D420C420C420C424D428E4A8E4A36
:103B00006D4A2C42EC390C3A0C3A0C3A0C3A0C3A0D
:103B10000C3A0C3A0C3A0C3A0C3A0C3A0C422C4245
:103B20008E4ACF52AE526D4A2C420C420C3A0C3A9D
:103B30000C3A0C3A0C3A0C3A0C3A0C3A0C422C4225
:103B40004D4A6E4A8E4A6D4A2C420C420C3A0C3A4F
:103B50000C3A0C3A0C3A0C3A0C3A0C3A0C3A0C3A35
:103B60000C3A0C3A0C3A0C3A0C422C426D4A8E4AF2
:103B70008E4A4D422C420C420C3A0C3A0C3A0C3A0A
:103B80000C3A0C3A0C3A0C3A0C3AEB392C426D4A8E
:103B90008E4A4D420C3A0C3A0C3A0C3A0C3A0C3A1A
:103BA0000C3A0C3AEB39EB39EB394D42CF52105B02
:103BB000105B105BCF526D4AEC39CB31EB390C3ACC
:103BC0000C3A0C3A2C426E4AAE528E4A4D420C428E
:103BD0000C3A0C3A0C3A0C3A0C3A0C3A0C3A0C3AB5
:103BE0000C3A0C3A0C3A0C3A0C3A0C3A0C3A0C3AA5
:103BF0000C3A0C3A0C3A0C3A0C3A0C3A0C3A0C3A95
:103C00000C3A0C3A0C3A0C3A0C3A0C3A0C3A0C3A84
:103C10000C3A0C3A0C3A0C3A0C3A0C3A0C3A0C3A74
:103C20000C3A0C3A0C3A0C3A0C3A0C3A0C3A0C3A64
:103C30000C3A0C3A0C3A0C3A0C420C3AEC41108417
:103C40000000000000000000000000000000000074
:103C50000000000000000000000000000000000064
:103C60000000000000000000000000000000000054
:103C70000000000000000000000000000000000044
:103C80000000000000000000000000000000000034
:103C90000000000000000000000000000000000024
:103CA0000000000000000000000000000000000014
:103CB0000000000000000000000000000000000004
:103CC00000000000000000000000000000000000F4
:103CD00000000000000000000000000000000000E4
:103CE00000000000000000000000000000000000D4
:103CF00000000000000000000000000000000000C4
:103D000000000000000000000000000000000000B3
:103D100000000000000000000000000000000000A3
:103D20000000000000000000000000000000000093
:103D30000000000000000000000000000000000083
:103D40000000000000000000000000000000000073
:103D50000000000000000000000000000000000063
:103D60000000000000000000000000000000000053
:103D70000000000000000000000000001F00AB3940
:103D8000EC393063DBB5BED659A530634D428E4A5F
:103D9000AF52CF52CF52AF528E4A6D4A6E4A8E52B8
:103DA000EC396A298A29AA31EB392C426D4A8E4AAC
:103DB0006D4A4D424D428E4A8E4A6D4A2C420C3A13
:103DC0000C3A0C3A0C3A0C3A0C3A0C3A0C3A0C3AC3
:103DD0000C3A0C3A0C3A0C3A0C424D4AAE52AE52E6
:103DE0006D4A2C420C420C3A0C3A0C3A0C3A0C3A02
:103DF0000C3A0C3A0C3A0C3A0C3A0C3A2C424D4222
:103E00008E4AAE528E4A2C420C420C3A0C3A0C3A74
:103E10000C3A0C3A0C3A0C3A0C3A0C3A0C3A0C3A72
:103E20000C3A0C3A0C3A0C422C426D4AAE52AE524D
:103E30006D4A4D420C420C3A0C3A0C3A0C3A0C3A90
:103E40000C3A0C3AEB390C3A6D4A8E4A6D4A2C42C8
:103E50000C3A0C3A0C3A0C3A0C3A0C3A0C3A0C3A32
:103E6000EB39EB392C42AE52105B105B105BEF5A12
:103E70008E4A0C3ACB31EB390C3A0C3A0C3A0C3AEC
:103E80000C3A2C426D4A8E4A6E4A4D420C420C420C
:103E90000C3A0C3A0C3A0C3A0C3A0C3A0C3A0C3AF2
:103EA0000C3A0C3A0C3A0C3A0C3A0C3A0C3A0C3AE2
:103EB0000C3A0C3A0C3A0C3A0C3A0C3A0C3A0C3AD2
:103EC0000C3A0C3A0C3A0C3A0C3A0C3A0C3A0C3AC2
:103ED0000C3A0C3A0C3A0C3A0C3A0C3A0C3A0C3AB2
:103EE0000C3A0C3A0C3A0C3A0C3A0C3A0C3A0C429A
:103EF0000C3A0C3AEB414C4A000000000000000074
:103F000000000000000000000000000000000000B1
:103F100000000000000000000000000000000000A1
:103F20000000000000000000000000000000000091
:103F30000000000000000000000000000000000081
:103F40000000000000000000000000000000000071
:103F50000000000000000000000000000000000061
:103F60000000000000000000000000000000000051
:103F70000000000000000000000000000000000041
:103F80000000000000000000000000000000000031
:103F90000000000000000000000000000000000021
:103FA0000000000000000000000000000000000011
:103FB0000000000000000000000000000000000001
:103FC00000000000000000000000000000000000F1
:103FD00000000000000000000000000000000000E1
:103FE00000000000000000000000000000000000D1
:103FF00000000000000000000000000000000000C1
:1040000000000000000000000000000000000000B0
:1040100000000000000000000000000000000000A0
:104020000000000000000000000000000000000090
:104030000000000000000000000000000842D37BE8
:104040003CC6BFD638A5CF524D428E4A8E4A6E4AE4
:104050006E4A6E4A8E4A6E4A4D420C3AEB39CB316B
:10406000CB31CB31AB31CB312C426D4A8E4A8E4AAB
:104070008E4A8E4A4D4A2C420C420C3A0C3A0C3A6B
:104080000C3A0C3A0C3A0C3A0C3A0C3A0C3A0C3A00
:104090000C3A2C424D4A8E52CF528E4A2D420C423F
:1040A0000C3A0C3A0C3A0C3A0C3A0C3A0C3A0C3AE0
:1040B0000C3A0C3A0C3A0C3A0C3A0C3A2D426D4A36
:1040C000AE4A6E4A2D420C420C3A0C3A0C3A0C3A6B
:1040D0000C3A0C3A0C3A0C3A0C3A0C3A0C3A0C3AB0
:1040E0000C3A0C3A0C426D4A8E4AAF52AF528E4A8D
:1040F0004D420C420C3A0C3A0C3A0C3A0C3A0C3A3F
:10410000EB390C426D4A6E4A2C420C420C3A0C3A86
:104110000C3A0C3A0C3A0C3A0C3AEB39CB310C3ADB
:104120008E4AEF5A105B305B105BAF522D42CB31A1
:10413000EB39EB390C3A0C3A0C3A0C3A0C3A0C3A93
:104140002C426D4A8E4A6E4A4D4A2C420C420C3A21
:104150000C3A0C3A0C3A0C3A0C3A0C3A0C3A0C3A2F
:104160000C3A0C3A0C3A0C3A0C3A0C3A0C3A0C3A1F
:104170000C3A0C3A0C3A0C3A0C3A0C3A0C3A0C3A0F
:104180000C3A0C3A0C3A0C3A0C3A0C3A0C3A0C3AFF
:104190000C3A0C3A0C3A0C3A0C3A0C3A0C3A0C3AEF
:1041A0000C3A0C3A0C3A0C3A0C3A0C3A0C3A2B3AC0
:1041B000AB5A0000000000000000000000000000FA
:1041C00000000000000000000000000000000000EF
:1041D00000000000000000000000000000000000DF
:1041E00000000000000000000000000000000000CF
:1041F00000000000000000000000000000000000BF
:1042000000000000000000000000000000000000AE
:10421000000000000000000000000000000000009E
:10422000000000000000000000000000000000008E
:10423000000000000000000000000000000000007E
:10424000000000000000000000000000000000006E
:10425000000000000000000000000000000000005E
:10426000000000000000000000000000000000004E
:10427000000000000000000000000000000000003E
:10428000000000000000000000000000000000002E
:10429000000000000000000000000000000000001E
:1042A000000000000000000000000000000000000E
:1042B00000000000000000000000000000000000FE
:1042C00000000000000000000000000000000000EE
:1042D00000000000000000000000000000000000DE
:1042E00000000000000000000000000000000000CE
:1042F00000000000000000000000FFFFBEC6FFDE5F
:104300007AAD105B6D424D426D4A6D426D4A4D4231
:104310004D426D4A2C422C3A4D42EF5A105BEF5AF7
:104320006D4AEB39CB31EC394D42AE528E4A6D4A73
:104330002C420C3A0C3A0C3A0C3A0C3A0C3A0C3A25
:104340000C3A0C3A0C3A0C3A0C3A0C3A2C426D4AA4
:104350008E4AAE52AF52AE526D4A2C420C3A0C3AD3
:104360000C3A0C3A0C3A0C3A0C3A0C3A0C3A0C3A1D
:104370000C3A0C3A0C3AEB390C3A4C428E4A8E52BB
:104380006D4A0C420C3A0C3A0C3A0C3A0C3A0C3A84
:104390000C3A0C3A0C3A0C3A0C3A0C3AEB390C3A0F
:1043A0004D428E4A6E4A6D4A8E4A8E528E4A2C4239
:1043B0000C3A0C3A0C3A0C3A0C3A0C3A0C3A0C42C5
:1043C0002C422D420C420C3A0C3A0C3A0C3A0C3A64
:1043D0000C3A0C3AEB39CB31EB394D42EF5A105BCA
:1043E000305B105BEF526D4AEB39CB31EC390C3A54
:1043F0000C3A0C3A0C3A0C3A0C3A0C3A0C3A2C4265
:104400004D426D4A8E4A6E4A4D420C420C3A0C3A6D
:104410000C3A0C3A0C3A0C3A0C3A0C3A0C3A0C3A6C
:104420000C3A0C3A0C3A0C3A0C3A0C3A0C3A0C3A5C
:104430000C3A0C3A0C3A0C3A0C3A0C3A0C3A0C3A4C
:104440000C3A0C3A0C3A0C3A0C3A0C3A0C3A0C3A3C
:104450000C3A0C3A0C3A0C3A0C3A0C3A0C3A0C3A2C
:104460000C3A0C3A0C3AEB39494A000000000000C3
:10447000000000000000000000000000000000003C
:10448000000000000000000000000000000000002C
:10449000000000000000000000000000000000001C
:1044A000000000000000000000000000000000000C
:1044B00000000000000000000000000000000000FC
:1044C00000000000000000000000000000000000EC
:1044D00000000000000000000000000000000000DC
:1044E00000000000000000000000000000000000CC
:1044F00000000000000000000000000000000000BC
:1045000000000000000000000000000000000000AB
:10451000000000000000000000000000000000009B
:10452000000000000000000000000000000000008B
:10453000000000000000000000000000000000007B
:10454000000000000000000000000000000000006B
:10455000000000000000000000000000000000005B
:10456000000000000000000000000000000000004B
:10457000000000000000000000000000000000003B
:10458000000000000000000000000000000000002B
:10459000000000000000000000000000000000001B
:1045A000000000000000000000000000000000000B
:1045B0000000000000000000FFFF7FD699AD926B65
:1045C000105BEF5A105B5163926BEF5A4D422D42D4
:1045D0002C42CF52F47BBBB59AAD18A555843063FD
:1045E000EC39AB31EB394D424D422C420C3A0C3A8E
:1045F0000C3A0C3A0C3A0C3A0C3A0C3A0C3A0C3A8B
:104600000C3A0C3A0C3A2C424D4A8E4A8E4A4D4A8C
:104610004D428E4AAE528E4A4D420C420C3A0C3AF2
:104620000C3A0C3A0C3A0C3A0C3A0C3A0C3A0C3A5A
:104630000C3A0C3A0C3A2C426D4A6E4A4D4A0C3AEE
:104640000C3A0C3A0C3A0C3A0C3A0C3A0C3A0C3A3A
:104650000C3A0C3A0C3A0C3AEB394C428E4A8E4AE0
:104660004D420C422C424D428D4A4D420C420C3A76
:104670000C3A0C3A0C3A0C3A0C3A0C3A0C420C42FA
:104680000C3A0C3A0C3A0C3A0C3A0C3A0C3A0C3AFA
:10469000EB39EB392C42AE52105B105B105BF05AD9
:1046A0008E4A0C3ACB39EB39EC390C3A0C3A0C3ACD
:1046B0000C3A0C3A0C3A0C3A0C3A0C3A0C422C429A
:1046C0006D4A8E4A8E4A4D420C420C3A0C3A0C3AD4
:1046D0000C3A0C3A0C3A0C3A0C3A0C3A0C3A0C3AAA
:1046E0000C3A0C3A0C3A0C3A0C3A0C3A0C3A0C3A9A
:1046F0000C3A0C3A0C3A0C3A0C3A0C3A0C3A0C3A8A
:104700000C3A0C3A0C3A0C3A0C3A0C3A0C3A0C3A79
:104710000C3A0C3A0C3A0C3A0C3A0C3A0C3AEC4182
:104720000A3200000000000000000000000000004D
:104730000000000000000000000000000000000079
:104740000000000000000000000000000000000069
:104750000000000000000000000000000000000059
:104760000000000000000000000000000000000049
:104770000000000000000000000000000000000039
:104780000000000000000000000000000000000029
:104790000000000000000000000000000000000019
:1047A0000000000000000000000000000000000009
:1047B00000000000000000000000000000000000F9
:1047C00000000000000000000000000000000000E9
:1047D00000000000000000000000000000000000D9
:1047E00000000000000000000000000000000000C9
:1047F00000000000000000000000000000000000B9
:1048000000000000000000000000000000000000A8
:104810000000000000000000000000000000000098
:104820000000000000000000000000000000000088
:104830000000000000000000000000000000000078
:104840000000000000000000000000000000000068
:104850000000000000000000000000000000000058
:104860000000000000000000000000000000000048
:104870000000000000000000FFFF1384F37B55845C
:10488000F89C79AD79ADD3734D420C3AF05A189D2E
:104890009ECEDFD67ECE3CC65DCE1CBE726BCB31CB
:1048A0008A29CB31EB39EB390C3A0C3A0C3A0C3AF9
:1048B0000C3A0C3A0C3A0C3A0C3A0C3A0C3A0C3AC8
:1048C0002C426D4A8E4A8E4A4D420C420C424D4259
:1048D0008E4AAE526D4A2C420C420C3A0C3A0C3ABB
:1048E0000C3A0C3A0C3A0C3A0C3A0C3A0C3A0C3A98
:1048F0000C3A4D426D4A6D4A2C420C3A0C3A0C3A35
:104900000C3A0C3A0C3A0C3A0C3A0C3A0C3A0C3A77
:104910000C3A0C3A0C428E4AAE526D4A2C420C3A7A
:104920000C3A0C422C422C420C3A0C3A0C3A0C3AFF
:104930000C3A0C3A0C3A0C3A0C3A0C3A0C3A0C3A47
:104940000C3A0C3A0C3A0C3A0C3AEB39CB390C3A9B
:104950008E4AF05A105B305B105BAE522C42CB316A
:10496000CB39EB39EC390C3A0C3A0C3A0C3A0C3A9C
:104970000C3A0C3A0C3A0C3A0C3A0C3A0C424D4AAE
:104980008E4A8E4A4D422C420C3A0C3A0C3A0C3A62
:104990000C3A0C3A0C3A0C3A0C3A0C3A0C3A0C3AE7
:1049A0000C3A0C3A0C3A0C3A0C3A0C3A0C3A0C3AD7
:1049B0000C3A0C3A0C3A0C3A0C3A0C3A0C3A0C3AC7
:1049C0000C3A0C3A0C3A0C3A0C3A0C3A0C3A0C3AB7
:1049D0000C3A0C3A0C3A0B3AEC3908420000000051
:1049E00000000000000000000000000000000000C7
:1049F00000000000000000000000000000000000B7
:104A000000000000000000000000000000000000A6
:104A10000000000000000000000000000000000096
:104A20000000000000000000000000000000000086
:104A30000000000000000000000000000000000076
:104A40000000000000000000000000000000000066
:104A50000000000000000000000000000000000056
:104A60000000000000000000000000000000000046
:104A70000000000000000000000000000000000036
:104A80000000000000000000000000000000000026
:104A90000000000000000000000000000000000016
:104AA0000000000000000000000000000000000006
:104AB00000000000000000000000000000000000F6
:104AC00000000000000000000000000000000000E6
:104AD00000000000000000000000000000000000D6
:104AE00000000000000000000000000000000000C6
:104AF00000000000000000000000000000000000B6
:104B000000000000000000000000000000000000A5
:104B10000000000000000000000000000000000095
:104B20000000000000000000000000000000000085
:104B300000000000000000000000FCBDBFD6BFD692
:104B4000FBBDB3734D42EF5AF79CDFD6DFD6BAB543
:104B5000147C147CBBB5BFD69AADEF5A8A298A293A
:104B6000AA31CB39EC390C3A0C3A0C3A0C3A0C3AE3
:104B70000C3A0C3A0C3A0C3A0C3A2C426D4AAF52B1
:104B80006E4A2C420C3A0C3AEB39EC392C426D4A05
:104B90008E4A8E4A6D4A2D420C420C3A0C3A0C3A1F
:104BA0000C3A0C3A0C3A0C3A0C3A0C3A0C426D4A5C
:104BB0008E4A4D420C420C3A0C3A0C3A0C3A0C3AE2
:104BC0000C3A0C3A0C3A0C3A0C3A0C3A0C3A0C42AD
:104BD0004D4A8E528E4A2C420C3A0C3A0C3A0C3A00
:104BE0000C3A0C3A0C3A0C3A0C3A0C3A0C3A0C3A95
:104BF0000C3A0C3A0C3A0C3A0C3A0C3A0C3A0C3A85
:104C00000C3A0C3AEB39EB310C3A6D4AEF5A105B27
:104C1000305B105BCF524D42EB39CB31EB390C3A64
:104C20000C3A0C3A0C3A0C3A0C3A0C3A0C3A0C3A54
:104C30000C3A0C3A0C3A0C3A0C3A2C426D4A8E4A19
:104C40008E4A4D4A2C420C420C3A0C3A0C3A0C3A21
:104C50000C3A0C3A0C3A0C3A0C3A0C3A0C3A0C3A24
:104C60000C3A0C3A0C3A0C3A0C3A0C3A0C3A0C3A14
:104C70000C3A0C3A0C3A0C3A0C3A0C3A0C3A0C3A04
:104C80000C3A0C3A0C3A0C3A0C3A0C3A0C3AEC3915
:104C90002C424E4A0000000000000000000000000E
:104CA0000000000000000000000000000000000004
:104CB00000000000000000000000000000000000F4
:104CC00000000000000000000000000000000000E4
:104CD00000000000000000000000000000000000D4
:104CE00000000000000000000000000000000000C4
:104CF00000000000000000000000000000000000B4
:104D000000000000000000000000000000000000A3
:104D10000000000000000000000000000000000093
:104D20000000000000000000000000000000000083
:104D30000000000000000000000000000000000073
:104D40000000000000000000000000000000000063
:104D50000000000000000000000000000000000053
:104D60000000000000000000000000000000000043
:104D70000000000000000000000000000000000033
:104D80000000000000000000000000000000000023
:104D90000000000000000000000000000000000013
:104DA0000000000000000000000000000000000003
:104DB00000000000000000000000000000000000F3
:104DC00000000000000000000000000000000000E3
:104DD00000000000000000000000000000000000D3
:104DE00000000000000000000000000000000000C3
:104DF0000000000000000000FFFF18A5716B4D428D
:104E00004D4275847DCEFFDEDFD6F89CCF524D42F9
:104E1000D3733DC67DCEF47BCB318A298A29AA3152
:104E2000CB31EB390C3A0C3A0C3A0C3A0C3A0C3ABE
:104E30000C3A0C422C426D4AAE526E4A2C420C3A4D
:104E40000C3A0C3A0C3AEB390C3A2C424D428E4A51
:104E50008E4A6D4A2D420C420C3A0C3A0C3A0C3AEE
:104E60000C3A0C3A0C3A0C3A2C42AE528E4A2C4276
:104E70000C3A0C3A0C3A0C3A0C3A0C3A0C3A0C3A02
:104E80000C3A0C3A0C3A0C3A0C424D428E4A6E4A9D
:104E90004D420C3A0C3A0C3A0C3A0C3A0C3A0C3A99
:104EA0000C3A0C3A0C3A0C3A0C3A0C3A0C3A0C3AD2
:104EB0000C3A0C3A0C3A0C3A0C3A0C3A0C3A0C3AC2
:104EC000EB39CB314D42CF52105B105B305BEF5A68
:104ED0008E4AEB39CB31EB390C3A0C3A0C3A0C3A9E
:104EE0000C3A0C3A0C3A0C3A0C3A0C3A0C3A0C3A92
:104EF0000C3A0C3A0C3A0C3A0C424D426D4AAE5206
:104F00008E4A4D420C420C3A0C3A0C3A0C3A0C3A8E
:104F10000C3A0C3A0C3A0C3A0C3A0C3A0C3A0C3A61
:104F20000C3A0C3A0C3A0C3A0C3A0C3A0C3A0C3A51
:104F30000C3A0C3A0C3A0C3A0C3A0C3A0C3A0C3A41
:104F40000C3A0C3A0C3A0C3A2B42CB3900000000D8
:104F50000000000000000000000000000000000051
:104F60000000000000000000000000000000000041
:104F70000000000000000000000000000000000031
:104F80000000000000000000000000000000000021
:104F90000000000000000000000000000000000011
:104FA0000000000000000000000000000000000001
:104FB00000000000000000000000000000000000F1
:104FC00000000000000000000000000000000000E1
:104FD00000000000000000000000000000000000D1
:104FE00000000000000000000000000000000000C1
:104FF00000000000000000000000000000000000B1
:1050000000000000000000000000000000000000A0
:105010000000000000000000000000000000000090
:105020000000000000000000000000000000000080
:105030000000000000000000000000000000000070
:105040000000000000000000000000000000000060
:105050000000000000000000000000000000000050
:105060000000000000000000000000000000000040
:105070000000000000000000000000000000000030
:105080000000000000000000000000000000000020
:105090000000000000000000000000000000000010
:1050A0000000000000000000000000000000000000
:1050B000000000000000000000002C3AEF5ABBB5D1
:1050C000DFD67DCEBFD63CC6768C105B316359A54A
:1050D000BED635840C3AAA298A29AA31AA31AB3125
:1050E000EB39EB390C3A0C3A0C3A0C3A0C422D42A3
:1050F0006E4A8E4A6E4A2C420C3A0C3A0C3A0C3AE2
:105100000C3A0C3AEB390C3A0C3A2C426D4A8E525E
:105110008E4A6D4A2C420C3A0C3A0C3A0C3A0C3A34
:105120000C3A0C424D42AF526D4A0C420C3A0C3ACA
:105130000C3A0C3A0C3A0C3A0C3A0C3A0C3A0C3A3F
:105140000C3A0C3A2C426E4A8E4A2C420C420C3AD3
:105150000C3A0C3A0C3A0C3A0C3A0C3A0C3A0C3A1F
:105160000C3A0C3A0C3A0C3A0C3A0C3A0C3A0C3A0F
:105170000C3A0C3A0C3A0C3A0C3AEB39CB310C3A6B
:105180008E4AF05A105B305B105B8E522C42CB3152
:10519000EB390C3A0C3A0C3A0C3A0C3A0C3A0C3A01
:1051A0000C3A0C3A0C3A0C3A0C3A0C3A0C3A0C3ACF
:1051B0000C3A0C3A0C3A0C422C426D4A8E528E4AF2
:1051C0004D420C420C3A0C3A0C3A0C3A0C3A0C3A5E
:1051D0000C3A0C3A0C3A0C3A0C3A0C3A0C3A0C3A9F
:1051E0000C3A0C3A0C3A0C3A0C3A0C3A0C3A0C3A8F
:1051F0000C3A0C3A0C3A0C3A0C3A0C3A0C3A0C4277
:105200000C3A10001F000000000000000000000029
:10521000000000000000000000000000000000008E
:10522000000000000000000000000000000000007E
:10523000000000000000000000000000000000006E
:10524000000000000000000000000000000000005E
:10525000000000000000000000000000000000004E
:10526000000000000000000000000000000000003E
:10527000000000000000000000000000000000002E
:10528000000000000000000000000000000000001E
:10529000000000000000000000000000000000000E
:1052A00000000000000000000000000000000000FE
:1052B00000000000000000000000000000000000EE
:1052C00000000000000000000000000000000000DE
:1052D00000000000000000000000000000000000CE
:1052E00000000000000000000000000000000000BE
:1052F00000000000000000000000000000000000AE
:10530000000000000000000000000000000000009D
:10531000000000000000000000000000000000008D
:10532000000000000000000000000000000000007D
:10533000000000000000000000000000000000006D
:10534000000000000000000000000000000000005D
:10535000000000000000000000000000000000004D
:10536000000000000000000000000000000000003D
:105370000000000000000000725B7ECEDFD6D794F4
:1053800059A51CBEDBB5968C3584DBB5BFD6926BB8
:105390000C3A0C3A8E4AEF5A0C3AAA31AA31CB3960
:1053A000EB390C3AEB390C3A4D426E4A8E4A6D4A53
:1053B0002C420C3AEB390C3A0C3A0C3A0C3A0C3AB7
:1053C0000C3A0C3A0C3A0C3A2C424D4A8E4A8E4A10
:1053D0006D422C420C420C3A0C3A0C3A0C3A4D42BB
:1053E0008E4AAE524D420C3A0C3A0C3A0C3A0C3AF8
:1053F0000C3A0C3A0C3A0C3A0C3A0C3A0C3A2C4255
:105400006D4A8E4A6D4A0C420C3A0C3A0C3A0C3AF0
:105410000C3A0C3A0C3A0C3A0C3A0C3A0C3A0C3A5C
:105420000C3A0C3A0C3A0C3A0C3A0C3A0C3A0C3A4C
:105430000C3A0C3AEB39CB31EC396D42CF52105B60
:10544000305B105BEF522D42EB39EB39EB390C3A04
:105450000C3A0C3A0C3A0C3A0C3A0C3A0C3A0C3A1C
:105460000C3A0C3A0C3A0C3A0C3A0C3A0C3A0C3A0C
:105470000C3A0C3AEB392C426D4AAE528E4A4D42F0
:105480002C420C3A0C3A0C3A0C3A0C3A0C3A0C3AC4
:105490000C3A0C3A0C3A0C3A0C3A0C3A0C3A0C3ADC
:1054A0000C3A0C3A0C3A0C3A0C3A0C3A0C3A0C3ACC
:1054B0000C3A0C3A0C3A0C3A0C3A0B420000000041
:1054C00000000000000000000000000000000000DC
:1054D00000000000000000000000000000000000CC
:1054E00000000000000000000000000000000000BC
:1054F00000000000000000000000000000000000AC
:10550000000000000000000000000000000000009B
:10551000000000000000000000000000000000008B
:10552000000000000000000000000000000000007B
:10553000000000000000000000000000000000006B
:10554000000000000000000000000000000000005B
:10555000000000000000000000000000000000004B
:10556000000000000000000000000000000000003B
:10557000000000000000000000000000000000002B
:10558000000000000000000000000000000000001B
:10559000000000000000000000000000000000000B
:1055A00000000000000000000000000000000000FB
:1055B00000000000000000000000000000000000EB
:1055C00000000000000000000000000000000000DB
:1055D00000000000000000000000000000000000CB
:1055E00000000000000000000000000000000000BB
:1055F00000000000000000000000000000000000AB
:10560000000000000000000000000000000000009A
:10561000000000000000000000000000000000008A
:10562000000000000000000000000000000000007A
:10563000000000000000FFFF39ADCF52F05A558442
:1056400079A5BBB5FCBD9ECE1CBECF520C3A3163D2
:10565000F79C9AADD3732C42AB31AA31CB31EB39E5
:105660000C3A4D428E4A8E4A6D4A2C420C3A0C3A04
:105670000C3A0C3A0C3A0C3A0C3A0C3A0C3A0C3AFA
:105680000C3A0C3A0C3A0C424D426E4A8E4A6E4A23
:105690004D422C420C420C3A2C426E4AAE526D4A9C
:1056A0002C420C3A0C3A0C3A0C3A0C3A0C3A0C3AA2
:1056B0000C3A0C3A0C3A0C3A0C424D4A8E526D4A56
:1056C0002C420C3A0C3A0C3A0C3A0C3A0C3A0C3A82
:1056D0000C3A0C3A0C3A0C3A0C3A0C3A0C3A0C3A9A
:1056E0000C3A0C3A0C3A0C3A0C3A0C3A0C3AEB39AC
:1056F000CB31CB314D42CF52105B105B105BEF5A78
:105700008E4AEB39CB31EB390C3A0C3A0C3A0C3A65
:105710000C3A0C3A0C3A0C3A0C3A0C3A0C3A0C3A59
:105720000C3A0C3A0C3A0C3A0C3A0C3A0C3A0C3A49
:105730000C3A0C3A2C424D4A6E4A6E4A4D4A2C4263
:105740000C420C3A0C3A0C3A0C3A0C3A0C3A0C3A21
:105750000C3A0C3A0C3A0C3A0C3A0C3A0C3A0C3A19
:105760000C3A0C3A0C3A0C3A0C3A0C3A0C3A0C4201
:105770000C420C3A0C420000000000000000000047
:105780000000000000000000000000000000000019
:105790000000000000000000000000000000000009
:1057A00000000000000000000000000000000000F9
:1057B00000000000000000000000000000000000E9
:1057C00000000000000000000000000000000000D9
:1057D00000000000000000000000000000000000C9
:1057E00000000000000000000000000000000000B9
:1057F00000000000000000000000000000000000A9
:105800000000000000000000000000000000000098
:105810000000000000000000000000000000000088
:105820000000000000000000000000000000000078
:105830000000000000000000000000000000000068
:105840000000000000000000000000000000000058
:105850000000000000000000000000000000000048
:105860000000000000000000000000000000000038
:105870000000000000000000000000000000000028
:105880000000000000000000000000000000000018
:105890000000000000000000000000000000000008
:1058A00000000000000000000000000000000000F8
:1058B00000000000000000000000000000000000E8
:1058C00000000000000000000000000000000000D8
:1058D00000000000000000000000000000000000C8
:1058E00000000000000000000000000000000000B8
:1058F0000000000000000000B55AB373B694BAB5BA
:105900009ECE7DCEB7944D42AF52189D9ECEBFD64F
:105910009AADF37BCF52EC39AA31CB312C426D4A90
:105920008E4A8E4A4D420C3A0C3A0C3A0C3A0C3ADA
:105930000C3A0C3A0C3A0C3A0C3A0C3A0C3A0C3A37
:105940000C3A0C3A0C422D426D4A6E4A8E4A6D4A10
:105950004D422D424D4A8E528E4A2C420C3A0C3A00
:105960000C3A0C3A0C3A0C3A0C3A0C3A0C3A0C3A07
:105970000C3A0C424D428E4A8E4A2D420C3A0C3A59
:105980000C3A0C3A0C3A0C3A0C3A0C3A0C3A0C3AE7
:105990000C3A0C3A0C3A0C3A0C3A0C3A0C3A0C3AD7
:1059A0000C3A0C3A0C3A0C3AEB39CB39EB390C3A4D
:1059B000AF52105B105B105BF05A8E4A0C3ACB3141
:1059C000EB39EB390C3A0C3A0C3A0C3A0C3A0C3AEB
:1059D0000C3A0C3A0C3A0C3A0C3A0C3A0C3A0C3A97
:1059E0000C3A0C3A0C3A0C3A0C3A0C3A0C3A0C3A87
:1059F0000C3A2C424D426D4A8E4A6D4A4D422C4221
:105A00000C3A0C3A0C3A0C3A0C3A0C3A0C3A0C3A66
:105A10000C3A0C3A0C3A0C3A0C3A0C3A0C3A0C3A56
:105A20000C3A0C3A0C420C420C42EB416B29000040
:105A30000000000000000000000000000000000066
:105A40000000000000000000000000000000000056
:105A50000000000000000000000000000000000046
:105A60000000000000000000000000000000000036
:105A70000000000000000000000000000000000026
:105A80000000000000000000000000000000000016
:105A90000000000000000000000000000000000006
:105AA00000000000000000000000000000000000F6
:105AB00000000000000000000000000000000000E6
:105AC00000000000000000000000000000000000D6
:105AD00000000000000000000000000000000000C6
