:020000040800F2
:100000000000022083000008810000088100000831
:100010008100000881000008810000080000000045
:100020000000000000000000000000008100000847
:100030008100000800000000810000088100000825
:10004000810000088100000881000008810000088C
:10005000810000088100000881000008810000087C
:10006000810000088100000881000008810000086C
:10007000810000088100000881000008810000085C
:10008000FEE726482649274A914205D050F8043B0E
:1000900041F8043B9142F9D1234824494FF0000232
:1000A000884203D040F8042B8842FBD100F040F88E
:1000B000FEE7034B1A681206FCD55860704700BF74
:1000C0000010014008B5411E11F8010F00B908BD2C
:1000D000FFF7EFFFF8E7054B9A689107FCD5187317
:1000E0009A68D207FCD5187B704700BF00300140EA
:1000F00010B5094C4FF08043C4F818340520FFF7C1
:10010000EAFFFF20FFF7E7FFC307FAD44FF480436D
:10011000C4F8183410BD00BF0000024090A50708C5
:10012000000000200000002000000020000000204F
:100130002DE9F04FA14EA24CD6F83038A148A24D7F
:10014000A24F43F0010385B0C6F83038D6F84438E2
:1001500043F01003C6F84438236823F47013236077
:10016000236843F420132360636A23F47F6343F41A
:10017000EE636362A36843F42013A360944B8B2265
:100180009A6042F20C02DA60FFF79CFFD6F8303832
:10019000904843F04203C6F83038D6F8443843F468
:1001A0008053C6F84438D4F8003423F0405323F485
:1001B0007C63C4F80034D4F8003443F0805343F433
:1001C0002863C4F80034D4F820346FF31733C4F82C
:1001D0002034D4F8203443F4AA0343F4A043C4F8F1
:1001E0002034D4F80C3443F08053C4F80C34D5F8E0
:1001F0000C3843F48043C5F80C38D5F8003823F4A4
:10020000404343F48043C5F800384FF48043C4F8BA
:1002100018348023C5F818386F4B40F24F321A60FB
:10022000D6F8303843F02003C6F83038D5F800341B
:100230006A4E23F4402343F48023C5F800344FF47E
:100240000073C5F81834FFF73DFF1C2127FA01F3AE
:10025000DCB2C3F3031304F00F04F05CFFF729FFD3
:100260000439305DFFF725FF0B1DEFD15C48FFF728
:1002700029FF4FF03033019343F23053ADF808308B
:10028000062101AC0139605CFFF713FF0029F9D1A9
:1002900054484B4EFFF716FF5348FFF713FF4FF03C
:1002A0000073C5F818344FF474144FF080484FF4BD
:1002B0008047C6F818840620FFF70DFFC6F81874AB
:1002C0002020C6F81884FFF706FFC4F30740FFF7A5
:1002D00002FFC4F30720FFF7FEFE0020FFF7FBFE3E
:1002E000C6F81874FFF704FF404B04F580549C4295
:1002F000DDD14FF40073C5F818343D48DFF80091A4
:100300003C4CDFF8C8802E4FFFF7DCFE4FF0007347
:10031000C5F818344FF0804B5FFA88FACAF580763A
:10032000A642C7F818B44FF0060028BF2646FFF7CC
:10033000D2FE4FF48043C7F818340220C7F818B42F
:10034000FFF7C9FEC8F30740FFF7C5FEC8F3072053
:10035000FFF7C1FE5046FFF7BEFECA46B144CA458C
:1003600022D14FF48043C7F81834FFF7C1FEA41B15
:10037000B044D1D14FF400761F48C5F81864FFF798
:10038000A1FE1E4A4FF00071C5F818140094009B9E
:1003900093420EDDC5F818640194019B9342F3DC8F
:1003A000019B01330193F8E71AF8010BFFF793FE65
:1003B000D5E7009B01330093E9E700BF003002401E
:1003C00000000240040400080010024000093D0043
:1003D000001001401D040008003001405F040008C7
:1003E0002F040008420400083604000800B044004E
:1003F0004504000820A10700540400081FA10700BD
:10040000700400080D0A3E3E3E20424154434820FD
:10041000464C41534845522076320D0A0020204276
:1004200061746368206F66667365743D3078002080
:1004300073697A653D00202045726173696E672E8D
:100440002E2E0D0A00202057726974696E672E2EB9
:100450002E0D0A003E3E3E20444F4E450D0A003010
:10046000313233343536373839414243444546001A
:100470000C3A0C3A0C3A0C3A0C3A0C3A0C3A0C3A4C
:100480000C3A0C3A0C3A0C3A0C3A0C3A0C3A0C3A3C
:100490000C3A0C3A0C3A0C3A0C3A0C3A0C3A0C3A2C
:1004A0000C3A0C3A0C3A0C3A0C3A0C3A0C3A0C3A1C
:1004B0000C3A0C3A0C3A0C3A0C3A0C3A0C3A0C3A0C
:1004C000EB39EB39EB39CB39EC392C428E4ACF5230
:1004D000105B305B305B105BEF5AAE4A2C42CB3185
:1004E000CB31EB390C3A0C3A0C3A0C3A0C3A0C3A48
:1004F0000C3A0C3A0C3A0C3A0C3A0C3A0C3A0C3ACC
:100500000C3A0C3A0C3A0C3A0C3A0C3A0C3A0C3ABB
:100510000C3A0C3AEB39CB39CB310C3AAE52105B7A
:10052000305B305B305B305B305B105B105B8E4A66
:10053000EB39AA31CB31EB390C3A0C3A0C3A0C3A84
:100540000C3A0C3A0C3A0C3A0C3A0C3A0C3A0C3A7B
:100550000C3A0C3A0C3A0C3A0C3A0C3A0C3A0C3A6B
:100560000C3A0C3A0C3A0C3A0C3A0C3A0C3A0C3A5B
:100570000C3A0C3A0C3A0C3A0C3A0C3A0C3A0C3A4B
:100580000C3A0C3A0C3A0C3A0C3A0C3A0C3A0C3A3B
:100590000C3A0C3A0C3A0C3A0C3A0C3A0C3A0C3A2B
:1005A0000C3A0C3A0C3A0C3A0C3A0C3A0C3A0C3A1B
:1005B0000C3A0C3A0C3A0C3A0C3A0C3A0C3A0C3A0B
:1005C0000C3A0C3A0C3A2C42AE528E522C42EB3979
:1005D0000C3A0C3A0C3A0C3A0C3A0C3A0C3A0C3AEB
:1005E0000C3A0C3A0C3A0C3A0C3A0C3A0C3A0C3ADB
:1005F0000C3A0C3A0C3A0C3A0C3A0C3A0C3A0C3ACB
:100600000C3A0C3A0C3A0C3A0C3A0C3A0C3A0C3ABA
:100610000C3A0C3A0C3A0C3A0C3A0C3A0C3A0C3AAA
:100620000C3A0C3A0C3A0C3A0C3A0C3A0C3AEC39BB
:10063000CB39EB396D4AEF5A105B105BCF522D422C
:10064000CB31EB390C3A0C3A0C3A0C3A0C3A0C42DE
:100650006D4A8E4A4D420C3A0C3A0C3A0C3A0C3A1E
:100660000C3A0C3A0C3A0C3A0C3A0C3A0C3A0C3A5A
:100670000C3A0C3A0C3A0C3A0C3A0C3A0C3A0C3A4A
:100680000C3A0C3A0C3A0C3A0C3A0C3A0C3A0C3A3A
:100690000C3A0C3A4D426D4A4D42EC39CB31CB31DC
:1006A0002D42AF52105B305B305B305B305B305BB8
:1006B000305B305B305B305B305B105BAE522D42A9
:1006C000EB39AB310000000000000000000000002A
:1006D000000000000000000000000000000000001A
:1006E000000000000000000000000000000000000A
:1006F00000000000000000000000000000000000FA
:100700000000000000000000000000004C320C3A25
:100710000C3A0C3A0C3A0C3A0C3A0C3A0C3A0C3AA9
:100720000C3A0C3A0C3A0C3A0C3A0C3A0C3A0C3A99
:100730000C3A0C3A0C3A0C3A0C3A0C3A0C3A0C3A89
:100740000C3A0C3A0C3A0C3A0C3A0C3A0C3A0C3A79
:100750000C3A0C3A0C3A0C3A0C3A0C3A0C3A0C3A69
:100760000C3A0C3A0C3A0C3A0C3A0C3A0C3A0C3A59
:100770000C3A0C3A0C3A0C3A0C3A0C3A0C3A0C3A49
:10078000EC39EB39CB31CB310C3A4D42CF52105BC7
:10079000305B105B105B105BCF524D420C3AEB3973
:1007A000CB39EB39EC390C3A0C3A0C3A0C3A0C3A9E
:1007B0000C3A0C3A0C3A0C3A0C3A0C3A0C3A0C3A09
:1007C0000C3A0C3A0C3A0C3A0C3A0C3A0C3A0C3AF9
:1007D000EB39CB31CB314D42CF52105B305B305BCC
:1007E000305B305B305B105BEF5A4D42AB31CB314D
:1007F000EB390C3A0C3A0C3A0C3A0C3A0C3A0C3AEB
:100800000C3A0C3A0C3A0C3A0C3A0C3A0C3A0C3AB8
:100810000C3A0C3A0C3A0C3A0C3A0C3A0C3A0C3AA8
:100820000C3A0C3A0C3A0C3A0C3A0C3A0C3A0C3A98
:100830000C3A0C3A0C3A0C3A0C3A0C3A0C3A0C3A88
:100840000C3A0C3A0C3A0C3A0C3A0C3A0C3A0C3A78
:100850000C3A0C3A0C3A0C3A0C3A0C3A0C3A0C3A68
:100860000C3A0C3A0C3A0C3A0C3A0C3A0C3A0C3A58
:100870000C3A0C3A0C3A0C3A0C3A0C3A0C3A0C3A48
:100880000C424D42AE528E4A0C420C3A0C3A0C3A93
:100890000C3A0C3A0C3A0C3A0C3A0C3A0C3A0C3A28
:1008A0000C3A0C3A0C3A0C3A0C3A0C3A0C3A0C3A18
:1008B0000C3A0C3A0C3A0C3A0C3A0C3A0C3A0C3A08
:1008C0000C3A0C3A0C3A0C3A0C3A0C3A0C3A0C3AF8
:1008D0000C3A0C3A0C3A0C3A0C3A0C3A0C3A0C3AE8
:1008E0000C3A0C3A0C3A0C3A0C3AEB39CB39EB395E
:1008F0006D4AEF5A105B105BEF5A2D42CB31EB394A
:100900000C3A0C3A0C3A0C3A0C3A0C424D4A8E4ACC
:100910004D420C420C3A0C3A0C3A0C3A0C3A0C3A56
:100920000C3A0C3A0C3A0C3A0C3A0C3A0C3A0C3A97
:100930000C3A0C3A0C3A0C3A0C3A0C3A0C3A0C3A87
:100940000C3A0C3A0C3A0C3A0C3A0C3A0C3A0C3A77
:100950004D426D4A4D420C3ACB39AB31CB314D4211
:10096000CF52105B305B305B305B305B305B305BB9
:10097000305B305B305B105B105BAF522D42EB396C
:10098000084200000000000000000000000000001D
:100990000000000000000000000000000000000057
:1009A0000000000000000000000000000000000047
:1009B0000000000000000000000000000000000037
:1009C00000000000000010000C3A0C3A0C3A0C3AFF
:1009D0000C3A0C3A0C3A0C3A0C3A0C3A0C3A0C3AE7
:1009E0000C3A0C3A0C3A0C3A0C3A0C3A0C3A0C3AD7
:1009F0000C3A0C3A0C3A0C3A0C3A0C3A0C3A0C3AC7
:100A00000C3A0C3A0C3A0C3A0C3A0C3A0C3A0C3AB6
:100A10000C3A0C3A0C3A0C3A0C3A0C3A0C3A0C3AA6
:100A20000C3A0C3A0C3A0C3A0C3A0C3A0C3A0C3A96
:100A30000C3A0C3A0C3A0C3A0C3A0C3A0C3A0C3A86
:100A4000EB39CB39CB31CB392D42AF52F05A105B59
:100A5000105B305B105BCF526E4A2C42EB39CB31CE
:100A6000EB390C3A0C3A0C3A0C3A0C3A0C3A0C3A78
:100A70000C3A0C3A0C3A0C3A0C3A0C3A0C3A0C3A46
:100A80000C3A0C3A0C3A0C3A0C3A0C3ACB39AB31E2
:100A9000EB398E4AF05A305B305B305B305B305B59
:100AA000305B105BAE520C3AAA31CB31EB390C3AC9
:100AB0000C3A0C3A0C3A0C3A0C3A0C3A0C3A0C3A06
:100AC0000C3A0C3A0C3A0C3A0C3A0C3A0C3A0C3AF6
:100AD0000C3A0C3A0C3A0C3A0C3A0C3A0C3A0C3AE6
:100AE0000C3A0C3A0C3A0C3A0C3A0C3A0C3A0C3AD6
:100AF0000C3A0C3A0C3A0C3A0C3A0C3A0C3A0C3AC6
:100B00000C3A0C3A0C3A0C3A0C3A0C3A0C3A0C3AB5
:100B10000C3A0C3A0C3A0C3A0C3A0C3A0C3A0C3AA5
:100B20000C3A0C3A0C3A0C3A0C3A0C3A0C3A0C3A95
:100B30000C3A0C3A0C3A0C3A0C3A0C3A0C424D4234
:100B4000AE526D4A0C420C3A0C3A0C3A0C3A0C3A42
:100B50000C3A0C3A0C3A0C3A0C3A0C3A0C3A0C3A65
:100B60000C3A0C3A0C3A0C3A0C3A0C3A0C3A0C3A55
:100B70000C3A0C3A0C3A0C3A0C3A0C3A0C3A0C3A45
:100B80000C3A0C3A0C3A0C3A0C3A0C3A0C3A0C3A35
:100B90000C3A0C3A0C3A0C3A0C3A0C3A0C3A0C3A25
:100BA0000C3A0C3A0C3AEB39CB39EB396E4AEF5A26
:100BB000105B305BEF5A2C42CB31EB390C3A0C3ADC
:100BC0000C3A0C3A0C3A0C424D426D4A2D420C3A0A
:100BD0000C3A0C3A0C3A0C3A0C3A0C3A0C3A0C3AE5
:100BE0000C3A0C3A0C3A0C3A0C3A0C3A0C3A0C3AD5
:100BF0000C3A0C3A0C3A0C3A0C3A0C3A0C3A0C3AC5
:100C00000C3A0C3A0C3A0C3A0C3A0C3A4D426D4AFA
:100C10004D420C42EB39CB31AB31EB394D42CF5227
:100C2000105B305B305B305B305B305B305B305B8C
:100C3000305B105B105BF05AAE522D420C3A000054
:100C400000000000000000000000000000000000A4
:100C50000000000000000000000000000000000094
:100C60000000000000000000000000000000000084
:100C70000000000000000000000000000000000074
:100C800000004C4AEC390C3AEC390C3A0C3A0C3A6C
:100C90000C3A0C3A0C3A0C3A0C3A0C3A0C3A0C3A24
:100CA0000C3A0C3A0C3A0C3A0C3A0C3A0C3A0C3A14
:100CB0000C3A0C3A0C3A0C3A0C3A0C3A0C3A0C3A04
:100CC0000C3A0C3A0C3A0C3A0C3A0C3A0C3A0C3AF4
:100CD0000C3A0C3A0C3A0C3A0C3A0C3A0C3A0C3AE4
:100CE0000C3A0C3A0C3A0C3A0C3A0C3A0C3A0C3AD4
:100CF0000C3A0C3A0C3A0C3A0C3A0C3A0C3AEB39E6
:100D0000EB39CB31CB312C428E4AEF52105B105B6A
:100D1000305B105BEF5AAE522D42EB39CB31EB39E1
:100D2000EB390C3A0C3A0C3A0C3A0C3A0C3A0C3AB5
:100D30000C3A0C3A0C3A0C3A0C3A0C3A0C3A0C3A83
:100D40000C3A0C3A0C3AEB39CB31CB312C42CF5226
:100D5000105B305B305B305B305B305B305BF05A9C
:100D60006D4AEB31AA31EB39EB390C3A0C3A0C3ABB
:100D70000C3A0C3A0C3A0C3A0C3A0C3A0C3A0C3A43
:100D80000C3A0C3A0C3A0C3A0C3A0C3A0C3A0C3A33
:100D90000C3A0C3A0C3A0C3A0C3A0C3A0C3A0C3A23
:100DA0000C3A0C3A0C3A0C3A0C3A0C3A0C3A0C3A13
:100DB0000C3A0C3A0C3A0C3A0C3A0C3A0C3A0C3A03
:100DC0000C3A0C3A0C3A0C3A0C3A0C3A0C3A0C3AF3
:100DD0000C3A0C3A0C3A0C3A0C3A0C3A0C3A0C3AE3
:100DE0000C3A0C3A0C3A0C3A0C3A0C3A0C3A0C3AD3
:100DF0000C3A0C3A0C3A0C3A0C426D4AAE526D4A1F
:100E00000C3A0C3A0C3A0C3A0C3A0C3A0C3A0C3AB2
:100E10000C3A0C3A0C3A0C3A0C3A0C3A0C3A0C3AA2
:100E20000C3A0C3A0C3A0C3A0C3A0C3A0C3A0C3A92
:100E30000C3A0C3A0C3A0C3A0C3A0C3A0C3A0C3A82
:100E40000C3A0C3A0C3A0C3A0C3A0C3A0C3A0C3A72
:100E50000C3A0C3A0C3A0C3A0C3A0C3A0C3A0C3A62
:100E60000C3A0C3ACB39EC396D4AEF5A105B305BD7
:100E7000F05A2C42CB31EB390C3A0C3A0C3A0C3A82
:100E80000C3A0C3A2C422D422C420C3A0C3A0C3AB9
:100E90000C3A0C3A0C3A0C3A0C3A0C3A0C3A0C3A22
:100EA0000C3A0C3A0C3A0C3A0C3A0C3A0C3A0C3A12
:100EB0000C3A0C3A0C3A0C3A0C3A0C3A0C3A0C3A02
:100EC0000C3A0C3A0C3A0C3A4C426D4A4D4A2C42C0
:100ED0000C3AEB39CB31AB31EB396D4ACF52105B69
:100EE000305B305B305B305B305B305B305B305BAA
:100EF000305B105BEF5AAE526D4AAD31000000001E
:100F000000000000000000000000000000000000E1
:100F100000000000000000000000000000000000D1
:100F200000000000000000000000000000000000C1
:100F300000000000000000000000000000000B4264
:100F40000C3A0C3A0C3A0C3A0C3A0C3A0C3A0C3A71
:100F50000C3A0C3A0C3A0C3A0C3A0C3A0C3A0C3A61
:100F60000C3A0C3A0C3A0C3A0C3A0C3A0C3A0C3A51
:100F70000C3A0C3A0C3A0C3A0C3A0C3A0C3A0C3A41
:100F80000C3A0C3A0C3A0C3A0C3A0C3A0C3A0C3A31
:100F90000C3A0C3A0C3A0C3A0C3A0C3A0C3A0C3A21
:100FA0000C3A0C3A0C3A0C3A0C3A0C3A0C3A0C3A11
:100FB0000C3A0C3A0C3A0C3A0C3A0C3A0C3AEB3923
:100FC000CB31EB390C3A6D4AAF52F05A105B305BC3
:100FD000105B105BCF526D420C3ACB31EB39EB39E1
:100FE000EC390C3A0C3A0C3A0C3A0C3A0C3A0C3AF2
:100FF0000C3A0C3A0C3A0C3A0C3A0C3A0C3A0C3AC1
:101000000C3AEB39CB31EC396E4AF05A305B305B3D
:10101000305B305B305B305B105BCF522C42CB31AE
:10102000CB31EB390C3A0C3A0C3A0C3A0C3A0C3AFC
:101030000C3A0C3A0C3A0C3A0C3A0C3A0C3A0C3A80
:101040000C3A0C3A0C3A0C3A0C3A0C3A0C3A0C3A70
:101050000C3A0C3A0C3A0C3A0C3A0C3A0C3A0C3A60
:101060000C3A0C3A0C3A0C3A0C3A0C3A0C3A0C3A50
:101070000C3A0C3A0C3A0C3A0C3A0C3A0C3A0C3A40
:101080000C3A0C3A0C3A0C3A0C3A0C3A0C3A0C3A30
:101090000C3A0C3A0C3A0C3A0C3A0C3A0C3A0C3A20
:1010A0000C3A0C3A0C3A0C3A0C3A0C3A0C3A0C3A10
:1010B0000C3A0C3A2C426E4AAE524D4A0C3A0C3A5B
:1010C0000C3A0C3A0C3A0C3A0C3A0C3A0C3A0C3AF0
:1010D0000C3A0C3A0C3A0C3A0C3A0C3A0C3A0C3AE0
:1010E0000C3A0C3A0C3A0C3A0C3A0C3A0C3A0C3AD0
:1010F0000C3A0C3A0C3A0C3A0C3A0C3A0C3A0C3AC0
:101100000C3A0C3A0C3A0C3A0C3A0C3A0C3A0C3AAF
:101110000C3A0C3A0C3A0C3A0C3A0C3A0C3A0C3A9F
:10112000CB39EB396D4AEF5A105B305BF05A2C42E9
:10113000CB31EB390C3A0C3A0C3A0C3A0C3A0C3AEB
:101140000C3A0C420C3A0C3A0C3A0C3A0C3A0C3A67
:101150000C3A0C3A0C3A0C3A0C3A0C3A0C3A0C3A5F
:101160000C3A0C3A0C3A0C3A0C3A0C3A0C3A0C3A4F
:101170000C3A0C3A0C3A0C3A0C3A0C3A0C3A0C3A3F
:101180000C3A0C3A2C426D4A4D4A0C420C3A0C3A3D
:10119000EB39CB31CB31EC396D4AEF52105B305B20
:1011A000305B305B305B305B305B305B305B105B07
:1011B000105BEF5ACF528F52000000000000000079
:1011C000000000000000000000000000000000001F
:1011D000000000000000000000000000000000000F
:1011E00000000000000000000000000000000000FF
:1011F000000000000000000008420C3A0C3A0C3AD3
:101200000C3A0C3A0C3A0C3A0C3A0C3A0C3A0C3AAE
:101210000C3A0C3A0C3A0C3A0C3A0C3A0C3A0C3A9E
:101220000C3A0C3A0C3A0C3A0C3A0C3A0C3A0C3A8E
:101230000C3A0C3A0C3A0C3A0C3A0C3A0C3A0C3A7E
:101240000C3A0C3A0C3A0C3A0C3A0C3A0C3A0C3A6E
:101250000C3A0C3A0C3A0C3A0C3A0C3A0C3A0C3A5E
:101260000C3A0C3A0C3A0C3A0C3A0C3A0C3A0C3A4E
:101270000C3A0C3A0C3A0C3A0C3A0B3AEB39EB3983
:10128000CB31EC394D42AE52F05A105B105B105B23
:10129000105BCF528E4A2D420C3ACB31CB39EB3911
:1012A0000C3A0C3A0C3A0C3A0C3A0C3A0C3A0C3A0E
:1012B0000C3A0C3A0C3A0C3A0C3A0C3AEB39CB316A
:1012C000CB312C42CF52105B305B305B305B305BFC
:1012D000305B105BF05A8E4A0C3ACB31EB390C3A4A
:1012E0000C3A0C3A0C3A0C3A0C3A0C3A0C3A0C3ACE
:1012F0000C3A0C3A0C3A0C3A0C3A0C3A0C3A0C3ABE
:101300000C3A0C3A0C3A0C3A0C3A0C3A0C3A0C3AAD
:101310000C3A0C3A0C3A0C3A0C3A0C3A0C3A0C3A9D
:101320000C3A0C3A0C3A0C3A0C3A0C3A0C3A0C3A8D
:101330000C3A0C3A0C3A0C3A0C3A0C3A0C3A0C3A7D
:101340000C3A0C3A0C3A0C3A0C3A0C3A0C3A0C3A6D
:101350000C3A0C3A0C3A0C3A0C3A0C3A0C3A0C3A5D
:101360000C3A0C3A0C3A0C3A0C3A0C3A0C3A0C3A4D
:101370002C428E4A8E4A4D420C3A0C3A0C3A0C3AA8
:101380000C3A0C3A0C3A0C3A0C3A0C3A0C3A0C3A2D
:101390000C3A0C3A0C3A0C3A0C3A0C3A0C3A0C3A1D
:1013A0000C3A0C3A0C3A0C3A0C3A0C3A0C3A0C3A0D
:1013B0000C3A0C3A0C3A0C3A0C3A0C3A0C3A0C3AFD
:1013C0000C3A0C3A0C3A0C3A0C3A0C3A0C3A0C3AED
:1013D0000C3A0C3A0C3A0C3A0C3A0C3ACB39EB3941
:1013E0006D4AEF5A105B305BF05A2C42EB39EB3907
:1013F0000C3A0C3A0C3A0C3A0C3A0C3A0C3A0C3ABD
:101400000C3A0C3A0C3A0C3A0C3A0C3A0C3A0C3AAC
:101410000C3A0C3A0C3A0C3A0C3A0C3A0C3A0C3A9C
:101420000C3A0C3A0C3A0C3A0C3A0C3A0C3A0C3A8C
:101430000C3A0C3A0C3A0C3A0C3A0C3A0C3A0C3A7C
:101440002C426D4A6D4A0C420C3A0C3AEB39EB399E
:10145000CB31CB310C3A8E4AEF5A105B305B305BAC
:10146000305B305B305B305B305B305B105B105B64
:10147000105BEF52B55A00000000000000000000B1
:10148000000000000000000000000000000000005C
:10149000000000000000000000000000000000004C
:1014A000000000000000000000000000000000003C
:1014B000000000002B320C3A0C3A0C3A0C3A0C3A71
:1014C0000C3A0C3A0C3A0C3A0C3A0C3A0C3A0C3AEC
:1014D0000C3A0C3A0C3A0C3A0C3A0C3A0C3A0C3ADC
:1014E0000C3A0C3A0C3A0C3A0C3A0C3A0C3A0C3ACC
:1014F0000C3A0C3A0C3A0C3A0C3A0C3A0C3A0C3ABC
:101500000C3A0C3A0C3A0C3A0C3A0C3A0C3A0C3AAB
:101510000C3A0C3A0C3A0C3A0C3A0C3A0C3A0C3A9B
:101520000C3A0C3A0C3A0C3A0C3A0C3A0C3A0C3A8B
:101530000C3A0C3A0C3A0C3A0C3A0C3AEB39CB31E7
:10154000EB392C428E4AEF5A105B105B305B105B1C
:10155000F05AAF526D42EC39CB31EB39EB390C3AE2
:101560000C3A0C3A0C3A0C3A0C3A0C3A0C3A0C3A4B
:101570000C3A0C3A0C3A0C3AEB39CB31CB316D4A80
:10158000F05A105B305B305B305B305B305B105B84
:10159000CF524D42CB31CB31EB390C3A0C3A0C3AAD
:1015A0000C3A0C3A0C3A0C3A0C3A0C3A0C3A0C3A0B
:1015B0000C3A0C3A0C3A0C3A0C3A0C3A0C3A0C3AFB
:1015C0000C3A0C3A0C3A0C3A0C3A0C3A0C3A0C3AEB
:1015D0000C3A0C3A0C3A0C3A0C3A0C3A0C3A0C3ADB
:1015E0000C3A0C3A0C3A0C3A0C3A0C3A0C3A0C3ACB
:1015F0000C3A0C3A0C3A0C3A0C3A0C3A0C3A0C3ABB
:101600000C3A0C3A0C3A0C3A0C3A0C3A0C3A0C3AAA
:101610000C3A0C3A0C3A0C3A0C3A0C3A0C3A0C3A9A
:101620000C3A0C3A0C3A0C3A0C3A0C3A4D428E4AAF
:101630008E4A2C420C3A0C3A0C3A0C3A0C3A0C3AC0
:101640000C3A0C3A0C3A0C3A0C3A0C3A0C3A0C3A6A
:101650000C3A0C3A0C3A0C3A0C3A0C3A0C3A0C3A5A
:101660000C3A0C3A0C3A0C3A0C3A0C3A0C3A0C3A4A
:101670000C3A0C3A0C3A0C3A0C3A0C3A0C3A0C3A3A
:101680000C3A0C3A0C3A0C3A0C3A0C3A0C3A0C3A2A
:101690000C3A0C3A0C3A0C3ACB39EB394D42EF5A32
:1016A000305B305BEF5A2C42EB39EB390C3A0C3A99
:1016B0000C3A0C3A0C3A0C3A0C3A0C3A0C3A0C3AFA
:1016C0000C3A0C3A0C3A0C3A0C3A0C3A0C3A0C3AEA
:1016D0000C3A0C3A0C3A0C3A0C3A0C3A0C3A0C3ADA
:1016E0000C3A0C3A0C3A0C3A0C3A0C3A0C3A0C3ACA
:1016F0000C3A0C3A0C3A0C3A0C3A0C3A2C426E4A20
:101700006D4A0C3A0C3A0C3A0C3AEC39EB39CB31C5
:10171000CB310C3A6E4AEF52105B305B305B305B82
:10172000305B305B305B305B305B305B105B105BA1
:10173000F04A00000000000000000000000000006F
:101740000000000000000000000000000000000099
:101750000000000000000000000000000000000089
:101760000000000000000000000000000000000079
:10177000EC390C3A0C3A0C3A0C3A0C3A0C3A0C3A5A
:101780000C3A0C3A0C3A0C3A0C3A0C3A0C3A0C3A29
:101790000C3A0C3A0C3A0C3A0C3A0C3A0C3A0C3A19
:1017A0000C3A0C3A0C3A0C3A0C3A0C3A0C3A0C3A09
:1017B0000C3A0C3A0C3A0C3A0C3A0C3A0C3A0C3AF9
:1017C0000C3A0C3A0C3A0C3A0C3A0C3A0C3A0C3AE9
:1017D0000C3A0C3A0C3A0C3A0C3A0C3A0C3A0C3AD9
:1017E0000C3A0C3A0C3A0C3A0C3A0C3A0C3A0C3AC9
:1017F0000C3A0C3A0C3A0C3A0C3AEB39CB31EB314F
:101800000C3A6E4ACF52105B105B305B105B105B82
:10181000CF526D420C3ACB31CB39EB390C3A0C3A02
:101820000C3A0C3A0C3A0C3A0C3A0C3A0C3A0C3A88
:101830000C3A0C3AEB39CB310C3A8E4A105B305BE8
:10184000305B305B305B305B305B105BAE520C3A30
:10185000CB31CB39EC390C3A0C3A0C3A0C3A0C3A05
:101860000C3A0C3A0C3A0C3A0C3A0C3A0C3A0C3A48
:101870000C3A0C3A0C3A0C3A0C3A0C3A0C3A0C3A38
:101880000C3A0C3A0C3A0C3A0C3A0C3A0C3A0C3A28
:101890000C3A0C3A0C3A0C3A0C3A0C3A0C3A0C3A18
:1018A0000C3A0C3A0C3A0C3A0C3A0C3A0C3A0C3A08
:1018B0000C3A0C3A0C3A0C3A0C3A0C3A0C3A0C3AF8
:1018C0000C3A0C3A0C3A0C3A0C3A0C3A0C3A0C3AE8
:1018D0000C3A0C3A0C3A0C3A0C3A0C3A0C3A0C3AD8
:1018E0000C3A0C3A0C3A0C3A4D428E4A6D4A2C4254
:1018F0000C3A0C3A0C3A0C3A0C3A0C3A0C3A0C3AB8
:101900000C3A0C3A0C3A0C3A0C3A0C3A0C3A0C3AA7
:101910000C3A0C3A0C3A0C3A0C3A0C3A0C3A0C3A97
:101920000C3A0C3A0C3A0C3A0C3A0C3A0C3A0C3A87
:101930000C3A0C3A0C3A0C3A0C3A0C3A0C3A0C3A77
:101940000C3A0C3A0C3A0C3A0C3A0C3A0C3A0C3A67
:101950000C3A0C3AEB39EB394D42EF5A105B305BE5
:10196000EF5A4D42EB39EB390C3A0C3A0C3A0C3A3F
:101970000C3A0C3A0C3A0C3A0C3A0C3A0C3A0C3A37
:101980000C3A0C3A0C3A0C3A0C3A0C3A0C3A0C3A27
:101990000C3A0C3A0C3A0C3A0C3A0C3A0C3A0C3A17
:1019A0000C3A0C3A0C3A0C3A0C3A0C3A0C3A0C3A07
:1019B0000C3A0C3A0C3A0C3A2C428E4A6D4A0C3ACC
:1019C0000C3A0C3A0C3A0C3AEB39EB39CB31CB31BF
:1019D0000C3A8E4AEF5A305B305B305B305B305BE9
:1019E000305B305B305B305B105B105B105B00008A
:1019F00000000000000000000000000000000000E7
:101A000000000000000000000000000000000000D6
:101A100000000000000000000000000000000000C6
:101A200000000000000000000000AB02EC390C3A9E
:101A30000C3A0C3A0C3A0C3A0C3A0C3A0C3A0C3A76
:101A40000C3A0C3A0C3A0C3AEC390C3A0C3A0C3A87
:101A50000C3A0C3A0C3A0C3A0C3A0C3A0C3A0C3A56
:101A60000C3A0C3A0C3A0C3A0C3A0C3A0C3A0C3A46
:101A70000C3A0C3A0C3A0C3A0C3A0C3A0C3A0C3A36
:101A80000C3A0C3A0C3A0C3A0C3A0C3A0C3A0C3A26
:101A90000C3A0C3A0C3A0C3A0C3A0C3A0C3A0C3A16
:101AA0000C3A0C3A0C3A0C3A0C3A0C3A0C3A0C3A06
:101AB0000C3A0C3A0C3A0C3AEB39EB39CB390C3A7C
:101AC0004D42AE52F05A105B305B305B105BCF5230
:101AD0006E4A0C42EB39CB31EB39EB390C3A0C3A0C
:101AE0000C3A0C3A0C3A0C3A0C3A0C3A0C3AEB39E8
:101AF000CB31CB314D42CF52105B105B305B305B52
:101B0000305B305B305BF05A6D4AEB31CB31EB39F7
:101B10000C3A0C3A0C3A0C3A0C3A0C3A0C3A0C3A95
:101B20000C3A0C3A0C3A0C3A0C3A0C3A0C3A0C3A85
:101B30000C3A0C3A0C3A0C3A0C3A0C3A0C3A0C3A75
:101B40000C3A0C3A0C3A0C3A0C3A0C3A0C3A0C3A65
:101B50000C3A0C3A0C3A0C3A0C3A0C3A0C3A0C3A55
:101B60000C3A0C3A0C3A0C3A0C3A0C3A0C3A0C3A45
:101B70000C3A0C3A0C3A0C3A0C3A0C3A0C3A0C3A35
:101B80000C3A0C3A0C3A0C3A0C3A0C3A0C3A0C3A25
:101B90000C3A0C3A0C3A0C3A0C3A0C3A0C3A0C3A15
:101BA0000C3A0C424D4A8E4A4D420C420C3A0C3AC9
:101BB0000C3A0C3A0C3A0C3A0C3A0C3A0C3A0C3AF5
:101BC0000C3A0C3A0C3A0C3A0C3A0C3A0C3A0C3AE5
:101BD0000C3A0C3A0C3A0C3A0C3A0C3A0C3A0C3AD5
:101BE0000C3A0C3A0C3A0C3A0C3A0C3A0C3A0C3AC5
:101BF0000C3A0C3A0C3A0C3A0C3A0C3A0C3A0C3AB5
:101C00000C3A0C3A0C3A0C3A0C3A0C3A0C3A0C3AA4
:101C1000EB39EC394D4AEF5A105B105BEF5A4D42ED
:101C2000EB39CB390C3A0C3A0C3A0C3A0C3A0C3AE8
:101C30000C3A0C3A0C3A0C3A0C3A0C3A0C3A0C3A74
:101C40000C3A0C3A0C3A0C3A0C3A0C3A0C3A0C3A64
:101C50000C3A0C3A0C3A0C3A0C3A0C3A0C3A0C3A54
:101C60000C3A0C3A0C3A0C3A0C3A0C3A0C3A0C3A44
:101C70000C3A0C3A2C428E526D4A0C3A0C3A0C3A01
:101C80000C3A0C3AEB39EB39EB39CB31CB310C3A1E
:101C90008E4AF05A105B305B305B305B305B305B00
:101CA000305B305B105B105B3063AB5A00000000B0
:101CB0000000000000000000000000000000000024
:101CC0000000000000000000000000000000000014
:101CD0000000000000000000000000000000000004
:101CE000000000000000CB390C3A0C3A0C3A0C3AD8
:101CF0000C3A0C3A0C3A0C3A0C3A0C3A0C3A0C3AB4
:101D00000C3A0C3A0C3AEC390C3A0C3A0C3A0C3AC4
:101D10000C3A0C3A0C3A0C3A0C3A0C3A0C3A0C3A93
:101D20000C3A0C3A0C3A0C3A0C3A0C3A0C3A0C3A83
:101D30000C3A0C3A0C3A0C3A0C3A0C3A0C3A0C3A73
:101D40000C3A0C3A0C3A0C3A0C3A0C3A0C3A0C3A63
:101D50000C3A0C3A0C3A0C3A0C3A0C3A0C3A0C3A53
:101D60000C3A0C3A0C3A0C3A0C3A0C3A0C3A0C3A43
:101D70000C3A0C3A0C3A0C3A0C3A2C42EC392C4204
:101D80008E4AEF5A105B105B105B105BF05AAE523C
:101D90004D42EC39CB31EB39EB390C3A0C3A0C3A79
:101DA0000C3A0C3A0C3A0C3A0C3AEB39AB310C3A8F
:101DB0008E4AF05A105B305B305B305B305B305BDF
:101DC000105BAF522C42CB31CB31EB390C3A0C3A91
:101DD0000C3A0C3A0C3A0C3A0C3A0C3A0C3A0C3AD3
:101DE0000C3A0C3A0C3A0C3A0C3A0C3A0C3A0C3AC3
:101DF0000C3A0C3A0C3A0C3A0C3A0C3A0C3A0C3AB3
:101E00000C3A0C3A0C3A0C3A0C3A0C3A0C3A0C3AA2
:101E10000C3A0C3A0C3A0C3A0C3A0C3A0C3A0C3A92
:101E20000C3A0C3A0C3A0C3A0C3A0C3A0C3A0C3A82
:101E30000C3A0C3A0C3A0C3A0C3A0C3A0C3A0C3A72
:101E40000C3A0C3A0C3A0C3A0C3A0C3A0C3A0C3A62
:101E50000C3A0C3A0C3A0C3A0C3A0C3A0C3A2C422A
:101E60006D4A8E4A4D420C420C3A0C3A0C3A0C3AEE
:101E70000C3A0C3A0C3A0C3A0C3A0C3A0C3A0C3A32
:101E80000C3A0C3A0C3A0C3A0C3A0C3A0C3A0C3A22
:101E90000C3A0C3A0C3A0C3A0C3A0C3A0C3A0C3A12
:101EA0000C3A0C3A0C3A0C3A0C3A0C3A0C3A0C3A02
:101EB0000C3A0C3A0C3A0C3A0C3A0C3A0C3A0C3AF2
:101EC0000C3A0C3A0C3A0C3A0C3A0C3AEB39EC3925
:101ED0004D42EF5A105B105BEF5A4D4AEC39EB392B
:101EE0000C3A0C3A0C3A0C3A0C3A0C3A0C3A0C3AC2
:101EF0000C3A0C3A0C3A0C3A0C3A0C3A0C3A0C3AB2
:101F00000C3A0C3A0C3A0C3A0C3A0C3A0C3A0C3AA1
:101F10000C3A0C3A0C3A0C3A0C3A0C3A0C3A0C3A91
:101F20000C3A0C3A0C3A0C3A0C3A0C3A0C3A0C3A81
:101F30002C428E526D4A0C420C3A0C3A0C3A0C3A36
:101F40000C3A0C3A0C3AEB39CB31CB310C3A8E4A85
:101F5000F05A105B305B305B305B305B305B305B8A
:101F6000305B305B305B316300000000000000003C
:101F70000000000000000000000000000000000061
:101F80000000000000000000000000000000000051
:101F90000000000000000000000000000000000041
:101FA00000002B3A0C3A0C3A0C3A0C3A0C3A0C3A28
:101FB0000C3A0C3A0C3A0C3A0C3A0C3A0C3A0C3AF1
:101FC0000C3AEC39EC390C3A0C3A0C3A0C3A0C3A23
:101FD0000C3A0C3A0C3A0C3A0C3A0C3A0C3A0C3AD1
:101FE0000C3A0C3A0C3A0C3A0C3A0C3A0C3A0C3AC1
:101FF0000C3A0C3A0C3A0C3A0C3A0C3A0C3A0C3AB1
:102000000C3A0C3A0C3A0C3A0C3A0C3A0C3A0C3AA0
:102010000C3A0C3A0C3A0C3A0C3A0C3A0C3A0C3A90
:102020000C3A0C3A0C3A0C3A0C3A0C3A0C3A0C3A80
:102030000C3A2C426D4A6D4AEB39CB310C3A6E4A60
:10204000AF52F05A105B305B105B105BCF526E4AA0
:102050000C3ACB31CB39EB39EB390C3A0C3A0C3A20
:102060000C3A0C3AEB39CB31CB312D42CF52105BCD
:10207000305B305B305B305B305B305BEF5A6D4A1E
:10208000EB39CB31EB39EB390C3A0C3A0C3A0C3AD0
:102090000C3A0C3A0C3A0C3A0C3A0C3A0C422C42E0
:1020A0002C420C420C420C420C3A0C3A0C3A0C3AC0
:1020B0000C3A0C3A0C3A0C3A0C3A0C3A0C3A0C3AF0
:1020C0000C3A0C3A0C3A0C3A0C3A0C3A0C3A0C3AE0
:1020D0000C3A0C3A0C3A0C3A0C3A0C3A0C3A0C3AD0
:1020E0000C3A0C3A0C3A0C3A0C3A0C3A0C3A0C3AC0
:1020F0000C3A0C3A0C3A0C3A0C3A0C3A0C3A0C3AB0
:102100000C3A0C3A0C3A0C3A0C3A0C3A0C3A0C3A9F
:102110000C3A0C3A0C3A0C3A0C3A2C426E4A6E4A83
:102120002C420C3A0C3A0C3A0C3A0C3A0C3A0C3A57
:102130000C3A0C3A0C3A0C3A0C3A0C3A0C3A0C3A6F
:102140000C3A0C3A0C3A0C3A0C3A0C3A0C3A0C3A5F
:102150000C3A0C3A0C3A0C3A0C3A0C3A0C3A0C3A4F
:102160000C3A0C3A0C3A0C3A0C3A0C3A0C3A0C3A3F
:102170000C3A0C3A0C3A0C3A0C3A0C3A0C3A0C3A2F
:102180000C3A0C3A0C3A0C3AEB39EC394D42EF5A16
:10219000305B105BEF5A6D4AEB39EB390C3A0C3A75
:1021A0000C3A0C3A0C3A0C3A0C3A0C3A0C3A0C3AFF
:1021B0000C3A0C3A0C3A0C3A0C3A0C3A0C3A0C3AEF
:1021C0000C3A0C3A0C3A0C3A0C3A0C3A0C3A0C3ADF
:1021D0000C3A0C3A0C3A0C3A0C3A0C3A0C3A0C3ACF
:1021E0000C3A0C3A0C3A0C3A0C3A0C3A2D428E4A04
:1021F0006D4A0C420C3A0C3A0C3A0C3A0C3A0C3A36
:102200000C3AEC39EB39CB31CB312C42AE52F05A8F
:10221000305B305B305B305B305B305B305B305B66
:102220003063306300000000000000000000000088
:10223000000000000000000000000000000000009E
:10224000000000000000000000000000000000008E
:10225000000000000000000000000000AB020C3A8B
:102260000C3A0C3A0C3A0C3A0C3A0C3A0C3A0C3A3E
:102270000C3A0C3A0C3A0C3A0C3A0C3A0C3A0C3A2E
:102280000C3A0C3A0C3A0C3A0C3A0C3A0C3A0C3A1E
:102290000C3A0C3A0C3A0C3A0C3A0C3A0C3A0C3A0E
:1022A0000C3A0C3A0C3A0C3A0C3A0C3A0C3A0C3AFE
:1022B0000C3A0C3A0C3A0C3A0C3A0C3A0C3A0C3AEE
:1022C0000C3A0C3A0C3A0C3A0C3A0C3A0C3A0C3ADE
:1022D0000C3A0C3A0C3A0C3A0C3A0C3A0C3A0C3ACE
:1022E0000C3A0C3A0C3A0C3A0C3A0C3A2C426D4A25
:1022F0008E4A6D4A0C3ACB31CB31EB392D428E4AA6
:10230000EF5A105B305B305B105BEF5A8E4A2C4209
:10231000EB39CB39EB39EB390C3A0C3A0C3A0C3A35
:10232000EB39AB31CB316D42F05A105B305B305B37
:10233000305B305B305B105BCF520C3ACB31CB3132
:10234000EB390C3A0C3A0C3A0C3A0C3A0C3A0C3A7F
:102350000C3A0C3A0C3A0C3A2C424D424D424D424A
:102360002D422C422C422C422C422C420C420C3A44
:102370000C3A0C3A0C3A0C3A0C3A0C3A0C3A0C3A2D
:102380000C3A0C3A0C3A0C3A0C3A0C3A0C3A0C3A1D
:102390000C3A0C3A0C3A0C3A0C3A0C3A0C3A0C3A0D
:1023A0000C3A0C3A0C3A0C3A0C3A0C3A0C3A0C3AFD
:1023B0000C3A0C3A0C3A0C3A0C3A0C3A0C3A0C3AED
:1023C0000C3A0C3A0C3A0C3A0C3A0C3A0C3A0C3ADD
:1023D0000C3A0C3A0C3A2C428E4A6D4A0C420C3A9A
:1023E0000C3A0C3A0C3A0C3A0C3A0C3A0C3A0C3ABD
:1023F0000C3A0C3A0C3A0C3A0C3A0C3A0C3A0C3AAD
:102400000C3A0C3A0C3A0C3A0C3A0C3A0C3A0C3A9C
:102410000C3A0C3A0C3A0C3A0C3A0C3A0C3A0C3A8C
:102420000C3A0C3A0C3A0C3A0C3A0C3A0C3A0C3A7C
:102430000C3A0C3A0C3A0C3A0C3A0C3A0C3A0C3A6C
:102440000C3AEC39EB39EC396D4AEF5A305B105BE2
:10245000EF5A6D4AEB39EB390C3A0C3A0C3A0C3A1C
:102460000C3A0C3A0C3A0C3A0C3A0C3A0C3A0C3A3C
:102470000C3A0C3A0C3A0C3A0C3A0C3A0C3A0C3A2C
:102480000C3A0C3A0C3A0C3A0C3A0C3A0C3A0C3A1C
:102490000C3A0C3A0C3A0C3A0C3A0C3A0C3A0C3A0C
:1024A0000C3A0C3A0C3A0C3A2D428E4A6D4A2C42A8
:1024B0000C3A0C3A0C3A0C3A0C3A0C3A0C3A0C3AEC
:1024C000EB39CB39CB31CB312D42AF52105B305B86
:1024D000305B305B305B305B305B305B305B305BA4
:1024E0001063000000000000000000000000000079
:1024F00000000000000000000000000000000000DC
:1025000000000000000000000000000000000000CB
:102510000000000000000000EB310C3A0C3A0C3ACD
:102520000C3A0C3A0C3A0C3A0C3A0C3A0C3A0C3A7B
:102530000C3A0C3A0C3A0C3A0C3A0C3A0C3A0C3A6B
:102540000C3A0C3A0C3A0C3A0C3A0C3A0C3A0C3A5B
:102550000C3A0C3A0C3A0C3A0C3A0C3A0C3A0C3A4B
:102560000C3A0C3A0C3A0C3A0C3A0C3A0C3A0C3A3B
:102570000C3A0C3A0C3A0C3A0C3A0C3A0C3A0C3A2B
:102580000C3A0C3A0C3A0C3A0C3A0C3A0C3A0C3A1B
:102590000C3A0C3A0C3A0C3A0C3A0C3A0C3A0C3A0B
:1025A0000C3A0C3A0C3A0C424D428E4A6D4A2C427F
:1025B0000C3AEB39EB39CB31EB310C3A6E4AEF5A2E
:1025C000105B105B105B105B105BAE524D420C3A1F
:1025D000CB39CB39EB390C3A0C3AEB39CB31AA3148
:1025E000EC398E4A105B305B305B305B305B305BCC
:1025F000305B105B8E4AEB39CB31CB39EC390C3A7E
:102600000C3A0C3A0C3A0C3A0C3A0C3A0C3A0C3A9A
:102610000C3A0C3A2C424D4A6D4A6D4A6D4A6D4A4D
:102620006D4A6D4A4D424D424D422C422C422C4245
:102630000C420C420C420C420C3A0C3A0C3A0C3A4A
:102640000C3A0C3A0C3A0C3A0C3A0C3A0C3A0C3A5A
:102650000C3A0C3A0C3A0C3A0C3A0C3A0C3A0C3A4A
:102660000C3A0C3A0C3A0C3A0C3A0C3A0C3A0C3A3A
:102670000C3A0C3A0C3A0C3A0C3A0C3A0C3A0C3A2A
:102680000C3A0C3A0C3A0C3A0C3A0C3A0C3A0C3A1A
:102690000C3A2C428E4A4D4A0C420C3A0C3A0C3AF7
:1026A0000C3A0C3A0C3A0C3A0C3A0C3A0C3A0C3AFA
:1026B0000C3A0C3A0C3A0C3A0C3A0C3A0C3A0C3AEA
:1026C0000C3A0C3A0C3A0C3A0C3A0C3A0C3A0C3ADA
:1026D0000C3A0C3A0C3A0C3A0C3A0C3A0C3A0C3ACA
:1026E0000C3A0C3A0C3A0C3A0C3A0C3A0C3A0C3ABA
:1026F0000C3A0C3A0C3A0C3A0C3A0C3A0C3AEC39CB
:10270000EB39EB396D4AF05A305B105BEF5A6D4A8A
:10271000EB39EB390C3A0C3A0C3A0C3A0C3A0C3ACD
:102720000C3A0C3A0C3A0C3A0C3A0C3A0C3A0C3A79
:102730000C3A0C3A0C3A0C3A0C3A0C3A0C3A0C3A69
:102740000C3A0C3A0C3A0C3A0C3A0C3A0C3A0C3A59
:102750000C3A0C3A0C3A0C3A0C3A0C3A0C3A0C3A49
:102760000C3A0C3A2D428E4A6D4A2C420C3A0C3AE5
:102770000C3A0C3A0C3A0C3A0C3A0C3AEB39EB396D
:10278000CB31CB31EB394D42AF52105B305B305B1C
:10279000305B305B305B305B305B305B305B00006C
:1027A0000000000000000000000000000000000029
:1027B0000000000000000000000000000000000019
:1027C0000000000000000000000000000000000009
:1027D000000000000C3A0C3A0C3A0C3A0C3A0C3A55
:1027E0000C3A0C3A0C3A0C3A0C3A0C3A0C3A0C3AB9
:1027F0000C3A0C3A0C3A0C3A0C3A0C3A0C3A0C3AA9
:102800000C3A0C3A0C3A0C3A0C3A0C3A0C3A0C3A98
:102810000C3A0C3A0C3A0C3A0C3A0C3A0C3A0C3A88
:102820000C3A0C3A0C3A0C3A0C3A0C3A0C3A0C3A78
:102830000C3A0C3A0C3A0C3A0C3A0C3A0C3A0C3A68
:102840000C3A0C3A0C3A0C3A0C3A0C3A0C3A0C3A58
:102850000C3A0C3A0C3A0C3A0C3A0C3A0C3A0C3A48
:102860000C3A2D428E4A8E4A4D420C3A0C3A0C3AA2
:102870000C3AEB39CB31CB310C3A6D4ACF52F05A8E
:10288000105B305B305B105BCF528E4A0C3ACB3121
:10289000CB31EB39EB39EB39CB31CB314D42CF5228
:1028A000305B305B305B305B305B305B305BEF521A
:1028B0004D42CB31CB31EB390C3A0C3A0C3A0C3A55
:1028C0000C3A0C3A0C3A0C3A0C3A0C3A0C3A0C3AD8
:1028D0000C422C424D424D426D4A6D4A6D4A6D4A42
:1028E0006E4A8E4A8E4A8E4A8E4A8E4A8E4A6D4A69
:1028F0006D4A4D4A4D422D422C422C420C420C4214
:102900000C420C420C420C3A0C3A0C3A0C3A0C3A7F
:102910000C3A0C3A0C3A0C3A0C3A0C3A0C3A0C3A87
:102920000C3A0C3A0C3A0C3A0C3A0C3A0C3A0C3A77
:102930000C3A0C3A0C3A0C3A0C3A0C3A0C3A0C3A67
:102940000C3A0C3A0C3A0C3A0C3A0C3A0C3A2D422E
:102950008E524D420C420C3A0C3A0C3A0C3A0C3A5C
:102960000C3A0C3A0C3A0C3A0C3A0C3A0C3A0C3A37
:102970000C3A0C3A0C3A0C3A0C3A0C3A0C3A0C3A27
:102980000C3A0C3A0C3A0C3A0C3A0C3A0C3A0C3A17
:102990000C3A0C3A0C3A0C3A0C3A0C3A0C3A0C3A07
:1029A0000C3A0C3A0C3A0C3A0C3A0C3A0C3A0C3AF7
:1029B0000C3A0C3A0C3A0C3A0C3A0C3AEB39EB392B
:1029C0006E4AF05A305B105BEF5A6D42EB39EB39CF
:1029D0000C3A0C3A0C3A0C3A0C3A0C3A0C3A0C3AC7
:1029E0000C3A0C3A0C3A0C3A0C3A0C3A0C3A0C3AB7
:1029F0000C3A0C3A0C3A0C3A0C3A0C3A0C3A0C3AA7
:102A00000C3A0C3A0C3A0C3A0C3A0C3A0C3A0C3A96
:102A10000C3A0C3A0C3A0C3A0C3A0C3A0C3A0C3A86
:102A20002D428E4A6D4A2C420C3A0C3A0C3A0C3A22
:102A30000C3A0C3A0C3A0C3A0C3AEB39EB39CB39EC
:102A4000CB31EB394D42CF52105B305B305B305BAA
:102A5000305B305B305B305B106310840000000043
:102A60000000000000000000000000000000000066
:102A70000000000000000000000000000000000056
:102A80000000000000000000000000000000000046
:102A90000C3A0C3A0C3A0C3A0C3A0C3A0C3A0C3A06
:102AA0000C3A0C3A0C3A0C3A0C3A0C3A0C3A0C3AF6
:102AB0000C3A0C3A0C3A0C3A0C3A0C3A0C3A0C3AE6
:102AC0000C3A0C3A0C3A0C3A0C3A0C3A0C3A0C3AD6
:102AD0000C3A0C3A0C3A0C3A0C3A0C3A0C3A0C3AC6
:102AE0000C3A0C3A0C3A0C3A0C3A0C3A0C3A0C3AB6
:102AF0000C3A0C3A0C3A0C3A0C3A0C3A0C3A0C3AA6
:102B00000C3A0C3A0C3A0C3A0C3A0C3A0C3A0C3A95
:102B10000C3A0C3A0C3A0C3A0C3A0C3A2C426D4AEC
:102B20008E4A4D4A2C420C3A0C3A0C3A0C3A0C3A6A
:102B3000EB39CB39CB31EB394D42AE52EF5A105B0A
:102B4000305B305B105BF05A8E4A2C42CB31CB317C
:102B5000CB39CB31CB31EB39AF52105B305B305BD3
:102B6000305B305B305B305B105BAE4A2C3ACB3174
:102B7000CB390C3A0C3A0C3A0C3A0C3A0C3A0C3A67
:102B80000C3A0C3A0C3A0C3A0C3A0C3A0C3A0C3A15
:102B90000C3A0C3A0C3A0C422C422C422C424D423C
:102BA0004D424D426D4A6E4A6E4A8E4A8E4A8E4A58
:102BB0008E4A8E4A6E4A6D4A6D4A4D424D422C42B3
:102BC0002C420C420C420C3A0C3A0C3A0C3A0C3A9D
:102BD0000C3A0C3A0C3A0C3A0C3A0C3A0C3A0C3AC5
:102BE0000C3A0C3A0C3A0C3A0C3A0C3A0C3A0C3AB5
:102BF0000C3A0C3A0C3A0C3A0C3A0C3A0C3A0C3AA5
:102C00000C3A0C3A0C3A0C3A0C3A4D42AE524D4248
:102C10000C3A0C3A0C3A0C3A0C3A0C3A0C3A0C3A84
:102C20000C3A0C3A0C3A0C3A0C3A0C3A0C3A0C3A74
:102C30000C3A0C3A0C3A0C3A0C3A0C3A0C3A0C3A64
:102C40000C3A0C3A0C3A0C3A0C3A0C3A0C3A0C3A54
:102C50000C3A0C3A0C3A0C3A0C3A0C3A0C3A0C3A44
:102C60000C3A0C3A0C3A0C3A0C3A0C3A0C3A0C3A34
:102C70000C3A0C3A0C3AEB39CB39CB316E4AF05A5C
:102C8000105B105BF05A6D42EB390C3A2C422C422F
:102C90000C420C420C420C420C3A0C3A0C3A0C3AE4
:102CA0000C3A0C3A0C3A0C3A0C3A0C3A0C3A0C3AF4
:102CB0000C3A0C3A0C3A0C3A0C3A0C3A0C3A0C3AE4
:102CC0000C3A0C3A0C3A0C3A0C3A0C3A0C3A0C3AD4
:102CD0000C3A0C3A0C3A0C3A0C3A0C3A2D428E4A09
:102CE0008E4A2C420C3A0C3A0C3A0C3A0C3A0C3AFA
:102CF0000C3A0C3A0C3A0C3AEB39EB39CB31CB317C
:102D0000EB396D4AEF5A105B305B305B305B305B08
:102D1000305B305B305B705B000000000000000047
:102D200000000000000000000000000000000000A3
:102D30000000000000000000000000000000000093
:102D4000000000000000000000000D2A0C3A0C3AC0
:102D50000C3A0C3A0C3A0C3A0C3A0C3A0C3A0C3A43
:102D60000C3A0C3A0C3A0C3A0C3A0C3A0C3A0C3A33
:102D70000C3A0C3A0C3A0C3A0C3A0C3A0C3A0C3A23
:102D80000C3A0C3A0C3A0C3A0C3A0C3A0C3A0C3A13
:102D90000C3A0C3A0C3A0C3A0C3A0C3A0C3A0C3A03
:102DA0000C3A0C3A0C3A0C3A0C3A0C3A0C3A0C3AF3
:102DB0000C3A0C3A0C3A0C3A0C3A0C3A0C3A0C3AE3
:102DC0000C3A0C3A0C3A0C3A0C3A0C3A0C3A0C3AD3
:102DD0000C3A0C3A0C3A2C426D4A8E4A6D4A2C42FF
:102DE0000C3A0C3A0C3A0C3A0C3A0C3A0C3AEB39D5
:102DF000EB39CB39EB390C3A6D4ACF52105B305B73
:102E0000305B305BF05A8E4A2D42EB39CB31AB311F
:102E1000CB312D42EF5A305B105B305B305B305B67
:102E2000305B305B105B6D4AEB31CB31EB390C3AE8
:102E30000C3A0C3A0C3A0C3A0C3A0C3A0C3A0C3A62
:102E40000C3A0C3A0C3A0C3A0C3A0C3A0C3A0C3A52
:102E50000C3A0C3A0C3A0C3A0C3A0C3A0C3A0C3A42
:102E60000C3A0C3A2C422C424D426D4A6E4A8E4A24
:102E70008E4A8E4A8E4A8E4AAE528E4A6E4A6D4AAB
:102E80004D4A4D422C422C420C420C420C3A0C3A18
:102E90000C3A0C3A0C3A0C3A0C3A0C3A0C3A0C3A02
:102EA0000C3A0C3A0C3A0C3A0C3A0C3A0C3A0C3AF2
:102EB0000C3A0C3A0C3A0C3A0C3A0C3A0C3A0C3AE2
:102EC0000C3A0C3A0C3A4D42AE522C420C3A0C3AA7
:102ED0000C3A0C3A0C3A0C3A0C3A0C3A0C3A0C3AC2
:102EE0000C3A0C3A0C3A0C3A0C3A0C3A0C3A0C3AB2
:102EF0000C3A0C3A0C3A0C3A0C3A0C3A0C3A0C3AA2
:102F00000C3A0C3A0C3A0C3A0C3A0C3A0C3A0C3A91
:102F10000C3A0C3A0C3A0C3A0C3A0C3A0C3A0C3A81
:102F20000C3A0C3A0C3A0C3A0C3A0C3A0C3A0C3A71
:102F30000C3AEB39CB39CB316D4AF05A105B305B30
:102F4000105B6D420C3A8E4AAF52AE528E4A6D4AB9
:102F50004D4A4D422C422C420C420C3A0C3A0C3A4F
:102F60000C3A0C3A0C3A0C3A0C3A0C3A0C3A0C3A31
:102F70000C3A0C3A0C3A0C3A0C3A0C3A0C3A0C3A21
:102F80000C3A0C3A0C3A0C3A0C3A0C3A0C3A0C3A11
:102F90000C3A0C3A0C3A0C3A2C428E4A8E4A2C428D
:102FA0000C3A0C3A0C3A0C3A0C3A0C3A0C3A0C3AF1
:102FB0000C3A0C3AEB39EB39EB39CB31CB31EC39FC
:102FC0006E4AEF5A105B305B305B305B305B105BFE
:102FD000305B316B000000000000000000000000CA
:102FE00000000000000000000000000000000000E1
:102FF00000000000000000000000000000000000D1
:103000000000000000002B3A0C3A0C3A0C3A0C3A43
:103010000C3A0C3A0C3A0C3A0C3A0C3A0C3A0C3A80
:103020000C3A0C3A0C3A0C3A0C3A0C3A0C3A0C3A70
:103030000C3A0C3A0C3A0C3A0C3A0C3A0C3A0C3A60
:103040000C3A0C3A0C3A0C3A0C3A0C3A0C3A0C3A50
:103050000C3A0C3A0C3A0C3A0C3A0C3A0C3A0C3A40
:103060000C3A0C3A0C3A0C3A0C3A0C3A0C3A0C3A30
:103070000C3A0C3A0C3A0C3A0C3A0C3A0C3A0C3A20
:103080000C3A0C3A0C3A0C3A0C3A0C3A0C3A0C3A10
:103090000C424D428E4A6D4A2C420C3A0C3A0C3A84
:1030A0000C3A0C3A0C3A0C3A0C3AEB39EB39EB3956
:1030B000CB31CB31EB396D4ACF52105B305B305B9B
:1030C000105BF05ACF526D4A0C3ACB310C3A8E4A13
:1030D000105B305B305B305B305B305B305B105BD8
:1030E000CF522C42CB31CB31EB390C3A0C3A0C3A63
:1030F0000C3A0C3A0C3A0C3A0C3A0C3A0C3A0C3AA0
:103100000C3A0C3A0C3A0C3A0C3A0C3A0C3A0C3A8F
:103110000C3A0C3A0C3A0C3A0C3A0C3A0C3AEB39A1
:103120000C3A0C420C422C422C424D424D426D4A0C
:103130008E4AAE52CF52CF52CF52CF52AF52AE5232
:10314000AE528E4A8E4A6D4A6D4A4D424D422C42D5
:103150002C422C420C420C3A0C3A0C3A0C3A0C3AE7
:103160000C3A0C3A0C3A0C3A0C3A0C3A0C3A0C3A2F
:103170000C3A0C3A0C3A0C3A0C3A0C3A0C3A0C3A1F
:103180000C424D4AAE522C420C3A0C3A0C3A0C3AD4
:103190000C3A0C3A0C3A0C3A0C3A0C3A0C3A0C3AFF
:1031A0000C3A0C3A0C3A0C3A0C3A0C3A0C3A0C3AEF
:1031B0000C3A0C3A0C3A0C3A0C3A0C3A0C3A0C3ADF
:1031C0000C3A0C3A0C3A0C3A0C3A0C3A0C3A0C3ACF
:1031D0000C3A0C3A0C3A0C3A0C3A0C3A0C3A0C3ABF
:1031E0000C3A0C3A0C3A0C3A0C3A0C3A0C3AEB39D1
:1031F000CB39CB316D4AF05A105B305B105B4D42DE
:10320000EC396D4A8E4AAE52AE528E528E4A8E4A7A
:103210006D4A6D4A4D424D422C420C420C3A0C3ADA
:103220000C3A0C3A0C3A0C3A0C3A0C3A0C3A0C3A6E
:103230000C3A0C3A0C3A0C3A0C3A0C3A0C3A0C3A5E
:103240000C3A0C3A0C3A0C3A0C3A0C3A0C3A0C3A4E
:103250000C3A0C3A2C428E4AAE522C420C3A0C3AA2
:103260000C3A0C3A0C3A0C3A0C3A0C3A0C3A0C3A2E
:103270000C3AEB390C3AEB39CB31CB310C3A6E4A84
:10328000EF52105B305B305B305B305B105B105B90
:10329000AB5A000000000000000000000000000029
:1032A000000000000000000000000000000000001E
:1032B000000000000000000000000000000000000E
:1032C00000000B3A0C3A0C3A0C3A0C3A0C3A0C3A15
:1032D0000C3A0C3A0C3A0C3A0C3A0C3A0C3A0C3ABE
:1032E0000C3A0C3A0C3A0C3A0C3A0C3A0C3A0C3AAE
:1032F0000C3A0C3A0C3A0C3A0C3A0C3A0C3A0C3A9E
:103300000C3A0C3A0C3A0C3A0C3A0C3A0C3A0C3A8D
:103310000C3A0C3A0C3A0C3A0C3A0C3A0C3A0C3A7D
:103320000C3A0C3A0C3A0C3A0C3A0C3A0C3A0C3A6D
:103330000C3A0C3A0C3A0C3A0C3A0C3A0C3A0C3A5D
:103340000C3A0C3A0C3A0C3A0C3A0C3A2C426E4AB3
:103350006E4A2D420C420C3A0C3A0C3A0C3A0C3A9A
:103360000C3A0C3A0C3A0C3A0C3A0C3AEB39EB3971
:10337000CB31EB394D42AE52EF5A105B305B305BD4
:10338000105BCF526E4A2D426D4ACF52105B305BBC
:10339000305B305B305B305B105BF05A8E4AEB3950
:1033A000AB31EB390C3A0C3A0C3A0C3A0C3A0C3A79
:1033B0000C3A0C3A0C3A0C3A0C3A0C3A0C3A0C3ADD
:1033C0000C3A0C3A0C3A0C3A0C3A0C3A0C3A0C3ACD
:1033D0000C3A0C3A0C3A0C3A0C3A0C3AEB39EB3901
:1033E0000C3A0C3A0C3A0C3A0C3A0C3A0C3A0C3AAD
:1033F0002C422C424D426D4A6D4A8E4A8E52AE523C
:10340000AE52AE528E4A8E4A8E4A6D4A4D4A4D4257
:103410004D422C422C420C420C420C420C3A0C3ACB
:103420000C3A0C3A0C3A0C3A0C3A0C3A0C3A0C3A6C
:103430000C3A0C3A0C3A0C3A0C3A0C3A0C426D4AE3
:103440008E4A2C420C3A0C3A0C3A0C3A0C3A0C3A92
:103450000C3A0C3A0C3A0C3A0C3A0C3A0C3A0C3A3C
:103460000C3A0C3A0C3A0C3A0C3A0C3A0C3A0C3A2C
:103470000C3A0C3A0C3A0C3A0C3A0C3A0C3A0C3A1C
:103480000C3A0C3A0C3A0C3A0C3A0C3A0C3A0C3A0C
:103490000C3A0C3A0C3A0C3A0C3A0C3A0C3A0C3AFC
:1034A0000C3A0C3A0C3A0C3A0C3AEB39CB39EB3972
:1034B0006D4AF05A105B305B105B4D42CB310C3AD9
:1034C0002C424D424D426D4A6D4A6E4A6E4A8E4ABA
:1034D0006E4A6E4A6D4A6D4A4D424D424D422D42F2
:1034E0002C422C420C420C420C420C420C3A0C3A3C
:1034F0000C3A0C3A0C3A0C3A0C3A0C3A0C3A0C3A9C
:103500000C3A0C3A0C3A0C3A0C3A0C3A0C3A0C3A8B
:103510002C428E4AAE522C420B3A0C3A0C3A0C3AE0
:103520000C3A0C3A0C3A0C3A0C3A0C3A0C3A0C3A6B
:103530000C3A0C3AEB39CB31AB310C3A8E4AF05A9B
:10354000105B305B305B305B305B3063536B000093
:10355000000000000000000000000000000000006B
:10356000000000000000000000000000000000005B
:1035700000000000000000000000000008420C3ABB
:103580000C3A0C3A0C3A0C3A0C3A0C3A0C3A0C3A0B
:103590000C3A0C3A0C3A0C3A0C3A0C3A0C3A0C3AFB
:1035A0000C3A0C3A0C3A0C3A0C3A0C3A0C3A0C3AEB
:1035B0000C3A0C3A0C3A0C3A0C3A0C3A0C3A0C3ADB
:1035C0000C3A0C3A0C3A0C3A0C3A0C3A0C3A0C3ACB
:1035D0000C3A0C3A0C3A0C3A0C3A0C3A0C3A0C3ABB
:1035E0000C3A0C3A0C3A0C3A0C3A0C3A0C3A0C3AAB
:1035F0000C3A0C3A0C3A0C3A0C3A0C3A0C3A0C3A9B
:103600000C3A0C3A0C3A0C3A4D428E4A4D422C423E
:103610000C3A0C3A0C3A0C3A0C3A0C3A0C3A0C3A7A
:103620000C3A0C3A0C3A0C3A0C3AEB39EB39CB39F0
:10363000EB392C426D4ACF52105B105B105B105B74
:10364000EF5ACF52CF52105B105B305B305B305B78
:10365000305B305B105BCF522D42CB31CB31EB393D
:103660000C3A0C3A0C3A0C3A0C3A0C3A0C3A0C3A2A
:103670000C3A0C3A0C3A0C3A0C3A0C3A0C3A0C3A1A
:103680000C3A0C3A0C3A0C3A0C3A0C3A0C3A0C3A0A
:103690000C3A0C3A0C3A0C3A0C3A0C3A0C3A0C3AFA
:1036A0000C3A0C3A0C3A0C3A0C3A0C3AEB390C3A0C
:1036B0000C3A0C3A0C422C422C422C424D424D42C8
:1036C0004D4A6D4A6D4A6D4A6D4A6E4A6D4A6D4A61
:1036D0006D4A4D4A4D424D424D422D422C422C42A4
:1036E0002C422C420C420C420C420C3A0C3A0C3A42
:1036F0000C3A0C3A0C3A0C3A2C426D4A8E4A2C4247
:103700000C3A0C3A0C3A0C3A0C3A0C3A0C3A0C3A89
:103710000C3A0C3A0C3A0C3A0C3A0C3A0C3A0C3A79
:103720000C3A0C3A0C3A0C3A0C3A0C3A0C3A0C3A69
:103730000C3A0C3A0C3A0C3A0C3A0C3A0C3A0C3A59
:103740000C3A0C3A0C3A0C3A0C3A0C3A0C3A0C3A49
:103750000C3A0C3A0C3A0C3A0C3A0C3A0C3A0C3A39
:103760000C3A0C3A0C3AEB39CB39EB396D4AEF5A3B
:10377000105B305BF05A4D42CB31EB390C3A0C42C6
:103780000C420C422C422D424D424D4A6D4A6E4A2B
:103790008E4A8E4A8E4A6E4A6E4A6E4A6E4A6D4A0A
:1037A0006D4A6D4A4D424D424D422C422C422C42B4
:1037B0002C420C420C3A0C3A0C3A0C3A0C3A0C3AA9
:1037C0000C3A0C3A0C3A0C3A0C3AEB392C428E4A31
:1037D000AE522C420C3AEB390C3A0C3A0C3A0C3AF9
:1037E0000C3A0C3A0C3A0C3A0C3A0C3A0C3A0C3AA9
:1037F0000C3AEB39CB31CB31EC398E52EF5A105BAE
:10380000305B305B305B3063B16300000000000070
:1038100000000000000000000000000000000000A8
:103820000000000000000000000000000000000098
:103830000000000000000000EC310C3A0C3A0C3A99
:103840000C3A0C3A0C3A0C3A0C3A0C3A0C3A0C3A48
:103850000C3A0C3A0C3A0C3A0C3A0C3A0C3A0C3A38
:103860000C3A0C3A0C3A0C3A0C3A0C3A0C3A0C3A28
:103870000C3A0C3A0C3A0C3A0C3A0C3A0C3A0C3A18
:103880000C3A0C3A0C3A0C3A0C3A0C3A0C3A0C3A08
:103890000C3A0C3A0C3A0C3A0C3A0C3A0C3A0C3AF8
:1038A0000C3A0C3A0C3A0C3A0C3A0C3A0C3A0C3AE8
:1038B0000C3A0C3A0C3A0C3A0C3A0C3A0C3A0C3AD8
:1038C0000C3A0B3A2C422D422C420C3A0C3A0C3A50
:1038D0000C3A0C3A0C3A0C3A0C3A0C3A0C3A0C3AB8
:1038E0000C3A0C3A0C3A0C3AEB39EB39EB39CB3158
:1038F000EC394D42AF52105B105B105B105B105BFC
:10390000105B105B105B305B305B305B305B105BDF
:10391000F05A8E4AEC39AB31CB39EB390C3A0C3AD0
:103920000C3A0C3A0C3A0C3A0C3A0C3A0C3A0C3A67
:103930000C3A0C3A0C3A0C3A0C3A0C3A0C3A0C3A57
:103940000C3A0C3A0C3A0C3A0C3A0C3A0C3A0C3A47
:103950000C3A0C3A0C3A0C3A0C3A0C3A0C3A0C3A37
:103960000C3A0C3A0C3A0C3A0C3A0C3A0C3A0C3A27
:103970000C3A0C3A0C3A0C3A0C3A0C420C422C42DF
:103980002C422C424D424D4A6D4A6D4A6E4A8E4A37
:103990008E4A8E4A8E4A8E4A6E4A6E4A6D4A6D4AE9
:1039A0004D4A4D4A4D422D422C422C422C422C4233
:1039B0000C420C422C426D4A6E4A2C420C3A0C3A94
:1039C0000C3A0C3A0C3A0C3A0C3A0C3A0C3A0C3AC7
:1039D0000C3A0C3A0C3A0C3A0C3A0C3A0C3A0C3AB7
:1039E0000C3A0C3A0C3A0C3A0C3A0C3A0C3A0C3AA7
:1039F0000C3A0C3A0C3A0C3A0C3A0C3A0C3A0C3A97
:103A00000C3A0C3A0C3A0C3A0C3A0C3A0C3A0C3A86
:103A10000C3A0C3A0C3A0C3A0C3A0C3A0C3A0C3A76
:103A20000C3AEB39EB39EB394D42CF52105B305B3E
:103A3000F05A4D42CB39EB39EB390C3A0C3A0C3A8F
:103A40000C3A0C3A0C3A0C3A0C420C422C422C42E6
:103A50002C424D424D424D424D4A6D4A6D4A6D4A8F
:103A60006D4A6D4A6D4A6D4A6D4A6D4A4D424D42EE
:103A70002D422C422C420C420C420C420C420C3A7D
:103A80000C3A0C3A0C3AEB390C426E4AAE522C42CC
:103A90000C3AEB390C3A0C3A0C3A0C3A0C3A0C3A18
:103AA0000C3A0C3A0C3A0C3A0C3A0C3A0C3A0C3AE6
:103AB000EB39CB31CB310C428E4AEF5A105B305B85
:103AC000305B305B5063000000000000000000002D
:103AD00000000000000000000000000000000000E6
:103AE00000000000000000000000000000000000D6
:103AF00000001000EB390C3A0C3A0C3A0C3A0C3A34
:103B00000C3A0C3A0C3A0C3A0C3A0C3A0C3A0C3A85
:103B10000C3A0C3A0C3A0C3A0C3A0C3A0C3A0C3A75
:103B20000C3A0C3A0C3A0C3A0C3A0C3A0C3A0C3A65
:103B30000C3A0C3A0C3A0C3A0C3A0C3A0C3A0C3A55
:103B40000C3A0C3A0C3A0C3A0C3A0C3A0C3A0C3A45
:103B50000C3A0C3A0C3A0C3A0C3A0C3A0C3A0C3A35
:103B60000C3A0C3A0C3A0C3A0C3A0C3A0C3A0C3A25
:103B70000C3A0C3A0C3A0C3A0C3A0C3A0C3A0C3A15
:103B80000C3A0C3A0C3A0C3A0C3A0C3A0C3A0C3A05
:103B90000C3A0C3A0C3A0C3A0C3A0C3A0C3A0C3AF5
:103BA0000C3A0C3A0C3AEB39EB39EB39CB31EB39B7
:103BB0004D42AE52EF5A105B105B305B305B305BB6
:103BC000305B305B305B305B305B105BCF522D4243
:103BD000CB31AB31EB390C3A0C3A0C3A0C3A0C3A8B
:103BE0000C3A0C3A0C3A0C3A0C3A0C3A0C3A0C3AA5
:103BF0000C3A0C3A0C3A0C3A0C3A0C3A0C3A0C3A95
:103C00000C3A0C3A0C3A0C3A0C3A0C3A0C3A0C3A84
:103C10000C3A0C3A0C3A0C3A0C3A0C3A0C3A0C3A74
:103C20000C3A0C3A0C3A0C3A0C3A0C3A0C3A0C3A64
:103C30000C3A0C3A0C3A0C3A0C3A0C3A0C3A0C3A54
:103C40000C420C422C422C422C422C422C422D4243
:103C50004D424D424D426D426D4A6D4A6D4A6E4A2B
:103C60006D4A6D4A6D4A6D4A6D4A4D424D424D4214
:103C70004D428E4A6E4A2C420C3A0C3A0C3A0C3A9F
:103C80000C3A0C3A0C3A0C3A0C3A0C3A0C3A0C3A04
:103C90000C3A0C3A0C3A0C3A0C3A0C3A0C3A0C3AF4
:103CA0000C3A0C3A0C3A0C3A0C3A0C3A0C3A0C3AE4
:103CB0000C3A0C3A0C3A0C3A0C3A0C3A0C3A0C3AD4
:103CC0000C3A0C3A0C3A0C3A0C3A0C3A0C3A0C3AC4
:103CD0000C3A0C3A0C3A0C3A0C3A0C3A0C3A0C3AB4
:103CE000EB39EB394D42CF52105B305BEF5A4D420E
:103CF000EB39EB39EB390C3A0C3A0C3A0C3A0C3AFA
:103D00000C3A0C3A0C3A0C3A0C3A0C3A0C3A0C3A83
:103D10000C420C420C420C422C422C424D424D4A69
:103D20006D4A6E4A8E4A8E4A8E4AAE52AE4A8E4ACC
:103D30008E4A6D4A4D4A4D424D422C422C420C4215
:103D40000C420C3A0C426E4AAE522D420C3AEB3900
:103D50000C3A0C3A0C3A0C3A0C3A0C3A0C3A0C3A33
:103D60000C3A0C3A0C3A0C3A0C3A0C3A0C3AEB3945
:103D7000CB31CB310C3A8E4AF05A105B305B305B62
:103D800030630000000000000000000000000000A0
:103D90000000000000000000000000000000000023
:103DA0000000000000000000000000000000AD3135
:103DB000EC390C3A0C3A0C3A0C3A0C3A0C3A0C3AF4
:103DC0000C3A0C3A0C3A0C3A0C3A0C3A0C3A0C3AC3
:103DD0000C3A0C3A0C3A0C3A0C3A0C3A0C3A0C3AB3
:103DE0000C3A0C3A0C3A0C3A0C3A0C3A0C3A0C3AA3
:103DF0000C3A0C3A0C3A0C3A0C3A0C3A0C3A0C3A93
:103E00000C3A0C3A0C3A0C3A0C3A0C3A0C3A0C3A82
:103E10000C3A0C3A0C3A0C3A0C3A0C3A0C3A0C3A72
:103E20000C3A0C3A0C3A0C3A0C3A0C3A0C3A0C3A62
:103E30000C3A0C3A0C3A0C3A0C3A0C3A0C3A0C3A52
:103E40000C3A0C3A0C3A0C3A0C3A0C3A0C3A0C3A42
:103E50000C3A0C3A0C3A0C3A0C3A0C3A0C3A0C3A32
:103E60000C3A0C3A0C3AEB39EB39CB31EB392C42AA
:103E70006E4ACF52105B305B305B305B305B305B47
:103E8000305B305B305B105BAE520C3AAB31CB3108
:103E9000EB390C3A0C3A0C3A0C3A0C3A0C3A0C3A14
:103EA0000C3A0C3A0C3A0C3A0C3A0C3A0C3A0C3AE2
:103EB0000C3A0C3A0C3A0C3A0C3A0C3A0C3A0C3AD2
:103EC0000C3A0C3A0C3A0C3A0C3A0C3A0C3A0C3AC2
:103ED0000C3A0C3A0C3A0C3A0C3A0C3A0C3A0C3AB2
:103EE0000C3A0C3A0C3A0C3A0C3A0C3A0C3A0C3AA2
:103EF0000C3A0C3A0C3A0C3A0C3A0C3A0C3A0C3A92
:103F00000C3A0C3A0C3A0C3A0C3A0C3A0C420C4271
:103F10000C420C422C422C422C424D426D4A6D4ABE
:103F20006E4A8E4A8E4A8E4A8E4A8E4AAE52CF5280
:103F3000AE526D4A4D424D422C422C422C422C42F4
:103F40000C420C420C3A0C3A0C3A0C3A0C3A0C3A31
:103F50000C3A0C3A0C3A0C3A0C3A0C3A0C3A0C3A31
:103F60000C3A0C3A0C3A0C3A0C3A0C3A0C3A0C3A21
:103F70000C3A0C3A0C3A0C3A0C3A0C3A0C3A0C3A11
:103F80000C3A0C3A0C3A0C3A0C3A0C3A0C3A0C3A01
:103F90000C3A0C3A0C3A0C3A0C3A0C3AEB39EB3935
:103FA0004D42CF52105B305BEF524D42EB39EB3953
:103FB000EC390C3A0C3A0C3A0C3A0C3A0C3A0C3AF2
:103FC0000C3A0C3A0C3A0C3A0C3A0C3A0C3A0C3AC1
:103FD0000C3A0C3A0C3A0C3A0C420C422C422D4250
:103FE0004D424D426D4A6E4A8E4AAE52AE52AE526C
:103FF000AE528E528E4A8E4A6D4A4D4A4D422C42E6
:104000002C428E4AAE4A4D420C3A0C3A0C3A0C3ACB
:104010000C3A0C3A0C3A0C3A0C3A0C3A0C3A0C3A70
:104020000C3A0C3A0C3A0C3A0C3AEB39EB39CB31EE
:10403000CB312C42AE52105B105B305B305B108496
:104040000000000000000000000000000000000070
:104050000000000000000000000000000000000060
:1040600000000000000000000000EC410C3A0C3A97
:104070000C3A0C3A0C3A0C3A0C3A0C3A0C3A0C3A10
:104080000C3A0C3A0C3A0C3A0C3A0C3A0C3A0C3A00
:104090000C3A0C3A0C3A0C3A0C3A0C3A0C3A0C3AF0
:1040A0000C3A0C3A0C3A0C3A0C3A0C3A0C3A0C3AE0
:1040B0000C3A0C3A0C3A0C3A0C3A0C3A0C3A0C3AD0
:1040C0000C3A0C3A0C3A0C3A0C3A0C3A0C3A0C3AC0
:1040D0000C3A0C3A0C3A0C3A0C3A0C3A0C3A0C3AB0
:1040E0000C3A0C3A0C3A0C3A0C3A0C3A0C3A0C3AA0
:1040F0000C3A0C3A0C3A0C3A0C3A0C3A0C3A0C3A90
:104100000C3A0C3A0C3A0C3A0C3A0C3A0C3A0C3A7F
:104110000C3A0C3A0C3A0C3A0C3A0C3A0C3A0C3A6F
:104120000C3A0C3AEB39EB39CB39CB310C3A6E4ABD
:10413000EF5A105B305B305B305B305B305B305B89
:10414000305BEF5A6D4AEB31CB31EB390C3A0C3A1C
:104150000C3A0C3A0C3A0C3A0C3A0C3A0C3A0C3A2F
:104160000C3A0C3A0C3A0C3A0C3A0C3A0C3A0C3A1F
:104170000C3A0C3A0C3A0C3A0C3A0C3A0C3A0C3A0F
:104180000C3A0C3A0C3A0C3A0C3A0C3A0C3A0C3AFF
:104190000C3A0C3A0C3A0C3A0C3A0C3A0C3A0C3AEF
:1041A0000C3A0C3A0C3A0C3A0C3A0C3A0C3A0C3ADF
:1041B0000C3A0C3A0C3A0C3A0C3A0C3A0C3A0C3ACF
:1041C0000C3A0C3A0C3A0C3A0C3A0C3A0C3A0C3ABF
:1041D0000C3A0C3A0C3A0C420C422C422D424D4205
:1041E0004D426D4A8E4AAE52CF52CF5ACF5ACF521D
:1041F000AF52AE52AE528E4A6E4A6D4A6D4A4D4231
:104200002C422C420C420C420C3A0C3A0C3A0C3A1E
:104210000C3A0C3A0C3A0C3A0C3A0C3A0C3A0C3A6E
:104220000C3A0C3A0C3A0C3A0C3A0C3A0C3A0C3A5E
:104230000C3A0C3A0C3A0C3A0C3A0C3A0C3A0C3A4E
:104240000C3A0C3A0C3A0C3A0C3A0C3A0C3A0C3A3E
:104250000C3A0C3A0C3A0C3AEB39CB392D42CF528E
:10426000105B305BEF5A4D42EB39CB39EC390C3AED
:104270000C3A0C3A0C3A0C3A0C3A0C3A0C3A0C3A0E
:104280000C3A0C3A0C3A0C3A0C3A0C3A0C3A0C3AFE
:104290000C3A0C3A0C3A0C3A0C3A0C3A0C3A0C3AEE
:1042A0000C3A0C3A0C422C424D424D4A6D4A6E4A31
:1042B0008E4A8E4A8E4A8E4A6E4A6E4A6E4AAE5276
:1042C000AE526D4A2C422C422C420C420C420C4203
:1042D0000C3A0C3A0C3A0C3A0C3A0C3A0C3A0C3AAE
:1042E0000C3A0C3A0C3A0C3AEB39CB39CB31CB3196
:1042F0002D42AE52105B105B105BB25A0000000002
:1043000000000000000000000000000000000000AD
:10431000000000000000000000000000000000009D
:10432000000000000000EC410C3A0C3A0C3A0C3A48
:104330000C3A0C3A0C3A0C3A0C3A0C3A0C3A0C3A4D
:104340000C3A0C3A0C3A0C3A0C3A0C3A0C3A0C3A3D
:104350000C3A0C3A0C3A0C3A0C3A0C3A0C3A0C3A2D
:104360000C3A0C3A0C3A0C3A0C3A0C3A0C3A0C3A1D
:104370000C3A0C3A0C3A0C3A0C3A0C3A0C3A0C3A0D
:104380000C3A0C3A0C3A0C3A0C3A0C3A0C3A0C3AFD
:104390000C3A0C3A0C3A0C3A0C3A0C3A0C3A0C3AED
:1043A0000C3A0C3A0C3A0C3A0C3A0C3A0C3A0C3ADD
:1043B0000C3A0C3A0C3A0C3A0C3A0C3A0C3A0C3ACD
:1043C0000C3A0C3A0C3A0C3A0C3A0C3A0C3A0C3ABD
:1043D0000C3A0C3A0C3A0C3A0C3A0C3A0C3A0C3AAD
:1043E0000C3A0C3AEB39CB31CB312C42AF52105B4B
:1043F000305B305B305B305B305B305B105BCF52EF
:104400002C42AB31CB310C3A0C3A0C3A0C3A0C3A08
:104410000C3A0C3A0C3A0C3A0C3A0C3A0C3A0C3A6C
:104420000C3A0C3A0C3A0C3A0C3A0C3A0C3A0C3A5C
:104430000C3A0C3A0C3A0C3A0C3A0C3A0C3A0C3A4C
:104440000C3A0C3A0C3A0C3A0C3A0C3A0C3A0C3A3C
:104450000C3A0C3A0C3A0C3A0C3A0C3A0C3A0C3A2C
:104460000C3A0C3A0C3A0C3A0C3A0C3A0C3A0C3A1C
:104470000C3A0C3A0C3A0C3A0C3A0C3A0C3A0C3A0C
:104480000C3A0C3A0C3A0C3A0C3A0C3A0C3A0C3AFC
:10449000EB39EB39EB39EB390C3A0C3A0C3A0C3A74
:1044A0000C422D426D4A8E4A6E4A6D4A6D4A8E4AC2
:1044B0008E4A8E4AAE52AE52CE52AE526D4A4D4ADE
:1044C0004D424D422C422C420C420C420C420C42BA
:1044D0000C3A0C3A0C3A0C3A0C3A0C3A0C3A0C3AAC
:1044E0000C3A0C3A0C3A0C3A0C3A0C3A0C3A0C3A9C
:1044F0000C3A0C3A0C3A0C3A0C3A0C3A0C3A0C3A8C
:104500000C3A0C3A0C3A0C3A0C3A0C3A0C3A0C3A7B
:104510000C3AEC39CB39CB312C42CF52105B305BAB
:10452000EF5A4D42EB39CB39EC390C3A0C3A0C3A94
:104530000C3A0C3A0C3A0C3A0C3A0C3A0C3A0C3A4B
:104540000C3A0C3A0C3A0C3A0C3A0C3A0C3A0C3A3B
:104550000C3A0C3A0C3A0C3A0C3A0C3A0C3A0B3A2C
:10456000EB39EB390C3A0C420C422C424D424D4A8D
:104570006D4A6E4A8E52AE52AF52CF52CF52AF52A8
:104580008E4A6E4A6E4A6D4A4D4A4D424C422C420A
:104590002C422C420C420C420C420C3A0C3A0C3A83
:1045A0000C3AEB390C3AEB39CB39CB31CB312D42CC
:1045B000AF52F05A105B30630000000000000000B2
:1045C00000000000000000000000000000000000EB
:1045D00000000000000000000000000000000000DB
:1045E0004C4A0C420C3A0C3A0C3A0C3A0C3A0C3A43
:1045F0000C3A0C3A0C3A0C3A0C3A0C3A0C3A0C3A8B
:104600000C3A0C3A0C3A0C3A0C3A0C3A0C3A0C3A7A
:104610000C3A0C3A0C3A0C3A0C3A0C3A0C3A0C3A6A
:104620000C3A0C3A0C3A0C3A0C3A0C3A0C3A0C3A5A
:104630000C3A0C3A0C3A0C3A0C3A0C3A0C3A0C3A4A
:104640000C3A0C3A0C3A0C3A0C3A0C3A0C3A0C3A3A
:104650000C3A0C3A0C3A0C3A0C3A0C3A0C3A0C3A2A
:104660000C3A0C3A0C3A0C3A0C3A0C3A0C3A0C3A1A
:104670000C3A0C3A0C3A0C3A0C3A0C3A0C3A0C3A0A
:104680000C3A0C3A0C3A0C3A0C3A0C3A0C3A0C3AFA
:104690000C3A0C3A0C3A0C3A0C3A0C3A0C3A0C3AEA
:1046A000EB39CB31CB314D42EF5A105B305B305B95
:1046B000305B305B305B305B105BAF522C42CB31F8
:1046C000CB31EB390C3A0C3A0C3A0C3A0C3A0C3A26
:1046D0000C3A0C3A0C3A0C3A0C3A0C3A0C3A0C3AAA
:1046E0000C3A0C3A0C3A0C3A0C3A0C3A0C3A0C3A9A
:1046F0000C3A0C3A0C3A0C3A0C3A0C3A0C3A0C3A8A
:104700000C3A0C3A0C3A0C3A0C3A0C3A0C3A0C3A79
:104710000C3A0C3A0C3A0C3A0C3A0C3A0C3A0C3A69
:104720000C3A0C3A0C3A0C3A0C3A0C3A0C3A0C3A59
:104730000C3A0C3A0C3A0C3A0C3A0C3A0C3A0C3A49
:104740000C3A0C3A0C3A0C3A0C3A0C3A0C3A0C3A39
:104750000C3A0C3A0C3A0C3A0C3A0C3A0C3A2C4201
:104760006D4A6D4A2D420C422C422C422D424D4244
:104770006D4A8E4ACE52CF528E52AE52AE52AE5289
:10478000AE528E4A6E4A6D4A4D422D422C422C4208
:104790002C422C420C420C420C3A0C3A0C3A0C3A89
:1047A0000C3A0C3A0C3A0C3A0C3A0C3A0C3A0C3AD9
:1047B0000C3A0C3A0C3A0C3A0C3A0C3A0C3A0C3AC9
:1047C0000C3A0C3A0C3A0C3A0C3A0C3A0C3A0C3AB9
:1047D000EB39CB312C42EF52105B305BEF5A6D4A14
:1047E000EB31CB31EC390C3A0C3A0C3A0C3A0C3A2E
:1047F0000C3A0C3A0C3A0C3A0C3A0C3A0C3A0C3A89
:104800000C3A0C3A0C3A0C3A0C3A0C3A0C3A0C3A78
:104810000C3A0C3A0C3A0C3A0C3A0C3A0C3AEB398A
:10482000EB39EB390C3A0C3A0C3A0C3A0C3A0C3A9C
:104830000C420C424D428E4AAE528E4A8E4A8E4AED
:104840008E4A8E4A8E4A8E4A6D4A6D4A4D424D427C
:104850004D422D422C422C422C422C420C3A0C3A16
:104860000C3A0C3AEB39CB31AB31EB314D42CF52F4
:10487000105B30630000000000000000000000003A
:104880000000000000000000000000000000000028
:104890000000000000000000000000004E4A4D42F1
:1048A0002C420C3A0C3A0C3A0C3A0C3A0C3A0C3AB0
:1048B0000C3A0C3A0C3A0C3A0C3A0C3A0C3A0C3AC8
:1048C0000C3A0C3A0C3A0C3A0C3A0C3A0C3A0C3AB8
:1048D0000C3A0C3A0C3A0C3A0C3A0C3A0C3A0C3AA8
:1048E0000C3A0C3A0C3A0C3A0C3A0C3A0C3A0C3A98
:1048F0000C3A0C3A0C3A0C3A0C3A0C3A0C3A0C3A88
:104900000C3A0C3A0C3A0C3A0C3A0C3A0C3A0C3A77
:104910000C3A0C3A0C3A0C3A0C3A0C3A0C3A0C3A67
:104920000C3A0C3A0C3A0C3A0C3A0C3A0C3A0C3A57
:104930000C3A0C3A0C3A0C3A0C3A0C3A0C3A0C3A47
:104940000C3A0C420C420C420C3A0C3A0C3A0C3A1F
:104950000C3A0C3A0C3A0C3A0C3A0C3ACB39CB31B3
:104960000C3AAE52105B105B305B305B305B305BFF
:10497000305B305B105BF05AAE524D42EC39CB31BC
:10498000EB39EB390C3A0C3A0C3A0C3A0C3A0C3A3B
:104990000C3A0C3A0C3A0C3A0C3A0C3A0C3A0C3AE7
:1049A0000C3A0C3A0C3A0C3A0C3A0C3A0C3A0C3AD7
:1049B0000C3A0C3A0C3A0C3A0C3A0C3A0C3A0C3AC7
:1049C0000C3A0C3A0C3A0C3A0C3A0C3A0C3A0C3AB7
:1049D0000C3A0C3A0C3A0C3A0C3A0C3A0C3A0C3AA7
:1049E0000C3A0C3A0C3A0C3A0C3A0C3A0C3A0C3A97
:1049F0000C3A0C3A0C3A0C3A0C3A0C3A0C3A0C3A87
:104A00000C3A0C3A0C3A0C3A0C3A0C3A0C3A0C3A76
:104A10000C3A0C3A0C3A0C3A0C3A2D426D4A6D4A5B
:104A20002C420C3A0C3A0C3A0C3A0C3A2C424D4AB5
:104A30008E4A8E4A4D424D426D4AAE4ACF52AE52D8
:104A40008E4A8E4A8E528E4A8E4A8E4A8E4A6E4ABE
:104A50006D4A4D4A4D424C422C422C422C422C4233
:104A60000C420C420C3A0C3A0C3A0C3A0C3A0C3A06
:104A70000C3A0C3A0C3A0C3A0C3A0C3A0C3A0C3A06
:104A80000C3A0C3A0C3A0C3A0C3A0C3AEB39CB3162
:104A90002C42EF52105B305BEF5A6D4ACB31CB3179
:104AA000EB390C3A0C3A0C3A0C3A0C3A0C3A0C3AF8
:104AB0000C3A0C3A0C3A0C3A0C3A0C3A0C3A0C3AC6
:104AC0000C3A0C3A0C3A0C3A0C3A0C3A0C3A0C3AB6
:104AD0000C3A0C3A0C3A0C3A0C3A0C3A0C3A0C3AA6
:104AE0000C3A0C3A0C3A0C3A0C3AEB39EB39EB39FC
:104AF0000C424D4A6E4A4D4A2C422C422C422D42C9
:104B00004D424D424D426D4A6D4A6D4A6D4A6D4A65
:104B10006D4A6E4A6D4A4D4A4D422D422C422C42FE
:104B20000C420C3AEB39CB31EB394D42CF52105B92
:104B3000705B0000000000000000000000000000AA
:104B40000000000000000000000000000000000065
:104B500000000000000000008E4A8E4A6D4A2C4280
:104B60000C3A0C3A0C3A0C3A0C3A0C3A0C3A0C3A15
:104B7000EC390C3A0C3A0C3A0C3A0C3A0C3A0C3A26
:104B80000C3A0C3A0C3A0C3A0C3A0C3A0C3A0C3AF5
:104B90000C3A0C3A0C3A0C3A0C3A0C3A0C3A0C3AE5
:104BA0000C3A0C3A0C3A0C3A0C3A0C3A0C3A0C3AD5
:104BB0000C3A0C3A0C3A0C3A0C3A0C3A0C3A0C3AC5
:104BC0000C3A0C3A0C3A0C3A0C3A0C3A0C3A0C3AB5
:104BD0000C3A0C3A0C3A0C3A0C3A0C3A0C3A0C3AA5
:104BE0000C3A0C3A0C3A0C3A0C3A0C3A0C3A0C3A95
:104BF0000C3A0C3A0C3A0C3A0C3A0C3A0C3A2C425D
:104C00004D422C420C420C3A0C3A0C3A0C3A0C3AFB
:104C10000C3A0C3A0C3AEB39CB31CB314D42CF52F6
:104C2000105B305B305B305B305B305B305B305B4C
:104C3000105B305B105BCF526D4A0C3AEB39CB39CD
:104C4000EB390C3A0C3A0C3A0C3A0C3A0C3A0C3A56
:104C50000C3A0C3A0C3A0C3A0C3A0C3A0C3A0C3A24
:104C60000C3A0C3A0C3A0C3A0C3A0C3A0C3A0C3A14
:104C70000C3A0C3A0C3A0C3A0C3A0C3A0C3A0C3A04
:104C80000C3A0C3A0C3A0C3A0C3A0C3A0C3A0C3AF4
:104C90000C3A0C3A0C3A0C3A0C3A0C3A0C3A0C3AE4
:104CA0000C3A0C3A0C3A0C3A0C3A0C3A0C3A0C3AD4
:104CB0000C3A0C3A0C3A0C3A0C3A0C3A0C3A0C3AC4
:104CC0000C3A0C3A0C3A0C3A0C3A0C3A0C3A0C3AB4
:104CD0000C3A0C3A0C3A4D428E4A6D4A2C420C3A30
:104CE0000C3A0C3A0C3A0C3A0C424D426E4A4D4288
:104CF000EB39EC390C426D4AAE524D4A4D422D42D1
:104D00004D424D424D424D426D4A8E4A8E528E4A20
:104D10006D4A6D4A6D4A6D4A4D424D424D424D427B
:104D20002C422C422C420C420C420C420C3A0C3AC3
:104D30000C3A0C3A0C3A0C3A0C3A0C3A0C3A0C3A43
:104D40000C3A0C3A0C3A0C3AEB39CB312C42CF529C
:104D5000105B305BF05A6E4ACB31CB310C3A0C3AD7
:104D60000C3A0C3A0C3A0C3A0C3A0C3A0C3A0C3A13
:104D70000C3A0C3A0C3A0C3A0C3A0C3A0C3A0C3A03
:104D80000C3A0C3A0C3A0C3A0C3A0C3A0C3A0C3AF3
:104D90000C3A0C3A0C3A0C3A0C3A0C3A0C3A0C3AE3
:104DA0000C3A0C3A0C3A0C3A0C3AEB390C424D42A4
:104DB0006D4A4D4A2C420C420C420C420C3A0C42B9
:104DC0000C422C422D424D424D4A6D4A6E4A8E4A4B
:104DD000AE52AE52AE52AE528E528E4A6E4A4D4ACC
:104DE0002D42EB39CB31EC396D4ACF52B05A00002D
:104DF00000000000000000000000000000000000B3
:104E000000000000000000000000000000000000A2
:104E1000000000004D4A8E4AAE4A6D4A2C420C42B8
:104E20000C3A0C3A0C3A0C3A0C3A0C3A0C3AEC3973
:104E30000C3A0C3A0C3A0C3A0C3A0C3A0C3A0C3A42
:104E40000C3A0C3A0C3A0C3A0C3A0C3A0C3A0C3A32
:104E50000C3A0C3A0C3A0C3A0C3A0C3A0C3A0C3A22
:104E60000C3A0C3A0C3A0C3A0C3A0C3A0C3A0C3A12
:104E70000C3A0C3A0C3A0C3A0C3A0C3A0C3A0C3A02
:104E80000C3A0C3A0C3A0C3A0C3A0C3A0C3A0C3AF2
:104E90000C3A0C3A0C3A0C3A0C3A0C3A0C3A0C3AE2
:104EA0000C3A0C3A0C3A0C3A0C3A0C3A0C3A0C3AD2
:104EB0000C3A0C3A0C3A0C3A0C424D428E4A6D4A6E
:104EC0002C420C420C3A0C3A0C3A0C3A0C3A0C3A82
:104ED0000C3AEB39CB31EC396E4AEF5A105B305B50
:104EE000305B305B305B305B105B105B105B105BEA
:104EF000105B105BEF5AAE4A2C42EB39CB31EB39E9
:104F00000C3A0C3A0C3A0C3A0C3A0C3A0C3A0C3A71
:104F10000C3A0C3A0C3A0C3A0C3A0C3A0C3A0C3A61
:104F20000C3A0C3A0C3A0C3A0C3A0C3A0C3A0C3A51
:104F30000C3A0C3A0C3A0C3A0C3A0C3A0C3A0C3A41
:104F40000C3A0C3A0C3A0C3A0C3A0C3A0C3A0C3A31
:104F50000C3A0C3A0C3A0C3A0C3A0C3A0C3A0C3A21
:104F60000C3A0C3A0C3A0C3A0C3A0C3A0C3A0C3A11
:104F70000C3A0C3A0C3A0C3A0C3A0C3A0C3A0C3A01
:104F80000C3A0C3A0C3A0C3A0C3A0C3A0C3A0C3AF1
:104F90000C3A4D428E4A4D4A2C420C3A0C3A0C3A8D
:104FA0000C3A0C3A2C426D4A6D4A2C42EB390C3AC1
:104FB0002C426D4A8E4A2C420C3A0C420C420C4256
:104FC0000C420C422C426D4A8E526E4A4D424D4A62
:104FD0006D4A6D4A6E4A8E4A8E4A8E4A8E4A8E4A73
:104FE0006D4A6D4A4D4A4D422C422C422C422C4275
:104FF0002C420C420C420C420C420C3A0C3A0C3A39
:105000000C3A0C3AEB39CB312C42CF52105B305B6F
:10501000105B8E4ACB31CB310C3A0C3A0C3A0C3A3D
:105020000C3A0C3A0C3A0C3A0C3A0C3A0C3A0C3A50
:105030000C3A0C3A0C3A0C3A0C3A0C3A0C3A0C3A40
:105040000C3A0C3A0C3A0C3A0C3A0C3A0C3A0C3A30
:105050000C3A0C3A0C3A0C3A0C3A0C3A0C3A0C3A20
:105060000C3A0C3A0C3A0C3A0C424D428E4A4D4ADC
:105070000C420C3A0C3A0C3A0C3A0C3A0C3A0C3AF8
:105080000C3A0C3A0C422C422C422C422C424D42FF
:105090004D4A6D4A8E4A8E4A8E4A8E4A6D4A2C423D
:1050A000CB39CB31EB394D428E4A1F000000000056
:1050B00000000000000000000000000000000000F0
:1050C00000000000000000000000000000000000E0
:1050D0000C3A2C426D4A8E4A6D4A2C420C420C3AD4
:1050E0000C3A0C3A0C3A0C3A0C3A0C3AEC390C3AB1
:1050F0000C3A0C3A0C3A0C3A0C3A0C3A0C3A0C3A80
:105100000C3A0C3A0C3A0C3A0C3A0C3A0C3A0C3A6F
:105110000C3A0C3A0C3A0C3A0C3A0C3A0C3A0C3A5F
:105120000C3A0C3A0C3A0C3A0C3A0C3A0C3A0C3A4F
:105130000C3AEC390C3A0C3A0C3A0C3A0C3A0C3A60
:105140000C3A0C3A0C3A0C3A0C3A0C3A0C3A0C3A2F
:105150000C3A0C3A0C3A0C3A0C3A0C3A0C3A0C3A1F
:105160000C3A0C3A0C3A0C3A0C3A0C3A0C3A0C3A0F
:105170000C3A0C3A0C422C426D4A8E4A6D4A2C4233
:105180000C420C3A0C3A0C3A0C3A0C3AEB39CB3153
:10519000CB312C42AF52105B305B305B305B305B0D
:1051A000305B305B105BCF52CF52105B105B305BDB
:1051B000105B105BAE524D42EC39EB39EB39EB39F9
:1051C0000C3A0C3A0C3A0C3A0C3A0C3A0C3A0C3AAF
:1051D0000C3A0C3A0C3A0C3A0C3A0C3A0C3A0C3A9F
:1051E0000C3A0C3A0C3A0C3A0C3A0C3A0C3A0C3A8F
:1051F0000C3A0C3A0C3A0C3A0C3A0C3A0C3A0C3A7F
:105200000C3A0C3A0C3A0C3A0C3A0C3A0C3A0C3A6E
:105210000C3A0C3A0C3A0C3A0C3A0C3A0C3A0C3A5E
:105220000C3A0C3A0C3A0C3A0C3A0C3A0C3A0C3A4E
:105230000C3A0C3A0C3A0C3A0C3A0C3A0C3A0C3A3E
:105240000C3A0C3A0C3A0C3A0C3A0C3A0C426D4AB5
:105250008E4A4D422C420C3A0C3A0C3A0C3A0C3A1B
:105260002C428E4A6D4A2C420C3A0C3A2C428E4A01
:105270008E4A2C420C3A0C3A0C3A0C3A0C3A0C3A44
:105280002C426D4A6E4A4D4A0C422C422C422D4211
:105290004D424D4A6D4A6D4A8E4A8E4A8E4A8E5212
:1052A000AE52AE52AE528E4A8E4A6D4A6D4A4D4251
:1052B0004D422C422C422C420C420C420C3A0C3AED
:1052C000EB39CB312C42CF52105B305B105B8E4AF6
:1052D000CB31CB31EB390C3A0C3A0C3A0C3A0C3A54
:1052E0000C3A0C3A0C3A0C3A0C3A0C3A0C3A0C3A8E
:1052F0000C3A0C3A0C3A0C3A0C3A0C3A0C3A0C3A7E
:105300000C3A0C3A0C3A0C3A0C3A0C3A0C3A0C3A6D
:105310000C3A0C3A0C3A0C3A0C3A0C3A0C3A0C3A5D
:105320000C3A0C3A0C422D428E4A4D4A0C420C3A31
:105330000C3A0C3A0C3A0C3A0C3A0C3A0C3A0C3A3D
:105340000C3A0C3A0C3AEB39EB390C3A0C3A0C4269
:105350002C424D424D426D4A4D422C42EB39CB31ED
:10536000AB31EC392D42104200000000000000007B
:10537000000000000000000000000000000000002D
:1053800000000000000000000000CB390C3A0C3A8D
:105390002C426D4A8E4A6E4A4D420C420C3A0C3AEF
:1053A0000C3A0C3A0C3A0C3A0C3A0C3A0C3A0C3ACD
:1053B0000C3A0C3A0C3A0C3A0C3A0C3A0C3A0C3ABD
:1053C0000C3A0C3A0C3AEC390C3A0C3A0C3A0C3ACE
:1053D0000C3A0C3A0C3A0C3A0C3A0C3A0C3A0C3A9D
:1053E0000C3A0C3A0C3A0C3A0C3A0C3A0C3A0C3A8D
:1053F0000C3A0C3A0C3A0C3A0C3A0C3A0C3A0C3A7D
:105400000C3A0C3A0C3A0C3A0C3A0C3A0C3A0C3A6C
:105410000C3A0C3A0C3A0C3A0C3A0C3A0C3A0C3A5C
:105420000C3A0C3A0C3A0C3A0C3A0C3A0C3A0C3A4C
:105430000C3A0C422C426D4A8E4A6D4A2D420C4267
:105440000C3A0C3A0C3AEB39CB39CB31CB316D4AB3
:10545000EF5A105B305B305B305B305B305B105B76
:10546000CF526E4A6D4AAE52F05A105B305B105B01
:10547000105BAF526D4A2C3AEB39EB39EB390C3AF1
:105480000C3A0C3A0C3A0C3A0C3A0C3A0C3A0C3AEC
:105490000C3A0C3A0C3A0C3A0C3A0C3A0C3A0C3ADC
:1054A0000C3A0C3A0C3A0C3A0C3A0C3A0C3A0C3ACC
:1054B0000C3A0C3A0C3A0C3A0C3A0C3A0C3A0C3ABC
:1054C0000C3A0C3A0C3A0C3A0C3A0C3A0C3A0C3AAC
:1054D0000C3A0C3A0C3A0C3A0C3A0C3A0C3A0C3A9C
:1054E0000C3A0C3A0C3A0C3A0C3A0C3A0C3A0C3A8C
:1054F0000C3A0C3A0C3A0C3A0C3A0C3A0C3A0C3A7C
:105500000C3A0C3A0C3A0C3A0C426D4A8E4A4D4217
:105510000C420C3A0C3A0C3A0C3A0C3A4D428E4A78
:105520004D4A2C420C3A0C3A4D428E4A6D4A0C427E
:105530000C3A0C3A0C3A0C3A0C3A0C3A2C426D4AA2
:105540006D4A2C420C3A0C3A0C3A0C3A0C3A0C3A92
:105550000C3A0C422C422C422C424D426D4A6D4A70
:105560008E4A8E4A8E4A8E4A8E4A8E4A8E4A6E4A9B
:105570006D4A4D4A4D422C420C420C3AEB39CB312C
:105580002C42AF52105B305B105B8E4ACB31CB317B
:10559000EB390C3A0C3A0C3A0C3A0C3A0C3A0C3AFD
:1055A0000C3A0C3A0C3A0C3A0C3A0C3A0C3A0C3ACB
:1055B0000C3A0C3A0C3A0C3A0C3A0C3A0C3A0C3ABB
:1055C0000C3A0C3A0C3A0C3A0C3A0C3A0C3A0C3AAB
:1055D0000C3A0C3A0C3A0C3A0C3A0C3A0C3A0C3A9B
:1055E0000C3A2D428E4A4D4A0C420C3A0C3A0C3A77
:1055F0000C3A0C3A0C3A0C3A0C3A0C3A0C3A0C3A7B
:105600000C3A0C3A0C3AEB39EB390C3A0C3A0C42A6
:105610000C420C420C420C3AEB39EB39CB31CB311A
:10562000EB311084000000000000000000000000CA
:10563000000000000000000000000000000000006A
:10564000000000000000EC410C3A0C3A0C3A2C42ED
:105650006D4A8E4A8E4A4D420C420C3A0C3A0C3A34
:105660000C3A0C3A0C3A0C3A0C3A0C3A0C3A0C3A0A
:105670000C3A0C3A0C3A0C3A0C3A0C3A0C3A0C3AFA
:10568000EC39EC390C3A0C3A0C3A0C3A0C3A0C3A2C
:105690000C3A0C3A0C3A0C3A0C3A0C3A0C3A0C3ADA
:1056A0000C3A0C3A0C3A0C3A0C3A0C3A0C3A0C3ACA
:1056B0000C3A0C3A0C3A0C3A0C3A0C3A0C3A0C3ABA
:1056C0000C3A0C3A0C3A0C3A0C3A0C3A0C3A0C3AAA
:1056D0000C3A0C3A0C3A0C3A0C3A0C3A0C3A0C3A9A
:1056E0000C3A0C3A0C3A0C3A0C3A0C3A0C3A0C3A8A
:1056F0000C422C426D4A8E4A6E4A2C420C420C3AA5
:105700000C3AEB39CB31CB310C3AAE52105B105B1B
:10571000305B305B305B305B305B105B8E4A0C3A49
:10572000EC392C428E4AEF5A105B105B105B105B19
:10573000CF528E4A2D42EB39CB31EB390C3A0C3A31
:105740000C3A0C3A0C3A0C3A0C3A0C3A0C3A0C3A29
:105750000C3A0C3A0C3A0C3A0C3A0C3A0C3A0C3A19
:105760000C3A0C3A0C3A0C3A0C3A0C3A0C3A0C3A09
:105770000C3A0C3A0C3A0C3A0C3A0C3A0C3A0C3AF9
:105780000C3A0C3A0C3A0C3A0C3A0C3A0C3A0C3AE9
:105790000C3A0C3A0C3A0C3A0C3A0C3A0C3A0C3AD9
:1057A0000C3A0C3A0C3A0C3A0C3A0C3A0C3A0C3AC9
:1057B0000C3A0C3A0C3A0C3A0C3A0C3A0C3A0C3AB9
:1057C0000C3A0C3A2C428E4A8E4A2D420C420C3A2C
:1057D0000C3A0C3A0C3A0C426D4A8E4A4D420C423D
:1057E0000C3A0C426D4A8E4A4D420C420C3A0C3A2D
:1057F0000C3A0C3A0C3A0C3A2C426D4A6D4A2C4247
:105800000C3A0C3A0C3A0C3A0C3A0C3A0C3A0C3A68
:105810000C3A0C3A0C3A0C3A0C422C422C422D42D7
:105820004D426D4A6D4A6E4A8E4A8E4AAE52AE5213
:10583000AE52AE528E4A8E4A4D42EC392D42AF5294
:10584000105B305B105B8E4ACB31CB31EB390C3ABD
:105850000C3A0C3A0C3A0C3A0C3A0C3A0C3A0C3A18
:105860000C3A0C3A0C3A0C3A0C3A0C3A0C3A0C3A08
:105870000C3A0C3A0C3A0C3A0C3A0C3A0C3A0C3AF8
:105880000C3A0C3A0C3A0C3A0C3A0C3A0C3A0C3AE8
:105890000C3A0C3A0C3A0C3A0C3A0C3A0C3A2D42AF
:1058A0008E4A4D420C420C3A0C3A0C3A0C3A0C3AE5
:1058B0000C3A0C3A0C3A0C3A0C3A0C3A0C3A0C3AB8
:1058C0000C3A0C3A0C3A0C3A0C3A0C3A0C3A0C3AA8
:1058D0000C3AEB39EB39EB39EB39CB31AB314A29A7
:1058E00000000000000000000000000000000000B8
:1058F00000000000000000000000000000000000A8
:1059000010040C3A0C3A0C3A0C3A0C3A2C426D4A00
:105910008E526E4A2D420C420C3A0C3A0C3A0C3A1A
:105920000C3A0C3A0C3A0C3A0C3A0C3A0C3A0C3A47
:105930000C3A0C3A0C3A0C3A0C3A0C3AEC39EC3979
:105940000C3A0C3A0C3A0C3A0C3A0C3A0C3A0C3A27
:105950000C3A0C3A0C3A0C3A0C3A0C3A0C3A0C3A17
:105960000C3A0C3A0C3A0C3A0C3A0C3A0C3A0C3A07
:105970000C3A0C3A0C3A0C3A0C3A0C3A0C3A0C3AF7
:105980000C3A0C3A0C3A0C3A0C3A0C3A0C3A0C3AE7
:105990000C3A0C3A0C3A0C3A0C3A0C3A0C3A0C3AD7
:1059A0000C3A0C3A0C3A0C3A0C3A0C3A0C3A0C3AC7
:1059B0002C426D4A8E526E4A4D420C420C3AEB39E3
:1059C000AB31EB396D4AEF5A105B105B305B305BEB
:1059D000305B305B305B105B6D42EB31CB31CB31F8
:1059E0002C428E4ACF52105B305B105B105BEF5A3B
:1059F000AF524D42EB39CB31EB39EB390C3A0C3A23
:105A00000C3A0C3A0C3A0C3A0C3A0C3A0C3A0C3A66
:105A10000C3A0C3A0C3A0C3A0C3A0C3A0C3A0C3A56
:105A20000C3A0C3A0C3A0C3A0C3A0C3A0C3A0C3A46
:105A30000C3A0C3A0C3A0C3A0C3A0C3A0C3A0C3A36
:105A40000C3A0C3A0C3A0C3A0C3A0C3A0C3A0C3A26
:105A50000C3A0C3A0C3A0C3A0C3A0C3A0C3A0C3A16
:105A60000C3A0C3A0C3A0C3A0C3A0C3A0C3A0C3A06
:105A70000C3A0C3A0C3A0C3A0C3A0C3A0C3A0C3AF6
:105A80002C428E4A8E4A2C420C3A0C3A0C3A0C3A72
:105A90000C3A0C426E4A8E524D420C420C3A2C4249
:105AA0008E4A8E4A4D420C3A0C3A0C3A0C3A0C3A59
:105AB0000C3A0C3A4D426D4A4D4A2C420C3A0C3A83
:105AC0000C3A0C3A0C3A0C3A0C3A0C3A0C3A0C3AA6
:105AD0000C3A0C3A0C3A0C3A0C3A0C3A0C3A0C3A96
