:020000040800F2
:100000000000022083000008810000088100000831
:100010008100000881000008810000080000000045
:100020000000000000000000000000008100000847
:100030008100000800000000810000088100000825
:10004000810000088100000881000008810000088C
:10005000810000088100000881000008810000087C
:10006000810000088100000881000008810000086C
:10007000810000088100000881000008810000085C
:10008000FEE726482649274A914205D050F8043B0E
:1000900041F8043B9142F9D1234824494FF0000232
:1000A000884203D040F8042B8842FBD100F040F88E
:1000B000FEE7034B1A681206FCD55860704700BF74
:1000C0000010014008B5411E11F8010F00B908BD2C
:1000D000FFF7EFFFF8E7054B9A689107FCD5187317
:1000E0009A68D207FCD5187B704700BF00300140EA
:1000F00010B5094C4FF08043C4F818340520FFF7C1
:10010000EAFFFF20FFF7E7FFC307FAD44FF480436D
:10011000C4F8183410BD00BF0000024084A50708D1
:10012000000000200000002000000020000000204F
:100130002DE9F04FA04EA14CD6F83038A048A14D83
:10014000A14F43F0010385B0C6F83038D6F84438E3
:1001500043F01003C6F84438236823F47013236077
:10016000236843F420132360636A23F47F6343F41A
:10017000EE636362A36843F42013A360934B8B2266
:100180009A6042F20C02DA60FFF79CFFD6F8303832
:100190008F4843F04203C6F83038D6F8443843F469
:1001A0008053C6F84438D4F8003423F0405323F485
:1001B0007C63C4F80034D4F8003443F0805343F433
:1001C0002863C4F80034D4F820346FF31733C4F82C
:1001D0002034D4F8203443F4AA0343F4A043C4F8F1
:1001E0002034D4F80C3443F08053C4F80C34D5F8E0
:1001F0000C3843F48043C5F80C38D5F8003823F4A4
:10020000404343F48043C5F800384FF48043C4F8BA
:1002100018348023C5F818386E4B40F24F321A60FC
:10022000D6F8303843F02003C6F83038D5F800341B
:10023000694E23F4402343F48023C5F800344FF47F
:100240000073C5F81834FFF73DFF1C2127FA01F3AE
:10025000DCB2C3F3031304F00F04F05CFFF729FFD3
:100260000439305DFFF725FF0B1DEFD15B48FFF729
:1002700029FF4FF03033019343F23053ADF808308B
:10028000062101AC0139605CFFF713FF0029F9D1A9
:1002900053484A4EFFF716FF5248FFF713FF4FF03F
:1002A0000073C5F818344FF4F4244FF080484FF42D
:1002B0008047C6F818840620FFF70DFFC6F81874AB
:1002C0002020C6F81884FFF706FFC4F30740FFF7A5
:1002D00002FFC4F30720FFF7FEFE0020FFF7FBFE3E
:1002E00004F58054C6F81874FFF702FFB4F5752FB3
:1002F000DDD14FF40073C5F818343B48324CDFF8B9
:10030000F4902E4FFFF7DEFE4FF00073C5F818345F
:10031000A0464FF0804B5FFA88FACAF58076A64275
:10032000C7F818B44FF0060028BF2646FFF7D3FEE3
:100330004FF48043C7F818340220C7F818B4FFF709
:10034000CAFEC8F30740FFF7C6FEC8F30720FFF751
:10035000C2FE5046FFF7BFFECA46B144CA4522D18D
:100360004FF48043C7F81834FFF7C2FEA41BB04413
:10037000D1D14FF400761D48C5F81864FFF7A2FEEE
:100380001B4A4FF00071C5F818140094009B93426B
:100390000EDDC5F818640194019B9342F3DC019BC8
:1003A00001330193F8E71AF8010BFFF794FED5E744
:1003B000009B01330093E9E7003002400000024057
:1003C000F80300080010024020A1070000100140BF
:1003D0001104000800300140530400082304000801
:1003E000360400082A0400083904000848040008FC
:1003F0001FA10700640400080D0A3E3E3E20424152
:1004000054434820464C41534845522076320D0A09
:100410000020204261746368206F66667365743DD6
:100420003078002073697A653D0020204572617341
:10043000696E672E2E2E0D0A00202057726974698E
:100440006E672E2E2E0D0A003E3E3E20444F4E4536
:100450000D0A0030313233343536373839414243B2
:1004600044454600FF07FF07FF07FF07FF07FF0799
:10047000FF07FF07FF07FF07FF07FF07FF07FF074C
:10048000FF07FF07FF07FF07FF07FF07FF07FF073C
:10049000FF07FF07FF07FF07FF07FF07FF07FF072C
:1004A000FF07FF07FF07FF07FF07FF07FF07FF071C
:1004B000FF07FF07FF07FF07FF07FF07FF07FF070C
:1004C000FF07FF07FF07FF07FF07FF07FF07FF07FC
:1004D000FF07FF07FF07FF07FF07FF07FF07FF07EC
:1004E000FF07FF07FF07FF07FF07FF07FF07FF07DC
:1004F000FF07FF07FF07FF07FF07FF07FF07FF07CC
:10050000FF07FF07FF07FF07FF07FF07FF07FF07BB
:10051000FF07FF07FF07FF07FF07FF07FF07FF07AB
:10052000FF07FF07FF07FF07FF07FF07FF07FF079B
:10053000FF07FF07FF07FF07FF071F461F461F466E
:100540001F461F461F461F461F461F461F461F4683
:100550001F461F461F461F461F461F461F461F4673
:100560001F461F461F461F461F461F461F461F4663
:100570001F461F461F461F461F461F461F461F4653
:100580001F461F461F461F461F461F461F461F4643
:100590001F461F461F461F461F461F461F461F4633
:1005A0001F461F461F461F461F461F461F461F4623
:1005B0001F461F461F461F461F461F461F461F4613
:1005C0001F461F461F461F461F461F461F461F4603
:1005D0001F461F461F461F461F461F461F461F46F3
:1005E0001F461F461F461F461F461F461F461F46E3
:1005F0001F461F461F461F461F461F461F461F46D3
:100600001F461F461F461F461F461F461F461F46C2
:100610001F461F461F461F461F461F461F461F46B2
:100620007F36FF2E7D47BD47DE47DE47DD47DD478E
:10063000DD47DC479E471F27BB2E1F461F461F4630
:100640001F461F461F461F461F467F1E3F171F1788
:10065000FF163F171F1FFE16DE163E171E17FE164B
:10066000DD1E5D1F5D1F3C271F27BF2EBF2E7F365F
:100670001F461F461F461F461F461F461F461F4652
:100680001F461F46FF07FF07FF07FF07FF07FF077C
:10069000FF07FF07FF07FF07FF07FF07FF07FF072A
:1006A000FF07FF07FF07FF07FF07FF07FF07FF071A
:1006B000FF07FF07FF07FF07FF07FF07FF07FF070A
:1006C000FF07FF07FF07FF07FF07FF07FF07FF07FA
:1006D000FF07FF07FF07FF07000000000000000002
:1006E000000000000000000000000000000000000A
:1006F00000000000000000000000000000000000FA
:1007000000000000000000000000000000000000E9
:1007100000000000000000000000000000000000D9
:1007200000000000000000000000000000000000C9
:100730000000FF07FF07FF07FF07FF07BF06FF06D1
:100740001F075F1FBD1E7F1FFE161E173E175E1779
:100750001F0FFF0EFF0EBF0600000000000000008C
:100760000000000000000000000000000000000089
:100770000000000000000000000000000000000079
:100780000000000000000000000000000000000069
:100790000000000000000000000000000000000059
:1007A0000000000000000000000000000000000049
:1007B0000000000000000000000000000000000039
:1007C0000000000000000000000000000000000029
:1007D0000000000000000000000000000000000019
:1007E0000000000000000000000000000000000009
:1007F00000000000000000000000000000000000F9
:1008000000000000000000000000000000000000E8
:1008100000000000000000000000000000000000D8
:1008200000000000000000000000000000000000C8
:1008300000000000000000000000000000000000B8
:1008400000000000000000000000000000000000A8
:100850000000000000000000000000000000000098
:100860000000000000000000000000000000000088
:100870000000000000000000000000000000000078
:100880000000000000000000000000000000000068
:100890000000000000000000000000000000000058
:1008A0000000000000000000000000000000000048
:1008B0000000000000000000000000000000000038
:1008C0000000000000000000000000000000000028
:1008D0000000000000000000000000000000000018
:1008E0000000000000000000000000000000000008
:1008F00000000000000000000000000000000000F8
:1009000000000000FF07FF07FF07FF07FF07FF07C3
:10091000FF07FF07FF07FF07FF07FF07FF07FF07A7
:10092000FF07FF07FF07FF07FF07FF07FF07FF0797
:10093000FF07FF07FF07FF07FF07FF07FF07FF0787
:10094000FF07FF07FF07FF07FF07FF07FF07FF0777
:100B7000FF07FF07FF07FF071F461F461F461F46C9
:100B80001F461F461F461F461F461F461F461F463D
:100B90001F461F461F461F461F461F461F461F462D
:100BA0001F461F461F461F461F461F461F461F461D
:100BB0001F461F461F461F461F461F461F461F460D
:100BC0001F461F461F461F461F461F461F461F46FD
:100BD0001F461F461F461F461F461F461F461F46ED
:100BE0001F461F461F461F461F461F461F461F46DD
:100BF0001F461F461F461F461F461F461F461F46CD
:100C00001F461F461F461F461F461F461F461F46BC
:100C10001F461F461F461F461F461F461F461F46AC
:100C20001F461F461F461F461F461F461F461F469C
:100C30001F461F461F461F461F461F461F461F468C
:100C40001F461F461F461F461F461F461F461F467C
:100C50001F461F461F461F461F461F461F461F466C
:100C6000BF2E3F3F9E37BF47DD4FDD47DD47DD47A6
:100C7000DE47BD3F7D3FFF2E7F361F461F461F4686
:100C80001F461F461F461F461F467F1E3F171F1742
:100C9000FF163F171F1FFE16DE163E171E17FE1605
:100CA000DD1E5D1F5D1F3C271F27BF2EBF2E7F3619
:100CB0001F461F461F461F461F461F461F461F460C
:100CC0001F461F46FF07FF07FF07FF07FF07FF0736
:100CD000FF07FF07FF07FF07FF07FF07FF07FF07E4
:100CE000FF07FF07FF07FF07FF07FF07FF07FF07D4
:100CF000FF07FF07FF07FF07FF07FF07FF07FF07C4
:100D0000FF07FF07FF07FF07FF07FF07FF07FF07B3
:100D1000FF07FF07FF07FF070000000000000000BB
:100D200000000000000000000000000000000000C3
:100D300000000000000000000000000000000000B3
:100D400000000000000000000000000000000000A3
:100D50000000000000000000000000000000000093
:100D60000000000000000000000000000000000083
:100D70000000FF07FF07FF07FF07FF07BF06FF068B
:100D80001F075F1FBD1E7F1FFE161E173E175E1733
:100D90001F0FFF0EFF0EBF06000000000000000046
:100DA0000000000000000000000000000000000043
:100DB0000000000000000000000000000000000033
:100DC0000000000000000000000000000000000023
:100DD0000000000000000000000000000000000013
:100DE0000000000000000000000000000000000003
:100DF00000000000000000000000000000000000F3
:100E000000000000000000000000000000000000E2
:100E100000000000000000000000000000000000D2
:100E200000000000000000000000000000000000C2
:100E300000000000000000000000000000000000B2
:100E400000000000000000000000000000000000A2
:100E50000000000000000000000000000000000092
:100E60000000000000000000000000000000000082
:100E70000000000000000000000000000000000072
:100E80000000000000000000000000000000000062
:100E90000000000000000000000000000000000052
:100EA0000000000000000000000000000000000042
:100EB0000000000000000000000000000000000032
:100EC0000000000000000000000000000000000022
:100ED0000000000000000000000000000000000012
:100EE0000000000000000000000000000000000002
:100EF00000000000000000000000000000000000F2
:100F000000000000000000000000000000000000E1
:100F100000000000000000000000000000000000D1
:100F200000000000000000000000000000000000C1
:100F300000000000000000000000000000000000B1
:100F400000000000FF07FF07FF07FF07FF07FF077D
:100F5000FF07FF07FF07FF07FF07FF07FF07FF0761
:100F6000FF07FF07FF07FF07FF07FF07FF07FF0751
:100F7000FF07FF07FF07FF07FF07FF07FF07FF0741
:100F8000FF07FF07FF07FF07FF07FF07FF07FF0731
:1011B000FF07FF07FF071F461F461F461F461F4624
:1011C0001F461F461F461F461F461F461F461F46F7
:1011D0001F461F461F461F461F461F461F461F46E7
:1011E0001F461F461F461F461F461F461F461F46D7
:1011F0001F461F461F461F461F461F461F461F46C7
:101200001F461F461F461F461F461F461F461F46B6
:101210001F461F461F461F461F461F461F461F46A6
:101220001F461F461F461F461F461F461F461F4696
:101230001F461F461F461F461F461F461F461F4686
:101240001F461F461F461F461F461F461F461F4676
:101250001F461F461F461F461F461F461F461F4666
:101260001F461F461F461F461F461F461F461F4656
:101270001F461F461F461F461F461F461F461F4646
:101280001F461F461F461F461F461F461F461F4636
:101290001F461F461F461F461F461F461F461F4626
:1012A000BF2E5F379C3FDE47DD47DD47DD47DD472B
:1012B000DD479C475F37BF2E1F461F461F461F4610
:1012C0001F461F461F461F461F467F1E3F171F17FC
:1012D000FF163F171F1FFE16DE163E171E17FE16BF
:1012E000DD1E5D1F5D1F3C271F27BF2EBF2E7F36D3
:1012F0001F461F461F461F461F461F461F461F46C6
:101300001F461F06FF07FF07FF07FF07FF07FF072F
:10131000FF07FF07FF07FF07FF07FF07FF07FF079D
:10132000FF07FF07FF07FF07FF07FF07FF07FF078D
:10133000FF07FF07FF07FF07FF07FF07FF07FF077D
:10134000FF07FF07FF07FF07FF07FF07FF07FF076D
:10135000FF07FF07FF07FF07000000000000000075
:10136000000000000000000000000000000000007D
:10137000000000000000000000000000000000006D
:10138000000000000000000000000000000000005D
:10139000000000000000000000000000000000004D
:1013A000000000000000000000000000000000003D
:1013B0000000FF07FF07FF07FF07FF07BF06FF0645
:1013C0001F075F1FBD1E7F1FFE161E173E175E17ED
:1013D0001F0FFF0EFF0EBF06000000000000000000
:1013E00000000000000000000000000000000000FD
:1013F00000000000000000000000000000000000ED
:1014000000000000000000000000000000000000DC
:1014100000000000000000000000000000000000CC
:1014200000000000000000000000000000000000BC
:1014300000000000000000000000000000000000AC
:10144000000000000000000000000000000000009C
:10145000000000000000000000000000000000008C
:10146000000000000000000000000000000000007C
:10147000000000000000000000000000000000006C
:10148000000000000000000000000000000000005C
:10149000000000000000000000000000000000004C
:1014A000000000000000000000000000000000003C
:1014B000000000000000000000000000000000002C
:1014C000000000000000000000000000000000001C
:1014D000000000000000000000000000000000000C
:1014E00000000000000000000000000000000000FC
:1014F00000000000000000000000000000000000EC
:1015000000000000000000000000000000000000DB
:1015100000000000000000000000000000000000CB
:1015200000000000000000000000000000000000BB
:1015300000000000000000000000000000000000AB
:10154000000000000000000000000000000000009B
:10155000000000000000000000000000000000008B
:10156000000000000000000000000000000000007B
:10157000000000000000000000000000000000006B
:101580000000FF07FF07FF07FF07FF07FF07FF0731
:10159000FF07FF07FF07FF07FF07FF07FF07FF071B
:1015A000FF07FF07FF07FF07FF07FF07FF07FF070B
:1015B000FF07FF07FF07FF07FF07FF07FF07FF07FB
:1015C000FF07FF07FF07FF07FF07FF07FF07FF07EB
:1017F000FF07FF071F461F461F461F461F461F467F
:101800001F461F461F461F461F461F461F461F46B0
:101810001F461F461F461F461F461F461F461F46A0
:101820001F461F461F461F461F461F461F461F4690
:101830001F461F461F461F461F461F461F461F4680
:101840001F461F461F461F461F461F461F461F4670
:101850001F461F461F461F461F461F461F461F4660
:101860001F461F461F461F461F461F461F461F4650
:101870001F461F461F461F461F461F461F461F4640
:101880001F461F461F461F461F461F461F461F4630
:101890001F461F461F461F461F461F461F461F4620
:1018A0001F461F461F461F461F461F461F461F4610
:1018B0001F461F461F461F461F461F461F461F4600
:1018C0001F461F461F461F461F461F461F461F46F0
:1018D0001F461F461F461F461F461F461F467F3690
:1018E000FF4E7D47BD47DE4FDD47DE4FDD47DD471D
:1018F000BD477D471C477F361F461F461F461F4674
:101900001F461F461F461F461F467F1E3F171F17B5
:10191000FF163F171F1FFE16DE163E171E17FE1678
:10192000DD1E5D1F5D1F3C271F27BF2EBF2E7F368C
:101930001F461F461F461F461F461F461F461F467F
:101940001F46FF07FF07FF07FF07FF07FF07FF0708
:10195000FF07FF07FF07FF07FF07FF07FF07FF0757
:10196000FF07FF07FF07FF07FF07FF07FF07FF0747
:10197000FF07FF07FF07FF07FF07FF07FF07FF0737
:10198000FF07FF07FF07FF07FF07FF07FF07FF0727
:10199000FF07FF07FF07FF0700000000000000002F
:1019A0000000000000000000000000000000000037
:1019B0000000000000000000000000000000000027
:1019C0000000000000000000000000000000000017
:1019D0000000000000000000000000000000000007
:1019E00000000000000000000000000000000000F7
:1019F0000000FF07FF07FF07FF07FF07BF06FF06FF
:101A00001F075F1FBD1E7F1FFE161E173E175E17A6
:101A10001F0FFF0EFF0EBF060000000000000000B9
:101A200000000000000000000000000000000000B6
:101A300000000000000000000000000000000000A6
:101A40000000000000000000000000000000000096
:101A50000000000000000000000000000000000086
:101A60000000000000000000000000000000000076
:101A70000000000000000000000000000000000066
:101A80000000000000000000000000000000000056
:101A90000000000000000000000000000000000046
:101AA0000000000000000000000000000000000036
:101AB0000000000000000000000000000000000026
:101AC0000000000000000000000000000000000016
:101AD0000000000000000000000000000000000006
:101AE00000000000000000000000000000000000F6
:101AF00000000000000000000000000000000000E6
:101B000000000000000000000000000000000000D5
:101B100000000000000000000000000000000000C5
:101B200000000000000000000000000000000000B5
:101B300000000000000000000000000000000000A5
:101B40000000000000000000000000000000000095
:101B50000000000000000000000000000000000085
:101B60000000000000000000000000000000000075
:101B70000000000000000000000000000000000065
:101B80000000000000000000000000000000000055
:101B90000000000000000000000000000000000045
:101BA0000000000000000000000000000000000035
:101BB0000000000000000000000000000000000025
:101BC0000000FF07FF07FF07FF07FF07FF07FF07EB
:101BD000FF07FF07FF07FF07FF07FF07FF07FF07D5
:101BE000FF07FF07FF07FF07FF07FF07FF07FF07C5
:101BF000FF07FF07FF07FF07FF07FF07FF07FF07B5
:101C0000FF07FF07FF07FF07FF07FF07FF07FF07A4
:101E3000FF071F461F461F461F461F461F461F46D9
:101E40001F461F461F461F461F461F461F461F466A
:101E50001F461F461F461F461F461F461F461F465A
:101E60001F461F461F461F461F461F461F461F464A
:101E70001F461F461F461F461F461F461F461F463A
:101E80001F461F461F461F461F461F461F461F462A
:101E90001F461F461F461F461F461F461F461F461A
:101EA0001F461F461F461F461F461F461F461F460A
:101EB0001F461F461F461F461F461F461F461F46FA
:101EC0001F461F461F461F461F461F461F461F46EA
:101ED0001F461F461F461F461F461F461F461F46DA
:101EE0001F461F461F461F461F461F461F461F46CA
:101EF0001F461F461F461F461F461F461F461F46BA
:101F00001F461F461F461F461F461F461F461F46A9
:101F10001F461F461F461F461F461F467F36BF2EC1
:101F20003F3F9C37BC47DD47DE47DD47DD47DD47A8
:101F3000BE471F47BF2E1F461F461F461F461F4650
:101F40001F461F461F461F461F467F1E3F171F176F
:101F5000FF163F171F1FFE16DE163E171E17FE1632
:101F6000DD1E5D1F5D1F3C271F27BF2EBF2E7F3646
:101F70001F461F461F461F461F461F461F461F4639
:101F80001F46FF07FF07FF07FF07FF07FF07FF07C2
:101F9000FF07FF07FF07FF07FF07FF07FF07FF0711
:101FA000FF07FF07FF07FF07FF07FF07FF07FF0701
:101FB000FF07FF07FF07FF07FF07FF07FF07FF07F1
:101FC000FF07FF07FF07FF07FF07FF07FF07FF07E1
:101FD000FF07FF07FF07FF070000000000000000E9
:101FE00000000000000000000000000000000000F1
:101FF00000000000000000000000000000000000E1
:1020000000000000000000000000000000000000D0
:1020100000000000000000000000000000000000C0
:1020200000000000000000000000000000000000B0
:102030000000FF07FF07FF07FF07FF07BF06FF06B8
:102040001F075F1FBD1E7F1FFE161E173E175E1760
:102050001F0FFF0EFF0EBF06000000000000000073
:102060000000000000000000000000000000000070
:102070000000000000000000000000000000000060
:102080000000000000000000000000000000000050
:102090000000000000000000000000000000000040
:1020A0000000000000000000000000000000000030
:1020B0000000000000000000000000000000000020
:1020C0000000000000000000000000000000000010
:1020D0000000000000000000000000000000000000
:1020E00000000000000000000000000000000000F0
:1020F00000000000000000000000000000000000E0
:1021000000000000000000000000000000000000CF
:1021100000000000000000000000000000000000BF
:1021200000000000000000000000000000000000AF
:10213000000000000000000000000000000000009F
:10214000000000000000000000000000000000008F
:10215000000000000000000000000000000000007F
:10216000000000000000000000000000000000006F
:10217000000000000000000000000000000000005F
:10218000000000000000000000000000000000004F
:10219000000000000000000000000000000000003F
:1021A000000000000000000000000000000000002F
:1021B000000000000000000000000000000000001F
:1021C000000000000000000000000000000000000F
:1021D00000000000000000000000000000000000FF
:1021E00000000000000000000000000000000000EF
:1021F00000000000000000000000000000000000DF
:102200000000FF07FF07FF07FF07FF07FF07FF07A4
:10221000FF07FF07FF07FF07FF07FF07FF07FF078E
:10222000FF07FF07FF07FF07FF07FF07FF07FF077E
:10223000FF07FF07FF07FF07FF07FF07FF07FF076E
:10224000FF07FF07FF07FF07FF07FF07FF07FF075E
:102550001F461F461F461F461F461F467F36BF2E7B
:102560007D2F9E3FDE47DD47DE47DD47DE47DE4706
:102570009E47BF2E7F361F461F461F461F461F46DB
:102580001F461F461F461F461F467F1E3F171F1729
:10259000FF163F171F1FFE16DE163E171E17FE16EC
:1025A000DD1E5D1F5D1F3C271F27BF2EBF2E7F3600
:1025B0001F461F461F461F461F461F461F461F46F3
:1025C0001F46FF07FF07FF07FF07FF07FF07FF077C
:1025D000FF07FF07FF07FF07FF07FF07FF07FF07CB
:1025E000FF07FF07FF07FF07FF07FF07FF07FF07BB
:1025F000FF07FF07FF07FF07FF07FF07FF07FF07AB
:10260000FF07FF07FF07FF07FF07FF07FF07FF079A
:10261000FF07FF07FF07FF070000000000000000A2
:1026200000000000000000000000000000000000AA
:10263000000000000000000000000000000000009A
:10264000000000000000000000000000000000008A
:10265000000000000000000000000000000000007A
:10266000000000000000000000000000000000006A
:102670000000FF07FF07FF07FF07FF07BF06FF0672
:102680001F075F1FBD1E7F1FFE161E173E175E171A
:102690001F0FFF0EFF0EBF0600000000000000002D
:1026A000000000000000000000000000000000002A
:1026B000000000000000000000000000000000001A
:1026C000000000000000000000000000000000000A
:1026D00000000000000000000000000000000000FA
:1026E00000000000000000000000000000000000EA
:1026F00000000000000000000000000000000000DA
:1027000000000000000000000000000000000000C9
:1027100000000000000000000000000000000000B9
:1027200000000000000000000000000000000000A9
:102730000000000000000000000000000000000099
:102740000000000000000000000000000000000089
:102750000000000000000000000000000000000079
:102760000000000000000000000000000000000069
:102770000000000000000000000000000000000059
:102780000000000000000000000000000000000049
:102790000000000000000000000000000000000039
:1027A0000000000000000000000000000000000029
:1027B0000000000000000000000000000000000019
:1027C0000000000000000000000000000000000009
:1027D00000000000000000000000000000000000F9
:1027E00000000000000000000000000000000000E9
:1027F00000000000000000000000000000000000D9
:1028000000000000000000000000000000000000C8
:1028100000000000000000000000000000000000B8
:1028200000000000000000000000000000000000A8
:102830000000000000000000000000000000000098
:102840000000FF07FF07FF07FF07FF07FF07FF075E
:10285000FF07FF07FF07FF07FF07FF07FF07FF0748
:10286000FF07FF07FF07FF07FF07FF07FF07FF0738
:10287000FF07FF07FF07FF07FF07FF07FF07FF0728
:10288000FF07FF07FF07FF07FF07FF07FF07FF0718
:102AA000FF07FF07FF07FF07FF07FF07FF071F4697
:102AB0001F461F461F461F461F461F461F461F46EE
:102AC0001F461F461F461F461F461F461F461F46DE
:102AD0001F461F461F461F461F461F461F461F46CE
:102AE0001F461F461F461F461F461F461F461F46BE
:102AF0001F461F461F461F461F461F461F461F46AE
:102B00001F461F461F461F461F461F461F461F469D
:102B10001F461F461F461F461F461F461F461F468D
:102B20001F461F461F461F461F461F461F461F467D
:102B30001F461F461F461F461F461F461F461F466D
:102B40001F461F461F461F461F461F461F461F465D
:102B50001F461F461F461F461F461F461F461F464D
:102B60001F461F461F461F461F461F461F461F463D
:102B70001F461F461F461F461F461F461F461F462D
:102B80001F461F461F461F461F461F461F461F461D
:102B90001F461F461F461F461F461F467F36FF4ED5
:102BA0009C4FBD47DD47DD4FDD4FDD4FDE47BD4765
:102BB0007E3F7F361F461F461F461F461F461F4645
:102BC0001F461F461F461F461F467F1E3F171F17E3
:102BD000FF163F171F1FFE16DE163E171E17FE16A6
:102BE000DD1E5D1F5D1F3C271F27BF2EBF2E7F36BA
:102BF0001F461F461F461F461F461F461F461F46AD
:102C00001F46FF07FF07FF07FF07FF07FF07FF0735
:102C1000FF07FF07FF07FF07FF07FF07FF07FF0784
:102C2000FF07FF07FF07FF07FF07FF07FF07FF0774
:102C3000FF07FF07FF07FF07FF07FF07FF07FF0764
:102C4000FF07FF07FF07FF07FF07FF07FF07FF0754
:102C5000FF07FF07FF07FF0700000000000000005C
:102C60000000000000000000000000000000000064
:102C70000000000000000000000000000000000054
:102C80000000000000000000000000000000000044
:102C90000000000000000000000000000000000034
:102CA0000000000000000000000000000000000024
:102CB0000000FF07FF07FF07FF07FF07BF06FF062C
:102CC0001F075F1FBD1E7F1FFE161E173E175E17D4
:102CD0001F0FFF0EFF0EBF060000000000000000E7
:102CE00000000000000000000000000000000000E4
:102CF00000000000000000000000000000000000D4
:102D000000000000000000000000000000000000C3
:102D100000000000000000000000000000000000B3
:102D200000000000000000000000000000000000A3
:102D30000000000000000000000000000000000093
:102D40000000000000000000000000000000000083
:102D50000000000000000000000000000000000073
:102D60000000000000000000000000000000000063
:102D70000000000000000000000000000000000053
:102D80000000000000000000000000000000000043
:102D90000000000000000000000000000000000033
:102DA0000000000000000000000000000000000023
:102DB0000000000000000000000000000000000013
:102DC0000000000000000000000000000000000003
:102DD00000000000000000000000000000000000F3
:102DE00000000000000000000000000000000000E3
:102DF00000000000000000000000000000000000D3
:102E000000000000000000000000000000000000C2
:102E100000000000000000000000000000000000B2
:102E200000000000000000000000000000000000A2
:102E30000000000000000000000000000000000092
:102E40000000000000000000000000000000000082
:102E50000000000000000000000000000000000072
:102E60000000000000000000000000000000000062
:102E70000000000000000000000000000000000052
:102E80000000FF07FF07FF07FF07FF07FF07FF0718
:102E9000FF07FF07FF07FF07FF07FF07FF07FF0702
:102EA000FF07FF07FF07FF07FF07FF07FF07FF07F2
:102EB000FF07FF07FF07FF07FF07FF07FF07FF07E2
:102EC000FF07FF07FF07FF07FF07FF07FF07FF07D2
:1030E000FF07FF07FF07FF07FF07FF071F461F46F2
:1030F0001F461F461F461F461F461F461F461F46A8
:103100001F461F461F461F461F461F461F461F4697
:103110001F461F461F461F461F461F461F461F4687
:103120001F461F461F461F461F461F461F461F4677
:103130001F461F461F461F461F461F461F461F4667
:103140001F461F461F461F461F461F461F461F4657
:103150001F461F461F461F461F461F461F461F4647
:103160001F461F461F461F461F461F461F461F4637
:103170001F461F461F461F461F461F461F461F4627
:103180001F461F461F461F461F461F461F461F4617
:103190001F461F461F461F461F461F461F461F4607
:1031A0001F461F461F461F461F461F461F461F46F7
:1031B0001F461F461F461F461F461F461F461F46E7
:1031C0001F461F461F461F461F461F461F461F46D7
:1031D0001F461F461F461F461F461F46BF2E3C3F29
:1031E0009C4FDC47DD47DD47DD4FDD47DE479E3F37
:1031F0005D377F361F461F461F461F461F461F4628
:103200001F461F461F461F461F467F1E3F171F179C
:10321000FF163F171F1FFE16DE163E171E17FE165F
:10322000DD1E5D1F5D1F3C271F27BF2EBF2E7F3673
:103230001F461F461F461F461F461F461F461F4666
:10324000FF07FF07FF07FF07FF07FF07FF07FF074E
:10325000FF07FF07FF07FF07FF07FF07FF07FF073E
:10326000FF07FF07FF07FF07FF07FF07FF07FF072E
:10327000FF07FF07FF07FF07FF07FF07FF07FF071E
:10328000FF07FF07FF07FF07FF07FF07FF07FF070E
:10329000FF07FF07FF07FF07000000000000000016
:1032A000000000000000000000000000000000001E
:1032B000000000000000000000000000000000000E
:1032C00000000000000000000000000000000000FE
:1032D00000000000000000000000000000000000EE
:1032E00000000000000000000000000000000000DE
:1032F0000000FF07FF07FF07FF07FF07BF06FF06E6
:103300001F075F1FBD1E7F1FFE161E173E175E178D
:103310001F0FFF0EFF0EBF060000000000000000A0
:10332000000000000000000000000000000000009D
:10333000000000000000000000000000000000008D
:10334000000000000000000000000000000000007D
:10335000000000000000000000000000000000006D
:10336000000000000000000000000000000000005D
:10337000000000000000000000000000000000004D
:10338000000000000000000000000000000000003D
:10339000000000000000000000000000000000002D
:1033A000000000000000000000000000000000001D
:1033B000000000000000000000000000000000000D
:1033C00000000000000000000000000000000000FD
:1033D00000000000000000000000000000000000ED
:1033E00000000000000000000000000000000000DD
:1033F00000000000000000000000000000000000CD
:1034000000000000000000000000000000000000BC
:1034100000000000000000000000000000000000AC
:10342000000000000000000000000000000000009C
:10343000000000000000000000000000000000008C
:10344000000000000000000000000000000000007C
:10345000000000000000000000000000000000006C
:10346000000000000000000000000000000000005C
:10347000000000000000000000000000000000004C
:10348000000000000000000000000000000000003C
:10349000000000000000000000000000000000002C
:1034A000000000000000000000000000000000001C
:1034B000000000000000000000000000000000000C
:1034C0000000FF07FF07FF07FF07FF07FF07FF07D2
:1034D000FF07FF07FF07FF07FF07FF07FF07FF07BC
:1034E000FF07FF07FF07FF07FF07FF07FF07FF07AC
:1034F000FF07FF07FF07FF07FF07FF07FF07FF079C
:10350000FF07FF07FF07FF07FF07FF07FF07FF078B
:10372000FF07FF07FF07FF07FF071F461F461F464C
:103730001F461F461F461F461F461F461F461F4661
:103740001F461F461F461F461F461F461F461F4651
:103750001F461F461F461F461F461F461F461F4641
:103760001F461F461F461F461F461F461F461F4631
:103770001F461F461F461F461F461F461F461F4621
:103780001F461F461F461F461F461F461F461F4611
:103790001F461F461F461F461F461F461F461F4601
:1037A0001F461F461F461F461F461F461F461F46F1
:1037B0001F461F461F461F461F461F461F461F46E1
:1037C0001F461F461F461F461F461F461F461F46D1
:1037D0001F461F461F461F461F461F461F461F46C1
:1037E0001F461F461F461F461F461F461F461F46B1
:1037F0001F461F461F461F461F461F461F461F46A1
:103800001F461F461F461F461F461F461F461F4690
:103810001F461F461F461F461F467F36FF4E5D4F01
:10382000BD47DD4FDD47DE4FDE47DD47BD477D3F0E
:10383000FF4E1F461F461F461F461F461F461F4678
:103840001F461F461F461F461F467F1E3F171F1756
:10385000FF163F171F1FFE16DE163E171E17FE1619
:10386000DD1E5D1F5D1F3C271F27BF2EBF2E7F362D
:103870001F461F461F461F461F461F461F46FF077F
:10388000FF07FF07FF07FF07FF07FF07FF07FF0708
:10389000FF07FF07FF07FF07FF07FF07FF07FF07F8
:1038A000FF07FF07FF07FF07FF07FF07FF07FF07E8
:1038B000FF07FF07FF07FF07FF07FF07FF07FF07D8
:1038C000FF07FF07FF07FF07FF07FF07FF07FF07C8
:1038D000FF07FF07FF07FF070000000000000000D0
:1038E00000000000000000000000000000000000D8
:1038F00000000000000000000000000000000000C8
:1039000000000000000000000000000000000000B7
:1039100000000000000000000000000000000000A7
:103920000000000000000000000000000000000097
:103930000000FF07FF07FF07FF07FF07BF06FF069F
:103940001F075F1FBD1E7F1FFE161E173E175E1747
:103950001F0FFF0EFF0EBF0600000000000000005A
:103960000000000000000000000000000000000057
:103970000000000000000000000000000000000047
:103980000000000000000000000000000000000037
:103990000000000000000000000000000000000027
:1039A0000000000000000000000000000000000017
:1039B0000000000000000000000000000000000007
:1039C00000000000000000000000000000000000F7
:1039D00000000000000000000000000000000000E7
:1039E00000000000000000000000000000000000D7
:1039F00000000000000000000000000000000000C7
:103A000000000000000000000000000000000000B6
:103A100000000000000000000000000000000000A6
:103A20000000000000000000000000000000000096
:103A30000000000000000000000000000000000086
:103A40000000000000000000000000000000000076
:103A50000000000000000000000000000000000066
:103A60000000000000000000000000000000000056
:103A70000000000000000000000000000000000046
:103A80000000000000000000000000000000000036
:103A90000000000000000000000000000000000026
:103AA0000000000000000000000000000000000016
:103AB0000000000000000000000000000000000006
:103AC00000000000000000000000000000000000F6
:103AD00000000000000000000000000000000000E6
:103AE00000000000000000000000000000000000D6
:103AF00000000000000000000000000000000000C6
:103B00000000FF07FF07FF07FF07FF07FF07FF078B
:103B1000FF07FF07FF07FF07FF07FF07FF07FF0775
:103B2000FF07FF07FF07FF07FF07FF07FF07FF0765
:103B3000FF07FF07FF07FF07FF07FF07FF07FF0755
:103B4000FF07FF07FF07FF07FF07FF07FF07FF0745
:103D6000FF07FF07FF07FF07FF071F461F461F4606
:103D70001F461F461F461F461F461F461F461F461B
:103D80001F461F461F461F461F461F461F461F460B
:103D90001F461F461F461F461F461F461F461F46FB
:103DA0001F461F461F461F461F461F461F461F46EB
:103DB0001F461F461F461F461F461F461F461F46DB
:103DC0001F461F461F461F461F461F461F461F46CB
:103DD0001F461F461F461F461F461F461F461F46BB
:103DE0001F461F461F461F461F461F461F461F46AB
:103DF0001F461F461F461F461F461F461F461F469B
:103E00001F461F461F461F461F461F461F461F468A
:103E10001F461F461F461F461F461F461F461F467A
:103E20001F461F461F461F461F461F461F461F466A
:103E30001F461F461F461F461F461F461F461F465A
:103E40001F461F461F461F461F461F461F461F464A
:103E50001F461F461F461F467F36BF2E5D379E4FAB
:103E6000BD47DD47DD47DD47DD47DD3FBD475D370A
:103E7000BB2E1F461F461F461F461F461F461F4696
:103E80001F461F461F461F461F467F1E3F171F1710
:103E9000FF163F171F1FFE16DE163E171E17FE16D3
:103EA000DD1E5D1F5D1F3C271F27BF2EBF2E7F36E7
:103EB0001F461F461F461F461F461F461F46FF0739
:103EC000FF07FF07FF07FF07FF07FF07FF07FF07C2
:103ED000FF07FF07FF07FF07FF07FF07FF07FF07B2
:103EE000FF07FF07FF07FF07FF07FF07FF07FF07A2
:103EF000FF07FF07FF07FF07FF07FF07FF07FF0792
:103F0000FF07FF07FF07FF07FF07FF07FF07FF0781
:103F1000FF07FF07FF07FF07000000000000000089
:103F20000000000000000000000000000000000091
:103F30000000000000000000000000000000000081
:103F40000000000000000000000000000000000071
:103F50000000000000000000000000000000000061
:103F60000000000000000000000000000000000051
:103F70000000FF07FF07FF07FF07FF07BF06FF0659
:103F80001F075F1FBD1E7F1FFE161E173E175E1701
:103F90001F0FFF0EFF0EBF06000000000000000014
:103FA0000000000000000000000000000000000011
:103FB0000000000000000000000000000000000001
:103FC00000000000000000000000000000000000F1
:103FD00000000000000000000000000000000000E1
:103FE00000000000000000000000000000000000D1
:103FF00000000000000000000000000000000000C1
:1040000000000000000000000000000000000000B0
:1040100000000000000000000000000000000000A0
:104020000000000000000000000000000000000090
:104030000000000000000000000000000000000080
:104040000000000000000000000000000000000070
:104050000000000000000000000000000000000060
:104060000000000000000000000000000000000050
:104070000000000000000000000000000000000040
:104080000000000000000000000000000000000030
:104090000000000000000000000000000000000020
:1040A0000000000000000000000000000000000010
:1040B0000000000000000000000000000000000000
:1040C00000000000000000000000000000000000F0
:1040D00000000000000000000000000000000000E0
:1040E00000000000000000000000000000000000D0
:1040F00000000000000000000000000000000000C0
:1041000000000000000000000000000000000000AF
:10411000000000000000000000000000000000009F
:10412000000000000000000000000000000000008F
:10413000000000000000000000000000000000007F
:104140000000FF07FF07FF07FF07FF07FF07FF0745
:10415000FF07FF07FF07FF07FF07FF07FF07FF072F
:10416000FF07FF07FF07FF07FF07FF07FF07FF071F
:10417000FF07FF07FF07FF07FF07FF07FF07FF070F
:10418000FF07FF07FF07FF07FF07FF07FF07FF07FF
:1043A000FF07FF071F461F461F461F461F461F46A3
:1043B0001F461F461F461F461F461F461F461F46D5
:1043C0001F461F461F461F461F461F461F461F46C5
:1043D0001F461F461F461F461F461F461F461F46B5
:1043E0001F461F461F461F461F461F461F461F46A5
:1043F0001F461F461F461F461F461F461F461F4695
:104400001F461F461F461F461F461F461F461F4684
:104410001F461F461F461F461F461F461F461F4674
:104420001F461F461F461F461F461F461F461F4664
:104430001F461F461F461F461F461F461F461F4654
:104440001F461F461F461F461F461F461F461F4644
:104450001F461F461F461F461F461F461F461F4634
:104460001F461F461F461F461F461F461F461F4624
:104470001F461F461F461F461F461F461F461F4614
:104480001F461F461F461F461F461F461F461F4604
:104490001F461F461F467F36BB2EFF4E7B3FBD4744
:1044A000DD47DD47DD4FDD47DD47BD4F9E471F47F9
:1044B0007F361F461F461F461F461F461F461F4684
:1044C0001F461F461F461F461F467F1E3F171F17CA
:1044D000FF163F171F1FFE16DE163E171E17FE168D
:1044E000DD1E5D1F5D1F3C271F27BF2EBF2E7F36A1
:1044F0001F461F461F461F461F461F461F46FF07F3
:10450000FF07FF07FF07FF07FF07FF07FF07FF077B
:10451000FF07FF07FF07FF07FF07FF07FF07FF076B
:10452000FF07FF07FF07FF07FF07FF07FF07FF075B
:10453000FF07FF07FF07FF07FF07FF07FF07FF074B
:10454000FF07FF07FF07FF07FF07FF07FF07FF073B
:10455000FF07FF07FF07FF07000000000000000043
:10456000000000000000000000000000000000004B
:10457000000000000000000000000000000000003B
:10458000000000000000000000000000000000002B
:10459000000000000000000000000000000000001B
:1045A000000000000000000000000000000000000B
:1045B0000000FF07FF07FF07FF07FF07BF06FF0613
:1045C0001F075F1FBD1E7F1FFE161E173E175E17BB
:1045D0001F0FFF0EFF0EBF060000000000000000CE
:1045E00000000000000000000000000000000000CB
:1045F00000000000000000000000000000000000BB
:1046000000000000000000000000000000000000AA
:10461000000000000000000000000000000000009A
:1049E000FF071F461F461F461F461F461F461F46FE
:1049F0001F461F461F461F461F461F461F461F468F
:104A00001F461F461F461F461F461F461F461F467E
:104A10001F461F461F461F461F461F461F461F466E
:104A20001F461F461F461F461F461F461F461F465E
:104A30001F461F461F461F461F461F461F461F464E
:104A40001F461F461F461F461F461F461F461F463E
:104A50001F461F461F461F461F461F461F461F462E
:104A60001F461F461F461F461F461F461F461F461E
:104A70001F461F461F461F461F461F461F461F460E
:104A80001F461F461F461F461F461F461F461F46FE
:104A90001F461F461F461F461F461F461F461F46EE
:104AA0001F461F461F461F461F461F461F461F46DE
:104AB0001F461F461F461F461F461F461F461F46CE
:104AC0001F461F461F461F461F461F461F461F46BE
:104AD0001F461F461F467F36FB2E5D379E47BD474C
:104AE000DE47DD47DD47DC47DD47BD3F7D3FFB4E11
:104AF0001F461F461F461F461F461F461F461F468E
:104B00001F461F461F461F461F467F1E3F171F1783
:104B1000FF163F171F1FFE16DE163E171E17FE1646
:104B2000DD1E5D1F5D1F3C271F27BF2EBF2E7F365A
:104B30001F461F461F461F461F461F461F46FF07AC
:104B4000FF07FF07FF07FF07FF07FF07FF07FF0735
:104B5000FF07FF07FF07FF07FF07FF07FF07FF0725
:104B6000FF07FF07FF07FF07FF07FF07FF07FF0715
:104B7000FF07FF07FF07FF07FF07FF07FF07FF0705
:104B8000FF07FF07FF07FF07FF07FF07FF07FF07F5
:104B9000FF07FF07FF07FF070000000000000000FD
:104BA0000000000000000000000000000000000005
:104BB00000000000000000000000000000000000F5
:104BC00000000000000000000000000000000000E5
:104BD00000000000000000000000000000000000D5
:104BE00000000000000000000000000000000000C5
:104BF0000000FF07FF07FF07FF07FF07BF06FF06CD
:104C00001F075F1FBD1E7F1FFE161E173E175E1774
:104C10001F0FFF0EFF0EBF06000000000000000087
:104C20000000000000000000000000000000000084
:104C30000000000000000000000000000000000074
:104C40000000000000000000000000000000000064
:104C50000000000000000000000000000000000054
:104C60000000000000000000000000000000000044
:104C70000000000000000000000000000000000034
:104C80000000000000000000000000000000000024
:104C90000000000000000000000000000000000014
:104CA0000000000000000000000000000000000004
:104CB00000000000000000000000000000000000F4
:104CC00000000000000000000000000000000000E4
:104CD00000000000000000000000000000000000D4
:104CE00000000000000000000000000000000000C4
:104CF00000000000000000000000000000000000B4
:104D000000000000000000000000000000000000A3
:104D10000000000000000000000000000000000093
:104D20000000000000000000000000000000000083
:104D30000000000000000000000000000000000073
:104D40000000000000000000000000000000000063
:104D50000000000000000000000000000000000053
:104D60000000000000000000000000000000000043
:104D70000000000000000000000000000000000033
:104D80000000000000000000000000000000000023
:104D90000000000000000000000000000000000013
:104DA0000000000000000000000000000000000003
:104DB0000000000000000000000000000000FF07ED
:104DC000FF07FF07FF07FF07FF07FF07FF07FF07B3
:104DD000FF07FF07FF07FF07FF07FF07FF07FF07A3
:104DE000FF07FF07FF07FF07FF07FF07FF07FF0793
:104DF000FF07FF07FF07FF07FF07FF07FF07FF0783
:105110001F461F461F467F361C277D47BD47DE477B
:10512000DD47DE47DD47DD47DE479E475D377F369B
:105130001F461F461F461F461F461F461F461F4647
:105140001F461F461F461F461F467F1E3F171F173D
:10515000FF163F171F1FFE16DE163E171E17FE1600
:10516000DD1E5D1F5D1F3C271F27BF2EBF2E7F3614
:105170001F461F461F461F461F461F461F46FF0766
:10518000FF07FF07FF07FF07FF07FF07FF07FF07EF
:10519000FF07FF07FF07FF07FF07FF07FF07FF07DF
:1051A000FF07FF07FF07FF07FF07FF07FF07FF07CF
:1051B000FF07FF07FF07FF07FF07FF07FF07FF07BF
:1051C000FF07FF07FF07FF07FF07FF07FF07FF07AF
:1051D000FF07FF07FF07FF070000000000000000B7
:1051E00000000000000000000000000000000000BF
:1051F00000000000000000000000000000000000AF
:10520000000000000000000000000000000000009E
:10521000000000000000000000000000000000008E
:10522000000000000000000000000000000000007E
:105230000000FF07FF07FF07FF07FF07BF06FF0686
:105240001F075F1FBD1E7F1FFE161E173E175E172E
:105250001F0FFF0EFF0EBF06000000000000000041
:10526000000000000000000000000000000000003E
:10527000000000000000000000000000000000002E
:10528000000000000000000000000000000000001E
:10529000000000000000000000000000000000000E
:1052A00000000000000000000000000000000000FE
:1052B00000000000000000000000000000000000EE
:1052C00000000000000000000000000000000000DE
:1052D00000000000000000000000000000000000CE
:1052E00000000000000000000000000000000000BE
:1052F00000000000000000000000000000000000AE
:10530000000000000000000000000000000000009D
:10531000000000000000000000000000000000008D
:10532000000000000000000000000000000000007D
:10533000000000000000000000000000000000006D
:10534000000000000000000000000000000000005D
:10535000000000000000000000000000000000004D
:10536000000000000000000000000000000000003D
:10537000000000000000000000000000000000002D
:10538000000000000000000000000000000000001D
:10539000000000000000000000000000000000000D
:1053A00000000000000000000000000000000000FD
:1053B00000000000000000000000000000000000ED
:1053C00000000000000000000000000000000000DD
:1053D00000000000000000000000000000000000CD
:1053E00000000000000000000000000000000000BD
:1053F0000000000000000000000000000000FF07A7
:10540000FF07FF07FF07FF07FF07FF07FF07FF076C
:10541000FF07FF07FF07FF07FF07FF07FF07FF075C
:10542000FF07FF07FF07FF07FF07FF07FF07FF074C
:10543000FF07FF07FF07FF07FF07FF07FF07FF073C
:10565000FF07FF07FF07FF07FF07FF07FF071F46BB
:105660001F461F461F461F461F461F461F461F4612
:105670001F461F461F461F461F461F461F461F4602
:105680001F461F461F461F461F461F461F461F46F2
:105690001F461F461F461F461F461F461F461F46E2
:1056A0001F461F461F461F461F461F461F461F46D2
:1056B0001F461F461F461F461F461F461F461F46C2
:1056C0001F461F461F461F461F461F461F461F46B2
:1056D0001F461F461F461F461F461F461F461F46A2
:1056E0001F461F461F461F461F461F461F461F4692
:1056F0001F461F461F461F461F461F461F461F4682
:105700001F461F461F461F461F461F461F461F4671
:105710001F461F461F461F461F461F461F461F4661
:105720001F461F461F461F461F461F461F461F4651
:105730001F461F461F461F461F461F461F461F4641
:105740001F461F461F461F461F461F461F461F4631
:105750001F461F467F36FB2E5D379E4FBD47DD47F8
:10576000DD4FDD47DD47DD47BD4F7D3FFF2E7F36F7
:105770001F461F461F461F461F461F461F461F4601
:105780001F461F461F461F461F467F1E3F171F17F7
:10579000FF163F171F1FFE16DE163E171E17FE16BA
:1057A000DD1E5D1F5D1F3C271F27BF2EBF2E7F36CE
:1057B0001F461F461F461F461F461F46FF07FF077F
:1057C000FF07FF07FF07FF07FF07FF07FF07FF07A9
:1057D000FF07FF07FF07FF07FF07FF07FF07FF0799
:1057E000FF07FF07FF07FF07FF07FF07FF07FF0789
:1057F000FF07FF07FF07FF07FF07FF07FF07FF0779
:10580000FF07FF07FF07FF07FF07FF07FF07FF0768
:10581000FF07FF07FF07FF07000000000000000070
:105820000000000000000000000000000000000078
:105830000000000000000000000000000000000068
:105840000000000000000000000000000000000058
:105850000000000000000000000000000000000048
:105860000000000000000000000000000000000038
:105870000000FF07FF07FF07FF07FF07BF06FF0640
:105880001F075F1FBD1E7F1FFE161E173E175E17E8
:105890001F0FFF0EFF0EBF060000000000000000FB
:1058A00000000000000000000000000000000000F8
:1058B00000000000000000000000000000000000E8
:1058C00000000000000000000000000000000000D8
:1058D00000000000000000000000000000000000C8
:1058E00000000000000000000000000000000000B8
:1058F00000000000000000000000000000000000A8
:105900000000000000000000000000000000000097
:105910000000000000000000000000000000000087
:105920000000000000000000000000000000000077
:105930000000000000000000000000000000000067
:105940000000000000000000000000000000000057
:105950000000000000000000000000000000000047
:105960000000000000000000000000000000000037
:105970000000000000000000000000000000000027
:105980000000000000000000000000000000000017
:105990000000000000000000000000000000000007
:1059A00000000000000000000000000000000000F7
:1059B00000000000000000000000000000000000E7
:1059C00000000000000000000000000000000000D7
:1059D00000000000000000000000000000000000C7
:1059E00000000000000000000000000000000000B7
:1059F00000000000000000000000000000000000A7
:105A00000000000000000000000000000000000096
:105A10000000000000000000000000000000000086
:105A20000000000000000000000000000000000076
:105A30000000000000000000000000000000FF0760
:105A4000FF07FF07FF07FF07FF07FF07FF07FF0726
:105A5000FF07FF07FF07FF07FF07FF07FF07FF0716
:105A6000FF07FF07FF07FF07FF07FF07FF07FF0706
:105A7000FF07FF07FF07FF07FF07FF07FF07FF07F6
:105C9000FF07FF07FF07FF07FF07FF071F461F4616
:105CA0001F461F461F461F461F461F461F461F46CC
:105CB0001F461F461F461F461F461F461F461F46BC
:105CC0001F461F461F461F461F461F461F461F46AC
:105CD0001F461F461F461F461F461F461F461F469C
:105CE0001F461F461F461F461F461F461F461F468C
:105CF0001F461F461F461F461F461F461F461F467C
:105D00001F461F461F461F461F461F461F461F466B
:105D10001F461F461F461F461F461F461F461F465B
:105D20001F461F461F461F461F461F461F461F464B
:105D30001F461F461F461F461F461F461F461F463B
:105D40001F461F461F461F461F461F461F461F462B
:105D50001F461F461F461F461F461F461F461F461B
:105D60001F461F461F461F461F461F461F461F460B
:105D70001F461F461F461F461F461F461F461F46FB
:105D80001F461F461F461F461F461F461F461F46EB
:105D90001F461F467F361C477D47BD47DC47DD4712
:105DA000DD47DD47DD47DD479E475F377F361F46CE
:105DB0001F461F461F461F461F461F461F461F46BB
:105DC0001F461F461F461F461F467F1E3F171F17B1
:105DD000FF163F171F1FFE16DE163E171E17FE1674
:105DE000DD1E5D1F5D1F3C271F27BF2EBF2E7F3688
:105DF0001F461F461F461F461F46FF07FF07FF0798
:105E0000FF07FF07FF07FF07FF07FF07FF07FF0762
:105E1000FF07FF07FF07FF07FF07FF07FF07FF0752
:105E2000FF07FF07FF07FF07FF07FF07FF07FF0742
:105E3000FF07FF07FF07FF07FF07FF07FF07FF0732
:105E4000FF07FF07FF07FF07FF07FF07FF07FF0722
:105E5000FF07FF07FF07FF0700000000000000002A
:105E60000000000000000000000000000000000032
:105E70000000000000000000000000000000000022
:105E80000000000000000000000000000000000012
:105E90000000000000000000000000000000000002
:105EA00000000000000000000000000000000000F2
:105EB0000000FF07FF07FF07FF07FF07BF06FF06FA
:105EC0001F075F1FBD1E7F1FFE161E173E175E17A2
:105ED0001F0FFF0EFF0EBF060000000000000000B5
:105EE00000000000000000000000000000000000B2
:105EF00000000000000000000000000000000000A2
:105F00000000000000000000000000000000000091
:105F10000000000000000000000000000000000081
:105F20000000000000000000000000000000000071
:105F30000000000000000000000000000000000061
:105F40000000000000000000000000000000000051
:105F50000000000000000000000000000000000041
:105F60000000000000000000000000000000000031
:105F70000000000000000000000000000000000021
:105F80000000000000000000000000000000000011
:105F90000000000000000000000000000000000001
:105FA00000000000000000000000000000000000F1
:105FB00000000000000000000000000000000000E1
:105FC00000000000000000000000000000000000D1
:105FD00000000000000000000000000000000000C1
:105FE00000000000000000000000000000000000B1
:105FF00000000000000000000000000000000000A1
:106000000000000000000000000000000000000090
:106010000000000000000000000000000000000080
:106020000000000000000000000000000000000070
:106030000000000000000000000000000000000060
:106040000000000000000000000000000000000050
:106050000000000000000000000000000000000040
:106060000000000000000000000000000000000030
:106070000000000000000000000000000000FF071A
:10608000FF07FF07FF07FF07FF07FF07FF07FF07E0
:10609000FF07FF07FF07FF07FF07FF07FF07FF07D0
:1060A000FF07FF07FF07FF07FF07FF07FF07FF07C0
:1060B000FF07FF07FF07FF07FF07FF07FF07FF07B0
:1062D000FF07FF07FF07FF07FF071F461F461F4671
:1062E0001F461F461F461F461F461F461F461F4686
:1062F0001F461F461F461F461F461F461F461F4676
:106300001F461F461F461F461F461F461F461F4665
:106310001F461F461F461F461F461F461F461F4655
:106320001F461F461F461F461F461F461F461F4645
:106330001F461F461F461F461F461F461F461F4635
:106340001F461F461F461F461F461F461F461F4625
:106350001F461F461F461F461F461F461F461F4615
:106360001F461F461F461F461F461F461F461F4605
:106370001F461F461F461F461F461F461F461F46F5
:106380001F461F461F461F461F461F461F461F46E5
:106390001F461F461F461F461F461F461F461F46D5
:1063A0001F461F461F461F461F461F461F461F46C5
:1063B0001F461F461F461F461F461F461F461F46B5
:1063C0001F461F461F461F461F461F461F461F46A5
:1063D0001F467F36BF2E5D379E4FBD47DD47DD47E9
:1063E000DD47DD47DD47BD477E3F1F471F461F4650
:1063F0001F461F461F461F461F461F461F461F4675
:106400001F461F461F461F461F467F1E3F171F176A
:10641000FF163F171F1FFE16DE163E171E17FE162D
:10642000DD1E5D1F5D1F3C271F27BF2EBF2E7F3641
:106430001F461F461F461F461F46FF07FF07FF0751
:10644000FF07FF07FF07FF07FF07FF07FF07FF071C
:10645000FF07FF07FF07FF07FF07FF07FF07FF070C
:10646000FF07FF07FF07FF07FF07FF07FF07FF07FC
:10647000FF07FF07FF07FF07FF07FF07FF07FF07EC
:10648000FF07FF07FF07FF07FF07FF07FF07FF07DC
:10649000FF07FF07FF07FF070000000000000000E4
:1064A00000000000000000000000000000000000EC
:1064B00000000000000000000000000000000000DC
:1064C00000000000000000000000000000000000CC
:1064D00000000000000000000000000000000000BC
:1064E00000000000000000000000000000000000AC
:1064F0000000FF07FF07FF07FF07FF07BF06FF06B4
:106500001F075F1FBD1E7F1FFE161E173E175E175B
:106510001F0FFF0EFF0EBF0600000000000000006E
:10652000000000000000000000000000000000006B
:10653000000000000000000000000000000000005B
:10654000000000000000000000000000000000004B
:10655000000000000000000000000000000000003B
:10656000000000000000000000000000000000002B
:10657000000000000000000000000000000000001B
:10658000000000000000000000000000000000000B
:1065900000000000000000000000000000000000FB
:1065A00000000000000000000000000000000000EB
:1065B00000000000000000000000000000000000DB
:1065C00000000000000000000000000000000000CB
:1065D00000000000000000000000000000000000BB
:1065E00000000000000000000000000000000000AB
:1065F000000000000000000000000000000000009B
:10660000000000000000000000000000000000008A
:10661000000000000000000000000000000000007A
:10662000000000000000000000000000000000006A
:10663000000000000000000000000000000000005A
:10664000000000000000000000000000000000004A
:10665000000000000000000000000000000000003A
:10666000000000000000000000000000000000002A
:10667000000000000000000000000000000000001A
:10668000000000000000000000000000000000000A
:1066900000000000000000000000000000000000FA
:1066A00000000000000000000000000000000000EA
:1066B0000000000000000000000000000000FF07D4
:1066C000FF07FF07FF07FF07FF07FF07FF07FF079A
:1066D000FF07FF07FF07FF07FF07FF07FF07FF078A
:1066E000FF07FF07FF07FF07FF07FF07FF07FF077A
:1066F000FF07FF07FF07FF07FF07FF07FF07FF076A
:10691000FF07FF07FF07FF071F461F461F461F46CB
:106920001F461F461F461F461F461F461F461F463F
:106930001F461F461F461F461F461F461F461F462F
:106940001F461F461F461F461F461F461F461F461F
:106950001F461F461F461F461F461F461F461F460F
:106960001F461F461F461F461F461F461F461F46FF
:106970001F461F461F461F461F461F461F461F46EF
:106980001F461F461F461F461F461F461F461F46DF
:106990001F461F461F461F461F461F461F461F46CF
:1069A0001F461F461F461F461F461F461F461F46BF
:1069B0001F461F461F461F461F461F461F461F46AF
:1069C0001F461F461F461F461F461F461F461F469F
:1069D0001F461F461F461F461F461F461F461F468F
:1069E0001F461F461F461F461F461F461F461F467F
:1069F0001F461F461F461F461F461F461F461F466F
:106A00001F461F461F461F461F461F461F461F465E
:106A10001F467F36FF2E7D47BD47DD47DD47DD47FB
:106A2000DD47DD47DD47BE475D37FB2E1F461F466E
:106A30001F461F461F461F461F461F461F461F462E
:106A40001F461F461F461F461F467F1E3F171F1724
:106A5000FF163F171F1FFE16DE163E171E17FE16E7
:106A6000DD1E5D1F5D1F3C271F27BF2EBF2E7F36FB
:106A70001F461F461F461F461F46FF07FF07FF070B
:106A8000FF07FF07FF07FF07FF07FF07FF07FF07D6
:106A9000FF07FF07FF07FF07FF07FF07FF07FF07C6
:106AA000FF07FF07FF07FF07FF07FF07FF07FF07B6
:106AB000FF07FF07FF07FF07FF07FF07FF07FF07A6
:106AC000FF07FF07FF07FF07FF07FF07FF07FF0796
:106AD000FF07FF07FF07FF0700000000000000009E
:106AE00000000000000000000000000000000000A6
:106AF0000000000000000000000000000000000096
:106B00000000000000000000000000000000000085
:106B10000000000000000000000000000000000075
:106B20000000000000000000000000000000000065
:106B30000000FF07FF07FF07FF07FF07BF06FF066D
:106B40001F075F1FBD1E7F1FFE161E173E175E1715
:106B50001F0FFF0EFF0EBF06000000000000000028
:106B60000000000000000000000000000000000025
:106B70000000000000000000000000000000000015
:106B80000000000000000000000000000000000005
:106B900000000000000000000000000000000000F5
:106BA00000000000000000000000000000000000E5
:106BB00000000000000000000000000000000000D5
:106BC00000000000000000000000000000000000C5
:106BD00000000000000000000000000000000000B5
:106BE00000000000000000000000000000000000A5
:106BF0000000000000000000000000000000000095
:106C00000000000000000000000000000000000084
:106C10000000000000000000000000000000000074
:106C20000000000000000000000000000000000064
:106C30000000000000000000000000000000000054
:106C40000000000000000000000000000000000044
:106C50000000000000000000000000000000000034
:106C60000000000000000000000000000000000024
:106C70000000000000000000000000000000000014
:106C80000000000000000000000000000000000004
:106C900000000000000000000000000000000000F4
:106CA00000000000000000000000000000000000E4
:106CB00000000000000000000000000000000000D4
:106CC00000000000000000000000000000000000C4
:106CD00000000000000000000000000000000000B4
:106CE00000000000000000000000000000000000A4
:106CF0000000000000000000000000000000FF078E
:106D0000FF07FF07FF07FF07FF07FF07FF07FF0753
:106D1000FF07FF07FF07FF07FF07FF07FF07FF0743
:106D2000FF07FF07FF07FF07FF07FF07FF07FF0733
:106D3000FF07FF07FF07FF07FF07FF07FF07FF0723
:106F5000FF071F461F461F461F461F461F461F4668
:106F60001F461F461F461F461F461F461F461F46F9
:106F70001F461F461F461F461F461F461F461F46E9
:106F80001F461F461F461F461F461F461F461F46D9
:106F90001F461F461F461F461F461F461F461F46C9
:106FA0001F461F461F461F461F461F461F461F46B9
:106FB0001F461F461F461F461F461F461F461F46A9
:106FC0001F461F461F461F461F461F461F461F4699
:106FD0001F461F461F461F461F461F461F461F4689
:106FE0001F461F461F461F461F461F461F461F4679
:106FF0001F461F461F461F461F461F461F461F4669
:107000001F461F461F461F461F461F461F461F4658
:107010001F461F461F461F461F461F461F461F4648
:107020001F461F461F461F461F461F461F461F4638
:107030001F461F461F461F461F461F461F461F4628
:107040001F461F461F461F461F461F461F461F4618
:107050007F36BF2E3C3F9E4FBD4FDD47DD47DE47AD
:10706000DD47DD47BC479C37FF2E7F361F461F4656
:107070001F461F461F461F461F461F461F461F46E8
:107080001F461F461F461F461F467F1E3F171F17DE
:10709000FF163F171F1FFE16DE163E171E17FE16A1
:1070A000DD1E5D1F5D1F3C271F27BF2EBF2E7F36B5
:1070B0001F461F461F461F461F46FF07FF07FF07C5
:1070C000FF07FF07FF07FF07FF07FF07FF07FF0790
:1070D000FF07FF07FF07FF07FF07FF07FF07FF0780
:1070E000FF07FF07FF07FF07FF07FF07FF07FF0770
:1070F000FF07FF07FF07FF07FF07FF07FF07FF0760
:10710000FF07FF07FF07FF07FF07FF07FF07FF074F
:10711000FF07FF07FF07FF07000000000000000057
:10712000000000000000000000000000000000005F
:10713000000000000000000000000000000000004F
:10714000000000000000000000000000000000003F
:10715000000000000000000000000000000000002F
:10716000000000000000000000000000000000001F
:107170000000FF07FF07FF07FF07FF07BF06FF0627
:107180001F075F1FBD1E7F1FFE161E173E175E17CF
:107190001F0FFF0EFF0EBF060000000000000000E2
:1071A00000000000000000000000000000000000DF
:1071B00000000000000000000000000000000000CF
:1071C00000000000000000000000000000000000BF
:1071D00000000000000000000000000000000000AF
:1071E000000000000000000000000000000000009F
:1071F000000000000000000000000000000000008F
:10720000000000000000000000000000000000007E
:10721000000000000000000000000000000000006E
:10722000000000000000000000000000000000005E
:10723000000000000000000000000000000000004E
:10724000000000000000000000000000000000003E
:10725000000000000000000000000000000000002E
:10726000000000000000000000000000000000001E
:10727000000000000000000000000000000000000E
:1072800000000000000000000000000000000000FE
:1072900000000000000000000000000000000000EE
:1072A00000000000000000000000000000000000DE
:1072B00000000000000000000000000000000000CE
:1072C00000000000000000000000000000000000BE
:1072D00000000000000000000000000000000000AE
:1072E000000000000000000000000000000000009E
:1072F000000000000000000000000000000000008E
:10730000000000000000000000000000000000007D
:10731000000000000000000000000000000000006D
:10732000000000000000000000000000000000005D
:107330000000000000000000000000000000FF0747
:10734000FF07FF07FF07FF07FF07FF07FF07FF070D
:10735000FF07FF07FF07FF07FF07FF07FF07FF07FD
:10736000FF07FF07FF07FF07FF07FF07FF07FF07ED
:10737000FF07FF07FF07FF07FF07FF07FF07FF07DD
:10759000FF071F461F461F461F461F461F461F4622
:1075A0001F461F461F461F461F461F461F461F46B3
:1075B0001F461F461F461F461F461F461F461F46A3
:1075C0001F461F461F461F461F461F461F461F4693
:1075D0001F461F461F461F461F461F461F461F4683
:1075E0001F461F461F461F461F461F461F461F4673
:1075F0001F461F461F461F461F461F461F461F4663
:107600001F461F461F461F461F461F461F461F4652
:107610001F461F461F461F461F461F461F461F4642
:107620001F461F461F461F461F461F461F461F4632
:107630001F461F461F461F461F461F461F461F4622
:107640001F461F461F461F461F461F461F461F4612
:107650001F461F461F461F461F461F461F461F4602
:107660001F461F461F461F461F461F461F461F46F2
:107670001F461F461F461F461F461F461F461F46E2
:107680001F461F461F461F461F461F461F467F3682
:107690007F361F477D2FBD47BD4FDD47DD4FDD479F
:1076A000DD47DD47BD475F4F7F367F361F461F46AC
:1076B0001F461F461F461F461F461F461F461F46A2
:1076C0001F461F461F461F461F467F1E3F171F1798
:1076D000FF163F171F1FFE16DE163E171E17FE165B
:1076E000DD1E5D1F5D1F3C271F27BF2EBF2E7F366F
:1076F0001F461F461F461F46FF07FF07FF07FF07DE
:10770000FF07FF07FF07FF07FF07FF07FF07FF0749
:10771000FF07FF07FF07FF07FF07FF07FF07FF0739
:10772000FF07FF07FF07FF07FF07FF07FF07FF0729
:10773000FF07FF07FF07FF07FF07FF07FF07FF0719
:10774000FF07FF07FF07FF07FF07FF07FF07FF0709
:10775000FF07FF07FF07FF07000000000000000011
:107760000000000000000000000000000000000019
:107770000000000000000000000000000000000009
:1077800000000000000000000000000000000000F9
:1077900000000000000000000000000000000000E9
:1077A00000000000000000000000000000000000D9
:1077B0000000FF07FF07FF07FF07FF07BF06FF06E1
:1077C0001F075F1FBD1E7F1FFE161E173E175E1789
:1077D0001F0FFF0EFF0EBF0600000000000000009C
:1077E0000000000000000000000000000000000099
:1077F0000000000000000000000000000000000089
:107800000000000000000000000000000000000078
:107810000000000000000000000000000000000068
:107820000000000000000000000000000000000058
:107830000000000000000000000000000000000048
:107840000000000000000000000000000000000038
:107850000000000000000000000000000000000028
:107860000000000000000000000000000000000018
:107870000000000000000000000000000000000008
:1078800000000000000000000000000000000000F8
:1078900000000000000000000000000000000000E8
:1078A00000000000000000000000000000000000D8
:1078B00000000000000000000000000000000000C8
:1078C00000000000000000000000000000000000B8
:1078D00000000000000000000000000000000000A8
:1078E0000000000000000000000000000000000098
:1078F0000000000000000000000000000000000088
:107900000000000000000000000000000000000077
:107910000000000000000000000000000000000067
:107920000000000000000000000000000000000057
:107930000000000000000000000000000000000047
:107940000000000000000000000000000000000037
:107950000000000000000000000000000000000027
:107960000000000000000000000000000000000017
:107970000000000000000000000000000000FF0701
:10798000FF07FF07FF07FF07FF07FF07FF07FF07C7
:10799000FF07FF07FF07FF07FF07FF07FF07FF07B7
:1079A000FF07FF07FF07FF07FF07FF07FF07FF07A7
:1079B000FF07FF07FF07FF07FF07FF07FF07FF0797
:107CC0001F461F461F461F461F461F467F367F36EC
:107CD000BF2E5D379E37BD47DE4FDD47DD47DD47B1
:107CE000DD47BC479E4F3C3F1F461F461F461F4671
:107CF0001F461F461F461F461F461F461F461F465C
:107D00001F461F461F461F461F467F1E3F171F1751
:107D1000FF163F171F1FFE16DE163E171E17FE1614
:107D2000DD1E5D1F5D1F3C271F27BF2EBF2E7F3628
:107D30001F461F461F461F46FF07FF07FF07FF0797
:107D4000FF07FF07FF07FF07FF07FF07FF07FF0703
:107D5000FF07FF07FF07FF07FF07FF07FF07FF07F3
:107D6000FF07FF07FF07FF07FF07FF07FF07FF07E3
:107D7000FF07FF07FF07FF07FF07FF07FF07FF07D3
:107D8000FF07FF07FF07FF07FF07FF07FF07FF07C3
:107D9000FF07FF07FF07FF070000000000000000CB
:107DA00000000000000000000000000000000000D3
:107DB00000000000000000000000000000000000C3
:107DC00000000000000000000000000000000000B3
:107DD00000000000000000000000000000000000A3
:107DE0000000000000000000000000000000000093
:107DF0000000FF07FF07FF07FF07FF07BF06FF069B
:107E00001F075F1FBD1E7F1FFE161E173E175E1742
:107E10001F0FFF0EFF0EBF06000000000000000055
:107E20000000000000000000000000000000000052
:107E30000000000000000000000000000000000042
:107E40000000000000000000000000000000000032
:107E50000000000000000000000000000000000022
:107E60000000000000000000000000000000000012
:107E70000000000000000000000000000000000002
:107E800000000000000000000000000000000000F2
:107E900000000000000000000000000000000000E2
:107EA00000000000000000000000000000000000D2
:107EB00000000000000000000000000000000000C2
:107EC00000000000000000000000000000000000B2
:107ED00000000000000000000000000000000000A2
:107EE0000000000000000000000000000000000092
:107EF0000000000000000000000000000000000082
:107F00000000000000000000000000000000000071
:107F10000000000000000000000000000000000061
:107F20000000000000000000000000000000000051
:107F30000000000000000000000000000000000041
:107F40000000000000000000000000000000000031
:107F50000000000000000000000000000000000021
:107F60000000000000000000000000000000000011
:107F70000000000000000000000000000000000001
:107F800000000000000000000000000000000000F1
:107F900000000000000000000000000000000000E1
:107FA00000000000000000000000000000000000D1
:107FB000000000000000000000000000FF07FF07B5
:107FC000FF07FF07FF07FF07FF07FF07FF07FF0781
:107FD000FF07FF07FF07FF07FF07FF07FF07FF0771
:107FE000FF07FF07FF07FF07FF07FF07FF07FF0761
:107FF000FF07FF07FF07FF07FF07FF07FF07FF0751
:10820000FF07FF07FF07FF07FF071F461F461F4621
:108210001F461F461F461F461F461F461F461F4636
:108220001F461F461F461F461F461F461F461F4626
:108230001F461F461F461F461F461F461F461F4616
:108240001F461F461F461F461F461F461F461F4606
:108250001F461F461F461F461F461F461F461F46F6
:108260001F461F461F461F461F461F461F461F46E6
:108270001F461F461F461F461F461F461F461F46D6
:108280001F461F461F461F461F461F461F461F46C6
:108290001F461F461F461F461F461F461F461F46B6
:1082A0001F461F461F461F461F461F461F461F46A6
:1082B0001F461F461F461F461F461F461F461F4696
:1082C0001F461F461F461F461F461F461F461F4686
:1082D0001F461F461F461F461F461F461F461F4676
:1082E0001F461F461F461F461F461F461F461F4666
:1082F0001F461F461F461F461F461F461F461F4656
:108300001F461F461F461F461F461F467F36BF2E6D
:108310001C277D3FBD3FDE47DD47DD47DD47DD47AD
:10832000DD47BD475F37FF2E1F461F461F461F46CE
:108330001F461F461F461F461F461F461F461F4615
:108340001F461F461F461F461F467F1E3F171F170B
:10835000FF163F171F1FFE16DE163E171E17FE16CE
:10836000DD1E5D1F5D1F3C271F27BF2EBF2E7F36E2
:108370001F461F461F461F46FF07FF07FF07FF0751
:10838000FF07FF07FF07FF07FF07FF07FF07FF07BD
:10839000FF07FF07FF07FF07FF07FF07FF07FF07AD
:1083A000FF07FF07FF07FF07FF07FF07FF07FF079D
:1083B000FF07FF07FF07FF07FF07FF07FF07FF078D
:1083C000FF07FF07FF07FF07FF07FF07FF07FF077D
:1083D000FF07FF07FF07FF07000000000000000085
:1083E000000000000000000000000000000000008D
:1083F000000000000000000000000000000000007D
:10840000000000000000000000000000000000006C
:10841000000000000000000000000000000000005C
:10842000000000000000000000000000000000004C
:108430000000FF07FF07FF07FF07FF07BF06FF0654
:108440001F075F1FBD1E7F1FFE161E173E175E17FC
:108450001F0FFF0EFF0EBF0600000000000000000F
:10846000000000000000000000000000000000000C
:1084700000000000000000000000000000000000FC
:1084800000000000000000000000000000000000EC
:1084900000000000000000000000000000000000DC
:1084A00000000000000000000000000000000000CC
:1084B00000000000000000000000000000000000BC
:1084C00000000000000000000000000000000000AC
:1084D000000000000000000000000000000000009C
:1084E000000000000000000000000000000000008C
:1084F000000000000000000000000000000000007C
:10850000000000000000000000000000000000006B
:10851000000000000000000000000000000000005B
:10852000000000000000000000000000000000004B
:10853000000000000000000000000000000000003B
:10854000000000000000000000000000000000002B
:10855000000000000000000000000000000000001B
:10856000000000000000000000000000000000000B
:1085700000000000000000000000000000000000FB
:1085800000000000000000000000000000000000EB
:1085900000000000000000000000000000000000DB
:1085A00000000000000000000000000000000000CB
:1085B00000000000000000000000000000000000BB
:1085C00000000000000000000000000000000000AB
:1085D000000000000000000000000000000000009B
:1085E000000000000000000000000000000000008B
:1085F00000000000000000000000FF07FF07FF0769
:10860000FF07FF07FF07FF07FF07FF07FF07FF073A
:10861000FF07FF07FF07FF07FF07FF07FF07FF072A
:10862000FF07FF07FF07FF07FF07FF07FF07FF071A
:10863000FF07FF07FF07FF07FF07FF07FF07FF070A
:10884000FF07FF07FF07FF071F461F461F461F467C
:108850001F461F461F461F461F461F461F461F46F0
:108860001F461F461F461F461F461F461F461F46E0
:108870001F461F461F461F461F461F461F461F46D0
:108880001F461F461F461F461F461F461F461F46C0
:108890001F461F461F461F461F461F461F461F46B0
:1088A0001F461F461F461F461F461F461F461F46A0
:1088B0001F461F461F461F461F461F461F461F4690
:1088C0001F461F461F461F461F461F461F461F4680
:1088D0001F461F461F461F461F461F461F461F4670
:1088E0001F461F461F461F461F461F461F461F4660
:1088F0001F461F461F461F461F461F461F461F4650
:108900001F461F461F461F461F461F461F461F463F
:108910001F461F461F461F461F461F461F461F462F
:108920001F461F461F461F461F461F461F461F461F
:108930001F461F461F461F461F461F461F461F460F
:108940001F461F461F461F461F461F467F36FB2EEB
:108950005D379E47BC47DD47DD47DD47DD47DE4FDE
:10896000BD479E4F3C3FBF2E1F461F461F461F461A
:108970001F461F461F461F461F461F461F461F46CF
:108980001F461F461F461F461F467F1E3F171F17C5
:10899000FF163F171F1FFE16DE163E171E17FE1688
:1089A000DD1E5D1F5D1F3C271F27BF2EBF2E7F369C
:1089B0001F461F461F46FF07FF07FF07FF07FF076A
:1089C000FF07FF07FF07FF07FF07FF07FF07FF0777
:1089D000FF07FF07FF07FF07FF07FF07FF07FF0767
:1089E000FF07FF07FF07FF07FF07FF07FF07FF0757
:1089F000FF07FF07FF07FF07FF07FF07FF07FF0747
:108A0000FF07FF07FF07FF07FF07FF07FF07FF0736
:108A1000FF07FF07FF07FF0700000000000000003E
:108A20000000000000000000000000000000000046
:108A30000000000000000000000000000000000036
:108A40000000000000000000000000000000000026
:108A50000000000000000000000000000000000016
:108A60000000000000000000000000000000000006
:108A70000000FF07FF07FF07FF07FF07BF06FF060E
:108A80001F075F1FBD1E7F1FFE161E173E175E17B6
:108A90001F0FFF0EFF0EBF060000000000000000C9
:108AA00000000000000000000000000000000000C6
:108AB00000000000000000000000000000000000B6
:108AC00000000000000000000000000000000000A6
:108AD0000000000000000000000000000000000096
