:020000040800F2
:100000000000022083000008810000088100000831
:100010008100000881000008810000080000000045
:100020000000000000000000000000008100000847
:100030008100000800000000810000088100000825
:10004000810000088100000881000008810000088C
:10005000810000088100000881000008810000087C
:10006000810000088100000881000008810000086C
:10007000810000088100000881000008810000085C
:10008000FEE726482649274A914205D050F8043B0E
:1000900041F8043B9142F9D1234824494FF0000232
:1000A000884203D040F8042B8842FBD100F040F88E
:1000B000FEE7034B1A681206FCD55860704700BF74
:1000C0000010014008B5411E11F8010F00B908BD2C
:1000D000FFF7EFFFF8E7054B9A689107FCD5187317
:1000E0009A68D207FCD5187B704700BF00300140EA
:1000F00010B5094C4FF08043C4F818340520FFF7C1
:10010000EAFFFF20FFF7E7FFC307FAD44FF480436D
:10011000C4F8183410BD00BF0000024090A50708C5
:10012000000000200000002000000020000000204F
:100130002DE9F04FA14EA24CD6F83038A148A24D7F
:10014000A24F43F0010385B0C6F83038D6F84438E2
:1001500043F01003C6F84438236823F47013236077
:10016000236843F420132360636A23F47F6343F41A
:10017000EE636362A36843F42013A360944B8B2265
:100180009A6042F20C02DA60FFF79CFFD6F8303832
:10019000904843F04203C6F83038D6F8443843F468
:1001A0008053C6F84438D4F8003423F0405323F485
:1001B0007C63C4F80034D4F8003443F0805343F433
:1001C0002863C4F80034D4F820346FF31733C4F82C
:1001D0002034D4F8203443F4AA0343F4A043C4F8F1
:1001E0002034D4F80C3443F08053C4F80C34D5F8E0
:1001F0000C3843F48043C5F80C38D5F8003823F4A4
:10020000404343F48043C5F800384FF48043C4F8BA
:1002100018348023C5F818386F4B40F24F321A60FB
:10022000D6F8303843F02003C6F83038D5F800341B
:100230006A4E23F4402343F48023C5F800344FF47E
:100240000073C5F81834FFF73DFF1C2127FA01F3AE
:10025000DCB2C3F3031304F00F04F05CFFF729FFD3
:100260000439305DFFF725FF0B1DEFD15C48FFF728
:1002700029FF4FF03033019343F23053ADF808308B
:10028000062101AC0139605CFFF713FF0029F9D1A9
:1002900054484B4EFFF716FF5348FFF713FF4FF03C
:1002A0000073C5F818344FF474244FF080484FF4AD
:1002B0008047C6F818840620FFF70DFFC6F81874AB
:1002C0002020C6F81884FFF706FFC4F30740FFF7A5
:1002D00002FFC4F30720FFF7FEFE0020FFF7FBFE3E
:1002E000C6F81874FFF704FF404B04F580549C4295
:1002F000DDD14FF40073C5F818343D48DFF80091A4
:100300003C4CDFF8C8802E4FFFF7DCFE4FF0007347
:10031000C5F818344FF0804B5FFA88FACAF580763A
:10032000A642C7F818B44FF0060028BF2646FFF7CC
:10033000D2FE4FF48043C7F818340220C7F818B42F
:10034000FFF7C9FEC8F30740FFF7C5FEC8F3072053
:10035000FFF7C1FE5046FFF7BEFECA46B144CA458C
:1003600022D14FF48043C7F81834FFF7C1FEA41B15
:10037000B044D1D14FF400761F48C5F81864FFF798
:10038000A1FE1E4A4FF00071C5F818140094009B9E
:1003900093420EDDC5F818640194019B9342F3DC8F
:1003A000019B01330193F8E71AF8010BFFF793FE65
:1003B000D5E7009B01330093E9E700BF003002401E
:1003C00000000240040400080010024040420F00F8
:1003D000001001401D040008003001405F040008C7
:1003E0002F040008420400083604000800F016003C
:1003F0004504000820A10700540400081FA10700BD
:10040000700400080D0A3E3E3E20424154434820FD
:10041000464C41534845522076320D0A0020204276
:1004200061746368206F66667365743D3078002080
:1004300073697A653D00202045726173696E672E8D
:100440002E2E0D0A00202057726974696E672E2EB9
:100450002E0D0A003E3E3E20444F4E450D0A003010
:10046000313233343536373839414243444546001A
:10047000000000000000000000000000000000007C
:10048000000000000000000000000000000000006C
:10049000000000000000000000000000000000005C
:1004A000000000000000000000000000000000004C
:1004B000000000000000000000000000000000003C
:1004C000000000000000000000000000000000002C
:1004D000000000000000000000000000000001011A
:1004E00001010101010101010101010101010101FC
:1004F00001010101010101010101010101010101EC
:1005000001010101010101010101010101010101DB
:1005100001010101010101010101010101010101CB
:1005200001010101010101010101010101010101BB
:1005300001010101010101010101010101010202A9
:10054000020202020202020202020202020202028B
:10055000020202020202020202020202020202027B
:10056000020202020202020202020202020202026B
:10057000020202020202020202020202020202025B
:10058000020202020202020202020202020202024B
:10059000020202020202020202020202020202023B
:1005A000020202020202020202020202020202022B
:1005B000020202020202020202020202020202021B
:1005C000020202020202020202020202020202020B
:1005D00002020203030303030303030303030303EE
:1005E00003030303030303030303030303030303DB
:1005F00003030303030303030303030303030303CB
:1006000003030303030303030303030303030303BA
:1006100003030303030303030303030303030303AA
:10062000030404040404040404040404040404048B
:10063000040404040404040404040404040404047A
:10064000040404040404040404040404040404046A
:10065000040404040404040404040404040404045A
:10066000040404040404040404040404040404044A
:10067000040404040404040404040404040404043A
:10068000040404040404040404040404040404042A
:1006900005080F161E2327231E140D06050A1C200D
:1006A0001E1B18161412100E0D0B0A09080606055B
:1006B00004040404040404040404040404040404FA
:1006C00004030303030303030303030303030303F9
:1006D00003030303030303030303030303030303EA
:1006E00003030303000000000000000000000000FE
:1006F00000000000000000000000000000000000FA
:1007000000000000000000000000000000000000E9
:100710000001010203040607080A0C0D0F1113164D
:10072000191C1E0C0000000000000000000000006A
:1007300000000000000000000000000000000000B9
:1007400000000000000000000000000000000000A9
:100750000000000000000000000000000000000099
:100760000000000000000000000000000000000089
:100770000000000000000000000000000000000079
:100780000000000000000000000000000000000069
:100790000000000000000000000000000000000059
:1007A0000000000000000000000000000000000049
:1007B0000000000000000000000000000000000039
:1007C0000000000000000000000000000000000029
:1007D0000000000000000000000000000000000019
:1007E0000000000000000000000000000000000009
:1007F00000000000000000000000000000000101F7
:1008000001010101010101010101010101010101D8
:1008100001010101010101010101010101010101C8
:1008200001010101010101010101010101010101B8
:1008300001010101010101010101010101010101A8
:100840000101010101010101010101010101010198
:100850000101010101010101010101010101020286
:100860000202020202020202020202020202020268
:100870000202020202020202020202020202020258
:100880000202020202020202020202020202020248
:100890000202020202020202020202020202020238
:1008A0000202020202020202020202020202020228
:1008B0000202020202020202020202020202020218
:1008C0000202020202020202020202020202020208
:1008D00002020202020202020202020202020202F8
:1008E00002020202020202020202020202020202E8
:1008F00002020203030303030303030303030303CB
:1009000003030303030303030303030303030303B7
:1009100003030303030303030303030303030303A7
:100920000303030303030303030303030303030397
:100930000303030303030303030303030303030387
:100940000304040404040404040404040404040468
:100950000404040404040404040404040404040457
:100960000404040404040404040404040404040447
:100970000404040404040404040404040404040437
:100980000404040404040404040404040404040427
:100990000404040404040404040404040404040417
:1009A0000404040404040404040404040404040407
:1009B00006080F171F2427221C130C06050A1C20EB
:1009C0001E1B18161412100E0D0B0A090806060538
:1009D00004040404040404040404040404040404D7
:1009E00004030303030303030303030303030303D6
:1009F00003030303030303030303030303030303C7
:100A000003030303000000000000000000000000DA
:100A100000000000000000000000000000000000D6
:100A200000000000000000000000000000000000C6
:100A30000001010203040607080A0C0D0F1113162A
:100A4000191C1E0C00000000000000000000000047
:100A50000000000000000000000000000000000096
:100A60000000000000000000000000000000000086
:100A70000000000000000000000000000000000076
:100A80000000000000000000000000000000000066
:100A90000000000000000000000000000000000056
:100AA0000000000000000000000000000000000046
:100AB0000000000000000000000000000000000036
:100AC0000000000000000000000000000000000026
:100AD0000000000000000000000000000000000016
:100AE0000000000000000000000000000000000006
:100AF00000000000000000000000000000000000F6
:100B000000000000000000000000000000000000E5
:100B100000000000000000000000000000000101D3
:100B200001010101010101010101010101010101B5
:100B300001010101010101010101010101010101A5
:100B40000101010101010101010101010101010195
:100B50000101010101010101010101010101010185
:100B60000101010101010101010101010101010175
:100B70000101010101010101010101010101020263
:100B80000202020202020202020202020202020245
:100B90000202020202020202020202020202020235
:100BA0000202020202020202020202020202020225
:100BB0000202020202020202020202020202020215
:100BC0000202020202020202020202020202020205
:100BD00002020202020202020202020202020202F5
:100BE00002020202020202020202020202020202E5
:100BF00002020202020202020202020202020202D5
:100C000002020202020202020202020202020202C4
:100C100002030303030303030303030303030303A5
:100C20000303030303030303030303030303030394
:100C30000303030303030303030303030303030384
:100C40000303030303030303030303030303030374
:100C50000303030303030303030303030303030364
:100C60000303040404040404040404040404040446
:100C70000404040404040404040404040404040434
:100C80000404040404040404040404040404040424
:100C90000404040404040404040404040404040414
:100CA0000404040404040404040404040404040404
:100CB00004040404040404040404040404040404F4
:100CC00004040404040404040404040404040405E3
:100CD00006091018202427211B120B06050A1C20C8
:100CE0001E1B18161412100E0D0B0A090806060515
:100CF00004040404040404040404040404040404B4
:100D000003030303030303030303030303030303B3
:100D100003030303030303030303030303030303A3
:100D200003030303000000000000000000000000B7
:100D300000000000000000000000000000000000B3
:100D400000000000000000000000000000000000A3
:100D50000001010203040607080A0C0D0F11131607
:100D6000191C1E0C00000000000000000000000024
:100D70000000000000000000000000000000000073
:100D80000000000000000000000000000000000063
:100D90000000000000000000000000000000000053
:100DA0000000000000000000000000000000000043
:100DB0000000000000000000000000000000000033
:100DC0000000000000000000000000000000000023
:100DD0000000000000000000000000000000000013
:100DE0000000000000000000000000000000000003
:100DF00000000000000000000000000000000000F3
:100E000000000000000000000000000000000000E2
:100E100000000000000000000000000000000000D2
:100E200000000000000000000000000000000000C2
:100E300000000000000000000000000000010101AF
:100E40000101010101010101010101010101010192
:100E50000101010101010101010101010101010182
:100E60000101010101010101010101010101010172
:100E70000101010101010101010101010101010162
:100E80000101010101010101010101010101010152
:100E90000101010101010101010101010101020240
:100EA0000202020202020202020202020202020222
:100EB0000202020202020202020202020202020212
:100EC0000202020202020202020202020202020202
:100ED00002020202020202020202020202020202F2
:100EE00002020202020202020202020202020202E2
:100EF00002020202020202020202020202020202D2
:100F000002020202020202020202020202020202C1
:100F100002020202020202020202020202020202B1
:100F200002020202020202020202020202020202A1
:100F30000203030303030303030303030303030382
:100F40000303030303030303030303030303030371
:100F50000303030303030303030303030303030361
:100F60000303030303030303030303030303030351
:100F70000303030303030303030303030303030341
:100F80000303030404040404040404040404040424
:100F90000404040404040404040404040404040411
:100FA0000404040404040404040404040404040401
:100FB00004040404040404040404040404040404F1
:100FC00004040404040404040404040404040404E1
:100FD00004040404040404040404040404040404D1
:100FE00004040404040404040404040404040405C0
:100FF000070A12192124262019100A06050A1C20A6
:101000001E1B18161412100E0D0B0A0908060605F1
:101010000404040404040404040404040404040391
:101020000303030303030303030303030303030390
:101030000303030303030303030303030303030380
:101040000303030300000000000000000000000094
:101050000000000000000000000000000000000090
:101060000000000000000000000000000000000080
:101070000001010203040607080A0C0D0F111316E4
:10108000191C1E0C00000000000000000000000001
:101090000000000000000000000000000000000050
:1010A0000000000000000000000000000000000040
:1010B0000000000000000000000000000000000030
:1010C0000000000000000000000000000000000020
:1010D0000000000000000000000000000000000010
:1010E0000000000000000000000000000000000000
:1010F00000000000000000000000000000000000F0
:1011000000000000000000000000000000000000DF
:1011100000000000000000000000000000000000CF
:1011200000000000000000000000000000000000BF
:1011300000000000000000000000000000000000AF
:10114000000000000000000000000000000000009F
:10115000000000000000000000000000010101018B
:10116000010101010101010101010101010101016F
:10117000010101010101010101010101010101015F
:10118000010101010101010101010101010101014F
:10119000010101010101010101010101010101013F
:1011A000010101010101010101010101010101012F
:1011B000010101010101010101010101010102021D
:1011C00002020202020202020202020202020202FF
:1011D00002020202020202020202020202020202EF
:1011E00002020202020202020202020202020202DF
:1011F00002020202020202020202020202020202CF
:1012000002020202020202020202020202020202BE
:1012100002020202020202020202020202020202AE
:10122000020202020202020202020202020202029E
:10123000020202020202020202020202020202028E
:10124000020202020202020202020202020202027E
:10125000030303030303030303030303030303035E
:10126000030303030303030303030303030303034E
:10127000030303030303030303030303030303033E
:10128000030303030303030303030303030303032E
:10129000030303030303030303030303030303031E
:1012A0000303030404040404040404040404040401
:1012B00004040404040404040404040404040404EE
:1012C00004040404040404040404040404040404DE
:1012D00004040404040404040404040404040404CE
:1012E00004040404040404040404040404040404BE
:1012F00004040404040404040404040404040404AE
:10130000040404040404040404040404040404059C
:10131000080C131B2224251E170E0905040A1C2085
:101320001E1B18161412100E0D0B0A0908060605CE
:10133000040404040404040404040404040404036E
:10134000030303030303030303030303030303036D
:10135000030303030303030303030303030303035D
:101360000303030300000000000000000000000071
:10137000000000000000000000000000000000006D
:10138000000000000000000000000000000000005D
:101390000001010203040607080A0C0D0F111316C1
:1013A000191C1E0C000000000000000000000000DE
:1013B000000000000000000000000000000000002D
:1013C000000000000000000000000000000000001D
:1013D000000000000000000000000000000000000D
:1013E00000000000000000000000000000000000FD
:1013F00000000000000000000000000000000000ED
:1014000000000000000000000000000000000000DC
:1014100000000000000000000000000000000000CC
:1014200000000000000000000000000000000000BC
:1014300000000000000000000000000000000000AC
:10144000000000000000000000000000000000009C
:10145000000000000000000000000000000000008C
:10146000000000000000000000000000000000007C
:101470000000000000000000000000000101010168
:10148000010101010101010101010101010101014C
:10149000010101010101010101010101010101013C
:1014A000010101010101010101010101010101012C
:1014B000010101010101010101010101010101011C
:1014C000010101010101010101010101010101010C
:1014D00001010101010101010101010101010202FA
:1014E00002020202020202020202020202020202DC
:1014F00002020202020202020202020202020202CC
:1015000002020202020202020202020202020202BB
:1015100002020202020202020202020202020202AB
:10152000020202020202020202020202020202029B
:10153000020202020202020202020202020202028B
:10154000020202020202020202020202020202027B
:10155000020202020202020202020202020202026B
:10156000020202020202020202020202020202035A
:10157000030303030303030303030303030303033B
:10158000030303030303030303030303030303032B
:10159000030303030303030303030303030303031B
:1015A000030303030303030303030303030303030B
:1015B00003030303030303030303030303030303FB
:1015C00003030404040404040404040404040404DD
:1015D00004040404040404040404040404040404CB
:1015E00004040404040404040404040404040404BB
:1015F00004040404040404040404040404040404AB
:10160000040404040404040404040404040404049A
:10161000040404040404040404040404040404048A
:101620000404040404040404040404040404040678
:101630000A0F161D2325241C140D0805040A1C205E
:101640001E1B18161412100E0D0B0A0908060605AB
:10165000040404040404040404040404040404034B
:10166000030303030303030303030303030303034A
:10167000030303030303030303030303030303033A
:10168000030303030000000000000000000000004E
:10169000000000000000000000000000000000004A
:1016A000000000000000000000000000000000003A
:1016B0000001010203040607080A0C0D0F1113169E
:1016C000191C1E0C000000000000000000000000BB
:1016D000000000000000000000000000000000000A
:1016E00000000000000000000000000000000000FA
:1016F00000000000000000000000000000000000EA
:1017000000000000000000000000000000000000D9
:1017100000000000000000000000000000000000C9
:1017200000000000000000000000000000000000B9
:1017300000000000000000000000000000000000A9
:101740000000000000000000000000000000000099
:101750000000000000000000000000000000000089
:101760000000000000000000000000000000000079
:101770000000000000000000000000000000000069
:101780000000000000000000000000000000000059
:101790000000000000000000000000000101010145
:1017A0000101010101010101010101010101010129
:1017B0000101010101010101010101010101010119
:1017C0000101010101010101010101010101010109
:1017D00001010101010101010101010101010101F9
:1017E00001010101010101010101010101010101E9
:1017F00001010101010101010101010101010202D7
:1018000002020202020202020202020202020202B8
:1018100002020202020202020202020202020202A8
:101820000202020202020202020202020202020298
:101830000202020202020202020202020202020288
:101840000202020202020202020202020202020278
:101850000202020202020202020202020202020268
:101860000202020202020202020202020202020258
:101870000202020202020202020202020202020248
:101880000202020202020202020202020202030336
:101890000303030303030303030303030303030318
:1018A0000303030303030303030303030303030308
:1018B00003030303030303030303030303030303F8
:1018C00003030303030303030303030303030303E8
:1018D00003030303030303030303030303030303D8
:1018E00003040404040404040404040404040404B9
:1018F00004040404040404040404040404040404A8
:101900000404040404040404040404040404040497
:101910000404040404040404040404040404040487
:101920000404040404040404040404040404040477
:101930000404040404040404040404040404040467
:101940000404040404040404040404040404050753
:101950000C121A202525221A120B0705040A1C2036
:101960001E1B18161412100E0D0B0A090806060588
:101970000404040404040404040404040404040328
:101980000303030303030303030303030303030327
:101990000303030303030303030303030303030317
:1019A000030303030000000000000000000000002B
:1019B0000000000000000000000000000000000027
:1019C0000000000000000000000000000000000017
:1019D0000001010203040607080A0C0D0F1113167B
:1019E000191C1E0C00000000000000000000000098
:1019F00000000000000000000000000000000000E7
:101A000000000000000000000000000000000000D6
:101A100000000000000000000000000000000000C6
:101A200000000000000000000000000000000000B6
:101A300000000000000000000000000000000000A6
:101A40000000000000000000000000000000000096
:101A50000000000000000000000000000000000086
:101A60000000000000000000000000000000000076
:101A70000000000000000000000000000000000066
:101A80000000000000000000000000000000000056
:101A90000000000000000000000000000000000046
:101AA0000000000000000000000000000000000036
:101AB0000000000000000000000000000101010122
:101AC0000101010101010101010101010101010106
:101AD00001010101010101010101010101010101F6
:101AE00001010101010101010101010101010101E6
:101AF00001010101010101010101010101010101D6
:101B000001010101010101010101010101010101C5
:101B100001010101010101010101010101010202B3
:101B20000202020202020202020202020202020295
:101B30000202020202020202020202020202020285
:101B40000202020202020202020202020202020275
:101B50000202020202020202020202020202020265
:101B60000202020202020202020202020202020255
:101B70000202020202020202020202020202020245
:101B80000202020202020202020202020202020235
:101B90000202020202020202020202020202020225
:101BA0000202020202020202020202020203030312
:101BB00003030303030303030303030303030303F5
:101BC00003030303030303030303030303030303E5
:101BD00003030303030303030303030303030303D5
:101BE00003030303030303030303030303030303C5
:101BF00003030303030303030303030303030303B5
:101C00000304040404040404040404040404040495
:101C10000404040404040404040404040404040484
:101C20000404040404040404040404040404040474
:101C30000404040404040404040404040404040464
:101C40000404040404040404040404040404040454
:101C50000404040404040404040404040404040444
:101C6000040404040404040404040404040405082F
:101C70000D151D23262420170F090604040A1C2015
:101C80001E1B18161412100E0D0B0A090806060565
:101C90000404040404040404040404040404040305
:101CA0000303030303030303030303030303030304
:101CB00003030303030303030303030303030303F4
:101CC0000303030300000000000000000000000008
:101CD0000000000000000000000000000000000004
:101CE00000000000000000000000000000000000F4
:101CF0000001010203040607080A0C0D0F11131658
:101D0000191C1E0C00000000000000000000000074
:101D100000000000000000000000000000000000C3
:101D200000000000000000000000000000000000B3
:101D300000000000000000000000000000000000A3
:101D40000000000000000000000000000000000093
:101D50000000000000000000000000000000000083
:101D60000000000000000000000000000000000073
:101D70000000000000000000000000000000000063
:101D80000000000000000000000000000000000053
:101D90000000000000000000000000000000000043
:101DA0000000000000000000000000000000000033
:101DB0000000000000000000000000000000000023
:101DC0000000000000000000000000000000000013
:101DD00000000000000000000000000001010101FF
:101DE00001010101010101010101010101010101E3
:101DF00001010101010101010101010101010101D3
:101E000001010101010101010101010101010101C2
:101E100001010101010101010101010101010101B2
:101E200001010101010101010101010101010101A2
:101E30000101010101010101010101010101020290
:101E40000202020202020202020202020202020272
:101E50000202020202020202020202020202020262
:101E60000202020202020202020202020202020252
:101E70000202020202020202020202020202020242
:101E80000202020202020202020202020202020232
:101E90000202020202020202020202020202020222
:101EA0000202020202020202020202020202020212
:101EB0000202020202020202020202020202020202
:101EC00002020202020202020202020203030303EE
:101ED00003030303030303030303030303030303D2
:101EE00003030303030303030303030303030303C2
:101EF00003030303030303030303030303030303B2
:101F000003030303030303030303030303030303A1
:101F10000303030303030303030303030303030391
:101F20000304040404040404040404040404040472
:101F30000404040404040404040404040404040461
:101F40000404040404040404040404040404040451
:101F50000404040404040404040404040404040441
:101F60000404040404040404040404040404040431
:101F70000404040404040404040404040404040421
:101F8000040404040404040404040404040405080C
:101F90000F171F2527241E140C070504040A1C20F4
:101FA0001E1B18161412100E0D0B0A090806060542
:101FB00004040404040404040404040404040403E2
:101FC00003030303030303030303030303030303E1
:101FD00003030303030303030303030303030303D1
:101FE00003030303000000000000000000000000E5
:101FF00000000000000000000000000000000000E1
:1020000000000000000000000000000000000000D0
:102010000001010203040607080A0C0D0F11131634
:10202000191C1E0C00000000000000000000000051
:1020300000000000000000000000000000000000A0
:102040000000000000000000000000000000000090
:102050000000000000000000000000000000000080
:102060000000000000000000000000000000000070
:102070000000000000000000000000000000000060
:102080000000000000000000000000000000000050
:102090000000000000000000000000000000000040
:1020A0000000000000000000000000000000000030
:1020B0000000000000000000000000000000000020
:1020C0000000000000000000000000000000000010
:1020D0000000000000000000000000000000000000
:1020E00000000000000000000000000000000000F0
:1020F00000000000000000000000000001010101DC
:1021000001010101010101010101010101010101BF
:1021100001010101010101010101010101010101AF
:10212000010101010101010101010101010101019F
:10213000010101010101010101010101010101018F
:10214000010101010101010101010101010101017F
:10215000010101010101010101010101010102026D
:10216000020202020202020202020202020202024F
:10217000020202020202020202020202020202023F
:10218000020202020202020202020202020202022F
:10219000020202020202020202020202020202021F
:1021A000020202020202020202020202020202020F
:1021B00002020202020202020202020202020202FF
:1021C00002020202020202020202020202020202EF
:1021D00002020202020202020202020202020202DF
:1021E00002020202020202020203030303030303C8
:1021F00003030303030303030303030303030303AF
:10220000030303030303030303030303030303039E
:10221000030303030303030303030303030303038E
:10222000030303030303030303030303030303037E
:10223000030303030303030303030303030303036E
:10224000040404040404040404040404040404044E
:10225000040404040404040404040404040404043E
:10226000040404040404040404040404040404042E
:10227000040404040404040404040404040404041E
:10228000040404040404040404040404040404040E
:1022900004040404040404040404040404040404FE
:1022A00004040404040404040404040404040509E8
:1022B0001019202527231B120A060504040A1C20D6
:1022C0001E1B18161412100E0D0B0A09080606051F
:1022D00004040404040404040404040404040403BF
:1022E00003030303030303030303030303030303BE
:1022F00003030303030303030303030303030303AE
:1023000003030303000000000000000000000000C1
:1023100000000000000000000000000000000000BD
:1023200000000000000000000000000000000000AD
:102330000001010203040607080A0C0D0F11131611
:10234000191C1E0C0000000000000000000000002E
:10235000000000000000000000000000000000007D
:10236000000000000000000000000000000000006D
:10237000000000000000000000000000000000005D
:10238000000000000000000000000000000000004D
:10239000000000000000000000000000000000003D
:1023A000000000000000000000000000000000002D
:1023B000000000000000000000000000000000001D
:1023C000000000000000000000000000000000000D
:1023D00000000000000000000000000000000000FD
:1023E00000000000000000000000000000000000ED
:1023F00000000000000000000000000000000000DD
:1024000000000000000000000000000000000000CC
:1024100000000000000000000000000001010101B8
:10242000010101010101010101010101010101019C
:10243000010101010101010101010101010101018C
:10244000010101010101010101010101010101017C
:10245000010101010101010101010101010101016C
:10246000010101010101010101010101010101015C
:10247000010101010101010101010101010102024A
:10248000020202020202020202020202020202022C
:10249000020202020202020202020202020202021C
:1024A000020202020202020202020202020202020C
:1024B00002020202020202020202020202020202FC
:1024C00002020202020202020202020202020202EC
:1024D00002020202020202020202020202020202DC
:1024E00002020202020202020202020202020202CC
:1024F00002020202020202020202020202020202BC
:1025000002020202020202020203030303030303A4
:10251000030303030303030303030303030303038B
:10252000030303030303030303030303030303037B
:10253000030303030303030303030303030303036B
:10254000030303030303030303030303030303035B
:10255000030303030303030303030303030303044A
:10256000040404040404040404040404040404042B
:10257000040404040404040404040404040404041B
:10258000040404040404040404040404040404040B
:1025900004040404040404040404040404040404FB
:1025A00004040404040404040404040404040404EB
:1025B00004040404040404040404040404040404DB
:1025C0000404040404040404040404040404060AC3
:1025D000121B21262722191009060404040A1C20B4
:1025E0001E1B18161412100E0D0B0A0908060605FC
:1025F000040404040404040404040404040404039C
:10260000030303030303030303030303030303039A
:10261000030303030303030303030303030303038A
:10262000030303030000000000000000000000009E
:10263000000000000000000000000000000000009A
:10264000000000000000000000000000000000008A
:102650000001010203040607080A0C0D0F111316EE
:10266000191C1E0C0000000000000000000000000B
:10267000000000000000000000000000000000005A
:10268000000000000000000000000000000000004A
:10269000000000000000000000000000000000003A
:1026A000000000000000000000000000000000002A
:1026B000000000000000000000000000000000001A
:1026C000000000000000000000000000000000000A
:1026D00000000000000000000000000000000000FA
:1026E00000000000000000000000000000000000EA
:1026F00000000000000000000000000000000000DA
:1027000000000000000000000000000000000000C9
:1027100000000000000000000000000000000000B9
:1027200000000000000000000000000000000000A9
:102730000000000000000000000000000101010195
:102740000101010101010101010101010101010179
:102750000101010101010101010101010101010169
:102760000101010101010101010101010101010159
:102770000101010101010101010101010101010149
:102780000101010101010101010101010101010139
:102790000101010101010101010101010101020227
:1027A0000202020202020202020202020202020209
:1027B00002020202020202020202020202020202F9
:1027C00002020202020202020202020202020202E9
:1027D00002020202020202020202020202020202D9
:1027E00002020202020202020202020202020202C9
:1027F00002020202020202020202020202020202B9
:1028000002020202020202020202020202020202A8
:102810000202020202020202020202020202020298
:10282000020202020202020303030303030303037F
:102830000303030303030303030303030303030368
:102840000303030303030303030303030303030358
:102850000303030303030303030303030303030348
:102860000303030303030303030303030303030338
:102870000303030303030303030303030303030427
:102880000404040404040404040404040404040408
:1028900004040404040404040404040404040404F8
:1028A00004040404040404040404040404040404E8
:1028B00004040404040404040404040404040404D8
:1028C00004040404040404040404040404040404C8
:1028D00004040404040404040404040404040404B8
:1028E0000404040404040404040404040404060B9F
:1028F000131C23272721180E08050404040A1C2092
:102900001E1B18161412100E0D0B0A0908060605D8
:102910000404040404040404040404040404030379
:102920000303030303030303030303030303030377
:102930000303030303030303030303030303030367
:10294000030303030000000000000000000000007B
:102950000000000000000000000000000000000077
:102960000000000000000000000000000000000067
:102970000001010203040607080A0C0D0F111316CB
:10298000191C1E0C000000000000000000000000E8
:102990000000000000000000000000000000000037
:1029A0000000000000000000000000000000000027
:1029B0000000000000000000000000000000000017
:1029C0000000000000000000000000000000000007
:1029D00000000000000000000000000000000000F7
:1029E00000000000000000000000000000000000E7
:1029F00000000000000000000000000000000000D7
:102A000000000000000000000000000000000000C6
:102A100000000000000000000000000000000000B6
:102A200000000000000000000000000000000000A6
:102A30000000000000000000000000000000000096
:102A40000000000000000000000000000000000086
:102A50000000000000000000000000000101010172
:102A60000101010101010101010101010101010156
:102A70000101010101010101010101010101010146
:102A80000101010101010101010101010101010136
:102A90000101010101010101010101010101010126
:102AA0000101010101010101010101010101010116
:102AB0000101010101010101010101010101020204
:102AC00002020202020202020202020202020202E6
:102AD00002020202020202020202020202020202D6
:102AE00002020202020202020202020202020202C6
:102AF00002020202020202020202020202020202B6
:102B000002020202020202020202020202020202A5
:102B10000202020202020202020202020202020295
:102B20000202020202020202020202020202020285
:102B30000202020202020202020202020202020275
:102B4000020202020202020303030303030303035C
:102B50000303030303030303030303030303030345
:102B60000303030303030303030303030303030335
:102B70000303030303030303030303030303030325
:102B80000303030303030303030303030303030315
:102B90000303030303030303030303030303030404
:102BA00004040404040404040404040404040404E5
:102BB00004040404040404040404040404040404D5
:102BC00004040404040404040404040404040404C5
:102BD00004040404040404040404040404040404B5
:102BE00004040404040404040404040404040404A5
:102BF0000404040404040404040404040404040495
:102C00000404040404040404040404040405080D76
:102C1000151F2427261F150D07050404040A1C2070
:102C20001E1B18161412100E0D0B0A0908060605B5
:102C30000404040404040404040404040404030356
:102C40000303030303030303030303030303030354
:102C50000303030303030303030303030303030344
:102C60000303030300000000000000000000000058
:102C70000000000000000000000000000000000054
:102C80000000000000000000000000000000000044
:102C90000001010203040607080A0C0D0F111316A8
:102CA000191C1E0C000000000000000000000000C5
:102CB0000000000000000000000000000000000014
:102CC0000000000000000000000000000000000004
:102CD00000000000000000000000000000000000F4
:102CE00000000000000000000000000000000000E4
:102CF00000000000000000000000000000000000D4
:102D000000000000000000000000000000000000C3
:102D100000000000000000000000000000000000B3
:102D200000000000000000000000000000000000A3
:102D30000000000000000000000000000000000093
:102D40000000000000000000000000000000000083
:102D50000000000000000000000000000000000073
:102D60000000000000000000000000000000000063
:102D7000000000000000000000000000010101014F
:102D80000101010101010101010101010101010133
:102D90000101010101010101010101010101010123
:102DA0000101010101010101010101010101010113
:102DB0000101010101010101010101010101010103
:102DC00001010101010101010101010101010101F3
:102DD00001010101010101010101010101010202E1
:102DE00002020202020202020202020202020202C3
:102DF00002020202020202020202020202020202B3
:102E000002020202020202020202020202020202A2
:102E10000202020202020202020202020202020292
:102E20000202020202020202020202020202020282
:102E30000202020202020202020202020202020272
:102E40000202020202020202020202020202020262
:102E50000202020202020202020202020202020252
:102E60000202020203030303030303030303030336
:102E70000303030303030303030303030303030322
:102E80000303030303030303030303030303030312
:102E90000303030303030303030303030303030302
:102EA00003030303030303030303030303030303F2
:102EB00003030303030303030303030303030404E0
:102EC00004040404040404040404040404040404C2
:102ED00004040404040404040404040404040404B2
:102EE00004040404040404040404040404040404A2
:102EF0000404040404040404040404040404040492
:102F00000404040404040404040404040404040481
:102F10000404040404040404040404040404040471
:102F200004040404040404040404040404060A104D
:102F300018212527241C120B06050404040A1C2052
:102F40001E1B18161412100E0D0B0A090806060592
:102F50000404040404040404040404040404030333
:102F60000303030303030303030303030303030331
:102F70000303030303030303030303030303030321
:102F80000303030300000000000000000000000035
:102F90000000000000000000000000000000000031
:102FA0000000000000000000000000000000000021
:102FB0000001010203040607080A0C0D0F11131685
:102FC000191C1E0C000000000000000000000000A2
:102FD00000000000000000000000000000000000F1
:102FE00000000000000000000000000000000000E1
:102FF00000000000000000000000000000000000D1
:1030000000000000000000000000000000000000C0
:1030100000000000000000000000000000000000B0
:1030200000000000000000000000000000000000A0
:103030000000000000000000000000000000000090
:103040000000000000000000000000000000000080
:103050000000000000000000000000000000000070
:103060000000000000000000000000000000000060
:103070000000000000000000000000000000000050
:103080000000000000000000000000000000000040
:10309000000000000000000000000000010101012C
:1030A0000101010101010101010101010101010110
:1030B0000101010101010101010101010101010100
:1030C00001010101010101010101010101010101F0
:1030D00001010101010101010101010101010101E0
:1030E00001010101010101010101010101010101D0
:1030F00001010101010101010101010101010202BE
:10310000020202020202020202020202020202029F
:10311000020202020202020202020202020202028F
:10312000020202020202020202020202020202027F
:10313000020202020202020202020202020202026F
:10314000020202020202020202020202020202025F
:10315000020202020202020202020202020202024F
:10316000020202020202020202020202020202023F
:10317000020202020202020202020202020202022F
:103180000202020303030303030303030303030312
:1031900003030303030303030303030303030303FF
:1031A00003030303030303030303030303030303EF
:1031B00003030303030303030303030303030303DF
:1031C00003030303030303030303030303030303CF
:1031D00003030303030303030303030303040404BC
:1031E000040404040404040404040404040404049F
:1031F000040404040404040404040404040404048F
:10320000040404040404040404040404040404047E
:10321000040404040404040404040404040404046E
:10322000040404040404040404040404040404045E
:10323000040404040404040404040404040404044E
:1032400004040404040404040404040404070C1423
:103250001C23262621180F0A06040404040A1C2035
:103260001E1B18161412100E0D0B0A09080606056F
:103270000404040404040404040404040404030310
:10328000030303030303030303030303030303030E
:1032900003030303030303030303030303030303FE
:1032A0000303030300000000000000000000000012
:1032B000000000000000000000000000000000000E
:1032C00000000000000000000000000000000000FE
:1032D0000001010203040607080A0C0D0F11131662
:1032E000191C1E0C0000000000000000000000007F
:1032F00000000000000000000000000000000000CE
:1033000000000000000000000000000000000000BD
:1033100000000000000000000000000000000000AD
:10332000000000000000000000000000000000009D
:10333000000000000000000000000000000000008D
:10334000000000000000000000000000000000007D
:10335000000000000000000000000000000000006D
:10336000000000000000000000000000000000005D
:10337000000000000000000000000000000000004D
:10338000000000000000000000000000000000003D
:10339000000000000000000000000000000000002D
:1033A000000000000000000000000000000000001D
:1033B0000000000000000000000000000101010109
:1033C00001010101010101010101010101010101ED
:1033D00001010101010101010101010101010101DD
:1033E00001010101010101010101010101010101CD
:1033F00001010101010101010101010101010101BD
:1034000001010101010101010101010101010101AC
:10341000010101010101010101010101010102029A
:10342000020202020202020202020202020202027C
:10343000020202020202020202020202020202026C
:10344000020202020202020202020202020202025C
:10345000020202020202020202020202020202024C
:10346000020202020202020202020202020202023C
:10347000020202020202020202020202020202022C
:10348000020202020202020202020202020202021C
:10349000020202020202020202020202020202020C
:1034A00002020303030303030303030303030303EE
:1034B00003030303030303030303030303030303DC
:1034C00003030303030303030303030303030303CC
:1034D00003030303030303030303030303030303BC
:1034E00003030303030303030303030303030303AC
:1034F0000303030303030303030303030404040498
:10350000040404040404040404040404040404047B
:10351000040404040404040404040404040404046B
:10352000040404040404040404040404040404045B
:10353000040404040404040404040404040404044B
:10354000040404040404040404040404040404043B
:10355000040404040404040404040404040404042B
:1035600004040404040404040404040404080E18F9
:103570001F2527251D150C0805040404040A1C201A
:103580001E1B18161412100E0D0B0A09080606054C
:1035900004040404040404040404040404040303ED
:1035A00003030303030303030303030303030303EB
:1035B00003030303030303030303030303030303DB
:1035C00003030303000000000000000000000000EF
:1035D00000000000000000000000000000000000EB
:1035E00000000000000000000000000000000000DB
:1035F0000001010203040607080A0C0D0F1113163F
:10360000191C1E0C0000000000000000000000005B
:1036100000000000000000000000000000000000AA
:10362000000000000000000000000000000000009A
:10363000000000000000000000000000000000008A
:10364000000000000000000000000000000000007A
:10365000000000000000000000000000000000006A
:10366000000000000000000000000000000000005A
:10367000000000000000000000000000000000004A
:10368000000000000000000000000000000000003A
:10369000000000000000000000000000000000002A
:1036A000000000000000000000000000000000001A
:1036B000000000000000000000000000000000000A
:1036C00000000000000000000000000000000000FA
:1036D00000000000000000000000000001010101E6
:1036E00001010101010101010101010101010101CA
:1036F00001010101010101010101010101010101BA
:1037000001010101010101010101010101010101A9
:103710000101010101010101010101010101010199
:103720000101010101010101010101010101010189
:103730000101010101010101010101010101020277
:103740000202020202020202020202020202020259
:103750000202020202020202020202020202020249
:103760000202020202020202020202020202020239
:103770000202020202020202020202020202020229
:103780000202020202020202020202020202020219
:103790000202020202020202020202020202020209
:1037A00002020202020202020202020202020202F9
:1037B00002020202020202020202020202020203E8
:1037C00003030303030303030303030303030303C9
:1037D00003030303030303030303030303030303B9
:1037E00003030303030303030303030303030303A9
:1037F0000303030303030303030303030303030399
:103800000303030303030303030303030303030388
:103810000303030303030303030303030404040474
:103820000404040404040404040404040404040458
:103830000404040404040404040404040404040448
:103840000404040404040404040404040404040438
:103850000404040404040404040404040404040428
:103860000404040404040404040404040404040418
:103870000404040404040404040404040404040408
:10388000040404040404040404040404050A101ACF
:10389000212627241A12090604040404040A1C2001
:1038A0001E1B18161412100E0D0B0A090806060529
:1038B00004040404040404040404040404040303CA
:1038C00003030303030303030303030303030303C8
:1038D00003030303030303030303030303030303B8
:1038E00003030303000000000000000000000000CC
:1038F00000000000000000000000000000000000C8
:1039000000000000000000000000000000000000B7
:103910000001010203040607080A0C0D0F1113161B
:10392000191C1E0C00000000000000000000000038
:103930000000000000000000000000000000000087
:103940000000000000000000000000000000000077
:103950000000000000000000000000000000000067
:103960000000000000000000000000000000000057
:103970000000000000000000000000000000000047
:103980000000000000000000000000000000000037
:103990000000000000000000000000000000000027
:1039A0000000000000000000000000000000000017
:1039B0000000000000000000000000000000000007
:1039C00000000000000000000000000000000000F7
:1039D00000000000000000000000000000000000E7
:1039E00000000000000000000000000000000000D7
:1039F00000000000000000000000000001010101C3
:103A000001010101010101010101010101010101A6
:103A10000101010101010101010101010101010196
:103A20000101010101010101010101010101010186
:103A30000101010101010101010101010101010176
:103A40000101010101010101010101010101010166
:103A50000101010101010101010101010101020254
:103A60000202020202020202020202020202020236
:103A70000202020202020202020202020202020226
:103A80000202020202020202020202020202020216
:103A90000202020202020202020202020202020206
:103AA00002020202020202020202020202020202F6
:103AB00002020202020202020202020202020202E6
:103AC00002020202020202020202020202020202D6
:103AD00002020202020202020202020202020203C5
:103AE00003030303030303030303030303030303A6
:103AF0000303030303030303030303030303030396
:103B00000303030303030303030303030303030385
:103B10000303030303030303030303030303030375
:103B20000303030303030303030303030303030365
:103B30000303030303030303030303030404040451
:103B40000404040404040404040404040404040435
:103B50000404040404040404040404040404040425
:103B60000404040404040404040404040404040415
:103B70000404040404040404040404040404040405
:103B800004040404040404040404040404040404F5
:103B900004040404040404040404040404040404E5
:103BA000040404040404040404040404050B121CA7
:103BB00022272723180F080504040404040A1C20E4
:103BC0001E1B18161412100E0D0B0A090806060506
:103BD00004040404040404040404040404030303A8
:103BE00003030303030303030303030303030303A5
:103BF0000303030303030303030303030303030395
:103C000003030303000000000000000000000000A8
:103C100000000000000000000000000000000000A4
:103C20000000000000000000000000000000000094
:103C30000001010203040607080A0C0D0F111316F8
:103C4000191C1E0C00000000000000000000000015
:103C50000000000000000000000000000000000064
:103C60000000000000000000000000000000000054
:103C70000000000000000000000000000000000044
:103C80000000000000000000000000000000000034
:103C90000000000000000000000000000000000024
:103CA0000000000000000000000000000000000014
:103CB0000000000000000000000000000000000004
:103CC00000000000000000000000000000000000F4
:103CD00000000000000000000000000000000000E4
:103CE00000000000000000000000000000000000D4
:103CF00000000000000000000000000000000000C4
:103D000000000000000000000000000000000000B3
:103D1000000000000000000000000001010101019E
:103D20000101010101010101010101010101010183
:103D30000101010101010101010101010101010173
:103D40000101010101010101010101010101010163
:103D50000101010101010101010101010101010153
:103D60000101010101010101010101010101010143
:103D70000101010101010101010101010101020231
:103D80000202020202020202020202020202020213
:103D90000202020202020202020202020202020203
:103DA00002020202020202020202020202020202F3
:103DB00002020202020202020202020202020202E3
:103DC00002020202020202020202020202020202D3
:103DD00002020202020202020202020202020202C3
:103DE00002020202020202020202020202020202B3
:103DF000020202020202020202020202030303039F
:103E00000303030303030303030303030303030382
:103E10000303030303030303030303030303030372
:103E20000303030303030303030303030303030362
:103E30000303030303030303030303030303030352
:103E40000303030303030303030303030303030342
:103E5000030303030303030303030304040404042D
:103E60000404040404040404040404040404040412
:103E70000404040404040404040404040404040402
:103E800004040404040404040404040404040404F2
:103E900004040404040404040404040404040404E2
:103EA00004040404040404040404040404040404D2
:103EB00004040404040404040404040404040404C2
:103EC000040404040404040404040405060C131D7F
:103ED00023282621150D060504040404040A1C20C9
:103EE0001E1B18161412100E0D0B0A0908060605E3
:103EF0000404040404040404040404040303030386
:103F00000303030303030303030303030303030381
:103F10000303030303030303030303030303030371
:103F20000303030300000000000000000000000085
:103F30000000000000000000000000000000000081
:103F40000000000000000000000000000000000071
:103F50000001010203040607080A0C0D0F111316D5
:103F6000191C1E0C000000000000000000000000F2
:103F70000000000000000000000000000000000041
:103F80000000000000000000000000000000000031
:103F90000000000000000000000000000000000021
:103FA0000000000000000000000000000000000011
:103FB0000000000000000000000000000000000001
:103FC00000000000000000000000000000000000F1
:103FD00000000000000000000000000000000000E1
:103FE00000000000000000000000000000000000D1
:103FF00000000000000000000000000000000000C1
:1040000000000000000000000000000000000000B0
:1040100000000000000000000000000000000000A0
:104020000000000000000000000000000000000090
:10403000000000000000000000000101010101017A
:104040000101010101010101010101010101010160
:104050000101010101010101010101010101010150
:104060000101010101010101010101010101010140
:104070000101010101010101010101010101010130
:104080000101010101010101010101010101010120
:10409000010101010101010101010101010102020E
:1040A00002020202020202020202020202020202F0
:1040B00002020202020202020202020202020202E0
:1040C00002020202020202020202020202020202D0
:1040D00002020202020202020202020202020202C0
:1040E00002020202020202020202020202020202B0
:1040F00002020202020202020202020202020202A0
:10410000020202020202020202020202020202028F
:10411000020202020202020202020203030303037A
:10412000030303030303030303030303030303035F
:10413000030303030303030303030303030303034F
:10414000030303030303030303030303030303033F
:10415000030303030303030303030303030303032F
:10416000030303030303030303030303030303031F
:104170000303030303030303030304040404040409
:1041800004040404040404040404040404040404EF
:1041900004040404040404040404040404040404DF
:1041A00004040404040404040404040404040404CF
:1041B00004040404040404040404040404040404BF
:1041C00004040404040404040404040404040404AF
:1041D000040404040404040404040404040404049F
:1041E000040404040404040404040406080E161F52
:1041F0002528251F130B060504040404040A1C20AB
:104200001E1B18161412100E0D0B0A0908060605BF
:104210000404040404040404040404040303030362
:10422000030303030303030303030303030303035E
:10423000030303030303030303030303030303034E
:104240000303030300000000000000000000000062
:10425000000000000000000000000000000000005E
:10426000000000000000000000000000000000004E
:104270000001010203040607080A0C0D0F111316B2
:10428000191C1E0C000000000000000000000000CF
:10429000000000000000000000000000000000001E
:1042A000000000000000000000000000000000000E
:1042B00000000000000000000000000000000000FE
:1042C00000000000000000000000000000000000EE
:1042D00000000000000000000000000000000000DE
:1042E00000000000000000000000000000000000CE
:1042F00000000000000000000000000000000000BE
:1043000000000000000000000000000000000000AD
:10431000000000000000000000000000000000009D
:10432000000000000000000000000000000000008D
:10433000000000000000000000000000000000007D
:10434000000000000000000000000000000000006D
:104350000000000000000000000001010101010157
:10436000010101010101010101010101010101013D
:10437000010101010101010101010101010101012D
:10438000010101010101010101010101010101011D
:10439000010101010101010101010101010101010D
:1043A00001010101010101010101010101010101FD
:1043B00001010101010101010101010101010202EB
:1043C00002020202020202020202020202020202CD
:1043D00002020202020202020202020202020202BD
:1043E00002020202020202020202020202020202AD
:1043F000020202020202020202020202020202029D
:10440000020202020202020202020202020202028C
:10441000020202020202020202020202020202027C
:10442000020202020202020202020202020202026C
:104430000202020202020202030303030303030354
:10444000030303030303030303030303030303033C
:10445000030303030303030303030303030303032C
:10446000030303030303030303030303030303031C
:10447000030303030303030303030303030303030C
:1044800003030303030303030303030303030303FC
:1044900003030303030303030304040404040404E5
:1044A00004040404040404040404040404040404CC
:1044B00004040404040404040404040404040404BC
:1044C00004040404040404040404040404040404AC
:1044D000040404040404040404040404040404049C
:1044E000040404040404040404040404040404048C
:1044F000040404040404040404040404040404047C
:104500000404040404040404040405070B121A221E
:104510002628231C1009050404040404040A1C2092
:104520001E1B18161412100E0D0B0A09080606059C
:10453000040404040404040404040404030303033F
:10454000030303030303030303030303030303033B
:10455000030303030303030303030303030303032B
:10456000030303030000000000000000000000003F
:10457000000000000000000000000000000000003B
:10458000000000000000000000000000000000002B
:104590000001010203040607080A0C0D0F1113168F
:1045A000191C1E0C000000000000000000000000AC
:1045B00000000000000000000000000000000000FB
:1045C00000000000000000000000000000000000EB
:1045D00000000000000000000000000000000000DB
:1045E00000000000000000000000000000000000CB
:1045F00000000000000000000000000000000000BB
:1046000000000000000000000000000000000000AA
:10461000000000000000000000000000000000009A
:10462000000000000000000000000000000000008A
:10463000000000000000000000000000000000007A
:10464000000000000000000000000000000000006A
:10465000000000000000000000000000000000005A
:10466000000000000000000000000000000000004A
:104670000000000000000000000001010101010134
:10468000010101010101010101010101010101011A
:10469000010101010101010101010101010101010A
:1046A00001010101010101010101010101010101FA
:1046B00001010101010101010101010101010101EA
:1046C00001010101010101010101010101010101DA
:1046D00001010101010101010101010101010202C8
:1046E00002020202020202020202020202020202AA
:1046F000020202020202020202020202020202029A
:104700000202020202020202020202020202020289
:104710000202020202020202020202020202020279
:104720000202020202020202020202020202020269
:104730000202020202020202020202020202020259
:104740000202020202020202020202020202020249
:104750000202020202020203030303030303030330
:104760000303030303030303030303030303030319
:104770000303030303030303030303030303030309
:1047800003030303030303030303030303030303F9
:1047900003030303030303030303030303030303E9
:1047A00003030303030303030303030303030303D9
:1047B00003030303030303030404040404040404C1
:1047C00004040404040404040404040404040404A9
:1047D0000404040404040404040404040404040499
:1047E0000404040404040404040404040404040489
:1047F0000404040404040404040404040404040479
:104800000404040404040404040404040404040468
:104810000404040404040404040404040404040458
:104820000404040404040404040405090D161E24ED
:10483000272720170D08040404040404040A1C207C
:104840001E1B18161412100E0D0B0A090806060579
:10485000040404040404040404040404030303031C
:104860000303030303030303030303030303030318
:104870000303030303030303030303030303030308
:10488000030303030000000000000000000000001C
:104890000000000000000000000000000000000018
:1048A0000000000000000000000000000000000008
:1048B0000001010203040607080A0C0D0F1113166C
:1048C000191C1E0C00000000000000000000000089
:1048D00000000000000000000000000000000000D8
:1048E00000000000000000000000000000000000C8
:1048F00000000000000000000000000000000000B8
:1049000000000000000000000000000000000000A7
:104910000000000000000000000000000000000097
:104920000000000000000000000000000000000087
:104930000000000000000000000000000000000077
:104940000000000000000000000000000000000067
:104950000000000000000000000000000000000057
:104960000000000000000000000000000000000047
:104970000000000000000000000000000000000037
:104980000000000000000000000000000000000027
:104990000000000000000000000001010101010111
:1049A00001010101010101010101010101010101F7
:1049B00001010101010101010101010101010101E7
:1049C00001010101010101010101010101010101D7
:1049D00001010101010101010101010101010101C7
:1049E00001010101010101010101010101010101B7
:1049F00001010101010101010101010101010202A5
:104A00000202020202020202020202020202020286
:104A10000202020202020202020202020202020276
:104A20000202020202020202020202020202020266
:104A30000202020202020202020202020202020256
:104A40000202020202020202020202020202020246
:104A50000202020202020202020202020202020236
:104A60000202020202020202020202020202020226
:104A7000020202020203030303030303030303030B
:104A800003030303030303030303030303030303F6
:104A900003030303030303030303030303030303E6
:104AA00003030303030303030303030303030303D6
:104AB00003030303030303030303030303030303C6
:104AC00003030303030303030303030303030303B6
:104AD000030303030303030404040404040404049D
:104AE0000404040404040404040404040404040486
:104AF0000404040404040404040404040404040476
:104B00000404040404040404040404040404040465
:104B10000404040404040404040404040404040455
:104B20000404040404040404040404040404040445
:104B30000404040404040404040404040404040435
:104B400004040404040404040404060A101A2227BA
:104B500027261C130B06040404040404040A1C2066
:104B60001E1B18161412100E0D0B0A090806060556
:104B700004040404040404040404040403030303F9
:104B800003030303030303030303030303030303F5
:104B900003030303030303030303030303030303E5
:104BA00003030303000000000000000000000000F9
:104BB00000000000000000000000000000000000F5
:104BC00000000000000000000000000000000000E5
:104BD0000001010203040607080A0C0D0F11131649
:104BE000191C1E0C00000000000000000000000066
:104BF00000000000000000000000000000000000B5
:104C000000000000000000000000000000000000A4
:104C10000000000000000000000000000000000094
:104C20000000000000000000000000000000000084
:104C30000000000000000000000000000000000074
:104C40000000000000000000000000000000000064
:104C50000000000000000000000000000000000054
:104C60000000000000000000000000000000000044
:104C70000000000000000000000000000000000034
:104C80000000000000000000000000000000000024
:104C90000000000000000000000000000000000014
:104CA0000000000000000000000000000000000004
:104CB00000000000000000000000010101010101EE
:104CC00001010101010101010101010101010101D4
:104CD00001010101010101010101010101010101C4
:104CE00001010101010101010101010101010101B4
:104CF00001010101010101010101010101010101A4
:104D00000101010101010101010101010101010193
:104D10000101010101010101010101010101020281
:104D20000202020202020202020202020202020263
:104D30000202020202020202020202020202020253
:104D40000202020202020202020202020202020243
:104D50000202020202020202020202020202020233
:104D60000202020202020202020202020202020223
:104D70000202020202020202020202020202020213
:104D80000202020202020202020202020202020203
:104D900002020303030303030303030303030303E5
:104DA00003030303030303030303030303030303D3
:104DB00003030303030303030303030303030303C3
:104DC00003030303030303030303030303030303B3
:104DD00003030303030303030303030303030303A3
:104DE0000303030303030303030303030303030393
:104DF000030303030303030404040404040404047A
:104E00000404040404040404040404040404040462
:104E10000404040404040404040404040404040452
:104E20000404040404040404040404040404040442
:104E30000404040404040404040404040404040432
:104E40000404040404040404040404040404040422
:104E50000404040404040404040404040404040412
:104E600004040404040404040404060B121C242790
:104E70002624190F0805040404040404040A1C2051
:104E80001E1B18161412100E0D0B0A090806060533
:104E900004040404040404040404040303030303D7
:104EA00003030303030303030303030303030303D2
:104EB00003030303030303030303030303030303C2
:104EC00003030303000000000000000000000000D6
:104ED00000000000000000000000000000000000D2
:104EE00000000000000000000000000000000000C2
:104EF0000001010203040607080A0C0D0F11131626
:104F0000191C1E0C00000000000000000000000042
:104F10000000000000000000000000000000000091
:104F20000000000000000000000000000000000081
:104F30000000000000000000000000000000000071
:104F40000000000000000000000000000000000061
:104F50000000000000000000000000000000000051
:104F60000000000000000000000000000000000041
:104F70000000000000000000000000000000000031
:104F80000000000000000000000000000000000021
:104F90000000000000000000000000000000000011
:104FA0000000000000000000000000000000000001
:104FB00000000000000000000000000000000000F1
:104FC00000000000000000000000000000000000E1
:104FD00000000000000000000000010101010101CB
:104FE00001010101010101010101010101010101B1
:104FF00001010101010101010101010101010101A1
:105000000101010101010101010101010101010190
:105010000101010101010101010101010101010180
:105020000101010101010101010101010101010170
:10503000010101010101010101010101010102025E
:105040000202020202020202020202020202020240
:105050000202020202020202020202020202020230
:105060000202020202020202020202020202020220
:105070000202020202020202020202020202020210
:105080000202020202020202020202020202020200
:1050900002020202020202020202020202020202F0
:1050A00002020202020202020202020202020202E0
:1050B00002030303030303030303030303030303C1
:1050C00003030303030303030303030303030303B0
:1050D00003030303030303030303030303030303A0
:1050E0000303030303030303030303030303030390
:1050F0000303030303030303030303030303030380
:10510000030303030303030303030303030303036F
:105110000303030303030304040404040404040456
:10512000040404040404040404040404040404043F
:10513000040404040404040404040404040404042F
:10514000040404040404040404040404040404041F
:10515000040404040404040404040404040404040F
:1051600004040404040404040404040404040404FF
:1051700004040404040404040404040404040404EF
:1051800004040404040404040405060C141E252766
:105190002622160C0705040404040404040A1C2037
:1051A0001E1B18161412100E0D0B0A090806060510
:1051B00004040404040404040404030303030303B5
:1051C00003030303030303030303030303030303AF
:1051D000030303030303030303030303030303039F
:1051E00003030303000000000000000000000000B3
:1051F00000000000000000000000000000000000AF
:10520000000000000000000000000000000000009E
:105210000001010203040607080A0C0D0F11131602
:10522000191C1E0C0000000000000000000000001F
:10523000000000000000000000000000000000006E
:10524000000000000000000000000000000000005E
:10525000000000000000000000000000000000004E
:10526000000000000000000000000000000000003E
:10527000000000000000000000000000000000002E
:10528000000000000000000000000000000000001E
:10529000000000000000000000000000000000000E
:1052A00000000000000000000000000000000000FE
:1052B00000000000000000000000000000000000EE
:1052C00000000000000000000000000000000000DE
:1052D00000000000000000000000000000000000CE
:1052E00000000000000000000000000000000000BE
:1052F00000000000000000000000010101010101A8
:10530000010101010101010101010101010101018D
:10531000010101010101010101010101010101017D
:10532000010101010101010101010101010101016D
:10533000010101010101010101010101010101015D
:10534000010101010101010101010101010101014D
:10535000010101010101010101010101010102023B
:10536000020202020202020202020202020202021D
:10537000020202020202020202020202020202020D
:1053800002020202020202020202020202020202FD
:1053900002020202020202020202020202020202ED
:1053A00002020202020202020202020202020202DD
:1053B00002020202020202020202020202020202CD
:1053C00002020202020202020202020202020303BB
:1053D000030303030303030303030303030303039D
:1053E000030303030303030303030303030303038D
:1053F000030303030303030303030303030303037D
:10540000030303030303030303030303030303036C
:10541000030303030303030303030303030303035C
:10542000030303030303030303030303030303034C
:105430000303030303030404040404040404040432
:10544000040404040404040404040404040404041C
:10545000040404040404040404040404040404040C
:1054600004040404040404040404040404040404FC
:1054700004040404040404040404040404040404EC
:1054800004040404040404040404040404040404DC
:1054900004040404040404040404040404040404CC
:1054A00004040404040404040406090F1720262736
:1054B000241F130A0605040404040404040A1C201F
:1054C0001E1B18161412100E0D0B0A0908060605ED
:1054D0000404040404040404040403030303030392
:1054E000030303030303030303030303030303038C
:1054F000030303030303030303030303030303037C
:10550000030303030000000000000000000000008F
:10551000000000000000000000000000000000008B
:10552000000000000000000000000000000000007B
:105530000001010203040607080A0C0D0F111316DF
:10554000191C1E0C000000000000000000000000FC
:10555000000000000000000000000000000000004B
:10556000000000000000000000000000000000003B
:10557000000000000000000000000000000000002B
:10558000000000000000000000000000000000001B
:10559000000000000000000000000000000000000B
:1055A00000000000000000000000000000000000FB
:1055B00000000000000000000000000000000000EB
:1055C00000000000000000000000000000000000DB
:1055D00000000000000000000000000000000000CB
:1055E00000000000000000000000000000000000BB
:1055F00000000000000000000000000000000000AB
:10560000000000000000000000000000000000009A
:105610000000000000000000000001010101010184
:10562000010101010101010101010101010101016A
:10563000010101010101010101010101010101015A
:10564000010101010101010101010101010101014A
:10565000010101010101010101010101010101013A
:10566000010101010101010101010101010101012A
:105670000101010101010101010101010101020218
:1056800002020202020202020202020202020202FA
:1056900002020202020202020202020202020202EA
:1056A00002020202020202020202020202020202DA
:1056B00002020202020202020202020202020202CA
:1056C00002020202020202020202020202020202BA
:1056D00002020202020202020202020202020202AA
:1056E0000202020202020202020202020202030398
:1056F000030303030303030303030303030303037A
:105700000303030303030303030303030303030369
:105710000303030303030303030303030303030359
:105720000303030303030303030303030303030349
:105730000303030303030303030303030303030339
:105740000303030303030303030303030303030329
:10575000030303030304040404040404040404040E
:1057600004040404040404040404040404040404F9
:1057700004040404040404040404040404040404E9
:1057800004040404040404040404040404040404D9
:1057900004040404040404040404040404040404C9
:1057A00004040404040404040404040404040404B9
:1057B00004040404040404040404040404040404A9
:1057C000040404040404040405070C131C22272702
:1057D000221B10080604040404040404040A1C2008
:1057E0001E1B18161412100E0D0B0A0908060605CA
:1057F000040404040404040404040303030303036F
:105800000303030303030303030303030303030368
:105810000303030303030303030303030303030358
:10582000030303030000000000000000000000006C
:105830000000000000000000000000000000000068
:105840000000000000000000000000000000000058
:105850000001010203040607080A0C0D0F111316BC
:10586000191C1E0C000000000000000000000000D9
:105870000000000000000000000000000000000028
:105880000000000000000000000000000000000018
:105890000000000000000000000000000000000008
:1058A00000000000000000000000000000000000F8
:1058B00000000000000000000000000000000000E8
:1058C00000000000000000000000000000000000D8
:1058D00000000000000000000000000000000000C8
:1058E00000000000000000000000000000000000B8
:1058F00000000000000000000000000000000000A8
:105900000000000000000000000000000000000097
:105910000000000000000000000000000000000087
:105920000000000000000000000000000000000077
:105930000000000000000000000001010101010161
:105940000101010101010101010101010101010147
:105950000101010101010101010101010101010137
:105960000101010101010101010101010101010127
:105970000101010101010101010101010101010117
:105980000101010101010101010101010101010107
:1059900001010101010101010101010101020202F4
:1059A00002020202020202020202020202020202D7
:1059B00002020202020202020202020202020202C7
:1059C00002020202020202020202020202020202B7
:1059D00002020202020202020202020202020202A7
:1059E0000202020202020202020202020202020297
:1059F0000202020202020202020202020202020287
:105A0000020202020202020202030303030303036F
:105A10000303030303030303030303030303030356
:105A20000303030303030303030303030303030346
:105A30000303030303030303030303030303030336
:105A40000303030303030303030303030303030326
:105A50000303030303030303030303030303030316
:105A60000303030303030303030303030303030306
:105A700003030303040404040404040404040404EA
:105A800004040404040404040404040404040404D6
:105A900004040404040404040404040404040404C6
:105AA00004040404040404040404040404040404B6
:105AB00004040404040404040404040404040404A6
:105AC0000404040404040404040404040404040496
:105AD0000404040404040404040404040404040486
