:020000040800F2
:100000000000022083000008810000088100000831
:100010008100000881000008810000080000000045
:100020000000000000000000000000008100000847
:100030008100000800000000810000088100000825
:10004000810000088100000881000008810000088C
:10005000810000088100000881000008810000087C
:10006000810000088100000881000008810000086C
:10007000810000088100000881000008810000085C
:10008000FEE726482649274A914205D050F8043B0E
:1000900041F8043B9142F9D1234824494FF0000232
:1000A000884203D040F8042B8842FBD100F040F88E
:1000B000FEE7034B1A681206FCD55860704700BF74
:1000C0000010014008B5411E11F8010F00B908BD2C
:1000D000FFF7EFFFF8E7054B9A689107FCD5187317
:1000E0009A68D207FCD5187B704700BF00300140EA
:1000F00010B5094C4FF08043C4F818340520FFF7C1
:10010000EAFFFF20FFF7E7FFC307FAD44FF480436D
:10011000C4F8183410BD00BF0000024054A5070801
:10012000000000200000002000000020000000204F
:100130002DE9F04F9A4E9B4CD6F830389A489B4D9B
:1001400043F0010385B0C6F83038D6F8443843F0A0
:100150001003C6F84438236823F47013236023681F
:1001600043F420132360636A23F47F6343F4EE6354
:100170006362A36843F42013A3608D4B8B229A60C3
:1001800042F20C02DA60FFF79DFFD6F8303889485A
:1001900043F04203C6F83038D6F8443843F480536D
:1001A000C6F84438D4F8003423F0405323F47C6379
:1001B000C4F80034D4F8003443F0805343F4286387
:1001C000C4F80034D4F820346FF31733C4F8203463
:1001D000D4F8203443F4AA0343F4A043C4F82034F1
:1001E000D4F80C3443F08053C4F80C34D5F80C38F0
:1001F00043F48043C5F80C38D5F8003823F4404365
:1002000043F48043C5F800384FF48043C4F81834F1
:100210008023C5F81838684B40F24F321A60D6F880
:10022000303843F02003C6F83038D5F8003423F4D2
:10023000402343F48023C5F800344FF40073C5F81D
:100240001834FFF73FFF08263020FFF732FFFFF793
:1002500030FF013EF8D15948FFF734FF4FF03033FB
:10026000019343F23053ADF80830062401A9013C54
:10027000085DFFF71EFF002CF9D15148494FFFF7E9
:1002800021FF5048FFF71EFF4FF00073C5F81834E8
:100290004FF080494FF48048C7F818940620FFF7C4
:1002A0001AFFC7F818842020C7F81894FFF713FF27
:1002B000C4F30740FFF70FFFC4F30720FFF70BFF5E
:1002C0000020FFF708FF04F58054C7F81884FFF7F3
:1002D0000FFFB4F5F62FDDD14FF40073C5F81834D5
:1002E0003948DFF8F0902F4FFFF7ECFE4FF0007326
:1002F000C5F81834A4F56E644FF0804A5FFA86FBA7
:10030000CBF58078A045C7F818A44FF0060028BFA9
:10031000A046FFF7E0FE4FF48043C7F818340220F0
:10032000C7F818A4FFF7D7FEC6F30740FFF7D3FEC0
:10033000C6F30720FFF7CFFE5846FFF7CCFE09EBC8
:10034000080BCB4523D14FF48043C7F81834FFF78F
:10035000CFFEB4EB08044644D0D14FF400761B48DE
:10036000C5F81864FFF7AEFE194A4FF00071C5F8E2
:1003700018140094009B93420EDDC5F81864019494
:10038000019B9342F3DC019B01330193F8E719F8D9
:10039000010BFFF7A0FED4E7009B01330093E9E7D0
:1003A0000030024000000240D80300080010024064
:1003B00000100140F1030008003001400304000870
:1003C000160400080A04000819040008280400089C
:1003D0001FA10700330400080D0A3E3E3E204241A3
:1003E00054434820464C41534845522076320D0A2A
:1003F0000020204261746368206F66667365743DF7
:100400003078002073697A653D0020204572617361
:10041000696E672E2E2E0D0A0020205772697469AE
:100420006E672E2E2E0D0A003E3E3E20444F4E4556
:100430000D0A00191400002B00180056000000F8E7
:10044000C7BEF7FFFFFFFFFFFFFFFFFFFFFFFFFF3D
:10045000FFFFFFFFFFFFFFFFFFFFFFFFFFFFFFFFAC
:10046000FFFFFFFFFFFFFFFFFFFFFFFFFFFFFFFF9C
:10047000FFFFFFFFFFFFFFFFFFFFFFFFFFFFFFFF8C
:10048000FFFFFFFFFFFFFFFFFFFFFFFFFFBFFFBB00
:10049000DE000000009DEFFFFFFFFFFFFFFFFFFFFB
:1004A000FFFFFFFFFFFFFFFFFFFFFFFFFFFFFFFF5C
:1004B000FFFFFFFFFFFFFFFFFFFFFFFFFFFFFFFF4C
:1004C000FFFFFFFFFFFFFFFFFFFFFFFFFFFFFFFF3C
:1004D000FFFFFFFFFFFFFFFFFFFFFFFFFFFFFFFF2C
:1004E000FFFFFFDFFF9EF700000000FFFFFFFFFFA1
:1004F000FFFFFFFFFFFFFFFFFFFFFFFFFFFFFFFF0C
:10050000FFFFFFFFFFFFFFFFFFFFFFFFFFFFFFFFFB
:10051000FFFFFFFFFFFFFFFFFFFFFFFFFFFFFFFFEB
:10052000FFFFFFFFFFFFFFFFFFFFFFFFFFFFFFFFDB
:10053000FFFFFFFFFFFFFFDEF7FFFFFFFF000000F1
:1005400000FFFFFFFFFFFF000000000000000000B1
:10055000000000000000000000000000000000009B
:10056000000000000000000000000000000000008B
:10057000000000000000000000000000000000007B
:100580000000000000000000000000F8C65BDFFF74
:10059000FFFFFF00000000FFFFFFFFFFFF00000064
:1005A000000000000000000000000000000000004B
:1005B000000000000000000000000000000000003B
:1005C000000000000000000000000000000000002B
:1005D000000000000000000000000000000000001B
:1005E00000F9C65CDFFFFFFFFF00000000FFFFFF18
:1005F000FFFFFF00000000000000000000000000FE
:1006000000000000000000000000000000000000EA
:1006100000000000000000000000000000000000DA
:1006200000000000000000000000000000000000CA
:1006300000000000000000F9C65CDFFFFFFFFF00C4
:10064000000000FFFFFFFFFFFF00000000000000B0
:10065000000000000000000000000000000000009A
:10066000000000000000000000000000000000008A
:10067000000000000000000000000000000000007A
:1006800000000000000000000000000000F9C65C4F
:10069000DFFFFFFFFFFFFFFFFFFFFFFFFFFFFF0089
:1006A000000000000000000000000000000000004A
:1006B000000000000000000000000000000000003A
:1006C000000000000000000000000000000000002A
:1006D000000000000000000000000000000000001A
:1006E000000000F9C65CDFFFFFFFFFFFFFFFFFFF19
:1006F000FFFFFFFFFF0000000000000000000000FF
:1007000000000000000000000000000000000000E9
:1007100000000000000000000000000000000000D9
:1007200000000000000000000000000000000000C9
:10073000000000000000000000D8C63BD7BEF7FF55
:10074000FFFFFFFFFFFFFFFFFFFFFF0000000000B4
:100750000000000000000000000000000000000099
:100760000000000000000000000000000000000089
:100770000000000000000000000000000000000079
:100780000000000000000000000000000000000069
:100790000000000000FFFFFFFFFFFFFFFFFFFFFF64
:1007A000FF0000000000000000000000000000004A
:1007B0000000000000000000000000000000000039
:1007C0000000000000000000000000000000000029
:1007D0000000000000000000000000000000000019
:1007E0000000000000000000000000FFFFFFFFFF0E
:1007F000FFFFFFFFFFFFFF00000000000000000000
:1008000000000000000000000000000000000000E8
:1008100000000000000000000000000000000000D8
:1008200000000000000000000000000000000000C8
:1008300000000000000000000000000000000000B8
:1008400000FFFFFFFFFFFFFFFFFFFFFFFF000000B4
:100850000000000000000000000000000000000098
:100860000000000000000000000000000000000088
:100870000000000000000000000000000000000078
:100880000000000000000000000000000000000068
:1008900000000000000000FFFFFFFFFFFFFFFFFF61
:1008A000FFFFFF000000000000000000000000004B
:1008B0000000000000000000000000000000000038
:1008C0000000000000000000000000000000000028
:1008D0000000000000000000000000000000000018
:1008E00000000000000000000000000000FFFFFF0B
:1008F000FFFFFFFFFFFFFFFFFF0000000000000001
:1009000000000000000000000000000000000000E7
:1009100000000000000000000000000000000000D7
:1009200000000000000000000000000000000000C7
:1009300000000000000000000000000000000000B7
:10094000000000FFFFFFFFFFFFFFFFFFFFFFFF00B3
:100950000000000000000000000000000000000097
:100960000000000000000000000000000000000087
:100970000000000000000000000000000000000077
:100980000000000000000000000000000000000067
:10099000000000D8C63BD7BEF7FFFFFFFFFFFFFFF9
:1009A000FFFFFFFFFF00000000000000000000004C
:1009B0000000000000000000000000000000000037
:1009C0000000000000000000000000000000000027
:1009D0000000000000000000000000000000000017
:1009E000000000000000000000F9C65CDFFFFFFF10
:1009F000FFFFFFFFFFFFFFFFFFFFFF000000000002
:100A000000000000000000000000000000000000E6
:100A100000000000000000000000000000000000D6
:100A200000000000000000000000000000000000C6
:100A3000000000000000000000000000000000F9BD
:100A4000C65CDFFFFFFFFFFFFFFFFFFFFFFFFFFFB2
:100A5000FF00000000000000000000000000000097
:100A60000000000000000000000000000000000086
:100A70000000000000000000000000000000000076
:100A80000000000000000000000000000000000066
:100A90000000000000F9C65CDFFFFFFFFF00000060
:100AA00000FFFFFFFFFFFF0000000000000000004C
:100AB0000000000000000000000000000000000036
:100AC0000000000000000000000000000000000026
:100AD0000000000000000000000000000000000016
:100AE0000000000000000000000000F9C65CDFFF0D
:100AF000FFFFFF00000000FFFFFFFFFFFF000000FF
:100B000000000000000000000000000000000000E5
:100B100000000000000000000000000000000000D5
:100B200000000000000000000000000000000000C5
:100B300000000000000000000000000000000000B5
:100B400000F8C65BDFFFFFFFFF00000000FFFFFFB4
:100B5000FFFFFFFFFFFFFFFFFFFFFFFFFFFFFFFFA5
:100B6000FFFFFFFFFFFFFFFFFFFFFFFFFFFFFFFF95
:100B7000FFFFFFFFFFFFFFFFFFFFFFFFFFFFFFFF85
:100B8000FFFFFFFFFFFFFFFFFFFFFFFFFFFFFFFF75
:100B9000FFFFFFFFFFFFFFFFFFDEF7FFFFFFFF008D
:100BA0000000009DEFFFFFFFFFFFFFFFFFFFFFFFC4
:100BB000FFFFFFFFFFFFFFFFFFFFFFFFFFFFFFFF45
:100BC000FFFFFFFFFFFFFFFFFFFFFFFFFFFFFFFF35
:100BD000FFFFFFFFFFFFFFFFFFFFFFFFFFFFFFFF25
:100BE000FFFFFFFFFFFFFFFFFFFFFFFFFFFFFFFF15
:100BF000FFDFFF9EF700000000F8C7BEF7FFFFFF12
:100C0000FFFFFFFFFFFFFFFFFFFFFFFFFFFFFFFFF4
:100C1000FFFFFFFFFFFFFFFFFFFFFFFFFFFFFFFFE4
:100C2000FFFFFFFFFFFFFFFFFFFFFFFFFFFFFFFFD4
:100C3000FFFFFFFFFFFFFFFFFFFFFFFFFFFFFFFFC4
:100C4000FFFFFFFFFFFFFFBFFFBBDE000000000450
:100C50004CFFFFFFFFFFFFFFFFFFFFFFFFFFFFFF57
:100C6000FFFFFFFFFFFFFFFFFFFFFFFFFFFFFFFF94
:100C7000FFFFFFFFFFD24A0600005EFFFFFFFFFFFE
:100C8000FFFFFFFFFFFFFFFFFFFFFFFFFFFFFFFF74
:100C9000FFFFFFFFFFFFFFFFFFFFFFFFFFFFFFFF64
:100CA000FFFC570000FFFFE3AFAFAFAFAFAFAFAF99
:100CB000AFAFAFAFAFAFAFAFAFAFAFAFAFAFAFAF44
:100CC000AFAFAFAFAFAFAFAFAFAFBDF2FF59000047
:100CD000FFFFA60000000000000000000000000070
:100CE0000000000000000000000000000000000004
:100CF00000000000002CD5FF590000FFFFA60000F7
:100D000000000000000000000000000000000000E3
:100D100000000000000000000000000000000000D3
:100D20002BD3FF590000FFFFA600000000000000C9
:100D300000000000000000000000000000000000B3
:100D400000000000000000000000002BD3FF59004D
:100D500000FFFFA6000000000000000000000000EF
:100D60000000000000000000000000000000000083
:100D70000000000000002BD3FFE0CF0FFFFFA60014
:100D80000000000000000000000000000000000063
:100D90000000000000000000000000000000000053
:100DA000002BD3FFFFFFF0FFFFA6000000000000B4
:100DB0000000000000000000000000000000000033
:100DC000000000000000000000000000146277CF67
:100DD000FFFFFFFFA6000000000000000000000071
:100DE0000000000000000000000000000000000003
:100DF00000000000000000000000A6FFFFFFFFA6AB
:100E000000000000000000000000000000000000E2
:100E100000000000000000000000000000000000D2
:100E20000000000000A6FFFFFFFFA600000000007A
:100E300000000000000000000000000000000000B2
:100E400000000000000000000000000000000000A2
:100E5000A6FFFFFFFFA6000000000000000000004A
:100E60000000000000000000000000000000000082
:100E70000000000000000000000000A6FFFFFFFFD0
:100E8000A6000000000000000000000000000000BC
:100E90000000000000000000000000000000000052
:100EA000000000000000A6FFFFFFFFA600000000FA
:100EB0000000000000000000000000000000000032
:100EC0000000000000000000000000000000000022
:100ED00000A6FFFFFFFFA6000000000000000000CA
:100EE0000000000000000000000000000000000002
:100EF000000000000000000000146277CFFFFFFF39
:100F0000FFA600000000000000000000000000003C
:100F100000000000000000000000000000000000D1
:100F2000000000002BD3FFFFFFF0FFFFA600000032
:100F300000000000000000000000000000000000B1
:100F40000000000000000000000000000000002B76
:100F5000D3FFE0CF0FFFFFA600000000000000005D
:100F60000000000000000000000000000000000081
:100F7000000000000000000000002BD3FF5900001B
:100F8000FFFFA600000000000000000000000000BD
:100F90000000000000000000000000000000000051
:100FA00000000000002BD3FF590000FFFFA6000047
:100FB0000000000000000000000000000000000031
:100FC0000000000000000000000000000000000021
:100FD0002CD5FF590000FFFFE3AFAFAFAFAFAFAF0E
:100FE000AFAFAFAFAFAFAFAFAFAFAFAFAFAFAFAF11
:100FF000AFAFAFAFAFAFAFAFAFAFAFBDF2FF590065
:10100000005EFFFFFFFFFFFFFFFFFFFFFFFFFFFF90
:10101000FFFFFFFFFFFFFFFFFFFFFFFFFFFFFFFFE0
:10102000FFFFFFFFFFFFFFFFFC570000044CFFFF27
:10103000FFFFFFFFFFFFFFFFFFFFFFFFFFFFFFFFC0
:10104000FFFFFFFFFFFFFFFFFFFFFFFFFFFFFFFFB0
:10105000FFFFD24A060000191400002B00180056AA
:101060000000000000000000000000000000000080
:101070000000000000000000000000000000000070
:101080000000000000000000000000000000000060
:101090000000000000000000000000000000000050
:1010A0000000000000000000000000000000000040
:1010B0000000000000000000000000000000000030
:1010C0000000000000000000000000000000000020
:1010D0000000000000000000000000000000000010
:1010E0000000000000000000000000000000000000
:1010F00000000000000000000000000000000000F0
:1011000000000000000000000000000000000000DF
:1011100000000000000000000000000000000000CF
:1011200000000000000000000000000000000000BF
:1011300000000000000000000000000000000000AF
:10114000000000000000000000000000000000009F
:10115000000000000000000000000000000000008F
:10116000000000000000000000000000000000007F
:10117000000000000000000000000000000000006F
:10118000000000000000000000000000000000005F
:10119000000000000000000000000000000000004F
:1011A000000000000000000000000000000000003F
:1011B000000000000000000000000000000000002F
:1011C000000000E51FC51FE51FE51FE51FE51FE542
:1011D0001FE51FC51FE51FE51FE51FE51FE51FE50F
:1011E0001FE51FE51FE51FE51FE51FE51FE51FE5DF
:1011F0001FE51FE51FE51FE51FE51FE51FE51FE5CF
:101200001FE51FE51F0000000000000000000000B7
:10121000000000000000000000E51FC51FE51FE5FD
:101220001FE51FE51FE51FE51FE51FE51FE51FE59E
:101230001FE51FE51FE51FE51FE51FE51FE51FE58E
:101240001FE51FE51FE51FE51FE51FE51FE51FE57E
:101250001FE51FE51FE51FE51FE51F00000000005B
:10126000000000000000000000000000000000C5B9
:101270001FE51FE51FE51FE51FE51FE51FE51FC56E
:101280001FE51FE51FE51FE51FE51FE51FE51FE53E
:101290001FE51FE51FE51FE51FE51FE51FE51FE52E
:1012A0001FE51FE51FE51FE51FE51FE51FE51FE51E
:1012B0001F0000000000000000000000000000000F
:1012C0000000000000C51FE51FE51FE51FE51FE545
:1012D0001FE51FE51FC51FE51FE51FE51FE51FE50E
:1012E0001FE51FE51FE51FE51FE51FE51FE51FE5DE
:1012F0001FE51FE51FE51FE51FE51FE51FE51FE5CE
:101300001FE51FE51FE51F000000000000000000B2
:101310000000000000000000000000C51FE51FE500
:101320001FE51FE51FE51FE51FE51FC51FE51FE5BD
:101330001FE51FE51FE51FE51FE51FE51FE51FE58D
:101340001FE51FE51FE51FE51FE51FE51FE51FE57D
:101350001FE51FE51FE51FE51FE51FE51F00000056
:10136000000000000000000000000000000000007D
:1013700000C51FE51FE51FE51FE51FE51FE51FE58C
:101380001FC51FE51FE51FE51FE51FE51FE51FE55D
:101390001FE51FE51FE51FE51FE51FE51FE51FE52D
:1013A0001FE51FE51FE51FE51FE51FE51FE51FE51D
:1013B0001FE51F000000000000000000000000000A
:1013C00000000000000000C51FE51FE51FE51FE548
:1013D0001FE51FE51FE51FC51FE51FE51FE51FE50D
:1013E0001FE51FE51FE51FE51FE51FE51FE51FE5DD
:1013F0001FE51FE51FE51FE51FE51FE51FE51FE5CD
:101400001FE51FE51FE51FE51F00000000000000AD
:1014100000000000000000000000000000C51FE503
:101420001FE51FE51FE51FE51FE51FE51FC51FE5BC
:101430001FE51FE51FE51FE51FE51FE51FE51FE58C
:101440001FE51FE51FE51FE51FE51FE51FE51FE57C
:101450001FE51FE51FE51FE51FE51FE51FE51F0051
:10146000000000000000000000000000000000007C
:10147000000000C51FE51FE51FE51FE51FE51FE58F
:101480001FE51FC51FE51FE51FE51FE51FE51FE55C
:101490001FE51FE51FE51FE51FE51FE51FE51FE52C
:1014A0001FE51FE51FE51FE51FE51FE51FE51FE51C
:1014B0001FE51FE51F000000000000000000000005
:1014C000000000000000000000C51FE51FE51FE54B
:1014D0001FE51FE51FE51FE51FC51FE51FE51FE50C
:1014E0001FE51FE51FE51FE51FE51FE51FE51FE5DC
:1014F0001FE51FE51FE51FE51FE51FE51FE51FE5CC
:101500001FE51FE51FE51FE51FE51F0000000000A8
:10151000000000000000000000000000000000C506
:101520001FE51FE51FE51FE51FE51FE51FE51FC5BB
:101530001FE51FE51FE51FE51FE51FE51FE51FE58B
:101540001FE51FE51FE51FE51FE51FE51FE51FE57B
:101550001FE51FE51FE51FE51FE51FE51FE51FE56B
:101560001F0000000000000000000000000000005C
:101570000000000000C51FE51FE51FE51FE51FE592
:101580001FE51FE51FC51FE51FE51FE51FE51FE55B
:101590001FE51FE51FE51FE51FE51FE51FE51FE52B
:1015A0001FE51FE51FE51FE51FE51FE51FE51FE51B
:1015B0001FE51FE51FE51F00000000000000000000
:1015C0000000000000000000000000C51FE51FE54E
:1015D0001FE51FE51FE51FE51FE51FC51FE51FE50B
:1015E0001FE51FE51FE51FE51FE51FE51FE51FE5DB
:1015F0001FE51FE51FE51FE51FE51FE51FE51FE5CB
:101600001FE51FE51FE51FE51FE51FE51F000000A3
:1016100000000000000000000000000000000000CA
:1016200000C51FE51FE51FE51FE51FE51FE51FE5D9
:101630001FC51FE51FE51FE51FE51FE51FE51FE5AA
:101640001FE51FE51FE51FE51FE51FE51FE51FE57A
:101650001FE51FE51FE51FE51FE51FE51FE51FE56A
:101660001FE51F0000000000000000000000000057
:1016700000000000000000E51FC51FE51FE51FE595
:101680001FE51FE51FE51FC51FC51FC51FC51FC5DA
:101690001FC51FC51FC51FC51FC51FC51FC51FC52A
:1016A0001FC51FC51FC51FC51FE51FE51FE51FE59A
:1016B0001FE51FE51FE51FE51F00000000000000FB
:1016C00000000000000000000000000000E51FC551
:1016D0001FE51FE51FE51FE51FE51FE51FC51FC52A
:1016E0001FC51FC51FC51FC51FC51FC51FC51FC5DA
:1016F0001FC51FC51FC51FC51FC51FC51FC51F850A
:1017000027852785278527852785278527E61700AD
:1017100000000000000000000000000000000000C9
:1017200000000000000000000000000000000000B9
:1017300000000000000000000000000000000000A9
:101740000000000000000000000000000000000099
:101920000000003257595959595959788E8F8F8F65
:101930008F8F8F8F8F8F8F8F8F8F8F8F8F8F8F8FB7
:101940008F8F8F81000000000000000000007ADA15
:10195000E1E1E1E1E1E1F2FEFFFFFFFFFFFFFFFF59
:10196000FFFFFFFFFFFFFFFFFFFFFFFFFFFFE7009E
:101970000000000000000000008AF7FFFFFFFFFFEB
:10198000FFFFFFFFFFFFFFFFFFFFFFFFFFFFFFFF67
:10199000FFFFFFFFFFFFFFFFFFE700000000000069
:1019A000000000008AF7FFFFFFFFFFFFFFFFFFFFC0
:1019B000FFFFFFFFFFFFFFFFFFFFFFFFFFFFFFFF37
:1019C000FFFFFFFFE7000000000000000000008AAA
:1019D000F7FFFFFFFFFFFFFFFFFFFFFFFFFFFFFF1F
:1019E000FFFFFFFFFFFFFFFFFFFFFFFFFFFFFFE71F
:1019F000000000000000000000008AF7FFFFFFFF6A
:101A0000FFFFFFFFFFFFFFFFFFFFFFFFFFFFFFFFE6
:101A1000FFFFFFFFFFFFFFFFFFFFE70000000000E9
:101A200000000000008AF7FFFFFFFFFFFFFFFFFF3E
:101A3000FFFFFFFFFFFFFFFFFFFFFFFFFFFFFFFFB6
:101A4000FFFFFFFFFFE700000000000000000000B4
:101A50008AF7FFFFFFFFFFFFFFFFFFFFFFFFFFFF13
:101A6000FFFFFFFFFFFFFFFFFFFFFFFFFFFFFFFF86
:101A7000E7000000000000000000008AF7FFFFFF01
:101A8000FFFFFFFFFFFFFFFFFFFFFFFFFFFFFFFF66
:101A9000FFFFFFFFFFFFFFFFFFFFFFE7000000006A
:101AA0000000000000008AF7FFFFFFFFFFFFFFFFBD
:101AB000FFFFFFFFFFFFFFFFFFFFFFFFFFFFFFFF36
:101AC000FFFFFFFFFFFFE700000000000000000035
:101AD000008AF7FFFFFFFFFFFFFFFFFFFFFFFFFF92
:101AE000FFFFFFFFFFFFFFFFFFFFFFFFFFFFFFFF06
:101AF000FFE7000000000000000000008AF7FFFF81
:101B0000FFFFFFFFFFFFFFFFFFFFFFFFFFFFFFFFE5
:101B1000FFFFFFFFFFFFFFFFFFFFFFFFE7000000EA
:101B2000000000000000008AF7FFFFFFFFFFFFFF3B
:101B3000FFFFFFFFFFFFFFFFFFFFFFFFFFFFFFFFB5
:101B4000FFFFFFFFFFFFFFE70000000000000000B5
:101B500000008AF7FFFFFFFFFFFFFFFFFFFFFFFF10
:101B6000FFFFFFFFFFFFFFFFFFFFFFFFFFFFFFFF85
:101B7000FFFFE7000000000000000000007ADAE14B
:101B8000E1E1E1E1E1E1E1E1E1E1E1E1E1E1E1E145
:101B9000E1E1E1E1E1E1B9B9B9B9B9B9B9A8000048
:101BA0000000000000000000325759595959595996
:101BB0005959595959595959595959595959595995
:101BC000591212121212121210000000000000002E
:101BD0000000000000000000000000000000000005
:101BE00000000000000000000000000000000000F5
:101BF00000000000000000000000000000000000E5
:101C000000000000000000000000000000000000D4
:101C100000000000000000000000000000000000C4
:101C200000000000000000000000000000000000B4
:101C300000000000000000000000000000000000A4
:101C40000000000000000000000000000000000094
:101C50000000000000000000000000000000000084
:101C60000000000000000000000000000000000074
:101C70000000000000000000000000191400002017
:101C800003E001400600000000000000000000002A
:101C90000000000000000000000000000000000044
:101CA0000000000000000000000000000000000034
:101CB0000000000000000000000000000000000024
:101CC0000000000000000000000000000000000014
:101ED00000FF07FF07FF07FF07FF07FF07FF07FFD9
:101EE00007FF07FF07FF07FF07FF07FF07FF07FFC2
:101EF00007FF07FF07FF07FF07FF07FF07FF07FFB2
:101F000007FF07FF07FF07FF07FF07FF07FF07FFA1
:101F100007FF07FF07FF07FF07FF07FF07FF07FF91
:101F200007FF07FF07FF07FF07FF07FF07FF07FF81
:101F300007FF07FF07FF07FF07FF07FF07FF07FF71
:101F400007FF07FF07FF07FF07FF07FF07FF07FF61
:101F500007FF07FF07FF07FF07FF07FF07FF07FF51
:101F600007FF07FF07FF07FF07FF07FF07FF07FF41
:101F700007FF07FF07FF07FF07FF07FF07FF07FF31
:101F800007FF07FF07FF07FF07FF07FF07FF07FF21
:101F900007FF07FF07FF07FF07FF07FF07FF07FF11
:101FA00007FF07FF07FF07FF07FF07FF07FF07FF01
:101FB00007FF07FF07FF07FF07FF07FF07FF07FFF1
:101FC00007FF07FF07FF07FF07FF07FF07FF07FFE1
:101FD00007FF07FF07FF07FF07FF07FF07FF07FFD1
:101FE00007FF07FF07FF07FF07FF07FF07FF07FFC1
:101FF00007FF07FF07FF07FF07FF07FF07FF07FFB1
:1020000007FF07FF07FF07FF07FF07FF07FF07FFA0
:1020100007FF07FF07FF07FF07FF07FF07FF07FF90
:102020005FFF5FFF5FFF5FFF5FFF5FFF5FFF5FFFC0
:102030005FFF5FFF5FFF5FFF07FF07FF07FF07FF10
:1020400007FF07FF07FF07FF07FF07FF07FF07FF60
:1020500007FF07FF07FF07FF07FF07FF07FF07FF50
:1020600007FF07FF07FF07FF07FF07FF07FF07FF40
:1020700007FF07FF07FF07FF07FF07FF07FF07FF30
:1022C00007FF07FF07FF07000000000000000000F5
:1022D00000000000000000000000000000000000FE
:1022E00000000000000000000000000000000000EE
:1022F00000000000000000000000000000000000DE
:1023000000000000000000000000000000000000CD
:1025100000FF07FF07FF07FF07FF07FF07FF07FF92
:1025200007FF07FF07FF07FF07FF07FF07FF07FF7B
:1025300007FF07FF07FF07FF07FF07FF07FF07FF6B
:1025400007FF07FF07FF07FF07FF07FF07FF07FF5B
:1025500007FF07FF07FF07FF07FF07FF07FF07FF4B
:1025600007FF07FF07FF07FF07FF07FF07FF07FF3B
:1025700007FF07FF07FF07FF07FF07FF07FF07FF2B
:1025800007FF07FF07FF07FF07FF07FF07FF07FF1B
:1025900007FF07FF07FF07FF07FF07FF07FF07FF0B
:1025A00007FF07FF07FF07FF07FF07FF07FF07FFFB
:1025B00007FF07FF07FF07FF07FF07FF07FF07FFEB
:1025C00007FF07FF07FF07FF07FF07FF07FF07FFDB
:1025D00007FF07FF07FF07FF07FF07FF07FF07FFCB
:1025E00007FF07FF07FF07FF07FF07FF07FF07FFBB
:1025F00007FF07FF07FF07FF07FF07FF07FF07FFAB
:1026000007FF07FF07FF07FF07FF07FF07FF07FF9A
:1026100007FF07FF07FF07FF07FF07FF07FF07FF8A
:1026200007FF07FF07FF07FF07FF07FF07FF07FF7A
:1026300007FF07FF07FF07FF07FF07FF07FF07FF6A
:1026400007FF07FF07FF07FF07FF07FF07FF07FF5A
:1026500007FF07FF07FF07FF07FF07FF07FF07FF4A
:102660005FFF5FFF5FFF5FFF5FFF5FFF5FFF5FFF7A
:102670005FFF5FFF5FFF07FF07FF07FF07FF07FF22
:1026800007FF07FF07FF07FF07FF07FF07FF07FF1A
:1026900007FF07FF07FF07FF07FF07FF07FF07FF0A
:1026A00007FF07FF07FF07FF07FF07FF07FF07FFFA
:1026B00007FF07FF07FF07FF07FF07FF07FF07FFEA
:1029000007FF07FF07FF07000000000000000000AE
:1029100000000000000000000000000000000000B7
:1029200000000000000000000000000000000000A7
:102930000000000000000000000000000000000097
:102940000000000000000000000000000000000087
:102B4000000000000000000000000000000000FF86
:102B500007FF07FF07FF07FF07FF07FF07FF07FF45
:102B600007FF07FF07FF07FF07FF07FF07FF07FF35
:102B700007FF07FF07FF07FF07FF07FF07FF07FF25
:102B800007FF07FF07FF07FF07FF07FF07FF07FF15
:102B900007FF07FF07FF07FF07FF07FF07FF07FF05
:102BA00007FF07FF07FF07FF07FF07FF07FF07FFF5
:102BB00007FF07FF07FF07FF07FF07FF07FF07FFE5
:102BC00007FF07FF07FF07FF07FF07FF07FF07FFD5
:102BD00007FF07FF07FF07FF07FF07FF07FF07FFC5
:102BE00007FF07FF07FF07FF07FF07FF07FF07FFB5
:102BF00007FF07FF07FF07FF07FF07FF07FF07FFA5
:102C000007FF07FF07FF07FF07FF07FF07FF07FF94
:102C100007FF07FF07FF07FF07FF07FF07FF07FF84
:102C200007FF07FF07FF07FF07FF07FF07FF07FF74
:102C300007FF07FF07FF07FF07FF07FF07FF07FF64
:102C400007FF07FF07FF07FF07FF07FF07FF07FF54
:102C500007FF07FF07FF07FF07FF07FF07FF07FF44
:102C600007FF07FF07FF07FF07FF07FF07FF07FF34
:102C700007FF07FF07FF07FF07FF07FF07FF07FF24
:102C800007FF07FF07FF07FF07FF07FF07FF07FF14
:102C900007FF07FF07FF07FF07FF07FF07FF5FFFAC
:102CA0005FFF5FFF5FFF5FFF5FFF5FFF5FFF07FF8C
:102CB00007FF07FF07FF07FF07FF07FF07FF07FFE4
:102CC00007FF07FF07FF07FF07FF07FF07FF07FFD4
:102CD00007FF07FF07FF07FF07FF07FF07FF07FFC4
:102CE00007FF07FF07FF07FF07FF07FF07FF07FFB4
:102F400007FF07FF07FF0700000000000000000068
:102F50000000000000000000000000000000000071
:102F60000000000000000000000000000000000061
:102F70000000000000000000000000000000000051
:102F80000000000000000000000000000000000041
:10318000000000000000000000000000000000FF40
:1031900007FF07FF07FF07FF07FF07FF07FF07FFFF
:1031A00007FF07FF07FF07FF07FF07FF07FF07FFEF
:1031B00007FF07FF07FF07FF07FF07FF07FF07FFDF
:1031C00007FF07FF07FF07FF07FF07FF07FF07FFCF
:1031D00007FF07FF07FF07FF07FF07FF07FF07FFBF
:1031E00007FF07FF07FF07FF07FF07FF07FF07FFAF
:1031F00007FF07FF07FF07FF07FF07FF07FF07FF9F
:1032000007FF07FF07FF07FF07FF07FF07FF07FF8E
:1032100007FF07FF07FF07FF07FF07FF07FF07FF7E
:1032200007FF07FF07FF07FF07FF07FF07FF07FF6E
:1032300007FF07FF07FF07FF07FF07FF07FF07FF5E
:1032400007FF07FF07FF07FF07FF07FF07FF07FF4E
:1032500007FF07FF07FF07FF07FF07FF07FF07FF3E
:1032600007FF07FF07FF07FF07FF07FF07FF07FF2E
:1032700007FF07FF07FF07FF07FF07FF07FF07FF1E
:1032800007FF07FF07FF07FF07FF07FF07FF07FF0E
:1032900007FF07FF07FF07FF07FF07FF07FF07FFFE
:1032A00007FF07FF07FF07FF07FF07FF07FF07FFEE
:1032B00007FF07FF07FF07FF07FF07FF07FF07FFDE
:1032C00007FF07FF07FF07FF07FF07FF07FF07FFCE
:1032D00007FF07FF07FF07FF07FF07FF5FFF5FFF0E
:1032E0005FFF5FFF5FFF5FFF07FF07FF07FF07FF4E
:1032F00007FF07FF07FF07FF07FF07FF07FF07FF9E
:1033000007FF07FF07FF07FF07FF07FF07FF07FF8D
:1033100007FF07FF07FF07FF07FF07FF07FF07FF7D
:1033200007FF07FF07FF07FF07FF07FF07FF07FF6D
:1035800007FF07FF07FF0700000000000000000022
:10359000000000000000000000000000000000002B
:1035A000000000000000000000000000000000001B
:1035B000000000000000000000000000000000000B
:1035C00000000000000000000000000000000000FB
:1037C000000000000000000000000000000000FFFA
:1037D00007FF07FF07FF07FF07FF07FF07FF07FFB9
:1037E00007FF07FF07FF07FF07FF07FF07FF07FFA9
:1037F00007FF07FF07FF07FF07FF07FF07FF07FF99
:1038000007FF07FF07FF07FF07FF07FF07FF07FF88
:1038100007FF07FF07FF07FF07FF07FF07FF07FF78
:1038200007FF07FF07FF07FF07FF07FF07FF07FF68
:1038300007FF07FF07FF07FF07FF07FF07FF07FF58
:1038400007FF07FF07FF07FF07FF07FF07FF07FF48
:1038500007FF07FF07FF07FF07FF07FF07FF07FF38
:1038600007FF07FF07FF07FF07FF07FF07FF07FF28
:1038700007FF07FF07FF07FF07FF07FF07FF07FF18
:1038800007FF07FF07FF07FF07FF07FF07FF07FF08
:1038900007FF07FF07FF07FF07FF07FF07FF07FFF8
:1038A00007FF07FF07FF07FF07FF07FF07FF07FFE8
:1038B00007FF07FF07FF07FF07FF07FF07FF07FFD8
:1038C00007FF07FF07FF07FF07FF07FF07FF07FFC8
:1038D00007FF07FF07FF07FF07FF07FF07FF07FFB8
:1038E00007FF07FF07FF07FF07FF07FF07FF07FFA8
:1038F00007FF07FF07FF07FF07FF07FF07FF07FF98
:1039000007FF07FF07FF07FF07FF07FF07FF07FF87
:1039100007FF07FF07FF5FFF5FFF5FFF5FFF5FFFBF
:103920005FFF5FFF5FFF07FF07FF07FF07FF07FF5F
:1039300007FF07FF07FF07FF07FF07FF07FF07FF57
:1039400007FF07FF07FF07FF07FF07FF07FF07FF47
:1039500007FF07FF07FF07FF07FF07FF07FF07FF37
:1039600007FF07FF07FF07FF07FF07FF07FF07FF27
:103BC00007FF07FF07FF07000000000000000000DC
:103BD00000000000000000000000000000000000E5
:103BE00000000000000000000000000000000000D5
:103BF00000000000000000000000000000000000C5
:103C000000000000000000000000000000000000B4
:103E0000000000000000000000000000000000FFB3
:103E100007FF07FF07FF07FF07FF07FF07FF07FF72
:103E200007FF07FF07FF07FF07FF07FF07FF07FF62
:103E300007FF07FF07FF07FF07FF07FF07FF07FF52
:103E400007FF07FF07FF07FF07FF07FF07FF07FF42
:1042000007FF07FF07FF0700000000000000000095
:10421000000000000000000000000000000000009E
:10422000000000000000000000000000000000008E
:10423000000000000000000000000000000000007E
:10424000000000000000000000000000000000006E
:10444000000000000000000000000000000000FF6D
:1044500007FF07FF07FF07FF07FF07FF07FF07FF2C
:1044600007FF07FF07FF07FF07FF07FF07FF07FF1C
:1044700007FF07FF07FF07FF07FF07FF07FF07FF0C
:1044800007FF07FF07FF07FF07FF07FF07FF07FFFC
:1048400007FF07FF07FF070000000000000000004F
:104850000000000000000000000000000000000058
:104860000000000000000000000000000000000048
:104870000000000000000000000000000000000038
:104880000000000000000000000000000000000028
:104A80000000000000000000000000FF07FF07FF1B
:104A900007FF07FF07FF07FF07FF07FF07FF07FFE6
:104AA00007FF07FF07FF07FF07FF07FF07FF07FFD6
:104AB00007FF07FF07FF07FF07FF07FF07FF07FFC6
:104AC00007FF07FF07FF07FF07FF07FF07FF07FFB6
:104AD00007FF07FF07FF07FF07FF07FF07FF07FFA6
:104AE00007FF07FF07FF07FF07FF07FF07FF07FF96
:104AF00007FF07FF07FF07FF07FF07FF07FF07FF86
:104B000007FF07FF07FF07FF07FF07FF07FF07FF75
:104B100007FF07FF07FF07FF07FF07FF07FF07FF65
:104B200007FF07FF07FF07FF07FF07FF07FF07FF55
:104B300007FF07FF07FF07FF07FF07FF07FF07FF45
:104B400007FF07FF07FF07FF07FF07FF07FF07FF35
:104B500007FF07FF07FF07FF07FF07FF07FF07FF25
:104B600007FF07FF07FF07FF07FF07FF07FF07FF15
:104B700007FF07FF07FF07FF07FF07FF07FF07FF05
:104B800007FF07FF07FF07FF07FF07FF07FF07FFF5
:104B900007FF07FF07FF07FF07FF07FF07FF07FFE5
:104BA00007FF07FF07FF07FF07FF07FF07FF07FFD5
:104BB00007FF07FF07FF07FF07FF07FF07FF07FFC5
:104BC00007FF07FF07FF07FF07FF07FF5FFF5FFF05
:104BD0005FFF5FFF5FFF5FFF5FFF07FF07FF07FFED
:104BE00007FF07FF07FF07FF07FF07FF07FF07FF95
:104BF00007FF07FF07FF07FF07FF07FF07FF07FF85
:104C000007FF07FF07FF07FF07FF07FF07FF07FF74
:104C100007FF07FF07FF07FF07FF07FF07FF07FF64
:104E800007FF07FF07FF0700000000000000000009
:104E90000000000000000000000000000000000012
:104EA0000000000000000000000000000000000002
:104EB00000000000000000000000000000000000F2
:104EC00000000000000000000000000000000000E2
:1050C0000000000000000000000000FF07FF07FFD5
:1050D00007FF07FF07FF07FF07FF07FF07FF07FFA0
:1050E00007FF07FF07FF07FF07FF07FF07FF07FF90
:1050F00007FF07FF07FF07FF07FF07FF07FF07FF80
:1051000007FF07FF07FF07FF07FF07FF07FF07FF6F
:1051100007FF07FF07FF07FF07FF07FF07FF07FF5F
:1051200007FF07FF07FF07FF07FF07FF07FF07FF4F
:1051300007FF07FF07FF07FF07FF07FF07FF07FF3F
:1051400007FF07FF07FF07FF07FF07FF07FF07FF2F
:1051500007FF07FF07FF07FF07FF07FF07FF07FF1F
:1051600007FF07FF07FF07FF07FF07FF07FF07FF0F
:1051700007FF07FF07FF07FF07FF07FF07FF07FFFF
:1051800007FF07FF07FF07FF07FF07FF07FF07FFEF
:1051900007FF07FF07FF07FF07FF07FF07FF07FFDF
:1051A00007FF07FF07FF07FF07FF07FF07FF07FFCF
:1051B00007FF07FF07FF07FF07FF07FF07FF07FFBF
:1051C00007FF07FF07FF07FF07FF07FF07FF07FFAF
:1051D00007FF07FF07FF07FF07FF07FF07FF07FF9F
:1051E00007FF07FF07FF07FF07FF07FF07FF07FF8F
:1051F00007FF07FF07FF07FF07FF07FF07FF07FF7F
:1052000007FF07FF07FF07FF07FF07FF5FFF5FFFBE
:105210005FFF5FFF5FFF5FFF07FF07FF07FF07FFFE
:1052200007FF07FF07FF07FF07FF07FF07FF07FF4E
:1052300007FF07FF07FF07FF07FF07FF07FF07FF3E
:1052400007FF07FF07FF07FF07FF07FF07FF07FF2E
:1052500007FF07FF07FF07FF07FF07FF07FF07FF1E
:1054C00007FF07FF07FF07000000000000000000C3
:1054D00000000000000000000000000000000000CC
:1054E00000000000000000000000000000000000BC
:1054F00000000000000000000000000000000000AC
:10550000000000000000000000000000000000009B
:105700000000000000000000000000FF07FF07FF8E
:1057100007FF07FF07FF07FF07FF07FF07FF07FF59
:1057200007FF07FF07FF07FF07FF07FF07FF07FF49
:1057300007FF07FF07FF07FF07FF07FF07FF07FF39
:1057400007FF07FF07FF07FF07FF07FF07FF07FF29
:1057500007FF07FF07FF07FF07FF07FF07FF07FF19
:1057600007FF07FF07FF07FF07FF07FF07FF07FF09
:1057700007FF07FF07FF07FF07FF07FF07FF07FFF9
:1057800007FF07FF07FF07FF07FF07FF07FF07FFE9
:1057900007FF07FF07FF07FF07FF07FF07FF07FFD9
:1057A00007FF07FF07FF07FF07FF07FF07FF07FFC9
:1057B00007FF07FF07FF07FF07FF07FF07FF07FFB9
:1057C00007FF07FF07FF07FF07FF07FF07FF07FFA9
:1057D00007FF07FF07FF07FF07FF07FF07FF07FF99
:1057E00007FF07FF07FF07FF07FF07FF07FF07FF89
:1057F00007FF07FF07FF07FF07FF07FF07FF07FF79
:1058000007FF07FF07FF07FF07FF07FF07FF07FF68
:1058100007FF07FF07FF07FF07FF07FF07FF07FF58
:1058200007FF07FF07FF07FF07FF07FF07FF07FF48
:1058300007FF07FF07FF07FF07FF07FF07FF07FF38
:1058400007FF07FF07FF5FFF5FFF5FFF5FFF5FFF70
:105850005FFF07FF07FF07FF07FF07FF07FF07FFC0
:1058600007FF07FF07FF07FF07FF07FF07FF07FF08
:1058700007FF07FF07FF07FF07FF07FF07FF07FFF8
:1058800007FF07FF07FF07FF07FF07FF07FF07FFE8
:1058900007FF07FF07FF07FF07FF07FF07FF07FFD8
:105B000007FF07FF07FF070000000000000000007C
:105B10000000000000000000000000000000000085
:105B20000000000000000000000000000000000075
:105B30000000000000000000000000000000000065
:105B40000000000000000000000000000000000055
:105D4000000000000000000000FF07FF07FF07FF42
:105D500007FF07FF07FF07FF07FF07FF07FF07FF13
:105D600007FF07FF07FF07FF07FF07FF07FF07FF03
:105D700007FF07FF07FF07FF07FF07FF07FF07FFF3
:105D800007FF07FF07FF07FF07FF07FF07FF07FFE3
:105D900007FF07FF07FF07FF07FF07FF07FF07FFD3
:105DA00007FF07FF07FF07FF07FF07FF07FF07FFC3
:105DB00007FF07FF07FF07FF07FF07FF07FF07FFB3
:105DC00007FF07FF07FF07FF07FF07FF07FF07FFA3
:105DD00007FF07FF07FF07FF07FF07FF07FF07FF93
:105DE00007FF07FF07FF07FF07FF07FF07FF07FF83
:105DF00007FF07FF07FF07FF07FF07FF07FF07FF73
:105E000007FF07FF07FF07FF07FF07FF07FF07FF62
:105E100007FF07FF07FF07FF07FF07FF07FF07FF52
:105E200007FF07FF07FF07FF07FF07FF07FF07FF42
:105E300007FF07FF07FF07FF07FF07FF07FF07FF32
:105E400007FF07FF07FF07FF07FF07FF07FF07FF22
:105E500007FF07FF07FF07FF07FF07FF07FF07FF12
:105E600007FF07FF07FF07FF07FF07FF07FF07FF02
:105E700007FF07FF07FF07FF07FF07FF07FF07FFF2
:105E800007FF07FF5FFF5FFF5FFF5FFF5FFF07FF2A
:105E900007FF07FF07FF07FF07FF07FF07FF07FFD2
:105EA00007FF07FF07FF07FF07FF07FF07FF07FFC2
:105EB00007FF07FF07FF07FF07FF07FF07FF07FFB2
:105EC00007FF07FF07FF07FF07FF07FF07FF07FFA2
:1061400007FF07FF07FF0700000000000000000036
:10615000000000000000000000000000000000003F
:10616000000000000000000000000000000000002F
:10617000000000000000000000000000000000001F
:10618000000000000000000000000000000000000F
:1063800000000000000000FF07FF07FF07FF07FFF6
:1063900007FF07FF07FF07FF07FF07FF07FF07FFCD
:1063A00007FF07FF07FF07FF07FF07FF07FF07FFBD
:1063B00007FF07FF07FF07FF07FF07FF07FF07FFAD
:1063C00007FF07FF07FF07FF07FF07FF07FF07FF9D
:1063D00007FF07FF07FF07FF07FF07FF07FF07FF8D
:1063E00007FF07FF07FF07FF07FF07FF07FF07FF7D
:1063F00007FF07FF07FF07FF07FF07FF07FF07FF6D
:1064000007FF07FF07FF07FF07FF07FF07FF07FF5C
:1064100007FF07FF07FF07FF07FF07FF07FF07FF4C
:1064200007FF07FF07FF07FF07FF07FF07FF07FF3C
:1064300007FF07FF07FF07FF07FF07FF07FF07FF2C
:1064400007FF07FF07FF07FF07FF07FF07FF07FF1C
:1064500007FF07FF07FF07FF07FF07FF07FF07FF0C
:1064600007FF07FF07FF07FF07FF07FF07FF07FFFC
:1064700007FF07FF07FF07FF07FF07FF07FF07FFEC
:1064800007FF07FF07FF07FF07FF07FF07FF07FFDC
:1064900007FF07FF07FF07FF07FF07FF07FF07FFCC
:1064A00007FF07FF07FF07FF07FF07FF07FF07FFBC
:1064B00007FF07FF07FF07FF07FF07FF07FF07FFAC
:1064C00007FF5FFF5FFF5FFF5FFF5FFF07FF07FFE4
:1064D00007FF07FF07FF07FF07FF07FF07FF07FF8C
:1064E00007FF07FF07FF07FF07FF07FF07FF07FF7C
:1064F00007FF07FF07FF07FF07FF07FF07FF07FF6C
:1065000007FF07FF07FF07FF07FF07FF07FF07FF5B
:1067800007FF07FF07FF07000000000000000000F0
:1067900000000000000000000000000000000000F9
:1067A00000000000000000000000000000000000E9
:1067B00000000000000000000000000000000000D9
:1067C00000000000000000000000000000000000C9
:1069C00000000000000000FF07FF07FF07FF07FFB0
:1069D00007FF07FF07FF07FF07FF07FF07FF07FF87
:1069E00007FF07FF07FF07FF07FF07FF07FF07FF77
:1069F00007FF07FF07FF07FF07FF07FF07FF07FF67
:106A000007FF07FF07FF07FF07FF07FF07FF07FF56
:106A100007FF07FF07FF07FF07FF07FF07FF07FF46
:106A200007FF07FF07FF07FF07FF07FF07FF07FF36
:106A300007FF07FF07FF07FF07FF07FF07FF07FF26
:106A400007FF07FF07FF07FF07FF07FF07FF07FF16
:106A500007FF07FF07FF07FF07FF07FF07FF07FF06
:106A600007FF07FF07FF07FF07FF07FF07FF07FFF6
:106A700007FF07FF07FF07FF07FF07FF07FF07FFE6
:106A800007FF07FF07FF07FF07FF07FF07FF07FFD6
:106A900007FF07FF07FF07FF07FF07FF07FF07FFC6
:106AA00007FF07FF07FF07FF07FF07FF07FF07FFB6
:106AB00007FF07FF07FF07FF07FF07FF07FF07FFA6
:106AC00007FF07FF07FF07FF07FF07FF07FF07FF96
:106AD00007FF07FF07FF07FF07FF07FF07FF07FF86
:106AE00007FF07FF07FF07FF07FF07FF07FF07FF76
:106AF00007FF07FF07FF07FF07FF07FF07FF07FF66
:106B00005FFF5FFF5FFF07FF07FF07FF07FF07FF4D
:106B100007FF07FF07FF07FF07FF07FF07FF07FF45
:106B200007FF07FF07FF07FF07FF07FF07FF07FF35
:106B300007FF07FF07FF07FF07FF07FF07FF07FF25
:106B400007FF07FF07FF07FF07FF07FF07FF07FF15
:106DC00007FF07FF07FF07000000000000000000AA
:106DD00000000000000000000000000000000000B3
:106DE00000000000000000000000000000000000A3
:106DF0000000000000000000000000000000000093
:106E00000000000000000000000000000000000082
:1070000000000000000000FF07FF07FF07FF07FF69
:1070100007FF07FF07FF07FF07FF07FF07FF07FF40
:1070200007FF07FF07FF07FF07FF07FF07FF07FF30
:1070300007FF07FF07FF07FF07FF07FF07FF07FF20
:1070400007FF07FF07FF07FF07FF07FF07FF07FF10
:1070500007FF07FF07FF07FF07FF07FF07FF07FF00
:1070600007FF07FF07FF07FF07FF07FF07FF07FFF0
:1070700007FF07FF07FF07FF07FF07FF07FF07FFE0
:1070800007FF07FF07FF07FF07FF07FF07FF07FFD0
:1070900007FF07FF07FF07FF07FF07FF07FF07FFC0
:1070A00007FF07FF07FF07FF07FF07FF07FF07FFB0
:1070B00007FF07FF07FF07FF07FF07FF07FF07FFA0
:1070C00007FF07FF07FF07FF07FF07FF07FF07FF90
:1070D00007FF07FF07FF07FF07FF07FF07FF07FF80
:1070E00007FF07FF07FF07FF07FF07FF07FF07FF70
:1070F00007FF07FF07FF07FF07FF07FF07FF07FF60
:1071000007FF07FF07FF07FF07FF07FF07FF07FF4F
:1071100007FF07FF07FF07FF07FF07FF07FF07FF3F
:1071200007FF07FF07FF07FF07FF07FF07FF07FF2F
:1071300007FF07FF07FF07FF07FF07FF07FF5FFFC7
:107140005FFF5FFF07FF07FF07FF07FF07FF07FF5F
:1071500007FF07FF07FF07FF07FF07FF07FF07FFFF
:1071600007FF07FF07FF07FF07FF07FF07FF07FFEF
:1071700007FF07FF07FF07FF07FF07FF07FF07FFDF
:1071800007FF07FF07FF07FF07FF07FF07FF07FFCF
:1074000007FF07FF07FF0700000000000000000063
:10741000000000000000000000000000000000006C
:10742000000000000000000000000000000000005C
:10743000000000000000000000000000000000004C
:10744000000000000000000000000000000000003C
:107640000000000000FF07FF07FF07FF07FF07FF1D
:1076500007FF07FF07FF07FF07FF07FF07FF07FFFA
:1076600007FF07FF07FF07FF07FF07FF07FF07FFEA
:1076700007FF07FF07FF07FF07FF07FF07FF07FFDA
:1076800007FF07FF07FF07FF07FF07FF07FF07FFCA
:1076900007FF07FF07FF07FF07FF07FF07FF07FFBA
:1076A00007FF07FF07FF07FF07FF07FF07FF07FFAA
:1076B00007FF07FF07FF07FF07FF07FF07FF07FF9A
:1076C00007FF07FF07FF07FF07FF07FF07FF07FF8A
:1076D00007FF07FF07FF07FF07FF07FF07FF07FF7A
:1076E00007FF07FF07FF07FF07FF07FF07FF07FF6A
:1076F00007FF07FF07FF07FF07FF07FF07FF07FF5A
:1077000007FF07FF07FF07FF07FF07FF07FF07FF49
:1077100007FF07FF07FF07FF07FF07FF07FF07FF39
:1077200007FF07FF07FF07FF07FF07FF07FF07FF29
:1077300007FF07FF07FF07FF07FF07FF07FF07FF19
:1077400007FF07FF07FF07FF07FF07FF07FF07FF09
:1077500007FF07FF07FF07FF07FF07FF07FF07FFF9
:1077600007FF07FF07FF07FF07FF07FF07FF07FFE9
:1077700007FF07FF07FF07FF5FFF5FFF5FFF07FFD1
:1077800007FF07FF07FF07FF07FF07FF07FF07FFC9
:1077900007FF07FF07FF07FF07FF07FF07FF07FFB9
:1077A00007FF07FF07FF07FF07FF07FF07FF07FFA9
:1077B00007FF07FF07FF07FF07FF07FF07FF07FF99
:1077C00007FF07FF07FF07FF07FF07FF07FF07FF89
:1077D00007FF07FF07FF07FF07FF07FF07FF07FF79
:1077E00007FF07FF07FF07FF07FF07FF07FF07FF69
:1077F00007FF07FF07FF07FF07FF07FF07FF07FF59
:1078000007FF07FF07FF07FF07FF07FF07FF07FF48
:1078100007FF07FF07FF07FF07FF07FF07FF07FF38
:1078200007FF07FF07FF07FF07FF07FF07FF07FF28
:1078300007FF07FF07FF07FF07FF07FF07FF07FF18
:1078400007FF07FF07FF07FF07FF07FF07FF07FF08
:10785000071F461F461F461F461F461F461F461F3F
:10786000461F461F461F461F461F461F461F461FF0
:10787000461F46FF07FF07FF07FF07FF07FF07FF3A
:1078800007FF07FF07FF07FF07FF07FF07FF07FFC8
:1078900007FF07FF07FF07FF07FF07FF07FF07FFB8
:1078A00007FF07FF07FF07FF07FF07FF07FF07FFA8
:1078B00007FF07FF07FF07FF07FF07FF07FF07FF98
:1078C00007FF07FF07FF07FF07FF07FF07FF07FF88
:1078D00007FF07FF07FF07FF07FF07FF07FF07FF78
:1078E00007FF07FF07FF07FF07FF07FF07FF07FF68
:1078F00007FF07FF07FF07FF07FF07FF07FF07FF58
:1079000007FF07FF07FF07FF07FF07FF07FF07FF47
:1079100007FF07FF07FF07FF07FF07FF07FF07FF37
:1079200007FF07FF07FF07FF07FF07FF07FF07FF27
:1079300007FF07FF07FF07FF07FF07FF07FF07FF17
:1079400007FF07FF07FF07FF07FF07FF07FF07FF07
:1079500007FF07FF07FF07FF07FF07FF07FF07FFF7
:1079600007FF07FF07FF07FF07FF07FF07FF07FFE7
:1079700007FF07FF07FF07FF07FF07FF07FF07FFD7
:1079800007FF07FF07FF07FF07FF07FF07FF07FFC7
:1079900007FF07FF07FF07FF07FF07FF07FF07FFB7
:1079A00007FF07FF07FF07FF07FF07FF07FF07FFA7
:1079B00007FF07FF07FF07FF07FF07FF07FF07FF97
:1079C00007FF07FF07FF07FF07FF07FF07FF07FF87
:1079D00007FF07FF07FF07FF07FF07FF07FF07FF77
:1079E00007FF07FF07FF07FF07FF07FF07FF07FF67
:1079F00007FF07FF07FF07FF07FF07FF07FF07FF57
:107A000007FF07FF07FF07FF07FF07FF07FF07FF46
:107A100007FF07FF07FF07FF07FF07FF07FF07FF36
:107A200007FF07FF07FF07FF07FF07FF07FF07FF26
:107A300007FF07FF07FF07FF07FF07FF07FF07FF16
:107A400007FF07FF07FF070000000000000000001D
:107A50000000000000000000000000000000000026
:107A60000000000000000000000000000000000016
:107A70000000000000000000000000000000000006
:107A800000000000000000000000000000000000F6
:107C80000000000000FF07FF07FF07FF07FF07FFD7
:107C900007FF07FF07FF07FF07FF07FF07FF07FFB4
:107CA00007FF07FF07FF07FF07FF07FF07FF07FFA4
:107CB00007FF07FF07FF07FF07FF07FF07FF07FF94
:107CC00007FF07FF07FF07FF07FF07FF07FF07FF84
:107CD00007FF07FF07FF07FF07FF07FF07FF07FF74
:107CE00007FF07FF07FF07FF07FF07FF07FF07FF64
:107CF00007FF07FF07FF07FF07FF07FF07FF07FF54
:107D000007FF07FF07FF07FF07FF07FF07FF07FF43
:107D100007FF07FF07FF07FF07FF07FF07FF07FF33
:107D200007FF07FF07FF07FF07FF07FF07FF07FF23
:107D300007FF07FF07FF07FF07FF07FF07FF07FF13
:107D400007FF07FF07FF07FF07FF07FF07FF07FF03
:107D500007FF07FF07FF07FF07FF07FF07FF07FFF3
:107D600007FF07FF07FF07FF07FF07FF07FF07FFE3
:107D700007FF07FF07FF07FF07FF07FF07FF07FFD3
:107D800007FF07FF07FF07FF07FF07FF07FF07FFC3
:107D900007FF07FF07FF07FF07FF07FF07FF07FFB3
:107DA00007FF07FF07FF07FF07FF07FF07FF07FFA3
:107DB00007FF07FF07FF07FF5FFF5FFF5FFF07FF8B
:107DC00007FF07FF07FF07FF07FF07FF07FF07FF83
:107DD00007FF07FF07FF07FF07FF07FF07FF07FF73
:107DE00007FF07FF07FF07FF07FF07FF07FF07FF63
:107DF00007FF07FF07FF07FF07FF07FF07FF07FF53
:107E000007FF07FF07FF07FF07FF07FF07FF07FF42
:107E100007FF07FF07FF07FF07FF07FF07FF07FF32
:107E200007FF07FF07FF07FF07FF07FF07FF07FF22
:107E300007FF07FF07FF07FF07FF07FF07FF07FF12
:107E400007FF07FF07FF07FF07FF07FF07FF07FF02
:107E500007FF07FF07FF07FF07FF07FF07FF07FFF2
:107E600007FF07FF07FF07FF07FF07FF07FF07FFE2
:107E700007FF07FF07FF07FF07FF07FF07FF07FFD2
:107E800007FF07FF07FF07FF07FF07FF07FF071FA2
:107E9000461F461F461F461F461F461F461F461FBA
:107EA000461F461F461F461F461F461F461F461FAA
:107EB000461F461F46FF07FF07FF07FF07FF07FF95
:107EC00007FF07FF07FF07FF07FF07FF07FF07FF82
:107ED00007FF07FF07FF07FF07FF07FF07FF07FF72
:107EE00007FF07FF07FF07FF07FF07FF07FF07FF62
:107EF00007FF07FF07FF07FF07FF07FF07FF07FF52
:107F000007FF07FF07FF07FF07FF07FF07FF07FF41
:107F100007FF07FF07FF07FF07FF07FF07FF07FF31
:107F200007FF07FF07FF07FF07FF07FF07FF07FF21
:107F300007FF07FF07FF07FF07FF07FF07FF07FF11
:107F400007FF07FF07FF07FF07FF07FF07FF07FF01
:107F500007FF07FF07FF07FF07FF07FF07FF07FFF1
:107F600007FF07FF07FF07FF07FF07FF07FF07FFE1
:107F700007FF07FF07FF07FF07FF07FF07FF07FFD1
:107F800007FF07FF07FF07FF07FF07FF07FF07FFC1
:107F900007FF07FF07FF07FF07FF07FF07FF07FFB1
:107FA00007FF07FF07FF07FF07FF07FF07FF07FFA1
:107FB00007FF07FF07FF07FF07FF07FF07FF07FF91
:107FC00007FF07FF07FF07FF07FF07FF07FF07FF81
:107FD00007FF07FF07FF07FF07FF07FF07FF07FF71
:107FE00007FF07FF07FF07FF07FF07FF07FF07FF61
:107FF00007FF07FF07FF07FF07FF07FF07FF07FF51
:1080000007FF07FF07FF07FF07FF07FF07FF07FF40
:1080100007FF07FF07FF07FF07FF07FF07FF07FF30
:1080200007FF07FF07FF07FF07FF07FF07FF07FF20
:1080300007FF07FF07FF07FF07FF07FF07FF07FF10
:1080400007FF07FF07FF07FF07FF07FF07FF07FF00
:1080500007FF07FF07FF07FF07FF07FF07FF07FFF0
:1080600007FF07FF07FF07FF07FF07FF07FF07FFE0
:1080700007FF07FF07FF07FF07FF07FF07FF07FFD0
:1080800007FF07FF07FF07000000000000000000D7
:1080900000000000000000000000000000000000E0
:1080A00000000000000000000000000000000000D0
:1080B00000000000000000000000000000000000C0
:1080C00000000000000000000000000000000000B0
:1082C0000000000000FF07FF07FF07FF07FF07FF91
:1082D00007FF07FF07FF07FF07FF07FF07FF07FF6E
:1082E00007FF07FF07FF07FF07FF07FF07FF07FF5E
:1082F00007FF07FF07FF07FF07FF07FF07FF07FF4E
:1083000007FF07FF07FF07FF07FF07FF07FF07FF3D
:1083100007FF07FF07FF07FF07FF07FF07FF07FF2D
:1083200007FF07FF07FF07FF07FF07FF07FF07FF1D
:1083300007FF07FF07FF07FF07FF07FF07FF07FF0D
:1083400007FF07FF07FF07FF07FF07FF07FF07FFFD
:1083500007FF07FF07FF07FF07FF07FF07FF07FFED
:1083600007FF07FF07FF07FF07FF07FF07FF07FFDD
:1083700007FF07FF07FF07FF07FF07FF07FF07FFCD
:1083800007FF07FF07FF07FF07FF07FF07FF07FFBD
:1083900007FF07FF07FF07FF07FF07FF07FF07FFAD
:1083A00007FF07FF07FF07FF07FF07FF07FF07FF9D
:1083B00007FF07FF07FF07FF07FF07FF07FF07FF8D
:1083C00007FF07FF07FF07FF07FF07FF07FF07FF7D
:1083D00007FF07FF07FF07FF07FF07FF07FF07FF6D
:1083E00007FF07FF07FF07FF07FF07FF07FF07FF5D
:1083F00007FF07FF07FF5FFF5FFF5FFF07FF07FF45
:1084000007FF07FF07FF07FF07FF07FF07FF07FF3C
:1084100007FF07FF07FF07FF07FF07FF07FF07FF2C
:1084200007FF07FF07FF07FF07FF07FF07FF07FF1C
:1084300007FF07FF07FF07FF07FF07FF07FF07FF0C
:1084400007FF07FF07FF07FF07FF07FF07FF07FFFC
:1084500007FF07FF07FF07FF07FF07FF07FF07FFEC
:1084600007FF07FF07FF07FF07FF07FF07FF07FFDC
:1084700007FF07FF07FF07FF07FF07FF07FF07FFCC
:1084800007FF07FF07FF07FF07FF07FF07FF07FFBC
:1084900007FF07FF07FF07FF07FF07FF07FF07FFAC
:1084A00007FF07FF07FF07FF07FF07FF07FF07FF9C
:1084B00007FF07FF071F461F461F461F461F461F91
:1084C000461F461F461F461F461F461F461F461F84
:1084D000461F461F461F461F461F461F461F461F74
:1084E000461F461F461F461F461F461F461F461F64
:1084F000461F461F461F461F461F461F461F461F54
:10850000461F461F461F461F461F461F461F461F43
:1085100046FF07FF07FF07FF07FF07FF07FF07FFEC
:1085200007FF07FF07FF07FF07FF07FF07FF07FF1B
:1085300007FF07FF07FF07FF07FF07FF07FF07FF0B
:1085400007FF07FF07FF07FF07FF07FF07FF07FFFB
:1085500007FF07FF07FF07FF07FF07FF07FF07FFEB
:1085600007FF07FF07FF07FF07FF07FF07FF07FFDB
:1085700007FF07FF07FF07FF07FF07FF07FF07FFCB
:1085800007FF07FF07FF07FF07FF07FF07FF07FFBB
:1085900007FF07FF07FF07FF07FF07FF07FF07FFAB
:1085A00007FF07FF07FF07FF07FF07FF07FF07FF9B
:1085B00007FF07FF07FF07FF07FF07FF07FF07FF8B
:1085C00007FF07FF07FF07FF07FF07FF07FF07FF7B
:1085D00007FF07FF07FF07FF07FF07FF07FF07FF6B
:1085E00007FF07FF07FF07FF07FF07FF07FF07FF5B
:1085F00007FF07FF07FF07FF07FF07FF07FF07FF4B
:1086000007FF07FF07FF07FF07FF07FF07FF07FF3A
:1086100007FF07FF07FF07FF07FF07FF07FF07FF2A
:1086200007FF07FF07FF07FF07FF07FF07FF07FF1A
:1086300007FF07FF07FF07FF07FF07FF07FF07FF0A
:1086400007FF07FF07FF07FF07FF07FF07FF07FFFA
:1086500007FF07FF07FF07FF07FF07FF07FF07FFEA
:1086600007FF07FF07FF07FF07FF07FF07FF07FFDA
:1086700007FF07FF07FF07FF07FF07FF07FF07FFCA
:1086800007FF07FF07FF07FF07FF07FF07FF07FFBA
:1086900007FF07FF07FF07FF07FF07FF07FF07FFAA
:1086A00007FF07FF07FF07FF07FF07FF07FF07FF9A
:1086B00007FF07FF07FF07FF07FF07FF07FF07FF8A
:1086C00007FF07FF07FF0700000000000000000091
:1086D000000000000000000000000000000000009A
:1086E000000000000000000000000000000000008A
:1086F000000000000000000000000000000000007A
:108700000000000000000000000000000000000069
:108900000000000000FF07FF07FF07FF07FF07FF4A
:1089100007FF07FF07FF07FF07FF07FF07FF07FF27
:1089200007FF07FF07FF07FF07FF07FF07FF07FF17
:1089300007FF07FF07FF07FF07FF07FF07FF07FF07
:1089400007FF07FF07FF07FF07FF07FF07FF07FFF7
:1089500007FF07FF07FF07FF07FF07FF07FF07FFE7
:1089600007FF07FF07FF07FF07FF07FF07FF07FFD7
:1089700007FF07FF07FF07FF07FF07FF07FF07FFC7
:1089800007FF07FF07FF07FF07FF07FF07FF07FFB7
:1089900007FF07FF07FF07FF07FF07FF07FF07FFA7
:1089A00007FF07FF07FF07FF07FF07FF07FF07FF97
:1089B00007FF07FF07FF07FF07FF07FF07FF07FF87
:1089C00007FF07FF07FF07FF07FF07FF07FF07FF77
:1089D00007FF07FF07FF07FF07FF07FF07FF07FF67
:1089E00007FF07FF07FF07FF07FF07FF07FF07FF57
:1089F00007FF07FF07FF07FF07FF07FF07FF07FF47
:108A000007FF07FF07FF07FF07FF07FF07FF07FF36
:108A100007FF07FF07FF07FF07FF07FF07FF07FF26
:108A200007FF07FF07FF07FF07FF07FF07FF07FF16
:108A300007FF07FF07FF5FFF5FFF07FF07FF07FF56
:108A400007FF07FF07FF07FF07FF07FF07FF07FFF6
:108A500007FF07FF07FF07FF07FF07FF07FF07FFE6
:108A600007FF07FF07FF07FF07FF07FF07FF07FFD6
:108A700007FF07FF07FF07FF07FF07FF07FF07FFC6
:108A800007FF07FF07FF07FF07FF07FF07FF07FFB6
:108A900007FF07FF07FF07FF07FF07FF07FF07FFA6
:108AA00007FF07FF07FF07FF07FF07FF07FF07FF96
:108AB00007FF07FF07FF07FF07FF07FF07FF07FF86
:108AC00007FF07FF07FF07FF07FF07FF07FF07FF76
:108AD00007FF07FF07FF07FF07FF07FF07FF07FF66
:108AE00007FF07FF07FF07FF07FF07FF07FF07FF56
:108AF00007FF07FF071F461F461F461F461F461F4B
:108B0000461F461F461F461F461F461F461F461F3D
:108B1000461F461F461F461F461F461F461F461F2D
:108B2000461F461F461F461F461F461F461F461F1D
:108B3000461F461F461F461F461F461F461F461F0D
:108B4000461F461F461F461F461F461F461F461FFD
:108B5000461F46FF07FF07FF07FF07FF07FF07FF47
:108B600007FF07FF07FF07FF07FF07FF07FF07FFD5
:108B700007FF07FF07FF07FF07FF07FF07FF07FFC5
:108B800007FF07FF07FF07FF07FF07FF07FF07FFB5
:108B900007FF07FF07FF07FF07FF07FF07FF07FFA5
:108BA00007FF07FF07FF07FF07FF07FF07FF07FF95
:108BB00007FF07FF07FF07FF07FF07FF07FF07FF85
:108BC00007FF07FF07FF07FF07FF07FF07FF07FF75
:108BD00007FF07FF07FF07FF07FF07FF07FF07FF65
:108BE00007FF07FF07FF07FF07FF07FF07FF07FF55
:108BF00007FF07FF07FF07FF07FF07FF07FF07FF45
:108C000007FF07FF07FF07FF07FF07FF07FF07FF34
:108C100007FF07FF07FF07FF07FF07FF07FF07FF24
:108C200007FF07FF07FF07FF07FF07FF07FF07FF14
:108C300007FF07FF07FF07FF07FF07FF07FF07FF04
:108C400007FF07FF07FF07FF07FF07FF07FF07FFF4
:108C500007FF07FF07FF07FF07FF07FF07FF07FFE4
:108C600007FF07FF07FF07FF07FF07FF07FF07FFD4
:108C700007FF07FF07FF07FF07FF07FF07FF07FFC4
:108C800007FF07FF07FF07FF07FF07FF07FF07FFB4
:108C900007FF07FF07FF07FF07FF07FF07FF07FFA4
:108CA00007FF07FF07FF07FF07FF07FF07FF07FF94
:108CB00007FF07FF07FF07FF07FF07FF07FF07FF84
:108CC00007FF07FF07FF07FF07FF07FF07FF07FF74
:108CD00007FF07FF07FF07FF07FF07FF07FF07FF64
:108CE00007FF07FF07FF07FF07FF07FF07FF07FF54
:108CF00007FF07FF07FF07FF07FF07FF07FF07FF44
:108D000007FF07FF07FF070000000000000000004A
:108D10000000000000000000000000000000000053
:108D20000000000000000000000000000000000043
:108D30000000000000000000000000000000000033
:108D40000000000000000000000000000000000023
:108F40000000000000FF07FF07FF07FF07FF07FF04
:108F500007FF07FF07FF07FF07FF07FF07FF07FFE1
:108F600007FF07FF07FF07FF07FF07FF07FF07FFD1
:108F700007FF07FF07FF07FF07FF07FF07FF07FFC1
:108F800007FF07FF07FF07FF07FF07FF07FF07FFB1
:108F900007FF07FF07FF07FF07FF07FF07FF07FFA1
:108FA00007FF07FF07FF07FF07FF07FF07FF07FF91
:108FB00007FF07FF07FF07FF07FF07FF07FF07FF81
:108FC00007FF07FF07FF07FF07FF07FF07FF07FF71
:108FD00007FF07FF07FF07FF07FF07FF07FF07FF61
:108FE00007FF07FF07FF07FF07FF07FF07FF07FF51
:108FF00007FF07FF07FF07FF07FF07FF07FF07FF41
:1090000007FF07FF07FF07FF07FF07FF07FF07FF30
:1090100007FF07FF07FF07FF07FF07FF07FF07FF20
:1090200007FF07FF07FF07FF07FF07FF07FF07FF10
:1090300007FF07FF07FF07FF07FF07FF07FF07FF00
:1090400007FF07FF07FF07FF07FF07FF07FF07FFF0
:1090500007FF07FF07FF07FF07FF07FF07FF07FFE0
:1090600007FF07FF07FF07FF07FF07FF07FF07FFD0
:1090700007FF5FFF07FF07FF07FF07FF07FF07FF68
:1090800007FF07FF07FF07FF07FF07FF07FF07FFB0
:1090900007FF07FF07FF07FF07FF07FF07FF07FFA0
:1090A00007FF07FF07FF07FF07FF07FF07FF07FF90
:1090B00007FF07FF07FF07FF07FF07FF07FF07FF80
:1090C00007FF07FF07FF07FF07FF07FF07FF07FF70
:1090D00007FF07FF07FF07FF07FF07FF07FF07FF60
:1090E00007FF07FF07FF07FF07FF07FF07FF07FF50
:1090F00007FF07FF07FF07FF07FF07FF07FF07FF40
:1091000007FF07FF07FF07FF07FF07FF07FF07FF2F
:1091100007FF07FF07FF07FF07FF07FF07FF07FF1F
:1091200007FF07FF071F461F461F461F461F461F14
:10913000461F461F461F461F461F461F461F461F07
:10914000461F461F461F461F461F461F461F461FF7
:10915000461F461F461F461F461F461F461F461FE7
:10916000461F461F461F461F461F461F461F461FD7
:10917000461F461F461F461F461F461F461F461FC7
:10918000461F461F461F461F461F461F461F461FB7
:10919000461F461F461F461F461F461F461F461FA7
:1091A000461F46FF07FF07FF07FF07FF07FF07FFF1
:1091B00007FF07FF07FF07FF07FF07FF07FF07FF7F
:1091C00007FF07FF07FF07FF07FF07FF07FF07FF6F
:1091D00007FF07FF07FF07FF07FF07FF07FF07FF5F
:1091E00007FF07FF07FF07FF07FF07FF07FF07FF4F
:1091F00007FF07FF07FF07FF07FF07FF07FF07FF3F
:1092000007FF07FF07FF07FF07FF07FF07FF07FF2E
:1092100007FF07FF07FF07FF07FF07FF07FF07FF1E
:1092200007FF07FF07FF07FF07FF07FF07FF07FF0E
:1092300007FF07FF07FF07FF07FF07FF07FF07FFFE
:1092400007FF07FF07FF07FF07FF07FF07FF07FFEE
:1092500007FF07FF07FF07FF07FF07FF07FF07FFDE
:1092600007FF07FF07FF07FF07FF07FF07FF07FFCE
:1092700007FF07FF07FF07FF07FF07FF07FF07FFBE
:1092800007FF07FF07FF07FF07FF07FF07FF07FFAE
:1092900007FF07FF07FF07FF07FF07FF07FF07FF9E
:1092A00007FF07FF07FF07FF07FF07FF07FF07FF8E
:1092B00007FF07FF07FF07FF07FF07FF07FF07FF7E
:1092C00007FF07FF07FF07FF07FF07FF07FF07FF6E
:1092D00007FF07FF07FF07FF07FF07FF07FF07FF5E
:1092E00007FF07FF07FF07FF07FF07FF07FF07FF4E
:1092F00007FF07FF07FF07FF07FF07FF07FF07FF3E
:1093000007FF07FF07FF07FF07FF07FF07FF07FF2D
:1093100007FF07FF07FF07FF07FF07FF07FF07FF1D
:1093200007FF07FF07FF07FF07FF07FF07FF07FF0D
:1093300007FF07FF07FF07FF07FF07FF07FF07FFFD
:1093400007FF07FF07FF0700000000000000000004
:10935000000000000000000000000000000000000D
:1093600000000000000000000000000000000000FD
:1093700000000000000000000000000000000000ED
:1093800000000000000000000000000000000000DD
:10958000000000FF07FF07FF07FF07FF07FF07FFB8
:1095900007FF07FF07FF07FF07FF07FF07FF07FF9B
:1095A00007FF07FF07FF07FF07FF07FF07FF07FF8B
:1095B00007FF07FF07FF07FF07FF07FF07FF07FF7B
:1095C00007FF07FF07FF07FF07FF07FF07FF07FF6B
:1095D00007FF07FF07FF07FF07FF07FF07FF07FF5B
:1095E00007FF07FF07FF07FF07FF07FF07FF07FF4B
:1095F00007FF07FF07FF07FF07FF07FF07FF07FF3B
:1096000007FF07FF07FF07FF07FF07FF07FF07FF2A
:1096100007FF07FF07FF07FF07FF07FF07FF07FF1A
:1096200007FF07FF07FF07FF07FF07FF07FF07FF0A
:1096300007FF07FF07FF07FF07FF07FF07FF07FFFA
:1096400007FF07FF07FF07FF07FF07FF07FF07FFEA
:1096500007FF07FF07FF07FF07FF07FF07FF07FFDA
:1096600007FF07FF07FF07FF07FF07FF07FF07FFCA
:1096700007FF07FF07FF07FF07FF07FF07FF07FFBA
:1096800007FF07FF07FF07FF07FF07FF07FF07FFAA
:1096900007FF07FF07FF07FF07FF07FF07FF07FF9A
:1096A00007FF07FF07FF07FF07FF07FF07FF07FF8A
:1096B00007FF07FF07FF07FF07FF07FF07FF07FF7A
:1096C00007FF07FF07FF07FF07FF07FF07FF07FF6A
:1096D00007FF07FF07FF07FF07FF07FF07FF07FF5A
:1096E00007FF07FF07FF07FF07FF07FF07FF07FF4A
:1096F00007FF07FF07FF07FF07FF07FF07FF07FF3A
:1097000007FF07FF07FF07FF07FF07FF07FF07FF29
:1097100007FF07FF07FF07FF07FF07FF07FF07FF19
:1097200007FF07FF07FF07FF07FF07FF07FF07FF09
:1097300007FF07FF07FF07FF07FF07FF07FF07FFF9
:1097400007FF07FF07FF07FF07FF07FF07FF07FFE9
:1097500007FF07FF07FF07FF071F061F061F061F5C
:10976000061F061F461F461F461F461F461F461F51
:10977000461F461F461F461F461F461F461F461FC1
:10978000461F461F461F461F461F461F461F461FB1
:10979000461F461F461F461F461F461F461F461FA1
:1097A000461F461F461F461F461F461F461F461F91
:1097B000461F461F461F461F461F461F461F461F81
:1097C000461F461F461F461F461F461F461F461F71
:1097D000461F461F461F461F461F461F461F461F61
:1097E000461F461F461F061F061F061F061F06FFB1
:1097F00007FF07FF07FF07FF07FF07FF07FF07FF39
:1098000007FF07FF07FF07FF07FF07FF07FF07FF28
:1098100007FF07FF07FF07FF07FF07FF07FF07FF18
:1098200007FF07FF07FF07FF07FF07FF07FF07FF08
:1098300007FF07FF07FF07FF07FF07FF07FF07FFF8
:1098400007FF07FF07FF07FF07FF07FF07FF07FFE8
:1098500007FF07FF07FF07FF07FF07FF07FF07FFD8
:1098600007FF07FF07FF07FF07FF07FF07FF07FFC8
:1098700007FF07FF07FF07FF07FF07FF07FF07FFB8
:1098800007FF07FF07FF07FF07FF07FF07FF07FFA8
:1098900007FF07FF07FF07FF07FF07FF07FF07FF98
:1098A00007FF07FF07FF07FF07FF07FF07FF07FF88
:1098B00007FF07FF07FF07FF07FF07FF07FF07FF78
:1098C00007FF07FF07FF07FF07FF07FF07FF07FF68
:1098D00007FF07FF07FF07FF07FF07FF07FF07FF58
:1098E00007FF07FF07FF07FF07FF07FF07FF07FF48
:1098F00007FF07FF07FF07FF07FF07FF07FF07FF38
:1099000007FF07FF07FF07FF07FF07FF07FF07FF27
:1099100007FF07FF07FF07FF07FF07FF07FF07FF17
:1099200007FF07FF07FF07FF07FF07FF07FF07FF07
:1099300007FF07FF07FF07FF07FF07FF07FF07FFF7
:1099400007FF07FF07FF07FF07FF07FF07FF07FFE7
:1099500007FF07FF07FF07FF07FF07FF07FF07FFD7
:1099600007FF07FF07FF07FF07FF07FF07FF07FFC7
:1099700007FF07FF07FF07FF07FF07FF07FF07FFB7
:1099800007FF07FF07FF07000000000000000000BE
:1099900000000000000000000000000000000000C7
:1099A00000000000000000000000000000000000B7
:1099B00000000000000000000000000000000000A7
:1099C0000000000000000000000000000000000097
:109BC00000FF07FF07FF07FF07FF07FF07FF07FF6C
:109BD00007FF07FF07FF07FF07FF07FF07FF07FF55
:109BE00007FF07FF07FF07FF07FF07FF07FF07FF45
:109BF00007FF07FF07FF07FF07FF07FF07FF07FF35
:109C000007FF07FF07FF07FF07FF07FF07FF07FF24
:109C100007FF07FF07FF07FF07FF07FF07FF07FF14
:109C200007FF07FF07FF07FF07FF07FF07FF07FF04
:109C300007FF07FF07FF07FF07FF07FF07FF07FFF4
:109C400007FF07FF07FF07FF07FF07FF07FF07FFE4
:109C500007FF07FF07FF07FF07FF07FF07FF07FFD4
:109C600007FF07FF07FF07FF07FF07FF07FF07FFC4
:109C700007FF07FF07FF07FF07FF07FF07FF07FFB4
:109C800007FF07FF07FF07FF07FF07FF07FF07FFA4
:109C900007FF07FF07FF07FF07FF07FF07FF07FF94
:109CA00007FF07FF07FF07FF07FF07FF07FF07FF84
:109CB00007FF07FF07FF07FF07FF07FF07FF07FF74
:109CC00007FF07FF07FF07FF07FF07FF07FF07FF64
:109CD00007FF07FF07FF07FF07FF07FF07FF07FF54
:109CE00007FF07FF07FF07FF07FF07FF07FF07FF44
:109CF00007FF07FF07FF07FF07FF07FF07FF07FF34
:109D000007FF07FF07FF07FF07FF07FF07FF07FF23
:109D100007FF07FF07FF07FF07FF07FF07FF07FF13
:109D200007FF07FF07FF07FF07FF07FF07FF07FF03
:109D300007FF07FF07FF07FF07FF07FF07FF07FFF3
:109D400007FF07FF07FF07FF07FF07FF07FF07FFE3
:109D500007FF07FF07FF07FF07FF07FF07FF07FFD3
:109D600007FF07FF07FF07FF07FF07FF07FF07FFC3
:109D700007FF07FF07FF07FF07FF07FF07FF07FFB3
:109D800007FF07FF07FF07FF07FF07FF07FF07FFA3
:109D900007FF07FF07FF071F461F461F461F461FF7
:109DA000461F461F461F461F461F461F461F461F8B
:109DB000461F461F461F461F461F461F461F461F7B
:109DC000461F461F461F461F461F461F461F461F6B
:109DD000461F461F461F461F461F461F461F461F5B
:109DE000461F461F461F461F461F461F461F461F4B
:109DF000461F461F461F461F461F461F461F461F3B
:109E0000461F461F461F461F461F461F461F461F2A
:109E1000461F461F461F461F461F461F461F461F1A
:109E2000461F461F461F461F461F461F461F461F0A
:109E300046FF07FF07FF07FF07FF07FF07FF07FFB3
:109E400007FF07FF07FF07FF07FF07FF07FF07FFE2
:109E500007FF07FF07FF07FF07FF07FF07FF07FFD2
:109E600007FF07FF07FF07FF07FF07FF07FF07FFC2
:109E700007FF07FF07FF07FF07FF07FF07FF07FFB2
:109E800007FF07FF07FF07FF07FF07FF07FF07FFA2
:109E900007FF07FF07FF07FF07FF07FF07FF07FF92
:109EA00007FF07FF07FF07FF07FF07FF07FF07FF82
:109EB00007FF07FF07FF07FF07FF07FF07FF07FF72
:109EC00007FF07FF07FF07FF07FF07FF07FF07FF62
:109ED00007FF07FF07FF07FF07FF07FF07FF07FF52
:109EE00007FF07FF07FF07FF07FF07FF07FF07FF42
:109EF00007FF07FF07FF07FF07FF07FF07FF07FF32
:109F000007FF07FF07FF07FF07FF07FF07FF07FF21
:109F100007FF07FF07FF07FF07FF07FF07FF07FF11
:109F200007FF07FF07FF07FF07FF07FF07FF07FF01
:109F300007FF07FF07FF07FF07FF07FF07FF07FFF1
:109F400007FF07FF07FF07FF07FF07FF07FF07FFE1
:109F500007FF07FF07FF07FF07FF07FF07FF07FFD1
:109F600007FF07FF07FF07FF07FF07FF07FF07FFC1
:109F700007FF07FF07FF07FF07FF07FF07FF07FFB1
:109F800007FF07FF07FF07FF07FF07FF07FF07FFA1
:109F900007FF07FF07FF07FF07FF07FF07FF07FF91
:109FA00007FF07FF07FF07FF07FF07FF07FF07FF81
:109FB00007FF07FF07FF07FF07FF07FF07FF07FF71
:109FC00007FF07FF07FF0700000000000000000078
:109FD0000000000000000000000000000000000081
:109FE0000000000000000000000000000000000071
:109FF0000000000000000000000000000000000061
:10A000000000000000000000000000000000000050
:10A2000000FF07FF07FF07FF07FF07FF07FF07FF25
:10A2100007FF07FF07FF07FF07FF07FF07FF07FF0E
:10A2200007FF07FF07FF07FF07FF07FF07FF07FFFE
:10A2300007FF07FF07FF07FF07FF07FF07FF07FFEE
:10A2400007FF07FF07FF07FF07FF07FF07FF07FFDE
:10A2500007FF07FF07FF07FF07FF07FF07FF07FFCE
:10A2600007FF07FF07FF07FF07FF07FF07FF07FFBE
:10A2700007FF07FF07FF07FF07FF07FF07FF07FFAE
:10A2800007FF07FF07FF07FF07FF07FF07FF07FF9E
:10A2900007FF07FF07FF07FF07FF07FF07FF07FF8E
:10A2A00007FF07FF07FF07FF07FF07FF07FF07FF7E
:10A2B00007FF07FF07FF07FF07FF07FF07FF07FF6E
:10A2C00007FF07FF07FF07FF07FF07FF07FF07FF5E
:10A2D00007FF07FF07FF07FF07FF07FF07FF07FF4E
:10A2E00007FF07FF07FF07FF07FF07FF07FF07FF3E
:10A2F00007FF07FF07FF07FF07FF07FF07FF07FF2E
:10A3000007FF07FF07FF07FF07FF07FF07FF07FF1D
:10A3100007FF07FF07FF07FF07FF07FF07FF07FF0D
:10A3200007FF07FF07FF07FF07FF07FF07FF07FFFD
:10A3300007FF07FF07FF07FF07FF07FF07FF07FFED
:10A3400007FF07FF07FF07FF07FF07FF07FF07FFDD
:10A3500007FF07FF07FF07FF07FF07FF07FF07FFCD
:10A3600007FF07FF07FF07FF07FF07FF07FF07FFBD
:10A3700007FF07FF07FF07FF07FF07FF07FF07FFAD
:10A3800007FF07FF07FF07FF07FF07FF07FF07FF9D
:10A3900007FF07FF07FF07FF07FF07FF07FF07FF8D
:10A3A00007FF07FF07FF07FF07FF07FF07FF07FF7D
:10A3B00007FF07FF07FF07FF07FF07FF07FF07FF6D
:10A3C00007FF07FF07FF07FF07FF07FF071F061F1E
:10A3D000461F461F461F461F461F461F461F461F55
:10A3E000461F461F461F461F461F461F461F461F45
:10A3F000461F461F461F461F461F461F461F461F35
:10A40000461F461F461F461F461F461F461F461F24
:10A41000461F461F461F461F461F461F461F461F14
:10A42000461F461F461F461F461F461F461F461F04
:10A43000461F461F461F461F461F461F461F461FF4
:10A44000461F461F461F461F461F461F461F461FE4
:10A45000461F461F461F461F461F461F461F461FD4
:10A46000461F461F461F461F461F461F461F461FC4
:10A47000461F461F461F461F461F461F46FF07FF33
:10A4800007FF07FF07FF07FF07FF07FF07FF07FF9C
:10A4900007FF07FF07FF07FF07FF07FF07FF07FF8C
:10A4A00007FF07FF07FF07FF07FF07FF07FF07FF7C
:10A4B00007FF07FF07FF07FF07FF07FF07FF07FF6C
:10A4C00007FF07FF07FF07FF07FF07FF07FF07FF5C
:10A4D00007FF07FF07FF07FF07FF07FF07FF07FF4C
:10A4E00007FF07FF07FF07FF07FF07FF07FF07FF3C
:10A4F00007FF07FF07FF07FF07FF07FF07FF07FF2C
:10A5000007FF07FF07FF07FF07FF07FF07FF07FF1B
:10A5100007FF07FF07FF07FF07FF07FF07FF07FF0B
:10A5200007FF07FF07FF07FF07FF07FF07FF07FFFB
:10A5300007FF07FF07FF07FF07FF07FF07FF07FFEB
:10A5400007FF07FF07FF07FF07FF07FF07FF07FFDB
:10A5500007FF07FF07FF07FF07FF07FF07FF07FFCB
:10A5600007FF07FF07FF07FF07FF07FF07FF07FFBB
:10A5700007FF07FF07FF07FF07FF07FF07FF07FFAB
:10A5800007FF07FF07FF07FF07FF07FF07FF07FF9B
:10A5900007FF07FF07FF07FF07FF07FF07FF07FF8B
:10A5A00007FF07FF07FF07FF07FF07FF07FF07FF7B
:10A5B00007FF07FF07FF07FF07FF07FF07FF07FF6B
:10A5C00007FF07FF07FF07FF07FF07FF07FF07FF5B
:10A5D00007FF07FF07FF07FF07FF07FF07FF07FF4B
:10A5E00007FF07FF07FF07FF07FF07FF07FF07FF3B
:10A5F00007FF07FF07FF07FF07FF07FF07FF07FF2B
:10A6000007FF07FF07FF0700000000000000000031
:10A61000000000000000000000000000000000003A
:10A62000000000000000000000000000000000002A
:10A63000000000000000000000000000000000001A
:10A64000000000000000000000000000000000000A
:10A8400000FF07FF07FF07FF07FF07FF07FF07FFDF
:10A8500007FF07FF07FF07FF07FF07FF07FF07FFC8
:10A8600007FF07FF07FF07FF07FF07FF07FF07FFB8
:10A8700007FF07FF07FF07FF07FF07FF07FF07FFA8
:10A8800007FF07FF07FF07FF07FF07FF07FF07FF98
:10A8900007FF07FF07FF07FF07FF07FF07FF07FF88
:10A8A00007FF07FF07FF07FF07FF07FF07FF07FF78
:10A8B00007FF07FF07FF07FF07FF07FF07FF07FF68
:10A8C00007FF07FF07FF07FF07FF07FF07FF07FF58
:10A8D00007FF07FF07FF07FF07FF07FF07FF07FF48
:10A8E00007FF07FF07FF07FF07FF07FF07FF07FF38
:10A8F00007FF07FF07FF07FF07FF07FF07FF07FF28
:10A9000007FF07FF07FF07FF07FF07FF07FF07FF17
:10A9100007FF07FF07FF07FF07FF07FF07FF07FF07
:10A9200007FF07FF07FF07FF07FF07FF07FF07FFF7
:10A9300007FF07FF07FF07FF07FF07FF07FF07FFE7
:10A9400007FF07FF07FF07FF07FF07FF07FF07FFD7
:10A9500007FF07FF07FF07FF07FF07FF07FF07FFC7
:10A9600007FF07FF07FF07FF07FF07FF07FF07FFB7
:10A9700007FF07FF07FF07FF07FF07FF07FF07FFA7
:10A9800007FF07FF07FF07FF07FF07FF07FF07FF97
:10A9900007FF07FF07FF07FF07FF07FF07FF07FF87
:10A9A00007FF07FF07FF07FF07FF07FF07FF07FF77
:10A9B00007FF07FF07FF07FF07FF07FF07FF07FF67
:10A9C00007FF07FF07FF07FF07FF07FF07FF07FF57
:10A9D00007FF07FF07FF07FF07FF07FF07FF07FF47
:10A9E00007FF07FF07FF07FF07FF07FF07FF07FF37
:10A9F00007FF07FF07FF07FF07FF07FF07FF07FF27
:10AA000007FF07FF07FF07FF07FF07FF071F461F97
:10AA1000461F461F461F461F461F461F461F461F0E
:10AA2000461F461F461F461F461F461F461F461FFE
:10AA3000461F461F461F461F461F461F461F461FEE
:10AA4000461F461F461F461F461F461F461F461FDE
:10AA5000461F461F461F461F461F461F461F461FCE
:10AA6000461F461F461F461F461F461F461F461FBE
:10AA7000461F461F461F461F461F461F461F461FAE
:10AA8000461F461F461F461F461F461F461F461F9E
:10AA9000461F461F461F461F461F461F461F461F8E
:10AAA000461F461F461F461F461F461F461F461F7E
:10AAB000461F461F461F461F461F461F461F06FFCE
:10AAC00007FF07FF07FF07FF07FF07FF07FF07FF56
:10AAD00007FF07FF07FF07FF07FF07FF07FF07FF46
:10AAE00007FF07FF07FF07FF07FF07FF07FF07FF36
:10AAF00007FF07FF07FF07FF07FF07FF07FF07FF26
:10AB000007FF07FF07FF07FF07FF07FF07FF07FF15
:10AB100007FF07FF07FF07FF07FF07FF07FF07FF05
:10AB200007FF07FF07FF07FF07FF07FF07FF07FFF5
:10AB300007FF07FF07FF07FF07FF07FF07FF07FFE5
:10AB400007FF07FF07FF07FF07FF07FF07FF07FFD5
:10AB500007FF07FF07FF07FF07FF07FF07FF07FFC5
:10AB600007FF07FF07FF07FF07FF07FF07FF07FFB5
:10AB700007FF07FF07FF07FF07FF07FF07FF07FFA5
:10AB800007FF07FF07FF07FF07FF07FF07FF07FF95
:10AB900007FF07FF07FF07FF07FF07FF07FF07FF85
:10ABA00007FF07FF07FF07FF07FF07FF07FF07FF75
:10ABB00007FF07FF07FF07FF07FF07FF07FF07FF65
:10ABC00007FF07FF07FF07FF07FF07FF07FF07FF55
:10ABD00007FF07FF07FF07FF07FF07FF07FF07FF45
:10ABE00007FF07FF07FF07FF07FF07FF07FF07FF35
:10ABF00007FF07FF07FF07FF07FF07FF07FF07FF25
:10AC000007FF07FF07FF07FF07FF07FF07FF07FF14
:10AC100007FF07FF07FF07FF07FF07FF07FF07FF04
:10AC200007FF07FF07FF07FF07FF07FF07FF07FFF4
:10AC300007FF07FF07FF07FF07FF07FF07FF07FFE4
:10AC400007FF07FF07FF07000000000000000000EB
:10AC500000000000000000000000000000000000F4
:10AC600000000000000000000000000000000000E4
:10AC700000000000000000000000000000000000D4
:10AC800000000000000000000000000000000000C4
:10AE7000000000000000000000000000000000FFD3
:10AE800007FF07FF07FF07FF07FF07FF07FF07FF92
:10AE900007FF07FF07FF07FF07FF07FF07FF07FF82
:10AEA00007FF07FF07FF07FF07FF07FF07FF07FF72
:10AEB00007FF07FF07FF07FF07FF07FF07FF07FF62
:10AEC00007FF07FF07FF07FF07FF07FF07FF07FF52
:10AED00007FF07FF07FF07FF07FF07FF07FF07FF42
:10AEE00007FF07FF07FF07FF07FF07FF07FF07FF32
