:020000040800F2
:100000000000022083000008810000088100000831
:100010008100000881000008810000080000000045
:100020000000000000000000000000008100000847
:100030008100000800000000810000088100000825
:10004000810000088100000881000008810000088C
:10005000810000088100000881000008810000087C
:10006000810000088100000881000008810000086C
:10007000810000088100000881000008810000085C
:10008000FEE726482649274A914205D050F8043B0E
:1000900041F8043B9142F9D1234824494FF0000232
:1000A000884203D040F8042B8842FBD100F040F88E
:1000B000FEE7034B1A681206FCD55860704700BF74
:1000C0000010014008B5411E11F8010F00B908BD2C
:1000D000FFF7EFFFF8E7054B9A689107FCD5187317
:1000E0009A68D207FCD5187B704700BF00300140EA
:1000F00010B5094C4FF08043C4F818340520FFF7C1
:10010000EAFFFF20FFF7E7FFC307FAD44FF480436D
:10011000C4F8183410BD00BF0000024090A50708C5
:10012000000000200000002000000020000000204F
:100130002DE9F04FA14EA24CD6F83038A148A24D7F
:10014000A24F43F0010385B0C6F83038D6F84438E2
:1001500043F01003C6F84438236823F47013236077
:10016000236843F420132360636A23F47F6343F41A
:10017000EE636362A36843F42013A360944B8B2265
:100180009A6042F20C02DA60FFF79CFFD6F8303832
:10019000904843F04203C6F83038D6F8443843F468
:1001A0008053C6F84438D4F8003423F0405323F485
:1001B0007C63C4F80034D4F8003443F0805343F433
:1001C0002863C4F80034D4F820346FF31733C4F82C
:1001D0002034D4F8203443F4AA0343F4A043C4F8F1
:1001E0002034D4F80C3443F08053C4F80C34D5F8E0
:1001F0000C3843F48043C5F80C38D5F8003823F4A4
:10020000404343F48043C5F800384FF48043C4F8BA
:1002100018348023C5F818386F4B40F24F321A60FB
:10022000D6F8303843F02003C6F83038D5F800341B
:100230006A4E23F4402343F48023C5F800344FF47E
:100240000073C5F81834FFF73DFF1C2127FA01F3AE
:10025000DCB2C3F3031304F00F04F05CFFF729FFD3
:100260000439305DFFF725FF0B1DEFD15C48FFF728
:1002700029FF4FF03033019343F23053ADF808308B
:10028000062101AC0139605CFFF713FF0029F9D1A9
:1002900054484B4EFFF716FF5348FFF713FF4FF03C
:1002A0000073C5F818344FF4F4144FF080484FF43D
:1002B0008047C6F818840620FFF70DFFC6F81874AB
:1002C0002020C6F81884FFF706FFC4F30740FFF7A5
:1002D00002FFC4F30720FFF7FEFE0020FFF7FBFE3E
:1002E000C6F81874FFF704FF404B04F580549C4295
:1002F000DDD14FF40073C5F818343D48DFF80091A4
:100300003C4CDFF8C8802E4FFFF7DCFE4FF0007347
:10031000C5F818344FF0804B5FFA88FACAF580763A
:10032000A642C7F818B44FF0060028BF2646FFF7CC
:10033000D2FE4FF48043C7F818340220C7F818B42F
:10034000FFF7C9FEC8F30740FFF7C5FEC8F3072053
:10035000FFF7C1FE5046FFF7BEFECA46B144CA458C
:1003600022D14FF48043C7F81834FFF7C1FEA41B15
:10037000B044D1D14FF400761F48C5F81864FFF798
:10038000A1FE1E4A4FF00071C5F818140094009B9E
:1003900093420EDDC5F818640194019B9342F3DC8F
:1003A000019B01330193F8E71AF8010BFFF793FE65
:1003B000D5E7009B01330093E9E700BF003002401E
:1003C00000000240040400080010024080841E0067
:1003D000001001401D040008003001405F040008C7
:1003E0002F040008420400083604000800302600EC
:1003F0004504000820A10700540400081FA10700BD
:10040000700400080D0A3E3E3E20424154434820FD
:10041000464C41534845522076320D0A0020204276
:1004200061746368206F66667365743D3078002080
:1004300073697A653D00202045726173696E672E8D
:100440002E2E0D0A00202057726974696E672E2EB9
:100450002E0D0A003E3E3E20444F4E450D0A003010
:10046000313233343536373839414243444546001A
:10047000000000000000000000000000000000007C
:10048000000000000000000000000000000000006C
:10049000000000000000000000000000000000005C
:1004A000000000000000000000000000000000004C
:1004B000000000000000000000000000000000003C
:1004C000000000000000000000000000000000002C
:1004D000000000000000000000000000000000001C
:1004E000000000000000FFFFFFFFFFFFFFFFFFFF16
:1004F000FFFFFFFFFFFFFFFFFFFFFFFFFFFFFFFF0C
:10050000FFFFFFFFFFFFFFFFFFFFFFFFFFFFFFFFFB
:10051000FFFFFFFFFFFFFFFFFFFFFFFFFFFFFFFFEB
:10052000FFFFFFFFFFFFFFFFFFFFFFFFFFFFFFFFDB
:10053000FFFFFFFFFFFFFFFFFFFFFFFFFFFFFFFFCB
:10054000FFFFFFFFFFFFFFFFFFFFFFFFFFFFFFFFBB
:10055000FFFFFFFFFFFFFFFFFFFFFFFFFFFFFFFFAB
:10056000FFFFFFFF0000000000000000000000008F
:10057000000000000000000000000000000000007B
:10058000000000000000000000000000000000006B
:10059000000000000000000000000000000000005B
:1005A000000000000000000000000000000000004B
:1005B000000000000000000000000000000000003B
:1005C000000000000000000000000000000000002B
:1005D000000000000000000000000000000000001B
:1005E000000000000000000000000000000000000B
:1005F00000000000000000000000000000000000FB
:1006000000000000000000000000000000000000EA
:1006100000000000000000000000000000000000DA
:1006200000000000000000000000000000000000CA
:10063000000000000000FFFFFFFFFFFFFFFFFFFFC4
:10064000FFFFFFFFFFFFFFFFFFFFFFFFFFFFFFFFBA
:10065000FFFFFFFFFFFFFFFFFFFFFFFFFFFFFFFFAA
:10066000FFFFFFFFFFFFFFFFFFFFFFFFFFFFFFFF9A
:10067000FFFFFFFFFFFFFFFFFFFFFFFFFFFFFFFF8A
:10068000FFFFFFFFFFFFFFFFFFFFFFFFFFFFFFFF7A
:10069000FFFFFFFFFFFFFFFFFFFFFFFFFFFFFFFF6A
:1006A000FFFFFFFFFFFFFFFFFFFFFFFF0000000056
:1006B000000000000000000000000000000000003A
:1006C000000000000000000000000000000000002A
:1006D000000000000000000000000000000000001A
:1006E000000000000000000000000000000000000A
:1006F00000000000000000000000000000000000FA
:1007000000000000000000000000000000000000E9
:1007100000000000000000000000000000000000D9
:1007200000000000000000000000000000000000C9
:1007300000000000000000000000000000000000B9
:1007400000000000000000000000000000000000A9
:100750000000000000000000000000000000000099
:100760000000000000000000000000000000000089
:100770000000000000000000000000000000000079
:1007800000000000000000000000FFFFFFFFFFFF6F
:10079000FFFFFFFFFFFFFFFFFFFFFFFFFFFFFFFF69
:1007A000FFFFFFFFFFFFFFFFFFFFFFFFFFFFFFFF59
:1007B000FFFFFFFFFFFFFFFFFFFFFFFFFFFFFFFF49
:1007C000FFFFFFFFFFFFFFFFFFFFFFFFFFFFFFFF39
:1007D000FFFFFFFFFFFFFFFFFFFFFFFFFFFFFFFF29
:1007E000FFFFFFFFFFFFFFFFFFFFFFFFFFFFFFFF19
:1007F00000000000000000000000000000000000F9
:1008000000000000000000000000000000000000E8
:1008100000000000000000000000000000000000D8
:1008200000000000000000000000000000000000C8
:1008300000000000000000000000000000000000B8
:1008400000000000000000000000000000000000A8
:100850000000000000000000000000000000000098
:100860000000000000000000000000000000000088
:100870000000000000000000000000000000000078
:100880000000000000000000000000000000000068
:100890000000000000000000000000000000000058
:1008A0000000000000000000000000000000000048
:1008B0000000000000000000000000000000000038
:1008C0000000000000000000000000000000000028
:1008D0000000000000000000FFFFFFFFFFFFFFFF20
:1008E000FFFFFFFFFFFFFFFFFFFFFFFFFFFFFFFF18
:1008F000FFFFFFFFFFFFFFFFFFFFFFFFFFFFFFFF08
:10090000FFFFFFFFFFFFFFFFFFFFFFFFFFFFFFFFF7
:10091000FFFFFFFFFFFFFFFFFFFFFFFFFFFFFFFFE7
:10092000FFFFFFFFFFFFFFFFFFFFFFFFFFFFFFFFD7
:10093000FFFFFFFFFFFFFFFFFFFF000000000000C1
:1009400000000000000000000000000000000000A7
:100950000000000000000000000000000000000097
:100960000000000000000000000000000000000087
:100970000000000000000000000000000000000077
:100980000000000000000000000000000000000067
:100990000000000000000000000000000000000057
:1009A0000000000000000000000000000000000047
:1009B0000000000000000000000000000000000037
:1009C0000000000000000000000000000000000027
:1009D0000000000000000000000000000000000017
:1009E0000000000000000000000000000000000007
:1009F00000000000000000000000000000000000F7
:100A000000000000000000000000000000000000E6
:100A100000000000000000000000000000000000D6
:100A20000000000000000000000000000000FFFFC8
:100A3000FFFFFFFFFFFFFFFFFFFFFFFFFFFFFFFFC6
:100A4000FFFFFFFFFFFFFFFFFFFFFFFFFFFFFFFFB6
:100A5000FFFFFFFFFFFFFFFFFFFFFFFFFFFFFFFFA6
:100A6000FFFFFFFFFFFFFFFFFFFFFFFFFFFFFFFF96
:100A7000FFFFFFFFFFFFFFFFFFFFFFFF0000000082
:100A80000000000000000000000000000000000066
:100A90000000000000000000000000000000000056
:100AA0000000000000000000000000000000000046
:100AB0000000000000000000000000000000000036
:100AC0000000000000000000000000000000000026
:100AD0000000000000000000000000000000000016
:100AE0000000000000000000000000000000000006
:100AF00000000000000000000000000000000000F6
:100B000000000000000000000000000000000000E5
:100B100000000000000000000000000000000000D5
:100B200000000000000000000000000000000000C5
:100B300000000000000000000000000000000000B5
:100B400000000000000000000000000000000000A5
:100B50000000000000000000000000000000000095
:100B60000000000000000000000000000000000085
:100B70000000000000000000000000000000000075
:100B8000000000000000FFFFFFFFFFFFFFFFFFFF6F
:100B9000FFFFFFFFFFFFFFFFFFFFFFFFFFFFFFFF65
:100BA000FFFFFFFFFFFFFFFFFFFFFFFFFFFFFFFF55
:100BB000FFFFFFFFFFFFFFFFFFFF0000000000003F
:100BC0000000000000000000000000000000000025
:100BD0000000000000000000000000000000000015
:100BE0000000000000000000000000000000000005
:100BF00000000000000000000000000000000000F5
:1028700001030507090B0B0B0B0B0B0B0B0B0B0BC6
:102880000B0B0B0A08060402000000000000000009
:102890000000000000000000000000000000000038
:1028A0000000000000000000000000000000000028
:1028B0000000000000000000000000000000000018
:1028C0000000000000000000000000000000000008
:1028D00000000000000000000000000000000000F8
:1028E00000000000000000000000000000000000E8
:1028F00000000000000000000000000000000000D8
:1029000000000000000000000000000000000000C7
:10291000000000000001040C131B232A2B2B2B2B7F
:102920002B2B2B2B2B2B2B2B2B28201811090200A8
:102930000000000000000000000000000000000097
:102940000000000000000000000000000000000087
:102950000000000000000000000000000000000077
:102960000000000000000000000000000000000067
:102970000000000000000000000000000000000057
:102980000000000000000000000000000000000047
:102990000000000000000000000000000000000037
:1029A0000000000000000000000000000000000027
:1029B000000000000001070C11171D20232B323AE4
:1029C000424A4B4B4B4B4B4B4B4B4B4B4B4B4B4765
:1029D00040383028211F1B15100A05010000000097
:1029E00000000000000000000000000000000000E7
:1029F00000000000000000000000000000000000D7
:102A000000000000000000000000000000000000C6
:102A100000000000000000000000000000000000B6
:102A200000000000000000000000000000000000A6
:102A30000000000000000000000000000000000096
:102A40000000000000000000000000000000000086
:102A500000000000000103070A0D11151C242C348E
:102A60003B40434B535A626A6B6B6B6B6B6B6B6B8C
:102A70006B6B6B6B6B6760585048413F3931292154
:102A80001A130F0C090502000000000000000000EE
:102A90000000000000000000000000000000000036
:102AA0000000000000000000000000000000000026
:102AB0000000000000000000000000000000000016
:102AC0000000000000000000000000000000000006
:102AD00000000000000000000000000000000000F6
:102AE00000000000000000000000000000000000E6
:102AF0000000000000000000010203070D161E2662
:102B00002E353C444C545B60636B737A80878888B5
:102B10008888888888888888888888857E7870688A
:102B2000625F595149413A322B231B130A050302B4
:102B30000100000000000000000000000000000094
:102B40000000000000000000000000000000000085
:102B50000000000000000000000000000000000075
:102B60000000000000000000000000000000000065
:102B70000000000000000000000000000000000055
:102B80000000000000000000000000000000000045
:102B90000000000000000000000000000002060E1F
:102BA000141D28353D454D555C646C747C81848BC7
:102BB000929596979898989899999999999898989C
:102BC000989796958F88828079716A615A524B43A3
:102BD0003B312419120B040100000000000000002A
:102BE00000000000000000000000000000000000E5
:102BF00000000000000000000000000000000000D5
:102C000000000000000000000000000000000000C4
:102C100000000000000000000000000000000000B4
:102C200000000000000000000000000000000000A4
:102C30000000000000000000000000000000000094
:102C4000010308111E2A313A45555E656D757C8376
:102C5000898D90929395989999999999999999991B
:102C600099999999999999999999979593928F8CFE
:102C700088817A726B635B5040372F261A0D0602EB
:102C80000000000000000000000000000000000044
:102C90000000000000000000000000000000000034
:102CA0000000000000000000000000000000000024
:102CB0000000000000000000000000000000000014
:102CC0000000000000000000000000000000000004
:102CD00000000000000000000000000000000000F4
:102CE00000000000010308101A2939495159637284
:102CF0007C82888D929699999998989797969595B0
:102D0000949393939393939393939393949595968A
:102D10009797989999999894908B8680796D5F5739
:102D20004F443423170D050201000000000000008D
:102D30000000000000000000000000000000000093
:102D40000000000000000000000000000000000083
:102D50000000000000000000000000000000000073
:102D60000000000000000000000000000000000063
:102D70000000000000000000000000000000000053
:102D800000000000000000000001050C172A384672
:102D900055687179818C95999A9A99989797969593
:102DA0009392918F8E8D8C8B8A8A8A8A898A8A8A5D
:102DB0008A8B8C8E8E909192949596979899999AE9
:102DC0009A9992887E776F624F42342411090301E9
:102DD00000000000000000000000000000000000F3
:102DE00000000000000000000000000000000000E3
:102DF00000000000000000000000000000000000D3
:102E000000000000000000000000000000000000C2
:102E100000000000000000000000000000000000B2
:102E20000000000000000000000000000002060C8E
:102E30001B293645576470828C919497989898977F
:102E40009593918F8E8C8A88868482807E7D7C7B10
:102E50007B7B7B7B7B7B7D7D7F81828486888A8C6C
:102E60008E9092949697989998969391897C6A609F
:102E700051403124160A0401000000000000000047
:102E80000000000000000000000000000000000042
:102E90000000000000000000000000000000000032
:102EA0000000000000000000000000000000000022
:102EB0000000000000000000000000000000000012
:102EC0000000000000000000000000000000000002
:102ED0000000050F1A2535465560727F8992979933
:102EE0009998969492908D8A8885827F7C79767461
:102EF000716F6D6B6A696868686869696A6C6E7021
:102F00007275777A7D808386888B8E91939597985A
:102F10009999968F857C6C5C51403021160B04008A
:102F200000000000000000000000000000000000A1
:102F30000000000000000000000000000000000091
:102F40000000000000000000000000000000000081
:102F50000000000000000000000000000000000071
:102F60000000000000000000000000000000000061
:102F70000000000000000205122336455162727BFA
:102F80008A949A9A99989694908D8A86827E7A7776
:102F9000726F6B6764615D5B58565554535352535F
:102FA00054545557595C5E6265696C7074787C80C6
:102FB00084878B8E91949698999A999184786F5C76
:102FC0004D40301D0E040000000000000000000015
:102FD00000000000000000000000000000000000F1
:102FE00000000000000000000000000000000000E1
:102FF00000000000000000000000000000000000D1
:1030000000000000000000000000000000000000C0
:1030100000000000000000000000000107172B3E28
:1030200051656D7C8D97999A9A9895938F8B87822D
:103030007E79746E6964605B56524F4B4744413FE2
:103040003E3C3C3B3B3B3C3D3E404245484C505463
:10305000585D61666B70757A7F84888D91949699BE
:103060009A9A999389766B5E4B382412020000007D
:103070000000000000000000000000000000000050
:103080000000000000000000000000000000000040
:103090000000000000000000000000000000000030
:1030A0000000000000000000000000000000000020
:1030B0000000000000000000000000000000000010
:1030C00006111F3045586C7F8991979A9997959270
:1030D0008D88837E78726D66605A554F4A45403BB5
:1030E0003733302C29272524232222222324252765
:1030F0002A2D3134383D41464C51575C62696F741A
:103100007A80858A8F9396989999958F867965525A
:103110003E2B190C0400000000000000000000001D
:10312000000000000000000000000000000000009F
:10313000000000000000000000000000000000008F
:10314000000000000000000000000000000000007F
:10315000000000000000000000000000000000006F
:1031600000000000020816273A4C5F728491989A7A
:10317000999894918D88827B756E676059524B4502
:103180003E38332D28231E1B181514131213121248
:103190001212121212131416191C20242A2F353A57
:1031A00040474E555C626970777E848A8F9296980C
:1031B000999A958D7F6C59463420110600000000C5
:1031C00000000000000000000000000000000000FF
:1031D00000000000000000000000000000000000EF
:1031E00000000000000000000000000000000000DF
:1031F00000000000000000000000000000000000CF
:1032000000000000000000000002091A2E4255686C
:10321000798B989A999895938D87817B736C645C70
:10322000534B443C352E27201C17120E0B08050467
:1032300007090A0D0E0E0E0E0D0C0A0806050609EA
:103240000C0F14181D232930373F464E565F676E0A
:10325000767D838A8F9496999A99978574624E3B6E
:10326000271403010000000000000000000000001F
:10327000000000000000000000000000000000004E
:10328000000000000000000000000000000000003E
:10329000000000000000000000000000000000002E
:1032A000000000000000000000000000000004100A
:1032B0002134485C6F829097999896928E89827A91
:1032C000736B625950473E352D251E171009080AA9
:1032D0000D10131618191C1E20222223232322212D
:1032E0001F1D1B191715120F0C09080C1219202885
:1032F0003038414A535C656D767D848A9094979905
:1033000099968B7C6855412D1B0A02000000000035
:1033100000000000000000000000000000000000AD
:10332000000000000000000000000000000000009D
:10333000000000000000000000000000000000008D
:10334000000000000000000000000000000000007D
:103350000000010515283B4E627687929899979454
:103360008F8A837C746B62584F453B31281F170F3F
:103370000F0F0F0F12161B1F2226292B2D2F313254
:10338000333333333231302E2D2A2825211D1914A1
:10339000110F0F0F0E121A222B353E48525B656E2D
:1033A000767E858C91959899968E836F5B483421B3
:1033B00010040000000000000000000000000000F9
:1033C00000000000000000000000000000000000FD
:1033D00000000000000000000000000000000000ED
:1033E00000000000000000000000000000000000DD
:1033F000000000000000000107142B4155697B8C80
:1034000097999896918C867E766D63594F453A30A0
:10341000261C150F0C080E141A1F23282C2F3235CA
:1034200037393B3C3D3E3E3F3F3F3E3E3D3B3A39D8
:103430003634312E2B27221D18120B090D11171FA0
:1034400029333E48525D67707981888E93979998A9
:10345000958775624F3A230F0301000000000000BA
:10346000000000000000000000000000000000005C
:10347000000000000000000000000000000000004C
:10348000000000000000000000000000000000003C
:103490000000000000000000000000000005132EE6
:1034A00042596F8393999998948F89827970675C58
:1034B00051463B30251B1107060B131A20262B2FD4
:1034C0003336393C3E4041434444454646464646F1
:1034D000464645444342413F3D3B3835322E292440
:1034E0001E181008060A141E29343F4A555F6B73D4
:1034F0007C848B9196989A998E7C69503B250A0220
:1035000000000000000000000000000000000000BB
:1035100000000000000000000000000000000000AB
:10352000000000000000000000000000000000009B
:10353000000000000000000000000000000000008B
:10354000000005162B415A708394989996928C85A9
:103550007D756B6054493D32271C100C0D10151CF5
:10356000232A2F33363A3C3F4042434445454546A3
:1035700046464647474746464645454544434241F9
:10358000403E3C3935312D27211A130F0C0C141FE6
:103590002B36414D58646E7880888E949899978E1A
:1035A0007E69523A240E0300000000000000000073
:1035B000000000000000000000000000000000000B
:1035C00000000000000000000000000000000000FB
:1035D00000000000000000000000000000000000EB
:1035E0000000000000000105152A42587083929ADD
:1035F0009895918A837A70655A4E42362A1E140E27
:103600000C0F151D242B3035393C3E4041424343BD
:10361000434343434343424243434343434242437E
:103620004343434343434342413F3E3B38342F29C6
:10363000221A130D0D1017222E3A46525E69737D21
:10364000858D939799978F7D68513A220F030000DB
:10365000000000000000000000000000000000006A
:10366000000000000000000000000000000000005A
:10367000000000000000000000000000000000004A
:1036800000000000000000000000000105102A41B9
:10369000577183929998948F8980776C6154483CD4
:1036A0002F22170E090B141D252C31363A3E4041AE
:1036B000434242424141403E3E3D3D3C3B3B3B3B21
:1036C0003A3B3B3B3B3C3D3D3E3F40414242424317
:1036D00042413F3C39353029221A110A09111B2673
:1036E00033404C5865707A838C9196999A8D7D6899
:1036F0004F3A210C02000000000000000000000012
:1037000000000000000000000000000000000000B9
:1037100000000000000000000000000000000000A9
:103720000000000000000000000000000000000099
:103730000004112B3F576F83939897948E877E7563
:10374000695D504336281B0F090B131B232A3036A3
:103750003A3D4041424141403F3D3B3936353332AD
:1037600031302F2E2D2D2D2D2E2E2F303132343560
:1037700037393B3D3F41414242413F3C39342F289C
:10378000201810080B13202D3A4755616D78828A56
:10379000909598988E7D684E3822090200000000AE
:1037A0000000000000000000000000000000000019
:1037B0000000000000000000000000000000000009
:1037C00000000000000000000000000000000000F9
:1037D0000000000000000413283F576E8292979764
:1037E000938E867C7266594C3F3124160D0C0F1750
:1037F00020282F34393D3E3F40403E3D3A38353257
:103800003136485A697785919BA2A8ABACABA6A08C
:10381000988D807264554134303336393B3D3F409A
:10382000403F3E3B37332D251D130E0C0E1B283613
:1038300044515E6A768088909598958C7C664F3767
:10384000200D030000000000000000000000000048
:103850000000000000000000000000000000000068
:103860000000000000000000000000000000000058
:103870000000000000000000000000010E253F5580
:103880006D818F9897938D857C706457493B2E1F6F
:10389000130C0B121B242C32373B3D3F3F3E3C3A6E
:1038A0003734343F4D5A67768DA1B2C2D2E0ECF383
:1038B000FAFEFFFDF8F1E8DCCDBDAD9C85716256E6
:1038C000483C3235383B3D3E3F3F3D3A353029217B
:1038D0001810090D172432404E5B68747F8890944D
:1038E00097958C7B654D381C090000000000000096
:1038F00000000000000000000000000000000000C8
:1039000000000000000000000000000000000000B7
:1039100000000000000000000000000000000000A7
:1039200000031D38546E81909897938D857B70634A
:103930005548392A1C0F060B161F2830363A3C3ED4
:103940003E3E3B38363332323C6290BAE0FBFFFFFA
:10395000FFFFFEFDFCFBFBFBFBFBFBFCFCFDFEFF9E
:10396000FFFFFEF2D6AE80553331323436393C3E5D
:103970003F3D3B38342D251C12070913212F3E4CA7
:103980005A67737E888F9497988B7B654B2F1401B1
:103990000000000000000000000000000000000027
:1039A0000000000000000000000000000000000017
:1039B0000000000000000000000000000000000007
:1039C0000000000000000615304B66818F9596932D
:1039D0008C847B6F62544637281A0E080F18222AEF
:1039E0003136393C3D3C3A37332E2F416F9DC4D997
:1039F000E5EFF8FEFFFFFEFBEDE0D4CBC3C0BFC098
:103A0000C6CED8E4F2FCFFFFFFFCF5ECE1D2BB8FA1
:103A10005F3B2B3034383B3D3D3B38352F271F155E
:103A20000D0A101F2D3C4B5967737F878F94979415
:103A30008A785D42270F01000000000000000000AE
:103A40000000000000000000000000000000000076
:103A50000000000000000000000000000000000066
:103A60000000000000000000000000041128435E78
:103A7000788F9596938D857B6F6254453627190F05
:103A80000B0F1A232B3236393B3B3936332D3C583A
:103A90007B9FC0DFF6FEFFF8E9D5C6B7AAA0978FD7
:103AA00088837F7C7C7C80858A919AA4AEBCCBDCA9
:103AB000EFFCFFFCF2D5B5936E4C372F34383A3B10
:103AC0003A39352F2920160D0A111D2C3C4B596708
:103AD000747E888F9496938770553A20090200006F
:103AE00000000000000000000000000000000000D6
:103AF00000000000000000000000000000000000C6
:103B000000000000000000000000000000000000B5
:103B1000020D203B5671889796938E867C70635574
:103B2000453627180D0A0F1B242C32363939393700
:103B3000333238476D9FD4FBFFFCF4E8DECDB496FA
:103B40007E69564B4A4B4C4E4E4F4F4F4E4D4C4A52
:103B5000494F5B7086A0BCD4E1ECF7FEFFEEC68C4B
:103B6000604234313437393A3835302921170C0A5C
:103B7000111D2C3C4B5968747F89909496928268F1
:103B80004D32170801000000000000000000000096
:103B90000000000000000000000000000000000025
:103BA0000000000000000000000000000000000015
:103BB000000000000000071C364E69849597938E24
:103BC000877D71645647372818090A111B242C3247
:103BD00036393836332F29355EB4E3F8FCFFFFF071
:103BE000D09D73594E505253555657595A5B5B5B93
:103BF0005C5B5B5B5A5857555453514F4F5E80ADD9
:103C0000DFF9FFFEFBF7D596452D2B3034373838DA
:103C100035302921180D090E1D2D3D4C5B6976812B
:103C20008A909496957B60462E1305000000000054
:103C30000000000000000000000000000000000084
:103C40000000000000000000000000000000000074
:103C5000000000000000000000000001152F4A6372
:103C60007C8D95948F877E736557483829190E0986
:103C7000111A232B3034363633302C2B5F98C9E998
:103C8000F9FFF7D9AF8C726459535255585B5D5E9A
:103C90006061616262626262626261605F5E5C5A20
:103CA000575451535C687896BEE3FEFFF4DEBD8640
:103CB0004D2C2C31343636332F2821170E0A0F1F86
:103CC0002E3E4D5C6A76828A91959689745B412579
:103CD0000E000000000000000000000000000000D6
:103CE00000000000000000000000000000000000D4
:103CF00000000000000000000000000000000000C4
:103D0000030C26415D778A929490897F7467594AA3
:103D10003A2A1B0F0A0E1922292F323433312C3044
:103D2000436FABDEFEFFEFD6B69470574B5055583D
:103D30005B5E606162636464646465656565656457
:103D40006464636362615F5D5B57534F4C5C7C9F4F
:103D5000C2E0F5FFFAD09760362D2E313434312D84
:103D6000271F150D081320303F4F5E6C78838B9111
:103D70009591846F54381D08000000000000000079
:103D80000000000000000000000000000000000033
:103D90000000000000000000000000000000000023
:103DA0000000000000010A1E39546F889293908A27
:103DB0008176695C4C3C2D1D0F090C1720282D3194
:103DC00032312E2A2C467DDEF7FDF9F0C78D56479D
:103DD0004C52575A5D6061636363636363636363FB
:103DE0006363636363636363636363636362615FAA
:103DF0005C595550494C60A4D5F3FCFEF0BD6038C9
:103E00002B2B303232302C261D13080A142232415B
:103E100051606E7A848D92948F80664B30170300C8
:103E20000000000000000000000000000000000092
:103E30000000000000000000000000000000000082
:103E400000000000000000000000000717314C6770
:103E50007F9293918C83786C5E4F3F2F2011080BDB
:103E6000151F262B2E302F2B27205FA8E5F9FEF4F7
:103E7000D38C66534F51565A5D60616162616160D7
:103E80005F5E5D5C5C5B5B5A5A5B5B5B5C5C5D5E72
:103E90005F6061616261605F5C5954504F5672A40B
:103EA000E7FAFCF2DB8D4822292D2F2F2E2A241C25
:103EB00012080B162534455463707C868E92928CC2
:103EC000795E43290E04000000000000000000009D
:103ED00000000000000000000000000000000000E2
:103EE00000000000000000000000000000000000D2
:103EF000021229445F798B93918C857B6F625343C7
:103F0000332314070A121C24292C2D2D2925346B48
:103F1000B0E2FEFFDFB1805C4F4E54595C5E6060E2
:103F2000605F5E5C5A57555452504F4E4D4D4C4D4C
:103F30004E4E4F51525456585A5C5E5F60605F5E01
:103F40005B57524C53688EC3EAFFFBD59858232623
:103F50002A2D2D2C2822190F090B192838485867AB
:103F6000737F898E91908870563B200B0200000071
:103F70000000000000000000000000000000000041
:103F80000000000000000000000000000000000031
:103F9000000000000000071D3A57728691918D873E
:103FA0007E736657473727180C04101A22272B2CCC
:103FB0002B27243868BFEEFEF5DAA46E484B515625
:103FC0005A5D5F5F5F5C5B5855524E4B48454340BE
:103FD0003E3D3C3B3B3B3C3D3E414346494C5053C0
:103FE00057595B5D5F5F5E5C59554F4A4B80B7E345
:103FF000FCFEDFA24D2D25282C2C2A2620160C078E
:104000000E1C2C3C4D5C6A7782898F919180694EA1
:104010003014040000000000000000000000000058
:104020000000000000000000000000000000000090
:104030000000000000000000000000010D294A6A95
:10404000858F908F898176695B4B3B2A1B0D060D0E
:10405000171F25292A2926202472D2FDFFFAD97A92
:1040600050454E54585C5E5E5E5C5955514D494317
:104070003F3A36322F2C29282625252627282A2D77
:104080003033373C40454A4F53575A5D5E5E5E5B66
:1040900057524B425D9AF4FDFFEFC0492222282A75
:1040A0002A28241C140B041120304051606E7A849D
:1040B0008B8F918D7C5F3F1E090000000000000087
:1040C00000000000000000000000000000000000F0
:1040D00000000000000000000000000000000000E0
:1040E00001061D385572888E8E8A83796D5F504027
:1040F0003020110A0A141C2226282724211F7AC3E3
:10410000F3FFF2BD7A534B4E54585A5C5B5A5753E7
:104110004E48433D36302A251F1B1713100E0C0C3A
:104120000B0C0D0F1114181C21272C32383F454A57
:104130005055585A5C5C5A57524B4D608AD8F7FB21
:10414000EDAE5A1F2125272825201910070B16250B
:1041500035455564727D858B8F8E80684B2E150397
:10416000000000000000000000000000000000004F
:10417000000000000000000000000000000000003F
:10418000000000000000030D2A48657E8A8C8A85A5
:104190007C706355453525150A0910191F232626FD
:1041A00023202F67C0EFFBF0B77B4F484E53575982
:1041B0005A5856524D474139312A221B15121211B5
:1041C00011111010101010101010111111111212E5
:1041D000171E252C343C43494F5457595A595652AF
:1041E0004C4B548FCAF4FEE7A1541E2024262522EE
:1041F0001D160D080E1A2A3A4A5A68747F878B8D4D
:1042000086765C3E200801000000000000000000EF
:10421000000000000000000000000000000000009E
:1042200000000000000000000000000007173757E2
:1042300073898B89857F7467594A3A2A1B0C060C4F
:10424000161E222424231D2858C9F1FDEDC36B47F7
:10425000474E5357585856524E48403930271E172C
:10426000110D090A11161B2023252728282826248A
:10427000221F1A140F080A0E1319212A333B434A2E
:10428000505457585856524C45488AD2FAFEE4A327
:1042900034221F232423201B130808112030404FF1
:1042A0005E6C7881878A8A836C4C2C110200000036
:1042B00000000000000000000000000000000000FE
:1042C00000000000000000000000000000000000EE
:1042D00000030F294561798888857F776C5E4F40A0
:1042E000302112040A121A202323211D1756B1F778
:1042F000FDF2C55B49474D52555656534F49423A18
:1043000031281E140A080D141B22292F34383C3E74
:10431000404141413F3D3B37322D271F18110B07CC
:104320000D17212B343D454B5054565654504B4598
:104330004E7FE5F9FCDF9834191E2223221E180F48
:104340000809172635455563707A82878884735823
:104350003C200701000000000000000000000000F9
:10436000000000000000000000000000000000004D
:1043700000000000000000071938566F7F86858115
:104380007A706355463627180C050E161C2122211B
:104390001D174498E6FEF5BD7545464B50535352E4
:1043A000504B453D342A20160D0E10161F2830386C
:1043B0003F454A4F5355565858575654524D494306
:1043C0003D362D241C130F0D0E19242E3740474D5A
:1043D000515353524F49455587DAF9F6DC74351974
:1043E0001F22221F1B130B070E1D2C3C4B5A6873F8
:1043F0007D8385847D674C2D0F0400000000000044
:1044000000000000000000000000000000000000AC
:10441000000000000000000000000000000B21422E
:1044200063788284817C74685B4C3D2E1F10070981
:1044300012191E20201D1D2385D2FFFDCD8345426C
:10444000494E5152504C4841392F251A120D0C1427
:104450001F29333C454D53595E6266696A6B6C6B2C
:104460006A6865615D57514A423930261B110A0E50
:10447000141D28333B434A4E5051504C474349A1E9
:10448000DEFEFDBB64211B1F201F1D160F08071534
:10449000243342515F6C777E8283827258371606CE
:1044A000000000000000000000000000000000000C
:1044B00000000000000000000000000000000000FC
:1044C00000000010294A6B7B81817D766D6052442B
:1044D00035261709040D151B1E1F1D19234ACDFD76
:1044E000FCF2864F40474C4F4F4E4A443E352B20FE
:1044F000150A090F1B27333D464F585F656A6F73D6
:10450000777A7B7B7C7B7A7975726E69635D554CBB
:10451000433A2F23170B090E19242E3840474C4FCE
:10452000504E4A443E57ACF6FFFCA13E161B1E1FE0
:104530001E19120A010E1C2B3A49576571787E81AB
:104540008178603F1E0900000000000000000000AC
:10455000000000000000000000000000000000005B
:10456000000000000000000003173351717C7E7DC5
:10457000787065594A3C2D1E10080710171B1C1D2A
:1045800019173EB7ECFFE8A05A4143484B4D4C4841
:10459000423A32281C10090D16212D39434D565F21
:1045A000666D73787C7F8284858687868584817F2B
:1045B0007B76716B645C534A4035291D120B0914DC
:1045C000202B353D44494D4C4A47424171B8FFFECE
:1045D000DB9016181A1D1C1A140D040A15233241FB
:1045E000505D69737A7E7F7B6647290F0200000069
:1045F00000000000000000000000000000000000BB
:10460000000000000000000000000000000109227E
:10461000405F757B7B7872695E51433425170B07C9
:104620000A12171A1A19153176EBFAF0C15E433FD8
:1046300045494A4946403930251A0F0A0E18243197
:104640003C48525B636B72787D8185888A8B8D8D47
:104650008E8D8C8B898784807B766F6861584E4401
:10466000382D20150B0A121E29333B424749494871
:10467000443D4B7FE1F8F6C44E2216191B19161063
:1046800008070F1C2A394856636D747A7C7B6D5578
:1046900035170600000000000000000000000000C8
:1046A000000000000000000000000000000000000A
:1046B000000000010F2C4C6B767978746D63574ABB
:1046C0003C2D1F1106070D1317191815145AB7FEA4
:1046D000FDD38C363B41454847443F382F24190DC4
:1046E000070D1A27333F4A545E666E747B808487B9
:1046F000898B8C8D8E8E8E8E8D8C8C8B8986827E16
:1047000078726C645B51473B2F23160909111D28F1
:10471000323A41454747453F3953A8E9FEE69F37BE
:104720001416191916110B050A162432414F5C672D
:104730006F767A79726241200A0000000000000062
:104740000000000000000000000000000000000069
:10475000000000000000000000021533547276775C
:104760007470675D514335271A0D04070F13161730
:1047700015101D8AF5FFF8A347373D424445423ED8
:10478000372F24180D020D1A2734404B565F686FDF
:10479000767B8083868989878585858585858585DE
:1047A0008688898885827E79746D655C52483C3044
:1047B00023160906111C28323A40434544413B3D2B
:1047C00050CEFAFCF0541912161715120D040711E9
:1047D0001E2C3A4756616A717677756948280F0032
:1047E00000000000000000000000000000000000C9
:1047F00000000000000000000000000000000003B6
:104800001C3B59727474716B63574A3D2F21150913
:1048100004080F131413100D57B6FDFFC374383975
:104820003E4142413D362F25190E070C1926323ED6
:1048300049545E666D73797D807E78736D686666B7
:1048400066666666666667696F757A817F7B777173
:104850006B635A50463A2E22140A06121D2832392A
:104860003E4142403C393A92D7FEFB933E0D121432
:1048700014120D06060D192634414F5B656D7374D5
:10488000736B5030130000000000000000000000B7
:104890000000000000000000000000000000000018
:1048A00000000000010522425E7172716D675D5269
:1048B0004537291D110605090E121110101594DE39
:1048C000FDF58C4E343A3D3F3F3C362F261B1009F8
:1048D000091623303C47515A636A707578797870AD
:1048E00062584E4846464646464646464749515B0C
:1048F0006675797978736E6860574E43382C1F124D
:10490000060A131F2A32383D3F3F3C38335BB0F86C
:10491000FFCE68130E1012110D07060A14212E3C4B
:10492000495661697072726B5737180200000000B7
:104930000000000000000000000000000000000077
:1049400000000000000000000000020A294A637015
:10495000706E6A62584C403225190E04060A0E1019
:104960000F0C1432C8FCF6DB5D33353A3C3C3B3669
:104970002F271E120808121F2C38434E565E656CF6
:104980007073746F675846382E28262626262626EA
:1049900026262729313D4C5F6A7175736F6A635C07
:1049A000534A4034281B0E060B16212A32383C3D50
:1049B0003B38343288E4FFFB95270A0D0F0F0D08B2
:1049C0000507111D2A3744505C656C6F706C5E3FA3
:1049D0001F050000000000000000000000000000B3
:1049E00000000000000000000000000000000000C7
:1049F00005123253696E6E6B665E53473A2D201571
:104A00000A02060A0C0D0C09257EDEFFE5944831EA
:104A100035393A3936302920160A070E1A26323D22
:104A20004751585F656A6D6D6756493B2B190F0AF0
:104A30000707070707070707070B121F31404D5BE2
:104A40006B6E6C68635D564D44392E22150A080E54
:104A50001A242C32383A3A38343062AEFFFEBE6047
:104A6000070A0D0D0C0804040D1925323E4B576141
:104A7000686C6E6D6748270C0100000000000000A4
:104A80000000000000000000000000000000000026
:104A900000000000000007193A586A6D6C68625AFD
:104AA0004F4235291D12080105090B0B090737C6AE
:104AB000F1FCD056383135373735312B231A0F05F5
:104AC0000A131F2B36404951585E6366635A4C3BAC
:104AD0002A1D12080401000000000000000000026E
:104AE000050C16203040515E6465615C564F463DB2
:104AF00032271B0F0808131D252D32363736343068
:104B0000427EF8FDE29608080A0B0B0804030B1519
:104B1000212D3A46525D65696C6C694E2F12020078
:104B20000000000000000000000000000000000085
:104B30000000000000000000000000000A21415BAE
:104B4000696B69655E554A3E3125190F07000508F6
:104B50000909061255F4FCEDB1302F3134353330EC
:104B60002B251D130A030D18232E38414950565B7F
:104B70005E5D53422F201208030000000000000079
:104B80000000000000000001040A17253549575EA7
:104B90005D59544E473E342A1F150A050D1720272C
:104BA0002D31343533302F5BDCF6F9BF200C07098B
:104BB0000907040209121D2935424E5861666A6BC5
:104BC00069533618020000000000000000000000D9
:104BD00000000000000000000000000000000000D5
:104BE00000000C29495E686966615A51463A2D21D8
:104BF000170E060105070807032D82FFFFD1842A3F
:104C00002D303233302C271F170E0707121C262F8A
:104C10003840474D5255564E3C28150702000000BB
:104C20000000000000000000000000000000000084
:104C3000030C1B2F43515754504B453E352C221922
:104C40000E0707111A22292E313332302C48A3E8DF
:104C5000FFD5581804070806040308111A25313E29
:104C60004A545D63676967583E1F030000000000F7
:104C70000000000000000000000000000000000034
:104C80000000000000000001103051606565635DA8
:104C9000564D41362A1F150C050104050504024C2A
:104CA000AFFFFFB55A2A2D2F302F2D28221B1309B5
:104CB0000409131C252E363D43484C4D483822111B
:104CC00006020000000000000000000000000000DC
:104CD000000000000000010308162A3E4C4D4A4621
:104CE000413B332B22190F07030D151D252A2E30AA
:104CF000302F2C3A6ADAFFE49427030406050302F6
:104D0000070F18232E3A4550595F6365655C4625A9
:104D1000050000000000000000000000000000008E
:104D20000000000000000000000000000004163732
:104D3000546062625F5951483E32271D130B0501D2
:104D4000030303020368D6FFF89A3A2A2C2E2E2D6D
:104D500029251F170F07030A131B232B32383D4148
:104D60004441361F0F050000000000000000000055
:104D7000000000000000000000000000000001072B
:104D800014273D4443403B362F2821191007010AC0
:104D9000121A21262A2D2F2D2B2F40C9FAF1C9379F
:104DA000030204030202070E17212B36414C555B08
:104DB0006062635E4B2C0B020000000000000000EC
:104DC00000000000000000000000000000000000E3
:104DD000000000091D3D565E605F5B554D443A2F53
:104DE000241B120B0501020202020D83F4FFE7826D
:104DF00026292B2C2C2A26211B150D05020A1219F7
:104E000020262C3136393B34220A020000000000F3
:104E10000000000000000000000000000000000092
:104E200000000000000004122A393B3834302A24E4
:104E30001D170F0700080F171D23272B2C2C2A28BE
:104E400026B2EFFCF14A090202020102070D151E0B
:104E500028333D4750575C5F605D4E3312050000BC
:104E60000000000000000000000000000000000042
:104E70000000000000000000000D2544555B5C5B55
:104E800057514940362C2219100A0501010101052C
:104E9000279AFEFEC76C242829292926231E1912C9
:104EA0000C0502090F151B2025292D3032240F0275
:104EB00000000000000000000000000000000000F2
:104EC0000000000000000000000000000006142D9B
:104ED000312F2C28231F19130D0600070E151B2038
:104EE0002427292929272491DAFFFD661B030001C5
:104EF0000102070C131C252F39434D54595C5C5A91
:104F00004F3A1A07000000000000000000000000F7
:104F1000000000000000000000000000000000127F
:104F20002D4B54585957534D453C322920170F0AE1
:104F300006020101030743ACFFFEA95823262727D9
:104F40002623201C16110B0502060B1015191D2116
:104F500024272316040000000000000000000000C9
:104F60000000000000000000000000000000000041
:104F700000000002081D252623201C18130E09041A
:104F800002070D13181E2224262727252373C6FF88
:104F9000FF83300402010203070C121A232C363F50
:104FA000494F545859575142210A0000000000004F
:104FB00000000000000000000000000000000000F1
:104FC000000000000016334D525555524F494139EB
:104FD0002F261E150F0A0604020305095CBCFFFEFE
:104FE00090472224242423211E1A15100B070303A3
:104FF000070A0E1115181B1D160A000000000000FC
:1050000000000000000000000000000000000000A0
:1050100000000000000000000000010F181C1A171B
:1050200014100D09050304080D12161B1F22242459
:1050300024232259B5FFFF9E430604030304070BF4
:1050400011182029323C444B505356545046290CD9
:105050000000000000000000000000000000000050
:1050600000000000000000000000001A364B4F5105
:10507000514E4A443D352C241C150F0A07050405E2
:10508000070C73CBFFFE7A3720222221201F1B172B
:1050900014100C080502030507090C0E11140A036D
:1050A0000000000000000000000000000000000000
:1050B00000000000000000000000000000000000F0
:1050C00000040D13100E0B090704020307090D114C
:1050D00015191C1F212122212043A7FFFFB75509C5
:1050E00006050506080C11171E262F3840474C4FA1
:1050F00051504D452E0F0000000000000000000040
:10510000000000000000000000000000000000009F
:10511000001A35474B4D4C4A4640393129211A1463
:105120000F0C09070607090F8AD9FFFD66291F2002
:10513000201F1D1C191613100D0B09070705040469
:105140000405070A04010000000000000000000040
:10515000000000000000000000000000000000004F
:105160000000000000000001060906040404050612
:1051700007080A0C0E1114171A1C1E1F201F1F2EC1
:1051800099FFFFC9630B08070607090D11161C24B8
:105190002C343C42474B4D4C4A422E0F000000003D
:1051A00000000000000000000000000000000000FF
:1051B000000000000000001A344548494846423DBE
:1051C000362E261F19130F0C0A09090A0B119DE52B
:1051D000FDF557201D1D1D1C1B1918161312100F4D
:1051E0000E0E0D0C0A090807070602000000000059
:1051F00000000000000000000000000000000000AF
:105200000000000000000000000000000000040793
:105210000707080A0B0C0D0E0F0F11121416181A9F
:105220001B1D1D1D1D218DF9FFDA6F0C0B090909CE
:105230000A0D10151B222931383F44474949474080
:105240002E0F000000000000000000000000000021
:10525000000000000000000000000000001A3342BF
:10526000444645433F39332C241E18130F0D0B0BB6
:105270000B0C0D12ABEEFAEA4D1A1B1B1B1A191878
:10528000161514131314141415151413110F0C06FA
:10529000020000000000000000000000000000000C
:1052A00000000000000000000000000000000000FE
:1052B0000000000003080E10121414151514141326
:1052C000131414151718191A1B1B1B1A82F0FFE868
:1052D000790E0D0B0B0B0B0D10141920272E353BDF
:1052E00040444645443E2E0F0000000000000000F0
:1052F00000000000000000000000000000000000AE
:105300000000001A323F424342403B36302A231D00
:105310001713100E0D0D0D0E0F14B3F2F7DF4A190F
:105320001919181716161515151516181A1C1D1EFD
:105330001E1E1C1A140602000000000000000000DF
:10534000000000000000000000000000000000005D
:1053500000000000000000000000030B181B1D1ED1
:105360001F1E1D1B1A1716151515161616181919B6
:1053700019197DE8FFF181100F0D0D0D0D0E11149F
:10538000191F252C33383D414342413C2D0F00006D
:10539000000000000000000000000000000000000D
:1053A0000000000000000000001A313C3F3F3F3C7D
:1053B00038332E27211C1713100F0E0E0F10111645
:1053C000BAF7F5D54717171716151414141516172D
:1053D000191D20232527282827241C04000000004D
:1053E00000000000000000000000000000000000BD
:1053F00000000000000000000000000000000000AD
:10540000010C22252728282724221F1C19171615CE
:10541000141414151617171778E1FFF88712100FD8
:105420000F0E0E0F1114181D232A30353A3D3F3F41
:105430003E392D0F000000000000000000000000B9
:105440000000000000000000000000000000001A42
:10545000303A3C3C3B3935302B251F1A16131110BE
:10546000101011111218C2FBF2CD431615151312AC
:105470001212131517191D21262A2D303132312D04
:1054800021030000000000000000000000000000F8
:10549000000000000000000000000000000000000C
:1054A000000000000000000D292F3132312F2C297F
:1054B00025201C181614131212121415151673DB5E
:1054C000FFFD8B13121110100F101214171C21273F
:1054D0002D32373A3C3C3B372D0F000000000000D6
:1054E00000000000000000000000000000000000BC
:1054F00000000000001A2F3739393836322E2823A1
:105500001D191613121111111213141AC7FEF1C826
:1055100041141312111010111214171B20262B31D5
:1055200035383B3C3A342403000000000000000002
:10553000000000000000000000000000000000006B
:10554000000000000000000000000000000E2D37E9
:105550003B3B3A37342F2A241F1A1613121010100F
:10556000111314146FD7FFFE8D15131312111011A0
:105570001214171A1F252A2F3437393938352D0FB1
:10558000000000000000000000000000000000001B
:1055900000000000000000000000001A2F34353623
:1055A00035322F2B26221D1815141313131314151F
:1055B000161BC0F9F3D0421211100E0D0E0E10136F
:1055C000171D232A31373C41444544392403000048
:1055D00000000000000000000000000000000000CB
:1055E00000000000000000000000000000000000BB
:1055F0000000000E2E404545433F3B352F27211B21
:105600001612100E0D0E0F10111373DDFFFC8B160A
:105610001615141313131314161A1E23282D3033C2
:10562000353635322D0F000000000000000000006C
:10563000000000000000000000000000000000006A
:1056400000192D303233322F2C2924201B18151429
:10565000141414151617181CBAF5F6D944110F0DA9
:105660000C0B0C0D0F13181E252E363D43494D4EC5
:105670004E3F240601000000000000000000000072
:10568000000000000000000000000000000000001A
:10569000000000000000000002102E474E4E4C4754
:1056A000413B332B231C16120F0C0B0B0C0E10124C
:1056B00077E4FFF688181817151414141414161923
:1056C0001D21262A2D303233322F2B0E00000000F0
:1056D00000000000000000000000000000000000CA
:1056E00000000000000000182A2D2F2F2F2C292643
:1056F000221E1A1715141414151717191A1EB3F1B0
:10570000F8E345100D0B0A090A0B0E12181F283179
:105710003A434A5055585846290B030000000000F0
:105720000000000000000000000000000000000079
:10573000000000000000000000000000000005154F
:1057400033505857544F4840372E251D16110D0B16
:1057500009090A0C0E117BEBFFEE831A1A181716B3
:105760001514141416181B1F24272B2D2F2F2E2C25
:10577000290E0000000000000000000000000000F2
:105780000000000000000000000000000016272BB1
:105790002C2C2B2A2724201C191615141516171823
:1057A000191A1B1FADECFBED470E0B090707070984
:1057B0000D1218212A343E4951585D61615134134C
:1057C00005000000000000000000000000000000D4
:1057D00000000000000000000000000000000000C9
:1057E00000000000091E3F5A61605C564E453B3187
:1057F000271E16100B080707080A0C0F7FF3FFE49B
:105800007D1B1B1A19181615151415171A1D22259C
:10581000282A2C2C2B2A260D000000000000000056
:105820000000000000000000000000000000000078
:105830000000001424272929282624211E1A1715C0
:1058400014141517181A1B1C1C209DE2FEF9531482
:105850000A07050505070B1118212B36414C565E2A
:1058600064686A593B1A080000000000000000004C
:105870000000000000000000000000000000000028
:10588000000000000000000000000E26466369676B
:10589000625B52483D32271E150E090605050608B3
:1058A0000B188CFCFFD6741C1C1C1A191816151426
:1058B0001416181C1F22242729292826230C00002F
:1058C00000000000000000000000000000000000D8
:1058D00000000000000000000012212425252422E1
:1058E000211E1B18161414141617191B1D1E1E2119
:1058F0008BD6FFFD651E080503020304090F162061
:105900002A36434F59626A6F716143240C010000CB
:105910000000000000000000000000000000000087
:105920000000000000000000000000000000000275
:10593000142F4E6B706D6860564B3F32271D130D50
:10594000070402020406092899FFFFC66A1E1E1EEC
:105950001C1A19171514131517191C1F2123252597
:105960002423200A000000000000000000000000C6
:105970000000000000000000000000000000001017
:105980001D202121201F1D1B181614131314161877
:105990001A1D1F20202277CAFFFE7A2B0603020160
:1059A0000102060C141E293643505C666E75786938
:1059B0004E30140500000000000000000000000050
:1059C00000000000000000000000000000000000D7
:1059D0000000000001071E3A587277736C63584C40
:1059E0003F31251B110A050101010204083DA7FFF3
:1059F000FFB45E20201F1E1C191715141313151752
:105A0000191C1E1F2121201F1C090000000000007E
:105A10000000000000000000000000000000000086
:105A200000000000000E191C1C1C1C1B1A18161468
:105A30001312131416191C1F2021222364BDFFFE0C
:105A4000913A0501020303010309111C2834425055
:105A50005D6872797D745E3E230D000000000000D9
:105A60000000000000000000000000000000000036
:105A70000000000000000000000002132C49687ABA
:105A80007C766F65594B3D3024180E0703020403E2
:105A900002020754B6FFFF9E50222221201E1B182F
:105AA00016141212131516181A1C1C1C1C1B19088C
:105AB00000000000000000000000000000000000E6
:105AC00000000000000000000000000C161819196A
:105AD0001918171513121111111316191D1F212250
:105AE00023244CAEFFFEAF4D04010405050402065D
:105AF0000E182532404F5C69737C817D6E51361CD7
:105B0000080100000000000000000000000000008C
:105B10000000000000000000000000000000000382
:105B20000C253F5B76807F797064584A3B2D2015A9
:105B30000B040305060503020671CAFFFF853F2318
:105B40002322201E1C1815131111111214161718D8
:105B500019191917150700000000000000000000C7
:105B60000000000000000000000000000000000035
:105B7000000A121516161615141311100F0F111313
:105B8000161A1D2022242424369CFBFFD063040215
:105B90000507080703050B15212F3D4C5A68747E35
:105BA00084857C64492F1605010000000000000078
:105BB00000000000000000000000000000000000E5
:105BC00000000000020B1D37526C8386827A7063DE
:105BD0005647382A1D1108030508080704020693D2
:105BE000E0FEF96C30242523211F1C181512100F1C
:105BF00010101213141516161614110600000000CA
:105C00000000000000000000000000000000000094
:105C100000000000000000070E13131313121110F0
:105C20000F0E0E0E1013161A1D212325262524896A
:105C3000EFFFF17C090307090A0A070507111D2B6D
:105C400039485766737E868B89765C432A0F050137
:105C50000000000000000000000000000000000044
:105C6000000000000000000000010818334B657DB3
:105C70008E8A837A6F6152433426190E0405080A0E
:105C80000A0905050DB5F5FAE9572525262523202E
:105C90001C1815120F0E0E0E1010111313131311E2
:105CA0000D040000000000000000000000000000E3
:105CB00000000000000000000000000000020810CA
:105CC000101110100E0D0C0C0C0D0F1215191E22B8
:105CD000242628272572CDFFFC982803080B0D0DDC
:105CE0000A05040C1825344353626F7C858C8F8819
:105CF00071573E2915070000000000000000000059
:105D00000000000000000000000000000000010A88
:105D10001C304660798A908A82776B5D4E3E2F20D8
:105D2000140902070B0D0C0A061036CAFDEFBC4C15
:105D30002627282623201C1814100E0D0C0C0D0DE0
:105D40000F101011100E05010000000000000000EF
:105D50000000000000000000000000000000000043
:105D600000000000050D0E0E0E0D0C0B0A0A0B0CA8
:105D70000E1115191E222528292A275AA9FFFFB717
:105D80005503080C0F100D090507121F2D3D4D5C22
:105D90006A77828A9091816D56412C1A0C04010019
:105DA00000000000000000000000000000000000F3
:105DB000000002060F1F33485E7487908F887E7341
:105DC00066574738281A0E06050B0E0F0F0B061FD5
:105DD00071DCFFE28B402829292724211C1813108D
:105DE0000D0B0A0A0A0B0C0D0E0E0D0B0200000023
:105DF00000000000000000000000000000000000A3
:105E000000000000000000000000030A0B0B0B0A5A
:105E100009090808090A0D0F14191D2226292B2C1F
:105E20002A4384FBFED88606080D1012110D0904C2
:105E30000C182635455563717D878F948E816F5A76
:105E400046321F100803010000000000000000009F
:105E500000000000000002040A1525394D61768714
:105E600090928D84796D5F504030211309060A0F9E
:105E70001111100B0731B1ECFDD45C362A2B2A2806
:105E800025211C17130E0C0A090808090A0A0B0B16
:105E90000B080100000000000000000000000000EE
:105EA00000000000000000000000000000000000F2
:105EB0000308090909080707070707090B0D131845
:105EC0001D22272A2C2E2C2E61F0FBF8B80E0A0C6E
:105ED000111414120E0607101D2B3C4C5B697782BF
:105EE0008B9296928773604C392A180B040000003D
:105EF000000000000000000000000002060E1E2F3F
:105F00003F53667A8C959590887F72645646362703
:105F1000180B060910131413100B0A47EFFBF8C1F6
:105F2000312D2D2D2B2925201B16110C0A080707B2
:105F30000707070809090907010000000000000021
:105F40000000000000000000000000000000000051
:105F50000000000000000207070807060505050508
:105F60000506090C11161C21262A2D2F2E2D50B79F
:105F7000EDFDD2551B0C11151716120D070A142230
:105F8000314150606E7A848D9395948D7A6857452F
:105F900036281B0D06020000000000000000000370
:105FA0000812202C3B4B5D6E818F9695918A8176ED
:105FB000695B4B3C2C1D0F07090F14171614100AB0
:105FC0002E7EFBFEDA942D2E2F2F2C2925201A143D
:105FD0000F0B08060505050506070708070500005D
:105FE00000000000000000000000000000000000B1
:105FF000000000000000000000000000020506068E
:106000000605030303030304070A0E141A20262BB4
:106010002E30312F4179DCFEE8A4310C111619190C
:1060200017130B080B182635455563707C868E9325
:1060300098988E827360544635251B1513131313DD
:106040001313131313161E2B3B4B58677986929824
:1060500097928B83786C5E4F4030211307080E14A3
:10606000191A18140F0B57BAFFFDBA652E303130CC
:106070002D29241E18120D09060403030303040529
:1060800006060504000000000000000000000000FB
:106090000000000000000000000000000000000000
:1060A00000000103040404030201010101020508C8
:1060B0000C12181F252A2F3133323643C3F6FAE962
:1060C000511510171B1C1C18120A050D1B293848E6
:1060D0005765727D868E94989A958B7B7163514437
:1060E0003A34333333333333333333353E49566AFB
:1060F00074808F989A97928C837A6E60524333247F
:10610000160B030D14191D1C19140E1985EEFFF240
:10611000983E323332302E29231D16100B0704020D
:106120000101010203040404040300000000000054
:10613000000000000000000000000000000000005F
:106140000000000000000000000102020201010145
:10615000020302010205090F161D232A2F333535CC
:10616000343491D8FEFC903D0E161A1E1F1E1911D4
:106170000A030F1D2B3A495865717C858D939799B9
:1061800099978D7D6D645A545252525252525252C6
:1061900053555D6771849198999896918B83786D2A
:1061A0006153443526180B050C141B1E1F1D1913B3
:1061B0000D54B5FCFEC47233343534322E28211A06
:1061C000140D080401010203020101010202010091
:1061D00000000000000000000000000000000000BF
:1061E00000000000000000000000000000000000AF
:1061F000010101020304050505030202070D131A3C
:1062000022292F34363736345EB3FCFFD27019148E
:106210001A1E21221F19120908101E2C3A49576311
:106220006F7A838A9094979A97918A827A7573731A
:1062300073737373737373757C848C93989996934B
:106240008E8880776B5F52443627190B080C151B1C
:106250002022211D18151E9AE1FEFA8F503437377F
:1062600035322E261F18110B050202040505040302
:106270000202010100000000000000000000000018
:10628000000000000000000000000000000000000E
:1062900000000000000000010203050607080706D1
:1062A0000401040A10181F272E34373939373D8C62
:1062B000E2FFF9A84512181E222524201A130A0904
:1062C000101D2B394754616C777F868C9195989976
:1062D0009995908D8C8C8C8C8C8C8C8C8C8E9196D2
:1062E0009A9997948F8A847C73685D5042342619FA
:1062F0000C070D151D222424211C152358D1FBF554
:10630000D8653B383A3936322C241D150E07030266
:10631000050708080706040302010000000000004A
:10632000000000000000000000000000000000006D
:10633000000000000000000000000000020304054F
:1063400007090A0A0A0A080402060D141C252C3340
:10635000383B3C3A3664AEFDFFDF9514161C22270D
:106360002826231D140A040E1B283644505D68722B
:106370007A82888D919597999A9A9B9B9B9C9C9CDD
:106380009B9B9B9A9A989694908B8680786F655980
:106390004C3F3224160B030E171F24272725211AE2
:1063A000143FBEF0FEE3944D383B3C3A36312A228E
:1063B0001A110A040305090A0A0A0A080605040351
:1063C00001000000000000000000000000000000CC
:1063D00000000000000000000000000000000000BD
:1063E0000000030507080A0B0D0E0E0E0C0804042E
:1063F000081019212A32373B3E3E3B4575E5F9F737
:10640000CB5825192026292A28251E160E090D17D6
:1064100024323E4B56616B737B81868B8E919395B4
:106420009696979797979696959492908D89847F54
:106430007871685E53473A2D20130B0A10192026F5
:10644000292A28241E16357EEFFBF3C050403C3E1F
:106450003E3A352F271E160D060406090D0E0E0EA8
:106460000C0B0908060402000000000000000000F8
:10647000000000000000000000000000000000001C
:1064800000000000000000000205090B0C0E1011B6
:106490001312100D0906060B141D262F363B3F4024
:1064A0003E3C53A0E6FEECB24C211D24292C2C2BA3
:1064B000272019100C0D121F2C38444F59626B7293
:1064C000787E8286898B8D8E8E8F8F8F8E8D8C8B32
:1064D0008885817C7670685F564B4034271B0F0B94
:1064E0000D131C23282B2C2B27211B256EC4FFFEEC
:1064F000CE863A3D3F3F3E3A332C231A110904071A
:106500000A0E11121211100E0C0A080401000000EC
:10651000000000000000000000000000000000007B
:106520000000000000000000000000000000000566
:106530000B0D0F111315171615120F0906060F185C
:10654000222B333A3F41413E4357C0F1FEFA8A3F86
:106550001C20272C2E302E29241D130B0810192443
:10656000303C464F5960676E73777B7E80818383B2
:1065700083838281807D7A76726C655E564C423868
:106580002D20160D070E161F262B2E2F2E2B251F06
:106590001D51B1FAFFEB9D503C4041403E38302840
:1065A0001F150C06050B10131517161513110F0CDC
:1065B0000A030000000000000000000000000000CE
:1065C00000000000000000000000000000000000CB
:1065D0000000000000070D10121417191A1B1A17DB
:1065E000140E08020A131D2730373E424342403D35
:1065F0007FC9FFFFE384241C232A2F3232302D274A
:106600002018100809111C27313B444D545B61666A
:106610006A6D70717374747472716F6C69645F59B0
:10662000524A41382E23180D080A131B23292E32F3
:1066300032312E28201F2CB1EDFFFDAF683E4142C4
:1066400042403C352C231A1007030A1015181A1B58
:106650001A181614110F0C040000000000000000AE
:10666000000000000000000000000000000000002A
:106670000000000000000000000000040B121417CE
:106680001A1C1E1F1E1C19140E07060D17222B3371
:106690003B414344433F5193DBFEF8CB812520250A
:1066A0002C31333433302B251D15100C0C131C25C5
:1066B0002E373E454B5054585B5D5E5F5F5F5E5CBE
:1066C0005A57534E49433C342B2219110B0D1118C4
:1066D00020272D313434332F2A2221449FE1FBF22D
:1066E000CE744B404444423F3931281E130A0609F8
:1066F00010161A1D1F1E1D1C1916130F080200006C
:106700000000000000000000000000000000000089
:106710000000000000000000000000000000000079
:1067200000020812161A1D20212323211E1A140DFF
:106730000609101B262F373F434546433F64A2E915
:10674000FAF4CB6C3523262E32353636332F2A23F6
:106750001B130D0D0F131821282E34393D414446CB
:1067600048484848474543403C37332C251E1611BE
:106770000E0D0E161E262C3134363634312B2422C3
:10678000478CE8FAF5D18A5040444645413C352CC7
:1067900022180D07090F161C20222322211F1C1965
:1067A000140F0401000000000000000000000000C1
:1067B00000000000000000000000000000000000D9
:1067C00000000000000000000510171C20232527F2
:1067D000272624201A140B070A141F2A333B41458D
:1067E000474744425FBBEAFCF7DB682F23272E3381
:1067F00037393837343029231C140D08070D131886
:106800001D2125292C2E303030302F2D2B282420EF
:106810001B16110B06090F171F252C313538393877
:1068200036322C26223690E4FFFBDA9C4243454761
:1068300047443F3930261C1107080E161D21252715
:10684000272624221F1B150C010000000000000059
:106850000000000000000000000000000000000038
:10686000000000000000000000000000000002081E
:10687000181E2225282A2B2B2926211A120A060C3B
:1068800017222D363E4448494845495AB6EBFDF893
:10689000D1823220272E34383A3B3A3835302B25F6
:1068A0001E1914100C0907090E11131617171817C3
:1068B000161513100C09070A0E11151A20272D3270
:1068C00036393B3A3937322C24263DA5DFFAFEE132
:1068D00097544347494947423B332A1F140A050D41
:1068E000151C23272A2B2B2A2724211D12060000E2
:1068F0000000000000000000000000000000000098
:106900000000000000000000000000000000000087
:10691000000000000104121C23272B2E2F2F2E2BEA
:1069200027211A110905101B26303940464A4A49C9
:10693000474574B3EBFEF6CC8C432A262E34373A07
:106940003C3C3B3936322D28231E191511101010EE
:1069500010101010101010101010101012161B2014
:10696000252A2F33373A3B3C3C3936322B23315BD7
:10697000A4E1F9F8E29A6345474A4A49453F362D72
:1069800023170C060A141C23292D2F2F2F2D2A26FE
:1069900022190D02000000000000000000000000AD
:1069A00000000000000000000000000000000000E7
:1069B0000000000000000000000000010B19242965
:1069C0002D30323333312D2821190F0409131E299C
:1069D000333C43494B4C4B484777BAEAFAFBDF8BD1
:1069E0005433272D32373B3D3E3E3D3B3835322E2A
:1069F0002B2724201E1C1A181817171718191B1CD0
:106A00001E2125282C2F3336393C3E3E3E3C3A355C
:106A1000302B273965A7F7FDF5DAA75E48494C4CBE
:106A20004B47413A30251B0F0708131C232A2F32EE
:106A3000333332302C2723140700000000000000FD
:106A40000000000000000000000000000000000046
:106A50000000000000000000000000000000000036
:106A600000000416262A2F3235373735322F2820DA
:106A7000170D040915212C373F464B4E4E4D494703
:106A800060B6ECFFFFFEBA6420222A31363B3E3F5F
:106A90004040403F3C3A38363331302E2E2C2B2BA1
:106AA0002B2B2B2D2E2F30323436393B3D3F40409F
:106AB000403F3D39342F27212784D2FEFFFFDA994A
:106AC00046474B4D4F4D49443D33291D1105071095
:106AD0001B232A303436373634312D29240F030056
:106AE00000000000000000000000000000000000A6
:106AF0000000000000000000000000000000000096
:106B00000000000000000000010C1C2B303437395D
:106B10003A3A38342F2820160C080C18232F394203
:106B2000484C4F504F4C4F64A0D8FDFFECC7924AE1
:106B30002C252C33373B3E4041414140403F3D3CBA
:106B40003B3B3A393938383939393A3B3C3C3E3F9E
:106B500040414141413F3D3A36302A233563A9D770
:106B6000F2FFFAC68B5D494D4F504F4B463F362BD7
:106B7000201408090F19232A3136393A3A383632A7
:106B80002E26160701000000000000000000000093
:106B900000000000000000000000000000000000F5
:106BA00000000000000000000000000000000005E0
:106BB00011242E34383B3D3D3C3A352F281F150C0F
:106BC000080E1A26313B43494F5252514E4969969D
:106BD000C8F1FCF6DCA3744B2E292E33383C3E4022
:106BE0004242434343434342424242424142424281
:106BF000424343434343434241403D3B37322C2BC6
:106C0000335884B6EBFBF9E3BA855E4B4F515251D2
:106C10004E4740372D22160C070F19222B31373BD8
:106C20003D3D3C3A37332B1E0A03000000000000B4
:106C30000000000000000000000000000000000054
:106C40000000000000000000000000000000000044
:106C500000000000000006162A33393C3F40403F48
:106C60003B3630291E140B06101B27323C454C5175
:106C7000545554504B567CC9E7F8FFFFD69654390B
:106C8000302E2F34383B3E4042434445454646472C
:106C900047474747474646464545444341403E3AB5
:106CA00036322E2E334262B1E5FFFEF5DEAE654F81
:106CB0004D515455534F4A42382E23170D070C1788
:106CC000222B32383C3F40403E3B373123110100FC
:106CD00000000000000000000000000000000000B4
:106CE00000000000000000000000000000000000A4
:106CF00000000000000000000000000001051E2F41
:106D0000393D40424342403C3730281E14090810A8
:106D10001D28333D464D525557565351535E9FD80B
:106D2000FEFFFAF0D9A3623521272D32363A3C3FD7
:106D3000414243444546464646464646454443420C
:106D4000403E3C3835302B25233F78B5E8F4FBFE38
:106D5000FAC7885A505154565755514B443A30242B
:106D6000190C090D17222B333A3E414243413F3C57
:106D7000372A15020000000000000000000000009B
:106D80000000000000000000000000000000000003
:106D900000000000000000000000000000000000F3
:106DA000000000010F24353C4043454544423E3835
:106DB00031281E140B0B111D29343E474E535658D3
:106DC000585653506888AEDDF6FFF8E1C4A5845EDE
:106DD000402F292D313437393B3D3E3F4040404024
:106DE000403F3E3C3A393633302C29314A6B90B023
:106DF000CEE9FEFFEECD9F7C605154565858565256
:106E00004B443B3125190D090E17222C343A4043CF
:106E1000454545423F3A321C0A0000000000000090
:106E20000000000000000000000000000000000062
:106E30000000000000000000000000000000000052
:106E40000000000000000000000005162A393F4342
:106E50004648484744403A32291F140C0A111E295B
:106E6000343E474E5357595A585551566C9EC2DDC1
:106E7000F0FDFFF2D7AC896D594D433A332E2F31D7
:106E8000333435353635353433302F30353D475191
:106E90005E7494BBE4FAFFF9EAD6B68D5F5252569F
:106EA000595A5956524C443B3126190F080E182393
:106EB0002D353C414548484746423D34250F0300A7
:106EC00000000000000000000000000000000000C2
:106ED00000000000000000000000000000000000B2
:106EE00000000000000000000000000000000000A2
:106EF000000819333D4347494B4B4946423B342B2D
:106F000020150B06111D28343E474E54585B5C5B20
:106F10005956514B6695CAF2F9FCFEFFFFEECDA122
:106F20007D5D412F2C2D2E2F2F2F2F2F2F2F2D2CEE
:106F30002C35496689B0DAF8FFFFFEFBF8E4BB8127
:106F40005C4D53575A5B5C5A57524C443B302519A1
:106F50000D070D19242E373E43474A4C4B484641F6
:106F60003A2B1004000000000000000000000000A8
:106F70000000000000000000000000000000000011
:106F80000000000000000000000000000000000001
:106F900000000000000000020C203741464A4D4E20
:106FA0004D4C49443D362C22170C080F1B27323C10
:106FB000454D53585B5D5D5B595559606D85AED548
:106FC000F4FEFFFBF3E9E0D9D1C9B8A89C9289850A
:106FD00084858C95A0ADBECCD4DBE3ECF6FDFFFB45
:106FE000EEC99F7D665D57565A5C5D5C5A56514AA4
:106FF00042392E23170A09101A252F3840464A4DC8
:107000004E4E4C4945402F1904010000000000007D
:107010000000000000000000000000000000000070
:107020000000000000000000000000000000000060
:107030000000000000000000000000000000040E3E
:10704000283A454A4D5051514F4B463F382E24184F
:107050000E0A0E18242F3A434B51575B5D5E5E5C5F
:107060005A56555D748CA3B9CEE1F2FEFFFFFEFBCC
:10707000F1E7DED8D2CFCFCFD4DAE1EAF5FCFFFFDB
:10708000FFF9EDDCC7B19B846C5A54585A5D5E5EC3
:107090005C59554F4840372C20150B0A111C2832DB
:1070A0003A42484D4F51504F4C484335200A010059
:1070B00000000000000000000000000000000000D0
:1070C00000000000000000000000000000000000C0
:1070D00000000000000000000000000000000000B0
:1070E000000000000001172F41494D5153555452E3
:1070F0004E49423A31261B10080D16212C363F48C6
:107100004F55595D5F605F5E5C595552566D8DAA53
:10711000C3D8DFE5EAEEF3F6F9FBFCFEFFFDFCFA6F
:10712000F9F5F1ECE8E3DDD1BBA282665053565A83
:107130005C5E5F5F5F5C58534D453C33291D130B0C
:1071400007141F2A353D444A5052545452504C465D
:107150003E261000000000000000000000000000BB
:10716000000000000000000000000000000000001F
:10717000000000000000000000000000000000000F
:10718000000000000000000000000000081E36465D
:107190004C515457575755514C453D342A1F1409EB
:1071A00009111D28323C454C53585C5F6061616099
:1071B0005E5C5A58575657617A91A4B6CADBE7ED20
:1071C000F3F9FEF7F1EBE3D6C3B09E8A705E555734
:1071D00058595A5D5F606161605E5B57514A423940
:1071E0002F24190D090C18232E3740484E5356579B
:1071F0005756534F4A41301505000000000000006B
:10720000000000000000000000000000000000007E
:10721000000000000000000000000000000000006E
:10722000000000000000000000000000000000005E
:107230000000020D1E37464E5458595B5A58544FA1
:107240004941382E2318100B0B17222D363F474E7D
:1072500054595C5E616261615F5E5C59585A616855
:107260006D73797D8183858788868482807C777140
:107270006B665F59585A5C5E60616161605E5B5726
:10728000524C453C33291E13080C131C27323B4437
:107290004B5155595B5A5956524C402F1608020013
:1072A00000000000000000000000000000000000DE
:1072B00000000000000000000000000000000000CE
:1072C00000000000000000000000000000000000BE
:1072D000000000000000000000030D20374650575A
:1072E0005A5D5E5D5B58534D453D33281D120B0EB4
:1072F000131C26303941494F54595C5F6161626209
:1073000061605F5E5D5B59595756555554545454EE
:107310005555555758595A5C5D5F606161626261AD
:10732000605E5B57534D473F362D2318110D0A16EB
:10733000212C3640484F55595C5E5E5C59554E4293
:107340002F1A0601000000000000000000000000ED
:10735000000000000000000000000000000000002D
:10736000000000000000000000000000000000001D
:10737000000000000000000000000000000000000D
:107380000209223849555A5E6061615F5C57514A73
:1073900042392E24190E090C151E28323A434A4F41
:1073A00054595C5F606263636463626261616160DF
:1073B000605F5F5F5F5F5F5F6060616161626363C9
:1073C00064636361605E5B57524E4740372F251BF5
:1073D00012090A111C27323C454C53595D6061610A
:1073E000605D585145311A060000000000000000A1
:1073F000000000000000000000000000000000008D
:10740000000000000000000000000000000000007C
:10741000000000000000000000000000000000006C
:1074200000000000000000020C21394B565D616332
:10743000656463605B5650483F352B21170F0A0B7C
:10744000162028313A41484E52565A5D5F606263B9
:1074500063646464646465656565656565656564E4
:1074600064646364636261605E5C5955514C453F7E
:10747000372E251C120B0A111A242E38424A525854
:107480005D6163656463605B524533190901000007
:1074900000000000000000000000000000000000EC
:1074A00000000000000000000000000000000000DC
:1074B00000000000000000000000000000000000CC
:1074C0000000000000000000000000000000030FAA
:1074D000223A4A5760636667676664605B554D454C
:1074E0003C33291E150F0E10151E2730373E444918
:1074F0004E5356585B5D5E606162636364646464AE
:107500006564646464636262605F5E5C5A5855518E
:107510004D47423C352D241B120F0E1117222C36DD
:107520003F4850575D616567686765625E534532E5
:107530001A0A020000000000000000000000000025
:10754000000000000000000000000000000000003B
:10755000000000000000000000000000000000002B
:10756000000000000000000000000000000000001B
:107570000000000000030E24394B596265686A6BF5
:107580006A6864605A544C443B32281D130D0C1039
:10759000151C242B32393F44494C505255575A5BE5
:1075A0005C5E5E5F606060605F5F5E5D5C5B595605
:1075B00054514F4B47433D3730292219130F0B0FBE
:1075C00017212B353E474F565C6166696B6B6A68C5
:1075D000645F5646321D07020000000000000000F4
:1075E000000000000000000000000000000000009B
:1075F000000000000000000000000000000000008B
:10760000000000000000000000000000000000007A
:10761000000000000000000000000000020A233803
:107620004B5F64686C6E6F6E6C6A66615B544C4451
:107630003B32291F160C04060F161E262C32373C2F
:107640004144474A4D505254555656575757565530
:107650005553514F4C4946433F3B36302A231B1468
:107660000C03070F19232C353F474F575D62676B9B
:107670006D6F6E6D6B67625845311A070000000030
:1076800000000000000000000000000000000000FA
:1076900000000000000000000000000000000000EA
:1076A00000000000000000000000000000000000DA
:1076B00000000000000000000000000000000000CA
:1076C000000001030D1D314454616A6D70717171C8
:1076D0006E6B67625C554D453D342B221A14100DBC
:1076E0000B0E141B21272B3034373B3E40424445C0
:1076F0004646464646454342403D3A36322E2A25C6
:107700001F19120B0C0E12161D252F37404850570B
:107710005E64696C6F7171716F6C695D4F3E2A17A1
:10772000090200000000000000000000000000004E
:107730000000000000000000000000000000000049
:107740000000000000000000000000000000000039
