:020000040800F2
:100000000000022083000008810000088100000831
:100010008100000881000008810000080000000045
:100020000000000000000000000000008100000847
:100030008100000800000000810000088100000825
:10004000810000088100000881000008810000088C
:10005000810000088100000881000008810000087C
:10006000810000088100000881000008810000086C
:10007000810000088100000881000008810000085C
:10008000FEE726482649274A914205D050F8043B0E
:1000900041F8043B9142F9D1234824494FF0000232
:1000A000884203D040F8042B8842FBD100F040F88E
:1000B000FEE7034B1A681206FCD55860704700BF74
:1000C0000010014008B5411E11F8010F00B908BD2C
:1000D000FFF7EFFFF8E7054B9A689107FCD5187317
:1000E0009A68D207FCD5187B704700BF00300140EA
:1000F00010B5094C4FF08043C4F818340520FFF7C1
:10010000EAFFFF20FFF7E7FFC307FAD44FF480436D
:10011000C4F8183410BD00BF0000024090A50708C5
:10012000000000200000002000000020000000204F
:100130002DE9F04FA04EA14CD6F83038A048A14D83
:10014000A14F43F0010385B0C6F83038D6F84438E3
:1001500043F01003C6F84438236823F47013236077
:10016000236843F420132360636A23F47F6343F41A
:10017000EE636362A36843F42013A360934B8B2266
:100180009A6042F20C02DA60FFF79CFFD6F8303832
:100190008F4843F04203C6F83038D6F8443843F469
:1001A0008053C6F84438D4F8003423F0405323F485
:1001B0007C63C4F80034D4F8003443F0805343F433
:1001C0002863C4F80034D4F820346FF31733C4F82C
:1001D0002034D4F8203443F4AA0343F4A043C4F8F1
:1001E0002034D4F80C3443F08053C4F80C34D5F8E0
:1001F0000C3843F48043C5F80C38D5F8003823F4A4
:10020000404343F48043C5F800384FF48043C4F8BA
:1002100018348023C5F818386E4B40F24F321A60FC
:10022000D6F8303843F02003C6F83038D5F800341B
:10023000694E23F4402343F48023C5F800344FF47F
:100240000073C5F81834FFF73DFF1C2127FA01F3AE
:10025000DCB2C3F3031304F00F04F05CFFF729FFD3
:100260000439305DFFF725FF0B1DEFD15B48FFF729
:1002700029FF4FF03033019343F23053ADF808308B
:10028000062101AC0139605CFFF713FF0029F9D1A9
:100290005348544C494EFFF715FF5348FFF712FFE0
:1002A0004FF00073C5F818344FF080484FF4804782
:1002B000C6F818840620FFF70EFFC6F81874202031
:1002C000C6F81884FFF707FFC4F30740FFF703FFE2
:1002D000C4F30720FFF7FFFE0020FFF7FCFEC6F87F
:1002E0001874FFF705FF414B04F580549C42DDD1A3
:1002F0004FF40073C5F818343D48DFF804913D4CC5
:10030000DFF8C4802D4FFFF7DDFE4FF00073C5F816
:1003100018344FF0804B5FFA88FACAF58076A6420F
:10032000C7F818B44FF0060028BF2646FFF7D3FEE3
:100330004FF48043C7F818340220C7F818B4FFF709
:10034000CAFEC8F30740FFF7C6FEC8F30720FFF751
:10035000C2FE5046FFF7BFFECA46B144CA4522D18D
:100360004FF48043C7F81834FFF7C2FEA41BB04413
:10037000D1D14FF400762048C5F81864FFF7A2FEEB
:100380001E4A4FF00071C5F818140094009B934268
:100390000EDDC5F818640194019B9342F3DC019BC8
:1003A00001330193F8E71AF8010BFFF794FED5E744
:1003B000009B01330093E9E7003002400000024057
:1003C0000404000800100240E067350000100140FE
:1003D0001D040008003001405F0400082F040008DD
:1003E00042040008006035003604000800103D009B
:1003F0004504000820A10700540400081FA10700BD
:10040000700400080D0A3E3E3E20424154434820FD
:10041000464C41534845522076320D0A0020204276
:1004200061746368206F66667365743D3078002080
:1004300073697A653D00202045726173696E672E8D
:100440002E2E0D0A00202057726974696E672E2EB9
:100450002E0D0A003E3E3E20444F4E450D0A003010
:10046000313233343536373839414243444546001A
:10047000FFFFFFFFFFFFFFFFFFFFFFFFFFFFFFFF8C
:10048000FFFFFFFFFFFFFFFFFFFFFFFFFFFFFFFF7C
:10049000FFFFFFFFFFFFFFFFFFFFFFFFFFFFFFFF6C
:1004A000FFFFFFFFFFFFFFFFFFFFFFFFFFFFFFFF5C
:1004B000FFFFFFFFFFFFFFFFFFFFFFFFFFFFFFFF4C
:1004C000FFFFFFFFFFFFFFF3C36F250000000000E9
:1004D00000000000000000000000001A61BAEFFDFB
:1004E000FFFFFFFFFFFFFFFFFFFFFFFFFFFFFFFF1C
:1004F000FFFFFFFFFFFFFFFFFFFFFFFFFFFFFFFF0C
:10050000FFFFFFFFFFFFFFFFFFFFFFFFFFFFFFFFFB
:10051000FFFFFFFFFFFFFFFFFFFFFFFFFFFFFFFFEB
:10052000FFFFFFFFFFFFFFFFFFFFFFFFFFFFFFFFDB
:10053000FFFFFFFFFFFFFFFFFFFFFFFFFFFFFFFFCB
:10054000FFFFFFFFFFFFFFFFFFFFFFFFFFFFFFFFBB
:10055000FFFFFFFFFFFFFFFFFFFFFFFFFFFFFFFFAB
:10056000FFFFFFFFFFFFFFFFFFFFFFFFFFFFFFFF9B
:10057000FFFFFFFFFFFFFFFFFFFFFFFFFFFFE79C06
:100580003E0C000000000000000000000000000021
:1005900000000A328CDBF9FFFFFFFFFFFFFFFFFFC8
:1005A000FFFFFFFFFFFFFFFFFFFFFFFFFFFFFFFF5B
:1005B000FFFFFFFFFFFFFFFFFFFFFFFFFFFFFFFF4B
:1005C000FFFFFFFFFFFFFFFFFFFFFFFFFFFFFFFF3B
:1005D000FFFFFFFFFFFFFFFFFFFFFFFFFFFFFFFF2B
:1005E000FFFFFFFFFFFFFFFFFFFFFFFFFFFFFFFF1B
:1005F000FFFFFFFFFFFFFFFFFFFFFFFFFFFFFFFF0B
:10060000FFFFFFFFFFFFFFFFFFFFFFFFFFFFFFFFFA
:10061000FFFFFFFFFFFFFFFFFFFFFFFFFFFFFFFFEA
:10062000FFFFFFFFFFFFFFFFFFFFFFFFFFFFFFFFDA
:10063000FFFFFFFDF4C87020010000000000000073
:1006400000000000000000000001125FBCEEFDFF92
:10065000FFFFFFFFFFFFFFFFFFFFFFFFFFFFFFFFAA
:10066000FFFFFFFFFFFFFFFFFFFFFFFFFFFFFFFF9A
:10067000FFFFFFFFFFFFFFFFFFFFFFFFFFFFFFFF8A
:10068000FFFFFFFFFFFFFFFFFFFFFFFFFFFFFFFF7A
:10069000FFFFFFFFFFFFFFFFFFFFFFFFFFFFFFFF6A
:1006A000FFFFFFFFFFFFFFFFFFFFFFFFFFFFFFFF5A
:1006B000FFFFFFFFFFFFFFFFFFFFFFFFFFFFFFFF4A
:1006C000FFFFFFFFFFFFFFFFFFFFFFFFFFFFFFFF3A
:1006D000FFFFFFFFFFFFFFFFFFFFFFFFFFFFFFFF2A
:1006E000FFFFFFFFFFFFFFFFFFFFFAE29C410F004C
:1006F00000000000000000000000000000000000FA
:100700000008358BD5F6FFFFFFFFFFFFFFFFFFFF60
:10071000FFFFFFFFFFFFFFFFFFFFFFFFFFFFFFFFE9
:10072000FFFFFFFFFFFFFFFFFFFFFFFFFFFFFFFFD9
:10073000FFFFFFFFFFFFFFFFFFFFFFFFFFFFFFFFC9
:10074000FFFFFFFFFFFFFFFFFFFFFFFFFFFFFFFFB9
:10075000FFFFFFFFFFFFFFFFFFFFFFFFFFFFFFFFA9
:10076000FFFFFFFFFFFFFFFFFFFFFFFFFFFFFFFF99
:10077000FFFFFFFFFFFFFFFFFFFFFFFFFFFFFFFF89
:10078000FFFFFFFFFFFFFFFFFFFFFFFFFFFFFFFF79
:10079000FFFFFFFFFFFFFFFFFFFFFFFFFFFFFFFF69
:1007A000FDF2C86F18020000000000000000000009
:1007B0000000000000000000020B57BBF0FFFFFF2D
:1007C000FFFFFFFFFFFFFFFFFFFFFFFFFFFFFFFF39
:1007D000FFFFFFFFFFFFFFFFFFFFFFFFFFFFFFFF29
:1007E000FFFFFFFFFFFFFFFFFFFFFFFFFFFFFFFF19
:1007F000FFFFFFFFFFFFFFFFFFFFFFFFFFFFFFFF09
:10080000FFFFFFFFFFFFFFFFFFFFFFFFFFFFFFFFF8
:10081000FFFFFFFFFFFFFFFFFFFFFFFFFFFFFFFFE8
:10082000FFFFFFFFFFFFFFFFFFFFFFFFFFFFFFFFD8
:10083000FFFFFFFFFFFFFFFFFFFFFFFFFFFFFFFFC8
:10084000FFFFFFFFFFFFFFFFFFFFFFFFFFFFFFFFB8
:10085000FFFFFFFFFFFFFFF4CF8C3D09000000000A
:100860000000000000000000000000000000000088
:1008700000348ED5F7FFFFFFFFFFFFFFFFFFFFFFF5
:10088000FFFFFFFFFFFFFFFFFFFFFFFFFFFFFFFF78
:10089000FFFFFFFFFFFFFFFFFFFFFFFFFFFFFFFF68
:1008A000FFFFFFFFFFFFFFFFFFFFFFFFFFFFFFFF58
:1008B000FFFFFFFFFFFFFFFFFFFFFFFFFFFFFFFF48
:1008C000FFFFFFFFFFFFFFFFFFFFFFFFFFFFFFFF38
:1008D000FFFFFFFFFFFFFFFFFFFFFFFFFFFFFFFF28
:1008E000FFFFFFFFFFFFFFFFFFFFFFFFFFFFFFFF18
:1008F000FFFFFFFFFFFFFFFFFFFFFFFFFFFFFFFF08
:10090000FFFFFFFFFFFFFFFFFFFFFFFFFFF8D8978D
:100910004914030000000000000000000000000077
:100920000000000000000000165CB4ECFFFFFFFFB9
:10093000FFFFFFFFFFFFFFFFFFFFFFFFFFFFFFFFC7
:10094000FFFFFFFFFFFFFFFFFFFFFFFFFFFFFFFFB7
:10095000FFFFFFFFFFFFFFFFFFFFFFFFFFFFFFFFA7
:10096000FFFFFFFFFFFFFFFFFFFFFFFFFFFFFFFF97
:10097000FFFFFFFFFFFFFFFFFFFFFFFFFFFFFFFF87
:10098000FFFFFFFFFFFFFFFFFFFFFFFFFFFFFFFF77
:10099000FFFFFFFFFFFFFFFFFFFFFFFFFFFFFFFF67
:1009A000FFFFFFFFFFFFFFFFFFFFFFFFFFFFFFFF57
:1009B000FFFFFFFFFFFFFFFFFFFFFFFFFFFFFFFF47
:1009C000FFFFFFFFEEB7601B030000000000000008
:1009D0000000000000000000000000000000000512
:1009E0003489D0F5FFFFFFFFFFFFFFFFFFFFFFFF91
:1009F000FFFFFFFFFFFFFFFFFFFFFFFFFFFFFFFF07
:100A0000FFFFFFFFFFFFFFFFFFFFFFFFFFFFFFFFF6
:100A1000FFFFFFFFFFFFFFFFFFFFFFFFFFFFFFFFE6
:100A2000FFFFFFFFFFFFFFFFFFFFFFFFFFFFFFFFD6
:100A3000FFFFFFFFFFFFFFFFFFFFFFFFFFFFFFFFC6
:100A4000FFFFFFFFFFFFFFFFFFFFFFFFFFFFFFFFB6
:100A5000FFFFFFFFFFFFFFFFFFFFFFFFFFFFFFFFA6
:100A6000FFFFFFFFFFFFFFFFFFFFFFFFFFFFFFFF96
:100A7000FFFFFFFFFFFFFFFFFFFFF5D28D370500F0
:100A80000000000000000000000000000000000066
:100A90000000000000000019559CD9FBFFFFFFFF7C
:100AA000FFFFFFFFFFFFFFFFFFFFFFFFFFFFFFFF56
:100AB000FFFFFFFFFFFFFFFFFFFFFFFFFFFFFFFF46
:100AC000FFFFFFFFFFFFFFFFFFFFFFFFFFFFFFFF36
:100AD000FFFFFFFFFFFFFFFFFFFFFFFFFFFFFFFF26
:100AE000FFFFFFFFFFFFFFFFFFFFFFFFFFFFFFFF16
:100AF000FFFFFFFFFFFFFFFFFFFFFFFFFFFFFFFF06
:100B0000FFFFFFFFFFFFFFFFFFFFFFFFFFFFFFFFF5
:100B1000FFFFFFFFFFFFFFFFFFFFFFFFFFFFFFFFE5
:100B2000FFFFFFFFFFFFFFFFFFFFFFFFFFFFFFFFD5
:100B3000FBDB9F581B0000000000000000000000CD
:100B4000000000000000000000000000000007237B
:100B50005EACEBFDFFFFFFFFFFFFFFFFFFFFFFFFAF
:100B6000FFFFFFFFFFFFFFFFFFFFFFFFFFFFFFFF95
:100B7000FFFFFFFFFFFFFFFFFFFFFFFFFFFFFFFF85
:100B8000FFFFFFFFFFFFFFFFFFFFFFFFFFFFFFFF75
:100B9000FFFFFFFFFFFFFFFFFFFFFFFFFFFFFFFF65
:100BA000FFFFFFFFFFFFFFFFFFFFFFFFFFFFFFFF55
:100BB000FFFFFFFFFFFFFFFFFFFFFFFFFFFFFFFF45
:100BC000FFFFFFFFFFFFFFFFFFFFFFFFFFFFFFFF35
:100BD000FFFFFFFFFFFFFFFFFFFFFFFFFFFFFFFF25
:100BE000FFFFFFFFFFFFFEECB061250700000000E4
:100BF00000000000000000000000000000000000F5
:100C0000000000000000082B7BD6FCFFFFFFFFFF69
:100C1000FFFFFFFFFFFFFFFFFFFFFFFFFFFFFFFFE4
:100C2000FFFFFFFFFFFFFFFFFFFFFFFFFFFFFFFFD4
:100C3000FFFFFFFFFFFFFFFFFFFFFFFFFFFFFFFFC4
:100C4000FFFFFFFFFFFFFFFFFFFFFFFFFFFFFFFFB4
:100C5000FFFFFFFFFFFFFFFFFFFFFFFFFFFFFFFFA4
:100C6000FFFFFFFFFFFFFFFFFFFFFFFFFFFFFFFF94
:100C7000FFFFFFFFFFFFFFFFFFFFFFFFFFFFFFFF84
:100C8000FFFFFFFFFFFFFFFFFFFFFFFFFFFFFFFF74
:100C9000FFFFFFFFFFFFFFFFFFFFFFFFFFFCD8800D
:100CA0002E0800000000000000000000000000000E
:100CB0000000000000000000000000000001114FD3
:100CC000AAE5FAFFFFFFFFFFFFFFFFFFFFFFFFFFA8
:100CD000FFFFFFFFFFFFFFFFFFFFFFFFFFFFFFFF24
:100CE000FFFFFFFFFFFFFFFFFFFFFFFFFFFFFFFF14
:100CF000FFFFFFFFFFFFFFFFFFFFFFFFFFFFFFFF04
:100D0000FFFFFFFFFFFFFFFFFFFFFFFFFFFFFFFFF3
:100D1000FFFFFFFFFFFFFFFFFFFFFFFFFFFFFFFFE3
:100D2000FFFFFFFFFFFFFFFFFFFFFFFFFFFFFFFFD3
:100D3000FFFFFFFFFFFFFFFFFFFFFFFFFFFFFFFFC3
:100D4000FFFFFFFFFFFFFFFFFFFFFFFFFFFFFFFFB3
:100D5000FFFFFFFAE6AD53130100000000000000A2
:100D60000000000000000000000000000000000083
:100D70000000000000082868B2E7FBFFFFFFFFFF4C
:100D8000FFFFFFFFFFFFFFFFFFFFFFFFFFFFFFFF73
:100D9000FFFFFFFFFFFFFFFFFFFFFFFFFFFFFFFF63
:100DA000FFFFFFFFFFFFFFFFFFFFFFFFFFFFFFFF53
:100DB000FFFFFFFFFFFFFFFFFFFFFFFFFFFFFFFF43
:100DC000FFFFFFFFFFFFFFFFFFFFFFFFFFFFFFFF33
:100DD000FFFFFFFFFFFFFFFFFFFFFFFFFFFFFFFF23
:100DE000FFFFFFFFFFFFFFFFFFFFFFFFFFFFFFFF13
:100DF000FFFFFFFFFFFFFFFFFFFFFFFFFFFFFFFF03
:100E0000FFFFFFFFFFFFFFFFFFFBE8B56B2B0800B5
:100E100000000000000000000000000000000000D2
:100E2000000000000000000000000000020D2F750F
:100E3000C8F2FFFFFFFFFFFFFFFFFFFFFFFFFFFF06
:100E4000FFFFFFFFFFFFFFFFFFFFFFFFFFFFFFFFB2
:100E5000FFFFFFFFFFFFFFFFFFFFFFFFFFFFFFFFA2
:100E6000FFFFFFFFFFFFFFFFFFFFFFFFFFFFFFFF92
:100E7000FFFFFFFFFFFFFFFFFFFFFFFFFFFFFFFF82
:100E8000FFFFFFFFFFFFFFFFFFFFFFFFFFFFFFFF72
:100E9000FFFFFFFFFFFFFFFFFFFFFFFFFFFFFFFF62
:100EA000FFFFFFFFFFFFFFFFFFFFFFFFFFFFFFFF52
:100EB000FFFFFFFFFFFFFFFFFFFFFFFFFFFFFFFF42
:100EC000F3CA79310E0200000000000000000000AB
:100ED0000000000000000000000000000000000012
:100EE00000000000010C3EA2E2FCFFFFFFFFFFFF3D
:100EF000FFFFFFFFFFFFFFFFFFFFFFFFFFFFFFFF02
:100F0000FFFFFFFFFFFFFFFFFFFFFFFFFFFFFFFFF1
:100F1000FFFFFFFFFFFFFFFFFFFFFFFFFFFFFFFFE1
:100F2000FFFFFFFFFFFFFFFFFFFFFFFFFFFFFFFFD1
:100F3000FFFFFFFFFFFFFFFFFFFFFFFFFFFFFFFFC1
:100F4000FFFFFFFFFFFFFFFFFFFFFFFFFFFFFFFFB1
:100F5000FFFFFFFFFFFFFFFFFFFFFFFFFFFFFFFFA1
:100F6000FFFFFFFFFFFFFFFFFFFFFFFFFFFFFFFF91
:100F7000FFFFFFFFFFFFFCE3A5420D0100000000A3
:100F80000000000000000000000000000000000061
:100F9000000000000000000000000000001B71BD08
:100FA000EBFEFFFFFFFFFFFFFFFFFFFFFFFFFFFF66
:100FB000FFFFFFFFFFFFFFFFFFFFFFFFFFFFFFFF41
:100FC000FFFFFFFFFFFFFFFFFFFFFFFFFFFFFFFF31
:100FD000FFFFFFFFFFFFFFFFFFFFFFFFFFFFFFFF21
:100FE000FFFFFFFFFFFFFFFFFFFFFFFFFFFFFFFF11
:100FF000FFFFFFFFFFFFFFFFFFFFFFFFFFFFFFFF01
:10100000FFFFFFFFFFFFFFFFFFFFFFFFFFFFFFFFF0
:10101000FFFFFFFFFFFFFFFFFFFFFFFFFFFFFFFFE0
:10102000FFFFFFFFFFFFFFFFFFFFFFFFFEECBF74AF
:101030001E00000000000000000000000000000092
:1010400000000000000000000000000000000000A0
:10105000000000000B387BC0F0FFFFFFFFFFFFFF29
:10106000FFFFFFFFFFFFFFFFFFFFFFFFFFFFFFFF90
:10107000FFFFFFFFFFFFFFFFFFFFFFFFFFFFFFFF80
:10108000FFFFFFFFFFFFFFFFFFFFFFFFFFFFFFFF70
:10109000FFFFFFFFFFFFFFFFFFFFFFFFFFFFFFFF60
:1010A000FFFFFFFFFFFFFFFFFFFFFFFFFFFFFFFF50
:1010B000FFFFFFFFFFFFFFFFFFFFFFFFFFFFFFFF40
:1010C000FFFFFFFFFFFFFFFFFFFFFFFFFFFFFFFF30
:1010D000FFFFFFFFFFFFFFFFFFFFFFFFFFFFFFFF20
:1010E000FFFFFFF1C27E3A0D00000000000000008B
:1010F00000000000000000000000000000000000F0
:101100000000000000000000000000010F397BC05B
:10111000F3FDFFFFFFFFFFFFFFFFFFFFFFFFFFFFED
:10112000FFFFFFFFFFFFFFFFFFFFFFFFFFFFFFFFCF
:10113000FFFFFFFFFFFFFFFFFFFFFFFFFFFFFFFFBF
:10114000FFFFFFFFFFFFFFFFFFFFFFFFFFFFFFFFAF
:10115000FFFFFFFFFFFFFFFFFFFFFFFFFFFFFFFF9F
:10116000FFFFFFFFFFFFFFFFFFFFFFFFFFFFFFFF8F
:10117000FFFFFFFFFFFFFFFFFFFFFFFFFFFFFFFF7F
:10118000FFFFFFFFFFFFFFFFFFFFFFFFFFFFFFFF6F
:10119000FFFFFFFFFFFFFFFFFDF3C27E3C100200D9
:1011A000000000000000000000000000000000003F
:1011B000000000000000000000000000000000002F
:1011C00000000002123A7AC2EFFCFFFFFFFFFFFFB0
:1011D000FFFFFFFFFFFFFFFFFFFFFFFFFFFFFFFF1F
:1011E000FFFFFFFFFFFFFFFFFFFFFFFFFFFFFFFF0F
:1011F000FFFFFFFFFFFFFFFFFFFFFFFFFFFFFFFFFF
:10120000FFFFFFFFFFFFFFFFFFFFFFFFFFFFFFFFEE
:10121000FFFFFFFFFFFFFFFFFFFFFFFFFFFFFFFFDE
:10122000FFFFFFFFFFFFFFFFFFFFFFFFFFFFFFFFCE
:10123000FFFFFFFFFFFFFFFFFFFFFFFFFFFFFFFFBE
:10124000FFFFFFFFFFFFFFFFFFFFFFFFFFFFFEF3BB
:10125000C57E3D13030000000000000000000000F8
:10126000000000000000000000000000000000007E
:1012700000000000000000000000000312397BC2E3
:10128000ECFCFFFFFFFFFFFFFFFFFFFFFFFFFFFF84
:10129000FFFFFFFFFFFFFFFFFFFFFFFFFFFFFFFF5E
:1012A000FFFFFFFFFFFFFFFFFFFFFFFFFFFFFFFF4E
:1012B000FFFFFFFFFFFFFFFFFFFFFFFFFFFFFFFF3E
:1012C000FFFFFFFFFFFFFFFFFFFFFFFFFFFFFFFF2E
:1012D000FFFFFFFFFFFFFFFFFFFFFFFFFFFFFFFF1E
:1012E000FFFFFFFFFFFFFFFFFFFFFFFFFFFFFFFF0E
:1012F000FFFFFFFFFFFFFFFFFFFFFFFFFFFFFFFFFE
:10130000FFFFFFFFFFF7D8873E1403000000000037
:1013100000000000000000000000000000000000CD
:1013200000000000000000000000000000000000BD
:10133000000000020E357CC2ECFDFFFFFFFFFFFF47
:10134000FFFFFFFFFFFFFFFFFFFFFFFFFFFFFFFFAD
:10135000FFFFFFFFFFFFFFFFFFFFFFFFFFFFFFFF9D
:10136000FFFFFFFFFFFFFFFFFFFFFFFFFFFFFFFF8D
:10137000FFFFFFFFFFFFFFFFFFFFFFFFFFFFFFFF7D
:10138000FFFFFFFFFFFFFFFFFFFFFFFFFFFFFFFF6D
:10139000FFFFFFFFFFFFFFFFFFFFFFFFFFFFFFFF5D
:1013A000FFFFFFFFFFFFFFFFFFFFFFFFFFFFFFFF4D
:1013B000FFFFFFFFFFFFFFFFFFFFFFFEECB4471241
:1013C000020000000000000000000000000000001B
:1013D000000000000000000000000000000000000D
:1013E00000000000000000000000000008347CC382
:1013F000F0FEFFFFFFFFFFFFFFFFFFFFFFFFFFFF0D
:10140000FFFFFFFFFFFFFFFFFFFFFFFFFFFFFFFFEC
:10141000FFFFFFFFFFFFFFFFFFFFFFFFFFFFFFFFDC
:10142000FFFFFFFFFFFFFFFFFFFFFFFFFFFFFFFFCC
:10143000FFFFFFFFFFFFFFFFFFFFFFFFFFFFFFFFBC
:10144000FFFFFFFFFFFFFFFFFFFFFFFFFFFFFFFFAC
:10145000FFFFFFFFFFFFFFFFFFFFFFFFFFFFFFFF9C
:10146000FFFFFFFFFFFFFFFFFFFFFFFFFFFFFFFF8C
:10147000FFFFF6D387190100000000000000000004
:10148000000000000000000000000000000000005C
:10149000000000000000000000000000000000004C
:1014A0000000000004337BC5F6FEFFFFFFFFFFFFD7
:1014B000FFFFFFFFFFFFFFFFFFFFFFFFFFFFFFFF3C
:1014C000FFFFFFFFFFFFFFFFFFFFFFFFFFFFFFFF2C
:1014D000FFFFFFFFFFFFFFFFFFFFFFFFFFFFFFFF1C
:1014E000FFFFFFFFFFFFFFFFFFFFFFFFFFFFFFFF0C
:1014F000FFFFFFFFFFFFFFFFFFFFFFFFFFFFFFFFFC
:10150000FFFFFFFFFFFFFFFFFFFFFFFFFFFFFFFFEB
:10151000FFFFFFFFFFFFFFFFFFFFFFFFFFFFFFFFDB
:10152000FFFFFFFFFFFFFFFFFBD793450C0100000C
:1015300000000000000000000000000000000000AB
:10154000000000000000000000000000000000009B
:101550000000000000000000000000010B357AC30D
:10156000F6FEFFFFFFFFFFFFFFFFFFFFFFFFFFFF95
:10157000FFFFFFFFFFFFFFFFFFFFFFFFFFFFFFFF7B
:10158000FFFFFFFFFFFFFFFFFFFFFFFFFFFFFFFF6B
:10159000FFFFFFFFFFFFFFFFFFFFFFFFFFFFFFFF5B
:1015A000FFFFFFFFFFFFFFFFFFFFFFFFFFFFFFFF4B
:1015B000FFFFFFFFFFFFFFFFFFFFFFFFFFFFFFFF3B
:1015C000FFFFFFFFFFFFFFFFFFFFFFFFFFFFFFFF2B
:1015D000FFFFFFFFFFFFFFFFFFFFFFFFFFFFFBD44A
:1015E000914811020000000000000000000000000F
:1015F00000000000000000000000000000000000EB
:1016000000000000000000000000000000000000DA
:10161000000000000E367AC5F0FDFFFFFFFFFFFF60
:10162000FFFFFFFFFFFFFFFFFFFFFFFFFFFFFFFFCA
:10163000FFFFFFFFFFFFFFFFFFFFFFFFFFFFFFFFBA
:10164000FFFFFFFFFFFFFFFFFFFFFFFFFFFFFFFFAA
:10165000FFFFFFFFFFFFFFFFFFFFFFFFFFFFFFFF9A
:10166000FFFFFFFFFFFFFFFFFFFFFFFFFFFFFFFF8A
:10167000FFFFFFFFFFFFFFFFFFFFFFFFFFFFFFFF7A
:10168000FFFFFFFFFFFFFFFFFFFFFFFFFFFFFFFF6A
:10169000FFFFFFFFFBD4904916020000000000008E
:1016A000000000000000000000000000000000003A
:1016B000000000000000000000000000000000002A
:1016C0000000000000000000000000000E367BC299
:1016D000ECFCFFFFFFFFFFFFFFFFFFFFFFFFFFFF30
:1016E000FFFFFFFFFFFFFFFFFFFFFFFFFFFFFFFF0A
:1016F000FFFFFFFFFFFFFFFFFFFFFFFFFFFFFFFFFA
:10170000FFFFFFFFFFFFFFFFFFFFFFFFFFFFFFFFE9
:10171000FFFFFFFFFFFFFFFFFFFFFFFFFFFFFFFFD9
:10172000FFFFFFFFFFFFFFFFFFFFFFFFFFFFFFFFC9
:10173000FFFFFFFFFFFFFFFFFFFFFFFFFFFFFFFFB9
:10174000FFFFFFFFFFFFFFFFFFFEF6D791491702E4
:101750000000000000000000000000000000000089
:101760000000000000000000000000000000000079
:101770000000000000000000000000000000000069
:10178000000000010C347CC1ECFCFFFFFFFFFFFFF9
:10179000FFFFFFFFFFFFFFFFFFFFFFFFFFFFFFFF59
:1017A000FFFFFFFFFFFFFFFFFFFFFFFFFFFFFFFF49
:1017B000FFFFFFFFFFFFFFFFFFFFFFFFFFFFFFFF39
:1017C000FFFFFFFFFFFFFFFFFFFFFFFFFFFFFFFF29
:1017D000FFFFFFFFFFFFFFFFFFFFFFFFFFFFFFFF19
:1017E000FFFFFFFFFFFFFFFFFFFFFFFFFFFFFFFF09
:1017F000FFFFFFFFFFFFFFFFFFFFFFFFFFFFFEF702
:10180000ECD3934816020000000000000000000026
:1018100000000000000000000000000000000000C8
:1018200000000000000000000000000000000000B8
:1018300000000000000000000000000106357CC12F
:10184000EEFDFFFFFFFFFFFFFFFFFFFFFFFFFFFFBB
:10185000FFFFFFFFFFFFFFFFFFFFFFFFFFFFFFFF98
:10186000FFFFFFFFFFFFFFFFFFFFFFFFFFFFFFFF88
:10187000FFFFFFFFFFFFFFFFFFFFFFFFFFFFFFFF78
:10188000FFFFFFFFFFFFFFFFFFFFFFFFFFFFFFFF68
:10189000FFFFFFFFFFFFFFFFFFFFFFFFFFFFFFFF58
:1018A000FFFFFFFFFFFFFFFFFFFFFFFFFFFFFFFF48
:1018B000FFFFFFFFFDF3D8B48745110200000000D1
:1018C0000000000000000000000000000000000018
:1018D0000000000000000000000000000000000008
:1018E00000000000000000000000000000000000F8
:1018F0000000000009367BC1F2FFFFFFFFFFFFFF82
:10190000FFFFFFFFFFFFFFFFFFFFFFFFFFFFFFFFE7
:10191000FFFFFFFFFFFFFFFFFFFFFFFFFFFFFFFFD7
:10192000FFFFFFFFFFFFFFFFFFFFFFFFFFFFFFFFC7
:10193000FFFFFFFFFFFFFFFFFFFFFFFFFFFFFFFFB7
:10194000FFFFFFFFFFFFFFFFFFFFFFFFFFFFFFFFA7
:10195000FFFFFFFFFFFFFFFFFFFFFFFFFFFFFFFF97
:10196000FFFFFFFFFFFFFFFFFFFFFFF3C5874719E3
:101970000C02000000000000000000000000000059
:101980000000000000000000000000000000000057
:101990000000000000000000000000000000000047
:1019A0000000000000000000000000010F397ABFB5
:1019B000EFFEFFFFFFFFFFFFFFFFFFFFFFFFFFFF48
:1019C000FFFFFFFFFFFFFFFFFFFFFFFFFFFFFFFF27
:1019D000FFFFFFFFFFFFFFFFFFFFFFFFFFFFFFFF17
:1019E000FFFFFFFFFFFFFFFFFFFFFFFFFFFFFFFF07
:1019F000FFFFFFFFFFFFFFFFFFFFFFFFFFFFFFFFF7
:101A0000FFFFFFFFFFFFFFFFFFFFFFFFFFFFFFFFE6
:101A1000FFFFFFFFFFFFFFFFFFFFFFFFFFFFFFFFD6
:101A2000FEF1C27E3E120101000000000000000035
:101A300000000000000000000000000000000000A6
:101A40000000000000000000000000000000000096
:101A50000000000000000000000000000000000086
:101A600000000002133B7BBFEBFCFFFFFFFFFFFF0B
:101A7000FFFFFFFFFFFFFFFFFFFFFFFFFFFFFFFF76
:101A8000FFFFFFFFFFFFFFFFFFFFFFFFFFFFFFFF66
:101A9000FFFFFFFFFFFFFFFFFFFFFFFFFFFFFFFF56
:101AA000FFFFFFFFFFFFFFFFFFFFFFFFFFFFFFFF46
:101AB000FFFFFFFFFFFFFFFFFFFFFFFFFFFFFFFF36
:101AC000FFFFFFFFFFFFFFFFFFFFFFFFFFFFFFFF26
:101AD000FFFFFFFFFFFFFCECC27E3D140200000091
:101AE00000000000000000000000000000000000F6
:101AF00000000000000000000000000000000000E6
:101B000000000000000000000000000000000000D5
:101B1000000000000000000000000003123A7BBD3E
:101B2000E2F2FBFFFFFFFFFFFFFFFFFFFFFFFFFFF3
:101B3000FFFFFFFFFFFFFFFFFFFFFFFFFFFFFFFFB5
:101B4000FFFFFFFFFFFFFFFFFFFFFFFFFFFFFFFFA5
:101B5000FFFFFFFFFFFFFFFFFFFFFFFFFFFFFFFF95
:101B6000FFFFFFFFFFFFFFFFFFFFFFFFFFFFFFFF85
:101B7000FFFFFFFFFFFFFFFFFFFFFFFFFFFFFFFF75
:101B8000FFFFFFFFFFFFFFFFFFFFFFFBF3E3BF7E52
:101B90003C130300000000000000000000000000F3
:101BA0000000000000000000000000000000000035
:101BB0000000000000000000000000000000000025
:101BC0000000000000000000000000000000000015
:101BD00000000003103872A3C8E7FAFFFFFFFFFF01
:101BE000FFFFFFFFFFFFFFFFFFFFFFFFFFFFFFFF05
:101BF000FFFFFFFFFFFFFFFFFFFFFFFFFFFFFFFFF5
:101C0000FFFFFFFFFFFFFFFFFFFFFFFFFFFFFFFFE4
:101C1000FFFFFFFFFFFFFFFFFFFFFFFFFFFFFFFFD4
:101C2000FFFFFFFFFFFFFFFFFFFFFFFFFFFFFFFFC4
:101C3000FFFFFFFFFFFFFFFFFFFFFFFFFFFFFFFFB4
:101C4000FFFAE8CAA5743A10030000000000000083
:101C50000000000000000000000000000000000084
:101C60000000000000000000000000000000000074
:101C70000000000000000000000000000000000064
:101C80000000000000000000000000020C1E407672
:101C9000B2E4FCFDFFFFFFFFFFFFFFFFFFFFFFFFC1
:101CA000FFFFFFFFFFFFFFFFFFFFFFFFFFFFFFFF44
:101CB000FFFFFFFFFFFFFFFFFFFFFFFFFFFFFFFF34
:101CC000FFFFFFFFFFFFFFFFFFFFFFFFFFFFFFFF24
:101CD000FFFFFFFFFFFFFFFFFFFFFFFFFFFFFFFF14
:101CE000FFFFFFFFFFFFFFFFFFFFFFFFFFFFFFFF04
:101CF000FFFFFFFFFFFFFEFCE6B579421E0D02006D
:101D000000000000000000000000000000000000D3
:101D100000000000000000000000000000000000C3
:101D200000000000000000000000000000000000B3
:101D300000000000000000000000000000000000A3
:101D400000000000000C2F68AAD7EBFBFFFFFFFF8D
:101D5000FFFFFFFFFFFFFFFFFFFFFFFFFFFFFFFF93
:101D6000FFFFFFFFFFFFFFFFFFFFFFFFFFFFFFFF83
:101D7000FFFFFFFFFFFFFFFFFFFFFFFFFFFFFFFF73
:101D8000FFFFFFFFFFFFFFFFFFFFFFFFFFFFFFFF63
:101D9000FFFFFFFFFFFFFFFFFFFFFFFFFFFFFFFF53
:101DA000FFFFFFFFFFFFFFFFFFFFFFFFFBECD8ADD3
:101DB0006B310D000000000000000000000000007A
:101DC0000000000000000000000000000000000013
:101DD0000000000000000000000000000000000003
:101DE00000000000000000000000000000000000F3
:101DF000000000000000000000000000010D29515B
:101E00007EAEDAF5FFFFFFFFFFFFFFFFFFFFFFFFE3
:101E1000FFFFFFFFFFFFFFFFFFFFFFFFFFFFFFFFD2
:101E2000FFFFFFFFFFFFFFFFFFFFFFFFFFFFFFFFC2
:101E3000FFFFFFFFFFFFFFFFFFFFFFFFFFFFFFFFB2
:101E4000FFFFFFFFFFFFFFFFFFFFFFFFFFFFFFFFA2
:101E5000FFFFFFFFFFFFFFFFFFFFFFFFFFFFFFFF92
:101E6000FFFFF5DBB080532B0E01000000000000E7
:101E70000000000000000000000000000000000062
:101E80000000000000000000000000000000000052
:101E90000000000000000000000000000000000042
:101EA0000000000000000000000000000000000032
:101EB000000000000208122C5F9CD1EDF7FFFFFF2D
:101EC000FFFFFFFFFFFFFFFFFFFFFFFFFFFFFFFF22
:101ED000FFFFFFFFFFFFFFFFFFFFFFFFFFFFFFFF12
:101EE000FFFFFFFFFFFFFFFFFFFFFFFFFFFFFFFF02
:101EF000FFFFFFFFFFFFFFFFFFFFFFFFFFFFFFFFF2
:101F0000FFFFFFFFFFFFFFFFFFFFFFFFFFFFFFFFE1
:101F1000FFFFFFFFFFFFFFF8EED29F612E130802C5
:101F200000000000000000000000000000000000B1
:101F300000000000000000000000000000000000A1
:101F40000000000000000000000000000000000091
:101F50000000000000000000000000000000000081
:101F60000000000000000000000000000001082345
:101F7000568BB5D6F1F7FDFFFFFFFFFFFFFFFFFF19
:101F8000FFFFFFFFFFFFFFFFFFFFFFFFFFFFFFFF61
:101F9000FFFFFFFFFFFFFFFFFFFFFFFFFFFFFFFF51
:101FA000FFFFFFFFFFFFFFFFFFFFFFFFFFFFFFFF41
:101FB000FFFFFFFFFFFFFFFFFFFFFFFFFFFFFFFF31
:101FC000FFFFFFFFFFFFFFFFFFFFFFFDF7F1D7B7A9
:101FD0008D582508010000000000000000000000EE
:101FE00000000000000000000000000000000000F1
:101FF00000000000000000000000000000000000E1
:1020000000000000000000000000000000000000D0
:1020100000000000000000000000000000000000C0
:10202000000000000000071A365E90BDD6EEF9FDF4
:10203000FFFFFFFFFFFFFFFFFFFFFFFFFFFFFFFFB0
:10204000FFFFFFFFFFFFFFFFFFFFFFFFFFFFFFFFA0
:10205000FFFFFFFFFFFFFFFFFFFFFFFFFFFFFFFF90
:10206000FFFFFFFFFFFFFFFFFFFFFFFFFFFFFFFF80
:10207000FFFFFFFFFFFFFFFFFFFFFFFFFFFFFFFF70
:10208000FDFAEFD7BE9260371B070000000000008A
:102090000000000000000000000000000000000040
:1020A0000000000000000000000000000000000030
:1020B0000000000000000000000000000000000020
:1020C0000000000000000000000000000000000010
:1020D00000000000000000000000000000000004FC
:1020E0001736598CBEDCEFFEFFFFFFFFFFFFFFFF3F
:1020F000FFFFFFFFFFFFFFFFFFFFFFFFFFFFFFFFF0
:10210000FFFFFFFFFFFFFFFFFFFFFFFFFFFFFFFFDF
:10211000FFFFFFFFFFFFFFFFFFFFFFFFFFFFFFFFCF
:10212000FFFFFFFFFFFFFFFFFFFFFFFFFFFFFFFFBF
:10213000FFFFFFFFFFFFFFF0DDBF8E5B37180500DD
:10214000000000000000000000000000000000008F
:10215000000000000000000000000000000000007F
:10216000000000000000000000000000000000006F
:10217000000000000000000000000000000000005F
:10218000000000000000000000000000000000004F
:102190000000000000000000000A36628FBCE3EF80
:1021A000FBFFFFFFFFFFFFFFFFFFFFFFFFFFFFFF43
:1021B000FFFFFFFFFFFFFFFFFFFFFFFFFFFFFFFF2F
:1021C000FFFFFFFFFFFFFFFFFFFFFFFFFFFFFFFF1F
:1021D000FFFFFFFFFFFFFFFFFFFFFFFFFFFFFFFF0F
:1021E000FFFFFFFFFFFFFFFFFFFFFFFCEFE4BD90DE
:1021F00064380C0000000000000000000000000037
:1022000000000000000000000000000000000000CE
:1022100000000000000000000000000000000000BE
:1022200000000000000000000000000000000000AE
:10223000000000000000000000000000000000009E
:10224000000000000000000000000000000000008E
:10225000010912326391B7DEEFF8FEFFFFFFFFFFC7
:10226000FFFFFFFFFFFFFFFFFFFFFFFFFFFFFFFF7E
:10227000FFFFFFFFFFFFFFFFFFFFFFFFFFFFFFFF6E
:10228000FFFFFFFFFFFFFFFFFFFFFFFFFFFFFFFF5E
:10229000FFFFFFFFFFFFFFFFFFFFFFFFFFFFFFFE4F
:1022A000F8EFDFB892643413090200000000000068
:1022B000000000000000000000000000000000001E
:1022C000000000000000000000000000000000000E
:1022D00000000000000000000000000000000000FE
:1022E00000000000000000000000000000000000EE
:1022F00000000000000000000000000000000000DE
:10230000000000000000000000010A1A306092B6D0
:10231000D6EEF6F8FCFEFFFFFFFFFFFFFFFFFFFF1B
:10232000FFFFFFFFFFFFFFFFFFFFFFFFFFFFFFFFBD
:10233000FFFFFFFFFFFFFFFFFFFFFFFFFFFFFFFFAD
:10234000FFFFFFFFFFFFFFFFFFFFFFFFFFFFFFFF9D
:10235000FFFFFEFCF8F6EFD7B89462321B0B0100CA
:10236000000000000000000000000000000000006D
:10237000000000000000000000000000000000005D
:10238000000000000000000000000000000000004D
:10239000000000000000000000000000000000003D
:1023A000000000000000000000000000000000002D
:1023B000000000000000000000000000000000001D
:1023C000000000051D355F8FB7C9D5E8F6FBFEFF9D
:1023D000FFFFFFFFFFFFFFFFFFFFFFFFFFFFFFFF0D
:1023E000FFFFFFFFFFFFFFFFFFFFFFFFFFFFFFFFFD
:1023F000FFFFFFFFFFFFFFFFFFFFFFFFFFFFFFFFED
:10240000FFFFFFFFFFFFFFFEFCF7E9D5CAB99160B0
:10241000361E060000000000000000000000000062
:1024200000000000000000000000000000000000AC
:10243000000000000000000000000000000000009C
:10244000000000000000000000000000000000008C
:10245000000000000000000000000000000000007C
:10246000000000000000000000000000000000006C
:1024700000000000000000000000000000183A57B3
:102480006986B2D3E8F6FDFDFDFEFFFFFFFFFFFF0B
:10249000FFFFFFFFFFFFFFFFFFFFFFFFFFFFFFFF4C
:1024A000FFFFFFFFFFFFFFFFFFFFFFFFFFFFFFFF3C
:1024B000FFFFFFFFFFFFFFFFFFFFFFFEFDFDF7E850
:1024C000D4B48869583B19000000000000000000E7
:1024D00000000000000000000000000000000000FC
:1024E00000000000000000000000000000000000EC
:1024F00000000000000000000000000000000000DC
:1025000000000000000000000000000000000000CB
:1025100000000000000000000000000000000000BB
:1025200000000000000000000000000000000000AB
:102530000000000000000005285784B1D7EBEFEF42
:10254000F4FBFFFFFFFFFFFFFFFFFFFFFFFFFFFFAA
:10255000FFFFFFFFFFFFFFFFFFFFFFFFFFFFFFFF8B
:10256000FFFFFFFFFFFFFFFFFFFFFFFFFFFFFFFF7B
:10257000FFFDF6F0EBD8B286592A050000000000F6
:10258000000000000000000000000000000000004B
:10259000000000000000000000000000000000003B
:1025A000000000000000000000000000000000002B
:1025B000000000000000000000000000000000001B
:1025C000000000000000000000000000000000000B
:1025D00000000000000000000000000000000000FB
:1025E00000000000000000000000000000000002E9
:1025F000041F5286A6AFB6CBE6F6F8F8FAFDFFFF49
:10260000FFFFFFFFFFFFFFFFFFFFFFFFFFFFFFFFDA
:10261000FFFFFFFFFFFFFFFFFFFFFFFFFFFFFFFFCA
:10262000FFFFFFFEFBF8F8F6EDD3B9A788542104AD
:102630000200000000000000000000000000000098
:10264000000000000000000000000000000000008A
:10265000000000000000000000000000000000007A
:10266000000000000000000000000000000000006A
:10267000000000000000000000000000000000005A
:10268000000000000000000000000000000000004A
:10269000000000000000000000000000000000003A
:1026A000000000000000000006111C2224396A9A74
:1026B000B9C2C6D5EDF9FBFBFBFBFDFFFFFFFFFF3A
:1026C000FFFFFFFFFFFFFFFFFFFFFFFFFFFFFFFF1A
:1026D000FFFFFFFEFBFBFBFBFBFAF3DBC9C3BCA662
:1026E0007A44251C110600000000000000000000D4
:1026F00000000000000000000000000000000000DA
:1027000000000000000000000000000000000000C9
:1027100000000000000000000000000000000000B9
:1027200000000000000000000000000000000000A9
:102730000000000000000000000000000000000099
:102740000000000000000000000000000000000089
:102750000000000000000000000000000000000079
:10276000000000000A1F3442475380B0CBD4D4D4B9
:10277000DBEEFBFDFDFDFDFDFDFDFDFDFDFDFDFDBC
:10278000FDFDFDFDFDFDFDFDFDFCEFDCD4D4D4D44D
:10279000CEBC8F604A4339260F01000000000000C4
:1027A0000000000000000000000000000000000029
:1027B0000000000000000000000000000000000019
:1027C0000000000000000000000000000000000009
:1027D00000000000000000000000000000000000F9
:1027E00000000000000000000000000000000000E9
:1027F00000000000000000000000000000000000D9
:1028000000000000000000000000000000000000C8
:1028100000000000000000000000000000000000B8
:102820000A2D4F636A6A6C8CB9D8E1E2E2E2E2E217
:10283000E2E2E2E2E2E2E2E2E2E2E2E2E2E2E2E278
:10284000DABB8E6D6A6A6A665738140300000000AE
:102850000000000000000000000000000000000078
:102860000000000000000000000000000000000068
:102870000000000000000000000000000000000058
:102880000000000000000000000000000000000048
:102890000000000000000000000000000000000038
:1028A0000000000000000000000000000000000028
:1028B0000000000000000000000000000000000018
:1028C0000000000000000000000000000000000008
:1028D0000000000000000000000000000002306264
:1028E00084929494949494949494949494949494BA
:1028F00094949494949493866432040000000000AD
:1029000000000000000000000000000000000000C7
:1029100000000000000000000000000000000000B7
:1029200000000000000000000000000000000000A7
:102930000000000000000000000000000000000097
:1029400000000000000000001914000042004200D6
:1029500084000000000000000000000000000000F3
:102960000000000000000000000000000000000067
:102970000000000000000000000000000000000057
:102980000000000000000000000000000000000047
:10299000E0FFE9FEAAFEAAFE66FE000000000000BD
:1029A0000000000000000000000000000000000027
:1029B0000000000000000000000000000000000017
:1029C0000000000000000000000000000000000007
:1029D00000000000000000000000000000000000F7
:1029E00000000000000000000000000000000000E7
:1029F00000000000000000000000000000000000D7
:102A000000000000000000000000000000000000C6
:102A100000000000EAFEAAFEAAFEAAFEAAFE08FF27
:102A200000000000000000000000000000000000A6
:102A30000000000000000000000000000000000096
:102A40000000000000000000000000000000000086
:102A50000000000000000000000000000000000076
:102A60000000000000000000000000000000000066
:102A70000000000000000000000000000000000056
:102A80000000000000000000000000000000000046
:102A9000000000000000A5FEAAFEAAFEAAFEAAFEF3
:102AA000AAFEAAFEF0FF00000000000000000000E7
:102AB0000000000000000000000000000000000016
:102AC0000000000000000000000000000000000006
:102AD00000000000000000000000000000000000F6
:102AE00000000000000000000000000000000000E6
:102AF00000000000000000000000000000000000D6
:102B000000000000000000000000000000000000C5
:102B100000000000000000000000AAFEAAFEAAFEBD
:102B2000AAFEAAFEAAFEAAFEAAFE0000000000005D
:102B30000000000000000000000000000000000095
:102B40000000000000000000000000000000000085
:102B50000000000000000000000000000000000075
:102B60000000000000000000000000000000000065
:102B70000000000000000000000000000000000055
:102B80000000000000000000000000000000000045
:102B9000000000000000000000000000A9FEAAFEE6
:102BA000AAFEAAFEAAFEAAFEAAFEAAFEAAFE00008D
:102BB0000000000000000000000000000000000015
:102BC0000000000000000000000000000000000005
:102BD00000000000000000000000000000000000F5
:102BE00000000000000000000000000000000000E5
:102BF00000000000000000000000000000000000D5
:102C000000000000000000000000000000000000C4
:102C100000000000000000000000000000000000B4
:102C2000AAFEAAFEAAFEAAFEAAFEAAFEAAFEAAFE64
:102C3000AAFECAFE00000000000000000000000024
:102C40000000000000000000000000000000000084
:102C50000000000000000000000000000000000074
:102C60000000000000000000000000000000000064
:102C70000000000000000000000000000000000054
:102C80000000000000000000000000000000000044
:102C90000000000000000000000000000000000034
:102CA00000000000AAFEAAFEAAFEAAFEAAFEAAFE34
:102CB000AAFEAAFEAAFEE9FE000000000000000035
:102CC0000000000000000000000000000000000004
:102CD00000000000000000000000000000000000F4
:102CE00000000000000000000000000000000000E4
:102CF00000000000000000000000000000000000D4
:102D000000000000000000000000000000000000C3
:102D100000000000000000000000000000000000B3
:102D20000000000000000000A9FEAAFEAAFEAAFE04
:102D3000AAFEAAFEAAFEAAFECAFE0000000000002B
:102D40000000000000000000000000000000000083
:102D50000000000000000000000000000000000073
:102D60000000000000000000000000000000000063
:102D70000000000000000000000000000000000053
:102D80000000000000000000000000000000000043
:102D90000000000000000000000000000000000033
:102DA0000000000000000000000000000000AAFE7B
:102DB000AAFEAAFEAAFEAAFEAAFEAAFECAFE00005B
:102DC0000000000000000000000000000000000003
:102DD00000000000000000000000000000000000F3
:102DE00000000000000000000000000000000000E3
:102DF00000000000000000000000000000000000D3
:102E0000000000000000000000008AFECAFEAAFECA
:102E1000AAFEAAFEAAFEEAFEE0FF000000000000F3
:102E200000000000000000000000000000000000A2
:102E3000000008FECAFEAAFEAAFEAAFEAAFEAAFE7C
:102E40006BFD00000000000000000000000000001A
:102E500000000000000000000000E0FFEAFEAAFE03
:102E6000AAFEAAFEAAFEAAFEA9FE0000000000001B
:102E70000000000000000000000000000000000052
:102E80000000000000000000000000000000AAFE9A
:102E9000AAFEAAFEAAFEAAFEAAFEAAFEAAFEAAFEF2
:102EA0000000000000000000000000000000000022
:102EB00000000000000000006BFDCAFEAAFEAAFE92
:102EC000A9FEE0FF0000000000000000000000007C
:102ED000000000000000000000000000AAFEAAFEA2
:102EE000AAFEAAFEAAFEAAFEAAFEAAFEAAFE00004A
:102EF00000000000000000000000000000000000D2
:102F000000000000000000000000000000000000C1
:102F10000000CAFEAAFEAAFEAAFEAAFEAAFEAAFEF9
:102F2000AAFEAAFE89FE00000000000000000000CA
:102F30000000000000000000000000000000000091
:102F40000000000000000000000000000000000081
:102F5000000000000000000000000000000089FEEA
:102F6000AAFEAAFEAAFEAAFEAAFEAAFEAAFEAAFE21
:102F7000AAFE0000000000000000000000000000A9
:102F80000000000000000000000000000000000041
:102F9000000000000000CAFEAAFEAAFEAAFEAAFEC9
:102FA000AAFEAAFEAAFEAAFEAAFE000000000000D9
:102FB0000000000000000000000000000000000011
:102FC0000000000000000000000000000000000001
:102FD00000000000000000000000000000000000F1
:102FE0000000AAFEAAFEAAFEAAFEAAFEAAFEAAFE49
:102FF000AAFEAAFEAAFE00000000000000000000D9
:1030000000000000000000000000000000000000C0
:1030100000000000000000000000AAFEAAFEAAFEB8
:10302000AAFEAAFEAAFEAAFEAAFEAAFEAAFE000008
:103030000000000000000000000000000000000090
:103040000000000000000000000000000000000080
:103050000000000000000000000000000000000070
:10306000000000000000AAFEAAFEAAFEAAFEAAFE18
:10307000AAFEAAFEAAFEAAFEAAFE00000000000008
:103080000000000000000000000000000000000040
:103090000000000000000000000000000000AAFE88
:1030A000AAFEAAFEAAFEAAFEAAFEAAFEAAFEAAFEE0
:1030B000AAFE000000000000000000000000000068
:1030C0000000000000000000000000000000000000
:1030D00000000000000000000000000000000000F0
:1030E00000000000000000000000AAFEAAFEAAFEE8
:1030F000AAFEAAFEAAFEAAFEAAFEAAFEAAFE000038
:1031000000000000000000000000000000000000BF
:1031100000000000000000000000000000000000AF
:103120000000A9FEAAFEAAFEAAFEAAFEAAFEAAFE08
:10313000AAFEAAFECAFE0000000000000000000077
:1031400000000000000000000000E9FE8AFEAAFE68
:103150008AFECAFE89FECAFEE0FF000000000000F1
:103160000000000000000000000000000000CAFE97
:10317000AAFEAAFEAAFEAAFEAAFEAAFEAAFEAAFE0F
:10318000A9FE000000000000000000000000000098
:10319000000000000000000000000000000000002F
:1031A0000000000000000000CAFEAAFEAAFEAAFE5F
:1031B000AAFEAAFEAAFEAAFECAFE000000000000A7
:1031C0000000000000000000EBFEAAFEAAFECAFEFE
:1031D000AAFEAAFEAAFECAFEAAFECAFEAAFECAFE4F
:1031E000AAFEE8FF00000000000000000000000050
:1031F0000000CAFEAAFEAAFEAAFEAAFEAAFEAAFE17
:10320000AAFECAFE0000000000000000000000004E
:1032100000000000000000000000000000000000AE
:10322000000000000000000000000000CAFEAAFE2E
:10323000AAFEAAFEAAFEAAFECAFEAAFE000000007E
:103240000000000000000000AAFEAAFECAFEAAFEBE
:10325000AAFEAAFEAAFEAAFEAAFEAAFEAAFEAAFE2E
:10326000AAFEAAFEAAFEAAFEAAFE08FE0000000010
:103270000000000000000000AAFECAFEAAFEAAFE8E
:10328000AAFECAFECAFECAFE00000000000000003E
:10329000000000000000000000000000000000002E
:1032A000000000000000000000000000000000001E
:1032B00000006DFEAAFEAAFEAAFECAFE89FE00005C
:1032C00000000000000000006BFDCAFECAFECAFE3E
:1032D000AAFEAAFEAAFEAAFEAAFEAAFEAAFEAAFEAE
:1032E000AAFEAAFEAAFEAAFEAAFEAAFEAAFEAAFE9E
:1032F000CAFE000000000000000000000000E9FE1F
:10330000CAFEAAFECAFEAAFEEDFF000000000000F1
:1033100000000000000000000000000000000000AD
:10332000000000000000000000000000000000009D
:10333000000000000000000000000000000000008D
:10334000000000000000000000000000AAFEAAFE2D
:10335000AAFEAAFEAAFEAAFEAAFEAAFEAAFEAAFE2D
:10336000AAFEAAFEAAFEAAFEAAFEAAFEAAFEAAFE1D
:10337000AAFEAAFEAAFEAAFE0000000000000000AD
:10338000000000000000000000000000000000003D
:10339000000000000000000000000000000000002D
:1033A000000000000000000000000000000000001D
:1033B000000000000000000000000000000000000D
:1033C0000000000000000000000000000000AAFE55
:1033D000CAFEAAFEAAFEAAFEAAFEAAFEAAFEAAFE8D
:1033E000AAFEAAFEAAFEAAFEAAFEAAFEAAFEAAFE9D
:1033F000AAFEAAFEAAFEAAFEAAFEAAFECAFE000015
:1034000000000000000000000000000000000000BC
:1034100000000000000000000000000000000000AC
:10342000000000000000000000000000000000009C
:10343000000000000000000000000000000000008C
:10344000000000000000000000000000000000007C
:10345000AAFECAFEAAFEAAFEAAFEAAFEAAFEAAFE0C
:10346000AAFEAAFEAAFEAAFEAAFEAAFEAAFEAAFE1C
:10347000AAFEAAFEAAFEAAFEAAFEAAFEAAFEAAFE0C
:10348000AAFEAAFE000000000000000000000000EC
:10349000000000000000000000000000000000002C
:1034A000000000000000000000000000000000001C
:1034B000000000000000000000000000000000000C
:1034C00000000000000000000000000000000000FC
:1034D00008FECAFEAAFEAAFEAAFEAAFEAAFEAAFE2E
:1034E000AAFEAAFEAAFEAAFEAAFEAAFEAAFEAAFE9C
:1034F000AAFEAAFEAAFEAAFEAAFEAAFEAAFEAAFE8C
:10350000AAFEAAFEAAFEAAFEAAFE00000000000073
:1035100000000000000000000000000000000000AB
:10352000000000000000000000000000000000009B
:10353000000000000000000000000000000000008B
:10354000000000000000000000000000000000007B
:1035500000000000AAFEAAFEAAFEAAFEAAFEAAFE7B
:10356000AAFEAAFEAAFEAAFEAAFEAAFEAAFEAAFE1B
:10357000AAFEAAFEAAFEAAFEAAFEAAFEAAFEAAFE0B
:10358000AAFEAAFEAAFEAAFEAAFEAAFEAAFE8AFE1B
:10359000000000000000000000000000000000002B
:1035A000000000000000000000000000000000001B
:1035B000000000000000000000000000000000000B
:1035C00000000000000000000000000000000000FB
:1035D000000000000000AAFEAAFEAAFEAAFEAAFEA3
:1035E000AAFEAAFEAAFEAAFEAAFEAAFEAAFEAAFE9B
:1035F000AAFEAAFEAAFEAAFEAAFEAAFEAAFEAAFE8B
:10360000AAFEAAFEAAFEAAFEAAFEAAFEAAFEAAFE7A
:10361000AAFEAAFEEBFF0000000000000000000070
:10362000000000000000000000000000000000009A
:10363000000000000000000000000000000000008A
:10364000000000000000000000000000000000007A
:103650000000000000000000E0FFAAFEAAFEAAFE93
:10366000AAFEAAFEAAFEAAFEAAFEAAFEAAFEAAFE1A
:10367000AAFEAAFEAAFEAAFEAAFEAAFEAAFEAAFE0A
:10368000AAFEAAFEAAFEAAFEAAFEAAFEAAFEAAFEFA
:10369000AAFEAAFEAAFECAFEAAFE000000000000C2
:1036A000000000000000000000000000000000001A
:1036B000000000000000000000000000000000000A
:1036C00000000000000000000000000000000000FA
:1036D000000000000000000000000000AAFEAAFE9A
:1036E000AAFEAAFEAAFEAAFEAAFEAAFEAAFEAAFE9A
:1036F000AAFEAAFEAAFEAAFEAAFEAAFEAAFEAAFE8A
:10370000AAFEAAFEAAFEAAFEAAFEAAFEAAFEAAFE79
:10371000AAFEAAFEAAFEAAFEAAFEAAFECAFE0000F1
:103720000000000000000000000000000000000099
:103730000000000000000000000000000000000089
:103740000000000000000000000000000000000079
:103750000000000000000000000000000000000069
:10376000AAFEAAFEAAFEAAFEAAFEAAFEAAFEAAFE19
:10377000AAFEAAFEAAFEAAFEAAFEAAFEAAFEAAFE09
:10378000AAFEAAFEAAFEAAFEAAFEAAFEAAFEAAFEF9
:10379000AAFEAAFEAAFEAAFEAAFEAAFEAAFEAAFEE9
:1037A000CAFECAFE00000000000000000000000089
:1037B0000000000000000000000000000000000009
:1037C0000000000000000000000000000000CAFE31
:1037D000CAFEABFE00000000000000000000000078
:1037E0000000E0FFAAFEAAFEAAFEAAFEAAFEAAFE0A
:1037F000AAFEAAFEAAFEAAFEAAFEAAFEAAFEAAFE89
:10380000AAFEAAFEAAFEAAFEAAFEAAFEAAFEAAFE78
:10381000AAFEAAFEAAFEAAFEAAFEAAFEAAFEAAFE68
:10382000AAFEAAFECAFEAAFE0000000000000000D8
:10383000000000000000000000FCAAFECAFE00001C
:10384000000000000000000000000000F0FFCAFEC1
:10385000AAFEAAFEAAFEAAFEAAFE08FE000000001A
:103860000000000000006BFEAAFEAAFEAAFEAAFE4F
:10387000AAFEAAFEAAFEAAFEAAFEAAFEAAFEAAFE08
:10388000AAFEAAFEAAFEAAFEAAFEAAFEAAFEAAFEF8
:10389000AAFEAAFEAAFEAAFEAAFEAAFEAAFEAAFEE8
:1038A000AAFEAAFEAAFEAAFEAAFEAAFE0000000028
:1038B000000000000000000008FEAAFEAAFEAAFE0A
:1038C000AAFEAAFECAFEF0FF00000000000089FE6A
:1038D000AAFEAAFEAAFEAAFEAAFEAAFEAAFEAAFEA8
:1038E0006DFE0000000000000000CAFEAAFEAAFE55
:1038F000AAFEAAFEAAFEAAFEAAFEAAFEAAFEAAFE88
:10390000AAFEAAFEAAFEAAFEAAFEAAFEAAFEAAFE77
:10391000AAFEAAFEAAFEAAFEAAFEAAFEAAFEAAFE67
:10392000AAFEAAFEAAFEAAFEAAFEAAFEAAFEAAFE57
:10393000F0FF00000000000000006DFEAAFEAAFEDD
:10394000AAFEAAFEAAFEAAFEAAFEAAFEABFE0000DE
:10395000ABFECAFEAAFEAAFEAAFEAAFEAAFEAAFE06
:10396000AAFEAAFECAFE0000000000000000AAFE97
:10397000AAFEAAFEAAFEAAFEAAFEAAFEAAFEAAFE07
:10398000AAFEAAFEAAFEAAFEAAFEAAFEAAFEAAFEF7
:10399000AAFEAAFEAAFEAAFEAAFEAAFEAAFEAAFEE7
:1039A000AAFEAAFEAAFEAAFEAAFEAAFEAAFEAAFED7
:1039B000AAFEAAFE4AFF0000000000000000AAFEC6
:1039C000AAFEAAFEAAFEAAFEAAFEAAFEAAFEAAFEB7
:1039D000AAFE6DFEAAFEAAFEAAFEAAFEAAFEAAFEE4
:1039E000AAFEAAFEAAFEAAFEAAFE0000000000008F
:1039F0000000AAFEAAFEAAFEAAFEAAFEAAFEAAFE2F
:103A0000AAFEAAFEAAFEAAFEAAFEAAFEAAFEAAFE76
:103A1000AAFEAAFEAAFEAAFEAAFEAAFEAAFEAAFE66
:103A2000AAFEAAFEAAFEAAFEAAFEAAFEAAFEAAFE56
:103A3000AAFEAAFEAAFEAAFECAFE0000000000001E
:103A40000000AAFEAAFEAAFEAAFEAAFEAAFEAAFEDE
:103A5000AAFEAAFEAAFECAFEAAFEAAFEAAFEAAFE06
:103A6000AAFEAAFEAAFEAAFEAAFEAAFEAAFE0000BE
:103A7000000000000000AAFEAAFEAAFEAAFEAAFEFE
:103A8000AAFEAAFEAAFEAAFEAAFEAAFEAAFEAAFEF6
:103A9000AAFEAAFEAAFEAAFEAAFEAAFEAAFEAAFEE6
:103AA000AAFEAAFEAAFEAAFEAAFEAAFEAAFEAAFED6
:103AB000AAFEAAFEAAFEAAFEAAFEAAFECAFE00004E
:103AC000000000000000AAFEAAFEAAFEAAFEAAFEAE
:103AD000AAFEAAFEAAFEAAFEAAFECAFE66FEAAFECA
:103AE000AAFEAAFEAAFEAAFEAAFEAAFEAAFEAAFE96
:103AF000CAFE0000000000000000AAFEAAFEAAFE06
:103B0000AAFEAAFEAAFEAAFEAAFEAAFEAAFEAAFE75
:103B1000AAFEAAFEAAFEAAFEAAFEAAFEAAFEAAFE65
:103B2000AAFEAAFEAAFEAAFEAAFEAAFEAAFEAAFE55
:103B3000AAFEAAFEAAFEAAFEAAFEAAFEAAFEAAFE45
:103B40004AFF0000000000000000CAFEAAFEAAFE14
:103B5000AAFEAAFEAAFEAAFEAAFEAAFEAAFE66FE69
:103B6000000008FFAAFEAAFEAAFEAAFEAAFEAAFE5E
:103B7000CAFEAAFE66FE0000000000000000CAFEA9
:103B8000AAFEAAFEAAFEAAFEAAFEAAFEAAFEAAFEF5
:103B9000AAFEAAFEAAFEAAFEAAFEAAFEAAFEAAFEE5
:103BA000AAFEAAFEAAFEAAFEAAFEAAFEAAFEAAFED5
:103BB000AAFEAAFEAAFEAAFEAAFEAAFEAAFEAAFEC5
:103BC000AAFEAAFEF0FF000000000000000066FE52
:103BD000AAFECAFEAAFEAAFEAAFEAAFEAAFEAAFE85
:103BE00008FF000000000000F0FFAAFEAAFEAAFEE7
:103BF000AAFEAAFEAAFE08FE0000000000000000C7
:103C0000000069FEAAFEAAFEAAFEAAFEAAFEAAFE5D
:103C1000AAFEAAFEAAFEAAFEAAFEAAFEAAFEAAFE64
:103C2000AAFEAAFEAAFEAAFEAAFEAAFEAAFEAAFE54
:103C3000AAFEAAFEAAFEAAFEAAFEAAFEAAFEAAFE44
:103C4000AAFEAAFEAAFEAAFE0000000000000000D4
:103C50000000000008FEAAFEAAFEAAFEAAFEAAFE16
:103C6000AAFEF0FF000000000000000000000000BD
:103C70000000AAFEAAFE00000000000000000000F4
:103C8000000000000000E0FFAAFEAAFEAAFEAAFEB5
:103C9000AAFEAAFEAAFEAAFEAAFEAAFEAAFEAAFEE4
:103CA000AAFEAAFEAAFEAAFEAAFEAAFEAAFEAAFED4
:103CB000AAFEAAFEAAFEAAFEAAFEAAFEAAFEAAFEC4
:103CC000AAFEAAFEAAFEAAFECAFEAAFE00000000E4
:103CD0000000000000000000000000000000AAFE3C
:103CE000AAFE00000000000000000000000000002C
:103CF00000000000000000000000000000000000C4
:103D0000000000000000000000000000AAFEAAFE63
:103D1000AAFEAAFEAAFEAAFEAAFEAAFEAAFEAAFE63
:103D2000AAFEAAFEAAFEAAFEAAFEAAFEAAFEAAFE53
:103D3000AAFEAAFEAAFEAAFEAAFEAAFEAAFEAAFE43
:103D4000AAFEAAFEAAFEAAFEAAFEAAFECAFECAFEF3
:103D50000000000000000000000000000000000063
:103D60000000000000000000000000000000000053
:103D70000000000000000000000000000000000043
:103D80000000000000000000000000000000000033
:103D9000AAFEAAFEAAFEAAFEAAFEAAFEAAFEAAFEE3
:103DA000AAFEAAFEAAFEAAFEAAFEAAFEAAFEAAFED3
:103DB000AAFEAAFEAAFEAAFEAAFEAAFEAAFEAAFEC3
:103DC000AAFEAAFEAAFEAAFEAAFEAAFEAAFEAAFEB3
:103DD000CAFE00000000000000000000000000001B
:103DE00000000000000000000000000000000000D3
:103DF00000000000000000000000000000000000C3
:103E000000000000000000000000000000000000B2
:103E100000000000E0FFAAFEAAFEAAFEAAFEAAFE7B
:103E2000AAFEAAFEAAFEAAFEAAFEAAFEAAFEAAFE52
:103E3000AAFEAAFEAAFEAAFEAAFEAAFEAAFEAAFE42
:103E4000AAFEAAFEAAFEAAFEAAFEAAFEAAFEAAFE32
:103E5000AAFECAFEAAFE000000000000000000004A
:103E60000000000000000000000000000000000052
:103E70000000000000000000000000000000000042
:103E80000000000000000000000000000000000032
:103E900000000000000000000000AAFEAAFEAAFE2A
:103EA000AAFEAAFEAAFEAAFEAAFEAAFEAAFEAAFED2
:103EB000AAFEAAFEAAFEAAFEAAFEAAFEAAFEAAFEC2
:103EC000AAFEAAFEAAFEAAFEAAFEAAFEAAFEAAFEB2
:103ED000AAFEAAFEAAFEAAFEEBFF00000000000058
:103EE00000000000000000000000000000000000D2
:103EF00000000000000000000000000000000000C2
:103F000000000000000000000000000000000000B1
:103F100000000000000000000000000000000000A1
:103F2000AAFEAAFEAAFEAAFEAAFEAAFEAAFEAAFE51
:103F3000AAFEAAFEAAFEAAFEAAFEAAFEAAFEAAFE41
:103F4000AAFEAAFEAAFEAAFEAAFEAAFEAAFEAAFE31
:103F5000AAFEAAFEAAFEAAFEAAFE8AFE0000000091
:103F60000000000000000000000000000000000051
:103F70000000000000000000000000000000000041
:103F80000000000000000000000000000000000031
:103F90000000000000000000000000000000000021
:103FA0000000000008FECAFEAAFEAAFEAAFEAAFEA3
:103FB000AAFEAAFEAAFEAAFEAAFEAAFEAAFEAAFEC1
:103FC000AAFEAAFEAAFEAAFEAAFEAAFEAAFEAAFEB1
:103FD000AAFEAAFEAAFEAAFEAAFEAAFEAAFE000049
:103FE00000000000000000000000000000000000D1
:103FF00000000000000000000000000000000000C1
:1040000000000000000000000000000000000000B0
:1040100000000000000000000000000000000000A0
:10402000000000000000000000000000CAFECAFE00
:10403000AAFEAAFEAAFEAAFEAAFEAAFEAAFEAAFE40
:10404000AAFEAAFEAAFEAAFEAAFEAAFEAAFEAAFE30
:10405000AAFEAAFEAAFEAAFEAAFEAAFEAAFEAAFE20
:104060000000000000000000000000000000000050
:104070000000000000000000000000000000000040
:104080000000000000000000000000000000000030
:104090000000000000000000000000000000000020
:1040A0000000000000000000000000000000000010
:1040B0000000AAFECAFEAAFEAAFEAAFEAAFEAAFE48
:1040C000AAFEAAFEAAFEAAFEAAFEAAFEAAFEAAFEB0
:1040D000AAFEAAFEAAFEAAFEAAFEAAFEAAFEAAFEA0
:1040E000CAFE000000000000000000000000000008
:1040F00000000000000000000000000000000000C0
:1041000000000000000000000000000000000000AF
:10411000000000000000000000000000000000009F
:10412000000000000000000000000000000000008F
:104130000000000000000000AAFEAAFEAAFEAAFEDF
:10414000AAFEAAFEAAFEAAFEAAFEAAFEAAFEAAFE2F
:10415000AAFEAAFEAAFEAAFEAAFEAAFEAAFEAAFE1F
:10416000AAFEAAFE000000000000000000000000FF
:10417000000000000000000000000000000000003F
:10418000000000000000000000000000000000002F
:10419000000000000000000000000000000000001F
:1041A0000000000000006DFEAAFEAAFEAAFECAFEE4
:1041B000E9FE000000000000000000006BFDCAFEE8
:1041C000CAFECAFEAAFEAAFEAAFEAAFEAAFEAAFE6F
:1041D000AAFEAAFEAAFEAAFEAAFEAAFEAAFEAAFE9F
:1041E000AAFEAAFECAFE00000000000000000000B7
:1041F000000089FECAFEAAFEAAFEAAFE6DFE00000D
:1042000000000000000000000000000000000000AE
:10421000000000000000000000000000000000009E
:10422000000000000000000089FEAAFEAAFEAAFE0F
:10423000AAFEAAFECAFEAAFE0000000000000000BE
:1042400000000000AAFEAAFECAFEAAFEAAFEAAFE5E
:10425000AAFEAAFEAAFEAAFEAAFEAAFEAAFEAAFE1E
:10426000AAFEAAFEAAFE08FE000000000000000050
:1042700000000000AAFECAFEAAFEAAFEAAFEAAFE2E
:10428000AAFE89FE000000000000000000000000FF
:10429000000000000000000000000000000000001E
:1042A000000000000000000000000000CAFEAAFE9E
:1042B000AAFEAAFEAAFEAAFEAAFEAAFECAFE000046
:1042C000000000000000000000000000EBFEAAFE5D
:1042D000AAFEAAFEAAFEAAFEAAFECAFEAAFECAFE5E
:1042E000AAFECAFEAAFEE8FF0000000000000000CF
:1042F000000000000000CAFEAAFEAAFEAAFEAAFE56
:10430000AAFEAAFEAAFECAFE0000000000000000ED
:10431000000000000000000000000000000000009D
:104320000000000000000000000000000000A9FEE6
:10433000AAFEAAFEAAFEAAFEAAFEAAFEAAFEAAFE3D
:10434000CAFE0000000000000000000000000000A5
:10435000000000000000E9FE8AFEAAFE8AFECAFEF6
:1043600089FECAFEE0FF000000000000000000001F
:1043700000000000000000000000CAFEAAFEAAFE25
:10438000AAFEAAFEAAFEAAFEAAFEAAFEA9FE000096
:10439000000000000000000000000000000000001D
:1043A000000000000000000000000000000000000D
:1043B0000000CAFEAAFEAAFEAAFEAAFEAAFEAAFE45
:1043C000AAFEAAFEAAFE00000000000000000000F5
:1043D00000000000000000000000000000000000DD
:1043E00000000000000000000000000000000000CD
:1043F0000000000000000000000000000000AAFE15
:10440000AAFEAAFEAAFEAAFEAAFEAAFEAAFEAAFE6C
:10441000AAFE0000000000000000000000000000F4
:10442000000000000000000000000000000000008C
:10443000000000000000AAFEAAFEAAFEAAFEAAFE34
:10444000AAFEAAFEAAFEAAFEAAFE00000000000024
:10445000000000000000000000000000000000005C
:10446000000000000000000000000000000000004C
:10447000000000000000000000000000000000003C
:104480000000AAFEAAFEAAFEAAFEAAFEAAFEAAFE94
:10449000AAFEAAFEAAFE0000000000000000000024
:1044A000000000000000000000000000000000000C
:1044B00000000000000000000000AAFEAAFEAAFE04
:1044C000AAFEAAFEAAFEAAFEAAFEAAFEAAFE000054
:1044D00000000000000000000000000000000000DC
:1044E00000000000000000000000000000000000CC
:1044F00000000000000000000000000000000000BC
:10450000000000000000AAFEAAFEAAFEAAFEAAFE63
:10451000AAFEAAFEAAFEAAFEAAFE00000000000053
:10452000000000000000000000000000000000008B
:104530000000000000000000000000000000AAFED3
:10454000AAFEAAFEAAFEAAFEAAFEAAFEAAFEAAFE2B
:1045500089FE0000000000000000000000000000D4
:10456000000000000000000000000000000000004B
:10457000000000000000000000000000000000003B
:1045800000000000000000000000CAFEAAFEAAFE13
:10459000AAFEAAFEAAFEAAFEAAFEAAFEAAFE000083
:1045A000000000000000000000000000000000000B
:1045B00000000000000000000000000000000000FB
:1045C0000000AAFEAAFEAAFEAAFEAAFEAAFEAAFE53
:1045D000AAFECAFE0000000000000000000000006B
:1045E0000000000000000000000000006BFD8AFEDB
:1045F000AAFECAFEA9FEE0FF0000000000000000C5
:1046000000000000000000000000000000000000AA
:10461000CAFEAAFEAAFEAAFEAAFEAAFEAAFECAFE1A
:10462000AAFE0000000000000000000000000000E2
:10463000000000000000000000000000000000007A
:104640000000000000008AFEAAFEAAFEAAFEAAFE42
:10465000AAFECAFEE0FF000000000000000000000B
:10466000000000000000000000000000000008FE44
:10467000AAFEAAFEAAFEAAFEAAFEAAFE6BFD0000E2
:10468000000000000000000000000000000000002A
:1046900000000000000000F8AAFEAAFEAAFEAAFE82
:1046A000AAFEAAFEA9FE0000000000000000000013
:1046B00000000000000000000000000000000000FA
:1046C00000000000000000000000000000000000EA
:1046D00000000000000000000000000000000000DA
:1046E00000000000000000000000000000000000CA
:1046F0000000CAFEAAFEAAFEAAFEAAFEAAFECAFEE2
:10470000AAFE000000000000000000000000000001
:104710000000000000000000000000000000000099
:104720000000000000000000000000000000000089
:104730000000000000000000000000000000000079
:104740000000000000000000000000000000000069
:104750000000000000000000000000000000000059
:104760000000000000000000000000000000000049
:104770000000000089FEAAFEAAFEAAFEAAFEAAFE6A
:10478000AAFEAAFECAFE0000000000000000000011
:104790000000000000000000000000000000000019
:1047A0000000000000000000000000000000000009
:1047B00000000000000000000000000000000000F9
:1047C00000000000000000000000000000000000E9
:1047D00000000000000000000000000000000000D9
:1047E00000000000000000000000000000000000C9
:1047F0000000000000000000AAFEAAFEAAFEAAFE19
:10480000AAFEAAFEAAFEAAFEAAFEE9FE0000000079
:104810000000000000000000000000000000000098
:104820000000000000000000000000000000000088
:104830000000000000000000000000000000000078
:104840000000000000000000000000000000000068
:104850000000000000000000000000000000000058
:104860000000000000000000000000000000000048
:10487000000000000000000000000000AAFEAAFEE8
:10488000AAFEAAFEAAFEAAFEAAFEAAFEAAFECAFEC8
:104890000000000000000000000000000000000018
:1048A0000000000000000000000000000000000008
:1048B00000000000000000000000000000000000F8
:1048C00000000000000000000000000000000000E8
:1048D00000000000000000000000000000000000D8
:1048E00000000000000000000000000000000000C8
:1048F00000000000000000000000000000000000B8
:1049000009FFAAFEAAFEAAFEAAFEAAFEAAFEAAFE07
:10491000AAFE0000000000000000000000000000EF
:104920000000000000000000000000000000000087
:104930000000000000000000000000000000000077
:104940000000000000000000000000000000000067
:104950000000000000000000000000000000000057
:104960000000000000000000000000000000000047
:104970000000000000000000000000000000000037
:10498000000000000000AAFEAAFEAAFEAAFEAAFEDF
:10499000AAFEAAFEAAFE000000000000000000001F
:1049A0000000000000000000000000000000000007
:1049B00000000000000000000000000000000000F7
:1049C00000000000000000000000000000000000E7
:1049D00000000000000000000000000000000000D7
:1049E00000000000000000000000000000000000C7
:1049F00000000000000000000000000000000000B7
:104A000000000000000000000000ABFECAFEAAFE8D
:104A1000AAFEAAFEAAFEAAFEF0FF00000000000007
:104A20000000000000000000000000000000000086
:104A30000000000000000000000000000000000076
:104A40000000000000000000000000000000000066
:104A50000000000000000000000000000000000056
:104A60000000000000000000000000000000000046
:104A70000000000000000000000000000000000036
:104A80000000000000000000000000000000000026
:104A9000EAFECAFEAAFEAAFEAAFE08FF0000000067
:104AA0000000000000000000000000000000000006
:104AB00000000000000000000000000000000000F6
:104AC00000000000000000000000000000000000E6
:104AD00000000000000000000000000000000000D6
:104AE00000000000000000000000000000000000C6
:104AF00000000000000000000000000000000000B6
:104B000000000000000000000000000000000000A5
:104B100000000000E0FF89FEAAFEAAFE66FE00007B
:104B20000000000000000000000000000000000085
:104B30000000000000000000000000000000000075
:104B40000000000000000000000000000000000065
:104B50000000000000000000000000000000000055
:104B60000000000000000000000000000000000045
:104B70000000000000000000000001159079050011
:104B80000000000000000000000000000000000025
:104B90000000000000000000000000000000000015
:104BA0000000000000000000000000000000000005
:104BB0000000000000000000000000001C9FFFFF3C
:104BC000710800000000000000000000000000006C
:104BD00000000000000000000000000000000000D5
:104BE00000000000000000000000000000000000C5
:104BF000000000000000000000000000000691FF1F
:104C0000FFFFFF7202000000000000000000000033
:104C10000000000000000000000000000000000094
:104C20000000000000000000000000000000000084
:104C300000000000000000000000000000000081F3
:104C4000FFFFFFFFFFFF5E0000000000000000000C
:104C50000000000000000000000000000000000054
:104C60000000000000000000000000000000000044
:104C70000000000000000000000000000000000034
:104C800012FFFFFFFFFFFFFFE60000000000000033
:104C90000000000000000000000000000000000014
:104CA0000000000000000000000000000000000004
:104CB00000000000000000000000000000000000F4
:104CC00000005CFFFFFFFFFFFFFFFF0D0000000083
:104CD00000000000000000000000000000000000D4
:104CE00000000000000000000000000000000000C4
:104CF00000000000000000000000000000000000B4
:104D00000000000071FFFFFFFFFFFFFFFF07000033
:104D10000000000000000000000000000000000093
:104D20000000000000000000000000000000000083
:104D30000000000000000000000000000000000073
:104D400000000000000012FEFFFFFFFFFFFFFC005D
:104D50000000000000000000000000000000000053
:104D60000000000000000000000000000000000043
:104D70000000000000000000000000000000000033
:104D8000000000000000000000C3FCFFFFFFFFF573
:104D90007D00000000000000000000000000000096
:104DA0000000000000000000000000000000000003
:104DB00000000000000000103E4C4C4C492901004E
:104DC000000000000000000000000004A6C5DDDBBC
:104DD000C086030000000000000000000000000189
:104DE00029494C4C4C41110000000000000000001B
:104DF0000000000000000000003ADDFFFFFFFBBEE6
:104E0000672E0000000000000000000000000321E9
:104E10004F4B1801000000000000000000000000DF
:104E20002E67BEFBFFFFFFEB41000000000000000B
:104E3000000000000000000000000045F2FFFFFF3E
:104E4000FFFFF698150000000000000000000000C1
:104E50000000000000000000000000000000000052
:104E6000001598F6FFFFFFFFFFFF4C000000000059
:104E7000000000000000000000000000004AFBFFEE
:104E8000FFFFFFFFFFEB61000000000000000000DB
:104E90000000000000000000000000000000000012
:104EA00000000061EBFFFFFFFFFFFFFF4C00000071
:104EB00000000000000000000000000000000047AB
:104EC000F6FFFFFFFFFFFFFF7A0000000000000079
:104ED00000000000000000000000000000000000D2
:104EE00000000000007AFFFFFFFFFFFFFFF6470012
:104EF00000000000000000000000000000000000B2
:104F00000036D5FFFFFFFFFFFFFF7A000000000023
:104F10000000000000000000000000000000000091
:104F2000000000000000007AFFFFFFFFFFFFFFD539
:104F3000360000000000000000000000000000003B
:104F40000000001291FFFFFFFFFFFFF8700000005C
:104F5000000000000000000710171B1A150D0100CB
:104F600000000000000000000070F8FFFFFFFFFFDE
:104F7000FF9112000000000000000000000000008F
:104F800000000000000058E9FFFFFFFFF7A21F002C
:104F90000000000000000F36406CAAD9F1EBC99464
:104FA000483E2804000000000000001FA2F7FFFF99
:104FB000FFFFE958000000000000000000000000B2
:104FC00000000000000000000D6ADFFEFFF79A30CD
:104FD000000000000000175288E6FFFFFFFFFFFF00
:104FE000FFFFFFFBC46D3B08000000000000309A8B
:104FF000F7FFFEE06A0D0000000000000000000066
:1050000000000000000000000000000552787A6FE8
:10501000160000000000033EA1EAFFFFFFFFFFFFB4
:10502000FFFFFFFFFFFFFFFFCE8819000000000019
:1050300000156F7A785405000000000000000000A1
:105040000000000000000000000000000000000060
:10505000000000000000000092D1FFFFFFFFFFFFF3
:10506000FFFFFFFFFFFFFFFFFFFFFFFBB931000066
:105070000000000000000000000000000000000030
:105080000000000000000000000000000000000020
:10509000000000000000000000B6F7FFFFFFFFFF68
:1050A000FFFFFFFFFFFFFFFFFFFFFFFFFFFFFFDA35
:1050B00046000000000000000000000000000000AA
:1050C00000000000000000000000000000000000E0
:1050D00000000000000000000000B3FCFFFFFFFF25
:1050E000FFFFFFFFFFFFFFFFFFFFFFFFFFFFFFFFD0
:1050F000FFFFE83300000000000000000000000097
:10510000000000000000000000000000000000009F
:10511000000000000000000000000495F8FFFFFF01
:10512000FFFFFFFFFFFFFFFFFFFFFFFFFFFFFFFF8F
:10513000FFFFFFFFFFD41D00000000000000000083
:10514000000000000000000000000000000000005F
:1051500000000000000000000000000049D8FFFF30
:10516000FFFFFFFFFFFFFFFFFFFFFFFFFFFFFFFF4F
:10517000FFFFFFFFFFFFFFFFB7160000000000006A
:10518000000000000000000000000000000000001F
:10519000000000000000000000000000001EAAFF48
:1051A000FFFFFFFFFFFFFFFFFFFFFFFFFFFFFFFF0F
:1051B000FFFFFFFFFFFFFFFFFFFFF57A0300000087
:1051C00000000000000000000000000000000000DF
:1051D0000000000000000000000000000000015F6F
:1051E000F8FFFFFFFFFFFFFFFFFFFFFFFFFFFFFFD6
:1051F000FFFFFFFFFFFFFFFFFFFFFFFFFFC13100CA
:10520000000000000000000000000000000000009E
:10521000000000000000000000000000000000008E
:105220001EADFFFFFFFFFFFFFFFFFFFFFFFFFFFFC1
:10523000FFFFFFFFFFFFFFFFFFFFFFFFFFFFFFFC81
:1052400060000000000000000000000000000000FE
:10525000000000000000000000000000000000004E
:1052600000003CF6FFFFFFFFFFFFFFFFFFFFFFFF18
:10527000FFFFFFFFFFFFFFFFFFFFFFFFFFFFFFFF3E
:10528000FFFFA61B0000000000000000000000005F
:10529000000000000000000000365306000000007F
:1052A0000000000148FFFFFFFFFFFFFFFFFFFFFFC0
:1052B000FFFFFFFFFFFFFFFFFFFFFFFFFFFFFFFFFE
:1052C000FFFFFFFFF73D000000000000000002406C
:1052D0003600000000000000026AF0FFFFFFC80473
:1052E00000000000000FA2FFFFFFFFFFFFFFFFFF16
:1052F000FFFFFFFFFFFFFFFFFFFFFFFFFFFFFFFFBE
:10530000FFFFFFFFFFFFFF4000000000000004C799
:10531000FFFFFFF06A020000000B77FFFFFFFFFFB7
:10532000FDAE05000000001AEBFFFFFFFFFFFFFFCF
:10533000FFFFFFFFFFFFFFFFFFFFFFFFFFFFFFFF7D
:10534000FFFFFFFFFFFFFFFFFF4D02000000000512
:10535000B1FEFFFFFFFFFF7A0C000676FFFFFFFFA5
:10536000FFFFFFD036000000001DFFFFFFFFFFFF23
:10537000FFFFFFFFFFFFFFFFFFFFFFFFFFFFFFFF3D
:10538000FFFFFFFFFFFFFFFFFFFFFF850A00000099
:105390000036D0FFFFFFFFFFFFFF740575FFFFFF23
:1053A000FFFFFFFFFFEB6B000000001DFFFFFFFF93
:1053B000FFFFFFFFFFFFFFFFFFFFFFFFFFFFFFFFFD
:1053C000FFFFFFFFFFFFFFFFFFFFFFFFFF970D0046
:1053D0000000006BEBFFFFFFFFFFFFFFFF7574FF97
:1053E000FFFFFFFFFFFFFFEA68000000001DFFFF57
:1053F000FFFFFFFFFFFFFFFFFFFFFFFFFFFFFFFFBD
:10540000FFFFFFFFFFFFFFFFFFFFFFFFFFFFFF9714
:105410000D0000000068EAFFFFFFFFFFFFFFFF75C0
:105420000571FFFFFFFFFFFFFFCE32000000001DF0
:10543000FFFFFFFFFFFFFFFFFFFFFFFFFFFFFFFF7C
:10544000FFFFFFFFFFFFFFFFFFFFFFFFFFFFFFFF6C
:10545000FF850A0000000032CEFFFFFFFFFFFFFFC5
:105460007105000872FFFFFFFFFFFCAA05000000A6
:10547000001AEBFFFFFFFFFFFFFFFFFFFFFFFFFF34
:10548000FFFFFFFFFFFFFFFFFFFFFFFFFFFFFFFF2C
:10549000FFFFFF4D020000000005AFFDFFFFFFFF13
:1054A000FF72080000000268EEFFFFFEC204000069
:1054B0000000000FA1FFFFFFFFFFFFFFFFFFFFFF47
:1054C000FFFFFFFFFFFFFFFFFFFFFFFFFFFFFFFFEC
:1054D000FFFFFFFFFF4000000000000004C2FEFFCE
:1054E000FFEF6802000000000000003043000000F1
:1054F00000000000000147FFFFFFFFFFFFFFFFFF6D
:10550000FFFFFFFFFFFFFFFFFFFFFFFFFFFFFFFFAB
:10551000FFFFFFFFFFFFF73D00000000000000005D
:105520000043300000000000000000000000000008
:1055300000000000000000003CF6FFFFFFFFFFFF3F
:10554000FFFFFFFFFFFFFFFFFFFFFFFFFFFFFFFF6B
:10555000FFFFFFFFFFFFFFFFA61B00000000000092
:10556000000000000000000000000000000000003B
:10557000000000000000000000001EADFFFFFFFF64
:10558000FFFFFFFFFFFFFFFFFFFFFFFFFFFFFFFF2B
:10559000FFFFFFFFFFFFFFFFFFFC600000000000B8
:1055A00000000000000000000000000000000000FB
:1055B000000000000000000000000000015FF8FF94
:1055C000FFFFFFFFFFFFFFFFFFFFFFFFFFFFFFFFEB
:1055D000FFFFFFFFFFFFFFFFFFFFFFC131000000E4
:1055E00000000000000000000000000000000000BB
:1055F0000000000000000000000000000000001E8D
:10560000AAFFFFFFFFFFFFFFFFFFFFFFFFFFFFFFFF
:10561000FFFFFFFFFFFFFFFFFFFFFFFFF57A030024
:10562000000000000000000000000000000000007A
:10563000000000000000000000000000000000006A
:10564000000049D8FFFFFFFFFFFFFFFFFFFFFFFF45
:10565000FFFFFFFFFFFFFFFFFFFFFFFFFFFFB7168B
:10566000000000000000000000000000000000003A
:10567000000000000000000000000000000000002A
:10568000000000000495F8FFFFFFFFFFFFFFFFFF92
:10569000FFFFFFFFFFFFFFFFFFFFFFFFFFFFFFD445
:1056A0001D000000000000000000000000000000DD
:1056B00000000000000000000000000000000000EA
:1056C0000000000000000000BBFDFFFFFFFFFFFF28
:1056D000FFFFFFFFFFFFFFFFFFFFFFFFFFFFFFFFDA
:1056E000EB49000000000000000000000000000086
:1056F00000000000000000000000000000000000AA
:105700000000000000000000000000B8F7FFFFFFED
:10571000FFFFFFFFFFFFFFFFFFFFFFFFFFFFFFFF99
:10572000FFDA4C0000000000000000000000000054
:105730000000000000000000000000000000000069
:10574000000000000000000000000000000092D1F6
:10575000FFFFFFFFFFFFFFFFFFFFFFFFFFFFFFFF59
:10576000FFFBB93100000000000000000000000055
:105770000000000000000000000000000000000029
:1057800000000000000552787A6F1500000000004C
:10579000033EA1EAFFFFFFFFFFFFFFFFFFFFFFFF49
:1057A000FFFFCE8819000000000000166F7A7852C3
:1057B00005000000000000000000000000000000E4
:1057C0000000000000000B68DFFEFFF79A300000C9
:1057D00000000000175288E6FFFFFFFFFFFFFFFFFA
:1057E000FFFBC46D3B08000000000000309AF7FF8B
:1057F000FEDF680B00000000000000000000000059
:10580000000000000000000057E8FFFFFFFFF7A2C4
:105810001F000000000000000F36406DAAD9F1EB18
:10582000C994493E2804000000000000001FA2F7B0
:10583000FFFFFFFFE857000000000000000000002D
:105840000000000000000000001291FFFFFFFFFFBA
:10585000FFF87000000000000000000000071017B3
:105860001B1A150D01000000000000000000007070
:10587000F8FFFFFFFFFFFF91120000000000000093
:10588000000000000000000000000035D4FFFFFF12
:10589000FFFFFFFF7A000000000000000000000092
:1058A00000000000000000000000000000000000F8
:1058B000007AFFFFFFFFFFFFFFE03C000000000059
:1058C0000000000000000000000000000049FBFF95
:1058D000FFFFFFFFFFFF7A00000000000000000054
:1058E00000000000000000000000000000000000B8
:1058F0000000007AFFFFFFFFFFFFFFFF4C000000EA
:105900000000000000000000000000000000004C4B
:10591000FFFFFFFFFFFFFFEB610000000000000042
:105920000000000000000000000000000000000077
:10593000000000000063EDFFFFFFFFFFFFFF4C00D2
:105940000000000000000000000000000000000057
:10595000004CFFFFFFFFFFFFF59615000000000061
:105960000000000000000000000000000000000037
:10597000000000000000001999F5FFFFFFFFFFFF86
:105980004C000000000000000000000000000000CB
:105990000000003FE6FFFFFFF7B5672C00000000A6
:1059A000000000000000000003214F4A1801000021
:1059B000000000000000000000002C66B5F7FFFFAB
:1059C000FFEA4100000000000000000000000000AD
:1059D0000000000000103F4C4C4C47250100000027
:1059E00000000000000000000004AAC5DDDAC08C41
:1059F0000300000000000000000000000001244738
:105A00004C4C4C4111000000000000000000000060
:105A10000000000000000000000000000000000086
:105A20000000000000000000000000BFFDFFFFFFBD
:105A3000FFF67900000000000000000000000000F8
:105A40000000000000000000000000000000000056
:105A50000000000000000000000000000000000046
:105A600000000000000000000000000015FEFFFF25
:105A7000FFFFFFFFFC00000000000000000000002E
:105A80000000000000000000000000000000000016
:105A90000000000000000000000000000000000006
:105AA000000000000000000000000000000071FF86
:105AB000FFFFFFFFFFFFFF070000000000000000E6
:105AC00000000000000000000000000000000000D6
:105AD00000000000000000000000000000000000C6
