:020000040800F2
:100000000000022083000008810000088100000831
:100010008100000881000008810000080000000045
:100020000000000000000000000000008100000847
:100030008100000800000000810000088100000825
:10004000810000088100000881000008810000088C
:10005000810000088100000881000008810000087C
:10006000810000088100000881000008810000086C
:10007000810000088100000881000008810000085C
:10008000FEE726482649274A914205D050F8043B0E
:1000900041F8043B9142F9D1234824494FF0000232
:1000A000884203D040F8042B8842FBD100F040F88E
:1000B000FEE7034B1A681206FCD55860704700BF74
:1000C0000010014008B5411E11F8010F00B908BD2C
:1000D000FFF7EFFFF8E7054B9A689107FCD5187317
:1000E0009A68D207FCD5187B704700BF00300140EA
:1000F00010B5094C4FF08043C4F818340520FFF7C1
:10010000EAFFFF20FFF7E7FFC307FAD44FF480436D
:10011000C4F8183410BD00BF0000024090A50708C5
:10012000000000200000002000000020000000204F
:100130002DE9F04FA04EA14CD6F83038A048A14D83
:10014000A14F43F0010385B0C6F83038D6F84438E3
:1001500043F01003C6F84438236823F47013236077
:10016000236843F420132360636A23F47F6343F41A
:10017000EE636362A36843F42013A360934B8B2266
:100180009A6042F20C02DA60FFF79CFFD6F8303832
:100190008F4843F04203C6F83038D6F8443843F469
:1001A0008053C6F84438D4F8003423F0405323F485
:1001B0007C63C4F80034D4F8003443F0805343F433
:1001C0002863C4F80034D4F820346FF31733C4F82C
:1001D0002034D4F8203443F4AA0343F4A043C4F8F1
:1001E0002034D4F80C3443F08053C4F80C34D5F8E0
:1001F0000C3843F48043C5F80C38D5F8003823F4A4
:10020000404343F48043C5F800384FF48043C4F8BA
:1002100018348023C5F818386E4B40F24F321A60FC
:10022000D6F8303843F02003C6F83038D5F800341B
:10023000694E23F4402343F48023C5F800344FF47F
:100240000073C5F81834FFF73DFF1C2127FA01F3AE
:10025000DCB2C3F3031304F00F04F05CFFF729FFD3
:100260000439305DFFF725FF0B1DEFD15B48FFF729
:1002700029FF4FF03033019343F23053ADF808308B
:10028000062101AC0139605CFFF713FF0029F9D1A9
:100290005348544C494EFFF715FF5348FFF712FFE0
:1002A0004FF00073C5F818344FF080484FF4804782
:1002B000C6F818840620FFF70EFFC6F81874202031
:1002C000C6F81884FFF707FFC4F30740FFF703FFE2
:1002D000C4F30720FFF7FFFE0020FFF7FCFEC6F87F
:1002E0001874FFF705FF414B04F580549C42DDD1A3
:1002F0004FF40073C5F818343D48DFF804913D4CC5
:10030000DFF8C4802D4FFFF7DDFE4FF00073C5F816
:1003100018344FF0804B5FFA88FACAF58076A6420F
:10032000C7F818B44FF0060028BF2646FFF7D3FEE3
:100330004FF48043C7F818340220C7F818B4FFF709
:10034000CAFEC8F30740FFF7C6FEC8F30720FFF751
:10035000C2FE5046FFF7BFFECA46B144CA4522D18D
:100360004FF48043C7F81834FFF7C2FEA41BB04413
:10037000D1D14FF400762048C5F81864FFF7A2FEEB
:100380001E4A4FF00071C5F818140094009B934268
:100390000EDDC5F818640194019B9342F3DC019BC8
:1003A00001330193F8E71AF8010BFFF794FED5E744
:1003B000009B01330093E9E7003002400000024057
:1003C000040400080010024060EC530000100140DB
:1003D0001D040008003001405F0400082F040008DD
:1003E0004204000800E053003604000800905B005F
:1003F0004504000820A10700540400081FA10700BD
:10040000700400080D0A3E3E3E20424154434820FD
:10041000464C41534845522076320D0A0020204276
:1004200061746368206F66667365743D3078002080
:1004300073697A653D00202045726173696E672E8D
:100440002E2E0D0A00202057726974696E672E2EB9
:100450002E0D0A003E3E3E20444F4E450D0A003010
:10046000313233343536373839414243444546001A
:100470000C3A0C3A0C3A0C3A0C3A0C422C424D4ACB
:100480008E4A8E4A8E4A4D420C3ACB310C3A8E4AF5
:10049000105B305B305B305B305B305B305B305B24
:1004A000305BF05A6E4AEB39CB31EB390C3A0C3AEF
:1004B0000C3A0B42000000000000000000000000A9
:1004C0000000000000000000000000006D4A4D4ADE
:1004D0002C420C3AEB39EB390C3A2C428E4A8E4ABC
:1004E0002C420C3A0C3A0C3A0C3A0C3A0C3A0C3AB4
:1004F0000C3A0C3A0C3A0C3A0C3A0C3A0C3A0C3ACC
:100500000C422C424D428E4A8E4A8E4A4D424D42FA
:100510006E4AAF528E4A2C420C3A0C3A0C3A0C3AC4
:100520000C3A0C3A0C3A0C3A0C3A0C3A0C3A0C3A9B
:100530000C3A0C3A0C3A0C3A0C3A0C3A0C424D423A
:100540006D4A8E528E4A4D422C420C3A0C3A0C4265
:100550002C428E4A8E4A2C420C3A0C3A0C3AEB3919
:10056000EB39CB31CB31CB390C426E4ACF52105BD9
:10057000105B305B305B305B305B305B305B305B43
:10058000305B305B305B105BCF526D4A0C3ACB3145
:10059000AB31CB31EB390C3A0C3A0C3A0C3A0C3A01
:1005A0000C3A0C3A0C3A0C3A2C428E4A8E524D4A76
:1005B0002C420C3A0C3A0C3A0C3A0C3A0C3A0C3AE3
:1005C0000C3A0C3A0C3A0C3A0C3A0C3A0C3A0C3AFB
:1005D0000C3A0C3A0C3A0C3A0C3A0C3A0C3A0C3AEB
:1005E0000C3A0C3A0C3A0C3AEB39CB39EB396E4AEF
:1005F000F05A105B305B305B305B305B305B305B04
:10060000305B105BF05AAE524D420C3AEB39EB398D
:100610000C3A0C3A0C3A0C3A0C3A0C3A0C3A0C3AAA
:100620000C3A0C3A0C3A0C3A0C3A0C3A0C3A0C3A9A
:100630000C3A0C3A0C3A0C3A0C3A0C3A0C3A0C3A8A
:100640000C3A0C3A0C3A0C3A0C3A0C3A0C3A0C3A7A
:100650000C3A0C3A0C3A0C3A0C3A0C3A0C3A0C3A6A
:10066000EB390C3A4D4AAE526D4A2C420C3A0C3AD8
:100670000C3A0C3A0C3A0C3A2C426D4A6E4A4D42F6
:100680000C42EB390C3A2C428E4AAF528E4AAE5293
:100690008E4A6D4A2D422C420C420C3A0C3A0C3ACE
:1006A0000C3A0C3A0C3A0C3A0C3A0C3A0C3A0C3A1A
:1006B0000C3A0C3A0C3A0C3A0C3A0C3A0C3A0C3A0A
:1006C0000C3A0C3A0C3A0C3A0C3A0C3A0C3A0C3AFA
:1006D0000C3A0C3A0C3A0C3A0C3A0C3AEC39EB392D
:1006E000EB390C3AAE4A105B305B105BCF524D4297
:1006F000EB39CB390C3A0C3A0C3A0C3A0C3A0C3A2E
:100700000C3A0C3A0C3A0C3A0C3A0C3A0C3A0C3AB9
:100710000C3A0C3A0C3A0C3A0C3A0C3A0C3A0C3AA9
:100720000C3A0C3A0C3A0C3A0C3A0C3A0C3A0C3A99
:100730000C3A0C3A0C3A0C3A0C3A0C422C424D4A08
:100740006D4A6E4A4D42EB39EB314D42EF5A105B28
:10075000305B305B305B305B305B305B105B105B81
:10076000AE520C3ACB31CB390C3A0C3A0C3AEC4144
:100770000000000000000000000000000000000079
:1007800000000000000008422C420C420C3A0C3AD7
:100790000C3A0C3A0C3A0C426D4AAE526D4A0C427D
:1007A0000C3A0C3A0C3A0C3A0C3A0C3A0C3A0C3A19
:1007B0000C3A0C3A0C3A0C3A0C3A2C424D426D4A27
:1007C0008E4A8E4A6E4A2D420C420C3A4D428E4A57
:1007D0008E4A2C420C3A0C3A0C3A0C3A0C3A0C3A2F
:1007E0000C3A0C3A0C3A0C3A0C3A0C3A0C3A0C3AD9
:1007F0000C3A0C3A0C3A2C424D4A8E4A8E4A6D4ABB
:100800002C420C3A0C3A0C3A0C3A0C3A0C426D4A17
:10081000AE524D420C3AEB39EB39CB31CB31CB31C7
:100820000C3A4D42AE52EF5A105B105B305B305BBE
:10083000305B305B305B305B305B305B105B105BA0
:10084000F05AAE524D42EC39CB31CB31CB31EB3992
:100850000C3A0C3A0C3A0C3A0C3A0C3A0C3A0C3A68
:10086000EB390C3A2C428E4AAF528E4A2D420C4242
:100870000C3A0C3A0C3A0C3A0C3A0C3A0C3A0C3A48
:100880000C3A0C3A0C3A0C3A0C3A0C3A0C3A0C3A38
:100890000C3A0C3A0C3A0C3A0C3A0C3A0C3A0C3A28
:1008A0000C3A0C3AEB39EB39EB394D42CF52105B35
:1008B000305B305B305B305B305B305B305B305BE0
:1008C000105BEF5AAF526D4A2C42EB39EB39EB39E2
:1008D000EB390C3A0C3A0C3A0C3A0C3A0C3A0C3A0A
:1008E0000C3A0C3A0C3A0C3A0C3A0C3A0C3A0C3AD8
:1008F0000C3A0C3A0C3A0C3A0C3A0C3A0C3A0C3AC8
:100900000C3A0C3A0C3A0C3A0C3A0C3A0C3A0C3AB7
:100910000C3A0C3A0C3A0C3A0C3A0C3A0C3A2C427F
:100920008E4AAE524D420C420C3A0C3A0C3A0C3AFA
:100930000C3A0C3A4D428E4A6D4A2C420C3A0C3A13
:100940000C424D428E4A6E4A2C424D426D4A8E4AAE
:100950008E4A6D4A4D422C420C420C3A0C3A0C3AEB
:100960000C3A0C3A0C3A0C3A0C3A0C3A0C3A0C3A57
:100970000C3A0C3A0C3A0C3A0C3A0C3A0C3A0C3A47
:100980000C3A0C3A0C3A0C3A0C3A0C3A0C3A0C3A37
:100990000C3A0C3A0C3A0C3AEB39EB39CB314D426C
:1009A000EF5A305B305B105BAE522C42CB31EB39EF
:1009B0000C3A0C3A0C3A0C3A0C3A0C3A0C3A0C3A07
:1009C0000C3A0C3A0C3A0C3A0C3A0C3A0C3A0C3AF7
:1009D0000C3A0C3A0C3A0C3A0C3A0C3A0C3A0C3AE7
:1009E0000C3A0C3A0C3A0C3A0C3A0C3A0C3A0C3AD7
:1009F0000C3A0C3A0C3A0C3A0C422C424D424D4205
:100A00004D4A0C3ACB312C42AF52105B305B305B1D
:100A1000305B305B305B305B305B105BCF524D4204
:100A2000CB31CB31EB390C3A0C3AEB4100000000F2
:100A300000000000000000000000000000000000B6
:100A40000000AB5A0C3A0C3A0C3A0C3A0C3A0C3AFD
:100A50000C3A0C3A2D428E4A8E4A2C420C3A0C3AF1
:100A60000C3A0C3A0C3A0C3A0C3A0C3A0C3A0C3A56
:100A70000C3A0C3A0C3A4D428E4A8E4A6D4A4D421F
:100A80002C420C3A0C3A0C3A2C428E4A8E4A2C429A
:100A90000C3A0C3A0C3A0C3A0C3A0C3A0C3A0C3A26
:100AA0000C3A0C3A0C3A0C3A0C3A0C3A0C3A0C420E
:100AB0004D426E4A8E4A8E4A4D422C420C3A0C3AB6
:100AC0000C3A0C3A0C3A0C3A0C3A4D428E4A6E4AA9
:100AD0000C42EB39CB31CB31EB392D428E4ACF5220
:100AE000105B105B305B305B305B305B305B305BEE
:100AF000305B305B305B105BEF5AAF526D4A0C3AA3
:100B0000CB31CB31CB31EB39EC39EC390C3A0C3AF7
:100B10000C3A0C3A0C3A0C3A0C3A0C3A0C424D4254
:100B20006D4A8E4AAF52AE524D4A0C420C3A0C3AC4
:100B30000C3A0C3A0C3A0C3A0C3A0C3A0C3A0C3A85
:100B40000C3A0C420C420C3A0C3A0C3A0C3A0C3A65
:100B50000C3A0C3A0C3A0C3A0C3A0C3A0C3A0C3A65
:100B6000EB39EB39CB310C3AAE52105B305B305B7A
:100B7000305B305B305B305B305B305B305B105B3D
:100B8000105BEF528E4A4D420C3AEB39EB39EB39A0
:100B9000EB390C3A0C3A0C3A0C3A0C3A0C3A0C3A47
:100BA0000C3A0C3A0C3A0C3A0C3A0C3A0C3A0C3A15
:100BB0000C3A0C3A0C3A0C3A0C3A0C3A0C3A0C3A05
:100BC0000C3A0C3A0C3A0C3A0C3A0C3A0C3A0C3AF5
:100BD0000C3A0C3A0C3A0C3A0C426D4AAE526D4A41
:100BE0002C420C3A0C3A0C3A0C3A0C3A0C3A2C4285
:100BF0008E4A8E4A4D420C420C3A0C3A4D428E4A75
:100C00008E4A4D420C420C3A2C424D424D4A6E4A9D
:100C10006E4A6D4A4D422C420C3A0C3A0C3A0C3A50
:100C20000C3A0C3A0C3A0C3A0C3A0C3A0C3A0C3A94
:100C30000C3A0C3A0C3A0C3A0C3A0C3A0C3A0C3A84
:100C40000C3A0C3A0C3A0C3A0C3A0C3A0C3A0C3A74
:100C50000C3A0C3AEB39CB39EB318E4A105B305BF6
:100C6000105BEF5A6E4AEC39CB390C3A0C3A0C3A1D
:100C70000C3A0C3A0C3A0C3A0C3A0C3A0C3A0C3A44
:100C80000C3A0C3A0C3A0C3A0C3A0C3A0C3A0C3A34
:100C90000C3A0C3A0C3A0C3A0C3A0C3A0C3A0C3A24
:100CA0000C3A0C3A0C3A0C3A0C3A0C3A0C3A0C3A14
:100CB0000C3A0C3A0C3A0C3A0C422C422C420C3AAC
:100CC000CB31EC396E4AF05A305B305B305B305BD5
:100CD000305B305B305B105B105B8E4A0C3ACB3183
:100CE000EB390C3A0C3A0C3A00000000000000000E
:100CF00000000000000000000000000000000B32B7
:100D00000C420C3A0C3A0C3A0C3A0C3A0C3A0C3AAB
:100D10000C426D4A8E4A4D420C420C3A0C3A0C3A47
:100D20000C3A0C3A0C3A0C3A0C3A0C3A0C3AEB39B5
:100D30000C3A6D4A6D4A4D422C420C3A0C3A0C3A30
:100D40000C3A0C3A0C426D4A8E4A4D420C420C3A17
:100D50000C3A0C3A0C3A0C3A0C3A0C3A0C3A0C3A63
:100D60000C3A0C3A0C3A0C3A2C424D4A8E4A8E4AB6
:100D70006D4A4D420C3A0C3A0C3A0C3A0C3A0C3A89
:100D80000C3A0C3A0C3A0C424D424D420C3ACB31E3
:100D9000CB310C3A6D4AAF52F05A105B305B305B8E
:100DA000305B305B305B305B305B305B305B105B0B
:100DB000105BCF526E4A0C3AEB39CB31CB31EB3969
:100DC000EB390C3A0C3A0C3A0C3A0C3A0C3A0C3A15
:100DD0000C3A0C3A0C424D424D4AAE528E4A6D4A84
:100DE0006D4A8E4A6D4A4D420C420C3A0C3A0C3A0E
:100DF0000C3A0C3A0C3A0C3A0C3A0C420C422C428B
:100E00004D422C420C3A0C3A0C3A0C3A0C3A0C3A41
:100E10000C3A0C3A0C3A0C3A0C3A0C3A0C3AEB39C4
:100E2000CB39EB396E4AF05A305B305B305B305B6C
:100E3000305B305B305B305B305B305B305B105B7A
:100E4000105BCF528E4A4D42EC39CB31CB39EB3966
:100E5000EB390C3A0C3A0C3A0C3A0C3A0C3A0C3A84
:100E60000C3A0C3A0C3A0C3A0C3A0C3A0C3A0C3A52
:100E70000C3A0C3A0C3A0C3A0C3A0C3A0C3A0C3A42
:100E80000C3A0C3A0C3A0C3A0C3A0C3A0C3A0C3A32
:100E90000C3A0C3A4D428E4AAE524D420C3A0C3A44
:100EA0000C3A0C3A0C3A0C3A0C426D4AAE526D4A6E
:100EB0002C420C3A0C3A2C426D4A8E4A6D4A0C4236
:100EC0000C3A0C3A0C3A0C422C422C424D428E4ABF
:100ED0008E4A6D4A2D422C420C3A0C3A0C3A0C3A8E
:100EE0000C3A0C3A0C3A0C3A0C3A0C3A0C3A0C3AD2
:100EF0000C3A0C3A0C3A0C3A0C3A0C3A0C3A0C3AC2
:100F00000C3A0C3A0C3A0C3A0C3A0C3A0C3A0C3AB1
:100F1000EB39AA310C3ACF52105B305B105BCF52E9
:100F20004D42CB31EB390C3A0C3A0C3A0C3A0C3AB4
:100F30000C3A0C3A0C3A0C3A0C3A0C3A0C3A0C3A81
:100F40000C3A0C3A0C3A0C3A0C3A0C3A0C3A0C3A71
:100F50000C3A0C3A0C3A0C3A0C3A0C3A0C3A0C3A61
:100F60000C3A0C3A0C3A0C3A0C3A0C3A0C3A0C3A51
:100F70000C3A0C3A0C3A0C3A0C3A0C3A0C3AEC3962
:100F80002D42CF52105B305B305B305B305B305BAF
:100F9000305B305B105BCF524D42CB31CB31EB3904
:100FA0000C3A0C3A10420000000000000000000063
:100FB000000000000000000000000B3A0C3A0C3A60
:100FC0000C3A0C3A0C3A0C3A0C3A0C3A0C3A4D42A8
:100FD0008E4A6E4A2C420C3A0C3A0C3A0C3A0C3AB5
:100FE0000C3A0C3A0C3A0C3A0C3A0C3A0C3A2C42A9
:100FF0002C420C420C3A0C3A0C3A0C3A0C3A0C3A91
:101000000C424D428E4A4D420C420C3A0C3A0C3A7C
:101010000C3A0C3A0C3A0C3A0C3A0C3A0C3A0C3AA0
:101020000C3A0C424D428E4A6E4A4D4A2C420C3AC2
:101030000C3A0C3A0C3A0C3A0C3A0C3A0C3A0C3A80
:10104000EB39EB39EB39EC39EB39EB392C428E4A81
:10105000EF52105B105B105B305B305B305B305BE2
:10106000305B305B305B305B105BEF5AAF524D4210
:101070000C3ACB31CB31CB31EB39EB390C3A0C3A62
:101080000C3A0C3A0C3A0C3A0C3A0C3A0C3A2C4208
:101090004D4A8E4A8E528E4A4D4A2C422C424D4227
:1010A0008E4A8E4A2C420C3A0C3A0C3A0C3A0C3AC4
:1010B0000C3A0C422C424D426D4A8E4A8E4A6E4A80
:1010C0002D420C3A0C3A0C3A0C3A0C3A0C3A0C3AC7
:1010D0000C3A0C3A0C3A0C3A0C3AEB39CB39CB3986
:1010E0004D42EF52105B305B305B305B305B305B0E
:1010F000305B305B105B105B305B305B305B105BF8
:10110000105BEF52AE4A4D42EB39CB31CB39EB3964
:10111000EB390C3A0C3A0C3A0C3A0C3A0C3A0C3AC1
:101120000C3A0C3A0C3A0C3A0C3A0C3A0C3A0C3A8F
:101130000C3A0C3A0C3A0C3A0C3A0C3A0C3A0C3A7F
:101140000C3A0C3A0C3A0C3A0C3A0C3AEB392C4269
:101150006D4AAF526D4A0C420C3A0C3A0C3A0C3ABA
:101160000C3A0C424D42AE528E4A2C420C3A0C3A8A
:101170000C426D4A8E4A6E4A2C420C3A0C3A0C3A9A
:101180000C3A0C3A0C3A0C422D426D4A8E528E4A61
:101190006D4A4D422C420C420C420C3A0C3A0C3A2D
:1011A0000C3A0C3A0C3A0C3A0C3A0C3A0C3A0C3A0F
:1011B0000C3A0C3A0C3A0C3A0C3A0C3A0C3A0C3AFF
:1011C0000C3A0C3A0C3A0C3A0C3AEB39CB39CB319D
:1011D0004D42F05A105B105B105BAE520C3AEB3193
:1011E000EB390C3A0C3A0C3A0C3A0C3A0C3A0C3AF1
:1011F0000C3A0C3A0C3A0C3A0C3A0C3A0C3A0C3ABF
:101200000C3A0C3A0C3A0C3A0C3A0C3A0C3A0C3AAE
:101210000C3A0C3A0C3A0C3A0C3A0C3A0C3A0C3A9E
:101220000C3A0C3A0C3A0C3A0C3A0C3A0C3A0C3A8E
:101230000C3A0C3A0C3A2C424D420C3AEC398E4A9C
:10124000F05A305B305B305B305B305B305B305B87
:10125000105BF05A6E4AEB31CB31EB390C3A0C3A59
:10126000AB5A000000000000000000000000000079
:101270000000000000002B420C3A0C3A0C3A0C3AE9
:101280000C3A0C3A0C3A0C3A0C3A2C426D4A8E52FB
:101290004D420C420C3A0C3A0C3A0C3A0C3A0C3ACD
:1012A0000C3A0C3A0C3A0C3A0C3A0C3A0C3A0C3A0E
:1012B0000C3A0C3A0C3A0C3A0C3A0C3A0C3A4D42B5
:1012C0008E4A8E4A2C420C3A0C3A0C3A0C3A0C3AA2
:1012D0000C3A0C3A0C3A0C3A0C3A0C3A0C3A2C42B6
:1012E0006D4A6D4A2C420C420C3A0C3A0C3A0C3ABC
:1012F0000C3A0C3A0C3A0C3A0C3AEB39EB39CB314C
:10130000CB31CB310C3A6D4AAF52F05A105B105BC7
:10131000305B305B305B305B305B305B305B305B75
:10132000305B105BCF526D4A0C3ACB31CB31CB31B5
:10133000EB39EB390B3A0C3A0C3A0C3A0C3A0C3AC2
:101340000C3A0C3A0C3A0C3A0C426D4A8E4A8E52C8
:101350004D422C420C420C3A0C3A2C426D4AAE5291
:101360006D4A0C420C3A0C3A0C422C424D426D4AEA
:101370008E4A8E4A8E4A8E4A8E4AAE526E4A2C420F
:101380000C3A0C3A0C3A0C3A0C3A0C3A0C3A0C3A2D
:101390000C3A0C3A0C3A0C3AEC39EB392C42AE527E
:1013A000105B305B305B305B305B305B105B105B45
:1013B000EF5AEF5AEF5A105B305B305B105B105BFB
:1013C000105BCF52AE524D42EB39CB31CB31EB39C2
:1013D000EB390C3A0C3A0C3A0C3A0C3A0C3A0C3AFF
:1013E0000C3A0C3A0C3A0C3A0C3A0C3A0C3A0C3ACD
:1013F0000C3A0C3A0C3A0C3A0C3A0C3A0C3A0C3ABD
:101400000C3A0C3A0C3A0C3A0C3A4D428E4AAE5217
:101410002C420C3A0C3A0C3A0C3A0C3A0C3A2D424B
:101420008E4AAE524D4A0C3AEB390B3A4D428E4A37
:101430008E4A4D420C3A0C3A0C3A0C3A0C3A0C3AA1
:101440000C3A0C424D426D4A8E526E4A6D4A6D4ABC
:101450006D4A4D422C422C420C420C3A0C3A0C3A4A
:101460000C3A0C3A0C3A0C3A0C3A0C3A0C3A0C3A4C
:101470000C3A0C3A0C3A0C3A0C3A0C3A0C3A0C3A3C
:101480000C3A0C3A0C3AEB39CB31EC398E4A105B02
:10149000105B105BEF5A6E4AEB390C3A0C3A0C3A7F
:1014A0000C3A0C3A0C3A0C3A0C3A0C3A0C3A0C3A0C
:1014B0000C3A0C3A0C3A0C3A0C3A0C3A0C3A0C3AFC
:1014C0000C3A0C3A0C3A0C3A0C3A0C3A0C3A0C3AEC
:1014D0000C3A0C3A0C3A0C3A0C3A0C3A0C3A0C3ADC
:1014E0000C3A0C3A0C3A0C3A0C3A0C3A0C3A0C3ACC
:1014F0000C3A4D4A6D4A0C3ACB312D42EF52305BDB
:10150000305B305B305B305B305B305B305B105BA3
:10151000CF522C3AAA31CB310C3A0C3AEC390000BC
:1015200000000000000000000000000000000000BB
:1015300000000C420C3A0C3A0C3A0C3A0C3A0C3AB9
:101540000C3A0C3A0C3A0C424D428E4A4D4A0C422F
:101550000C3A0C3A0C3A0C3A0C3A0C3A0C3A0C3A5B
:101560000C3A0C3A0C3A0C3A0C3A0C3A0C3A0C3A4B
:101570000C3A0C3A0C3A0C3A0C3A2C426D4A8E4A10
:101580004D420C420C3A0C3A0C3A0C3A0C3A0C3ADA
:101590000C3A0C3A0C3A0C3A0C3A0C422C422C42C3
:1015A0000C3A0C3A0C3A0C3A0C3A0C3A0C3A0C3A0B
:1015B0000C3A0C3AEB39CB31AB31AB31EB392D4234
:1015C000AE52EF5A105B305B305B305B305B305BB0
:1015D000305B305B305B305B305B105B105BAE4A86
:1015E0004D42EB39CB31AB31CB31EB390C3AEB39E6
:1015F0000C3A0C3A0C3A0C3A0C3A0C3A0C3A0C3ABB
:101600000C3A0C3A2C426E4A6D4A4D420C420C3A4E
:10161000EB390C3A0C3A0C422D428E4AAE524D42F6
:101620002C424D426D4A6D4AAE528E528E4A6D4AE0
:101630004D422C424D428E4AAE524D420C420C3A23
:101640000C3A0C3A0C3A0C3A0C3A0C422C422C4212
:101650002D424D4A4D420C3A0C3A6E4AF05A305BDC
:10166000305B305B305B305B105BCF526E4A4D4A73
:101670008E4AAF52EF5A105B105B105B105B105B31
:10168000105BCF528E4A2C42EB39CB39CB39EB3938
:101690000C3A0C3A0C3A0C3A0C3A0C3A0C3A0C3A1A
:1016A0000C3A0C3A0C3A0C3A0C3A0C3A0C3A0C3A0A
:1016B0000C3A0C3A0C3A0C3A0C3A0C3A0C3A0C3AFA
:1016C0000C3AEB392C426E4AAE526D4A0C420C3A3F
:1016D0000C3A0C3A0C3AEB392C426D4A8E4A8E4A3F
:1016E0002C420C3AEB390C428E4AAF524D4A0C4216
:1016F0000C3A0C3A0C3A0C3A0C3A0C3A0C3A0C42B2
:101700004D426E4A4D4A2C422D426D4A6D4A6D4AF9
:101710006D4A4D422C420C420C3A0C3A0C3A0C3AAF
:101720000C3A0C3A0C3A0C3A0C3A0C3A0C3A0C3A89
:101730000C3A0C3A0C3A0C3A0C3A0C3A0C3A0C3A79
:10174000EB39EB39CB312D42CF52105B305B105B64
:10175000CF524D420C3A4D422C420C420C3A0C3ABC
:101760000C3A0C3A0C3A0C3A0C3A0C3A0C3A0C3A49
:101770000C3A0C3A0C3A0C3A0C3A0C3A0C3A0C3A39
:101780000C3A0C3A0C3A0C3A0C3A0C3A0C3A0C3A29
:101790000C3A0C3A0C3A0C3A0C3A0C3A0C3A0C3A19
:1017A0000C3A0C3A0C3A0C3A0C3AEB390C428E4A91
:1017B0006D4A0C3ACB310C3AAE52105B305B305B69
:1017C000305B305B305B305B305B305BF05A6D4AD6
:1017D000EB39CB31EB390B3A2B3200000000000023
:1017E00000000000000000000000000000000C42AB
:1017F0000C3A0C3A0C3A0C3A0C3A0C3A0C3A0C3AB9
:101800000C3A0C3A2C426D4A8E4A4D420C420C3A2C
:101810000C3A0C3A0C3A0C3A0C3A0C3A0C3A0C3A98
:101820000C3A0C3A0C3A0C3A0C3A0C3A0C3A0C3A88
:101830000C3A0C3A0C3A0C3A4D428E526D4A2C42FC
:101840000C3A0C3A0C3A0C3A0C3A0C3A0C3A0C3A68
:101850000C3A0C3A0C3A0C3A0C3A0C3A0C3A0C3A58
:101860000C3A0C3A0C3A0C3A0C3A0C3AEB39EB398C
:10187000CB31CB31AB310C3A6D4ACF52F05A105BC1
:10188000105B305B305B305B305B305B305B305B20
:10189000305B105BF05ACF526E4A0C3ACB31AB3111
:1018A000CB31EB39EB390C3A0C3A0C3A0C3A0C3A96
:1018B0000C3A0C3A0C3A0C3A0C3A0C3A0C3A0C3AF8
:1018C0004D426E4A6D4A0C420C3A0C3A0C3A0C3AB4
:1018D0000C3A0C3A0C424D4A8E4A8E4A6E4A8E4A57
:1018E0008E4A8E4A6D4A4D422C420C420C420C3AB2
:1018F0000C426E4AAE526D4A0C420C3A0C3A0C3A0B
:101900000C3A0C424D426D4A6D4A8E4A8E4A8E4ABE
:101910008E4A2C42EB396D4AEF5A105B305B305BDC
:10192000305B105B105B8E4AEC39CB310C3A4D4288
:101930008E4ACF52F05A105B105B305B105B105B2D
:10194000EF52AE526D420C3AEB39CB39CB39EB3911
:101950000C3A0C3A0C3A0C3A0C3A0C3A0C3A0C3A57
:101960000C3A0C3A0C3A0C3A0C3A0C3A0C3A0C3A47
:101970000C3A0C3A0C3A0C3A0C3A0C3A0C3A0C422F
:101980004D4A8E4A8E4A2C420C3A0C3A0C3A0C3A8A
:101990000C3A0C3A2C426E4A8E4A4D420C3AEC39C3
:1019A0000C3A6D4AAE528E4A2C420C3A0C3A0C3A22
:1019B0000C3A0C3A0C3A0C3A0C3A4C426D4A6D4ACD
:1019C0002C42EC390C3A2C424D426D4A8E4A8E4ADA
:1019D0006D4A4D422C420C420C3A0C3A0C3A0C3AED
:1019E0000C3A0C3A0C3A0C3A0C3A0C3A0C3A0C3AC7
:1019F0000C3A0C3A0C3A0C3A0C3A0C3AEB39CB391B
:101A0000EB394D42CF52105B305B105B8E4A0C3A83
:101A10004D42AF52AE526D4A2C420C420C3A0C3A37
:101A20000C3A0C3A0C3A0C3A0C3A0C3A0C3A0C3A86
:101A30000C3A0C3A0C3A0C3A0C3A0C3A0C3A0C3A76
:101A40000C3A0C3A0C3A0C3A0C3A0C3A0C3A0C3A66
:101A50000C3A0C3A0C3A0C3A0C3A0C3A0C3A0C3A56
:101A60000C3A0C3A0C3A0C3A4D426D4A4D420C3A43
:101A7000CB31CB316D4AEF5A105B305B305B305B62
:101A8000305B305B305B105B105BAF520C3ACB319C
:101A9000CB31EB39CB390000000000000000000022
:101AA0000000000000000000AB5A4D420C420C3A0E
:101AB0000C3A0C3A0C3A0C3A0C3A0C3A0C3A0C3AF6
:101AC0000C424D428E4A6D4A2C420C3A0C3A0C3A6A
:101AD0000C3A0C3A0C3A0C3A0C3A0C3A0C3A0C3AD6
:101AE0000C3A0C3A0C3A0C3A0C3A0C3A0C3A0C3AC6
:101AF0000C3A0C3A0C426D4A8E4A4D420C420C3A5A
:101B00000C3A0C3A0C3A0C3A0C3A0C3A0C3A0C3AA5
:101B10000C3A0C3A0C3A0C3A0C3A0C3A0C3A0C3A95
:101B20000C3A0C3A0C3AEB39CB31CB31CB31EC39A6
:101B30002D42AE52EF5A105B105B105B305B305B96
:101B4000305B305B305B305B305B105B105BCF52E7
:101B50008E4A2C42EB39CB31CB31CB39EB390C3AB5
:101B60000C3A0C3A0C3A0C3A0C3A0C3A0C3A0C3A45
:101B70000C3A0C3A0C3A0C3A0C3A0C3A2C426E4A9B
:101B80006E4A2C420C3A0C3A0C3A0C3A0C3A0C3A8B
:101B90000C422C426E4A8E4A8E4A6D4A4D422C426D
:101BA0002C420C3A0C3A0C3A0C3A0C3A0C426D4A64
:101BB0008E526D4A0C420C3A0C3A0C3A0C3A4D4299
:101BC0008E4AAE528E4A8E4A6D4A4D424D420C426A
:101BD000EB394D42CF52105B305B305B305B305B9A
:101BE000F05A6E4AEB39CB31CB31CB310C3A4D4206
:101BF0008E4ACF52EF5A105B105B305B105B105B6C
:101C0000CF528E4A2D420C3ACB31CB31CB39EB3906
:101C1000EB390C3A0C3A0C3A0C3A0C3A0C3A0C3AB6
:101C20000C3A0C3A0C3A0C3A0C3A0C3A0C3A0C3A84
:101C30000C3A0C3A0C3A0C3A0C3A2D428E4A8E521F
:101C40006D4A0C420C3A0C3A0C3A0C3A0C3A0C3AEB
:101C50002C424D424D422C420C3A0C3A2C428E52B0
:101C6000AE524C420C3A0C3A0C3A0C3A0C3A0C3A42
:101C70000C3A0C3A0C426D4A6D4A4D4A0C420C3AF1
:101C80000C3A0C3A0C3A2C424D4A8E4A8E4A8E52ED
:101C90006D4A2D420C420C3A0C3A0C3A0C3A0C3A72
:101CA0000C3A0C3A0C3A0C3A0C3A0C3A0C3A0C3A04
:101CB0000C3A0C3A0C3A0C3AEB39EB390C3A6E4AC6
:101CC000105B305B305BEF5A4D42EC390C3A6D4A99
:101CD000AE52AF528E4A4D4A2C420C420C3A0C3A4C
:101CE0000C3A0C3A0C3A0C3A0C3A0C3A0C3A0C3AC4
:101CF0000C3A0C3A0C3A0C3A0C3A0C3A0C3A0C3AB4
:101D00000C3A0C3A0C3A0C3A0C3A0C3A0C3A0C3AA3
:101D10000C3A0C3A0C3A0C3A0C3A0C3A0C3A0C3A93
:101D20000C3A0C3A4D426D4A4D420C3ACB31CB3114
:101D30002C3AAF52105B305B305B305B305B305B1A
:101D4000305B305B105BEF5A4D42CB31CB31CB393E
:101D50000B3A00000000000000000000000000003E
:101D6000000000004D338E4A2C420C3A0C3A0C3ADB
:101D70000C3A0C3A0C3A0C3A0C3A0C3A0C3A2C420B
:101D80006E4A8E4A2D420C3A0C3A0C3A0C3A0C3AF6
:101D90000C3A0C3A0C3A0C3A0C3A0C3A0C3A0C3A13
:101DA0000C3A0C3A0C3A0C3A0C3A0C3A0C3A0C3A03
:101DB0000C3A4D428E4A6D4A2C420C3A0C3A0C3A7F
:101DC0000C3A0C3A0C3A0C3A0C3A0C3A0C3A0C3AE3
:101DD0000C3A0C3A0C3A0C3A0C3A0C3A0C3AEB39F5
:101DE000CB39CB31CB31EB390C3A6E4ACF52105B49
:101DF000105B305B305B305B305B305B305B305BAB
:101E0000305B105B105BF05AAF524D420C3AAB3175
:101E1000AB31CB31EB39EB39EB390C3A0C3A0C3AAC
:101E20000C3A0C3A0C3A0C3A0C3A0C3A0C3A0C3A82
:101E30000C3A0C3A0C3A0C3A2C426E4A8E4A4D42FD
:101E40000C420C3A0C3A0C3A0C3A0C3A0C3A0C4252
:101E50002C424D422D422C420C3A0C3A0C3A0C3A90
:101E60000C3A0C3A0C3A0C3A0C426E4A8E524D42E5
:101E70000C3A0C3A0C3A0C3A0C426D4A8E4A6D4AB6
:101E80004D422C420C420C420C3AEB39CB312C3AED
:101E9000AF52105B305B305B305B305B105B8E4A67
:101EA000EC39CB31EB39EB39EB31EB310C3A4D42BC
:101EB0008E4ACF52F05A105B305B305B105BF05AA9
:101EC000AF526D4A0C3ACB31AB31CB31EB39EB39F8
:101ED0000C3A0C3A0C3A0C3A0C3A0C3A0C3A0C3AD2
:101EE0000C3A0C3A0C3A0C3A0C3A0C3A0C3A0C3AC2
:101EF0000C3A0C3A2C426D4A8E526E4A2C420C3AE5
:101F00000C3A0C3A0C3A0C3A0C3A0C3A0C3A0C4299
:101F10000C420C3A0C3A0C424D4AAE526D4A0C3A05
:101F20000C3A0C3A0C3A0C3A0C3A0C3A0C3A0C3A81
:101F30004D426D4A6D4A2C420C3A0C3A0C3A0C3A1E
:101F40000C3A0C3A0C3A2C424D4A8E4A8E528E4A2A
:101F50006D4A2D420C420C3A0C3A0C3A0C3A0C3AAF
:101F60000C3A0C3A0C3A0C3A0C3A0C3A0C3A0C3A41
:101F70000C3A0C3AEB39EB390C3AAE52105B305B51
:101F8000105BAF522C42CB39EB390C424D426D4ABB
:101F90008E4A8E4A6D4A4D422C420C420C3A0C3A03
:101FA0000C3A0C3A0C3A0C3A0C3A0C3A0C3A0C3A01
:101FB0000C3A0C3A0C3A0C3A0C3A0C3A0C3A0C3AF1
:101FC0000C3A0C3A0C3A0C3A0C3A0C3A0C3A0C3AE1
:101FD0000C3A0C3A0C3A0C3A0C3A0C3A0C3A2C42A9
:101FE0004D4A6D4A4D420C3AEB39CB31EB398E4AB2
:101FF000105B305B305B305B305B305B305B305BA9
:10200000105B105B8E4A0C3ACB31CB39CB390000D8
:1020100000000000000000000000000000000000C0
:10202000AD5AAF526D4A0C420C3A0C3A0C3A0C3A8B
:102030000C3A0C3A0C3A0C3A0C3A0C424D428E4A8D
:102040006D4A2C420C3A0C3A0C3A0C3A0C3A0C3AC7
:102050000C3A0C3A0C3A0C3A0C3A0C3A0C3A0C3A50
:102060000C3A0C3A0C3A0C3A0C3A0C3A0C3A4D42F7
:102070008E4AAE4A4D420C420C3A0C3A0C3A0C3A9B
:102080000C3A0C3A0C3A0C3A0C3A0C3A0C3A0C3A20
:102090000C3A0C3A0C3A0C3AEB39CB39CB31CB3108
:1020A000EC394D42AE52EF5A105B305B105B305B47
:1020B000305B305B305B305B305B305B105BF05A29
:1020C000CF528E4A2D42EB39CB31CB31CB39EB3964
:1020D0000C3A0C3A0C3A0C3A0C3A0C3A0C3A0C3AD0
:1020E0000C3A0C3A0C3A0C3A0C3A0C3A0C3A0C3AC0
:1020F0000C3A0C3A0C424D428E4A6D4A2C420C3A34
:102100000C3A0C3A0C3A0C3A0C3A0C3A0C3A0C4297
:102110000C3A0C3A0C3A0C3A0C3A0C3A0C3A0C3A8F
:102120000C3A0C3A2C428E4A8E522C420C3A0C3A03
:102130000C3A0C3A2C426D4A6D4A2C420C3A0C3A3D
:102140000C3A0C3A0C3AEB39CB390C3A8E4A105B0C
:10215000305B305B305B105B105BAE520C3ACB31C6
:10216000EB390C3AEB39EB39EB39EB390C3A4D42A0
:102170008E4AEF5A105B105B105B305B105BF05ABD
:10218000AE524D42EB39CB31CB31CB31EB39EB3960
:102190000C3A0C3A0C3A0C3A0C3A0C3A0C3A0C3A0F
:1021A0000C3A0C3A0C3A0C3A0C3A0C3A0C3A0C3AFF
:1021B0004D428E528E4A4D420C3A0C3A0C3A0C3A31
:1021C0000C3A0C3A0C3A0C3A0C3A0C3A0C3A0C3ADF
:1021D0000C3A0C3A2D426D4A2C420C3A0C3A0C3A0D
:1021E0000C3A0C3A0C3A0C3A0C3A0C426D4A6E4AD4
:1021F0004D420C420C3A0C3A0C3A0C3A0C3A0C3A5E
:102200000C3A0C3A0C3A2C424D4A8E4AAE528E523F
:102210006D4A2C420C420C3A0C3A0C3A0C3A0C3AED
:102220000C3A0C3A0C3A0C3A0C3A0C3A0C3AEB39A0
:10223000EB39EB392D42CF52105B305B105B6E4AAD
:102240000C3AEB39EB390C3A0C422C424D426D4AB8
:102250008E4A6D4A4D422D422C420C3A0C3A0C3AB1
:102260000C3A0C3A0C3A0C3A0C3A0C3A0C3A0C3A3E
:102270000C3A0C3A0C3A0C3A0C3A0C3A0C3A0C3A2E
:102280000C3A0C3A0C3A0C3A0C3A0C3A0C3A0C3A1E
:102290000C3A0C3A0C3A0C3A0C3A2C426D4A6E4A03
:1022A0002C420C3AEB39CB31CB314D42CF52105B43
:1022B000305B305B305B305B305B305B305B105BE6
:1022C000CF524D42CB31CB31CB3910000000000052
:1022D0000000000000000000000000000C428E52D0
:1022E0008E4A2C420C3A0C3A0C3A0C3A0C3A0C3A04
:1022F0000C3A0C3A0C3A0C3A2C428E4A6E4A2C425A
:102300000C3A0C3A0C3A0C3A0C3A0C3A0C3A0C3A9D
:102310000C3A0C3A0C3A0C3A0C3A0C3A0C3A0C3A8D
:102320000C3A0C3A0C3A0C422C428E4ACF52CF5205
:102330008E4A2C420C3A0C3A0C3A0C3A0C3A0C3AB3
:102340000C3A0C3A0C3A0C3A0C3A0C3A0C3A0C3A5D
:10235000EB39EB39CB31CB31EB392D426E4ACF52D1
:10236000105B105B305B305B305B305B305B305B55
:10237000305B305B105B105BF05A8E4A4D420C3A7A
:10238000CB31CB31CB31EB39EB39EB390C3A0C3A61
:102390000C3A0C3A0C3A0C3A0C3A0C3A0C3A0C3A0D
:1023A0000C3A0C3A0C3A0C3A0C3A0C3A0C3A0C3AFD
:1023B0000C3A2C426D4A8E4A4D420C3A0C3A0C3A79
:1023C0000C3A0C3A0C3A0C3A0C3A0C3A0C3A0C3ADD
:1023D0000C3A0C3A0C3A0C3A0C3A0C3A0C3A0C3ACD
:1023E0002D428E528E4A2C420C3A0C3A0C3A0C3A40
:1023F0004D426D4A4D420C420C3A0C3A0C3A0C3AA2
:102400000C3AEB39CB39EC398E4A105B305B305BE0
:10241000305B105B105BCF522C42CB31EB390C3A66
:102420000C3A0C3A0C3AEB39CB39EB390C3A4D42B9
:102430008E4ACF52F05A105B305B3063105BF05A1B
:10244000AE524D420C3ACB31CB31CB39EB39EB3973
:102450000C3A0C3A0C3A0C3A0C3A0C3A0C3A0C3A4C
:102460000C3A0C3A0C3A0C3A0C3A2C426D4A8E5209
:102470006D4A2C420C3A0C3A0C3A0C3A0C3A0C3A93
:102480000C3A0C3A0C3A0C3A0C3A0C3A0C3A0C3A1C
:102490000C422C420C3A0C3A0C3A0C3A0C3A0C3ADC
:1024A0000C3A0C3A0C3A4D426E4A6D4A2C420C3AA8
:1024B0000C3A0C3A0C3A0C3A0C3A0C3A0C3A0C3AEC
:1024C0000C3AEC390C3A2C426D4A8E4AAE528E4A86
:1024D0006D4A2D420C420C3A0C3A0C3A0C3A0C3A2A
:1024E0000C3A0C3A0C3A0C3A0C3AEB39CB31CB3172
:1024F0006D4AF05A305B305BCF524D42EB39EB39CD
:10250000EB390C3A0C3A0C3A0C422C424D4A6E4ACA
:102510006E4A6D4A4D420C420C3A0C3A0C3A0C3A57
:102520000C3A0C3A0C3A0C3A0C3A0C3A0C3A0C3A7B
:102530000C3A0C3A0C3A0C3A0C3A0C3A0C3A0C3A6B
:102540000C3A0C3A0C3A0C3A0C3A0C3A0C3A0C3A5B
:102550000C3A0C3A0C422D426E4A6D4A0C3A0C3A37
:10256000EC39CB39AB310C3AAE52105B305B305B9F
:10257000305B305B305B305B305B105BF05A8E4A17
:10258000EC39CB31AB31100000000000000000003E
:1025900000000000000000004D426D4A8E4A6D4A66
:1025A0002C420C3A0C3A0C3A0C3A0C3A0C3A0C3AD3
:1025B0000C3A0C3A2C426D4A8E4A4D420C420C3A6F
:1025C0000C3A0C3A0C3A0C3A0C3A0C3A0C3A0C3ADB
:1025D0000C3A0C3A0C3A0C3A0C3A0C3A0C3A0C3ACB
:1025E0002C424D4A8E4A8E52AE52AE52AE524D429F
:1025F0000C3A0C3A0C3A0C3A0C3A0C3A0C3A0C3AAB
:102600000C3A0C3A0C3A0C3A0C3AEB39CB31CB3150
:10261000CB310C3A4D42CF52F05A105B305B305BFD
:10262000305B305B305B305B305B305B305B105B72
:10263000105BCF526E4A0C3ACB31CB31CB31EB39F8
:10264000EB39EC390C3A0C3A0C3A0C3A0C3A0C3A9D
:102650000C3A0C3A0C3A0C3A0C3A0C3A0C3A0C3A4A
:102660000C3A0C3A0C3A0C3A0C3A0C3A0C3A0C4232
:102670004D428E526E4A2C420C3A0C3A0C3A0C3AAD
:102680000C3A0C3A0C3A0C3A0C3A0C3A0C3A0C3A1A
:102690000C3A0C3A0C3A0C3A0C3A0C3A4D4A8E521F
:1026A0004D4A0C420C3A0C3A0C3A2C424D426D4ABF
:1026B0004D420C3A0C3A0C3A0C3A0C3A0C3A0C3AA1
:1026C000EB39EB396D4AF05A305B305B305B105BB5
:1026D000105BEF5A4D42CB31EB390C3A0C3A0C3AC5
:1026E0000C3A0C3AEB39EB39CB39EB390C3A4D4219
:1026F0008E4AEF5A105B305B305B105B105BEF5A19
:10270000AE524D420C3ACB31CB31CB39EB390C3A8E
:102710000C3A0C3A0C3A0C3A0C3A0C3A0C3A0C3A89
:102720000C3A0C3A0C424D42AE526E4A2D420C3AD3
:102730000C3A0C3A0C3A0C3A0C3A0C3A0C3A0C3A69
:102740000C3A0C3A0C3A0C3A0C3A0C3A0C3A0C3A59
:102750000C3A0C3A0C3A0C3A0C3A0C3A0C3A0C3A49
:102760000C426D4A8E4A4D420C420C3A0C3A0C3ADD
:102770000C3A0C3A0C3A0C3A0C3A0C3A0C3A0C3A29
:10278000EB390C3A2C424D426D4A8E4AAE528E4A7B
:102790004D4A2C420C420C3A0C3A0C3A0C3A0C3A88
:1027A0000C3A0C3A0C3AEB39CB31EC39AE52105BA7
:1027B000305B105BAE522C42EB39EB390C3A0C3AE1
:1027C0000C3A0C3A0C3A0C3A2C424D426D4A8E4A65
:1027D0008E4A4D4A2C420C420C3A0C3A0C3A0C3AB6
:1027E0000C3A0C3A0C3A0C3A0C3A0C3A0C3A0C3AB9
:1027F0000C3A0C3A0C3A0C3A0C3A0C3A0C3A0C3AA9
:102800000C3A0C3A0C3A0C3A0C3A0C3A0C3A0C3A98
:102810000C426D4A8E522C420C3A0C3AEC39EB3990
:10282000CB31CB314D42EF5A305B305B305B305BAC
:10283000305B305B305B305B105BCF522C42AB3196
:10284000AA31084200000000000000000000000063
:10285000000000000B2A2C426D4A6D4A2C420C42AB
:102860000C3A0C3A0C3A0C3A0C3A0C3A0C3A0C3A38
:102870000C424D428E4A8E4A2C420C3A0C3A0C3A8B
:102880000C3A0C3A0C3A0C3A0C3A0C3A0C3A0C3A18
:102890000C3A0C3A0C3A0C3A0C424D426D4A8E4AB4
:1028A0008E4A4D4A4D426D4A8E526D4A2C420C3A28
:1028B0000C3A0C3A0C3A0C3A0C3A0C3A0C3A0C3AE8
:1028C0000C3AEB39EB39CB31AB31CB312C428E4A60
:1028D000CF52105B105B105B305B305B305B305B6A
:1028E000305B305B305B305B105BEF5AAE522C429A
:1028F000EB39CB31CB31CB31EB39EB39EB390C3A0E
:102900000C3A0C3A0C3A0C3A0C3A0C3A0C3A0C3A97
:102910000C3A0C3A0C3A0C3A0C3A0C3A0C3A0C3A87
:102920000C3A0C3A0C3A0C3A0C3A0C3A2C426E4ADD
:102930008E524D420C420C3A0C3A0C3A0C3A0C3A7C
:102940000C3A0C3A0C3A0C3A0C3A0C3A0C3A0C3A57
:102950000C3A0C3AEB390C426D4A8E4A4D420C420D
:102960000C3A0C3A0C3A2C424D4A6E4A4D420C3A03
:102970000C3A0C3A0C3A0C3A0C3A0C3AEB39CB3193
:102980002D42CF52105B305B305B105B105BEF5A17
:102990006D42EB39EB39EB390C3A0C3A0C3A0C3A04
:1029A0000C3AEC39EB39CB39CB31EB310C3A4D42A7
:1029B000AE52EF5A105B305B305B305B105BEF5216
:1029C0008E4A4D420C3ACB31AA31EB390C3A0C3AD3
:1029D0000C3A0C3A0C3A0C3A0C3A0C3A0C3A0C3AC7
:1029E0002C426E4A8E524D420C42EB390C3A0C3A54
:1029F0000C3A0C3A0C3A0C3A0C3A0C3A0C3A0C3AA7
:102A00000C3A0C3A0C3A0C3A0C3A0C3A0C3A0C3A96
:102A10000C3A0C3A0C3A0C3A0C3A0C3A2C428E4ACC
:102A20006D4A0C420C3A0C3A0C3A0C3A0C3A0C3AFD
:102A30000C3A0C3A0C3A0C3A0C3A0C3A0C3A0C3A66
:102A40000C3A0C3A2C424D426D4A8E4A8E4A6D4ADF
:102A50004D422C420C420C3A0C3A0C3A0C3A0C3ACD
:102A60000C3ACB39CB312D42EF52105B305B105B0F
:102A70008E4A0C3ACB31EB390C3A0C3A0C3A0C3A00
:102A80000C3A0C3A0C3A0C3A2C424D426E4AAE5279
:102A90008E4A4D422C420C420C3A0C3A0C3A0C3AFB
:102AA0000C3A0C3A0C3A0C3A0C3A0C3A0C3A0C3AF6
:102AB0000C3A0C3A0C3A0C3A0C3A0C3A0C3A0C3AE6
:102AC0000C3A0C3A0C3A0C3A0C3A0C3A2C428E4A1C
:102AD0008E4A0C3AEB390C3A0C3AEB39CB31CB310C
:102AE0000C3AAF52105B305B305B305B305B305B7D
:102AF000305B305B305BEF5A6D4AEB39AB31100025
:102B000000000000000000000000000000000000C5
:102B10000C3A0C3A2C424D422C420C420C3A0C3AE4
:102B20000C3A0C3A0C3A0C3A0C3A0C3A0C3A2C424D
:102B30006D4A8E4A4D420C420C3A0C3A0C3A0C3A11
:102B40000C3A0C3A0C3A0C3A0C3A0C3A0C3A0C3A55
:102B50000C3A2C426D4AAE528E4A6D4A4D420C429E
:102B60000C422C426D4A8E4A4D420C420C3A0C3AB1
:102B70000C3A0C3A0C3A0C3A0C3A0C3AEB39CB3191
:102B8000CB31CB310C3A4D42AE52105B105B305B17
:102B9000105B305B305B305B305B305B305B305BFD
:102BA000105BF05ACF526D420C3AAB31AB31CB31A6
:102BB000EB39EB39EB390C3A0C3A0C3A0C3A0C3A4B
:102BC0000C3A0C3A0C3A0C3A0C3A0C3A0C3A0C3AD5
:102BD0000C3A0C3A0C3A0C3A0C3A0C3A0C3A0C3AC5
:102BE0000C3A0C3A0C3A0C3A0C3A4D428E526E4A60
:102BF0002C420C3A0C3A0C3A0C3A0C3A0C3A0C3A7D
:102C00000C3A0C3A0C3A0C3A0C3A0C3A0C3A0C3A94
:102C1000EB392C426D4A6D4A2D420C420C3A0C3A6B
:102C20000C3A2C428E4A8E4A2C420C3A0C3A0C3A00
:102C30000C3A0C3A0C3A0C3AEB39CB310C3AAE5216
:102C4000105B305B305B305B105BF05A8E4AEB39C7
:102C5000CB390C3A0C3A0C3A0C3A0C3A0C3A0C3A86
:102C6000EC39EB39EB39CB31CB31EB390C3A6D4ADE
:102C7000AF52105B105B305B305B105B105BEF5250
:102C80008E4A2D42EB39CB31CB31EB39EB390C3A53
:102C90000C3A0C3A0C3A0C3A0C3A0C3A4D42AE5201
:102CA0006E4A2C420C3A0C3A0C3A0C3A0C3A0C3A5A
:102CB0000C3A0C3A0C3A0C3A0C3A0C3A0C3A0C3AE4
:102CC0000C3A0C3A0C3A0C3A0C3A0C3A0C3A0C3AD4
:102CD0000C3A0C3A0C3A0C3A6D4A8E4A2C420C4291
:102CE0000C3A0C3A0C3A0C3A0C3A0C3A0C3A0C3AB4
:102CF0000C3A0C3A0C3A0C3A0C3A0C3A0C3A0C3AA4
:102D00000C3A0C424C426D4A8E4A8E528E4A4D4AC3
:102D10002D420C420C420C3A0C3A0C3AEB39CB31B6
:102D2000EB316E4A105B305B305BCF524D42EB397A
:102D3000CB39EC390C3A0C3A0C3A0C3A0C3A0C3AC6
:102D40000C3A0C3A0C3A0C420C424D428E4AAE52AE
:102D50006E4A4D422C420C420C3A0C3A0C3A0C3A58
:102D60000C3A0C3A0C3A0C3A0C3A0C3A0C3A0C3A33
:102D70000C3A0C3A0C3A0C3A0C3A0C3A0C3A0C3A23
:102D80000C3A0C3A0C3A0C424D4AAE524D420C3AB7
:102D90000C3A0C3A0C3AEC39CB39AB31CB318E4A88
:102DA000105B105B305B305B305B305B305B305B0B
:102DB000105B105BAF522C42EB3929290000000058
:102DC0000000000000000000000000000C3A0C3A77
:102DD0000C3A0C420C420C3A0C3A0C3A0C3A0C3AB3
:102DE0000C3A0C3A0C3A0C3A0C3A0C424D42AE52A8
:102DF0006D4A2C420C3A0C3A0C3A0C3A0C3A0C3A0A
:102E00000C3A0C3A0C3A0C3A0C3A0C3A0C424D4241
:102E10008E4A8E4A4D4A0C420C420C3A0C3A0C42F5
:102E20004D42AE526E4A2C420C3A0C3A0C3A0C3AD5
:102E30000C3A0C3AEB39CB39CB31AB31EB392D4273
:102E40008E4AEF52105B305B305B305B305B305B47
:102E5000305B305B305B305B305B105BCF526E4A77
:102E60002C42CB31AA31CB31CB39EB390C3A0C3A6D
:102E70000C3A0C3A0C3A0C3A0C3A0C3A0C3A0C3A22
:102E80000C3A0C3A0C3A0C3A0C3A0C3A0C3A0C3A12
:102E90000C3A0C3A0C3A0C3A0C3A0C3A0C3A0C3A02
:102EA0000C3A0C3A0C3A2C426D4A8E4A4D420C4276
:102EB0000C3A0C3A0C3A0C3A0C3A0C3A0C3A0C3AE2
:102EC0000C3A0C3A0C3A0C3A0C3A0C3A0C3A2C42AA
:102ED0006D4A6D4A2C420C3A0C3A0C3A0C424D4267
:102EE0008E526D4A0C420C3A0C3A0C3A0C3A0C3A9F
:102EF0000C3A0C3AEB39CB31EB398E4A105B305B34
:102F0000305B305B105B105B8E4AEC39CB31EB39B8
:102F10000C3A0C3A0C3A0C3A0C3A0C3A0C3A0C3A81
:102F2000EB39EB39CB31CB31CB31EC392D428E4AF9
:102F3000CF52105B105B305B105B105BF05ACF52CE
:102F40006E4A2C42EC39CB31CB31EB39EB390C3AB0
:102F50000C3A0C3A0C3A2C426E4A8E4A4D420C3ACC
:102F6000EB390C3A0C3A0C3A0C3A0C3A0C3A0C3A53
:102F70000C3A0C3A0C3A0C3A0C3A0C3A0C3A0C3A21
:102F80000C3A0C3A0C3A0C3A0C3A0C3A0C3A0C3A11
:102F90000C3A2C428E4A6D4A0C420C3A0C3A0C3ACE
:102FA0000C3A0C3A0C3A0C3A0C3A0C3A0C3A0C3AF1
:102FB0000C3A0C3A0C3A0C3A0C3A0C3A0C3A0C3AE1
:102FC0000C3A2C424D426D4AAE52AE526E4A4D42C0
:102FD0002C420C420C3A0C3AEB39CB310C3AAE5243
:102FE000105B305B105BCF522C42AB31CB390C3ACB
:102FF0000C3A0C3A0C3A0C3A0C3A0C3A0C3A0C3AA1
:103000000C3A0C3A0C3A0C420C422D426E4A8E4A53
:103010008D4A6D4A2C420C420C3A0C3A0C3A0C3A4E
:103020000C3A0C3A0C3A0C3A0C3A0C3A0C3A0C3A70
:103030000C3A0C3A0C3A0C3A0C3A0C3A0C3A0C3A60
:103040000C3A2C426E4A8E4A2C42EB390C3A0C3A1E
:103050000C3A0C3AEB39CB31CB312D42CF52105BCD
:10306000305B305B305B305B305B305B305B105B28
:10307000EF5A6D4A0C3AAD3100000000000000002C
:1030800000000000000000000C420C3AEB390C3A42
:103090000C3A0C3A0C3A0C3A0C3A0C3A0C3A0C3A00
:1030A0000C3A0C3A0C3A0C3A2C426D4A8E4A4D427C
:1030B0000C420C3A0C3A0C3A0C3A0C3A0C3A0C3AD8
:1030C0000C3A0C3A0C3A0C3A0C3A2C424D422C4237
:1030D0002C420C3A0C3A0C3A0C3A0C3A2C428E4ADE
:1030E000AE524D420C420C3A0C3A0C3AEC39EB39E8
:1030F000CB31CB31CB310C3A6D4AAF52F05A105B29
:10310000305B305B305B305B305B305B305B305B67
:10311000305B105BF05AAF524D420C3ACB31AB31C1
:10312000CB31EB39EB390C3A0C3A0C3A0C3A0C3AFD
:103130000C3A0C3A0C3A0C3A0C3A0C3A0C3A0C3A5F
:103140000C3A0C3A0C3A0C3A0C3A0C3A0C3A0C3A4F
:103150000C3A0C3A0C3A0C3A0C3A0C3A0C3A0C3A3F
:103160000C3A0C424D428E526D4A2C420C3A0C3AAB
:103170000C3A0C3A0C3A0C3A0C3A0C3A0C3A0C3A1F
:103180000C3A0C3A0C3A0C3A0C3A2C426D4A4D4A25
:103190000C420C3A0C3A0C3A0C426D4AAE522C429C
:1031A000EB390C3A0C3A0C3A0C3A0C3A0C3A0C3A11
:1031B000EB39CB39EB396E4A105B305B305B305BFF
:1031C000305B105BAF520C3ACB31EB390C3A0C3A16
:1031D0000C3A0C3A0C3A0C3A0C3A0C3A0C3A0C3ABF
:1031E000EB39EB39CB31CB31CB310C3A4D42AE52CE
:1031F000EF5A105B105B305B105B105BEF528E4A36
:103200004D420C42EC39CB39EB39EB39EB390C3A06
:103210000C424D428E526D4A0C42EB390C3A0C3A3C
:103220000C3A0C3A0C3A0C3A0C3A0C3A0C3A0C3A6E
:103230000C3A0C3A0C3A0C3A0C3A0C3A0C3A0C3A5E
:103240000C3A0C3A0C3A0C3A0C3A0C3A0C3A6D4ADD
:10325000AE4A4D420C420C3A0C3A0C3A0C3A0C3A3B
:103260000C3A0C3A0C3A0C3A0C3A0C3A0C3A0C3A2E
:103270000C3A0C3A0C3A0C3A0C3A0C3A0C3A0C3A1E
:103280000C3A2C424D428E4AAE528E526D4A4D42FD
:103290000C420C3ACB39CB312D42CF52105B305B14
:1032A000105B8E52EC39CB31EB390C3A0C3A0C3ABC
:1032B0000C3A0C3A0C3A0C3A0C3A0C3A0C3A0C3ADE
:1032C0000C3A0C3A0C3A0C420C422D426D4A8E4A92
:1032D0006D4A4D4A2C420C420C3A0C3A0C3A0C3ACC
:1032E0000C3A0C3A0C3A0C3A0C3A0C3A0C3A0C3AAE
:1032F0000C3A0C3A0C3A0C3A0C3A0C3A0C3A4D4255
:103300008E526D4A0C420C3A0C3A0C3A0C3A0C3A7A
:10331000EB39CB39CB31EB396E4AF05A105B305B6D
:10332000305B305B305B305B305B305B105BAE52F0
:103330004D42CB39000000000000000000000000FA
:10334000000000000B3A0C3A0C3A0C3A0C3A0C3ADA
:103350000C3A0C3A0C3A0C3A0C3A0C3A0C3A0C3A3D
:103360000C3A0C3A0C424D428E4A6E4A2C420C3AB0
:103370000C3A0C3A0C3A0C3A0C3A0C3A0C3A0C3A1D
:103380000C3A0C3A0C3A0C3A0C3A0C420C3A0C3A05
:103390000C3A0C3A0C3A0C3A0C3A6D4AAE526E4A60
:1033A0002C420C3A0C3AEB39CB39CB31CB31EB39DF
:1033B0002C428E4ACF52105B105B105B105B305B6F
:1033C000305B305B305B305B305B105B105BCF524F
:1033D0006E4A0C3ACB31CB31CB31CB39EB390C3A8D
:1033E0000C3A0C3A0C3A0C3A0C3A0C3A0C3A0C3AAD
:1033F0000C3A0C3A0C3A0C3A0C3A0C3A0C3A0C3A9D
:103400000C3A0C3A0C3A0C3A0C3A0C3A0C3A0C3A8C
:103410000C3A0C3A0C3A0C3A0C3A0C3A0C3A0C3A7C
:103420002C428E4A8E4A2D420C3A0C3A0C3A0C3AF7
:103430000C3A0C3A0C3A0C3A0C3A0C3A0C3A0C3A5C
:103440000C3A0C3A0C424D4A8E4A4D420C3A0C3A18
:103450000C3A0C3A2C428E4A8E4A2C42EB390C3AEA
:103460000C3A0C3A0C3A0C3A0C3A0C3AEB39EB3970
:10347000CB394D42F05A305B305B305B305B105BD8
:10348000CF522D42CB31EB390C3A0C3A0C3A0C3A74
:103490000C3A0C3A0C3A0C3A0C3A0C3A0C3A0C3AFC
:1034A000EB39EB39CB31CB31EB390C426D4AAF52B2
:1034B000EF5A105B305B305B105B105BCF528E4A73
:1034C0004D420C3AEC39EB39EB39EC392C426D4A70
:1034D0008E4A2D420C3A0C3A0C3A0C3A0C3A0C3A01
:1034E0000C3A0C3A0C3A0C3A0C3A0C3A0C3A0C3AAC
:1034F0000C3A0C3A0C3A0C3A0C3A0C3A0C3A0C3A9C
:103500000C3A0C3A0C3A0C3A2C42AE4A8E4A2C42F7
:103510000C3A0C3A0C3A0C3A0C3A0C3A0C3A0C3A7B
:103520000C3A0C3A0C3A0C3A0C3A0C3A0C3A0C3A6B
:103530000C3A0C3A0C3A0C3A0C3A0C3A0C3A0C3A5B
:103540000C3A2C424D428E4AAE528E4A6D4A2C4263
:10355000CB39EB396D4AEF5A105B105BF05A6D4A6C
:10356000CB31CB31EB390C3A0C3A0C3A0C3A0C3AE1
:103570000C3A0C3A0C3A0C3A0C3A0C3A0C3A0C3A1B
:103580000C3A0C3A0C3A0C422C424D426D4A6D4AB0
:103590006D4A4D422C420C420C3A0C3A0C3A0C3A11
:1035A0000C3A0C3A0C3A0C3A0C3A0C3A0C3A0C3AEB
:1035B0000C3A0C3A0C3A0C3A0C426D4A8E524D427F
:1035C0000C3A0C3A0C3A0C3A0C3A0C3A0C3AEB39ED
:1035D000CB31CB312D42CF52105B305B305B305B57
:1035E000305B305B305B305B105BCF528E4A0B42FE
:1035F00000000000000000000000000000000000CB
:10360000EC410C3A0C3A0C3A0C3A0C3A0C3A0C3AA3
:103610000C3A0C3A0C3A0C3A0C3A0C3A0C3A0C3A7A
:103620000C3A2C428E4AAE524D4A0C420C3A0C3A9D
:103630000C3A0C3A0C3A0C3A0C3A0C3A0C3A0C3A5A
:103640000C3A0C3A0C3A0C3A0C3A0C3A0C3A0C3A4A
:103650000C3A0C3A0C3A2C426D4A8E4A4D420C3AC6
:10366000EB39CB31CB31CB310C3A6E4ACF52F05AD9
:10367000105B105B105B305B305B305B305B305B52
:10368000305B305B105BEF5AAE524D42EC39AB31E0
:10369000CB31CB39EB39EC390C3A0C3A0C3A0C3AC9
:1036A0000C3A0C3A0C3A0C3A0C3A0C3A0C3A0C3AEA
:1036B0000C3A0C3A0C3A0C3A0C3A0C3A0C3A0C3ADA
:1036C0000C3A0C3A0C3A0C3A0C3A0C3A0C3A0C42C2
:1036D0000C420C420C3A0C3A0C3A0C3A0C3A4D4A59
:1036E0008E526D4A2C420C3A0C3A0C3A0C3A0C3A77
:1036F0000C3A0C3A0C3A0C3A0C3A0C3A0C3A0C3A9A
:103700002C426D4A8E4A2C420C3A0C3A0C3A0C3A36
:103710004D42AE526D4A2C420C3A0C3A0C3A0C3ADD
:103720000C3A0C3A0C3A0C3A0C3AEB39CB394D4284
:10373000EF5A105B305B305B305B105BEF524D42F9
:10374000CB31EB390C3A0C3A0C3A0C3A0C3A0C3AB5
:103750000C3A0C3A0C3A0C3A0C3A0C3A0C3A0C3A39
:10376000EB39EB39CB31CB31EB310C3A6E4ACF52DE
:10377000105B305B305B305B105BF05ACF528E4A8F
:103780004D420C3AEC39EC392C428E4A6D4A0C42CF
:103790000C3A0C3A0C3A0C3A0C3A0C3A0C3A0C3AF9
:1037A0000C3A0C3A0C3A0C3A0C3A0C3A0C3A0C3AE9
:1037B0000C3A0C3A0C3A0C3A0C3A0C3A0C3A0C3AD9
:1037C0000C3A0C3A4D42AF526D4A2C420C3A0C3A2C
:1037D0000C3A0C3A0C3A0C3A0C3A0C3A0C3A0C3AB9
:1037E0000C3A0C3A0C3A0C3A0C3A0C3A0C3A0C3AA9
:1037F0000C3A0C3A0C3A0C3A0C3A0C3A0C3A0C3A99
:103800000C422C424D4A8E4AAE524D42EC390C3A93
:103810008E4AF05A305B305BEF520C3ACB31EB39C9
:103820000C3A0C3A0C3A0C3A0C3A0C3A0C3A0C3A68
:103830000C3A0C3A0C3A0C3A0C3A0C3A0C3A0C3A58
:103840000C3A0C3A0C3A0C422C424D426D4A6D4AED
:103850006D4A4D422C420C420C3A0C3A0C3A0C3A4E
:103860000C3A0C3A0C3A0C3A0C3A0C3A0C3A0C3A28
:103870000C3A0C3A2C426E4A8E4A4D420C3A0C3AA3
:103880000C3A0C3A0C3A0C3A0C3A0C3ACB39AB31B4
:103890000C3A8E4A105B305B305B305B305B305BE8
:1038A000305B105B105BF05ACF524E4A00000000B4
:1038B0000000000000000000000000000C3A0C3A7C
:1038C0000C3A0C3A0C3A0C3A0C3A0C3A0C3A0C3AC8
:1038D0000C3A0C3A0C3A0C3A0C3A0C3A0C422C4288
:1038E000AE52CF5A8E4A2C420C3A0C3A0C3A0C3A51
:1038F0000C3A0C3A0C3A0C3A0C3A0C3A0C3A0C3A98
:103900000C3A0C3A0C3A0C3A0C3A0C3A0C3A0C3A87
:103910000C3A0C3A4D428E4A4D42EB39CB31CB3109
:10392000EC392D428E4AF05A105B105B305B305BF5
:10393000305B305B305B305B305B305B105B105B6F
:10394000CF526D4A0C3ACB31CB31CB31EB39EB391D
:103950000C3A0C3A0C3A0C3A0C3A0C3A0C3A0C3A37
:103960000C3A0C3A0C3A0C3A0C3A0C3A0C3A0C3A27
:103970000C3A0C3A0C3A0C3A0C3A0C3A0C3A0C3A17
:103980000C3A0C3A0C3A0C3A0C424D424D4A2C423D
:103990000C420C3A0C3A0C3A0C3A2C426E4A8E4AC3
:1039A0004D420C3A0C3A0C3A0C3A0C3A0C3A0C3A9E
:1039B0000C3A0C3A0C3A0C3A0C3A0C3A4D428E4AFC
:1039C0006D4A0C420C3A0C3A0C3A0C3A6D4A8E5243
:1039D0006D4A0C420C3A0C3A0C3A0C3A0C3A0C3A3E
:1039E0000C3A0C3A0C3A0C3AEB392C42AF52105BC1
:1039F000305B305B305B105BF05A6D4ACB31CB39BA
:103A00000C3A0C3A0C3A0C3A0C3A0C3A0C3A0C3A86
:103A10000C3A0C3A0C3A0C3A0C3A0C3A0C3AEB3998
:103A2000EB39CB39CB31CB31CB312C428E4ACF5213
:103A3000105B305B305B305B105BF05ACF528E4ACC
:103A40004D420C3A2C424D422C420C3A0C3A0C3A64
:103A50000C3A0C3A0C3A0C3A0C3A0C3A0C3A0C3A36
:103A60000C3A0C3A0C3A0C3A0C3A0C3A0C3A0C3A26
:103A70000C3A0C3A0C3A0C3A0C3A0C3A0C3A0C3A16
:103A80004D42AE52AE524D4A2C420C420C3A0C3AC8
:103A90000C3A0C3A0C3A0C3A0C3A0C3A0C3A0C3AF6
:103AA0000C3A0C3A0C3A0C3A0C3A0C3A0C3A0C3AE6
:103AB0000C3A0C3A0C3A0C3A0C3A0C3A0C3A0C3AD6
:103AC0000C422C424D422C42EC394D42CF52105BFD
:103AD000305B105BAE52CB31CB31EB390C3A0C3A48
:103AE0000C3A0C3A0C3A0C3A0C3A0C3A0C3A0C3AA6
:103AF0000C3A0C3A0C3A0C3A0C3A0C3A0C3A0C3A96
:103B00000C3A0C3A0C3A2C424D426D4A8E4A6E4A9F
:103B10006D424D422C420C420C3A0C3A0C3A0C3A93
:103B20000C3A0C3A0C3A0C3A0C3A0C3A0C3A0C3A65
:103B30004D428E4A6E4A2C420C3A0C3A0C3A0C3AE0
:103B40000C3A0C3A0C3A0C3AEB39CB31EB314D4292
:103B5000EF52105B305B305B305B305B305B305B77
:103B6000305B105BF05AEE4A0000000000000000DD
:103B700000000000000010000B3A0C3A0C3A0C3A1E
:103B80000C3A0C3A0C3A0C3A0C3A0C3A0C3A0C3A05
:103B90000C3A0C3A0C3A0C422C426D4AAE52AF52DF
:103BA0008E524D420C420C3A0C3A0C3A0C3A0C3AFA
:103BB0000C3A0C3A0C3A0C3A0C3A0C3A0C3A0C3AD5
:103BC0000C3A0C3A0C3A0C3A0C3A0C3A0C3A0C3AC5
:103BD0000C422C420C3ACB31CB310C3A6E4ACF52CC
:103BE000105B105B305B305B305B305B305B305BBD
:103BF000305B305B105B105BCF528E4A2D42EB394D
:103C0000AB31CB31CB39EB39EB390C3A0C3A0C3ABE
:103C10000C3A0C3A0C3A0C3A0C3A0C3A0C3A0C3A74
:103C20000C3A0C3A0C3A0C3A0C3A0C3A0C3A0C3A64
:103C30000C3A0C3A0C3A0C3A0C3A0C3A0C3A0C3A54
:103C40000C424C426D4AAE52AE526D4A2C420C3A76
:103C50000C3A0C3A0C3A0C3A4D428E4A6D4A2C42C0
:103C60000C3A0C3A0C3A0C3A0C3A0C3A0C3A0C3A24
:103C70000C3A0C3A0C3A0C426D4A8E4A4D420C42B8
:103C80000C3A0C3A0C3A0C426D4AAE526D4A0C3A60
:103C90000C3A0C3A0C3A0C3A0C3A0C3A0C3A0C3AF4
:103CA0000C3A0C3ACB390C3AAE52105B305B305BBD
:103CB000305B305B105B6E4AEB39CB390C3A0C3A17
:103CC0000C3A0C3A0C3A0C3A0C3A0C3A0C3A0C3AC4
:103CD0000C3A0C3A0C3A0C3A0C3A0C3A0C3AEB39D6
:103CE000EB39CB39CB31CB31CB312D428E4ACF5250
:103CF000105B305B305B105B105BF05ACF528E4A2A
:103D00004D420C3AEC39EB39EB39EB390C3A0C3AC1
:103D10000C3A0C3A0C3A0C3A0C3A0C3A0C3A0C3A73
:103D20000C3A0C3A0C3A0C3A0C3A0C3A0C3A0C3A63
:103D30000C3A0C3A0C3A0C3A0C3A0C3A2C426E4AB9
:103D40008E528E526D4A4D422C420C420C3A0C3A25
:103D50000C3A0C3A0C3A0C3A0C3A0C3A0C3A0C3A33
:103D60000C3A0C3A0C3A0C3A0C3A0C3A0C3A0C3A23
:103D70000C3A0C3A0C3A0C3A0C3A0C3A0C3A0C3A13
:103D80000C3AEB39EC396D4AEF5A305B305BF05A44
:103D90004D42CB31CB31EB390C3A0C3A0C3A0C3A60
:103DA0000C3A0C3A0C3A0C3A0C3A0C3A0C3A0C3AE3
:103DB0000C3A0C3A0C3A0C3A0C3A0C3A0C3A0C3AD3
:103DC0000C3A0C3A0C3A2C426D4A8E4AAE4A8E4A54
:103DD0004D422D420C420C3A0C3A0C3A0C3A0C3A39
:103DE0000C3A0C3A0C3A0C3A0C3A0C424D4A8E4AB8
:103DF0006D4A2C420C3A0C3A0C3A0C3A0C3A0C3AFA
:103E00000C3A0C3AEB39CB31CB310C3AAE52105B59
:103E1000305B305B305B305B305B305B305B105B6A
:103E2000105BB05A0000000000000000000000001D
:103E3000000000000C3A0C3A0C3A0C3A0C3A0C3ADE
:103E40000C3A0C3A0C3A0C3A0C3A0C3A0C3A0C3A42
:103E50002C424D428E4A8E4A8E4A6D4A8E4A4D4AB7
:103E60000C420C3A0C3A0C3A0C3A0C3A0C3A0C3A1A
:103E70000C3A0C3A0C3A0C3A0C3A0C3A0C3A0C3A12
:103E80000C3A0C3A0C3A0C3A0C3AEB39CB31CB31B8
:103E9000CB310C3A4D42AE52F05A105B305B305B86
:103EA000305B305B305B305B305B305B305B305BBA
:103EB000F05AAF524D42EC39CB31AB31CB31EB390B
:103EC0000C3A0C3A0C3A0C3A0C3A0C3A0C3A0C3AC2
:103ED0000C3A0C3A0C3A0C3A0C3A0C3A0C3A0C3AB2
:103EE0000C3A0C3A0C3A0C3A0C3A0C3A0C3A0C3AA2
:103EF0000C3A0C3A0C3A0C3A0C422C424D4A8E4A7F
:103F0000AE528E4AAE528E4A2C420C3A0C3A0C3AC1
:103F10000C3AEC392C428E4A8E4A4D420C420C3AF5
:103F20000C3A0C3A0C3A0C3A0C3A0C3A0C3A0C3A61
:103F30000C3A2C426D4A8E4A4D420C3A0C3A0C3ADD
:103F40000C3A2C428E4AAE524D420C3A0C3A0C3A84
:103F50000C3A0C3A0C3A0C3A0C3A0C3A0C3AEB3953
:103F6000CB39EC396E4A105B305B305B305B105BF9
:103F7000105BAE52EC39CB31EB390C3A0C3A0C3ABF
:103F80000C3A0C3A0C3A0C3A0C3A0C3A0C3A0C3A01
:103F90000C3A0C3A0C3A0C3A0C3A0C3A0C3AEB3913
:103FA000EB39EB39CB31CB39EC394D428E4ACF521C
:103FB000105B305B305B105B105BF05ACF528E4A67
:103FC0002D42EB39CB31CB39EB39EB390C3A0C3A8A
:103FD0000C3A0C3A0C3A0C3A0C3A0C3A0C3A0C3AB1
:103FE0000C3A0C3A0C3A0C3A0C3A0C3A0C3A0C3AA1
:103FF0000C3A0C3A0C3A0C3A0C3A2C424D4A6D4AA7
:104000008E4A8E4A6D4A4D422C420C420C3A0C3A72
:104010000C3A0C3A0C3A0C3A0C3A0C3A0C3A0C3A70
:104020000C3A0C3A0C3A0C3A0C3A0C3A0C3A0C3A60
:104030000C3A0C3A0C3A0C3A0C3A0C3AEB39CB31BC
:104040000C3A8E4A105B305B105BCF520C3ACB318E
:10405000EB390C3A0C3A0C3A0C3A0C3A0C3A0C3A52
:104060000C3A0C3A0C3A0C3A0C3A0C3A0C3A0C3A20
:104070000C3A0C3A0C3A0C3A0C3A0C3A0C3A0C3A10
:104080000C3A0C3A0C422C426D4AAE52CF528E4A38
:104090004D422C420C420C3A0C3A0C3A0C3A0C3A77
:1040A0000C3A0C3A0C3A2C426D4A8E526D4A0C3A3C
:1040B0000C3A0C3A0C3A0C3A0C3A0C3A0C3A0C3AD0
:1040C000EB39EB39CB31EB396D4AEF5A105B305B92
:1040D000305B305B305B305B105B105B105B305BE8
:1040E0000000000000000000000000000000AB5ACB
:1040F0000C3A0C3A0C3A0C3A0C3A0C3A0C3A0C3A90
:104100000C3A0C3A0C3A0C422C424D426D4A8E4A03
:104110008E4A4D422C422C428E526E4A2C420C3A10
:104120000C3A0C3A0C3A0C3A0C3A0C3A0C3A0C3A5F
:104130000C3A0C3A0C3A0C3A0C3A0C3A0C3A0C3A4F
:104140000C3AEB39EB39CB31AB31CB310C3A6E4A0F
:10415000CF52105B105B305B305B305B305B305BB1
:10416000305B305B305B305B105BCF528E4A2C4251
:10417000CB31CB31CB31CB39EB390C3A0C3A0C3A51
:104180000C3A0C3A0C3A0C3A0C3A0C3A0C3A0C3AFF
:104190000C3A0C3A0C3A0C3A0C3A0C3A0C3A0C3AEF
:1041A0000C3A0C3A0C3A0C3A0C3A0C3A0C3A0C3ADF
:1041B0000C422C424D428E4A8E4A8E4A6D4A4D42E6
:1041C0006D4A8E4A6D4A2C420C3A0C3A0C3A0C3A23
:1041D0000C424D4A8E4A6D4A0C420C3A0C3A0C3A4B
:1041E0000C3A0C3A0C3A0C3A0C3A0C3A0C3A2C4277
:1041F0006E4A8E4A4D420C3A0C3A0C3A0C3A2C421A
:104200008E52AE522C420C3A0C3A0C3A0C3A0C3A02
:104210000C3A0C3A0C3A0C3A0C3AEB39EB39CB39F4
:104220004D42EF5A305B305B305B305B305BAF52FE
:10423000EC39CB31EB390C3A0C3A0C3A0C3A0C3ADB
:104240000C3A0C3A0C3A0C3A0C3A0C3A0C3A0C3A3E
:104250000C3A0C3A0C3A0C3A0C3A0C3A0C3AEB3950
:10426000EB39EB39CB39EB392C426D4AAE52EF5A70
:10427000105B305B305B305B105B105BCF528E4A63
:104280002D42CB39CB31CB39EB39EB390C3A0C3AE7
:104290000C3A0C3A0C3A0C3A0C3A0C3A0C3A0C3AEE
:1042A0000C3A0C3A0C3A0C3A0C3A0C3A0C3A0C3ADE
:1042B0000C3A0C3A0C3AEC390C422C424D426D4A05
:1042C0008E4A6D4A4D422C420C420C3A0C3A0C3A42
:1042D0000C3A0C3A0C3A0C3A0C3A0C3A0C3A0C3AAE
:1042E0000C3A0C3A0C3A0C3A0C3A0C3A0C3A0C3A9E
:1042F0000C3A0C3A0C3AEC39EB39EB392C42CF52F0
:10430000305B305B105B8E4AEC39CB31EB390C3AC9
:104310000C3A0C3A0C3A0C3A0C3A0C3A0C3A0C3A6D
:104320000C3A0C3A0C3A0C3A0C3A0C3A0C3A0C3A5D
:104330000C3A0C3A0C3A0C3A0C3A0C3A0C3A0C3A4D
:104340000C3AEB390C3A2C426E4AAE52CF528E4A9E
:104350004D420C420C3A0C3A0C3A0C3A0C3A0C3ADC
:104360000C3A2C428E4AAE522C420C3A0C3A0C3A81
:104370000C3A0C3A0C3A0C3A0C3A0C3AEB39EB3951
:10438000CB31CB312D42CF52105B305B305B305B99
:10439000305B305B305B305B105B505B00000000DB
:1043A00000000000000000000000FFFF0B3A0C3A84
:1043B0000C3A0C3A0C3A0C3A0C420C420C420C42AD
:1043C0004D426D4A6D4A8E52AE528E4A4D4A0C4253
:1043D0000C3A0C424D4A8E4A4D4A0C420C3A0C3A69
:1043E0000C3A0C3A0C3A0C3A0C3A0C3A0C3A0C3A9D
:1043F0000C3A0C3A0C3A0C3A0C3AEC39EB39CB311A
:10440000CB31AB31EC394D42AF52EF5A105B105B00
:10441000305B305B305B305B305B305B305B305B44
:10442000105BEF5AAE524D42EC39CB31CB31CB3130
:10443000EB390C3A0C3A0C3A0C3A0C3A0C3A0C3A6E
:104440000C3A0C3A0C3A0C3A0C3A0C3A0C3A0C3A3C
:104450000C3A0C3A0C3A0C3A0C3A0C3A0C3A0C3A2C
:104460000C3A0C3A0C3AEB390C3A2C424D428E4A3B
:10447000AE528E4A6D4A2C420C420C3A2C426E4A85
:104480008E4A4D420C420C3A0C3A0C3A0C3A2C42F1
:104490006E4A6E4A2C420C3A0C3A0C3A0C3A0C3AE0
:1044A0000C3A0C3A0C3A0C3A0C3A4D428E4A8E4A6F
:1044B0002C420C3A0C3A0C3AEB394D42AE526E4A51
:1044C0000C420C3A0C3A0C3A0C3A0C3A0C3A0C3AB4
:1044D0000C3A0C3A0C3A0C3AEB39AB312D42CF5234
:1044E000105B305B305B305B105BCF522C42CB31CA
:1044F000EB390C3A0C3A0C3A0C3A0C3A0C3A0C3AAE
:104500000C3A0C3A0C3A0C3A0C3A0C3A0C3A0C3A7B
:104510000C3A0C3A0C3A0C3A0C3A0C3A0C3AEB398D
:10452000EB39EB39EB390C3A4D428E4ACF52EF5A08
:10453000105B305B305B305B105B105BCF528E4AA0
:104540002C42CB39CB31CB31EB39EB390C3A0C3A2D
:104550000C3A0C3A0C3A0C3A0C3A0C3A0C3A0C3A2B
:104560000C3A0C3A0C3A0C3A0C3A0C3A0C3A0C3A1B
:104570000C3A0C3A0C3A0C3A0C422D424D4A6E4A17
:104580006E4A6D4A4D422C420C420C3A0C3A0C3A9F
:104590000C3A0C3A0C3A0C3A0C3A0C3A0C3A0C3AEB
:1045A0000C3A0C3A0C3A0C3A0C3A0C3A0C3A0C3ADB
:1045B0000C3AEB39CB39EB396D4AEF5A305B105B73
:1045C000EF5A4D42EB39CB31EB390C3A0C3A0C3AFD
:1045D0000C3A0C3A0C3A0C3A0C3A0C3A0C3A0C3AAB
:1045E0000C3A0C3A0C3A0C3A0C3A0C3A0C3A0C3A9B
:1045F0000C3A0C3A0C3A0C3A0C3A0C3A0C3A0C3A8B
:104600000B3AEB390C424D428E4AAE52AF528E4AB3
:104610004D422C420C420C3A0C3A0C3A0C3A4D42A8
:10462000AE528E4A0C42EB390C3A0C3A0C3A0C3A28
:104630000C3A0C3A0C3A0C3AEB39EB39EB39CB31FA
:10464000EC398E4A105B305B305B305B305B305B4B
:10465000305B105B305B5063000000000000000026
:104660000000000000000000EC410C3A0C3A0C3A4B
:104670000C3A0C424D424D426D4A6D4AAE528E523A
:104680008E4A6D4A4D4A2C420C420C3A0C3A0C3A76
:104690002D428E4A6E4A2C420C3A0C3A0C3A0C3A95
:1046A0000C3A0C3A0C3A0C3A0C3A0C3A0C3A0C3ADA
:1046B0000C3A0C3A0C3AEB39CB31CB31EC392C4279
:1046C0008E4ACF52105B105B305B305B305B305BEF
:1046D000305B305B305B305B105B105BCF526E4AFF
:1046E0000C3ACB31AB31CB31EB39EB390C3A0C3ADC
:1046F0000C3A0C3A0C3A0C3A0C3A0C3A0C3A0C3A8A
:104700000C3A0C3A0C3A0C3A0C3A0C3A0C3A0C3A79
:104710000C3A0C3A0C3A0C3A0C3A0C3A0C3A0C3A69
:104720000C3A0C424D426D4A8E4A8E4A6D4A2C42DA
:104730000C420C3A0C3A0C3A0C424D428E4A6D4AED
:104740002C420C3A0C3A0C3A0C3A2C426D4A8E52DE
:104750004D4A2C420C3A0C3A0C3A0C3A0C3A0C3AB0
:104760000C3AEB390C3A4D42AF526D4A0C3A0C3AC6
:104770000C3A0C3A0C426D4ACF524D420C420C3A64
:104780000C3A0C3A0C3A0C3A0C3A0C3A0C3A0C3AF9
:104790000C3A0C3AEB39CB310C3AAF52105B305B30
:1047A000305B305B105BEF5A4D42CB39EB390C3A42
:1047B0000C3A0C3A0C3A0C3A0C3A0C3A0C3A0C3AC9
:1047C0000C3A0C3A0C3A0C3A0C3A0C3A0C3A0C3AB9
:1047D0000C3A0C3A0C3A0C3A0C3A0C3A0B3AEB39CC
:1047E000EB39CB39EB390C3A4D428E4ACF52105B44
:1047F000105B305B305B105B105BEF5AAE526E4A61
:104800002C42EC39EB39EB39EB390C3A0C3A0C3AD7
:104810000C3A0C3A0C3A0C3A0C3A0C3A0C3A0C3A68
:104820000C3A0C3A0C3A0C3A0C3A0C3A0C3A0C3A58
:104830000C3A0C3A0C3A0C3A2C424D426D4A8E4AD4
:104840006E4A4D4A2D420C420C3A0C3A0C3A0C3A44
:104850000C3A0C3A0C3A0C3A0C3A0C3A0C3A0C3A28
:104860000C3A0C3A0C3A0C3A0C3A0C3A0C3AEB393A
:10487000CB390C3A8E4A105B305B105BAF522C4246
:10488000EB39CB390C3A0C3A0C3A0C3A0C3A0C3A5C
:104890000C3A0C3A0C3A0C3A0C3A0C3A0C3A0C3AE8
:1048A0000C3A0C3A0C3A0C3A0C3A0C3A0C3A0C3AD8
:1048B0000C3A0C3A0C3A0C3A0C3A0C3A0C3A0C3AC8
:1048C0000C3A0C3A2C424D4A8E4AAE528E4A6D4AF0
:1048D0002C420C420C3AEB390C426D4AAE526D4AF6
:1048E0000C3AEB390C3A0C3A0C3A0C3A0C3A0C3ABA
:1048F0000C3A0C3A0C3AEB39EB39CB31CB314D4217
:10490000CF52105B305B305B305B305B305B305BD9
:10491000305B926300000000000000000000000017
:1049200000000B000C3A0C3A0C420C422C424D4A4F
:104930008E4AAF52AE528E4A8E4A6D4A4D422C423A
:104940000C420C3A0C3A0C3A0C3AEB390C426D4AD8
:104950008E4A4D420C420C3A0C3A0C3A0C3A0C3A44
:104960000C3A0C3A0C3A0C3A0C3A0C3A0C3A0C3A17
:10497000EB39CB31CB31EC396D4ACF52105B105B48
:10498000105B305B305B305B305B305B305B305BEF
:10499000105B105BEF5A8E4A2D42EC39CB31CB3194
:1049A000CB39EB39EB390C3A0C3A0C3A0C3A0C3A5D
:1049B0000C3A0C3A0C3A0C3A0C3A0C3A0C3A0C3AC7
:1049C0000C3A2C422C420C420C3A0C3A0C3A0C3A5F
:1049D0000C3A0C3A0C3A0C3A0C3A0C3A0C424D4A4E
:1049E0008E528E4A6D4A4D422C420C3A0C3A0C3A89
:1049F0000C3A0C3A0C3A2C426E4A8E4A4D420C3A12
:104A00000C3A0C3A0C3A0C3A2C428E4A8E4A2C4202
:104A10000C3A0C3A0C3A0C3A0C3A0C3A0C3AEB3988
:104A20000C426E4ACF524D42EB390C3A0C3A0C3ADA
:104A30002C428E4A8E4A2C420C420C3A0C3A0C3ACA
:104A40000C3A0C3A0C3A0C3A0C3A0C3A0C3A0C3A36
:104A5000EB39CB310C3A8E4A105B305B305B305B0C
:104A6000305BF05A4D42EB39CB39EB390C3A0C3A0A
:104A70000C3A0C3A0C3A0C3A0C3A0C3A0C3A0C3A06
:104A80000C3A0C3A0C3A0C3A0C3A0C3A0C3A0C3AF6
:104A90000C3A0C3A0C3A0C3A0C3A0C3A0C3AEB3908
:104AA000EB39EB390C3A2D426D4AAE52EF52105BA6
:104AB000105B105B305B105B105BCF52AE4A4D4217
:104AC0000C3AEB39EB39EB39EB390C3A0C3A0C3A3E
:104AD0000C3A0C3A0C3A0C3A0C3A0C3A0C3A0C3AA6
:104AE0000C3A0C3A0C3A0C3A0C3A0C3A0C3A0C3A96
:104AF0000C3A0C3A0C3A0C422C424D426D4A8E4A0A
:104B00006E4A4D4A2C420C420C3A0C3A0C3A0C3A82
:104B10000C3A0C3A0C3A0C3A0C3A0C3A0C3A0C3A65
:104B20000C3A0C3A0C3A0C3A0B3AEB39CB314D4279
:104B3000CF52105B105B105B8E4A2C42CB31EB39AD
:104B40000C3A0C3A0C3A0C3A0C3A0C3A0C3A0C3A35
:104B50000C3A0C3A0C3A0C3A0C3A0C3A0C3A0C3A25
:104B60000C3A0C3A0C3A0C3A0C3A0C3A0C3A0C3A15
:104B70000C3A0C3A0C3A0C3A0C3A0C3A0C3A0C3A05
:104B80000C3A0C422D426D4A8E4A8E4A6E4A4D4274
:104B90002C420C3A2C428E4AAE522C420C3AEB3943
:104BA0000C3A0C3A0C3A0C3A0C3A0C3A0C3A0C3AD5
:104BB0000C3AEB39EB39CB39CB310C3AAE52105BB6
:104BC000305B305B305B305B305B305B305B315B8C
:104BD00000000000000000000000000000000000D5
:104BE0000C3A2D424D426D4A6D4A8E4AAF52CF5219
:104BF000AE524D4A2C420C420C3A0C3A0C3A0C3A4A
:104C00000C3A0C3A0C3A0C3A0C3A4D428E4A6E4A27
:104C10002C420C3A0C3A0C3A0C3A0C3A0C3A0C3A3C
:104C20000C3A0C3A0C3A0C3A0C3AEB39CB31CB310A
:104C3000EC396D4ACF52105B105B105B305B305B20
:104C4000305B305B305B305B305B105BEF5AAF52F8
:104C50006D4A0C3ACB31CB31CB31EB39EB390C3AD5
:104C60000C3A0C3A0C3A0C3A0C3A0C3A0C3A0C3A14
:104C70000C3A0C3A0C3A0C3A0C3A0C3A0C424D42B3
:104C80006D4A2C420C420C3A0C3A0C3A0C3A0C3A53
:104C90000C3A0C3A0C3A0C3A2C426E4AAE526D4A1F
:104CA0002C420C420C3A0C3A0C3A0C3A0C3A0C3AA4
:104CB0000C3A0C424D428E4A6D4A2C420C3A0C3A48
:104CC0000C3A0C3A0C426D4A8E4A4D420C420C3A58
:104CD0000C3A0C3A0C3A0C3A0C3AEB392C42AE52E4
:104CE000AE522C420C3AEB390C3A0C3A4D428E4AF9
:104CF0004D4A2C420C3A0C3A0C3A0C3A0C3A0C3A0B
:104D00000C3A0C3A0C3A0C3A0C3A0C3AEB39CB31DF
:104D1000EB396E4AF05A105B305B305B105B105B16
:104D20006E4AEB39CB31EB390C3A0C3A0C3A0C3A6F
:104D30000C3A0C3A0C3A0C3A0C3A0C3A0C3A0C3A43
:104D40000C3A0C3A0C3A0C3A0C3A0C3A0C3A0C3A33
:104D50000C3A0C3A0C3A0C3A0C3A0C3A0C3A0C3A23
:104D60002C420C3AEC392C426D4AAE52EF52105B99
:104D7000105B105B305B105BF05ACF528E4A2D42B5
:104D80000C3AEB39EB39EB39EB39EB390C3A0C3A9D
:104D90000C3A0C3A0C3A0C3A0C3A0C3A0C3A0C3AE3
:104DA0000C3A0C3A0C3A0C3A0C3A0C3A0C3A0C3AD3
:104DB0000C3A0C3A0C3A0C422C424D426D4A8E4A47
:104DC0006E4A4D4A2D420C420C420C3A0C3A0C3AB7
:104DD0000C3A0C3A0C3A0C3A0C3A0C3A0C3A0C3AA3
:104DE0000C3A0C3A0C3AEB39EB398E4A105B305BDB
:104DF000105BEF5A6E4AEC39CB31EB390C3A0C3A76
:104E00000C3A0C3A0C3A0C3A0C3A0C3A0C3A0C3A72
:104E10000C3A0C3A0C3A0C3A0C3A0C3A0C3A0C3A62
:104E20000C3A0C3A0C3A0C3A0C3A0C3A0C3A0C3A52
:104E30000C3A0C3A0C3A0C3A0C3A0C3A0C3A0C3A42
:104E40000C3A2C424D426E4A8E4A6E4A6D4A2C42B2
:104E50004D4AAE526E4A2C42EC39EB390C3A0C3AC0
:104E60000C3A0C3A0C3A0C3A0C3A0C3A0C3AEB3934
:104E7000EB39EB39CB31EB396E4AF05A305B305BB2
:104E8000305B305B305B305B305B505B00000000C0
:104E90000000000000000000000010044D4A6E4AAF
:104EA0008E528E4A6E4A6D4A6D4A8E526D4A2C421F
:104EB0000C3A0C3A0C3A0C3A0C3A0C3A0C3A0C3AC2
:104EC0000C3A0C3A0C3A2C426D4A8E4A4D420C4236
:104ED0000C3A0C3A0C3A0C3A0C3A0C3A0C3A0C3AA2
:104EE0000C3A0C3AEB39CB31CB31EC396D42CF5225
:104EF000105B305B305B305B305B305B305B305B7A
:104F0000305B105B105BEF526E4A2C42EB39CB31B9
:104F1000CB31CB39EB390C3A0C3A0C3A0C3A0C3A0F
:104F20000C3A0C3A0C3A0C3A0C3A0C3A0C3A0C3A51
:104F30000C3A0C3A0C3A0C3A0C424D428E4A4D4A0D
:104F40002C420C3A0C3A0C3A0C3A0C3A0C3A0C3A09
:104F50000C3A0C3A0C424D428E4A4D4A2C420C3AC5
:104F60000C3A0C3A0C3A0C3A0C3A0C3A0C3A0C4209
:104F70002C426E4A8E4A4D420C3A0C3A0C3A0C3A8C
:104F80000C422D428E4A6D4A2C420C3A0C3A0C3A95
:104F90000C3A0C3A0C3A0C3A4D42AE526E4A2C4244
:104FA0000C3A0C3A0C3A0C424D426E4A4D420C42BD
:104FB0000C3A0C3A0C3A0C3A0C3A0C3A0C3A0C3AC1
:104FC0000C3A0C3A0C3A0C3A0C3ACB39CB314D42F4
:104FD000EF5A105B305B305B105B105B8E4AEB3935
:104FE000CB31EB390C3A0C3A0C3A0C3A0C3A0C3AFD
:104FF0000C3A0C3A0C3A0C3A0C3A0C3A0C3A0C3A81
:105000000C3A0C3A0C3A0C3A0C3A0C3A0C3A0C3A70
:105010000C3A0C3A0C3A0C3A0C3A4D426D4A4D425D
:10502000EC39EB39EB390C3A4D42AE52EF5A105B8A
:10503000105B105B305B105BF05ACF526D4A2C4214
:10504000EB39CB31CB31EB39EB390C3A0C3A0C3A2A
:105050000C3A0C3A0C3A0C3A0C3A0C3A0C3A0C3A20
:105060000C3A0C3A0C3A0C3A0C3A0C3A0C3A0C3A10
:105070000C3A0C3A0C3A0C422C424D426D4A6E4AA4
:105080006E4A6D4A4D420C420C420C3A0C3A0C3AB4
:105090000C3A0C3A0C3A0C3A0C3A0C3A0C3A0C3AE0
:1050A000EB39CB310C3ACF52105B105B105BCF5217
:1050B0004D42CB31EB39EB390C3A0C3A0C3A0C3A05
:1050C0000C3A0C3A0C3A0C3A0C3A0C3A0C3A0C3AB0
:1050D0000C3A0C3A0C3A0C3A0C3A0C3A0C3A0C3AA0
:1050E0000C3A0C3A0C3A0C3A0C3A0C3A0C3A0C3A90
:1050F0000C3A0C3A0C3A0C3A0C3A0C3A0C3A0C3A80
:105100000C422C426D4A8E4A8E528E4AAE52AE529C
:105110004D4A0C42EB390C3A0C3A0C3A0C3A0C3A28
:105120000C3A0C3A0C3A0C3A0C3A0C3A0C3AEB3971
:10513000CB31CB312D42CF52105B305B305B305BDB
:10514000305B305B305BF16200000000000000006B
:1051500000000000000000006E4A8E4A6D4A4D4279
:105160002C422C422C426D4A8E4A2D420C3A0C3A6B
:105170000C3A0C3A0C3A0C3A0C3A0C3A0C3A0C3AFF
:105180000C3A0C424D428E4A6D4A0C420C3A0C3A93
:105190000C3A0C3A0C3A0C3A0C3A0C3A0C3A0C3ADF
:1051A000EB39CB31CB316D4ACF52105B305B305B8A
:1051B000305B305B305B305B305B305B105BF05AF8
:1051C000AE526D4A0C3AEB39EB39EB39EB39EB392E
:1051D000EB390C3A0C3A0C3A0C3A0C3A0C3A0C3AC1
:1051E0000C3A0C3A0C3A0C3A0C3A0C3A0C3A0C3A8F
:1051F0000C3A0C3A0C3A2C426D4A6E4A4D420C3A2B
:105200000C3A0C3A0C3A0C3A0C3A0C3A0C3A0C3A6E
:105210000C3A2C428E4A6E4A2C420C3A0C3A0C3A0A
:105220000C3A0C3A0C3A0C3A0C3A0C3A0C424D42FD
:105230008E4A8E4A2C420C3A0C3A0C3A0C3A0C42EA
:105240004D4A8E4A4D420C420C3A0C3A0C3A0C3AFA
:10525000EB390C3A4D428E4A6D4A0C420C3A0C3AEC
:105260000C3A2C424D4A6E4A2D420C3A0C3A0C3AFA
:105270000C3A0C3A0C3A0C3A0C3A0C3A0C3A0C3AFE
:105280000C3A0C3A0C3AEB39CB312D42CF52306309
:10529000305B305B305B105BAF520C3ACB31EB399B
:1052A0000C3A0C3A0C3A0C3A0C3A0C3A0C3A0C3ACE
:1052B0000C3A0C3A0C3A0C3A0C3A0C3A0C3A0C3ABE
:1052C0000C3A0C3A0C3A0C3A0C3A0C3A0C3A0C3AAE
:1052D0000C3A0C3A2C426D4A6D4A4D420C42EC3964
:1052E000EB39EB39EC390C3A6D42AE52EF5A105BA8
:1052F000105B305B3063105BF05AAF524D420C3A9A
:10530000CB31CB31CB31EB39EB39EB390C3A0C3AB1
:105310000C3A0C3A0C3A0C3A0C3A0C3A0C3A0C3A5D
:105320000C3A0C3A0C3A0C3A0C3A0C3A0C3A0C3A4D
:105330000C3A0C3A0C3A0C420C422D426D4A8E4A01
:105340006E4A6E4A4D422C420C3A0C3A0C3A0C3AD8
:105350000C3A0C3A0C3A0C3A0C3A0C3AEB39CB3189
:105360004D42EF5A105B305B105BAE520C3ACB31C2
:10537000EB390C3A0C3A0C3A0C3A0C3A0C3A0C3A1F
:105380000C3A0C3A0C3A0C3A0C3A0C3A0C3A0C3AED
:105390000C3A0C3A0C3A0C3A0C3A0C3A0C3A0C3ADD
:1053A0000C3A0C3A0C3A0C3A0C3A0C3A0C3A0C3ACD
:1053B0000C3A0C3A0C3A0C3A0C3A0C3A0C3A0C3ABD
:1053C0000C422C426D4AAE52CF52AF526D4A2C4223
:1053D0000C3A0C3A0C3A0C3A0C3A0C3A0C3A0C3A9D
:1053E0000C3A0C3A0C3A0C3A0C3A0C3AEB39CB31F9
:1053F000EC398E4AF05A305B305B305B305B305BAF
:10540000105B1163000000000000000000000000BD
:10541000000000002D422C420C420C3A0C3A0C3A8F
:105420000C3A4D428E4A6D4A0C420C3A0C3A0C3AF8
:105430000C3A0C3A0C3A0C3A0C3A0C3A0C3A0C3A3C
:105440002C426D4A8E4A4D420C420C3A0C3A0C3AB0
:105450000C3A0C3A0C3A0C422D42EC39CB39EC396F
:105460004D42CF52105B305B305B305B305B305B6A
:10547000305B305B305B105BCF526E4A0C3ACB3105
:10548000EB310C424D424D420C420C3A0C3A0C3A74
:105490000C3A0C3A0C3A0C3A0C3A0C3A0C3A0C3ADC
:1054A0000C3A0C3A0C3A0C3A0C3A0C3A0C3A0C3ACC
:1054B0000C3A0C424D4A8E4A6D4A2C420C3A0C3A38
:1054C0000C3A0C3A0C3A0C3A0C3A0C3A0C3A0C42A4
:1054D0006D4A8E526D4A0C420C3A0C3A0C3A0C3A18
:1054E0000C3A0C3A0C3A0C3A0C3A2C426E4A8E4A60
:1054F0004D420C3A0C3A0C3A0C3A0C422D428E4A70
:105500008E4A2C420C3A0C3A0C3A0C3AEB390C3AD3
:105510004D428E4A4D4A0C420C3A0C3A0C3A2C42FF
:105520006D4A6E4A2C420C3A0C3A0C3A0C3A0C3A40
:105530000C3A0C3A0C3A0C3A0C3A0C3A0C3A0C3A3B
:10554000EB39EB39AB310C3AAF52105B305B305B6F
:10555000305B105BCF522C42CB31EB390C3A0C3A1A
:105560000C3A0C3A0C3A0C3A0C3A0C3A0C3A0C3A0B
:105570000C3A0C3A0C3A0C3A0C3A0C3A0C3A0C3AFB
:105580000C3A0C3A0C3A0C3A0C3A0C3A0C3A0C3AEB
:105590004D428E4A4D4A2C420C3A0C3A0C3A0C3A87
:1055A000EB39EB39EC390C426D4AAF52EF5A105BD4
:1055B000105B305B305B105B105BAF524D420C3ABE
:1055C000CB31CB31CB39EB39EB39EB390C3A0C3AE7
:1055D0000C3A0C3A0C3A0C3A0C3A0C3A0C3A0C3A9B
:1055E0000C3A0C3A0C3A0C3A0C3A0C3A0C3A0C3A8B
:1055F0000C3A0C3A0C3A0C3A0C422C424D426E4A90
:105600008E4A6D4A2C420C3A0C3A0C3A0C3A0C3A3F
:105610000C3A0C3A0C3A0C3ACB310C3AAE52105BC5
:10562000105B105BF05A6E4AEB31CB39EB390C3A18
:105630000C3A0C3A0C3A0C3A0C3A0C3A0C3A0C3A3A
:105640000C3A0C3A0C3A0C3A0C3A0C3A0C3A0C3A2A
:105650000C3A0C3A0C3A0C3A0C3A0C3A0C3A0C3A1A
:105660000C3A0C3A0C3A0C3A0C3A0C3A0C3A0C3A0A
:105670000C3A0C3A0C3A0C3A0C3A0C3A0C3A0C3AFA
:105680000C426D4AAF52CF52AE526D4A4D422C423F
:105690000C3A0C3A0C3A0C3A0C3A0C3A0C3A0C3ADA
:1056A0000C3A0C3A0C3A0C3AEB39CB31CB312D4257
:1056B000CF52305B305B305B305B305B305B5063D4
:1056C00000000000000000000000000000000000DA
:1056D0000C420C420C3A0C3A0C3A0C3A0C3A2D4261
:1056E0008E4A8E4A2C420C3A0C3A0C3A0C3A0C3A3E
:1056F0000C3A0C3A0C3A0C3A0C3A0C3A0C424D4229
:105700008E4A6D4A0C42EB390C3A0C3A0C3A0C4278
:105710002D424D424D42EB39CB314D42AF52105BE1
:10572000305B305B305B305B305B305B305B105B41
:10573000105BAF524D42EB39CB31CB310C3A8E4A34
:10574000CF528E4A2C420C3A0C3A0C3A0C3A0C3A94
:105750000C3A0C3A0C3A0C3A0C3A0C3A0C3A0C3A19
:105760000C3A0C3A0C3A0C3A0C3A0C3A0C3A0C3A09
:105770002C426E4A8E4A4D420C3A0C3A0C3A0C3A84
:105780000C3A0C3A0C3A0C3A0C3A0C3A2C428E4A2F
:105790008E4A2C420C3A0C3A0C3A0C3A0C3A0C3A1F
:1057A0000C3A0C3A0C3A0C424D4A8E526E4A2C423C
:1057B0000C3A0C3A0C3A0C3A2C426D4A8E4A4D4245
:1057C0000C3A0C3A0C3A0C3A0C3A0C426D4A8E5296
:1057D0004D420C420C3A0C3A0C422C428E526D4A0D
:1057E0000C3A0C3A0C3A0C3A0C3A0C3A0C3A0C3A89
:1057F0000C3A0C3A0C3A0C3A0C3A0C3A0C3A0C3A79
:10580000CB310C3A8E4A105B305B305B305B105B07
:10581000CF522D42EB39EB390C3A0C3A0C3A0C3A98
:105820000C3A0C3A0C3A0C3A0C3A0C3A0C3A0C3A48
:105830000C3A0C3A0C3A0C3A0C3A0C3A0C3A0C3A38
:105840000C3A0C3A0C3A0C3A0C3A2C426D4A6D4A1E
:105850004D420C3A0C3A0C3A0C3A0C3A0C3AEB39F1
:10586000EB39EB39EC392C426D42AF52F05A105BF8
:10587000305B305B305B305B105BAE524D42EC39DD
:10588000CB31CB31CB39EB39EB390C3A0C3A0C3A02
:105890000C3A0C3A0C3A0C3A0C3A0C3A0C3A0C3AD8
:1058A0000C3A0C3A0C3A0C3A0C3A0C3A0C3A0C3AC8
:1058B0000C3A0C3A0C3A0C3A0C422C424D424D42F6
:1058C0002C420C3AEB390C3A0C3A0C3A0C3A0C3AA2
:1058D0000C3AEB39CB312D42CF52105B305B105B71
:1058E000CF522D42EB39EB390C3A0C3A0C3A0C3AC8
:1058F0000C3A0C3A0C3A0C3A0C3A0C3A0C3A0C3A78
:105900000C3A0C3A0C3A0C3A0C3A0C3A0C3A0C3A67
:105910000C3A0C3A0C3A0C3A0C3A0C3A0C3A0C3A57
:105920000C3A0C3A0C3A0C3A0C3A0C3A0C3A0C3A47
:105930000C3A0C3A0C3A0C3A0C3AEB390C3A6D4AE8
:105940008E4A8E4A6E4A8E4A8E4A6D4A4D422C428B
:105950000C3A0C3A0C3A0C3A0C3A0C3A0C3A0C3A17
:105960000C3AEB390C3AEB31CB31EC39AE52105BDF
:10597000305B305B305B305B3063F05A000000001E
:1059800000000000000000000000AB5A0B3A0C3A87
:105990000C3A0C3A0C3A0C3A0C3A0C426D4A8E4ACC
:1059A0004D420C420C3A0C3A0C3A0C3A0C3A0C3A76
:1059B0000C3A0C3A0C3A0C3A0C3A2C428E4A8E4A6B
:1059C0002C420C3A0C3A0C3A0C424D426E4A4D4273
:1059D0000C3ACB312D42AE52105B105B105B305B4A
:1059E000305B305B305B305B305B105BCF524D42E5
:1059F000CB31AB31CB31EB392C42AE52CF528E4A48
:105A00002C420C3A0C3A0C3A0C3A0C3A0C3A0C3A3E
:105A10000C3A0C3A0C3A0C3A0C3A0C3A0C3A0C3A56
:105A20000C3A0C3A0C3A0C3A0C3A0C3A0C424D4AED
:105A3000AE526E4A2C420C3A0C3A0C3A0C3A0C3AE2
:105A40000C3A0C3A0C3A0C3A0C3A6D4A8E4A4D42DA
:105A50000C420C3A0C3A0C3A0C3A0C3A0C3A0C3A0E
:105A60000C3A0C3A0C426D4A8E4A4D420C420C3AAA
:105A70000C3A0C3A0C3A4D428E526E4A2C420C3A79
:105A80000C3A0C3A0C3A2C426E4A8E520C420C3AAA
:105A90000C3A0C3A0C426D4A8E4A2D420C3A0C3AA2
:105AA0000C3A0C3A0C3A0C3A0C3A0C3A0C3A0C3AC6
:105AB0000C420C422C422C422C424D420C3A0C3AE5
:105AC0006E4AF05A305B305B305B105B105B6D42AE
:105AD000EB39EB390C3A0C3A0C3A0C3A0C3A0C3ADA
