:020000040800F2
:100000000000022083000008810000088100000831
:100010008100000881000008810000080000000045
:100020000000000000000000000000008100000847
:100030008100000800000000810000088100000825
:10004000810000088100000881000008810000088C
:10005000810000088100000881000008810000087C
:10006000810000088100000881000008810000086C
:10007000810000088100000881000008810000085C
:10008000FEE726482649274A914205D050F8043B0E
:1000900041F8043B9142F9D1234824494FF0000232
:1000A000884203D040F8042B8842FBD100F040F88E
:1000B000FEE7034B1A681206FCD55860704700BF74
:1000C0000010014008B5411E11F8010F00B908BD2C
:1000D000FFF7EFFFF8E7054B9A689107FCD5187317
:1000E0009A68D207FCD5187B704700BF00300140EA
:1000F00010B5094C4FF08043C4F818340520FFF7C1
:10010000EAFFFF20FFF7E7FFC307FAD44FF480436D
:10011000C4F8183410BD00BF0000024090A50708C5
:10012000000000200000002000000020000000204F
:100130002DE9F04FA04EA14CD6F83038A048A14D83
:10014000A14F43F0010385B0C6F83038D6F84438E3
:1001500043F01003C6F84438236823F47013236077
:10016000236843F420132360636A23F47F6343F41A
:10017000EE636362A36843F42013A360934B8B2266
:100180009A6042F20C02DA60FFF79CFFD6F8303832
:100190008F4843F04203C6F83038D6F8443843F469
:1001A0008053C6F84438D4F8003423F0405323F485
:1001B0007C63C4F80034D4F8003443F0805343F433
:1001C0002863C4F80034D4F820346FF31733C4F82C
:1001D0002034D4F8203443F4AA0343F4A043C4F8F1
:1001E0002034D4F80C3443F08053C4F80C34D5F8E0
:1001F0000C3843F48043C5F80C38D5F8003823F4A4
:10020000404343F48043C5F800384FF48043C4F8BA
:1002100018348023C5F818386E4B40F24F321A60FC
:10022000D6F8303843F02003C6F83038D5F800341B
:10023000694E23F4402343F48023C5F800344FF47F
:100240000073C5F81834FFF73DFF1C2127FA01F3AE
:10025000DCB2C3F3031304F00F04F05CFFF729FFD3
:100260000439305DFFF725FF0B1DEFD15B48FFF729
:1002700029FF4FF03033019343F23053ADF808308B
:10028000062101AC0139605CFFF713FF0029F9D1A9
:100290005348544C494EFFF715FF5348FFF712FFE0
:1002A0004FF00073C5F818344FF080484FF4804782
:1002B000C6F818840620FFF70EFFC6F81874202031
:1002C000C6F81884FFF707FFC4F30740FFF703FFE2
:1002D000C4F30720FFF7FFFE0020FFF7FCFEC6F87F
:1002E0001874FFF705FF414B04F580549C42DDD1A3
:1002F0004FF40073C5F818343D48DFF804913D4CC5
:10030000DFF8C4802D4FFFF7DDFE4FF00073C5F816
:1003100018344FF0804B5FFA88FACAF58076A6420F
:10032000C7F818B44FF0060028BF2646FFF7D3FEE3
:100330004FF48043C7F818340220C7F818B4FFF709
:10034000CAFEC8F30740FFF7C6FEC8F30720FFF751
:10035000C2FE5046FFF7BFFECA46B144CA4522D18D
:100360004FF48043C7F81834FFF7C2FEA41BB04413
:10037000D1D14FF400762048C5F81864FFF7A2FEEB
:100380001E4A4FF00071C5F818140094009B934268
:100390000EDDC5F818640194019B9342F3DC019BC8
:1003A00001330193F8E71AF8010BFFF794FED5E744
:1003B000009B01330093E9E7003002400000024057
:1003C0000404000800100240A0252600001001408F
:1003D0001D040008003001405F0400082F040008DD
:1003E00042040008002026003604000800D02D003A
:1003F0004504000820A10700540400081FA10700BD
:10040000700400080D0A3E3E3E20424154434820FD
:10041000464C41534845522076320D0A0020204276
:1004200061746368206F66667365743D3078002080
:1004300073697A653D00202045726173696E672E8D
:100440002E2E0D0A00202057726974696E672E2EB9
:100450002E0D0A003E3E3E20444F4E450D0A003010
:10046000313233343536373839414243444546001A
:10047000000000000000000000000000210041001A
:100480004108410841084108410841084108410824
:1004900061086108610861086208620882088208D0
:1004A000820882088208A208A208A208A308C3083A
:1004B000C308C308C308E308E308E308E308E40843
:1004C0000409040904092409240924092509450902
:1004D00045094509450965096509650965098609EB
:1004E000860986098609A609A609A609A709C709D2
:1004F000C709C709C709E709E709E709E709E709DC
:10050000E709E709477287C2A7DA478AC709A60938
:10051000A609A609A6098609860986098611C64183
:10052000067A47AA87D2C7E2C7EAC7EA87D246AAAD
:10053000C669653124092409040904090409040968
:100540004439A57146B287D2C7EAC7EAC7EAC7EA03
:1005500087D206AA64590321C310A308A308A208DE
:10056000A208A208A20882088208820882088208DB
:1005700082088208820882088208620861004100BD
:100580004100410041004100410841084108410843
:1005900041088208C709CF0B580E9224EC2A862105
:1005A000452166296629662966294529452945295F
:1005B00045292521252125216621CB1A7A161415D6
:1005C00004210421E420E418E418E41808322C4340
:1005D000F04BEB3AC318C318C318A318A310A2100A
:1005E0008210821082108210821062108631D39C99
:1005F0009AD67EF7518C494A494A494A294AAF7BE3
:1006000035A5DBDED7BD6E738631210821002100C0
:100610002100EB5A34A579CEF7BD92940C638A522F
:10062000AF7B34A5BAD6F8C5B294E739A210000062
:100630006108084259CEBBDE34A508420000000024
:1006400045294D6B18C6FFFFDFFF14A5E4206108A4
:1006500000000000284235AD96B59294252900008F
:1006600000008E7338C63CE755AD08420842084288
:100670000842084208420842E7394529C3180000E9
:1006800000002529B2947AD67EF7318C08420842C0
:10069000084208420C63518C9AD69AD676B5494ADC
:1006A0002000200020002000210821082108210826
:1006B0002108210821082108210841084108410892
:1006C00041084108410841084108410841084108E2
:1006D0004108410841084108610861086108610852
:1006E000610861086210621062106210621062108C
:1006F000621082108210821082108210821082108A
:10070000821082108210821082108210A210A21019
:10071000A210A210A210A210A210A318A318A3182E
:10072000A318A318C318C318E318E318E41804198E
:10073000041904192419251945194519451965196C
:100740006519661986198619A619A619A719A71970
:10075000C719C719C719E721691A2C1B140D580EA0
:10076000380E9114E821E719E719C719C719C719F5
:10077000A719A619A6198619861986196619651961
:100780006519451945192519E4180419041904199E
:100790002419251925194519451965196519661969
:1007A000861986198619A619A619A619A719C7198F
:1007B000C719C719E7219214380EF70D91148A1A38
:1007C000281AC719C719A719A719A619A61986198A
:1007D0008619861966196519651945194519251966
:1007E00025192419241904190419E418E418E31824
:1007F000C318C318C318A318A318A318A318E7395C
:1008000075AD59CEF7BDAB5AA210A210A21082103E
:10081000821082108210694A34A57AD618C62842FE
:10082000A318821086316E73FBDEBAD6929408420A
:1008300062106210621061086108A63176B559CE67
:10084000D7BD8A5241084108494A55AD9AD6F7BDED
:10085000A7394108410841084108410841084108B9
:100860002842518C1CE7B7BD294A042121082108E0
:10087000210820002000200020002000200020006F
:1008800020002000200020000000000000000000E8
:100890000000000000000000000000000000000058
:1008A0000000000000000000000000000000000048
:1008B0000000000000000000000000000000000038
:1008C0000000000000000000000000000000000028
:1008D0000000000000000000000000000000000018
:1008E00000000000000000000000000020002000C8
:1008F00020002000200020002000210021002100F5
:10090000210021002108210841084108410841082F
:10091000410841084108410841084108410861086F
:100920006108620862086208621062108210821018
:1009300082108210821082108210A210AB32CF4B34
:10094000EC3AC729A318C318C318C318C318E4186E
:10095000F314780EEB1AA52144296429642984290B
:10096000A431A431C431E431E439E439E439243A1E
:10097000C73AD02C731D5505690262002000200083
:1009800021002100210021002100410041004100FF
:100990004100410061006208620862086208820842
:1009A00082088208820882088208A208A208A20897
:1009B000A208A308A308A308C308C308C308C30860
:1009C000C308E308E308E308E308E408E4080409CB
:1009D000040904098409C312431B431B040A2409A4
:1009E000450945094509450965096509C509650AB6
:1009F000E412631BA31BC31BC31BA31B6413E512DD
:100A0000460AC709C709C709C709C709E709E709A6
:100A1000E709E709E709E709E709E709C709C70996
:100A2000C709A709A609A609A6098609860986098C
:100A30008609660965096509650945094509450984
:100A4000450925092409240924090409040904097C
:100A5000E408E408E308E308E308C308C308C3089C
:100A6000C308A308A308A208A208A2088208820853
:100A700082088208820862086208610861086108C9
:100A8000610841084108410841084108410020002F
:100A90002000200000000000000000000000000016
:100AA0000000000000000000000000000000000046
:100AB000000000000000200020002000410041084C
:100AC00041084108410841084108410841086108BE
:100AD0006108610861086208620882088208820869
:100AE00082088208A208A208A208A308A308C308D3
:100AF000C308C308C308E308E308E308E408E408FC
:100B000004090409040924092409240925094509BB
:100B100045094509450965096509650966098609A3
:100B2000860986098609A609A609A609A709C7098B
:100B3000C709C709E709E709E709E709E709E70975
:100B4000E709E7092752478267922762C709A60982
:100B5000A609A609A60986098609860986098619AD
:100B6000A639E669268A479A47A247A2268AC66915
:100B7000653124112409240904090409040904091C
:100B800024214441A571068A26A226A226A226A2D5
:100B9000E58985610329C308A308A308A308A2085F
:100BA000A208A208A2088208820882088208820895
:100BB0008208820882088208820862086100410077
:100BC00041004100410041084108410841084108F5
:100BD0004108A208E709EE13551EEF348A43653A2F
:100BE000043A2542253A253A053AE539E539C53131
:100BF000C531A53185318529C6290B237916F31C0A
:100C0000042104210421E420E418E41829322D43AE
:100C1000104CEB3AC318C318C318A318A310A210A2
:100C20008210821082108210821062108631D39C52
:100C30007AD65DEF2C634108410841084108A6318E
:100C40008E73BAD6BAD614A5284221082100A3185B
:100C50008631B3949AD6F7BD718C694A042182100B
:100C600086312D6B34A579CE39CE6D6B863100007F
:100C700000006631D7BD9AD6B7BD494A00000000D2
:100C8000C739718C39CE9EF7DFFF96B50842E3185D
:100C900000000000694AD7BD55ADF0830421000073
:100CA00000008E7318C61CE772940000000000005C
:100CB0000000000000000000000000000000000034
:100CC00000002529B29479CE5DEFEC6200000000AF
:100CD00000002000E4208A5296B5DBDE1CE7EB5AC8
:100CE00020002000200020002108210821082108E0
:100CF000210821082108210821084108410841084C
:100D0000410841084108410841084108410841089B
:100D1000410841084108410861086108610861080B
:100D20006108610862106210621062106210621045
:100D30006210821082108210821082108210821043
:100D4000821082108210821082108210A210A210D3
:100D5000A210A210A210A210A210A318A318A318E8
:100D6000A318A318C318C318E318E318E418041948
:100D70000419041924192519451945194519651926
:100D80006519661986198619A619A619A719A7192A
:100D9000C719C719C719E721691A2C1B140D580E5A
:100DA000380E9114E821E719E719C719C719C719AF
:100DB000A719A619A619861986198619661965191B
:100DC0006519451945192519E41804190419041958
:100DD0002419251925194519451965196519661923
:100DE000861986198619A619A619A619A719C71949
:100DF000C719C719E7219214380EF70D91148A1AF2
:100E0000281AC719C719A719A719A619A619861943
:100E1000861986196619651965194519451925191F
:100E200025192419241904190419E418E418E318DD
:100E3000C318C318C318A318A318A318A3180842EB
:100E4000F7BD79CE35AD6A52A210A210A210821061
:100E5000821082108210294AB2949AD69AD6CB5A1E
:100E60000421821086316E73FBDEBAD6929408425A
:100E700062106210621061086108863134A579CE73
:100E80007AD6CB5A410841086A52B7BD59CE76B5D9
:100E9000863141084108410841084108410841089C
:100EA00086318E73FBDE59CEAF7B86312108210857
:100EB0002108200020002000200020002000200029
:100EC00020002000200020000000000000000000A2
:100ED0000000000000000000000000000000000012
:100EE0000000000000000000000000000000000002
:100EF00000000000000000000000000000000000F2
:100F000000000000000000000000000000000000E1
:100F100000000000000000000000000000000000D1
:100F20000000000000000000000000002000200081
:100F300020002000200020002000210021002100AE
:100F400021002100210821084108410841084108E9
:100F50004108410841084108410841084108610829
:100F600061086208620862086210621082108210D2
:100F700082108210821082108210A210AB32CF4BEE
:100F8000EC3AE729A318C318C318C318C318E41808
:100F9000D21C571E6A2B4532E331033A433A63426F
:100FA0008342C34AE34A03532353435B635B835B3C
:100FB000255C4C4D902D75056902620020002000D3
:100FC00021002100210021002100410041004100B9
:100FD00041004100610062086208620862088208FC
:100FE00082088208820882088208A208A208A20851
:100FF000A208A308A308A308C308C308C308C3081A
:10100000C308E308E308E308E308E308E408040985
:101010000409040924096409840984094409240988
:1010200045094509450945094509650965098509D0
:10103000A509C509E509E509E509E609E609E6099D
:10104000C609A709C709C709C709C709E709E70901
:10105000E709E709E709E709E709E709C709C70950
:10106000C709A709A609A609A60986098609860946
:10107000860966096509650965094509450945093E
:101080004509250924092409240904090409040936
:101090000409E408E408E308E308C308C308C30834
:1010A000C308C308A308A208A208A20882088208ED
:1010B0008208820882086208620861086108610883
:1010C00061086108410841084108410841084100A0
:1010D00041002100000000000000000000000000AE
:1010E0000000000000000000000000000000000000
:1010F0000000000020004100410041084108410873
:101100004108410841084108410841086108610857
:101110006108610861086208620882088208820822
:1011200082088208A208A208A208A308C308C3086C
:10113000C308C308C308E308E308E408E408040993
:101140000409040904092409240924092509450975
:10115000450945094509650965096509660986095D
:10116000860986098609A609A609A609A709C70945
:10117000C709C709E709E709E709E709E709E7092F
:10118000E709E709E711E719E721C711A709A60948
:10119000A609A609A60986098609860966096609B7
:1011A00065118519851985218521652165194519DF
:1011B0004509240924092409040904090409040926
:1011C00004090411041904192421242104210421EF
:1011D0000319E318C308C308A308A308A308A208B7
:1011E000A208A208A208820882088208820882084F
:1011F0008208820882088208820862086108610009
:101200004100410061084108410861086108410846
:101210004108A308280A2C2470468B5DA66CC46381
:101220008363A463645B445B24530453E452C44A61
:10123000844A64424442243A663A8B335726D22485
:1012400004210421042104210421042129324D43D5
:10125000104CEB3AC318C318C318C318A318A31033
:10126000A210821082108210821082108631D39CCC
:101270007AD65DEF2C63610841084108410882106D
:10128000E841D7BDBAD618C68A5221082100A73135
:10129000108459CEDBDECF7BE7398210410821086C
:1012A00061080421E84155ADFCE614A5AB5A0000E5
:1012B0000000452914A579CE79CE8A52000000009D
:1012C000084235ADF7BDBAD67EF718C6AE736631A3
:1012D00000000000AB5ADBDE34A54D6BE3180000C4
:1012E00000008E7318C61CE7729400000000000016
:1012F00000000000000000000000000000000000EE
:1013000000002529B29479CE5DEFEC620000000068
:101310000000200041084529518C59CEDFFF2D6B7C
:101320002000200020002000210821082108210899
:101330002108210821082108210841084108410805
:101340004108410841084108410841084108410855
:1013500041084108410841086108610861086108C5
:1013600061086108621062106210621062106210FF
:1013700062108210821082108210821082108210FD
:10138000821082108210821082108210A210A2108D
:10139000A210A210A210A210A210A318A318A318A2
:1013A000A318A318C318C318E318E318E418041902
:1013B00004190419241925194519451945196519E0
:1013C0006519661986198619A619A619A719A719E4
:1013D000C719C719C719E721691A2C1B140D580E14
:1013E000380E9114E821E719E719C719C719C71969
:1013F000A719A619A61986198619861966196519D5
:101400006519451945192519E41804190419041911
:1014100024192519251945194519651965196619DC
:10142000861986198619A619A619A619A719C71902
:10143000C719C719E7219214380EF70D91148A1AAB
:10144000281AC719C719A719A719A619A6198619FD
:1014500086198619661965196519451945192519D9
:1014600025192419241904190419E418E418E31897
:10147000C318C318C318A318A318A318A3180842A5
:1014800059CE9AD614A5694AA210A210A2108210B1
:1014900082108210821028429294BAD6DBDE2C632E
:1014A0006529821086316E73FBDEBAD692940842AB
:1014B000621062106210610861088631F39C59CE97
:1014C0009AD6CB5A41084108AA5238C67AD655ADA9
:1014D0008631410841084108410841084108410856
:1014E00066316D6BDBDE9AD6318CC7392108210855
:1014F00021082000200020002000200020002000E3
:10150000200020002000200000000000000000005B
:1015100000000000000000000000000000000000CB
:1015200000000000000000000000000000000000BB
:1015300000000000000000000000000000000000AB
:10154000000000000000000000000000000000009B
:10155000000000000000000000000000000000008B
:10156000000000000000000000000000200020003B
:101570002000200020002000200021002100210068
:1015800021002100210821084108410841084108A3
:1015900041084108410841084108410841086108E3
:1015A000610862086208620862106210821082108C
:1015B00082108210821082108210A210AB32CF4BA8
:1015C000EC3AE829A318C318C318C318C318E418C1
:1015D000AD347046684C84532253435B435B435B9A
:1015E000635B635B635B835B835B835B835B835B6B
:1015F000055C4C4D912D75058A028200200020006B
:101600002100210021002100210041004100410072
:1016100041004100610062086208620862088208B5
:10162000820882088208820882088208A208A2082A
:10163000A208A308A308A308C308C308C308C308D3
:10164000C308E308E308E308E308E308E40804093F
:1016500004090409040904092409240924092409A2
:1016600045094509450945094509650965096509AA
:1016700066096609860986098609A609A609A609D2
:10168000A609A709C709C709C709C709E709E709DB
:10169000E709E709E709E709E709E709C709C7090A
:1016A000C709A709A609A609A60986098609860900
:1016B00086096609650965096509450945094509F8
:1016C00045092509240924092409040904090409F0
:1016D0000409E408E408E308E308C308C308C308EE
:1016E000C308C308A308A208A208A20882088208A7
:1016F000820882088208620862086108610861083D
:101700006108610841084108410841084108410851
:1017100041084108210020002100000000000000D5
:101720000000000000000000000000000000200099
:1017300021002100410041084108410841084108B9
:101740004108410841084108410841086108610811
:1017500061086108610862086208820882088208DC
:1017600082088208A208A208A208A308C308C30826
:10177000C308C308C308E308E308E408E40804094D
:10178000040904090409240924092409250945092F
:101790004509450945096509650965096609860917
:1017A000860986098609A609A609A609A709C709FF
:1017B000C709C709E709E709E709E709E709E709E9
:1017C000E709E709C709C709C709C709A709A6099A
:1017D000A609A609A6098609860986096609660971
:1017E0006509650965094509450945094509450929
:1017F0002409240924092409040904090409040901
:101800000409E408E308E308E308E308E308C3087D
:10181000C308C308C308C308A308A308A308A208F1
:10182000A208A20882088208820882088208820828
:1018300082088208820882088208620861086100C2
:101840006100610861086108610861084108410898
:101850004108E308AA0A8F24713E4B554664A463ED
:10186000A463C463A463A463A463A4638463846360
:10187000845B645B645B645BA55B8854714EAE3CC7
:1018800025210421042104210421042149324D434E
:10189000104CEB3AC318C318C318C318A318A310ED
:1018A000A210821082108210821082108631D39C86
:1018B0007AD65DEF2C636108410841084108410870
:1018C000A631B6B5BAD639CE8A5221082100294AA6
:1018D00055AD7ACE18C66A52C318200020002000E9
:1018E00020006108C318518C7AD6F8C58E730000A9
:1018F00000002421929439CE1CE7CB5A000000004E
:10190000494AB7BDB6B5F7BDDBDE38C69294C739D4
:10191000200082104D6B7DEF9294294A82100000C6
:1019200000008E7318C61CE77294000000000000CF
:1019300000000000000000000000000000000000A7
:1019400000002529B29479CE5DEFEC620000000022
:101950000000200020000421F08338C6FFFF4D6BFB
:101960002000200020002000210821082108210853
:1019700021082108210821082108410841084108BF
:10198000410841084108410841084108410841080F
:10199000410841084108410861086108610861087F
:1019A00061086108621062106210621062106210B9
:1019B00062108210821082108210821082108210B7
:1019C000821082108210821082108210A210A21047
:1019D000A210A210A210A210A210A318A318A3185C
:1019E000A318A318C318C318E318E318E4180419BC
:1019F000041904192419251945194519451965199A
:101A00006519661986198619A619A619A719A7199D
:101A1000C719C719C719E721691A2C1B140D580ECD
:101A2000380E9114E821E719E719C719C719C71922
:101A3000A719A619A619861986198619661965198E
:101A40006519451945192519E418041904190419CB
:101A50002419251925194519451965196519661996
:101A6000861986198619A619A619A619A719C719BC
:101A7000C719C719E7219214380EF70D91148A1A65
:101A8000281AC719C719A719A719A619A6198619B7
:101A90008619861966196519651945194519251993
:101AA00025192419241904190419E418E418E31851
:101AB000C318C318C318A318A318A318A31828423F
:101AC0009AD6DBDE14A5694AA210A210A2108210D9
:101AD00082108210821028429294BAD6FBDE6E7376
:101AE0008631821086316E73FBDEBAD6929408423C
:101AF000621062106210610861088631D39C38C69A
:101B00009AD6CB5A41084108CB5A9AD69AD655ADA7
:101B1000863141084108410841084108410841080F
:101B200066316D6BDBDE9AD67294E73921082108A5
:101B3000210820002000200020002000200020009C
:101B40002000200020002000000000000000000015
:101B50000000000000000000000000000000000085
:101B60000000000000000000000000000000000075
:101B70000000000000000000000000000000000065
:101B80000000000000000000000000000000000055
:101B90000000000000000000000000000000000045
:101BA00000000000000000000000000020002000F5
:101BB0002000200020002000200021002100210022
:101BC000210021002108210841084108410841085D
:101BD000410841084108410841084108410861089D
:101BE0006108620862086208621062108210821046
:101BF00082108210821082108210A210AB32CF4B62
:101C00000C3BE829A318C318C318C318C318E41859
:101C1000884C8A6E857DE27C817C82746274226C41
:101C2000026CE263C363A3638363635B435B23531D
:101C3000864BED3C722595058A028200210020002A
:101C4000210021002100210021004100410041002C
:101C5000410041006100620862086208620882086F
:101C60008208820882088208820882088208A20804
:101C7000A208A308A308A308C308C308C308C3088D
:101C8000C308E308E308E308E308E308E4080409F9
:101C9000040904090409040924092409240924095C
:101CA0004509450945094509450965096509650964
:101CB00066096609860986098609A609A609A6098C
:101CC000A609A609C709C709C709C709E709E70996
:101CD000E709E709E709E709E709E709C709C709C4
:101CE000C709C709A709A609A609A6098609860979
:101CF0008609860966096509650945094509450991
:101D00004509450924092409240904090409040989
:101D10000409E408E408E308E308E308C308C30887
:101D2000C308C308A308A308A208A208820882085F
:101D300082088208820862086208620861086108F5
:101D400061086108610841084108410841084108EB
:101D500041084108410841084108200000000000F6
:101D60000000000000000000000000000000410032
:101D700061084108410841084108410841084108FB
:101D800041084108410841084108610861086108AB
:101D90006108610862086208620882088208820895
:101DA00082088208A208A208A308A308C308C308DF
:101DB000C308C308E308E308E308E408E4080409E7
:101DC00004090409040924092409240945094509C9
:101DD00045094509450965096509660986098609B0
:101DE00086098609A609A609A609A709C709C70978
:101DF000C709C709E709E709E709E709E709E709A3
:101E0000E709E709C709C709C709C709A609A60954
:101E1000A609A609A609860986098609660966092A
:101E200065096509650945094509450945094509E2
:101E300024092409240924090409040904090409BA
:101E40000409E408E308E308E308E308E308C30837
:101E5000C308C308C308C308A308A308A308A208AB
:101E6000A20882088208A2088208820882088208E2
:101E7000820882088208820882088208620861005B
:101E8000610861086108610861086108410841084A
:101E9000410804096D0B121D742EAC448753245362
:101EA000245B8463A463C463E46BE46B046C2374F9
:101EB0006374637C837CC37C0485A67DAA76A95465
:101EC00025210421042104210421252169326D43A7
:101ED000F04BCB3AC318C318C318C318A318A310E8
:101EE000A310A21082108210821082108631D39C1F
:101EF0007AD65DEF2C63610841084108410841082A
:101F0000A731B6B5BAD639C68A52210821008A52FD
:101F100059CE39CEF4A4452920002000200020000D
:101F20002000200000004D6BB6B5BAD6318C2000E1
:101F300000000421EF7B18C6BEF72C6300000000F0
:101F40008A5239CE75AD35AD39CE18C675AD294A30
:101F500041080421F083FFFFEF7B042141080000CA
:101F600000008E7318C61CE7729400000000000089
:101F70000000000000000000000000000000000061
:101F800000002529B29479CE5DEFEC6200000000DC
:101F90000000200020002421108438C6FFFF4D6B74
:101FA000200020002000200021082108210821080D
:101FB0002108210821082108210841084108410879
:101FC00041084108410841084108410841084108C9
:101FD0004108410841084108610861086108610839
:101FE0006108610862106210621062106210621073
:101FF0006210821082108210821082108210821071
:10200000821082108210821082108210A210A21000
:10201000A210A210A210A210A210A318A318A31815
:10202000A318A318C318C318E318E318E418041975
:102030000419041924192519451945194519651953
:102040006519661986198619A619A619A719A71957
:10205000C719C719C719E721691A2C1B140D580E87
:10206000380E9114E821E719E719C719C719C719DC
:10207000A719A619A6198619861986196619651948
:102080006519451945192519E41804190419041985
:102090002419251925194519451965196519661950
:1020A000861986198619A619A619A619A719C71976
:1020B000C719C719E7219214380EF70D91148A1A1F
:1020C000281AC719C719A719A719A619A619861971
:1020D000861986196619651965194519451925194D
:1020E00025192419241904190419E418E418E3180B
:1020F000C318C318C318A318A318A318A318084219
:1021000079CEBBDE14A5694AA210A210A2108210DB
:1021100082108210821028429294BAD6DBDE2C63A1
:102120004529821086316E73FBDEBAD6929408423E
:10213000621062106210610861088631F4A459CE01
:102140009AD6CB5A41084108CB5A79CE9AD655AD8A
:1021500086314108410841084108410841084108C9
:1021600066316D6BDBDE9AD6318CC73921082108C8
:102170002108200020002000200020002000200056
:1021800020002000200020000000000000000000CF
:10219000000000000000000000000000000000003F
:1021A000000000000000000000000000000000002F
:1021B000000000000000000000000000000000001F
:1021C000000000000000000000000000000000000F
:1021D00000000000000000000000000000000000FF
:1021E00000000000000000000000000020002000AF
:1021F00020002000200020002000210021002100DC
:102200002100210021082108410841084108410816
:102210004108410841084108410841084108610856
:1022200061086208620862086210621082108210FF
:1022300082108210821082108210A210AB32EF4BFB
:102240000C3B082AC318C318C318C318C318E418D2
:102250006D2C31364A3C25438342834263426342BC
:1022600044424442443A443A443A243A043A043A0E
:10227000A7328F2C531D9605AA02A2002100200030
:1022800021002100210021002100410041004100E6
:102290004100410061006208620862086208820829
:1022A0008208820882088208820882088208A208BE
:1022B000A208A308A308A308C308C308C308C30847
:1022C000C308E308E308E308E308E308E4080409B3
:1022D0000409040904090409240924092409240916
:1022E000450945094509450945096509650965091E
:1022F000660966098609860986098609A609A60966
:10230000A609A609A709C709C709C709E709E7096F
:10231000E709E709E709E709E709E709C709C7097D
:10232000C709C709A709A609A609A6098609860932
:10233000860986096609650965096509450945092A
:102340004509450924092409240904090409040943
:1023500004090409E408E308E308E308C308C30820
:10236000C308C308A308A308A208A208A2088208F9
:10237000820882088208820862086208620861088E
:102380006108610861086108410841084108410885
:10239000410841084108410841082100200020006F
:1023A000200020002000200020002000200041000C
:1023B00041084108410841084108410841084108D5
:1023C0004108410841084108610861086108610845
:1023D000610862086208620882088208820882082E
:1023E0008208A208A208A208A308A308C308C30879
:1023F000C308C308E308E308E308E4080409040980
:102400000409040924092409240924094509450962
:102410004509450965096509650966098609860949
:1024200086098609A609A609A609A709C709C70931
:10243000C709C709E709E709E709E709E709E7095C
:10244000E709E709C709C709C709A709A609A6092E
:10245000A609A60986098609860986096609660904
:10246000650965096509450945094509450945099C
:102470002409240924092409040904090409040974
:102480000409E408E308E308E308E308E308C308F1
:10249000C308C308C308C308A308A308A308A20865
:1024A000A208A208A208A20882088208820882085C
:1024B000820882088208820882088208620861080D
:1024C0006108610861086108610861084108410804
:1024D000410804098E0B1315561E2E348742253AE7
:1024E000253A6642654265428542854A854A854A63
:1024F000A54AA44AA44AC44A674B6B4C32468E3460
:102500002521252104210421252145216A326E43FC
:10251000EF4BCB3AE318C318C318C318C318A31062
:10252000A310A21082108210821082108631D39CD8
:102530007AD65DEF2C636108410841084108C7392C
:10254000AF7B9AD6BAD635AD294A21082100CB5A9D
:10255000DBDE18C6718C2529200020002000200019
:10256000200020000000EC6275AD1CE7D39CC3186E
:102570004108C318EC6255ADDFFF3084452961087E
:10258000CB5A1CE735AD718C96B518C659CE8A5218
:10259000A210494AB2947DEF4D6B621020000000FA
:1025A00000008E7318C61CE7729400000000000043
:1025B000000000000000000000000000000000001B
:1025C00000002529B29479CE5DEFEC620000000096
:1025D000000020000421AA5275AD59CE39CE8A528E
:1025E00020002000200020002108210821082108C7
:1025F0002108210821082108210841084108410833
:102600004108410841084108410841084108410882
:1026100041084108410841086108610861086108F2
:10262000610861086210621062106210621062102C
:10263000621082108210821082108210821082102A
:10264000821082108210821082108210A210A210BA
:10265000A210A210A210A210A210A318A318A318CF
:10266000A318A318C318C318E318E318E41804192F
:10267000041904192419251945194519451965190D
:102680006519661986198619A619A619A719A71911
:10269000C719C719C719E721691A2C1B140D580E41
:1026A000380E9114E821E719E719C719C719C71996
:1026B000A719A619A6198619861986196619651902
:1026C0006519451945192519E4180419041904193F
:1026D000241925192519451945196519651966190A
:1026E000861986198619A619A619A619A719C71930
:1026F000C719C719E7219214380EF70D91148A1AD9
:10270000281AC719C719A719A719A619A61986192A
:102710008619861966196519651945194519251906
:1027200025192419241904190419E418E418E318C4
:10273000C318C318C318A318A318A318A3180842D2
:1027400018C69AD635AD6A52A210A210A2108210F5
:10275000821082108210294AB39C9AD69AD6AB5A1C
:102760000421821086316E73FBDEBAD69294084241
:1027700062106210621061086108863134A579CE5A
:1027800079CECB5A41084108AA5218C67AD676B5F6
:102790008631410841084108410841084108410883
:1027A00086318E73FBDE59CE8E7386312108210867
:1027B0002108200020002000200020002000200010
:1027C0002000200020002000000000000000000089
:1027D00000000000000000000000000000000000F9
:1027E00000000000000000000000000000000000E9
:1027F00000000000000000000000000000000000D9
:1028000000000000000000000000000000000000C8
:1028100000000000000000000000000000000000B8
:102820000000000000000000000000002000200068
:102830002000200020002000200021002100210095
:1028400021002100210821084108410841084108D0
:102850004108410841084108410841084108610810
:1028600061086208620862086210621082108210B9
:1028700082108210821082108210A210AB32EF4BB5
:102880002C3B082AC318C318C318C318C318E4186C
:102890005114D70D6D13E819E41804210421042103
:1028A00004210521252125214521452125212521F9
:1028B000E821101C3415B605CB02A300210020002E
:1028C00021002100210021002100410041004100A0
:1028D00041004100610062006208620862088208EB
:1028E0008208820882088208820882088208A20878
:1028F000A208A308A308A308C308C308C308C30801
:10290000C308E308E308E308E308E308E408E4088D
:1029100004090409040904092409240924092409CF
:1029200045094509450945094509650965096509D7
:10293000660966098609860986098609A609A6091F
:10294000A609A609A709C709C709C709E709E70929
:10295000E709E709E709E709E709E709C709C70937
:10296000C709C709C709A609A609A60986098609CC
:1029700086098609660965096509650945094509E4
:1029800045094509250924092409240904090409DC
:1029900004090409E408E408E308E308C308C308D9
:1029A000C308C308C308A308A208A208A208A20873
:1029B0008208820882088208820862086208620827
:1029C000610861086108610861084108410841081F
:1029D00041084108410841084108410841084108AF
:1029E000410841084108410841084108410841089F
:1029F000410841084108410841084108410841088F
:102A000041084108410861086108610861086108DE
:102A100062086208620882088208820882088208C6
:102A2000A208A208A208A208A308C308C308C308F2
:102A3000C308C308E308E308E408E4080409040938
:102A4000040904092409240924092509450945091B
:102A50004509450965096509650966098609860903
:102A600086098609A609A609A609C709C709C709CB
:102A7000C709C709E709E709E709E709E709E70916
:102A8000E709E709C709C709C709A709A609A609E8
:102A9000A609A609860986098609860966096609BE
:102AA0006509650965094509450945094509450956
:102AB000240924092409240904090409040904092E
:102AC000E408E408E308E308E308E308E308C308CC
:102AD000C308C308C308C308A308A308A308A2081F
:102AE000A208A208A208A208820882088208820816
:102AF00082088208820882088208820862086108C7
:102B0000610861086108610861086108610841089D
:102B100041082409AE0B340D380EAE23E831662986
:102B20006629863186318631862966296629662995
:102B3000662966294529452929228E23D71D721C1D
:102B40002521252125210421252166218A3A8E432C
:102B5000CF4BCB3AE318C318C318C318C318A3103C
:102B6000A310A31082108210821082108631D39C91
:102B70009AD67EEFCF7B8631663166316631AE7391
:102B800096B51CE718C6EF7BA731210821000C631E
:102B90007DEFF8BD108404212000200020002000DB
:102BA000200020000000AB5A34A55DEF55AD65292B
:102BB00082108210E7399294FFFFF4A46A52E42055
:102BC0004D6BBFFFF4A48E73B39CF7BD1CE7EC62A2
:102BD00004214D6B34A5BBDEAB5A000000000000A1
:102BE00000008E7318C61CE7F4A445294529452921
:102BF00045294529452945290421410800000000AF
:102C000000002529B2947AD67DEFAF7B452945296E
:102C100045294529AA52308418C6B7BD318CC73919
:102C20002000200020002000210821082108210880
:102C300021082108210821082108410841084108EC
:102C4000410841084108410841084108410841083C
:102C500041084108410841086108610861086108AC
:102C600061086108621062106210621062106210E6
:102C700062108210821082108210821082108210E4
:102C8000821082108210821082108210A210A21074
:102C9000A210A210A210A210A210A318A318A31889
:102CA000A318A318C318C318E318E318E4180419E9
:102CB00004190419241925194519451945196519C7
:102CC0006519661986198619A619A619A719A719CB
:102CD000C719C719C719E721691A2C1B140D580EFB
:102CE000380E9114E821E719E719C719C719C71950
:102CF000A719A619A61986198619861966196519BC
:102D00006519451945192519E418041904190419F8
:102D100024192519251945194519651965196619C3
:102D2000861986198619A619A619A619A719C719E9
:102D3000C719C719E7219214380EF70D91148A1A92
:102D4000281AC719C719A719A719A619A6198619E4
:102D500086198619661965196519451945192519C0
:102D600025192419241904190419E418E418E3187E
:102D7000C318C318C318A318A318A318A318E739B6
:102D800076B559CEF7BDAB5AA210A210A210821090
:102D9000821082108210694A35AD7AD6F8C5284271
:102DA000A318821086316E73FBDEBAD69294084265
:102DB00062106210621061086108A63196B559CEA2
:102DC000D7BD8A5241084108494A55AD9AD6F8C53F
:102DD000A739410841084108410841084108410814
:102DE000294A718C1CE7B6B52842E4202108210845
:102DF00021082000200020002000200020002000CA
:102E00002000200020002000000000000000000042
:102E100000000000000000000000000000000000B2
:102E200000000000000000000000000000000000A2
:102E30000000000000000000000000000000000092
:102E40000000000000000000000000000000000082
:102E50000000000000000000000000000000000072
:102E60000000000000000000000000002000200022
:102E7000200020002000200020002100210021004F
:102E8000210021002108210841084108410841088A
:102E900041084108410841084108410841086108CA
:102EA0006108620862086208621062108210821073
:102EB00082108210821082108210A210AB32CF4B8F
:102EC0002D3B292AE418C318C318C318C318C31804
:102ED0001014960D8E13291AE418042104210421DC
:102EE00004210521252125214521452125212521B3
:102EF000E821F01B3415D605EB02C3004100200089
:102F00002100210021002100210041004100410059
:102F100041004100610061006208620862088208A5
:102F20008208820882088208820882088208A20831
:102F3000A208A308A308A308C308C308C308C308BA
:102F4000C308E308E308E308E308E308E408E40847
:102F500004090409040904090409240924092409A9
:102F60004509450945094509450965096509650991
:102F70006509660986098609860986098609A609FA
:102F8000A609A609A709C709C709C709C709E70903
:102F9000E709E709E709E709E709E709E709C709D1
:102FA000C709C709C709A609A609A6098609860986
:102FB000860986096609650965096509450945099E
:102FC0004509450945092509240924090409040975
:102FD00004090409E408E408E308E308E308C30873
:102FE000C308C308C308A308A208A208A208A2082D
:102FF00082088208820882088208820862086208C1
:1030000061086108610861086108610841084108B8
:103010004108410841084108410841084108410868
:103020004108410841084108410841084108410858
:103030004108410841084108410841084108410848
:103040004108410861086108610861086108610878
:103050006208620882088208820882088208820860
:10306000A208A208A208A208A308C308C308C308AC
:10307000C308E308E308E308E408E40804090409D2
:1030800004090409240924092509450945094509B4
:1030900045094509650965096509660986098609BD
:1030A00086098609A609A609A609C709C709C70985
:1030B000C709E709E709E709E709E709E709E709B0
:1030C000E709C709C709C709C709A709A609A609C2
:1030D000A609860986098609860986096609650999
:1030E0006509650965094509450945094509450910
:1030F0002409240924090409040904090409040908
:10310000E408E408E308E308E308E308E308C30885
:10311000C308C308C308C308A308A308A308A208D8
:10312000A208A208A20882088208820882088208EF
:103130008208820882088208820882086208610880
:103140006108610862086108610862086108410855
:1031500041082509AE0B340D170EAE23E831662960
:103160006629A73186318631863186296629662906
:1031700066296629452945294922AF23B61D511CD8
:10318000252125212521252145216629AB3A8E4B74
:10319000CF4BAB3AE418C318C318C318C318A3180D
:1031A000A310A310A2108210821082108631D39C2B
:1031B000BAD6DFFF9AD6D7BDD7BDD7BDD7BD9AD671
:1031C000DBDE18C610846631A318210821002D6BA0
:1031D000DFFF18C6108404212000200020002000FA
:1031E000200020000000AB5A34A55DEF96B5C7392A
:1031F000C3182108A3188E73DFFF55AD4D6B494AE4
:10320000518CFFFF518C494ACF7BB7BDBFFFAE73D6
:10321000A631EF7B14A5D7BD494A0000000000008D
:1032200000008E7339CE7DEFFCE6D7BDD7BDD7BD8C
:10323000D7BDD7BDD7BDD7BDB294252900000000AA
:1032400000002529B2949AD6DFFF9AD6D7BDD7BD04
:10325000D7BDD7BDF8C5B6B592940C638631A31817
:10326000200020002000200021082108210821083A
:1032700021082108210821082108410841084108A6
:1032800041084108410841084108410841084108F6
:103290004108410841084108610861086108610866
:1032A00061086108621062106210621062106210A0
:1032B000621082108210821082108210821082109E
:1032C000821082108210821082108210A210A2102E
:1032D000A210A210A210A210A210A318A318A31843
:1032E000A318A318C318C318E318E318E4180419A3
:1032F0000419041924192519451945194519651981
:103300006519661986198619A619A619A719A71984
:10331000C719C719C719E721691A2C1B140D580EB4
:10332000380E9114E821E719E719C719C719C71909
:10333000A719A619A6198619861986196619651975
:103340006519451945192519E418041904190419B2
:10335000241925192519451945196519651966197D
:10336000861986198619A619A619A619A719C719A3
:10337000C719C719E7219214380EF70D91148A1A4C
:10338000281AC719C719A719A719A619A61986199E
:10339000861986196619651965194519451925197A
:1033A00025192419241904190419E418E418E31838
:1033B000C318C318C318A318A318A318A318A739B0
:1033C000D39C38C6DBDE6D6B0421A318A2108210DB
:1033D0008210A210C318EC6218C659CE55ADA73999
:1033E0008210821086316E73FBDEBAD69294084248
:1033F0006210621062106108E4206A5218C659CE49
:10340000F39C284241084108E739318C59CE9AD6BD
:10341000AB5A0421410841084108410841084108CC
:10342000EC6255AD1CE7F4A40421821021082108A8
:103430002108200020002000200020002000200083
:1034400020002000200020000000000000000000FC
:10345000000000000000000000000000000000006C
:10346000000000000000000000000000000000005C
:10347000000000000000000000000000000000004C
:10348000000000000000000000000000000000003C
:10349000000000000000000000000000000000002C
:1034A00000000000000000000000000020002000DC
:1034B0002000200020002000200021002100210009
:1034C0002100210021082108410841084108410844
:1034D0004108410841084108410841084108610884
:1034E000610862086208620862106210821082102D
:1034F00082108210821082108210A210AA32CF4352
:103500004D3B2932E418C318C318C318C318C31895
:10351000F013760DCF13491AE41804210421042175
:10352000042105212521252145214521252125216C
:10353000C721CF231415F7050B03E300410020003A
:103540002100210021002100210041004100410013
:10355000410041006100610062086208620882085F
:103560008208820882088208820882088208A208EB
:10357000A208A308A308A308C308C308C308C30874
:10358000C308C308E308E308E308E308E408E40821
:103590000409040904090409040924092409240963
:1035A000250945094509450945096509650965096B
:1035B0006509660986098609860986098609A609B4
:1035C000A609A609A709C709C709C709C709E709BD
:1035D000E709E709E709E709E709E709E709C7098B
:1035E000C709C709C709A609A609A609A609860920
:1035F0008609860966096609650965094509450957
:10360000450945094509250924092409040904092E
:10361000040904090409E408E308E308E308C3080B
:10362000C308C308C308A308A308A208A208A208E5
:10363000A20882088208820882088208820862083A
:103640006208610861086108610861086108610831
:103650004108410841084108410841084108410822
:103660004108410841084108410841084108410812
:103670004108410841084108410841084108410802
:1036800061086108610861086108610861086208F1
:103690006208820882088208820882088208A208DA
:1036A000A208A208A208A308A308C308C308C30865
:1036B000C308E308E308E308E4080409040904096B
:1036C000040924092409240925094509450945094E
:1036D0004509450965096509660966098609860976
:1036E0008609A609A609A609A609C709C709C7091F
:1036F000C709E709E709E709E709E709E709E7096A
:10370000E709C709C709C709C709A709A609A6097B
:10371000A609860986098609860986096609650952
:1037200065096509650945094509450945092509E9
:1037300024092409240904090409040904090409C1
:10374000E408E408E308E308E308E308C308C3085F
:10375000C308C308C308C308A308A308A308A20892
:10376000A208A208A20882088208820882088208A9
:10377000820882088208820882088208620861083A
:10378000610862086208620861086208610841080D
:1037900061084509CF0B3415F7158E23E8316629EA
:1037A0006629A731A7318631863186316629662997
:1037B00066296629662945298A22CF23961D301C51
:1037C000452925212521252145218629CB3AAE4BA6
:1037D000AF4BAA3AE418E318C318C318C318A318C8
:1037E000A310A310A210A210821082108631D39CC5
:1037F000BAD6DFFF9AD6D7BDD7BDD7BDD7BDD7BD07
:1038000075AD1084494A41084108210821004D6BDB
:10381000FFFF38C6F0830421200020002000200094
:10382000200020000000AB5A34A55DEF96B5C739E3
:10383000C318000000000C637EF796B530848E73C9
:1038400014A5BFFFAE734529AB5A14A5FFFF318CF9
:10385000694A929434A5F4A40842000000000000D4
:1038600000008E7339CE7DEFFCE6D7BDD7BDD7BD46
:10387000D7BDD7BDD7BDD7BDB29425290000000064
:1038800000002529B2949AD6DFFF9AD6D7BDD7BDBE
:1038900079CE7DEF7DEF9AD6CF7BC739200020000F
:1038A00020002000200020002108210821082108F4
:1038B0002108210821082108210841084108410860
:1038C00041084108410841084108410841084108B0
:1038D0004108410841084108610861086108610820
:1038E000610861086210621062106210621062105A
:1038F0006210821082108210821082108210821058
:10390000821082108210821082108210A210A210E7
:10391000A210A210A210A210A210A318A318A318FC
:10392000A318A318C318C318E318E318E41804195C
:10393000041904192419251945194519451965193A
:103940006519661986198619A619A619A719A7193E
:10395000C719C719C719E721691A2C1B140D580E6E
:10396000380E9114E821E719E719C719C719C719C3
:10397000A719A619A619861986196619661965194F
:103980006519451945192519E4180419041904196C
:103990002419251925194519451965196519661937
:1039A000861986198619A619A619A619A719C7195D
:1039B000C719C719E7219214380EF70D91148A1A06
:1039C000281AC719C719A719A719A619A619861958
:1039D0008619861966196519651945194519251934
:1039E00025192419241904190419E418E418E318F2
:1039F000C318C318C318A318A318A318A318863193
:103A00001084F8C5DFFF518CC739E318A21082106B
:103A10008210C3184529CF7B5DEF18C6518C6631E3
:103A20008210821086316E73FBDEBAD69294084201
:103A3000621062106210610808421084FBDE39CE09
:103A4000CF7BA739410841084529AA52D7BD3CE799
:103A5000B39C6A52410841084108410841084108A5
:103A6000CF7B59CEBBDE518C61084108210821086B
:103A7000210820002000200020002000200020003D
:103A800020002000200020000000000000000000B6
:103A90000000000000000000000000000000000026
:103AA0000000000000000000000000000000000016
:103AB0000000000000000000000000000000000006
:103AC00000000000000000000000000000000000F6
:103AD00000000000000000000000000000000000E6
:103AE0000000000000000000000000002000200096
:103AF00020002000200020002000200020002100C5
:103B000021002100210821084108410841084108FD
:103B1000410841084108410841084108410861083D
:103B20006108610862086208621062106210621027
:103B300082108210821082108210A2108A32AF434B
:103B40004D4349320419E418C318C318C318C318E5
:103B5000AF13350DF0138A1AE4180421042104214F
:103B60000421052125212521452145212521252126
:103B7000C721CF23141517062C03E30041002000B2
:103B800021002100210021002100410041004100CD
:103B90004100410041006100620862086208820839
:103BA0008208820882088208820882088208A208A5
:103BB000A208A208A308A308C308C308C308C3082F
:103BC000C308C308C308E308E308E308E408E408FB
:103BD000040904090409040904090409240924093D
:103BE0002509450945094509450965096509650925
:103BF0006509650986098609860986098609A6096F
:103C0000A609A609A609A709C709C709C709C709B7
:103C1000E709E709E709E709E709E709E709C70944
:103C2000C709C709C709A609A609A609A6098609D9
:103C300086098609860966096509650965094509D0
:103C400045094509450925092409240924090409C8
:103C50000409040904090409E408E308E308E30883
:103C6000C308C308C308C308A308A308A208A2087E
:103C7000A208A208820882088208820882088208B4
:103C800062086208620861086108610861086108E9
:103C900061084108410841084108410841084108BC
:103CA00041084108410841084108410841084108CC
:103CB000410841084108410841084108410861089C
:103CC00061086108610861086108620862086208A9
:103CD000820882088208820882088208A208A20854
:103CE000A208A208A308A308C308C308C308C308FE
:103CF000E308E308E308E4080409040904090409E3
:103D00000409240924092409250945094509450907
:103D100045096509650965096609860986098609EF
:103D20008609A609A609A609A609C709C709C709D8
:103D3000C709E709E709E709E709E709E709E70923
:103D4000C709C709C709C709A709A609A609A60976
:103D5000A60986098609860986098609650965090D
:103D600065096509650945094509450945092509A3
:103D7000240924090409040904090409040904099B
:103D8000E408E408E308E308E308C308C308C30839
:103D9000C308C308C308C308A308A308A208A2084D
:103DA000A208A208A2088208820882088208820863
:103DB0008208820882088208820862086208620813
:103DC00062086208620862086208620861084108C5
:103DD00062086509EF0B3415F7158E23E731662964
:103DE0006629A731A7318631863186318629862911
:103DF0006629662966296629CB221024551DF023E1
:103E000045294529252125214529A729EB3AAF4BED
:103E1000AE4B8A32E418E318C318C318C318C3188A
:103E2000A318A310A210A21082108210A631D39C56
:103E30009AD67EEFEF7B8631863166316631662910
:103E400045290421A31041084108210821002D63C0
:103E5000BFFF18C6F08304212000200020002000AE
:103E6000200020000000AB5A34A55DEF55AD652958
:103E7000821000000000CB5A1CE7F7BD14A5B39CCC
:103E800096B51CE7EC6282106529318CFFFFB39C6C
:103E90004D6B55AD55AD3084A739000000000000D2
:103EA00000008E7318C61CE7F4A44529452945294E
:103EB00045294529452945290421410800000000DC
:103EC00000002529B2947AD67DEFAF7B452945299C
:103ED0002D6B18C61CE7BAD6CF7BC739200020004F
:103EE00020002000200020002108210821082108AE
:103EF000210821082108210821084108410841081A
:103F00004108410841084108410841084108410869
:103F100041084108410841086108610861086108D9
:103F20006108610862106210621062106210621013
:103F30006210821082108210821082108210821011
:103F4000821082108210821082108210A210A210A1
:103F5000A210A210A210A210A210A318A318A318B6
:103F6000A318A318C318C318E318E318E418041916
:103F700004190419241925194519451945196519F4
:103F80006519661986198619A619A619A719A719F8
:103F9000C719C719C719E721691A2C1B140D580E28
:103FA000380E9114E821E719E719C719C719C7197D
:103FB000A719A619A6198619861966196619651909
:103FC0006519451945192519E41804190419041926
:103FD00024192519251945194519651965196619F1
:103FE000861986198619A619A619A619A719C71917
:103FF000C719C719E7219214380EF70D91148A1AC0
:10400000281AC719C719A719A719A619A619861911
:1040100086198619661965196519451945192519ED
:1040200025192419241904190419E418E418E318AB
:10403000C318C318C318A318A318A318A3182421BE
:104040006A52B2945DEF96B5F083694A45298210B1
:10405000252908426D6B55AD7DEF14A5EC62242136
:104060008210821086316E73FBDEBAD692940842BB
:1040700062106210C31866318E7376B5DBDE55AD03
:10408000294A042141084108C3186631B2949AD6DE
:1040900038C67294494A04214108A210A631EB5A4D
:1040A00075ADBAD676B52C63210821082108210800
:1040B00021082000200020002000200020002000F7
:1040C0002000200020002000000000000000000070
:1040D00000000000000000000000000000000000E0
:1040E00000000000000000000000000000000000D0
:1040F00000000000000000000000000000000000C0
:1041000000000000000000000000000000000000AF
:10411000000000000000000000000000000000009F
:10412000000000000000000000000000200020004F
:10413000200020002000200020002000200021007E
:1041400021002100210821084108410841084108B7
:1041500041084108410841084108410841086108F7
:1041600061086108620862086210621062106210E1
:1041700082108210821082108210A2106A32AE4326
:104180006D438A322521E418C318C318C318C31815
:104190008E13140D1014AB1AE418042124214429A1
:1041A00064298431C431E439243A243A44426442D3
:1041B000E5426B44712D370E4C0304014100200091
:1041C0002100210021002100410041004100410067
:1041D00041004100410061006208620862088208F3
:1041E0008208820882088208820882088208A2085F
:1041F000A208A208A308A308C308C308C308C308E9
:10420000C308C308C308E308E308E308E408E408B4
:1042100004090409040904090409040924092409F6
:10422000240925094509450945094509650965091F
:104230006509650986098609860986098609A60928
:10424000A609A609A609A709C709C709C709C70971
:10425000E709E709E709E709E709E709E709C709FE
:10426000C709C709C709A709A609A609A609860992
:10427000860986098609860965096509650945096A
:104280004509450945094509240924092409040962
:104290000409040904090409E408E308E308E3083D
:1042A000C308C308C308C308C308A308A308A20817
:1042B000A208A2088208820882088208820882086E
:1042C0008208620862086208610861086108610882
:1042D0006108610841084108410841084108410856
:1042E0004108410841084108410841084108410886
:1042F0004108410841084108410841086108610836
:104300006108610861086108620862086208820841
:10431000820882088208820882088208A208A2080D
:10432000A208A308A308C308C308C308C308C30896
:10433000E308E308E308E40804090409040904099C
:1043400004092409240924094509450945094509A1
:104350004509650965096509860986098609860989
:104360008609A609A609A609A709C709C709C70991
:10437000C709E709E709E709E709E709E709E709DD
:10438000C709C709C709C709A709A609A609A60930
:10439000A6098609860986098609860965096509C7
:1043A000650965094509450945094509250924099E
:1043B0002409240904090409040904090409040955
:1043C000E408E408E308E308E308C308C308C308F3
:1043D000C308C308C308C308A308A308A208A20807
:1043E000A208A208A208820882088208820882081D
:1043F00082088208820882088208620862086208CD
:10440000620862086208620862088208620861083D
:10441000820865110F14712D30466A4C2653C54A27
:10442000A54AA64A864A66424642263AE639E6390F
:10443000C631863186316629EC225124351DCF23C1
:1044400045294529252925216629C7290C43CF4B14
:104450008E4B8A32E418E418E318C318C318C31843
:10446000A318A310A310A21082108210A631D39C0F
:104470007AD65DEF2D636208410841084108410882
:104480004108410841084108410841082100EB5A10
:104490001CE718C6718C2529200020002000200070
:1044A000200020000000EC6275AD1CE7D39CC3180F
:1044B0004108000000008A5259CE18C6D7BD96B5F3
:1044C000D7BD59CE8A522108A2106E739EF735AD22
:1044D000518C39CE35ADCB5A2421000000000000AC
:1044E00000008E7318C61CE77294000000000000E4
:1044F00000000000000000000000000000000000BC
:1045000000002529B29479CE5DEFEC620000000036
:1045100065296D6BF7BDFCE655AD0C63A210410833
:104520002000200020002000210821082108210867
:1045300021082108210821082108410841084108D3
:104540004108410841084108410841084108410823
:104550004108410841084108610861086108610893
:1045600061086108621062106210621062106210CD
:1045700062108210821082108210821082108210CB
:10458000821082108210821082108210A210A2105B
:10459000A210A210A210A210A210A318A318A31870
:1045A000A318A318C318C318E318E318E4180419D0
:1045B00004190419241925194519451945196519AE
:1045C0006519661986198619A619A619A719A719B2
:1045D000C719C719C719E721691A2C1B140D580EE2
:1045E000380E9114E821E719E719C719C719C71937
:1045F000A719A619A61986198619661966196519C3
:104600006519451945192519E418041904190419DF
:1046100024192519251945194519651965196619AA
:10462000861986198619A619A619A619A719C719D0
:10463000C719C719E7219214380EF70D91148A1A79
:10464000281AC719C719A719A719A619A6198619CB
:1046500086198619661965196519451945192519A7
:1046600025192419241904190419E418E418E31865
:10467000C318C318C318A318A318A318A318A31802
:10468000A318EC6259CEFBDE9AD6518C494A8210AF
:104690000842CF7B18C6FCE6FCE6CF7B6529C31831
:1046A0008210821086316E73FBDEBAD69294084275
:1046B000621062106529EB5A55ADDBDE79CEF083CE
:1046C0006210610841084108410841082C6396B511
:1046D0007DEFBBDEF39C0842621025296E739AD6EB
:1046E0003DEFBBDEEF7BC7392108210821082108F7
:1046F00021082000200020002000200020002000B1
:104700002000200020002000000000000000000029
:104710000000000000000000000000000000000099
:104720000000000000000000000000000000000089
:104730000000000000000000000000000000000079
:104740000000000000000000000000000000000069
:104750000000000000000000000000000000000059
:104760000000000000000000000000002000200009
:104770002000200020002000200020002000210038
:104780002100210021082108410841084108410871
:1047900041084108410841084108410841086108B1
:1047A000610861086208620862106210621062109B
:1047B00082108210821082108210A21069328E4301
:1047C0008E43AA3245210419C318C318C318E4182C
:1047D0004D13D3145114CB1A042124214429A4319C
:1047E000043A4442A44AE452435B835BC363026CD1
:1047F000837465750C5656166C0B240161002000FD
:1048000041004100410041004100410041004100A0
:1048100041004100410061006208620862088208AC
:104820008208820882088208820882088208A20818
:10483000A208A208A308A308C308C308C308C308A2
:10484000C308C308C308E308E308E308E408E4086E
:1048500004090409040904090409040924092409B0
:1048600024092509450945094509450945096509F9
:104870006509650986098609860986098609A609E2
:10488000A609A609A609A609C709C709C709C7092C
:10489000E709E709E709E709E709E709E709E70998
:1048A000C709C709C709A709A609A609A609A6092C
:1048B0008609860986098609660965096509650903
:1048C00045094509450945092509240924092409FB
:1048D0000409040904090409E408E308E308E308F7
:1048E000E308C308C308C308C308C308A308A30890
:1048F000A208A208A2088208820882088208820808
:10490000820882086208620862086108610861081A
:10491000610861086108610861086108610841086F
:10492000410841084108410841084108410841083F
:10493000410861086108610861086108610861084F
:1049400061086108610862086208620882088208DA
:1049500082088208820882088208A208A208A208A7
:10496000A308A308C308C308C308C308C308E3080F
:10497000E308E308E308E408040904090409040956
:10498000240924092409250945094509450945093A
:104990006509650965096609860986098609860922
:1049A000A609A609A609A609A709C709C709C7092B
:1049B000E709E709E709E709E709E709E709E70977
:1049C000C709C709C709C709A609A609A609A609EB
:1049D000A609860986098609860986096509650981
:1049E0006509450945094509450945092509240978
:1049F000240924090409040904090409040904090F
:104A0000E408E408E308E308E308C308C308C308AC
:104A1000C308C308C308C308A308A308A208A208C0
:104A2000A208A208A2088208A208A2088208820896
:104A30008208820882088208820862086208620886
:104A40006208620882088208820882086208610897
:104A5000821086114F1CAE458886A685E484847C2E
:104A60004474056CC56B8563455BE552A54A664297
:104A7000063AC631863166292D239224F424AE23CA
:104A800045294529452925296629E8312D43EF4B3C
:104A90008E4B6A32E420E418E418E318C318C318F4
:104AA000C318A318A310A21082108210A631D39CA1
:104AB0007AD65DEF2D63620841084108410841083C
:104AC00041084108410841084108410821008A5233
:104AD00059CE39CEF4A44529200020002000200022
:104AE0002000200000004D6BB6B5BAD6318C000016
:104AF000000000000000294A75AD18C67AD659CECC
:104B0000D7BD75AD294A00000000CB5AFCE6B7BD01
:104B100076B51CE734A5452982100000000000008E
:104B200000008E7318C61CE772940000000000009D
:104B30000000000000000000000000000000000075
:104B400000002529B29479CE5DEFEC6200000000F0
:104B50002000210892945DEF5DEFF39C45298210BF
:104B60002000200020002000210821082108210821
:104B7000210821082108210821084108410841088D
:104B800041084108410841084108410841084108DD
:104B9000410841084108410861086108610861084D
:104BA0006108610862106210621062106210621087
:104BB0006210821082108210821082108210821085
:104BC000821082108210821082108210A210A21015
:104BD000A210A210A210A210A210A318A318A3182A
:104BE000A318A318C318C318E318E318E41804198A
:104BF0000419041924192519451945194519651968
:104C00006519661986198619A619A619A719A7196B
:104C1000C719C719C719E721691A2C1B140D580E9B
:104C2000380E9114E821E719E719C719C719C719F0
:104C3000A719A619A619861986196619661965197C
:104C40006519451945192519E41804190419041999
:104C50002419251925194519451965196519661964
:104C6000861986198619A619A619A619A719C7198A
:104C7000C719C719E7219214380EF70D91148A1A33
:104C8000281AC719C719A719A719A619A619861985
:104C90008619861966196519651945194519251961
:104CA00025192419241904190419E418E418E3181F
:104CB000C318C318C318A318A318A318A318A318BC
:104CC000A210A6312C63F39C18C618C676B5B29410
:104CD00055ADF7BD39CE75AD1084294AE318A21041
:104CE0008210821086316E73FBDE7DEF7AD655AD71
:104CF0009294929414A5B7BD18C6D7BD3084494A82
:104D000061084108410841084108410886312C6387
:104D100055AD38C659CE35ADB294F4A4B6B59AD6D1
:104D2000B6B5518C2842E318210821082108210832
:104D3000210820002000200020002000200020006A
:104D400020002000200020000000000000000000E3
:104D50000000000000000000000000000000000053
:104D60000000000000000000000000000000000043
:104D70000000000000000000000000000000000033
:104D80000000000000000000000000000000000023
:104D90000000000000000000000000000000000013
:104DA00000000000000000000000000020002000C3
:104DB00020002000200020002000200020002100F2
:104DC000210021002108210841084108410841082B
:104DD000410841084108410841084108610861084B
:104DE00062086208620862106210821082108210EB
:104DF0008210821082108210A210A310492A6D43E3
:104E0000AE43CB3A86210419C318C318C318E4185B
:104E10004B230F352C458754625B825BA263A263F0
:104E2000A36383638363836383638363835B635B62
:104E3000A45B675C4E3D570ECE0BA601820020009E
:104E4000210041004100410041004100410041007A
:104E50004100410041006100620862086208620886
:104E60008208820882088208820882088208A208D2
:104E7000A208A208A308A308A308C308C308C3087C
:104E8000C308C308C308E308E308E308E308E40829
:104E9000E40804090409040904090409240924098B
:104EA00024092509450945094509450945096509B3
:104EB00065096509860986098609860986098609BC
:104EC000A609A609A609A709C709C709C709C709E5
:104ED000E709E709E709E709E709E709E709E70952
:104EE000C709C709C709C709A709A609A609A609C5
:104EF000860986098609860986096509650965099D
:104F000045094509450945092509240924092409B4
:104F100004090409040904090409E408E308E3088E
:104F2000E308E308C308C308C308C308A308A30829
:104F3000A308A208A20882088208820882088208C0
:104F400082088208820862086208620861086108B3
:104F50006108610861086108610861086108610809
:104F600061086108610861086108610861086108F9
:104F700061086108610861086108610861086108E9
:104F80006108610862086208620882088208820873
:104F900082088208820882088208A208A208A30860
:104FA000A308A308C308C308C308C308E308E308A9
:104FB000E308E308E40804090409040904090409EE
:104FC00024092409240925094509450945094509F4
:104FD00065096509650986098609860986098609BC
:104FE000A609A609A609A709C709C709C709C709C4
:104FF000E709E709E709E709E709E709E709E70931
:10500000C709C709C709C709A709A609A609A609A3
:10501000860986098609860986098609650965095A
:105020006509450945094509450945092509240931
:105030002409240904090409040904090409E408E9
:10504000E408E308E308E308E308C308C308C30867
:10505000C308C308C308A308A308A308A208A2089A
:10506000A208A208A2088208A208A2088208820850
:1050700082088208820882088208820882088208E0
:1050800082088208820882088208820882086210E8
:10509000A210A611701491350E56A95CC563A563C4
:1050A000A563C56BC56BE56BE56BE56BE56BE56B08
:1050B000E46BE46BE46BC46BC95C4D55303DAC33C1
:1050C0004529452945292529862908324D43F04B94
:1050D0006E4349320421E418E418E318C318C318D6
:1050E000C318C318A310A310A2108210A731D39C19
:1050F0007AD65DEF2D6362086108610841084108B6
:105100004108410841084108410821082100294A75
:1051100055AD7ACE18C6694AC31820002000200079
:1051200020006108C318518C7AD6F8C58E73000030
:10513000000000000000C739929438C63CE71CE725
:1051400018C69294C739000000006A5218C618C6E3
:1051500059CE1CE792948210410800000000000024
:1051600000008E7318C61CE7729400000000000057
:10517000000000000000000000000000000000002F
:1051800000002529B29479CE5DEFEC6200000000AA
:10519000000020004D6BF7BD5DEFF8C54D6B652934
:1051A00020002000200020002108210821082108DB
:1051B0002108210821082108210841084108410847
:1051C0004108410841084108410841084108410897
:1051D0004108410841084108610861086108610807
:1051E0006108610862106210621062106210621041
:1051F000621082108210821082108210821082103F
:10520000821082108210821082108210A210A210CE
:10521000A210A210A210A210A210A318A318A318E3
:10522000A318A318C318C318E318E318E418041943
:105230000419041924192519451945194519651921
:105240006519661986198619A619A619A719A71925
:10525000C719C719C719E721691A2C1B140D580E55
:10526000380E9114E821E721E719C719C719C719A2
:10527000A719A619A6198619861966196619651936
:105280006519451945192519E41804190419041953
:10529000241925192519451945196519651966191E
:1052A000861986198619A619A619A619A719C71944
:1052B000C719C719E7219214380EF70D91148A1AED
:1052C000281AC719C719A719A719A619A61986193F
:1052D000861986196619651965194519451925191B
:1052E00025192419241904190419E418E418E318D9
:1052F000C318C318C318A318A318A318A318A31876
:10530000A210A210A210EC6214A5BAD63CE73CE7AA
:105310003CE7DBDE96B5AF7B6631E3188210821086
:105320008210821066312C6338C63CE73CE73CE7CC
:105330003CE73CE73CE71CE7F8C5718C2842E420D9
:105340006108410841084108410841084108042119
:105350004D6B14A59AD6DBDE1CE71CE79AD6D7BDA9
:10536000EF7B0842A3182108210821082108210801
:105370002108200020002000200020002000200024
:10538000200020002000200000000000000000009D
:10539000000000000000000000000000000000000D
:1053A00000000000000000000000000000000000FD
:1053B00000000000000000000000000000000000ED
:1053C00000000000000000000000000000000000DD
:1053D00000000000000000000000000000000000CD
:1053E000000000000000000000000000200020007D
:1053F00020002000200020002000200020002100AC
:1054000021002100210821084108410841084108E4
:105410004108410841084108410841086108620803
:105420006208620862086210821082108210821084
:10543000821082108210A210A210A310082A4D43DD
:10544000CF4B0C3BA7292519C318C318C318E41860
:10545000492B0B45E965A57DE1840185E184A27CAA
:105460006274426CE26BC363835B435B0453A34A85
:10547000A442693BB024580630044902A20020002F
:105480002100210041004100410041004100410054
:1054900061006100810061006208620862086208C0
:1054A0008208820882088208820882088208A2088C
:1054B000A208A208A308A308A308A308C308C30856
:1054C000C308C308C308E308E308E308E308E408E3
:1054D000E408040904090409040904092409240945
:1054E000240925094509450945094509450965096D
:1054F0006509650966098609860986098609860996
:10550000A609A609A609A709C709C709C709C7099E
:10551000C709E709E709E709E709E709E709E7092B
:10552000C709C709C709C709A709A609A609A6097E
:105530008609860986098609860965096509650956
:10554000450945094509450925092509240924096D
:10555000240904090409040904090409E408E30806
:10556000E308E308C308C308C308C308A308A308E3
:10557000A308A208A208A20882088208820882085A
:10558000820882088208820862086208620861084C
:1055900061086108610861086108610861086108C3
:1055A00061086108610861086108610861086108B3
:1055B00061086108610861086108610861086108A3
:1055C000610862086208620882088208820882080C
:1055D0008208820882088208A208A208A208A308FA
:1055E000A308A308C308C308C308C308E308E30863
:1055F000E308E40804090409040904090409240966
:1056000024092409250925094509450945094509AC
:105610006509650965098609860986098609860975
:10562000A609A609A609A709C709C709C709C7097D
:10563000E709E709E709E709E709E709E709C7090A
:10564000C709C709C709C709A709A609A609A6095D
:105650008609860986098609860966096509650934
:1056600065094509450945094509450925092409EB
:105670002409240904090409040904090409E408A3
:10568000E408E308E308E308E308C308C308C30821
:10569000C308C308A308A308A308A308A208A20874
:1056A000A208A208A2088208A208A208820882080A
:1056B000820882088208820882108218821882106A
:1056C000821082108210820882088208820862108A
:1056D000A310C7119214941D932DCB3BA64AC54A23
:1056E0000553665BA563C56B056C4574847CA47C1F
:1056F000E484248D448D248DC7850A764D558A3BDC
:105700004529452945294529A62929326E4B10549A
:105710004D4349320421E420E418E418E318C31887
:10572000C318C318A318A310A310A210A731D39CA9
:105730007AD65DEF2D6B621062086108410841085E
:105740004108410841084108410821082100A739C2
:10575000108459CEDBDECF7BC73982104108210887
:1057600061080421E84155ADFCE614A5AB5A0000E0
:105770000000000000006631AE7318C6BFFFBFFF17
:1057800018C6AE73663100000000084235AD59CE30
:105790001CE7DBDE108400000000000000000000B9
:1057A00000008E7318C61CE7729400000000000011
:1057B00000000000000000000000000000000000E9
:1057C00000002529B29479CE5DEFEC620000000064
:1057D000000020002842718CFCE6DBDE55AD494A12
:1057E0004108210820002000210821082108210863
:1057F0002108210821082108210841084108410801
:105800004108410841084108410841084108410850
:1058100041084108410841086108610861086108C0
:1058200061086108621062106210621062106210FA
:1058300062108210821082108210821082108210F8
:10584000821082108210821082108210A210A21088
:10585000A210A210A210A210A210A318A318A3189D
:10586000A318A318C318C318E318E318E4180419FD
:1058700004190419241925194519451945196519DB
:105880006519661986198619A619A619A719A719DF
:10589000C719C719C719E721691A2C1B140D580E0F
:1058A000380E9114E821E721E721C719C719C71954
:1058B000A719A619A61986198619661966196519F0
:1058C0006519451945192519E4180419041904190D
:1058D00024192519251945194519651965196619D8
:1058E000861986198619A619A619A619A719C719FE
:1058F000C719C719E7219214380EF70D91148A1AA7
:10590000281AC719C719A719A719A619A6198619F8
:1059100086198619661965196519451945192519D4
:1059200025192419241904190419E418E418E31892
:10593000C318C318C318A318A318A318A318A3182F
:10594000A210A210A2106631294ACB5AEC62EC6276
:10595000EC62CB5A694AA739E318A2108210821070
:1059600082108210C31866318A52CB5ACB5ACB5A56
:10597000CB5ACB5ACB5ACB5A694AC7390421821029
:105980006108410841084108410841084108821066
:105990004529E8418A52AA52AB5AAB5A8A52494A1F
:1059A0008631E3186108210821082108210821080F
:1059B00021082000200020002000200020002000DE
:1059C0002000200020002000000000000000000057
:1059D00000000000000000000000000000000000C7
:1059E00000000000000000000000000000000000B7
:1059F00000000000000000000000000000000000A7
:105A00000000000000000000000000000000000096
:105A10000000000000000000000000000000000086
:105A20000000000000000000000000002000200036
:105A30002000200020002000210821082108210842
:105A4000210821082108410841084108410841086E
:105A500041084108410841084108410861086108BE
:105A6000610862086208621082108210821082103F
:105A7000821082108210A210A210A310E8290C3B01
:105A8000CF4B2D43E8292521C318C318C318E418A8
:105A9000C9228D2C8F3D8A44A34A834263426342CC
:105AA0004342443A243A243A043A053AE539A431C7
:105AB000A52968320F245806B204EB02C300000087
:105AC00020002100410041004100410041006100EF
:105AD000A10001016101C108620862086208620850
