:020000040800F2
:100000000000022083000008810000088100000831
:100010008100000881000008810000080000000045
:100020000000000000000000000000008100000847
:100030008100000800000000810000088100000825
:10004000810000088100000881000008810000088C
:10005000810000088100000881000008810000087C
:10006000810000088100000881000008810000086C
:10007000810000088100000881000008810000085C
:10008000FEE726482649274A914205D050F8043B0E
:1000900041F8043B9142F9D1234824494FF0000232
:1000A000884203D040F8042B8842FBD100F040F88E
:1000B000FEE7034B1A681206FCD55860704700BF74
:1000C0000010014008B5411E11F8010F00B908BD2C
:1000D000FFF7EFFFF8E7054B9A689107FCD5187317
:1000E0009A68D207FCD5187B704700BF00300140EA
:1000F00010B5094C4FF08043C4F818340520FFF7C1
:10010000EAFFFF20FFF7E7FFC307FAD44FF480436D
:10011000C4F8183410BD00BF0000024090A50708C5
:10012000000000200000002000000020000000204F
:100130002DE9F04FA14EA24CD6F83038A148A24D7F
:10014000A24F43F0010385B0C6F83038D6F84438E2
:1001500043F01003C6F84438236823F47013236077
:10016000236843F420132360636A23F47F6343F41A
:10017000EE636362A36843F42013A360944B8B2265
:100180009A6042F20C02DA60FFF79CFFD6F8303832
:10019000904843F04203C6F83038D6F8443843F468
:1001A0008053C6F84438D4F8003423F0405323F485
:1001B0007C63C4F80034D4F8003443F0805343F433
:1001C0002863C4F80034D4F820346FF31733C4F82C
:1001D0002034D4F8203443F4AA0343F4A043C4F8F1
:1001E0002034D4F80C3443F08053C4F80C34D5F8E0
:1001F0000C3843F48043C5F80C38D5F8003823F4A4
:10020000404343F48043C5F800384FF48043C4F8BA
:1002100018348023C5F818386F4B40F24F321A60FB
:10022000D6F8303843F02003C6F83038D5F800341B
:100230006A4E23F4402343F48023C5F800344FF47E
:100240000073C5F81834FFF73DFF1C2127FA01F3AE
:10025000DCB2C3F3031304F00F04F05CFFF729FFD3
:100260000439305DFFF725FF0B1DEFD15C48FFF728
:1002700029FF4FF03033019343F23053ADF808308B
:10028000062101AC0139605CFFF713FF0029F9D1A9
:1002900054484B4EFFF716FF5348FFF713FF4FF03C
:1002A0000073C5F818344FF437144FF080484FF4FA
:1002B0008047C6F818840620FFF70DFFC6F81874AB
:1002C0002020C6F81884FFF706FFC4F30740FFF7A5
:1002D00002FFC4F30720FFF7FEFE0020FFF7FBFE3E
:1002E000C6F81874FFF704FF404B04F580549C4295
:1002F000DDD14FF40073C5F818343D48DFF80091A4
:100300003C4CDFF8C8802E4FFFF7DCFE4FF0007347
:10031000C5F818344FF0804B5FFA88FACAF580763A
:10032000A642C7F818B44FF0060028BF2646FFF7CC
:10033000D2FE4FF48043C7F818340220C7F818B42F
:10034000FFF7C9FEC8F30740FFF7C5FEC8F3072053
:10035000FFF7C1FE5046FFF7BEFECA46B144CA458C
:1003600022D14FF48043C7F81834FFF7C1FEA41B15
:10037000B044D1D14FF400761F48C5F81864FFF798
:10038000A1FE1E4A4FF00071C5F818140094009B9E
:1003900093420EDDC5F818640194019B9342F3DC8F
:1003A000019B01330193F8E71AF8010BFFF793FE65
:1003B000D5E7009B01330093E9E700BF003002401E
:1003C000000002400404000800100240C0C62D00D6
:1003D000001001401D040008003001405F040008C7
:1003E0002F0400084204000836040008007035009D
:1003F0004504000820A10700540400081FA10700BD
:10040000700400080D0A3E3E3E20424154434820FD
:10041000464C41534845522076320D0A0020204276
:1004200061746368206F66667365743D3078002080
:1004300073697A653D00202045726173696E672E8D
:100440002E2E0D0A00202057726974696E672E2EB9
:100450002E0D0A003E3E3E20444F4E450D0A003010
:10046000313233343536373839414243444546001A
:10047000FFFFFFFFFFFFFFFFFFFFFFFFFFFFFFFF8C
:10048000FFFFFFFFFFFFFFFFFFFFFFFFFFFFFFFF7C
:10049000FFFFFFFFFFFFFFFFFFFFFFFFFFFFFFFF6C
:1004A000FFFFFFFFFFFFFFFFFFFFFFFFFFFFFFFF5C
:020000040803EF
:1030E000FFFFFFFFFFFFFFFF19140000B700B7004D
:1030F0006E01000000000000000000000000000061
:1031000000000000000000000000000000000000BF
:1031100000000000000000000000000000000000AF
:10312000000000000000000000000000000000009F
:10313000000000000000000000000000000000008F
:103460000000000000007FD6DDD6BDCE3AC6D8B53C
:1034700077AD379D3895F88CD884D984B87C77742B
:10348000367436747874787C767C7384948CB58CBE
:10349000F694379537953895599D1ABEBCDE3BE7B3
:1034A000000000000000000000000000000000001C
:1034B000000000000000000000000000000000000C
:1034C00000000000000000000000000000000000FC
:1034D00000000000000000000000000000000000EC
:1034E00000000000000000000000000000000000DC
:1034F00000000000000000000000000000000000CC
:1035000000000000000000000000000000000000BB
:1035100000000000000000000000000000000000AB
:10352000000000000000000000000000000000009B
:10353000000000000000000000000000000000008B
:10354000000000000000000000000000000000007B
:10355000000000000000000000000000000000006B
:10356000000000000000000000000000000000005B
:10357000000000000000000000000000000000004B
:10358000000000000000000000000000000000003B
:10359000000000000000000000000000000000002B
:1035A000000000000000000000000000000000001B
:1035B000000000000000000000000000000000000B
:1035C00000000000FFFFBFEF3FDF9DC69BAD777C93
:1035D0001453532A7011EF31F34A114BAD4A6D4A1F
:1035E0008F42B142B33AD43AF53AB4325232313220
:1035F0005332943271326D326C3AAE3A1043314BE1
:103600003143F142B242334BB58496B5F6BD75AD48
:1036100014A5F39CD39496AD7AD618C6000000008A
:10362000000000000000000000000000000000009A
:10363000000000000000000000000000000000008A
:10364000000000000000000000000000000000007A
:10365000000000000000000000000000000000006A
:10366000000000000000000000000000000000005A
:10367000000000000000000000000000000000004A
:10368000000000000000000000000000000000003A
:10369000000000000000000000000000000000002A
:1036A000000000000000000000000000000000001A
:1036B000000000000000000000000000000000000A
:1036C00000000000000000000000000000000000FA
:1036D00000000000000000000000000000000000EA
:1036E00000000000000000000000000000000000DA
:1036F00000000000000000000000000000000000CA
:1037000000000000000000000000000000000000B9
:1037100000000000000000000000000000000000A9
:1037200000000000000000000000FFFF7FE79EBED9
:10373000BD95FC74DB74FA74DA6C595C964BB33249
:10374000111A90090C0990098D090809C7086C091C
:10375000AF09D109130A130AD20970099109B209F4
:1037600090096C0969098A090D124F226F222F1ADC
:10377000CE11AF119132748495B5B6BD75AD34A537
:1037800034A5F49C96B579CED6BD0F7CEF7BF3A41F
:10379000B6B518C6BBD65DEFFFFF00000000000005
:1037A0000000000000000000000000000000000019
:1037B0000000000000000000000000000000000009
:1037C00000000000000000000000000000000000F9
:1037D00000000000000000000000000000000000E9
:1037E00000000000000000000000000000000000D9
:1037F00000000000000000000000000000000000C9
:1038000000000000000000000000000000000000B8
:1038100000000000000000000000000000000000A8
:103820000000000000000000000000000000000098
:103830000000000000000000000000000000000088
:103840000000000000000000000000000000000078
:103850000000000000000000000000000000000068
:103860000000000000000000000000000000000058
:103870000000000000000000000000000000000048
:103880000000000000000000000000000000000038
:10389000FFFF9FE7FFC6FE9D1EA61E9E7D8DDC6C72
:1038A0003A54B93B3823F71AF612B512320AB00966
:1038B000D0096D01D001CF014A01E800CE093102E3
:1038C000530274025402F201F20113021202AD011A
:1038D0006901AA010D0A8F1AD02AB02A301AD0091C
:1038E000511AB35B55ADD6BDB6B575AD55AD96B5F0
:1038F00034A596B558CED6BD1084AE73929414A557
:1039000075ADF7BDDADEBFFFFFFFFFFF000000006F
:1039100000000000000000000000000000000000A7
:103920000000000000000000000000000000000097
:103930000000000000000000000000000000000087
:103940000000000000000000000000000000000077
:103950000000000000000000000000000000000067
:103960000000000000000000000000000000000057
:103970000000000000000000000000000000000047
:103980000000000000000000000000000000000037
:103990000000000000000000000000000000000027
:1039A0000000000000000000000000000000000017
:1039B0000000000000000000000000000000000007
:1039C00000000000000000000000000000000000F7
:1039D00000000000000000000000000000000000E7
:1039E00000000000000000000000000000000000D7
:1039F00000000000000000000000FFC71FA61FCF4E
:103A00001FCF7EB69E8DDD641C447A2B391BF812C5
:103A1000B712960A7602750275025302F1098E09F1
:103A20006D09AE01EF018C012901EF0973029502C6
:103A30007402530232023402330AAE0969016A0188
:103A4000CD014F0AB022B02A4F1AD009F109F23243
:103A5000948CB5BDB5BD55AD34A575ADD6BD75B5A8
:103A600095B538C617C6508C2C63CF7B10840F7C5D
:103A7000B29417C67DF77DEF96A52F53706B18A6ED
:103A8000FFFF000000000000000000000000000038
:103A90000000000000000000000000000000000026
:103AA0000000000000000000000000000000000016
:103AB0000000000000000000000000000000000006
:103AC00000000000000000000000000000000000F6
:103AD00000000000000000000000000000000000E6
:103AE00000000000000000000000000000000000D6
:103AF00000000000000000000000000000000000C6
:103B000000000000000000000000000000000000B5
:103B100000000000000000000000000000000000A5
:103B20000000000000000000000000000000000095
:103B30000000000000000000000000000000000085
:103B40000000000000000000000000000000000075
:103B50000000000000000000000000000000000065
:103B600000000000000000007FE73FA67E75DE54E5
:103B70005D44DC2B7C231A13D90A98029702760243
:103B8000760255027502740254023202AF094C09E2
:103B90004C09AD01CD018C09F0019402950274022B
:103BA000330233025402CF0149014A018C01EF0173
:103BB0005012B0224F1AAF099009521AD35B55AD7B
:103BC000B5BD54ADF39CF39C95B5F7BDB6BD95B5A9
:103BD00038C638C692942C638D738E73EF7B33A5F1
:103BE00099D65BEF78CE52844F5BF173B8AD5DEF41
:103BF00000000000000000000000000000000000C5
:103C000000000000000000000000000000000000B4
:103C100000000000000000000000000000000000A4
:103C20000000000000000000000000000000000094
:103C30000000000000000000000000000000000084
:103C40000000000000000000000000000000000074
:103C50000000000000000000000000000000000064
:103C60000000000000000000000000000000000054
:103C70000000000000000000000000000000000044
:103C80000000000000000000000000000000000034
:103C90000000000000000000000000000000000024
:103CA0000000000000000000000000000000000014
:103CB0000000000000000000000000000000000004
:103CC0000000000000000000000000000000FFFFF6
:103CD0003CE7F9B5356CFB5BFD43FE33DD1B5C1344
:103CE0001B0BFB02DA02B80297027602760275021B
:103CF00055025402540254023202CF016C092A09BF
:103D00004B098C01EE013202B50295027402530296
:103D10005302F0014A0129016C01CE010F022F0A62
:103D20002E12CF099009F111123B948CB5BD75B5D7
:103D3000F39C928CD39496B537C617C6D6BD38CEB1
:103D400058CEF39C2C6B6D6B8E735084D6BDFAE607
:103D50001AE758CE72846C3A4C3A0E53D06B527CB0
:103D600039BE1DE79EF700000000000000000000C3
:103D70000000000000000000000000000000000043
:103D80000000000000000000000000000000000033
:103D90000000000000000000000000000000000023
:103DA0000000000000000000000000000000000013
:103DB0000000000000000000000000000000000003
:103DC00000000000000000000000000000000000F3
:103DD00000000000000000000000000000000000E3
:103DE00000000000000000000000000000000000D3
:103DF00000000000000000000000000000000000C3
:103E000000000000000000000000000000000000B2
:103E100000000000000000000000000000000000A2
:103E20000000000000000000000000000000000092
:103E3000000000000000FFFFBFFFDCD698A5747CE7
:103E4000B15BF23AB922FD125D0B5D0B1C03FB0264
:103E5000DA02B902980296027602750275025402DD
:103E60005402530233023202EF018C012A01E900AD
:103E70002A01CE019302B502940273025302110289
:103E80006B0129016B01AE01CE01EE01EE09AD0916
:103E90008F01D1097222D36354ADB5BDD39C728416
:103EA0007284D39496B538CE37C6F6BD38CE58CE88
:103EB00034A54D6B4D63AE73929437C61AE7FAE69C
:103EC00038CE928C2B326919EA216C3A0E4BF17381
:103ED000B48C76A55BCE000000000000000000005E
:103EE00000000000000000000000000000000000D2
:103EF00000000000000000000000000000000000C2
:103F000000000000000000000000000000000000B1
:103F100000000000000000000000000000000000A1
:103F20000000000000000000000000000000000091
:103F30000000000000000000000000000000000081
:103F40000000000000000000000000000000000071
:103F50000000000000000000000000000000000061
:103F60000000000000000000000000000000000051
:103F70000000000000000000000000000000000041
:103F80000000000000000000000000000000000031
:103F90000000000000000000000000000000FFFF23
:103FA0003CE73DE798A5579DB584B25B8D3AEB1988
:103FB00012125A0ADD023D033C031B03FA02D90226
:103FC000B802970276027502740254025402530238
:103FD000530232021102EF018C014A01E800E800AD
:103FE000AD01D502B502940273025202CE014A011C
:103FF0006B01CE01CE01AD01AD01AD018E01B0016D
:104000001112123B9384B5BD54AD117CF0735284F0
:10401000F49CB6B538C658CE17C658CE78CE95B5EE
:104020004D6BEB5A8E6BF29C78CEFAE6B9DE17C672
:10403000B38C4B3248118919EA210A2A4B32CD4AF6
:104040006F63D06BB16BB7AD7DEFFFFFFFFF00007B
:104050000000000000000000000000000000000060
:104060000000000000000000000000000000000050
:104070000000000000000000000000000000000040
:104080000000000000000000000000000000000030
:104090000000000000000000000000000000000020
:1040A0000000000000000000000000000000000010
:1040B0000000000000000000000000000000000000
:1040C00000000000000000000000000000000000F0
:1040D00000000000000000000000000000000000E0
:1040E00000000000000000000000000000000000D0
:1040F00000000000000000000000000000000000C0
:104100000000000000000000FFFF3FE79ACE1ABE4B
:10411000B8AD747C7153AE320C228A116B09350232
:104120007B02FD023D033C03FB02FA02D902B70207
:104130009602750274027402530253025302520231
:1041400031021002EF01AD014A01E700C7008C0106
:10415000F50AB5029402730230028C018C01CE0183
:10416000EF01AE018C018C018D01AF01F1099122AB
:10417000D36354A5B5BDD3946F638F63527C359DD3
:10418000D6BD17C658CE38CE58CE78CEF7C58E6B72
:104190008A4A6D6B13A599D6FADE78D6F6C5B38C2C
:1041A0006C3A68116811A919A919A921EA290B32D9
:1041B0006C3A2F53948CD8B539C69AC63CE7FFFFAA
:1041C00000000000000000000000000000000000EF
:1041D00000000000000000000000000000000000DF
:1041E00000000000000000000000000000000000CF
:1041F00000000000000000000000000000000000BF
:1042000000000000000000000000000000000000AE
:10421000000000000000000000000000000000009E
:10422000000000000000000000000000000000008E
:10423000000000000000000000000000000000007E
:10424000000000000000000000000000000000006E
:10425000000000000000000000000000000000005E
:10426000000000000000000000000000000000004E
:1042700000000000FFFF5DEFDCD6D9ADB584B25B76
:104280006E32EC218B0949012901CE019A02BD024F
:10429000FD023C031B03FA02D902D802B7027502E1
:1042A000740274027302520252025202510230022C
:1042B0000F02CE01AD016A01C700C7008C09D40A04
:1042C000B402B4027202EF01AD01EF011002CE019F
:1042D0008D016C018D01AF01F10131123243B38CBC
:1042E000B5BD75AD117CCD4A4F5B527C55A5F6BD71
:1042F00017C638C658CE78CE98D658CECF7B49420E
:104300004D6B54ADB9D6DADE57CEB5BD928C6C3A52
:1043100069116811A919A919A919A921A919C921EE
:104320002B32AD42D16BF594F8BDFBDE5DEFFFFFA4
:10433000000000000000000000000000000000007D
:10434000000000000000000000000000000000006D
:10435000000000000000000000000000000000005D
:10436000000000000000000000000000000000004D
:10437000000000000000000000000000000000003D
:10438000000000000000000000000000000000002D
:10439000000000000000000000000000000000001D
:1043A000000000000000000000000000000000000D
:1043B00000000000000000000000000000000000FD
:1043C00000000000000000000000000000000000ED
:1043D00000000000000000000000000000000000DD
:1043E00000007DD6F9B5B584B25BCF3A0D224A0103
:1043F0004A014A0129014A015302FD02DD021D035F
:104400003C031B03FA02D802B7029602740273023D
:104410005302520252023102310230020F02EE0107
:10442000CC018C014A01C600C600AC09B402B4023A
:1044300093025102EF010F023002EF01AE018D0134
:104440008D01AE01D00112029122126C54ADB5BDA6
:10445000D3942E5B2C2A2F4B738475AD17C6F7BDF2
:10446000F7BD78CE99D699D699D6508C494A6D6BBE
:1044700074AD78CE99D617C674B5928C8C428919D2
:104480006811A919A919A9198919891989198919E5
:1044900089194B320E53F16BF59418BE59CE0000BA
:1044A000000000000000000000000000000000000C
:1044B00000000000000000000000000000000000FC
:1044C00000000000000000000000000000000000EC
:1044D00000000000000000000000000000000000DC
:1044E00000000000000000000000000000000000CC
:1044F00000000000000000000000000000000000BC
:1045000000000000000000000000000000000000AB
:10451000000000000000000000000000000000009B
:10452000000000000000000000000000000000008B
:10453000000000000000000000000000000000007B
:1045400000000000000000000000FFFF1CE7D9B5DC
:104550005474B25BCF3AEC196B096A094A014A01FB
:1045600029012901CD01D80AFD02DD02FC021C034C
:10457000FA02F902D702B6027502740273025202FD
:10458000520231023102300230020E02CD01AB0183
:104590008A014901E700C7008C019302D50293020A
:1045A0005102300231023002EF01CE01CE01AE01E4
:1045B000AF01D001320A3143B38C74AD14A5117C24
:1045C0008C3ACB11EE429384B6B517C6B6BDB6B5DC
:1045D00058CE99D6DADEB9D6B2948A4A2C6313A59E
:1045E00017C658CEB5B554AD34A58F63CA2148114E
:1045F000A919A919A919A9198919A919A921A919C3
:104600008919A9212B320E53F173B38C19BE1CE703
:10461000FFFF00000000000000000000000000009C
:10462000000000000000000000000000000000008A
:10463000000000000000000000000000000000007A
:10464000000000000000000000000000000000006A
:10465000000000000000000000000000000000005A
:10466000000000000000000000000000000000004A
:10467000000000000000000000000000000000003A
:10468000000000000000000000000000000000002A
:10469000000000000000000000000000000000001A
:1046A000000000000000000000000000000000000A
:1046B00000000000FFFFDBDEB8A5D58C136C1043B3
:1046C0002D22AB116B094A014A014A014A01080136
:1046D0006B0152021B0B9A0ABB02FC021B03FA027B
:1046E000D802B602950274027302530252025102BA
:1046F0003102300230022F020E02CC01AB018A01DE
:1047000069010701E7006B019302F502930252026F
:10471000510251021002EF01EF01CE018D01AE01F5
:10472000F001B122F263F39CF29C51846E632B2A58
:104730008A11CE42B38CD7BD17C696B575AD18C6D3
:10474000B9D6FADEDADE13A58B52CB5A9194D6BDD8
:1047500037C674AD75B558CEF4948C42481188199B
:10476000A919A919A919A919A919A919A91988195A
:104770008819A921EA296B3A4F5B527C159DB7B580
:104780003CE7FFFF00000000000000000000000008
:104790000000000000000000000000000000000019
:1047A0000000000000000000000000000000000009
:1047B00000000000000000000000000000000000F9
:1047C00000000000000000000000000000000000E9
:1047D00000000000000000000000000000000000D9
:1047E00000000000000000000000000000000000C9
:1047F00000000000000000000000000000000000B9
:1048000000000000000000000000000000000000A8
:104810000000000000000000000000000000000098
:10482000FFFFBCCEB8A57474304B4D2ACC198B0950
:104830004A014A014A014A014A0129012801CE01DF
:10484000B602DA0A370ABA021B03FA02F902D702E1
:104850009602750274025302520252025102310250
:10486000300230020F02EE01AC018B018A016901B6
:10487000270107016A01B402D502930251025102D5
:10488000300210020F02EE018D018D01CF01511295
:104890003143728491943084AF730D5BEB216B11C3
:1048A0000F4BF49417C617C655AD34A5F7BDB9D64E
:1048B0001BE7FADE75ADAB528A52508CB5B517C600
:1048C00074AD95B59AD6D7B54F5B89196811A921F2
:1048D000A919A919A919891989198819881988196B
:1048E0008819A821C9210A328C426F639384B7B515
:1048F0009ACEFFD70000000000000000000000007A
:1049000000000000000000000000000000000000A7
:104910000000000000000000000000000000000097
:104920000000000000000000000000000000000087
:104930000000000000000000000000000000000077
:104940000000000000000000000000000000000067
:104950000000000000000000000000000000000057
:104960000000000000000000000000000000000047
:104970000000000000000000000000000000000037
:104980000000000000000000FFFFFFFF9DD6D9AD32
:10499000F68CD263CF3A0C1A8B094A014A014A01BC
:1049A0004A014A014A014A0128016A015302F902F7
:1049B0005602D309B8021A03FA02D802B7029502C6
:1049C0007402740253025202320231023102300286
:1049D0000F020F02ED01AC018B018B016A0128016E
:1049E00007016A01B402B40271025002500230029F
:1049F00010020F02CD018C01AD01100AB12AD16362
:104A0000518CAF734D634E63ED52AA198B11505305
:104A100035A537CEF7BD14A5F49CD6BD99D61BE7B6
:104A20001BE7B6B5AB526A4A508495B5B5B533A508
:104A300034A5F6BDB6B5D06BCA214811A921A91974
:104A4000A919A919891988198819A919A819A821B2
:104A500088218819A821C9214B3A0D53F173F59C7F
:104A6000D8B59AD6FFFFFFFF00000000000000004D
:104A70000000000000000000000000000000000036
:104A80000000000000000000000000000000000026
:104A90000000000000000000000000000000000016
:104AA0000000000000000000000000000000000006
:104AB00000000000000000000000000000000000F6
:104AC00000000000000000000000000000000000E6
:104AD00000000000000000000000000000000000D6
:104AE00000000000000000000000000000000000C6
:104AF00000000000FFFFFFE75DE7FAB5757C504B53
:104B00006E2AAB116A014A014A014A014A014A016F
:104B10004A014A012A010801CE01F8021B03B20131
:104B2000900197021A03F902D802B60295027402A4
:104B300053025302320231023102300230020F02BC
:104B40000E02ED01AC01AC01AB016A014801280184
:104B50006A019202920250025102510230022F0267
:104B60000F02CD01AD01CF0130123043EF736D6BF9
:104B70006A424A3AAC4AAC424A09EC11D16375AD7B
:104B800037CED6BDB394D39CB6B599D63BE73CEFB0
:104B9000F7BDAB5A8A4A0F7CB294918C718CD29C2F
:104BA00075B5B6B5F1730A2A4811A921A921A91929
:104BB000A919A921A9198919A919A819A821A821F0
:104BC000A821A821A821A821E9298C426F63B38CD0
:104BD00038BE5DEF1CE7FFFF000000000000000092
:104BE00000000000000000000000000000000000C5
:104BF00000000000000000000000000000000000B5
:104C000000000000000000000000000000000000A4
:104C10000000000000000000000000000000000094
:104C20000000000000000000000000000000000084
:104C30000000000000000000000000000000000074
:104C40000000000000000000000000000000000064
:104C50000000000000000000000000000000000054
:104C60000000FFFF1DDF19BEB584304BEC198B0926
:104C70006A016A014A014A014A014A014A014A019C
:104C80004A0129014A0154025C03FA024F010D0155
:104C90007502F902F902B702B602950274025302D4
:104CA0005202320231021002300230020F02EE01D3
:104CB000EE01CD01AC01AB016A01490108014901D6
:104CC0007002710271029202720230022F020E0211
:104CD000CD01CE01EF096F222E534C6B293A87216B
:104CE00088210A2AEB214B098E2A7384B5B5F6C5B3
:104CF00095B5728C728C75AD58CE3BE77CF738CE8B
:104D0000EC5A6A4A8E73EF7BCE7B718C95B599D63F
:104D100058CE527C0A2A4811A921A921A919A919FA
:104D2000A921A921A9218819A819A821A821A92167
:104D3000A821A821A821A821C9212A326F63F494AF
:104D400059C65DE7FFFF0000000000000000000002
:104D50000000000000000000000000000000000053
:104D60000000000000000000000000000000000043
:104D70000000000000000000000000000000000033
:104D80000000000000000000000000000000000023
:104D90000000000000000000000000000000000013
:104DA0000000000000000000000000000000000003
:104DB00000000000000000000000000000000000F3
:104DC0000000000000000000000000000000FFFFE5
:104DD000BBCEB9AD136C6E2A8B096B016A016A01F7
:104DE0006A014A014A014A014A014A014A014A014B
:104DF0002801AD01D8027E03B9020D01AA003402D8
:104E0000F802D802B70295029402730252023202EB
:104E1000310231021002100210020F02EE01EE0107
:104E2000ED01CC01AB018A014901280128010E0ADC
:104E3000710AB202B30271020F020F02EE01AD015C
:104E4000CE012F12CD3ACB522842C8290A324B321A
:104E5000EA216A09AD117153149DD6BDD6BD75AD59
:104E6000518C108414A538C61BE77CF7B9D66E6B3D
:104E70006A4AAE7313A5F7C599D61BE79DF71BDFEA
:104E8000B38C2B322711A921A921A921A921A9215C
:104E9000A921A92188218819A821A821A921A8210F
:104EA000A821A821A821A821A821C929CC4A938CEE
:104EB000D8BDDBDEFFFF00000000000000000000A6
:104EC00000000000000000000000000000000000E2
:104ED00000000000000000000000000000000000D2
:104EE00000000000000000000000000000000000C2
:104EF00000000000000000000000000000000000B2
:104F000000000000000000000000000000000000A1
:104F10000000000000000000000000000000000091
:104F20000000000000000000000000000000000081
:104F3000000000000000000000007FD67BCEF68C51
:104F400071532D228B096B014A014A014A014A0122
:104F50006A014A014A094A014A014A012A01290112
:104F6000F1011B037E03B802EB006800F201D702D7
:104F7000D802B60295027402530252023202310282
:104F8000300210021002EF01EF01EE01EE01CD013F
:104F9000CD01AC018B01490128012801CC09700A1F
:104FA000B302920230020E020E02EE01CE010E0A90
:104FB0006E22AB42283A87210A2ACD42AD42EC212B
:104FC0006C098F2A327C54ADB5B595B534A55184A2
:104FD000F07BF39C17C6FADE5CEFDADE30848A4A97
:104FE0000C5BB29478CE1BE7DADE3BE71BDF149D47
:104FF0006B3A2711A921A921A921A921A921A92118
:10500000A921A821A821A821A821A821A821A82157
:10501000A821A821A821A829A829E9318B42AF6B92
:10502000159D9AD6FFFF0000000000000000000060
:105030000000000000000000000000000000000070
:105040000000000000000000000000000000000060
:105050000000000000000000000000000000000050
:105060000000000000000000000000000000000040
:105070000000000000000000000000000000000030
:105080000000000000000000000000000000000020
:105090000000000000000000000000000000000010
:1050A0000000FFFF7AD65CCE1ABE547CF0420D227F
:1050B0008B096B014B014A014A014A014A014A0925
:1050C0004A014A014A014A014A0129014A0153029F
:1050D0003C037E039802CB004700B001B602D70222
:1050E00096029502740253025202320231023102D8
:1050F00010021002EF01EF01EF01EE01CD01AD0151
:10510000AC018B016A01280108018A015002B20238
:1051100071022F020F022F020F02EE012D124B2AF5
:105120000832661947112B228D322C2AAC11EE1948
:10513000704B928C34AD75AD54AD14A53184107C98
:10514000D39CF7C5DADE3BEFFADEF39CEC5A694AF2
:105150006C6B53A558CE78CEDADE1BE776ADCD4A20
:105160002711A921A921A921A921A821A821A82184
:10517000A821A821A821A821A821A821C829A829B7
:10518000A821A821A829A829C829E9316B424E5B8A
:10519000928CD7BD18C6000000000000000000007F
:1051A00000000000000000000000000000000000FF
:1051B00000000000000000000000000000000000EF
:1051C00000000000000000000000000000000000DF
:1051D00000000000000000000000000000000000CF
:1051E00000000000000000000000000000000000BF
:1051F00000000000000000000000000000000000AF
:105200000000000000000000000000000000FFFFA0
:10521000FFFF7DEF3ABE3474CF3AEC196B094B01B6
:105220004B014A016B016A014A014A016A094A01BC
:105230004A014A014A014A0149018C0196027D0353
:105240007E037702AA0026008F019602D702B602DB
:1052500095027402530252023202310231023002CC
:1052600010020F02EF01EF01EE01CD01AD01AC0123
:105270008B016A012901080169014F029202500263
:105280002F025002500230020E0A0B1AC721451994
:10529000E5084809EA19EB19AB11CD11AF321174C9
:1052A000918CD29C13A534A5F39C528C5184F39C11
:1052B000D7BDBADE3BE71BE795B5AE73CB5A6C6B37
:1052C000B194D5B517C699D61BE7F7BD6F636819BA
:1052D000A921C921C921A921A921A821A821A82141
:1052E000A821A821A821A821C829C829C829C829D6
:1052F000C829A829A829C829C829E8314A3A0C533D
:10530000317CF8BD18C6FFFFFFFF00000000000061
:10531000000000000000000000000000000000008D
:10532000000000000000000000000000000000007D
:10533000000000000000000000000000000000006D
:10534000000000000000000000000000000000005D
:10535000000000000000000000000000000000004D
:10536000000000000000000000000000000000003D
:10537000000000000000000000000000FFFF1DDF33
:105380009BCED68CF03ACC116B096B014B014B01D3
:105390004B016B016B016B016A016A016A094A01E9
:1053A0004A014A0149014901AE01D8029E037D0329
:1053B0005502A90026006E017502D702B6027502D9
:1053C00074025302320232023102310231021002FF
:1053D00010020F02EF01EE01CE01AD01AC018B0115
:1053E0006A012901080149014F0A910250022F0266
:1053F0007102710251020D12A8192419C408E600A5
:1054000069018A096A098C094E227053718C1084D3
:105410005184B394F39CB394728CB39414A5B6BD29
:1054200099D61BE75CEF17C6718CCE7B508C13A509
:1054300095B5F6BD58CEFADE58CE117CC921881933
:10544000C921C929C921C921C921C821A821C9291E
:10545000C829C821C829C829C829C829C829C829CC
:10546000C829A829C829C829C829E831293AEC52ED
:10547000728CB6B5BCD65DEF0000000000000000E5
:10548000000000000000000000000000000000001C
:10549000000000000000000000000000000000000C
:1054A00000000000000000000000000000000000FC
:1054B00000000000000000000000000000000000EC
:1054C00000000000000000000000000000000000DC
:1054D00000000000000000000000000000000000CC
:1054E0000000000000000000FFFF7EEF7BC6D68CAE
:1054F0008F2AAC096B016B016B016B016B014B01D6
:105500004B014B016B016B094A094A014A014A01EF
:105510004A014A014A01CF011A03BF035C03140286
:10552000890026002D015402D7029602740254020B
:1055300053023202320232023102310210021002F0
:105540001002EF01EE01EE01CD01AC018B016A0109
:105550002901080128012F0A70025002500292020C
:1055600072022F0AA9110411A308C60049016A0199
:1055700049018C010E12EF3A10749194AF6BF073E5
:105580005284928C72845284D39C34A595B558CEA3
:105590001BDF7CEFB9D6F39C0F84708C33A5B5B5B7
:1055A000F6BD58CEB9DE99D6B38C2A324711C92937
:1055B000C929C929C929A821A821C829A829C829D0
:1055C000C829C829C829C829C829C829C829C82953
:1055D000C829C829C829C829C829C8310932EC52A4
:1055E000149D7ACE7DEFFFFF000000000000000058
:1055F00000000000000000000000000000000000AB
:10560000000000000000000000000000000000009A
:10561000000000000000000000000000000000008A
:10562000000000000000000000000000000000007A
:10563000000000000000000000000000000000006A
:10564000000000000000000000000000000000005A
:10565000000000000000FFFF9BCE757C0D1A8B0937
:105660006B016B016B016B016B016B016B014B01FA
:105670004B014B014B014A014A014A094A014A01C7
:105680004A014A01D0011B03BF033C03F301680038
:1056900026000C013302B702960274025302330251
:1056A00032023202320232023102110210021002C0
:1056B000EF01EF01EE01CE01AC018B016A0149015E
:1056C00008010801ED094F02700271029202920274
:1056D000CB09C4086200A50049016A016A01AD0155
:1056E0000F0A6E220E53EF83107C6E638F63F1738B
:1056F000327C5284928CF49C34AD75B517C6DADED8
:105700007CEFFADE74AD708CB19454AD95B5D6BD16
:1057100058CEB9DEB9D6149D6B3A4711C929E9298B
:10572000C929C829A829C929C929C829C829C8290E
:10573000C829C829C829C829C829C829C829C829E1
:10574000C829C831E831E831E831E831083A8B4AF4
:10575000D394BAD6FFFF0000000000000000000054
:105760000000000000000000000000000000000039
:105770000000000000000000000000000000000029
:105780000000000000000000000000000000000019
:105790000000000000000000000000000000000009
:1057A00000000000000000000000000000000000F9
:1057B00000000000000000000000000000000000E9
:1057C000FFFFFFFF1ABE13644E228C096B016B01B1
:1057D0006B016B016B016B016B016B014B014B01A9
:1057E0004B014B016A016A014A014A014A014A011F
:1057F0004A01F0011A03BF031B03D201680026000F
:10580000CA00F20196029602540254023302330295
:10581000330232023202320211021102F001EF01B0
:10582000EF01CE01CE01AD018C016B014A010801EF
:10583000E700CC014F027102B20292020E0A060189
:105840006200A40048018B01AC01AD01EE01EC093E
:105850002B22AB4A2D632E5B4E5B8F63D06BF073B4
:10586000317C928C149D54AD95B517C6BAD67CEF99
:10587000FADE75B5B19413A5B5B5D6BDD5BD16C6BE
:1058800078D6B9D634A58B422711E929E929C92947
:10589000C829C829C929C829C829C829C829C8297F
:1058A000C829E829C831C829C829C829E829C83120
:1058B000C831E831E831E831E831E831093AAB4A3A
:1058C000518459CEFFFF00000000000000000000DE
:1058D00000000000000000000000000000000000C8
:1058E00000000000000000000000000000000000B8
:1058F00000000000000000000000000000000000A8
:105900000000000000000000000000000000000097
:105910000000000000000000000000000000000087
:10592000000000000000000000000000FFFFDFFF9B
:105930007BC6D3634E22AC098B016B016B016B01FB
:105940006B016B016B016B016B014B014B014B0157
:105950004A014A016A016A014A014A014A014A01AF
:10596000CF011A039E031B03B201680046008900A1
:10597000900155027602550254023402330233027A
:1059800033023202320211021102F001F001CF01A2
:10599000CE01CE01AD018C016B014A012901E70066
:1059A000AC014F029102B202500248018300A400F0
:1059B0002801AC01CD01CE01CD01CC01CA110A2ACA
:1059C0006B3ACC4ACD4A0E536F5BB063D0735284AE
:1059D000B394F39C54AD95B5F7BD99D65CEFFBE657
:1059E00095B5D29C13A5B5B5F6BDF6BD17C678CE54
:1059F00099D634A5AC424611E929E929E929C929F2
:105A0000C829C829C829C829C829C829E829E831C6
:105A1000E831E831E831E831E831E831E831E831BE
:105A2000E831E831E831E831E831E831093ACB5280
:105A3000318459CEFFFFFFFF00000000000000008E
:105A40000000000000000000000000000000000056
:105A50000000000000000000000000000000000046
:105A60000000000000000000000000000000000036
:105A70000000000000000000000000000000000026
:105A80000000000000000000000000000000000016
:105A9000000000000000FFFFFFEF7EEF7BC6146CEC
:105AA0006E2A8C096B016B016B016B016B016B0141
:105AB0006B016B016B016B016B016B016B016A0187
:105AC0004A016A016A014A014A014A012901AE01FB
:105AD000F9027E03FB02B2016800470068002D0155
:105AE0001302760275025402540234023302330266
:105AF0003302320212021102F101F001CF01CF0193
:105B0000CE01AD018C016B014A012901E800AC0115
:105B10004F0292029202CC01A40083002701AC0143
:105B2000EE01EE01CD01CC01CA110A224A2A6B3ADC
:105B3000AC42ED4A0E4B2E536F5BF06B938C149D71
:105B4000D39C34A595B5F7BD78CE3BE71BE7D6BD12
:105B5000F29C33A5D5BD16C6F6C517C657CE78CE6E
:105B600034A5CC4A4619E929E931E931E931E82976
:105B7000C829E831E831C829C829E831E831E831D5
:105B8000E831E831E831E831E831E831E831E8314D
:105B9000E831E831E831E831E831E831083ACB5210
:105BA0005184BAD67DEF5DEFFFFF000000000000DA
:105BB00000000000000000000000000000000000E5
:105BC00000000000000000000000000000000000D5
:105BD00000000000000000000000000000000000C5
:105BE00000000000000000000000000000000000B5
:105BF00000000000000000000000000000000000A5
:105C00000000FFFF7DEF3DE77BC675744E22AC09B7
:105C10006B016B016B016B016B016B016B016B0124
:105C20006B016B016B016B016B016B016A014A0136
:105C30004A016A016A014A094A012901AD01D902F2
:105C40005E03FB02B201680047004700EC00D2018E
:105C500076027602550255023402340233023302D0
:105C60003302120212021102F001F001CF01AE0163
:105C7000AD018C016B014A0129010801AC014F0201
:105C800092024F024801A3002701CC010F020F022C
:105C9000EE01CC09EB114B2A8B326C326C32CD42C7
:105CA0002F532F4B0E4B2E53D06BB39455A5D39C33
:105CB00034A595B5F7BD58CE1BE71BE7F6BD13A578
:105CC00054ADF6BD17C6F6BDD6BD17C658CE54A501
:105CD000EC526619E9310932E931E931E831E82954
:105CE000E831E831C831E831E831E831E831E8310C
:105CF000E831E831E831E831E831E831E831E831DC
:105D0000E731E831E831E831E831E831083AAB4AC7
:105D1000D3949AD6FCD6FFFF0000000000000000DC
:105D20000000000000000000000000000000000073
:105D30000000000000000000000000000000000063
:105D40000000000000000000000000000000000053
:105D50000000000000000000000000000000000043
:105D60000000000000000000000000000000000033
:105D7000FFFF5EEF7BC6D68C4E22AC096C016B0137
:105D80006B016B016B016B016B016B016B016B01B3
:105D90006B016B016B016B016A014A016A016A01C7
:105DA0006A016A014A014A0129018C01B7025D03B7
:105DB000FB02D301690047004700CB009001560A5F
:105DC00076025502350234023402340233023302C1
:105DD0001202120211021102F001CF01AE018D0177
:105DE0006C014B012A0129012901CD0171029102A7
:105DF000EC0106014801ED01500250020F02CD01F5
:105E0000EC11AD322E4BED428C326C2ACE3A4F5310
:105E10002F532F4B4F4BAF63728434A5D39C14A5E3
:105E200095B5F6BD38C6FADE3BE7F7BD13A553A519
:105E3000F6BD17C6B5B595B5F6BD78CE95AD2D5B5B
:105E40006719093209320932E931E931E831E831BB
:105E5000E831E831E831E831E831E831E831E8317A
:105E6000E831E831E831E831E831E831E831E8316A
:105E7000E831E831E831E831E831E83108328A4A7E
:105E8000149DB6B518C60000000000000000000018
:105E90000000000000000000000000000000000002
:105EA00000000000000000000000000000000000F2
:105EB00000000000000000000000000000000000E2
:105EC00000000000000000000000000000000000D2
:105ED00000000000000000000000000000009DD64F
:105EE0005BBEF68C6F2A8C098C016C016C016C0115
:105EF0006B016B016B016B016B016B016B016B0142
:105F00006B016B016B016B014A014A016A016A0175
:105F10004A014A014A0129016B0196023D03FC0234
:105F2000D3016900470068008A004F01350A7702F3
:105F300056023502350234023402330233021302B0
:105F4000120212021102F001CF01AE018D016C01AB
:105F50006C016C014B016B010F02B3029102EC0169
:105F60008A012F0271022F02ED01CC01ED012D12E9
:105F7000EE3A4E5BED428C2A8D2A0F434F53CE42B0
:105F80000E436F53D06B5184D39CB294F39C75AD88
:105F9000D6BD17C6DADE3BE7F7BDF29C33A5D6BD0A
:105FA000F6BD95B5B5B537C6B9D6D6B56E6367211A
:105FB000093209320932E931E831E831E831E831B2
:105FC000E831E831E831E831E831E831E831E83109
:105FD000E831E831E831E831E831E831E831E831F9
:105FE000E831C731E831E831E831E831E831EB52E6
:105FF000728CF8C518C60000000000000000000008
:106000000000000000000000000000000000000090
:106010000000000000000000000000000000000080
:106020000000000000000000000000000000000070
:106030000000000000000000000000000000000060
:1060400000000000000000000000BBDED9B5547461
:106050001143AC098C016C018C018C018C018C0109
:106060006C016B016B016B016B016B016B016B01CF
:106070006B016B016B014A014A016A016A014A0125
:106080004A014A0149094A0155021C03FC02F40174
:106090006900470069006900ED00D30176025602ED
:1060A0005502550254023402330233023302120203
:1060B00012021102F001EF01CE01AE018D018C013F
:1060C0006C014A014A015102F402B2022E022E0270
:1060D0002F02CC0168018901EC012E024D126C2ABD
:1060E000CD3A8D2A8D22CE2A504BB05BEE42CD3A6E
:1060F0006F5B317C928CD39CB294D39C54ADB6B57B
:10610000F6BD99D61BE7D6BDB29CF29CB5BDF6BDD7
:10611000B5BD16C699D6FADEF7BDAF6B8721E9315A
:10612000093209320932E931E831E831E831E83140
:10613000E8310832E831E8310832E831E831E83155
:10614000E831E831E831E831E831E831E831E83187
:10615000E831C731C731C831E831C731E831CB52F6
:10616000317CD7BDFFFF00000000000000000000F0
:10617000000000000000000000000000000000001F
:10618000000000000000000000000000000000000F
:1061900000000000000000000000000000000000FF
:1061A00000000000000000000000000000000000EF
:1061B000000000000000BBDE1AB6146CD032ED11F6
:1061C0008C016C016C018C018C018C018C018C01A7
:1061D0006B016B016B016B016B096B016B016B0157
:1061E0006B016B016B016A016A016A016A094A0964
:1061F0004A094A094A013402FC021D0315028A00B9
:10620000270069006A00AB00500135027602550292
:1062100055025402540233023302330212021202B4
:106220001102F001EF01CF01AE01AD018C014B0174
:10623000090108013002D302B2022E02EC0168010A
:1062400006014601CA014F0270022D0A0A1A4B22AA
:106250004C1A4C128D222F43B05B0E43CE3A905B0A
:106260007284D394149DF39C34A595B5D6BDF7BD27
:1062700058CEDADEB6BD9194B19495B5F7C517C680
:1062800058CEB9DEFADE17C6CF738729E831093256
:10629000093209320932E831E831E831E831E831D0
:1062A0000832083208320832E831E831E831E831A2
:1062B000E831E831C831C831E831E831C731C73198
:1062C000C731C731C831C831C731C7290832CC52AC
:1062D000318459C6FFD70000000000000000000014
:1062E00000000000000000000000000000000000AE
:1062F000000000000000000000000000000000009E
:10630000000000000000000000000000000000008D
:10631000000000000000000000000000000000007D
:10632000FFFFFFFFBCCE967CD03AED118C096C01CB
:106330006C016C018C018C018C016C016C018C0175
:106340006B016B016B018C096B096B096B016B01B4
:106350006B016B096B016A016A016A016A014A09F2
:106360004A0949091202DB021D033702AC0028006A
:1063700069006A008B00ED00F30176027502540299
:1063800034023402330233023202120211021102C9
:10639000F001EF01CE01AE01AD018C014A0109010E
:1063A000E800EE0191024F02AA012601C400260175
:1063B000CB014F0291024F02EB09C911EB11EB091E
:1063C000CB090B128D322F4B0E430F43D163B48C8C
:1063D000359D55AD75AD96B5D7BD17C617C658CE08
:1063E000FBE617C6D29CB19495B537C658CE99D660
:1063F000DADEDADE17C6107CA829E8310932093264
:1064000009320932E831E831E831E831E831E83978
:10641000E831E831E831E831E831E831E831E831B4
:10642000E831C831E831E831C831C731C731C73147
:10643000C729C729C729C729C729A829093AEC525A
:10644000D3949AD6FFFFFFFF000000000000000079
:10645000000000000000000000000000000000003C
:10646000000000000000000000000000000000002C
:10647000000000000000000000000000000000001C
:10648000000000000000000000000000FFFFFFFF10
:106490001DDF98A5724B2E1AAC098C016C016C01A2
:1064A0006C016C016C016C016C016C018C018C0144
:1064B0008C016C016C096B096B096B016B016B0141
:1064C0006A016A014A016A016A016A014A014901D5
:1064D0004901F201DB021D035802CD0048006900AA
:1064E0008B008A00AB009001550275025402340201
:1064F000330233023302320212021102F001F001C0
:10650000CF01AE01AD018C016B014A0129010901E6
:10651000CD010E02AA010501C4002701EC017002A1
:10652000920291020D0289096809890969016901CC
:10653000AA092C1ACE3A0F43504B126CD49455A58D
:1065400055AD75AD55AD75AD75AD75B5B6B579CE05
:1065500058CE95B553ADD6BD58CE99D6B9D6B9D685
:10656000B9D617C65184C831E83109320932083228
:106570000832E831E831E831E831E831E831E83132
:10658000E831E831E831E831E831C831C831C831A3
:10659000C831C831C829C729C729C729C729C72968
:1065A000A729A729A729A729A729A729293A6E63D7
:1065B000B7B5BAD6FFFF00000000000000000000E1
:1065C00000000000000000000000000000000000CB
:1065D00000000000000000000000000000000000BB
:1065E00000000000000000000000000000000000AB
:1065F00000000000000000000000FFFF5EE71AB688
:10660000146C4E22AC098C016C018C018C018C0144
:106610008C016C016C016C016C016C018C018C01B2
:106620006C096C096B096B096B016B016B016A01E9
:106630004A014A014A014A014A094A0149014801FD
:10664000F101DA021D0358020E01480069008B00B7
:106650008B008A000C01F2097502540233023302E6
:1066600033023202320232021102F001EF01CE0196
:10667000AD018C018C016B014A014A014A01ED0117
:10668000AB010601C30047010E0291029202920281
:106690004F02CC0148010701280128014901AB093B
:1066A0006D1A103B50437153D163317C5184107C7F
:1066B000CF736D6B2C630C5B0C5B4D6B308475ADD5
:1066C00037CE58CE58CE98CEB9D699D678CE99D660
:1066D00058CEB294083AE831093209320932093207
:1066E000E831E831E831E831E831E831E831E831E2
:1066F000E831E831E831C829C829C829C829C8299A
:10670000C729C729C729A729A729A729A729A729A9
:10671000A729A729A72987218721C8296A42728426
:1067200055A5D7BD000000000000000000000000DB
:106730000000000000000000000000000000000059
:106740000000000000000000000000000000000049
:106750000000000000000000000000000000000039
:106760000000000000000000BDDE7BC6D68C8F2A32
:10677000AD098C016C016C018C018C018C018C01C8
:106780006C016C016C016C016C016C016C016C01A1
:106790006B016B096B096B016B016B016B016B0189
:1067A0004A094A094A094A096A094A012801F001C5
:1067B000BA02FD0279025001690069008B00AB004A
:1067C0008A00AA008F095402740253023302530252
:1067D0005302520231021002F001EF01CE01AD016D
:1067E0008C016B014A014A0129016A01CC01470170
:1067F000E40047010E029202B302920271020E02FD
:10680000AB012801070128016A01CC014E0AD01A08
:106810001033EF3AAD3A2A32E831C739863165296B
:106820004521242104210421242186298E73F7C5C2
:106830001BE7FADE98D678CE37CE57CEB9D698D6A3
:10684000D39C2942E83108320932E831E831083274
:10685000E831E831E831E831E831E831C831C831B0
:10686000C831C829C829C829A829A829A729A7291A
:10687000A729A729A729A729A729A729A729A72998
:10688000A7218721872187218721C829EC52728C73
:10689000F8C518C60000000000000000000000005D
:1068A00000000000000000000000000000000000E8
:1068B00000000000000000000000000000000000D8
:1068C00000000000000000000000000000000000C8
:1068D00000000000FFFF7BCE17959253AD098C0995
:1068E0008C016C016C016C016C016C016C016C0120
:1068F0006C016C016C016C016C016B016B018B0113
:106900006B016B016B016B016B016B016B096B0917
:106910006A096A096A096A096A092801D0019902A3
:10692000FE02BB02B4098A0069008A00AB00AA001B
:10693000AA002C01F10174025302320252025302E6
:1069400052023102F001EF01EF01EF01CE01AD0182
:106950006B016B014A014A01AC018A010501260164
:10696000EC0192029302920292025002ED018A011E
:1069700049016A01AC01EE012E024E0A2C12EA19FD
:10698000C9212A32083A6529E31804216529C73943
:10699000494AAA52CA52694AC739AA52D29C79CEE8
:1069A0001AE7B9D637C617C658CEDADE99D6B29CE2
:1069B0000842E83109320932E831E831E831E8319A
:1069C000E831E831E831C831C831C831C831C8319F
:1069D000C829C829A729A729A729A729A729A729F5
:1069E000A729A729A729A729A729A721872187217F
:1069F0008721872187218721A729E8314E63149DAC
:106A00009ACEFFFF00000000000000000000000020
:106A10000000000000000000000000000000000076
:106A20000000000000000000000000000000000066
:106A30000000000000000000000000000000000056
:106A4000FFFFFDDEB9A5D4634F228D098C018C01B7
:106A50008C018C016C016B016C016C016C016C018F
:106A60006C018C016C016B016B018B018B016B0163
:106A70006B016B096B096B096B096B096B096A097F
:106A80006A096A096A096A094801D1019A02FE0283
:106A9000FD02380AAC0069008A00AB00CB00AA00F6
:106AA000A9006D0132025302530232025302520214
:106AB0001102100210020F02EF01CE01AD018C0194
:106AC0008B016B018C01ED0968012601AA0171029D
:106AD000B4029302930272023002ED01AC01CC01C8
:106AE000EE01EE01CC018A014801E508C40847190E
:106AF0002D5B50840F842C630B634D6BEF7BB29442
:106B000074ADB5B554AD0F7CCA52EB5A718C17C633
:106B1000B9DE78CE58CE99D6FADE98D691948639D9
:106B2000A731293A293AE831E831E831E831C8316A
:106B3000C831C831C829C829C829C829C829C829BD
:106B4000C829A829A729A729A729A729A729A729A3
:106B5000A729A729872187218721872187218721A5
:106B6000872187218721872187214A3AD07355A51C
:106B700059CE0000000000000000000000000000EE
:106B80000000000000000000000000000000000005
:106B900000000000000000000000000000000000F5
:106BA00000000000000000000000000000005EEF98
:106BB0001AB65574D032AD098C098C018C018C0148
:106BC0008C018C096B016B016C016C096C096C09FF
:106BD0006C096B016B016B016B016B016B016B0944
:106BE0006B096B096B096B096B096B096B096A0906
:106BF0006A096A096A094909F101BA021F031E03F9
:106C00009A020E0189008900AA00CB00CB00A900DE
:106C1000EA00AF01320253025202730273023102E0
:106C200010020F020F02EE01AD01AD01AC018C01AB
:106C30008B018C01ED01680189015002D502D5025A
:106C400093027202720230020E02EE010E02CD01B8
:106C50006A010701E508E508060968094C2A517C24
:106C6000F6BD98D6F6BDD29C518C929474AD57CE99
:106C7000DADEB9D633A5CA5266292842308C17C647
:106C8000B9DED9D6DADEFADE99D6B19C653125298E
:106C9000093A4A3A0932E831E831E831C831C831B5
:106CA000C829C829C829C829C829C829C829A8297C
:106CB000A829A729A729A729A729A729A729A72953
:106CC000A721872187218721872187218721872164
:106CD0008721872187216721A829AC4AD073D494C2
:106CE00018C60000000000000000000000000000C6
:106CF0000000000000000000000000000000000094
:106D00000000000000000000000000000000000083
:106D100000000000000000000000FFFF7BC6F78CB1
:106D2000324BEE116C016C016C016C018C018C0119
:106D30008C096C096C016C016C096C096C096C099B
:106D40006B016B016B016B016B016B016B098B09B3
:106D50008B098B096B096B098B096B096B096A0934
:106D60006A09690969091202BB021E031D03BB02FD
:106D70007001AA008900AA00CB00CB00AA00A900DC
:106D80004C01F00153025302730294023202F001EB
:106D9000EF01EF01CE01AC01AC01AC01AC018B0104
:106DA0006B018B0189010E029302B402720252023E
:106DB0005202510251023002EE01AC012801E600FC
:106DC000E6084811EA196D22CF2A704BB38CD6BD64
:106DD000D9DEFAE695B5718C718C34AD37C6FADE22
:106DE0001BE7F6BD2C630421C318284A708C37C6F4
:106DF000FADEFADEFADE99D6F29C8631A318A739BC
:106E00004A422A3AE829C831C831C829C829C829BC
:106E1000C829C829A829A829A829A829A829A729AB
:106E2000A729A729A729A729A721A7218721872142
:106E3000A721872187218721872187218721672112
:106E40008721872167216721E931CC4A117CD8BD90
:106E500075AD000000000000000000000000000010
:106E60000000000000000000000000000000000022
:106E70000000000000000000000000000000000012
:106E800000000000000000003EE778A5D3634F2A11
:106E90006C016C016C016C016C018C016C016C016A
:106EA0006C096C016C096C096C096C096C016C094A
:106EB0008C098C098C098B096B098B098B098B094F
:106EC0008B096B098B098B098B098B096A096A0984
:106ED0006A096909130ADB02FD02FC02DB02D30125
:106EE000CB008900A900AA00CB00CB00A900E900D3
:106EF0008E0132025302740274025202F001CE017A
:106F0000AE01AD018C01AC01AC01AC016B012901FA
:106F10002801CC0192027102CD018B0110025202B4
:106F200051020F02CD0149010701E60028018A093B
:106F30004E1A122B9343B24BF163728413A5D6BD44
:106F400079D6D6BD718C518C14A517C6DADE3BE715
:106F5000DADE718CC7398210E4186952B19458CEC8
:106F6000FADE3BE7DADE33A5C739621004290842AE
:106F70004A42E931A829C831C829C829C829C829DD
:106F8000C829A829A829A829A829A729A729A7295C
:106F9000A721A72187218721872187218721872171
:106FA000A7218721872187218721872167216721C1
:106FB000672167216721872109326E6355A57EF716
:106FC00000000000000000000000000000000000C1
:106FD00000000000000000000000000000000000B1
:106FE00000000000000000000000000000000000A1
:106FF0000000000000003BC6767CB032AD116C0191
:107000006C016C018C016C016C098C096C096B01C1
:107010006C016C096C096C096C098C09AC09CD1107
:10702000ED190D22ED21CC19AC118B098B098B09BF
:107030008B098B098B096B096B096A098A096A112B
:107040006A09330ADC02FC02BA02DA02560A2E018D
:10705000AA00A900AA00CB00EB00C900A8002B01E0
:10706000F0015302530253025302F001AE018D01AD
:107070008D018C018C01AC01AC016A012801E60094
:107080000E02710AAC01C50007012F025102CD01A9
:107090004901E600A400E6008A01EE015102B312A4
:1070A0001323714B8F636E63F073718C14A5D6BD7F
:1070B000F7BDF39CB29454AD37C6B9D6DADE7CEF97
:1070C000F7BD0C63E41862080421AA5AF29C99D611
:1070D0005CEF1BE734ADC7394108621066312942C5
:1070E000093AA829C829C829A829A829A829A82966
:1070F000A821A821A821A821A721A721A72187216C
:10710000872187218721872187218721872187213F
:1071100087218721872167216721872167216719B7
:10712000671967216721A8298B42728418BE000065
:10713000000000000000000000000000000000004F
:10714000000000000000000000000000000000003F
:10715000000000000000000000000000000000002F
:10716000FFFF3FE7B684324BEE196D096D016C01EC
:107170008C018C018C016C018C098C096C016C09EF
:107180006C096C098C098C09CD112E226F32B0422A
:10719000D04AD04A8F420D32CC19AB118B118B09DA
:1071A0008B098B098A098B098B118A118A116A1143
:1071B000540AFC02FC029802B802B90AB101CB00E1
:1071C0008900AA00CA00CB00CA00A900CA006D014C
:1071D00032025302330253021102AF016D018D01DD
:1071E0008D01AD018C018C016B012801C500AC0142
:1071F000AB09E600A4008A017002EC01E6008400FD
:107200008400E7008C0110021102320231022F12B9
:107210006D320D5B0D5B6E63F07BB29454ADD6BDE9
:1072200075AD54ADB5B537C678CE37CEBADE79CEAA
:107230003084A6316208821065292C6394B51BE75F
:107240001BE7D29C653141082108A31886312A42E8
:10725000E931C829C829A829A829A829A829A82125
:10726000A721A821A821A821A7218721872187213B
:1072700087218721872187218721872187218721CE
:10728000872187216721672167196719671967199E
:10729000671967196719E9314E63B3943CE7FFFF3B
:1072A00000000000000000000000000000000000DE
:1072B00000000000000000000000000000000000CE
:1072C000000000000000000000000000FFFF5DD78C
:1072D0009CC6F4632F228D096C016C016D018D0138
:1072E0008C018C096C096C098C098C096C016C018E
:1072F0008C09CD090E1A702AB13AF2525263B37357
:10730000D37B7273D0522D32CC218B118B098B1110
:107310008B098A098B118B118A118A118A11750ABE
:10732000FC02DB0277027602B802F3010D01AA002B
:10733000AA00CB00CA00CA00CA00A9000A01CF01F6
:107340005302530233023202F0018F016D016C01CE
:107350008D018D018D018C014A01E6004901280152
:10736000A500C600CC09ED092709E60828018B0114
:10737000CE01EF09F001EF01CE018B014809E921AF
:107380002E53F0735184928CD394139D95B5B6B55A
:10739000D6BDD6BDD6BDB5B595B575AD95AD918CFF
:1073A0006A4AE4186210C318E7390F8437CE99D6B9
:1073B0003084E318621021084108E420E8414A4281
:1073C000C829A829A829A829A821A821A821A82135
:1073D000A821A8218821872187218721872187212A
:1073E000872187218721872187218721872167217D
:1073F000671967196719671967196719671967198D
:107400006719671987214A3AF07359C618C60000F0
:10741000000000000000000000000000000000006C
:10742000000000000000000000000000000000005C
:1074300000000000000000000000FFFFFDDE3895A6
:107440001243CE116D016C016C016D018D018C0137
:107450008C018C098C098C098C096B018C01CD097C
:107460002F1AB12AF242334B7363F483759C95A4AF
:10747000549C927B8E4AEC218B118B098B118B11C2
:107480008B118B11AB19AA198911AA11950AFB024C
:10749000DA0277025602B80256024F01AB00AA0088
:1074A000CB00CB00CA00CA00A900C9004C011102E0
:1074B0007402530232021202D0016E014C014C01DF
:1074C0006D016D018D016B012A016D018D014B0173
:1074D0006A09CD098A09E60827098A098B016A0128
:1074E0002901280127010601C400C3000409C8219D
:1074F000AB4A117C149D35A5F39C14A513A5D29419
:107500005084CE73CF7BF39C54A5B5B595ADEF7B7E
:10751000C739831082102421AA52F29C17C6919475
:107520004529821021082108821025292942E931A4
:10753000A829A829A829A8218821A821A82188212B
:1075400088218821872187218721872187218721F9
:10755000872187218721872187216721671967195B
:10756000671967196719671967196619461946195E
:1075700046194719A829CC52117CB39CFFFF000083
:1075800000000000000000000000000000000000FB
:1075900000000000000000000000000000000000EB
:1075A000000000000000FFFFFDD63BBE146C4F2220
:1075B0008D096D016D016C016C018D018C018C01D7
:1075C0008C098C098C098C016C01AD092F1AB12A28
:1075D000133B544B745BF57B969C17B537BDF6B4E3
:1075E000549C10630C2A8B118B118B11AB19AB19A6
:1075F000AB19AB19AA19AA19AB19950AFA02BA0262
:1076000077029702D9029802B201ED00AB00AB00FD
:10761000AB00CA00EA00CA00A800C9006E0154020B
:107620005402530232021102B0016E012C012D01ED
:107630004D016E016E018E01D001F101D001AD0945
:10764000AC092809C508060927010601C400A300E2
:10765000C300C300E300C300C300E40005096819C8
:10766000EE4A527CD29410848E73EC5A694A083ADE
:1076700028424C6313A554A5B5B578CEB5B56D6B4E
:107680006529A210A31086296D6B95B5B5B5CB5AA7
:10769000A21021084108410882106631E939C82941
:1076A000A821A821A821A821882188218821882112
:1076B00087218721872187216721872187218721AA
:1076C0008721872167216719671967196719671962
:1076D000671967196719471946194619461946194E
:1076E00046196719E9312D5B56A559CEFFFF0000F9
:1076F000000000000000000000000000000000008A
:107700000000000000000000000000000000000079
:1077100000000000FFFF1ABE178D1143AD096D0177
:107720006D016D016D098C018C018C016C098C0956
:107730008C098C096C09AD110E1AB12A133B744BDC
:107740009553B663578C17AD78C577C537BDB5ACC3
:1077500070732C328A118B11AB19AB19AB21AB2191
:10776000AB19CA19AA19CB19950ADA02B9029802FB
:10777000FA02FA02B90215025001AC00AB00AB00EC
:10778000CB00EB00EA00A9008700EA00D1017402F7
:10779000540233021302F201D0016E014E016E0158
:1077A0008F019001D101D201D201D0018C09490988
:1077B000E608E608E600C500A400C400E5000601EE
:1077C00026014701680169016A014A014B01CB1199
:1077D0008B3AEB5A694AE839E7310421C310C731C3
:1077E000CE7333A59194718CD6B5B9D695B52C636B
:1077F00045298210C3182842919478CEF39C4529DC
:1078000041084108410821088210A731C831A82148
:10781000A821A821A82188218821882188218821C0
:107820008721872187216721672187218721671980
:107830006719671967196719671967196719671948
:1078400067196719671967194719461946194619BB
:10785000461967198B42B38C39C6FFFF0000000040
:107860000000000000000000000000000000000018
:107870000000000000000000000000000000000008
:1078800000003EE7BAAD935B0F1A6D096D016D0103
:107890006D096D098D098C096C096C098C098C09BD
:1078A0008C09AD114F2AD1323343544B7553965B3B
:1078B00095631684D7AC57C557C516BD95AC707384
:1078C0002C328A118B11CB21CB21CB21CB21CB2187
:1078D000CA21AA21EB21B60ADA02B902B9021B03B6
:1078E000B80256023602B201ED00AB00AB00CB008D
:1078F000CB00EB00CA00880067000C013302950240
:107900007502330233021202D101B001B001B0019D
:10791000D101D101B0018E014C010801E7004909F4
:10792000CC098B09090129016B01AC01CD01CD0105
:10793000ED010F02100230020F02CC012701A30853
:1079400061088210A629CE730B5BA631073AAE738D
:107950003084EC5AE9316E6318BE5CE7D6BD0C6327
:107960000421821024210B63B5B5B9D6CA5AA218D6
:1079700021084108210820000421E839E931A82123
:1079800088218821882188218821882188218821AF
:10799000872187216721672187216719671967195F
:1079A0006719671967196719671947194719471937
:1079B00047194719671947194619471946194619AA
:1079C0004719E9296F6397AD1CE70000000000002C
:1079D00000000000000000000000000000000000A7
:1079E0000000000000000000000000000000FFFF99
:1079F0003BBED78CB1326D096D016D016D096D090A
:107A00008D098C096C098C098C098C096C098C1105
:107A10002E2A124BB453B653B65396535453F252C4
:107A2000526B3494D6B4F6BCD6B4339C0F6B0C3284
:107A3000AB19AB19CB21EB29EB29CB29CB21CA21DF
:107A4000CA210C22B60AB902B902DA021A03760276
:107A50001402560235027001CC00CB00CB00EB00C3
:107A6000EB00EB00CA0068008800AF0975029602BF
:107A700054023202F001F001D001D001D001B00176
:107A8000AF018E016D012B01E70007094F0AF30AD0
:107A90005002AD01AD09AD098D01AE01F00110023A
:107AA0001002EE018B01070163004100200020005D
:107AB00082082832F39C95AD6D6B86312842CF7BCE
:107AC000AB5A67212A32517C79CE7CEFD6B5CA52A7
:107AD0002421C318C739508CFAE6F3A4663120007C
:107AE0002108621041088118E8498B520A3A881926
:107AF00067198721882188216821682168216721E9
:107B00006721672167196719671967196719671965
:107B100067196719671967194719471947194719E5
:107B2000471947194619461946194719461946195A
:107B300046196B42938CB7B50000000000000000AE
:107B40000000000000000000000000000000000035
:107B5000000000000000000000000000FFFF99A5E9
:107B6000935B0F226D016D016D098D098D098D09E2
:107B70008D098C098C098C096C098C110E22D0425C
:107B8000935316643764F75B7553F34A704AAF5AE0
:107B9000718353A494AC34A4918BAE5AEC31AB21D5
:107BA000CB21CB29EB29EB29EB29EB29EA29EA297F
:107BB0000C22B60A9902DA02FB02D9023502360219
:107BC000B902B902F4010D01AB00CB00EB00EB00F0
:107BD000EB00EB00AA0087000B09130276025402A7
:107BE000F001CE01AE018D018D018E018E01AE013D
:107BF0008E018E014C0109014909700AF3025002FD
:107C0000EE090F0A100A1002EF01EF01AC01290181
:107C1000C500620062080421484A694A8629A21008
:107C2000C31065296D6B4D6B084208424D63C8391E
:107C3000A8294B3A8B4A4D6BD6BD3CE754ADCB5A85
:107C4000452945292C6337C637CE494A6108621059
:107C5000E328C32082180329084A8A52E9316819A7
:107C6000681988218821682188216821672167197E
:107C70006719671967196719671967196719671904
:107C800067194719471947194719471947194619D5
:107C9000461946194619461946194619261126113C
:107CA000E929ED528F630000000000000000000091
:107CB00000000000000000000000000000000000C4
:107CC000000000000000000000009CCE968490326E
:107CD0008E096D096D098D098D098C098C098C0936
:107CE0008C098C098C118C11CD196F325253D55BD4
:107CF0005764786C38649653D34A6F4A6F5A10733E
:107D0000B28BD29371830F6B6D4AEC31CB21CB21B7
:107D1000EB29EB29EB29EB29EB29CA29CA292D2AC2
:107D2000B612B902DA02FA02980235027702BA02F2
:107D3000BA0236025001AB00AA00CB00CB00CB0048
:107D4000EC00EB00A800A8006F0134025402CF0140
:107D50008D016C018D018D018D018E01AF01D0016E
:107D6000B0014C01E80028097002D20250020E0254
:107D70004F0A920A5102AC012801A500630041009C
:107D80004100A308E8298E6B718C30842D63EB5A77
:107D9000694A49422942093A4A428B4246216821AE
:107DA0002A3AE931A7316D6B38C6BADEF29C8A52A5
:107DB00045290742B19498D6AE7304296110C320B7
:107DC000E328C32082180429E7412942A821881901
:107DD0008819881967196719672167216719671951
:107DE00067196719671967196719671967194719B3
:107DF0004719471947194619461946194619461988
:107E000046194619471947194611261126116719AF
:107E10002A32906B5BCE00000000000000000000E2
:107E20000000000000000000000000000000000052
:107E300000000000000000001895B45B0F226D09DF
:107E40006D096D098D098D098C096C098C118C11D6
:107E5000AC11AD19CD212E2AF042B35B3664986C7B
:107E6000D96C7864B653134BB152D062307B918B8E
:107E700070830F6B8E522C42EB31EB29EB29EB29EF
:107E8000EB29EB29EB29EB29EA29EA312D2AB61255
:107E9000B902BA02D902B80277029902BA0299026B
:107EA0003702B301ED00AA00AB00CB00EB00EB0002
:107EB000EB00CA0088000B01D0011302AF014C0196
:107EC0006D01AE01AF01AF01D00112021302AF018B
:107ED00009018400E5000D0291024F022E0270029A
:107EE000910AED01C600620041004100620083007A
:107EF000C400A819CC4ACF6B71845184718C108452
:107F00000C5B4A42293A2A3A4A3246196621093A12
:107F1000E93146290842518C38CE37CE9194694ACE
:107F20004529CA5AF6BDF2A4284A41108218C32036
:107F3000C3208218611024290842093AA82168192F
:107F40006719671967196719671967196719671931
:107F50006719671967196719671947194719471981
:107F60004719471946194619461146114619471926
:107F70004611461147114611461146114711C829AD
:107F80000D53938C00000000000000000000000072
:107F900000000000000000000000000000000000E1
:107FA000000000007DDFF563D13ACF196D096D093E
:107FB0006D098D098D098D11AD11CD19ED21ED21C1
:107FC0000E2A2E2A6F3A324B14649764F974FA74AD
:107FD00099641754955B536B727B9283918B70837A
:107FE000EE626D4A0C32EB31EB29EB31EB29EB29D8
:107FF000EB29EB310B32EB31EA310C2A9512980266
:1080000098029802B902DA02DB029902570236029C
:1080100036027001CB00AA00CB00EB00EB00EB00B6
:10802000CA00C900A8000B01AF01CF016C01AF016C
:10803000F101F101F1013302760212024B018400D9
:108040004100620048012E024F024F0270020D02F1
:108050000601210041006200C400E500E500C508FA
:10806000E51067190932AB420C536E6B107CCF736D
:10807000EC5A293AC921AC3AA829A6296A428A4A67
:10808000E83929422C63D19C98D658CE508C0842AE
:108090006529708C95B50C6B82102108C318A21845
:1080A000A2186110A2188539494AC82968196719A8
:1080B00067196719671967196719671967194719E0
:1080C00047194719471947194719471147194711C0
:1080D0004711461146112611461146114711461106
:1080E00046112611261146114711471188214A3A97
:1080F0004E639AD60000000000000000000000005F
:10810000000000000000000000000000000000006F
:108110000000BCCE935B1022AE118E098D098D0933
:108120008D11AD19EE210E2A4F326F3A8F3A6F3A08
:108130006F3AB042525314649764D96CD96C985C0E
:10814000585CF66BF57BF48BF393B18B7083EE6A1E
:108150006D4A0B32EB29EB310B320B320B320B3207
:108160000B320B320B320A320C2A5312570A7802A6
:108170009802B9021C03FB029902360257029802C8
:10818000350A4E01CA00CA00EB00EB00CA00CA0063
:10819000CA00A700A600E9008E01AE01D1011202BB
:1081A00033025402970276026D01A50041002100BE
:1081B0002100C408AB092E0A4F0A2E026901830070
:1081C0002100A30026016701470906090511462180
:1081D000A829E929A82125112511E8318A4A084250
:1081E0004621A91970532A3AE839EC5A2D63AB524B
:1081F0000C5B8D6B2F8437C63BE778CE508CE7390C
:10820000CA5AF29C8D730421200882108218A21889
:10821000A2188218E320E741093AA82167196719D3
:1082200067196719671967196719471947194719AE
:108230004719471947194719471146114719471157
:1082400046114611461146112611461146112611B6
:10825000261126114711471127114711A8210D5347
:1082600019C600000000000000000000000000002F
:1082700000000000000000000000000000000000FE
:108280009784F242EF198E118D118D11AD11CE1917
:108290002E2A6F32B042114B31531153F14AD04262
:1082A000D042114B9353165C585C785C785C5764F1
:1082B0003774368435941394B18B4F7BEE6A6D4AD4
:1082C0000C3A0B320B320B320B320B320B320B32BD
:1082D0000B320B320A320B32521A560A78029802CB
:1082E0009802FB02DA02780256027802DA02B90238
:1082F000D2010C01CA00EA00EA00CA00CA00EA0082
:10830000C90086006400C7006E01F1013302550206
:1083100097027702CF01A600410021004100210011
:1083200062002801CC01ED01CB0126016100820031
:108330004701A901A90967096711A8190A2A8C32FE
:10834000CD3A8C3AC82146114611E4108310A50895
:10835000AA11AC3AE83129422D630C63AA520B5B97
:10836000708CB5B599D61BE73BE798D6718C8A52CD
:10837000EE7B4C6B653121088210C318A318A2183C
:108380008218821824290842C829671947116719D9
:108390006719671967196719471947194719471165
:1083A000471947194711271147114711461126113F
:1083B0002611261126112611261126112611271104
:1083C000471147192611C5088408E6104B42728CE4
:1083D000000000000000000000000000000000009D
:1083E00000000000000000000000FFFF9FF7D463C2
:1083F0005032AF19AE19AE19EE210E224F32B042F3
:10840000114B5253925BB3639363735B3253114BC3
:10841000114B324B9453F653375C575C37643774C7
:10842000368C359C139CD18B707BEE6A6D4A0C3A6E
:108430000B320B320B320B320B320B320B320B3254
:108440000B320A320A32511A770A9902B90298029B
:10845000DA02B90277027702B802B8025502D101F6
:108460004D01EB00EA00EA00EA00C900E900E9007A
:10847000C80064004300C800D101550276027502AD
:10848000F001E600420021002100210041008300AC
:108490004801EC010D02CB094709E5006701CA015B
:1084A000CA0189014709460946118711A811C8194F
:1084B000A72146190509A3084100830006016809A0
:1084C000261966216942CB52494249424C6B13A599
:1084D00099D63BEF3BEFFAE6FADE78CE2F84EE7BBF
:1084E0004C6BC74141088218C318A318A218821800
:1084F000811082186539E839A82968194711671968
:108500004719671167114711471147114711471163
:1085100047112711271147114711261146114611FE
:108520002611461126112611461147194719261101
:1085300006112619E83149424A42AC42126CDFFF6B
:10854000FFFF00000000000000000000000000002D
:1085500000000000000000001FC75BCE3353F0296D
:10856000AF21CE210F2A5032903AD142324B935B49
:10857000D463F46B15741574B46B525B1153F14AE8
:10858000F14A124B7353D553F55BF663D56BF58304
:10859000F493F393B18B2F7BCE5A4C420C320B32B7
:1085A0000B320B320B320B320B320B320B320B32E3
:1085B0000B320A32301A760ABA02DA02B802B9026B
:1085C00098027702970297023302AF01D001D001DF
:1085D0004D01EA00C900E900C900C900E900E9004D
:1085E000A600430064008F0156027602F1012801C3
:1085F00042002000210041006200A4000701AB01FD
:108600002E024E02EC09680167018901A901880167
:1086100047010501E300E40005010501C408A308C2
:10862000A208820841006200E5004701E5006208F7
:10863000A729AA42493AA629E7398D73B5BD5BEF50
:10864000BDFF7CF7DAE6B9DEFADE95B59194AE7B34
:10865000284A611082188218A2188218821882187B
:108660006110E320C741093AA82147114711471972
:10867000471147114711471147114711471147113A
:1086800027112711471147112611261126114611CE
:1086900046112711471147192719261127112909B2
:1086A0002C32117434A53595956418657FD71FE772
:1086B00000000000000000000000000000000000BA
:1086C0000000000000007BAD99B5F252EF29CF29E0
:1086D0000F32703AD1421243534BB453F5633574A1
:1086E000567C767C367CD46B5263F152B04AB04AE9
:1086F000B04AF14A32535253535B5263526B517337
:1087000050732F6BCE626D4A2C3A0C320C320C3205
:108710000B3A0B320B320B320B320B320B320B3269
:10872000E9312F22550A9902DA02DA02D9029702B8
:108730007602760233028E014C01F0013302AF0162
:108740000B01C900E900C900C900E900E900C8003F
:10875000640022002C01350214024B01830020002A
:10876000200021008300E60049018C01EE01700A1F
:1087700070020D02AA016701470146012501E400CC
:10878000A300A200C3002501E400820041006100B3
:1087900062006200C400260105018300C40829327A
:1087A0008A42A729452108420F8C57D69CFFDEFF3D
:1087B000BDFF1BEF78D699D658CE74AD7094AA5AE7
:1087C0008218821882108210821882188218621011
:1087D000621045310842E9316819271147114719DC
:1087E00047114711471147114711471147114711C9
:1087F000471147114711261126112611261126115E
:10880000271127112711261106112711CD0994438D
:10881000D9A53CE73DDF7CA65D8E5FC7BDC60000E5
:108820000000000000000000000000000000000048
:108830000000000037AD58B5325B10321032703A8C
:10884000D142324B734BB453F55B366C7674767C05
:10885000567C1574B46B3263D0528F528F4A6E4A75
:108860006E4A8F4A8F4AAF4AAF4A8E4A8E528E5214
:108870006D4A4C422C3A0C320C320C320C320B3218
:108880000B320B320B320B320B320B32EB29E9314C
:108890000D22540A9802FA021B03FA0296025402AD
:1088A0001202AE012B016C013202950211022C0161
:1088B000C900C900E900E900E900E900E900A700F2
:1088C0004200C800B0016E01A50021000000210097
:1088D000830007018C01CE01AF01EF0150024F026E
:1088E0000D02A901260105090509E40082006100C5
:1088F000A20025016601040182006100820082005D
:10890000C40026010601A400A30866192932C7295C
:108910004521A6310A6BF1B4B8EE7BFFBDFFBDFF68
:108920005CF799DE37C678D637C633AD2C6BC320DB
:108930008218821882108218A318A218821041107F
:10894000C218A639093AA821471147114711471102
:1089500047114711471147112611261127114711B9
:10896000471126114611261126112611261126110E
:1089700027112711261106112709EF09B643D9A59A
:108980003CDFBEE77DD73BCF5BD77CE7FFFF000036
:1089900000000000000000000000000000000000D7
:1089A0000000D9BD99C5B373914A703AD142334B97
:1089B000744BB453F553165C3664367436741574C0
:1089C000B473736B1263D05AAF528F524D4A4D42FB
:1089D0002D422C3A2C3A2C3A2C3A0C3A0C320C32CE
:1089E0000C320B320B320B320B320B320B320B329E
:1089F0000B32EB31EB310B2A0B2AEB29EA290C2243
:108A000032127702DA025C031A037502F1018E0159
:108A10004B012B01CF01740295025302AF010B01F0
